:020000040800F2
:1000000088080020CD010008031D00089D1B000882
:10001000011D00085D030008072100080000000022
:10002000000000000000000000000000071D0008A4
:100030009703000800000000051D0008091D0008C6
:10004000E7010008E7010008E7010008E7010008F0
:10005000E7010008E7010008E7010008E7010008E0
:10006000E7010008E7010008E7010008E7010008D0
:1000700061030008E7010008E7010008E701000844
:10008000E7010008E7010008D5020008E7010008C1
:10009000E7010008E7010008E7010008E7010008A0
:1000A000E7010008E7010008E7010008E701000890
:1000B000E7010008E7010008E7010008E701000880
:1000C000E7010008E7010008E7010008E701000870
:1000D000E7010008E7010008E7010008E701000860
:1000E000E7010008E7010008E7010008E701000850
:1000F000E7010008E7010008E7010008E701000840
:10010000E7010008E7010008E7010008E70100082F
:10011000E7010008E7010008E7010008E70100081F
:10012000E7010008E7010008E7010008E70100080F
:1001300000F002F800F03AF80AA090E8000C8244BF
:100140008344AAF10107DA4501D100F02FF8AFF29C
:10015000090EBAE80F0013F0010F18BFFB1A43F0A5
:1001600001031847D8270000F8270000103A24BFE1
:1001700078C878C1FAD8520724BF30C830C144BF0C
:1001800004680C607047000000230024002500264E
:10019000103A28BF78C1FBD8520728BF30C148BFEA
:1001A0000B6070471FB51FBD10B510BD00F058F8AB
:1001B0001146FFF7F7FF02F03BF800F076F803B4C2
:1001C000FFF7F2FF03BC00F07DF80000094880470C
:1001D00009480047FEE7FEE7FEE7FEE7FEE7FEE729
:1001E000FEE7FEE7FEE7FEE704480549054A064B41
:1001F00070470000871D00083101000888020020B8
:100200008808002088040020880400204FF00002A5
:1002100000B5134694469646203922BFA0E80C50FC
:10022000A0E80C50B1F12001BFF4F7AF090728BFD7
:10023000A0E80C5048BF0CC05DF804EB890028BF53
:1002400040F8042B08BF704748BF20F8022B11F07C
:10025000804F18BF00F8012B7047704770477047F8
:10026000754600F02BF8AE4605006946534620F06F
:100270000700854618B020B5FFF7B6FFBDE820405F
:100280004FF000064FF000074FF000084FF0000B52
:1002900021F00701AC46ACE8C009ACE8C009ACE805
:1002A000C009ACE8C0098D46704710B50446AFF3ED
:1002B00000802046BDE81040FFF781BF004870472E
:1002C0002802002001491820ABBEFEE726000200EC
:1002D00070470000014800F098B800002C00002092
:1002E000F8B500260446009600688168C943C9072E
:1002F0002DD0816841F001018160164816490068DF
:10030000B0FBF1F000E0401E00900028FBD100F0AF
:1003100035FD054616E000BF00F030FD401B022809
:1003200010D920688068C043C0070BD0A06A40F095
:100330001000A062E06A40F00100E06284F82460EE
:100340000120F8BD20688068C043C007E4D10020C8
:10035000F8BD00001C00002040420F00FEE7000036
:10036000014800F05DBA0000A400002030B590F80C
:1003700040500124AC40C56B6C6004686360436806
:10038000102B036803D099600068C26030BD9A608A
:100390000068C16030BD704772B6FEE7704700006C
:1003A00070B56421144800F09FF8144DA5F10804BD
:1003B00038B9114800F026F8216825F81100491CC9
:1003C00021602068032812DB29886A881144AA88E2
:1003D000114491FBF0F001F05FFF6FF00B0102F0B0
:1003E00071F8074901F070FF606000202060BDE8EF
:1003F0007040014800F016B92C00002008000020D1
:10040000333353400068C06C704770B504460068D1
:1004100006684568A90625D5B10723D5A16AC9068E
:1004200003D4A16A41F40071A1628168C1F3424121
:10043000072910D1217B71B9416821F02001416069
:10044000A06A20F48070A062A06AC00403D4A06AED
:1004500040F00100A0622046FFF7A2FF21686FF084
:100460001200086028062ED570072CD5A06AC00699
:1004700003D4A06A40F40050A06220688168C1F3F0
:100480000231072909D04168490515D48168C1F3B3
:100490004241072910D1217B71B9416821F08001C7
:1004A0004160A06A20F48050A062A06AC00503D415
:1004B000A06A40F00100A0622046FFF76FFF2168AC
:1004C0006FF00C00086068060CD5F0070AD0A06A2F
:1004D00040F48030A062204600F005F821686FF0FB
:1004E0000100086070BD70472DE9F84300270D46F4
:1004F0000446009700F042FC804620688168C905E8
:1005000008D5A06A40F02000A06284F82470012081
:10051000BDE8F8834168C90503D4C06A10F4700FC0
:100520002AD0022000F0C8FC3B490968B1FBF0F674
:100530002068036939490B424FEA61014FEAA11271
:100540001FD1C3684FEA611C13EA0C0F19D103696C
:100550000B4225D1C068104222D1142023E0681C30
:100560000AD02DB100F00AFCA0EB0800A84203D984
:1005700020680068800725D5206800688007EED5D0
:100580002DE003690B4202D1C168114206D0026915
:1005900023490A4206D1C068084203D1542002E030
:1005A000292000E0FC204643009816E0681C11D08A
:1005B0002DB100F0E3FBA0EB0800A8420AD9009897
:1005C000B04207D2A06A40F00400A06284F8247010
:1005D00003209DE70098401C0090B042E6D32168BC
:1005E0006FF012000860A06A40F40070A0622068FA
:1005F0008068C0F3424007280CD1207B50B9A06A24
:1006000020F48070A062A06AC00403D4A06A40F005
:100610000100A06200207BE71C00002024499224F6
:100620004992240070B5044690F8240001280DD0AA
:10063000012084F824002046FFF752FE02004FF00C
:10064000000005D084F82400104670BD022070BD63
:10065000A16A40F60163994341F48071A162224D81
:1006600023682249AB4218D10E6816F4702F14D0BB
:10067000A66A46F48016A6620E68760505D5A66AB7
:1006800026F4005646F48056A662A66AF6040AD5F9
:10069000E66A26F00606E66206E0A66A26F48016FA
:1006A000A6625E68E9E7E06284F824006FF0020069
:1006B00018602068436843F0200343602068836823
:1006C000C3F34243072B05D1A84208D1096811F4AE
:1006D000702F04D0816841F480118160B4E7816893
:1006E00041F4A001F9E70000002801400424014082
:1006F0002DE9F05F90F821100024022903D0042195
:100700008163012485E001680A6822F00E020A6014
:1007100001680A6822F001020A603F4E3E4FB2159E
:10072000DFF8F4C0DFF8F090DFF8ECA0DFF8E8B015
:10073000DFF8E4E00168783F13011502ACF1640CC6
:10074000A9F15009AAF13C0AABF1280BAEF1140E45
:100750004FF48018B14227D9B9420ED0614512D06A
:1007600049451DD0514518D0594518D0714501D182
:10077000424615E0294EB14201D1012210E0274E38
:100780001436B14201D110220AE0244E2836B1427B
:1007900006D0224A3C32914201D11A4600E02A4654
:1007A0001E49091F0A602BE0B94213D0614517D0DA
:1007B000494522D051451DD059451DD0714501D123
:1007C00042461AE0B14202D14FF0807215E0134E5A
:1007D000B14201D1012210E0104E1436B14201D1D4
:1007E00010220AE00D4E2836B14206D00B4A3C32A8
:1007F000914201D11A4600E02A46074980394A60F1
:10080000012180F82110002180F82010416B01B1F6
:1008100088472046BDE8F09F80000240080402405F
:100820002DE9F05FC16B0A6801680B68046C4FF03A
:10083000040808FA04F8844D844E854FDFF814C28A
:10084000DFF81492DFF814A2DFF814B2DFF814E234
:1008500018EA020F65D05FEA437862D50A6892060B
:1008600003D40A6822F004020A60DFF8F0814FF432
:100870008062016808F1140813011402414524D96B
:10088000A9420DD0B1420FD0B9421AD0614515D05E
:10089000494515D0514501D1120312E0594501D106
:1008A00004220EE0714501D140220AE06D4D14355D
:1008B000A94206D06B4A2832914201D11A4600E083
:1008C00022466749091F0A6029E0A94213D0B142B4
:1008D00015D0B94220D061451BD049451BD05145A8
:1008E00002D14FF4800217E0414502D14FF08062FF
:1008F00012E0594501D104220EE0714501D1402298
:100900000AE0584D1435A94206D0564A2832914281
:1009100001D11A4600E022464B4908394A60C16AB3
:1009200071E04FF0020808FA04F818EA020F70D0DC
:100930005FEA83786DD50A68920606D40A6822F0C9
:100940000A020A60012180F82110DFF810814FF4BB
:100950000072016808F1140813011402414524D9FA
:10096000A9420DD0B1420FD0B9421AD0614515D07D
:10097000494515D0514501D1120312E0594501D125
:1009800002220EE0714501D120220AE0354D1435D6
:10099000A94206D0334A2832914201D11A4600E0DA
:1009A00022462F49091F0A6029E0A94213D0B1420B
:1009B00015D0B94220D061451BD049451BD05145C7
:1009C00002D14FF4001217E0414502D14FF00072FE
:1009D00012E0594501D102220EE0714501D12022D9
:1009E0000AE0204D1435A94206D01E4A2832914211
:1009F00001D11A4600E02246134908394A60002115
:100A000080F82010816A00291CD0BDE8F05F0847FB
:100A1000FFE70825A540154214D01A0712D50A6829
:100A200022F00E020A6090F84020C36B012101FA07
:100A300002F25A60816380F82110002180F82010B2
:100A4000016BE0E7BDE8F09F080002401C00024097
:100A50003000024044000240580002406C00024056
:100A6000080402401C04024030B560B11A4B026811
:100A700014219A4209D2194B1344B3FBF1F18900B6
:100A8000016417490AE0012030BD134B5B42134457
:100A9000B3FBF1F1890001640F490839C1630221F8
:100AA00080F82110136843F6F0718B43F0E90114CC
:100AB0002143D0E902452C43214304692143446981
:100AC00021438469214319431160002141630122BC
:100AD00042770177084630BD08040240F8FFFDBFA9
:100AE0000000024070B5044690F82000002501285F
:100AF0000CD0012084F8200094F821600020012E01
:100B000006D084F820000225284670BD022070BD62
:100B1000022684F82160A0632068066826F001069A
:100B200006602046FFF722FCE06A00282068016882
:100B300002D041F00E0106E021F0040101602068BE
:100B4000016841F00A0101602068016841F001017B
:100B50000160D9E770B5044600F010F90546601C45
:100B600002D004480078044400F008F9401BA04279
:100B7000FAD370BD100000202DE9F84FDFF8C891BE
:100B80000024A9F1040B23460F2709F1040AABF155
:100B9000040ED1E00125A54006EA0502AA4276D15D
:100BA000DFF8A8C14E68A6EB0C0866452BD00DDC1B
:100BB000032E34D005DC36B3012E19D0022E2FD1EE
:100BC0001BE0112E16D0122E2AD119E0B8F5881F7D
:100BD00019D006DCB8F5803F15D0B8F5801F1FD1BD
:100BE00011E0B8F5001F0ED0B8F5041F18D10AE0C7
:100BF000CB6815E0CB681B1D12E0CB6808330FE013
:100C0000CB680C330CE08B682BB1012B4FF0080341
:100C100003D0456104E0042302E0056100E0002305
:100C2000FF2A01D8064601E000F104064FEA8405D8
:100C300001D9A5F12005D6F8008007FA05FC28EABD
:100C40000C0803FA05F548EA0508C6F800804D6867
:100C5000ED0070D53E4DAE6946F00106AE61AD695E
:100C600024F0030605F0010500953A4D06EB050C4E
:100C7000DCF80850A607360F07FA06F825EA08053B
:100C8000DFF8D480404503D14FF0000825E052E062
:100C9000DFF8C880404502D14FF001081DE0DFF8C1
:100CA000C080404502D14FF0020816E0DFF8B48062
:100CB000404502D14FF003080FE0DFF8AC8040451B
:100CC00002D14FF0040808E0DFF8A080404502D1CF
:100CD0004FF0050801E04FF0060808FA06F848EA68
:100CE0000508CCF808804D68D9F80060ED024D4643
:100CF00001D5164300E096432E604D68DAF8006097
:100D0000AD02554601D5164300E096432E604D686E
:100D1000DBF80060AD035D4601D5164300E0964365
:100D20002E604D68DEF80060ED03754601D5164370
:100D300000E096432E60641C0A681646E2407FF489
:100D400029AFBDE8F88F0000080401400000111031
:100D5000001002400000014000080140000C01406A
:100D6000001001400014014000180140001C014027
:100D70000AB1016170470904FBE70000014880687F
:100D8000704700001000002002488168027811447A
:100D90008160704710000020074810B5016841F0DD
:100DA00010010160032000F075F80F2000F006F834
:100DB00000F024F8002010BD0020024070B50D4D59
:100DC00004464FF47A712878B1FBF0F00A490968BB
:100DD000B1FBF0F000F09EFB48B9102C07D20022C6
:100DE0002146501E00F036F800206C6070BD0120D6
:100DF00070BD0000100000201C0000200C4808B549
:100E0000816941F001018161816901F00101009175
:100E1000C16941F08051C161C06900F0805000900B
:100E20000448416821F0E06141F00071416008BD73
:100E30000010024000000140002809DB00F01F0202
:100E4000012191404009800000F1E020C0F800112C
:100E500070470000F0B40E4B1B680C46C3F302232E
:100E6000C3F10705042D00D90425191D072901D256
:100E7000002300E0DB1E012606FA05F1491E214091
:100E800099409E40761E16403143F0BC01F0BFB938
:100E90000CED00E0064900F0070208684FF6FF037A
:100EA000184040EA0220034A1043086070470000DF
:100EB0000CED00E00000FA0510B501460020284CBA
:100EC00004292FD00BDC012930D0022929D100F0D0
:100ED0005BF96168C1F38131491C49001FE00829B1
:100EE00020D010291DD161682268D20119D51D4872
:100EF000C1F38342C903805C0AD56168194AC1F312
:100F00004041921E515C184AB2FBF1F1484301E0A6
:100F1000164948436168490203D440000321B0FBED
:100F2000F1F010BDBDE8104000F03EB9226AC2F3F6
:100F30000121012903D1920701D5C80310BD02295F
:100F400005D1626A920702D549F6404010BD0329D7
:100F5000FCD121688903F9D54FF2244010BD00006F
:100F6000001002405425000800127A0000093D00DC
:100F70002DE9F84305460078354CC00754D0E069A8
:100F80000026C00008D4E06940F08050E061E069CC
:100F9000012600F0805000902E480168C90512D447
:100FA0000168804641F480710160FFF7E7FE074663
:100FB00005E000BFFFF7E2FEC01B642823D8D8F885
:100FC0000000C005F6D5206A10F4407021D0A98831
:100FD00001F4407181421CD0206A1F49012220F493
:100FE00040700A6000220A602062C00711D0FFF73B
:100FF000C5FE074641F2883808E000BFFFF7BEFE95
:10100000C11B414502D90320BDE8F883206A80074F
:10101000F4D5206A696820F44070084320621EB14C
:10102000E06920F08050E0612878800705D560688D
:10103000A96820F44040084360602878C00605D5C0
:101040006068696920F48000084360600020DBE785
:101050000010024000700040400442422DE9F04779
:101060000F46050061D0434E306800F00700B842DB
:1010700009D2306820F0070038433060306800F053
:101080000700B84251D128683B4C810712D5400770
:1010900003D5606840F4E06060602878000703D5FD
:1010A000606840F4605060606068A96820F0F000FB
:1010B000084360602878C00728D06868012810D0ED
:1010C0002168022810D0890700292EDA616821F0F2
:1010D000030101436160FFF751FE804641F2883908
:1010E0000DE021688903EFE78901EDE7FFF746FE90
:1010F000A0EB0801494502D90320BDE8F0876068EC
:10110000696800F00C00B0EB810FEFD1306800F09F
:101110000700B8420BD9306820F007003843306030
:10112000306800F00700B84201D00120E5E72878D8
:10113000400705D56068E96820F4E0600843606016
:101140002878000706D56068296920F4605040EAD5
:10115000C100606000F028F86168084AC1F303111B
:10116000515CC8400649086006480068FFF726FE43
:101170000020C2E700200240001002406425000861
:101180001C0000201400002004480549006849683C
:10119000044AC1F3C221515CC84070471C000020C2
:1011A00000100240742500080E4A51680E4801F0F4
:1011B0000C03042B11D0082B0FD10C48C1F383432F
:1011C000C903C05C0AD55168084AC1F34041921E68
:1011D000515C054A5043B0FBF1F070470449484365
:1011E000704700000010024000127A0042250008FB
:1011F00000093D002DE9F84F040070D02078C04D63
:10120000C00749D06868C0F38100012807D068682A
:10121000C0F38100022809D16868C00306D5286898
:10122000800339D560680028E7D035E06068B0F504
:10123000803F0BD010B1B0F5A02F11D0286820F45A
:1012400080302860286820F4802002E0286840F47C
:1012500080302860606890B1FFF790FD06460AE094
:10126000286840F480202860F0E700BFFFF786FD83
:10127000801B642873D828688003F7D50CE0FFF73B
:101280007DFD064605E000BFFFF778FD801B642862
:10129000F0D828688003F7D420789A4E80074FF062
:1012A00001094FF0000839D5686810F00C0F07D01D
:1012B0006868C0F38100022809D16868C00306D4B9
:1012C0002868800714D52069012808D110E020691A
:1012D000B0B1C6F80090FFF751FD074605E00AE1FE
:1012E000FFF74CFDC01B0228C4D828688007F7D53B
:1012F0002868616920F0F80040EAC10028600DE02C
:10130000C6F80080FFF73AFD074604E0FFF736FD18
:10131000C01B022823D828688007F7D4207800074C
:101320002CD57948A169D9B1C0F80090FFF726FD06
:10133000074604E0FFF722FDC01B02280FD8686AA9
:101340008007F7D571484FF4FA510068B0FBF1F00F
:10135000009000BF0098411E0091FAD20EE080E09C
:10136000C0F80080FFF70AFD074604E0FFF706FD1E
:10137000C01B022875D8686A8007F7D42078400718
:1013800060D5E8690027C00008D4E86940F08050C3
:10139000E861E869012700F0805000905C4801682E
:1013A000C90513D40168834641F480710160FFF7D9
:1013B000E5FC824606E000BFFFF7E0FCA0EB0A0078
:1013C00064284ED8DBF80000C005F5D5E068012898
:1013D0000AD008B1052813D0286A20F0010028623D
:1013E000286A20F0040002E0286A40F00100286228
:1013F000E06841F2883B98B1FFF7C0FC82460BE001
:10140000286A40F004002862EEE700BFFFF7B6FC50
:10141000A0EB0A0159455AD8286A8007F6D50CE096
:10142000FFF7ACFC824605E0FFF7A8FCA0EB0A0141
:1014300059454CD8286A8007F6D41FB1E86920F0D6
:101440008050E861E06988B36968C1F381010229CD
:1014500044D00228C6F8608004D0FFF78FFC044611
:1014600038E034E0FFF78AFC074604E0FFF786FC2B
:10147000C01B02282BD828688001F7D4206AB0F559
:10148000803F05D16868A16820F400300843686097
:10149000D4E908010843696821F4741108436860BD
:1014A000C6F86090FFF76AFC044606E025E000BF3E
:1014B000FFF764FC001B022809D828688001F7D5D3
:1014C0001BE000BFFFF75AFC001B022802D90320D3
:1014D000BDE8F88F28688001F4D40EE00128F7D029
:1014E0006868226A00F48031914204D1616A00F494
:1014F0007010884201D00120EAE70020E8E70000F0
:101500000010024000004242800442421C000020C1
:101510000070004010B5401EB0F1807F01D3012063
:1015200010BD4FF0E02460610F21601700F06FFEE6
:101530000020A06107202061002010BD10B590F8A8
:101540003C20012A22D0012280F83C20CA688C6805
:1015500022F4407222434C6822F4806222430C68D9
:1015600022F4006222430C6922F4805222434C6927
:1015700022F400522243C969002322F480420A4324
:1015800001684A6480F83C30002010BD022010BD84
:1015900070B590F83C20012A2CD0012480F83C4002
:1015A000022280F83D2003685A689D6822F0700688
:1015B0000A6832435A60104B02689A420ED00F4BB1
:1015C0009A420BD0B2F1804F08D00D4B9A4205D011
:1015D0000C4B9A4202D00C4B9A4204D1496825F038
:1015E00080031943916080F83D40002180F83C1051
:1015F000084670BD022070BD002C0140003401403F
:101600000004004000080040000C004010B5040039
:1016100003D094F83D0010B107E0012010BD002078
:1016200084F83C00204600F01FF8022084F83D00BA
:10163000211D206800F0A8FB012084F8460084F8F2
:101640003E0084F83F0084F8400084F8410084F8AC
:10165000420084F8430084F8440084F8450084F88C
:101660003D00002010BD000038B505460068124955
:1016700088421FD11148816941F40061816180690C
:10168000104C00F4006000900D4820601020606055
:1016900000208021C4E90201890021618900C4E998
:1016A0000510E0612046FFF7DFF908B1FEF774FE90
:1016B0006C62656238BD0000002C014000100240E1
:1016C0001C000240A400002070B5044690F83C00C5
:1016D0000025012817D0012684F83C60022084F8F8
:1016E0003D002068826822F0770222F47F42826007
:1016F0000868502838D00DDC20284FD005DC90B386
:10170000102811D14AE0022070BD302846D0402870
:101710000AD13BE060282FD070280DD0B0F5805F53
:1017200003D0B0F5005F12D0012584F83D600020A1
:1017300084F83C00284670BDCB68D1E901212068BF
:1017400000F0EAFB2068816841F0770109E0CB688E
:10175000D1E90121206800F0DFFB2068816841F4B5
:1017600080418160E1E719E0CA684968206800F0BB
:10177000A7FC5021206806E0CA684968206800F08C
:10178000B0FC6021206800F0D1FBCEE7CA68496850
:10179000206800F095FC40212068F4E722680146AB
:1017A0001046F0E77047000000B585B000210091B9
:1017B00001910291039100680B49884212D10B48B4
:1017C000816941F0040181618069694600F004008B
:1017D00004904FF480700090022001900390044820
:1017E000FFF7CAF905B000BD002C0140001002400F
:1017F0000008014070B5044690F83C0000260D46F4
:1018000001280FD0012084F83C006AB1042A1DD0C1
:10181000082A2FD00C2A3FD00126002084F83C0053
:10182000304670BD022070BD206800F087FB206844
:10183000816941F0080181612068816921F004011A
:101840008161206881692A69114311E0206800F0F4
:10185000A5FB2068816941F400618161206881698C
:1018600021F480618161206881692A6941EA02214D
:101870008161D2E7206800F0C7FB2068C16941F0B0
:101880000801C1612068C16921F00401C1612068BB
:10189000C1692A69114311E0206800F0E9FB206862
:1018A000C16941F40061C1612068C16921F48061AE
:1018B000C1612068C1692A6941EA0221C161ACE7BE
:1018C00010B5040003D094F83D0010B107E00120EA
:1018D00010BD002084F83C00204600F01EF80220D5
:1018E00084F83D00211D206800F04EFA012084F8A4
:1018F000460084F83E0084F83F0084F8400084F8F5
:10190000410084F8420084F8430084F8440084F8DD
:10191000450084F83D00002010BD704700F006BC73
:10192000704700002DE9F04117460D0004464FF0C6
:1019300000060CD0042D11D0082D16D094F84100CB
:10194000022819D094F84100012818D07CE094F8BE
:101950003E00022810D094F83E00F5E794F83F00CE
:10196000022809D094F83F00EEE794F840000228DE
:1019700002D094F84000E7E70220BDE8F081002F94
:1019800062D0002B60D04A494A4ADFF82CC10220BD
:101990004DB1042D18D0082D27D084F841000C2D0E
:1019A00044D0012681E084F83E00606A8162606A6A
:1019B0003946C262606AC0F830C02268606A343258
:1019C000FFF790F888BB21E084F83F00A06A8162AD
:1019D000A06A3946C262A06AC0F830C02268A06A14
:1019E0003832FFF77FF800BB15E084F84000E06A6A
:1019F0008162E06A3946C262E06AC0F830C022689B
:101A0000E06A3C32FFF76EF878B909E02068C168F7
:101A100041F400711EE02068C16841F4806119E062
:101A20002068C16841F4006114E00DE0206B816220
:101A3000206B3946C262206BC0F830C02268206B30
:101A40004032FFF74FF808B1012096E72068C168DF
:101A500041F48051C16001222946206800F0DAF982
:101A600016492068164A884201D0904203D1436C3F
:101A700043F400434364206888420DD090420BD069
:101A8000B0F1804F08D00F49884205D00E498842F6
:101A900002D00E49884204D1816801F0070106296D
:101AA00003D0016841F001010160304665E70000A4
:101AB0002F1E00088D1E0008C51E0008002C0140C6
:101AC000003401400004004000080040000C0040C9
:101AD00070B50D0004464FF0000607D0042D0CD061
:101AE000082D11D00C2D16D0012648E02068C168C1
:101AF00021F40071C160606A13E02068C16821F4BC
:101B00008061C160A06A0CE02068C16821F40061B6
:101B1000C160E06A05E02068C16821F48051C160BD
:101B2000206BFEF7E5FD00222946206800F072F9DF
:101B3000184B41F2111120688A10984202D0164BBE
:101B4000984209D1036A0B4206D1036A134203D1BA
:101B5000436C23F4004343642068036A0B4206D1BC
:101B6000016A114203D1016821F0010101600120E5
:101B70003DB1042D08D0082D09D084F8410030462D
:101B800070BD84F83E00FAE784F83F00F7E784F878
:101B90004000F4E7002C014000340140FEE7000063
:101BA000094808B5416941F00101416140690022DD
:101BB00000F00100009011460C20FFF74BF9BDE842
:101BC00008400C20FFF738B90010024070B586B00D
:101BD000002418480094019402940394816941F010
:101BE00020018161816901F020010491816941F046
:101BF00008018161816901F008010491816941F066
:101C00000401816180690C4E00F004004FF400551E
:101C10000490002229463046FFF7AAF801200095DB
:101C2000CDE901040220039069463046FEF7A4FF87
:101C300006B070BD00100240000C014010B596B017
:101C400000240F9410941194129413941C2108A84A
:101C50001494FEF7DBFA20216846FEF7D7FA2748EE
:101C60002549C0E900146921C0E9024104614461C9
:101C70008461FFF7CBFC08B1FEF78EFB4FF4805078
:101C80000F900FA91D48FFF71FFD08B1FEF784FB59
:101C90001A48FFF715FE08B1FEF77EFB139413A94F
:101CA00016481494FFF774FC08B1FEF775FB60202A
:101CB000CDE908040A940B940C940D94002208A911
:101CC0000E480E94FFF796FD08B1FEF765FB0094F1
:101CD0004FF40050CDE90440029401940394694606
:101CE00006480794FFF72AFC08B1FEF755FB0348A6
:101CF000FFF75AFD16B010BD002C01405C0000201B
:101D0000FEE7FEE770477047FFF73EB830B595B085
:101D100028216846FEF77AFA14210AA8FEF776FA17
:101D200018210FA8FEF772FA01210804CDE900106E
:101D30000025029502240491CDE907404FF4E010FC
:101D400009906846FFF756FA08B172B6FEE70AA98D
:101D50000F2081E831004FF48060CDE90D050221AC
:101D60000AA8FFF77BF908B172B6FEE74FF400400E
:101D700011900F940FA8FFF7FBF8002801D072B65E
:101D8000FEE715B030BD7047F0B502681C4B1D4D25
:101D90001D4E1E4F1E4C4FF0804C984209D0A04261
:101DA00007D0604505D0A84203D0B04201D0B84268
:101DB00004D122F0700E4A6842EA0E02984209D01D
:101DC000A04207D0604505D0A84203D0B04201D060
:101DD000B84203D122F44075CA682A434D6922F003
:101DE00080022A4302608A68C2620A68826298425C
:101DF00001D0A04201D10969016301214161F0BD17
:101E0000002C01400004004000080040000C00408D
:101E10000034014010B501F01F030121046A99400C
:101E20008C430462016A9A401143016210BD10B5EF
:101E3000446A0121626A824205D121778069F8B93A
:101E400084F83E101CE0A26A824206D10222227768
:101E50008069A8B984F83F1012E0E26A824206D194
:101E600004222277806958B984F8401008E0226B78
:101E7000824205D108222277806908B984F841108E
:101E80002046FFF74BFD0020207710BD10B5446AB7
:101E9000616A814201D101200DE0A16A814201D134
:101EA000022008E0E16A814201D1042003E0216BB5
:101EB000814201D1082020772046FFF731FD002024
:101EC000207710BD10B5446A0121626A824203D1B5
:101ED000217784F83E1019E0A26A824204D10220E0
:101EE000207784F83F1011E0E26A824204D1042096
:101EF000207784F8401009E0226B824204D1082048
:101F0000207784F8411001E084F83D102046FFF767
:101F100049FC0020207710BD10B5846842EA0322F6
:101F200024F47F440A432243826010BD826822F079
:101F300070020A4342F0070181607047F0B5036AFE
:101F4000026A22F00102026242688469124E24F0A1
:101F500073050C682C4323F002058B682B430D4D51
:101F6000A84201D0B04205D123F00807CB683B431B
:101F700023F00403A84201D0B04205D14D6922F4F8
:101F8000407215438A692A4342608461496841630B
:101F90000362F0BD002C014000340140F0B5026A3C
:101FA000036A23F010030362436884690D6824F414
:101FB000E64444EA05248D6822F0200242EA051234
:101FC0000F4D104EA84201D0B04206D1CF6822F08A
:101FD000800242EA071222F04002A84201D0B04239
:101FE00007D14D6923F4406343EA85038D6943EAD1
:101FF000850343608461496881630262F0BD00002B
:10200000002C014000340140F0B5026A036A23F459
:10201000807303624368C46922F4007224F073057C
:102020000C68124E2C438D6842EA05220E4DA842E0
:1020300001D0B04206D1CF6822F4006242EA072202
:1020400022F48062A84201D0B04207D14D6923F446
:10205000405343EA05138D6943EA05134360C461A5
:102060004968C1630262F0BD002C014000340140A8
:1020700030B5046A026A22F4805202624268C3697F
:102080000D6823F4E64343EA05238D6824F40054E5
:1020900044EA0534084DA84202D0084DA84204D1B4
:1020A0004D6922F4804242EA85124260C361496868
:1020B0000164046230BD0000002C01400034014086
:1020C00010B5036A046A24F001040462846924F0F0
:1020D000F00444EA021423F00A020A438461026213
:1020E00010BD10B5036A046A24F010040462846908
:1020F00023F0A00324F4704444EA023243EA0111BD
:102100008261016210BDFEE710B5F023044A002190
:102110000448FFF707FC04490020086010BD0000D8
:102120007C2500085C0000202000002070B51A4CBF
:102130002068012818D1606800251E2815D0401C91
:102140006060164EA0684FF01903A8B1A6F16402B2
:1021500000211348FFF7E6FB6068A6F1C80156F8B6
:10216000200000F039F8A56070BD00210C486560C2
:10217000FFF7AEFC256070BD084A0021C83A084848
:10218000FFF7D0FB6068054956F82000643900F07D
:1021900023F80120A06070BD20000020B0010020C5
:1021A0005C00002010B5F023074A00210748FFF724
:1021B000B9FB074806490068C83900F00DF8054921
:1021C0000120086010BD00007C2500085C00002094
:1021D000B001002020000020C0F30722C3B230B5B8
:1021E000C0F30740120442EA00221A4300204724A9
:1021F0002023150202D541F8204001E041F82030AB
:102200005200401C1828F4DB0020086630BD090786
:10221000090E002804DB00F1E02080F8001470476C
:1022200000F00F0000F1E02080F8141D704700005E
:10223000FEF7B2FDFFF76AFDFFF7C8FCFFF7B0FC41
:10224000FFF7FCFCFFF760FF0F4D01246FF07F46A6
:102250002046641CE4B21E2800D301241420FEF79B
:1022600079FC78210848FDF7D1FF002003E000BF8A
:1022700045F82060401CA042FADB1420FEF76AFCFF
:10228000FFF790FFE4E70000B0010020014800F0F4
:10229000E7B800BF0000C07F10F0004148BF4042D7
:1022A000B0FA80F310FA03F2C3F19D030BD051EAA8
:1022B000C35101EB1220530638BF704700F10100F3
:1022C00008BF20F0010070474FF47F0C1CEAD012C9
:1022D0001EBF1CEAD11392EA0C0F93EA0C0F00F018
:1022E000478090EA010F48BF42F480724FF0004CE3
:1022F0004CEA00204CEA012102EB0302A0FB01138F
:10230000A2F50002002918BF43F001035B0028BFBB
:102310004FEA330342EB22425FEA132C4CEBC250EC
:102320002EBFBCEB436FB2F57C0F70474FEA036CD6
:10233000BCF1004F08BF20F00100B2F57C0F38BFA0
:1023400070470BD582F0FF0212F5803FC8BF70477F
:1023500000F1C040D8BF00F00040704700F5000C0D
:102360005FEA4C0C48BF7047B0F1C04000F073B852
:1023700090EA010F0CEAD11348BF42F48072624523
:1023800038BF634504D280EA010000F00040704786
:1023900010B500F01AF800BF8900013E00F007B840
:1023A00000F009B85FEA410C5FEA1C6C08D080EAD3
:1023B000010000F050B85FEA400C5FEA1C6CF6D1F7
:1023C0004FF00040A0F5800070470EF1020E2EF095
:1023D000030E5EF8044B244204D44FEA4102B2F1EA
:1023E0007F4F11D84FEA4003B3F17F4F0CD80ED185
:1023F0004FEAD07CB2F17F4F0CEB4C0C0CF1020C8D
:1024000008BF4CEBD17C04E04FF0080C01E04FEA30
:10241000D17C0CEB4C0324FA03F404F00704B4F170
:10242000040C06D20EEB840CBDE810404CF0010CFD
:102430006047DFE80CF0070802024FF00040A0F50B
:10244000800010BD0846420018BFD2F1807288BFDC
:1024500000F0004010BDFF2141EAD050C005704798
:102460000CF00F03092B08BF082000F051800A2B45
:102470000BD0082B18BF704708BF1CF0400F0AD0C4
:102480004FF000004FF0000170471CF0400F18BFE4
:102490004FF0004070471CF0100F08D020F0704340
:1024A00000F07F4242EAD3014FEA4370704700F0E8
:1024B000604021F07F4242EA000201F07F4040EAA2
:1024C000727070474FF0FF0212EAD0521CBF92F0B8
:1024D000FF038B42C2BFD14200EBC1507047002ABC
:1024E0000AD0002B0BD0002900F00040A4BF40F020
:1024F000FE4040F40000704700F000407047430287
:102500004FF00B0C18BF4CF0806C7FF4BFAE7047DF
:102510001CF4801F11D01CF4E02F03D06FEACC31E3
:10252000490070474FF04050EFF3008222F07042B4
:1025300042EA000282F3008870474FF000007047C3
:10254000010202030405060708090A0B0C0D0E0F11
:102550001010010202030405060708090A0B0C0DFE
:102560000E0F101000000000000000000102030424
:102570000607080900000000010203040000000033
:10258000000000000000000000000000000000004B
:10259000000000000000000000000000000000003B
:1025A000000000000000000000000000000000002B
:1025B000000000000000000000000000000000001B
:102930000000000000000000000000005C2900080A
:10294000000000202C0000006C010008882900080D
:102950002C0000205C080000880100080000000036
:102960000000000000000000000000000100000066
:1029700010000000000000000024F400000000002F
:0829800000000000000000004F
:0400000508000131BD
:00000001FF
