Component: ARM Compiler 5.06 update 7 (build 960) Tool: armlink [4d3601]

==============================================================================

Section Cross References

    startup_stm32f407xx.o(RESET) refers to startup_stm32f407xx.o(STACK) for __initial_sp
    startup_stm32f407xx.o(RESET) refers to startup_stm32f407xx.o(.text) for Reset_Handler
    startup_stm32f407xx.o(RESET) refers to stm32f4xx_it.o(i.NMI_Handler) for NMI_Handler
    startup_stm32f407xx.o(RESET) refers to stm32f4xx_it.o(i.HardFault_Handler) for HardFault_Handler
    startup_stm32f407xx.o(RESET) refers to stm32f4xx_it.o(i.MemManage_Handler) for MemManage_Handler
    startup_stm32f407xx.o(RESET) refers to stm32f4xx_it.o(i.BusFault_Handler) for BusFault_Handler
    startup_stm32f407xx.o(RESET) refers to stm32f4xx_it.o(i.UsageFault_Handler) for UsageFault_Handler
    startup_stm32f407xx.o(RESET) refers to stm32f4xx_it.o(i.SVC_Handler) for SVC_Handler
    startup_stm32f407xx.o(RESET) refers to stm32f4xx_it.o(i.DebugMon_Handler) for DebugMon_Handler
    startup_stm32f407xx.o(RESET) refers to stm32f4xx_it.o(i.PendSV_Handler) for PendSV_Handler
    startup_stm32f407xx.o(RESET) refers to stm32f4xx_it.o(i.SysTick_Handler) for SysTick_Handler
    startup_stm32f407xx.o(.text) refers to system_stm32f4xx.o(i.SystemInit) for SystemInit
    startup_stm32f407xx.o(.text) refers to entry.o(.ARM.Collect$$$$00000000) for __main
    main.o(i.SystemClock_Config) refers to memseta.o(.text) for __aeabi_memclr4
    main.o(i.SystemClock_Config) refers to stm32f4xx_hal_rcc.o(i.HAL_RCC_OscConfig) for HAL_RCC_OscConfig
    main.o(i.SystemClock_Config) refers to stm32f4xx_hal_rcc.o(i.HAL_RCC_ClockConfig) for HAL_RCC_ClockConfig
    main.o(i.main) refers to stm32f4xx_hal.o(i.HAL_Init) for HAL_Init
    main.o(i.main) refers to main.o(i.SystemClock_Config) for SystemClock_Config
==============================================================================

Removing Unused input sections from the image.

    Removing startup_stm32f407xx.o(HEAP), (1024 bytes).
    Removing main.o(.rev16_text), (4 bytes).
    Removing main.o(.revsh_text), (4 bytes).
    Removing main.o(.rrx_text), (6 bytes).
    Removing gpio.o(.rev16_text), (4 bytes).
    Removing gpio.o(.revsh_text), (4 bytes).
    Removing gpio.o(.rrx_text), (6 bytes).
    Removing usart.o(.rev16_text), (4 bytes).
    Removing usart.o(.revsh_text), (4 bytes).
    Removing usart.o(.rrx_text), (6 bytes).
    Removing usart.o(i.HAL_UART_MspDeInit), (44 bytes).
    Removing stm32f4xx_it.o(.rev16_text), (4 bytes).
    Removing stm32f4xx_it.o(.revsh_text), (4 bytes).
    Removing stm32f4xx_it.o(.rrx_text), (6 bytes).
    Removing stm32f4xx_hal_msp.o(.rev16_text), (4 bytes).
    Removing stm32f4xx_hal_msp.o(.revsh_text), (4 bytes).
    Removing stm32f4xx_hal_msp.o(.rrx_text), (6 bytes).
    Removing stm32f4xx_hal_tim.o(.rev16_text), (4 bytes).
==============================================================================

Image Symbol Table

    Local Symbols

    Symbol Name                              Value     Ov Type        Size  Object(Section)

    ../Core/Src/gpio.c                       0x00000000   Number         0  gpio.o ABSOLUTE
    ../Core/Src/main.c                       0x00000000   Number         0  main.o ABSOLUTE
    ../Core/Src/stm32f4xx_hal_msp.c          0x00000000   Number         0  stm32f4xx_hal_msp.o ABSOLUTE
    ../Core/Src/stm32f4xx_it.c               0x00000000   Number         0  stm32f4xx_it.o ABSOLUTE
    ../Core/Src/system_stm32f4xx.c           0x00000000   Number         0  system_stm32f4xx.o ABSOLUTE
    ../Core/Src/usart.c                      0x00000000   Number         0  usart.o ABSOLUTE
    ../Drivers/STM32F4xx_HAL_Driver/Src/stm32f4xx_hal.c 0x00000000   Number         0  stm32f4xx_hal.o ABSOLUTE
    ../Drivers/STM32F4xx_HAL_Driver/Src/stm32f4xx_hal_cortex.c 0x00000000   Number         0  stm32f4xx_hal_cortex.o ABSOLUTE
    ../Drivers/STM32F4xx_HAL_Driver/Src/stm32f4xx_hal_dma.c 0x00000000   Number         0  stm32f4xx_hal_dma.o ABSOLUTE
    ../Drivers/STM32F4xx_HAL_Driver/Src/stm32f4xx_hal_dma_ex.c 0x00000000   Number         0  stm32f4xx_hal_dma_ex.o ABSOLUTE
    ../Drivers/STM32F4xx_HAL_Driver/Src/stm32f4xx_hal_exti.c 0x00000000   Number         0  stm32f4xx_hal_exti.o ABSOLUTE
    ../Drivers/STM32F4xx_HAL_Driver/Src/stm32f4xx_hal_flash.c 0x00000000   Number         0  stm32f4xx_hal_flash.o ABSOLUTE
    ../Drivers/STM32F4xx_HAL_Driver/Src/stm32f4xx_hal_flash_ex.c 0x00000000   Number         0  stm32f4xx_hal_flash_ex.o ABSOLUTE
    ../Drivers/STM32F4xx_HAL_Driver/Src/stm32f4xx_hal_flash_ramfunc.c 0x00000000   Number         0  stm32f4xx_hal_flash_ramfunc.o ABSOLUTE
    ../Drivers/STM32F4xx_HAL_Driver/Src/stm32f4xx_hal_gpio.c 0x00000000   Number         0  stm32f4xx_hal_gpio.o ABSOLUTE
    ../Drivers/STM32F4xx_HAL_Driver/Src/stm32f4xx_hal_pwr.c 0x00000000   Number         0  stm32f4xx_hal_pwr.o ABSOLUTE
    ../Drivers/STM32F4xx_HAL_Driver/Src/stm32f4xx_hal_pwr_ex.c 0x00000000   Number         0  stm32f4xx_hal_pwr_ex.o ABSOLUTE
    ../Drivers/STM32F4xx_HAL_Driver/Src/stm32f4xx_hal_rcc.c 0x00000000   Number         0  stm32f4xx_hal_rcc.o ABSOLUTE
    ../Drivers/STM32F4xx_HAL_Driver/Src/stm32f4xx_hal_rcc_ex.c 0x00000000   Number         0  stm32f4xx_hal_rcc_ex.o ABSOLUTE
    ../Drivers/STM32F4xx_HAL_Driver/Src/stm32f4xx_hal_tim.c 0x00000000   Number         0  stm32f4xx_hal_tim.o ABSOLUTE
    ../Drivers/STM32F4xx_HAL_Driver/Src/stm32f4xx_hal_tim_ex.c 0x00000000   Number         0  stm32f4xx_hal_tim_ex.o ABSOLUTE
    ../Drivers/STM32F4xx_HAL_Driver/Src/stm32f4xx_hal_uart.c 0x00000000   Number         0  stm32f4xx_hal_uart.o ABSOLUTE
    ../clib/microlib/division.c              0x00000000   Number         0  uidiv.o ABSOLUTE
    ../clib/microlib/division.c              0x00000000   Number         0  uldiv.o ABSOLUTE
    ../clib/microlib/init/entry.s            0x00000000   Number         0  entry12a.o ABSOLUTE
    ../clib/microlib/init/entry.s            0x00000000   Number         0  entry11b.o ABSOLUTE
    ../clib/microlib/init/entry.s            0x00000000   Number         0  entry12b.o ABSOLUTE
    ../clib/microlib/init/entry.s            0x00000000   Number         0  entry7b.o ABSOLUTE
    ../clib/microlib/init/entry.s            0x00000000   Number         0  entry5.o ABSOLUTE
    ../clib/microlib/init/entry.s            0x00000000   Number         0  entry2.o ABSOLUTE
    ../clib/microlib/init/entry.s            0x00000000   Number         0  entry8a.o ABSOLUTE
    ../clib/microlib/init/entry.s            0x00000000   Number         0  entry8b.o ABSOLUTE
    ../clib/microlib/init/entry.s            0x00000000   Number         0  entry9a.o ABSOLUTE
    ../clib/microlib/init/entry.s            0x00000000   Number         0  entry.o ABSOLUTE
    ../clib/microlib/init/entry.s            0x00000000   Number         0  entry9b.o ABSOLUTE
    ../clib/microlib/init/entry.s            0x00000000   Number         0  entry10a.o ABSOLUTE
    ../clib/microlib/init/entry.s            0x00000000   Number         0  entry10b.o ABSOLUTE
    ../clib/microlib/init/entry.s            0x00000000   Number         0  entry11a.o ABSOLUTE
    ../clib/microlib/init/entry.s            0x00000000   Number         0  entry7a.o ABSOLUTE
    ../clib/microlib/longlong.c              0x00000000   Number         0  llsshr.o ABSOLUTE
    ../clib/microlib/longlong.c              0x00000000   Number         0  llshl.o ABSOLUTE
    ../clib/microlib/longlong.c              0x00000000   Number         0  llushr.o ABSOLUTE
    ../clib/microlib/printf/printf.c         0x00000000   Number         0  printf4.o ABSOLUTE
    ../clib/microlib/printf/printf.c         0x00000000   Number         0  printf2.o ABSOLUTE
    ../clib/microlib/printf/printf.c         0x00000000   Number         0  printf3.o ABSOLUTE
    ../clib/microlib/printf/printf.c         0x00000000   Number         0  printf1.o ABSOLUTE
    ../clib/microlib/printf/printf.c         0x00000000   Number         0  printfa.o ABSOLUTE
    ../clib/microlib/printf/printf.c         0x00000000   Number         0  printf8.o ABSOLUTE
    ../clib/microlib/printf/printf.c         0x00000000   Number         0  printf0.o ABSOLUTE
    ../clib/microlib/printf/printf.c         0x00000000   Number         0  printfb.o ABSOLUTE
    ../clib/microlib/printf/printf.c         0x00000000   Number         0  printf7.o ABSOLUTE
    ../clib/microlib/printf/printf.c         0x00000000   Number         0  printf6.o ABSOLUTE
    ../clib/microlib/printf/printf.c         0x00000000   Number         0  printf5.o ABSOLUTE
    ../clib/microlib/printf/stubs.s          0x00000000   Number         0  stubs.o ABSOLUTE
    ../clib/microlib/stdio/streams.c         0x00000000   Number         0  stdout.o ABSOLUTE
    ../clib/microlib/string/memset.c         0x00000000   Number         0  memseta.o ABSOLUTE
    ../clib/microlib/stubs.s                 0x00000000   Number         0  iusefp.o ABSOLUTE
    ../fplib/microlib/fpadd.c                0x00000000   Number         0  dadd.o ABSOLUTE
    ../fplib/microlib/fpdiv.c                0x00000000   Number         0  ddiv.o ABSOLUTE
    ../fplib/microlib/fpepilogue.c           0x00000000   Number         0  depilogue.o ABSOLUTE
    ../fplib/microlib/fpfix.c                0x00000000   Number         0  dfixui.o ABSOLUTE
    ../fplib/microlib/fpfix.c                0x00000000   Number         0  dfixul.o ABSOLUTE
    ../fplib/microlib/fpflt.c                0x00000000   Number         0  dfltui.o ABSOLUTE
    ../fplib/microlib/fpmul.c                0x00000000   Number         0  dmul.o ABSOLUTE
    ..\Core\Src\gpio.c                       0x00000000   Number         0  gpio.o ABSOLUTE
    ..\Core\Src\main.c                       0x00000000   Number         0  main.o ABSOLUTE
    ..\Core\Src\stm32f4xx_hal_msp.c          0x00000000   Number         0  stm32f4xx_hal_msp.o ABSOLUTE
    ..\Core\Src\stm32f4xx_it.c               0x00000000   Number         0  stm32f4xx_it.o ABSOLUTE
    ..\Core\Src\system_stm32f4xx.c           0x00000000   Number         0  system_stm32f4xx.o ABSOLUTE
    ..\Core\Src\usart.c                      0x00000000   Number         0  usart.o ABSOLUTE
    ..\Drivers\STM32F4xx_HAL_Driver\Src\stm32f4xx_hal.c 0x00000000   Number         0  stm32f4xx_hal.o ABSOLUTE
    ..\Drivers\STM32F4xx_HAL_Driver\Src\stm32f4xx_hal_cortex.c 0x00000000   Number         0  stm32f4xx_hal_cortex.o ABSOLUTE
    ..\Drivers\STM32F4xx_HAL_Driver\Src\stm32f4xx_hal_dma.c 0x00000000   Number         0  stm32f4xx_hal_dma.o ABSOLUTE
    ..\Drivers\STM32F4xx_HAL_Driver\Src\stm32f4xx_hal_dma_ex.c 0x00000000   Number         0  stm32f4xx_hal_dma_ex.o ABSOLUTE
    ..\Drivers\STM32F4xx_HAL_Driver\Src\stm32f4xx_hal_exti.c 0x00000000   Number         0  stm32f4xx_hal_exti.o ABSOLUTE
    ..\Drivers\STM32F4xx_HAL_Driver\Src\stm32f4xx_hal_flash.c 0x00000000   Number         0  stm32f4xx_hal_flash.o ABSOLUTE
    ..\Drivers\STM32F4xx_HAL_Driver\Src\stm32f4xx_hal_flash_ex.c 0x00000000   Number         0  stm32f4xx_hal_flash_ex.o ABSOLUTE
    ..\Drivers\STM32F4xx_HAL_Driver\Src\stm32f4xx_hal_flash_ramfunc.c 0x00000000   Number         0  stm32f4xx_hal_flash_ramfunc.o ABSOLUTE
    ..\Drivers\STM32F4xx_HAL_Driver\Src\stm32f4xx_hal_gpio.c 0x00000000   Number         0  stm32f4xx_hal_gpio.o ABSOLUTE
    ..\Drivers\STM32F4xx_HAL_Driver\Src\stm32f4xx_hal_pwr.c 0x00000000   Number         0  stm32f4xx_hal_pwr.o ABSOLUTE
    ..\Drivers\STM32F4xx_HAL_Driver\Src\stm32f4xx_hal_pwr_ex.c 0x00000000   Number         0  stm32f4xx_hal_pwr_ex.o ABSOLUTE
    ..\Drivers\STM32F4xx_HAL_Driver\Src\stm32f4xx_hal_rcc.c 0x00000000   Number         0  stm32f4xx_hal_rcc.o ABSOLUTE
    ..\Drivers\STM32F4xx_HAL_Driver\Src\stm32f4xx_hal_rcc_ex.c 0x00000000   Number         0  stm32f4xx_hal_rcc_ex.o ABSOLUTE
    ..\Drivers\STM32F4xx_HAL_Driver\Src\stm32f4xx_hal_tim.c 0x00000000   Number         0  stm32f4xx_hal_tim.o ABSOLUTE
    ..\Drivers\STM32F4xx_HAL_Driver\Src\stm32f4xx_hal_tim_ex.c 0x00000000   Number         0  stm32f4xx_hal_tim_ex.o ABSOLUTE
    ..\Drivers\STM32F4xx_HAL_Driver\Src\stm32f4xx_hal_uart.c 0x00000000   Number         0  stm32f4xx_hal_uart.o ABSOLUTE
    ..\\coremark-main\\simple\\core_portme.c 0x00000000   Number         0  core_portme.o ABSOLUTE
    ..\coremark-main\core_list_join.c        0x00000000   Number         0  core_list_join.o ABSOLUTE
    ..\coremark-main\core_main.c             0x00000000   Number         0  core_main.o ABSOLUTE
    ..\coremark-main\core_matrix.c           0x00000000   Number         0  core_matrix.o ABSOLUTE
    ..\coremark-main\core_state.c            0x00000000   Number         0  core_state.o ABSOLUTE
    ..\coremark-main\core_util.c             0x00000000   Number         0  core_util.o ABSOLUTE
    ..\coremark-main\simple\core_portme.c    0x00000000   Number         0  core_portme.o ABSOLUTE
    cdcmple.s                                0x00000000   Number         0  cdcmple.o ABSOLUTE
    cdrcmple.s                               0x00000000   Number         0  cdrcmple.o ABSOLUTE
    dc.s                                     0x00000000   Number         0  dc.o ABSOLUTE
    handlers.s                               0x00000000   Number         0  handlers.o ABSOLUTE
    init.s                                   0x00000000   Number         0  init.o ABSOLUTE
    startup_stm32f407xx.s                    0x00000000   Number         0  startup_stm32f407xx.o ABSOLUTE
    RESET                                    0x08000000   Section      392  startup_stm32f407xx.o(RESET)
    .ARM.Collect$$$$00000000                 0x08000188   Section        0  entry.o(.ARM.Collect$$$$00000000)
    .ARM.Collect$$$$00000001                 0x08000188   Section        4  entry2.o(.ARM.Collect$$$$00000001)
    .ARM.Collect$$$$00000004                 0x0800018c   Section        4  entry5.o(.ARM.Collect$$$$00000004)
    .ARM.Collect$$$$00000008                 0x08000190   Section        0  entry7b.o(.ARM.Collect$$$$00000008)
    .ARM.Collect$$$$0000000A                 0x08000190   Section        0  entry8b.o(.ARM.Collect$$$$0000000A)
    .ARM.Collect$$$$0000000B                 0x08000190   Section        8  entry9a.o(.ARM.Collect$$$$0000000B)
    .ARM.Collect$$$$0000000E                 0x08000198   Section        4  entry12b.o(.ARM.Collect$$$$0000000E)
    .ARM.Collect$$$$0000000F                 0x0800019c   Section        0  entry10a.o(.ARM.Collect$$$$0000000F)
    .ARM.Collect$$$$00000011                 0x0800019c   Section        0  entry11a.o(.ARM.Collect$$$$00000011)
    .ARM.Collect$$$$00002712                 0x0800019c   Section        4  entry2.o(.ARM.Collect$$$$00002712)
    __lit__00000000                          0x0800019c   Data           4  entry2.o(.ARM.Collect$$$$00002712)
    .text                                    0x080001a0   Section       36  startup_stm32f407xx.o(.text)
    $v0                                      0x080001a0   Number         0  startup_stm32f407xx.o(.text)
    .text                                    0x080001c4   Section        0  uldiv.o(.text)
    .text                                    0x08000226   Section        0  memseta.o(.text)
    .text                                    0x0800024a   Section        0  ddiv.o(.text)
    .text                                    0x08000328   Section        0  dfltui.o(.text)
    .text                                    0x08000342   Section        0  dfixui.o(.text)
    .text                                    0x08000374   Section       48  cdcmple.o(.text)
    .text                                    0x080003a4   Section       48  cdrcmple.o(.text)
    .text                                    0x080003d4   Section        0  uidiv.o(.text)
    .text                                    0x08000400   Section        0  llshl.o(.text)
    .text                                    0x0800041e   Section        0  llushr.o(.text)
    .text                                    0x0800043e   Section        0  iusefp.o(.text)
    .text                                    0x0800043e   Section        0  depilogue.o(.text)
    .text                                    0x080004f8   Section        0  dadd.o(.text)
    .text                                    0x08000646   Section        0  dmul.o(.text)
    .text                                    0x0800072a   Section        0  dfixul.o(.text)
    .text                                    0x0800075c   Section       36  init.o(.text)
    .text                                    0x08000780   Section        0  llsshr.o(.text)
    i.BusFault_Handler                       0x080007a4   Section        0  stm32f4xx_it.o(i.BusFault_Handler)
    i.DebugMon_Handler                       0x080007a6   Section        0  stm32f4xx_it.o(i.DebugMon_Handler)
    i.Error_Handler                          0x080007a8   Section        0  main.o(i.Error_Handler)
    i.HAL_GPIO_Init                          0x080007ac   Section        0  stm32f4xx_hal_gpio.o(i.HAL_GPIO_Init)
    i.HAL_GetTick                            0x0800099c   Section        0  stm32f4xx_hal.o(i.HAL_GetTick)
    i.HAL_IncTick                            0x080009a8   Section        0  stm32f4xx_hal.o(i.HAL_IncTick)
    i.HAL_Init                               0x080009b8   Section        0  stm32f4xx_hal.o(i.HAL_Init)
    i.HAL_InitTick                           0x080009ec   Section        0  stm32f4xx_hal.o(i.HAL_InitTick)
    i.HAL_MspInit                            0x08000a2c   Section        0  stm32f4xx_hal_msp.o(i.HAL_MspInit)
    i.HAL_NVIC_SetPriority                   0x08000a5c   Section        0  stm32f4xx_hal_cortex.o(i.HAL_NVIC_SetPriority)
    i.HAL_NVIC_SetPriorityGrouping           0x08000a9c   Section        0  stm32f4xx_hal_cortex.o(i.HAL_NVIC_SetPriorityGrouping)
    i.HAL_RCC_ClockConfig                    0x08000ac0   Section        0  stm32f4xx_hal_rcc.o(i.HAL_RCC_ClockConfig)
    i.HAL_RCC_GetPCLK1Freq                   0x08000bf4   Section        0  stm32f4xx_hal_rcc.o(i.HAL_RCC_GetPCLK1Freq)
    i.HAL_RCC_GetPCLK2Freq                   0x08000c14   Section        0  stm32f4xx_hal_rcc.o(i.HAL_RCC_GetPCLK2Freq)
    i.HAL_RCC_GetSysClockFreq                0x08000c34   Section        0  stm32f4xx_hal_rcc.o(i.HAL_RCC_GetSysClockFreq)
    i.HAL_RCC_OscConfig                      0x08000c98   Section        0  stm32f4xx_hal_rcc.o(i.HAL_RCC_OscConfig)
    i.HAL_SYSTICK_Config                     0x08001004   Section        0  stm32f4xx_hal_cortex.o(i.HAL_SYSTICK_Config)
    i.HAL_UART_Init                          0x0800102c   Section        0  stm32f4xx_hal_uart.o(i.HAL_UART_Init)
    i.HAL_UART_MspInit                       0x08001090   Section        0  usart.o(i.HAL_UART_MspInit)
    i.HardFault_Handler                      0x080010fc   Section        0  stm32f4xx_it.o(i.HardFault_Handler)
    i.MX_GPIO_Init                           0x08001100   Section        0  gpio.o(i.MX_GPIO_Init)
    i.MX_USART1_UART_Init                    0x0800113c   Section        0  usart.o(i.MX_USART1_UART_Init)
    i.MemManage_Handler                      0x08001174   Section        0  stm32f4xx_it.o(i.MemManage_Handler)
    i.NMI_Handler                            0x08001176   Section        0  stm32f4xx_it.o(i.NMI_Handler)
    i.PendSV_Handler                         0x08001178   Section        0  stm32f4xx_it.o(i.PendSV_Handler)
    i.SVC_Handler                            0x0800117a   Section        0  stm32f4xx_it.o(i.SVC_Handler)
    i.SysTick_Handler                        0x0800117c   Section        0  stm32f4xx_it.o(i.SysTick_Handler)
    i.SystemClock_Config                     0x08001180   Section        0  main.o(i.SystemClock_Config)
    i.SystemInit                             0x08001218   Section        0  system_stm32f4xx.o(i.SystemInit)
    i.UART_SetConfig                         0x08001228   Section        0  stm32f4xx_hal_uart.o(i.UART_SetConfig)
    UART_SetConfig                           0x08001229   Thumb Code   258  stm32f4xx_hal_uart.o(i.UART_SetConfig)
    i.UsageFault_Handler                     0x08001334   Section        0  stm32f4xx_it.o(i.UsageFault_Handler)
    i.__0printf                              0x08001338   Section        0  printfa.o(i.__0printf)
    i.__NVIC_SetPriority                     0x08001358   Section        0  stm32f4xx_hal_cortex.o(i.__NVIC_SetPriority)
    __NVIC_SetPriority                       0x08001359   Thumb Code    32  stm32f4xx_hal_cortex.o(i.__NVIC_SetPriority)
    i.__scatterload_copy                     0x08001378   Section       14  handlers.o(i.__scatterload_copy)
    i.__scatterload_null                     0x08001386   Section        2  handlers.o(i.__scatterload_null)
    i.__scatterload_zeroinit                 0x08001388   Section       14  handlers.o(i.__scatterload_zeroinit)
    i._fp_digits                             0x08001398   Section        0  printfa.o(i._fp_digits)
    _fp_digits                               0x08001399   Thumb Code   366  printfa.o(i._fp_digits)
    i._printf_core                           0x0800151c   Section        0  printfa.o(i._printf_core)
    _printf_core                             0x0800151d   Thumb Code  1704  printfa.o(i._printf_core)
    i._printf_post_padding                   0x08001bd0   Section        0  printfa.o(i._printf_post_padding)
    _printf_post_padding                     0x08001bd1   Thumb Code    36  printfa.o(i._printf_post_padding)
    i._printf_pre_padding                    0x08001bf4   Section        0  printfa.o(i._printf_pre_padding)
    _printf_pre_padding                      0x08001bf5   Thumb Code    46  printfa.o(i._printf_pre_padding)
    i.calc_func                              0x08001c22   Section        0  core_list_join.o(i.calc_func)
    i.check_data_types                       0x08001caa   Section        0  core_util.o(i.check_data_types)
    i.cmp_complex                            0x08001cae   Section        0  core_list_join.o(i.cmp_complex)
    i.cmp_idx                                0x08001cc8   Section        0  core_list_join.o(i.cmp_idx)
    i.core_bench_list                        0x08001cf4   Section        0  core_list_join.o(i.core_bench_list)
    i.core_bench_matrix                      0x08001e04   Section        0  core_matrix.o(i.core_bench_matrix)
    i.core_bench_state                       0x08001e24   Section        0  core_state.o(i.core_bench_state)
    i.core_init_matrix                       0x08001eec   Section        0  core_matrix.o(i.core_init_matrix)
    i.core_init_state                        0x08001f6c   Section        0  core_state.o(i.core_init_state)
    i.core_list_find                         0x08001ff4   Section        0  core_list_join.o(i.core_list_find)
    i.core_list_init                         0x08002024   Section        0  core_list_join.o(i.core_list_init)
    i.core_list_insert_new                   0x080020f8   Section        0  core_list_join.o(i.core_list_insert_new)
    i.core_list_mergesort                    0x08002134   Section        0  core_list_join.o(i.core_list_mergesort)
    i.core_list_remove                       0x080021c8   Section        0  core_list_join.o(i.core_list_remove)
    i.core_list_reverse                      0x080021e0   Section        0  core_list_join.o(i.core_list_reverse)
    i.core_list_undo_remove                  0x080021f4   Section        0  core_list_join.o(i.core_list_undo_remove)
    i.core_main                              0x08002204   Section        0  core_main.o(i.core_main)
    i.core_state_transition                  0x08002ad4   Section        0  core_state.o(i.core_state_transition)
    i.crc16                                  0x08002bf6   Section        0  core_util.o(i.crc16)
    i.crcu16                                 0x08002bfc   Section        0  core_util.o(i.crcu16)
    i.crcu32                                 0x08002c12   Section        0  core_util.o(i.crcu32)
    i.crcu8                                  0x08002c28   Section        0  core_util.o(i.crcu8)
    i.ee_isdigit                             0x08002c56   Section        0  core_state.o(i.ee_isdigit)
    ee_isdigit                               0x08002c57   Thumb Code    14  core_state.o(i.ee_isdigit)
    i.fputc                                  0x08002c64   Section        0  usart.o(i.fputc)
    i.get_seed_32                            0x08002c78   Section        0  core_util.o(i.get_seed_32)
    i.get_time                               0x08002cb4   Section        0  core_portme.o(i.get_time)
    i.iterate                                0x08002cc0   Section        0  core_main.o(i.iterate)
    i.main                                   0x08002d08   Section        0  main.o(i.main)
    i.matrix_add_const                       0x08002d40   Section        0  core_matrix.o(i.matrix_add_const)
    i.matrix_mul_const                       0x08002d68   Section        0  core_matrix.o(i.matrix_mul_const)
    i.matrix_mul_matrix                      0x08002d92   Section        0  core_matrix.o(i.matrix_mul_matrix)
    i.matrix_mul_matrix_bitextract           0x08002de0   Section        0  core_matrix.o(i.matrix_mul_matrix_bitextract)
    i.matrix_mul_vect                        0x08002e3a   Section        0  core_matrix.o(i.matrix_mul_vect)
    i.matrix_sum                             0x08002e70   Section        0  core_matrix.o(i.matrix_sum)
    i.matrix_test                            0x08002ebc   Section        0  core_matrix.o(i.matrix_test)
    i.portable_fini                          0x08002f66   Section        0  core_portme.o(i.portable_fini)
    i.portable_init                          0x08002f6c   Section        0  core_portme.o(i.portable_init)
    i.start_time                             0x08002f74   Section        0  core_portme.o(i.start_time)
    i.stop_time                              0x08002f84   Section        0  core_portme.o(i.stop_time)
    i.time_in_secs                           0x08002f94   Section        0  core_portme.o(i.time_in_secs)
    .constdata                               0x08002fb4   Section       16  system_stm32f4xx.o(.constdata)
    .constdata                               0x08002fc4   Section        8  system_stm32f4xx.o(.constdata)
    .conststring                             0x08002fcc   Section      173  core_main.o(.conststring)
    .conststring                             0x0800307c   Section      173  core_state.o(.conststring)
    .data                                    0x20000000   Section       12  stm32f4xx_hal.o(.data)
    .data                                    0x2000000c   Section        4  system_stm32f4xx.o(.data)
    .data                                    0x20000010   Section       30  core_main.o(.data)
    list_known_crc                           0x20000010   Data          10  core_main.o(.data)
    matrix_known_crc                         0x2000001a   Data          10  core_main.o(.data)
    state_known_crc                          0x20000024   Data          10  core_main.o(.data)
    .data                                    0x20000030   Section       64  core_state.o(.data)
    intpat                                   0x20000030   Data          16  core_state.o(.data)
    floatpat                                 0x20000040   Data          16  core_state.o(.data)
    scipat                                   0x20000050   Data          16  core_state.o(.data)
    errpat                                   0x20000060   Data          16  core_state.o(.data)
    .data                                    0x20000070   Section        4  core_portme.o(.data)
    .data                                    0x20000074   Section        4  core_portme.o(.data)
    .data                                    0x20000078   Section        4  core_portme.o(.data)
    .data                                    0x2000007c   Section        4  core_portme.o(.data)
    .data                                    0x20000080   Section        4  core_portme.o(.data)
    .data                                    0x20000084   Section        4  core_portme.o(.data)
    .data                                    0x20000088   Section        8  core_portme.o(.data)
    start_time_val                           0x20000088   Data           4  core_portme.o(.data)
    stop_time_val                            0x2000008c   Data           4  core_portme.o(.data)
    .data                                    0x20000090   Section        4  stdout.o(.data)
    .bss                                     0x20000094   Section       68  usart.o(.bss)
    STACK                                    0x200000d8   Section     2048  startup_stm32f407xx.o(STACK)

    Global Symbols

    Symbol Name                              Value     Ov Type        Size  Object(Section)

    BuildAttributes$$THM_ISAv4$E$P$D$K$B$S$7EM$VFPi3$EXTD16$VFPS$VFMA$PE$A:L22UL41UL21$X:L11$S22US41US21$IEEE1$IW$USESV6$~STKCKD$USESV7$~SHL$OSPACE$ROPI$EBA8$MICROLIB$REQ8$PRES8$EABIv2 0x00000000   Number         0  anon$$obj.o ABSOLUTE
    __ARM_use_no_argv                        0x00000000   Number         0  main.o ABSOLUTE
    _printf_a                                0x00000000   Number         0  stubs.o ABSOLUTE
    _printf_c                                0x00000000   Number         0  stubs.o ABSOLUTE
    _printf_charcount                        0x00000000   Number         0  stubs.o ABSOLUTE
    _printf_d                                0x00000000   Number         0  stubs.o ABSOLUTE
    _printf_e                                0x00000000   Number         0  stubs.o ABSOLUTE
    _printf_f                                0x00000000   Number         0  stubs.o ABSOLUTE
    _printf_flags                            0x00000000   Number         0  stubs.o ABSOLUTE
    _printf_fp_dec                           0x00000000   Number         0  stubs.o ABSOLUTE
    _printf_fp_hex                           0x00000000   Number         0  stubs.o ABSOLUTE
    _printf_g                                0x00000000   Number         0  stubs.o ABSOLUTE
    _printf_i                                0x00000000   Number         0  stubs.o ABSOLUTE
    _printf_int_dec                          0x00000000   Number         0  stubs.o ABSOLUTE
    _printf_l                                0x00000000   Number         0  stubs.o ABSOLUTE
    _printf_lc                               0x00000000   Number         0  stubs.o ABSOLUTE
    _printf_ll                               0x00000000   Number         0  stubs.o ABSOLUTE
    _printf_lld                              0x00000000   Number         0  stubs.o ABSOLUTE
    _printf_lli                              0x00000000   Number         0  stubs.o ABSOLUTE
    _printf_llo                              0x00000000   Number         0  stubs.o ABSOLUTE
    _printf_llu                              0x00000000   Number         0  stubs.o ABSOLUTE
    _printf_llx                              0x00000000   Number         0  stubs.o ABSOLUTE
    _printf_longlong_dec                     0x00000000   Number         0  stubs.o ABSOLUTE
    _printf_longlong_hex                     0x00000000   Number         0  stubs.o ABSOLUTE
    _printf_longlong_oct                     0x00000000   Number         0  stubs.o ABSOLUTE
    _printf_ls                               0x00000000   Number         0  stubs.o ABSOLUTE
    _printf_mbtowc                           0x00000000   Number         0  stubs.o ABSOLUTE
    _printf_n                                0x00000000   Number         0  stubs.o ABSOLUTE
    _printf_o                                0x00000000   Number         0  stubs.o ABSOLUTE
    _printf_p                                0x00000000   Number         0  stubs.o ABSOLUTE
    _printf_percent                          0x00000000   Number         0  stubs.o ABSOLUTE
    _printf_pre_padding                      0x00000000   Number         0  stubs.o ABSOLUTE
    _printf_return_value                     0x00000000   Number         0  stubs.o ABSOLUTE
    _printf_s                                0x00000000   Number         0  stubs.o ABSOLUTE
    _printf_sizespec                         0x00000000   Number         0  stubs.o ABSOLUTE
    _printf_str                              0x00000000   Number         0  stubs.o ABSOLUTE
    _printf_truncate_signed                  0x00000000   Number         0  stubs.o ABSOLUTE
    _printf_truncate_unsigned                0x00000000   Number         0  stubs.o ABSOLUTE
    _printf_u                                0x00000000   Number         0  stubs.o ABSOLUTE
    _printf_wc                               0x00000000   Number         0  stubs.o ABSOLUTE
    _printf_wctomb                           0x00000000   Number         0  stubs.o ABSOLUTE
    _printf_widthprec                        0x00000000   Number         0  stubs.o ABSOLUTE
    _printf_x                                0x00000000   Number         0  stubs.o ABSOLUTE
    __arm_fini_                               - Undefined Weak Reference
    __cpp_initialize__aeabi_                  - Undefined Weak Reference
    __cxa_finalize                            - Undefined Weak Reference
    __decompress                              - Undefined Weak Reference
    _clock_init                               - Undefined Weak Reference
    _microlib_exit                            - Undefined Weak Reference
    __Vectors_Size                           0x00000188   Number         0  startup_stm32f407xx.o ABSOLUTE
    __Vectors                                0x08000000   Data           4  startup_stm32f407xx.o(RESET)
    __Vectors_End                            0x08000188   Data           0  startup_stm32f407xx.o(RESET)
    __main                                   0x08000189   Thumb Code     0  entry.o(.ARM.Collect$$$$00000000)
    _main_stk                                0x08000189   Thumb Code     0  entry2.o(.ARM.Collect$$$$00000001)
    _main_scatterload                        0x0800018d   Thumb Code     0  entry5.o(.ARM.Collect$$$$00000004)
    __main_after_scatterload                 0x08000191   Thumb Code     0  entry5.o(.ARM.Collect$$$$00000004)
    _main_clock                              0x08000191   Thumb Code     0  entry7b.o(.ARM.Collect$$$$00000008)
    _main_cpp_init                           0x08000191   Thumb Code     0  entry8b.o(.ARM.Collect$$$$0000000A)
    _main_init                               0x08000191   Thumb Code     0  entry9a.o(.ARM.Collect$$$$0000000B)
    __rt_lib_shutdown_fini                   0x08000199   Thumb Code     0  entry12b.o(.ARM.Collect$$$$0000000E)
    __rt_final_cpp                           0x0800019d   Thumb Code     0  entry10a.o(.ARM.Collect$$$$0000000F)
    __rt_final_exit                          0x0800019d   Thumb Code     0  entry11a.o(.ARM.Collect$$$$00000011)
    Reset_Handler                            0x080001a1   Thumb Code     8  startup_stm32f407xx.o(.text)
    ADC_IRQHandler                           0x080001bb   Thumb Code     0  startup_stm32f407xx.o(.text)
    CAN1_RX0_IRQHandler                      0x080001bb   Thumb Code     0  startup_stm32f407xx.o(.text)
    CAN1_RX1_IRQHandler                      0x080001bb   Thumb Code     0  startup_stm32f407xx.o(.text)
    CAN1_SCE_IRQHandler                      0x080001bb   Thumb Code     0  startup_stm32f407xx.o(.text)
    CAN1_TX_IRQHandler                       0x080001bb   Thumb Code     0  startup_stm32f407xx.o(.text)
    CAN2_RX0_IRQHandler                      0x080001bb   Thumb Code     0  startup_stm32f407xx.o(.text)
    CAN2_RX1_IRQHandler                      0x080001bb   Thumb Code     0  startup_stm32f407xx.o(.text)
    CAN2_SCE_IRQHandler                      0x080001bb   Thumb Code     0  startup_stm32f407xx.o(.text)
    CAN2_TX_IRQHandler                       0x080001bb   Thumb Code     0  startup_stm32f407xx.o(.text)
    DCMI_IRQHandler                          0x080001bb   Thumb Code     0  startup_stm32f407xx.o(.text)
    DMA1_Stream0_IRQHandler                  0x080001bb   Thumb Code     0  startup_stm32f407xx.o(.text)
    DMA1_Stream1_IRQHandler                  0x080001bb   Thumb Code     0  startup_stm32f407xx.o(.text)
    DMA1_Stream2_IRQHandler                  0x080001bb   Thumb Code     0  startup_stm32f407xx.o(.text)
    DMA1_Stream3_IRQHandler                  0x080001bb   Thumb Code     0  startup_stm32f407xx.o(.text)
    DMA1_Stream4_IRQHandler                  0x080001bb   Thumb Code     0  startup_stm32f407xx.o(.text)
    DMA1_Stream5_IRQHandler                  0x080001bb   Thumb Code     0  startup_stm32f407xx.o(.text)
    DMA1_Stream6_IRQHandler                  0x080001bb   Thumb Code     0  startup_stm32f407xx.o(.text)
    DMA1_Stream7_IRQHandler                  0x080001bb   Thumb Code     0  startup_stm32f407xx.o(.text)
    DMA2_Stream0_IRQHandler                  0x080001bb   Thumb Code     0  startup_stm32f407xx.o(.text)
    DMA2_Stream1_IRQHandler                  0x080001bb   Thumb Code     0  startup_stm32f407xx.o(.text)
    DMA2_Stream2_IRQHandler                  0x080001bb   Thumb Code     0  startup_stm32f407xx.o(.text)
    DMA2_Stream3_IRQHandler                  0x080001bb   Thumb Code     0  startup_stm32f407xx.o(.text)
    DMA2_Stream4_IRQHandler                  0x080001bb   Thumb Code     0  startup_stm32f407xx.o(.text)
    DMA2_Stream5_IRQHandler                  0x080001bb   Thumb Code     0  startup_stm32f407xx.o(.text)
    DMA2_Stream6_IRQHandler                  0x080001bb   Thumb Code     0  startup_stm32f407xx.o(.text)
    DMA2_Stream7_IRQHandler                  0x080001bb   Thumb Code     0  startup_stm32f407xx.o(.text)
    ETH_IRQHandler                           0x080001bb   Thumb Code     0  startup_stm32f407xx.o(.text)
    ETH_WKUP_IRQHandler                      0x080001bb   Thumb Code     0  startup_stm32f407xx.o(.text)
    EXTI0_IRQHandler                         0x080001bb   Thumb Code     0  startup_stm32f407xx.o(.text)
    EXTI15_10_IRQHandler                     0x080001bb   Thumb Code     0  startup_stm32f407xx.o(.text)
    EXTI1_IRQHandler                         0x080001bb   Thumb Code     0  startup_stm32f407xx.o(.text)
    EXTI2_IRQHandler                         0x080001bb   Thumb Code     0  startup_stm32f407xx.o(.text)
    EXTI3_IRQHandler                         0x080001bb   Thumb Code     0  startup_stm32f407xx.o(.text)
    EXTI4_IRQHandler                         0x080001bb   Thumb Code     0  startup_stm32f407xx.o(.text)
    EXTI9_5_IRQHandler                       0x080001bb   Thumb Code     0  startup_stm32f407xx.o(.text)
    FLASH_IRQHandler                         0x080001bb   Thumb Code     0  startup_stm32f407xx.o(.text)
    FMC_IRQHandler                           0x080001bb   Thumb Code     0  startup_stm32f407xx.o(.text)
    FPU_IRQHandler                           0x080001bb   Thumb Code     0  startup_stm32f407xx.o(.text)
    HASH_RNG_IRQHandler                      0x080001bb   Thumb Code     0  startup_stm32f407xx.o(.text)
    I2C1_ER_IRQHandler                       0x080001bb   Thumb Code     0  startup_stm32f407xx.o(.text)
    I2C1_EV_IRQHandler                       0x080001bb   Thumb Code     0  startup_stm32f407xx.o(.text)
    I2C2_ER_IRQHandler                       0x080001bb   Thumb Code     0  startup_stm32f407xx.o(.text)
    I2C2_EV_IRQHandler                       0x080001bb   Thumb Code     0  startup_stm32f407xx.o(.text)
    I2C3_ER_IRQHandler                       0x080001bb   Thumb Code     0  startup_stm32f407xx.o(.text)
    I2C3_EV_IRQHandler                       0x080001bb   Thumb Code     0  startup_stm32f407xx.o(.text)
    OTG_FS_IRQHandler                        0x080001bb   Thumb Code     0  startup_stm32f407xx.o(.text)
    OTG_FS_WKUP_IRQHandler                   0x080001bb   Thumb Code     0  startup_stm32f407xx.o(.text)
    OTG_HS_EP1_IN_IRQHandler                 0x080001bb   Thumb Code     0  startup_stm32f407xx.o(.text)
    OTG_HS_EP1_OUT_IRQHandler                0x080001bb   Thumb Code     0  startup_stm32f407xx.o(.text)
    OTG_HS_IRQHandler                        0x080001bb   Thumb Code     0  startup_stm32f407xx.o(.text)
    OTG_HS_WKUP_IRQHandler                   0x080001bb   Thumb Code     0  startup_stm32f407xx.o(.text)
    PVD_IRQHandler                           0x080001bb   Thumb Code     0  startup_stm32f407xx.o(.text)
    RCC_IRQHandler                           0x080001bb   Thumb Code     0  startup_stm32f407xx.o(.text)
    RTC_Alarm_IRQHandler                     0x080001bb   Thumb Code     0  startup_stm32f407xx.o(.text)
    RTC_WKUP_IRQHandler                      0x080001bb   Thumb Code     0  startup_stm32f407xx.o(.text)
    SDIO_IRQHandler                          0x080001bb   Thumb Code     0  startup_stm32f407xx.o(.text)
    SPI1_IRQHandler                          0x080001bb   Thumb Code     0  startup_stm32f407xx.o(.text)
    SPI2_IRQHandler                          0x080001bb   Thumb Code     0  startup_stm32f407xx.o(.text)
    SPI3_IRQHandler                          0x080001bb   Thumb Code     0  startup_stm32f407xx.o(.text)
    TAMP_STAMP_IRQHandler                    0x080001bb   Thumb Code     0  startup_stm32f407xx.o(.text)
    TIM1_BRK_TIM9_IRQHandler                 0x080001bb   Thumb Code     0  startup_stm32f407xx.o(.text)
    TIM1_CC_IRQHandler                       0x080001bb   Thumb Code     0  startup_stm32f407xx.o(.text)
    TIM1_TRG_COM_TIM11_IRQHandler            0x080001bb   Thumb Code     0  startup_stm32f407xx.o(.text)
    TIM1_UP_TIM10_IRQHandler                 0x080001bb   Thumb Code     0  startup_stm32f407xx.o(.text)
    TIM2_IRQHandler                          0x080001bb   Thumb Code     0  startup_stm32f407xx.o(.text)
    TIM3_IRQHandler                          0x080001bb   Thumb Code     0  startup_stm32f407xx.o(.text)
    TIM4_IRQHandler                          0x080001bb   Thumb Code     0  startup_stm32f407xx.o(.text)
    TIM5_IRQHandler                          0x080001bb   Thumb Code     0  startup_stm32f407xx.o(.text)
    TIM6_DAC_IRQHandler                      0x080001bb   Thumb Code     0  startup_stm32f407xx.o(.text)
    TIM7_IRQHandler                          0x080001bb   Thumb Code     0  startup_stm32f407xx.o(.text)
    TIM8_BRK_TIM12_IRQHandler                0x080001bb   Thumb Code     0  startup_stm32f407xx.o(.text)
    TIM8_CC_IRQHandler                       0x080001bb   Thumb Code     0  startup_stm32f407xx.o(.text)
    TIM8_TRG_COM_TIM14_IRQHandler            0x080001bb   Thumb Code     0  startup_stm32f407xx.o(.text)
    TIM8_UP_TIM13_IRQHandler                 0x080001bb   Thumb Code     0  startup_stm32f407xx.o(.text)
    UART4_IRQHandler                         0x080001bb   Thumb Code     0  startup_stm32f407xx.o(.text)
    UART5_IRQHandler                         0x080001bb   Thumb Code     0  startup_stm32f407xx.o(.text)
    USART1_IRQHandler                        0x080001bb   Thumb Code     0  startup_stm32f407xx.o(.text)
    USART2_IRQHandler                        0x080001bb   Thumb Code     0  startup_stm32f407xx.o(.text)
    USART3_IRQHandler                        0x080001bb   Thumb Code     0  startup_stm32f407xx.o(.text)
    USART6_IRQHandler                        0x080001bb   Thumb Code     0  startup_stm32f407xx.o(.text)
    WWDG_IRQHandler                          0x080001bb   Thumb Code     0  startup_stm32f407xx.o(.text)
    __aeabi_uldivmod                         0x080001c5   Thumb Code    98  uldiv.o(.text)
    __aeabi_memset                           0x08000227   Thumb Code    14  memseta.o(.text)
    __aeabi_memset4                          0x08000227   Thumb Code     0  memseta.o(.text)
    __aeabi_memset8                          0x08000227   Thumb Code     0  memseta.o(.text)
    __aeabi_memclr                           0x08000235   Thumb Code     4  memseta.o(.text)
    __aeabi_memclr4                          0x08000235   Thumb Code     0  memseta.o(.text)
    __aeabi_memclr8                          0x08000235   Thumb Code     0  memseta.o(.text)
    _memset$wrapper                          0x08000239   Thumb Code    18  memseta.o(.text)
    __aeabi_ddiv                             0x0800024b   Thumb Code   222  ddiv.o(.text)
    __aeabi_ui2d                             0x08000329   Thumb Code    26  dfltui.o(.text)
    __aeabi_d2uiz                            0x08000343   Thumb Code    50  dfixui.o(.text)
    __aeabi_cdcmpeq                          0x08000375   Thumb Code     0  cdcmple.o(.text)
    __aeabi_cdcmple                          0x08000375   Thumb Code    48  cdcmple.o(.text)
    __aeabi_cdrcmple                         0x080003a5   Thumb Code    48  cdrcmple.o(.text)
    __aeabi_uidiv                            0x080003d5   Thumb Code     0  uidiv.o(.text)
    __aeabi_uidivmod                         0x080003d5   Thumb Code    44  uidiv.o(.text)
    __aeabi_llsl                             0x08000401   Thumb Code    30  llshl.o(.text)
    _ll_shift_l                              0x08000401   Thumb Code     0  llshl.o(.text)
    __aeabi_llsr                             0x0800041f   Thumb Code    32  llushr.o(.text)
    _ll_ushift_r                             0x0800041f   Thumb Code     0  llushr.o(.text)
    __I$use$fp                               0x0800043f   Thumb Code     0  iusefp.o(.text)
    _double_round                            0x0800043f   Thumb Code    30  depilogue.o(.text)
    _double_epilogue                         0x0800045d   Thumb Code   156  depilogue.o(.text)
    __aeabi_dadd                             0x080004f9   Thumb Code   322  dadd.o(.text)
    __aeabi_dsub                             0x0800063b   Thumb Code     6  dadd.o(.text)
    __aeabi_drsub                            0x08000641   Thumb Code     6  dadd.o(.text)
    __aeabi_dmul                             0x08000647   Thumb Code   228  dmul.o(.text)
    __aeabi_d2ulz                            0x0800072b   Thumb Code    48  dfixul.o(.text)
    __scatterload                            0x0800075d   Thumb Code    28  init.o(.text)
    __scatterload_rt2                        0x0800075d   Thumb Code     0  init.o(.text)
    __aeabi_lasr                             0x08000781   Thumb Code    36  llsshr.o(.text)
    _ll_sshift_r                             0x08000781   Thumb Code     0  llsshr.o(.text)
    BusFault_Handler                         0x080007a5   Thumb Code     2  stm32f4xx_it.o(i.BusFault_Handler)
    DebugMon_Handler                         0x080007a7   Thumb Code     2  stm32f4xx_it.o(i.DebugMon_Handler)
    Error_Handler                            0x080007a9   Thumb Code     4  main.o(i.Error_Handler)
    HAL_GPIO_Init                            0x080007ad   Thumb Code   450  stm32f4xx_hal_gpio.o(i.HAL_GPIO_Init)
    HAL_GetTick                              0x0800099d   Thumb Code     6  stm32f4xx_hal.o(i.HAL_GetTick)
    HAL_IncTick                              0x080009a9   Thumb Code    12  stm32f4xx_hal.o(i.HAL_IncTick)
    HAL_Init                                 0x080009b9   Thumb Code    48  stm32f4xx_hal.o(i.HAL_Init)
    HAL_InitTick                             0x080009ed   Thumb Code    54  stm32f4xx_hal.o(i.HAL_InitTick)
    HAL_MspInit                              0x08000a2d   Thumb Code    42  stm32f4xx_hal_msp.o(i.HAL_MspInit)
    HAL_NVIC_SetPriority                     0x08000a5d   Thumb Code    60  stm32f4xx_hal_cortex.o(i.HAL_NVIC_SetPriority)
    HAL_NVIC_SetPriorityGrouping             0x08000a9d   Thumb Code    26  stm32f4xx_hal_cortex.o(i.HAL_NVIC_SetPriorityGrouping)
    HAL_RCC_ClockConfig                      0x08000ac1   Thumb Code   288  stm32f4xx_hal_rcc.o(i.HAL_RCC_ClockConfig)
    HAL_RCC_GetPCLK1Freq                     0x08000bf5   Thumb Code    20  stm32f4xx_hal_rcc.o(i.HAL_RCC_GetPCLK1Freq)
    HAL_RCC_GetPCLK2Freq                     0x08000c15   Thumb Code    20  stm32f4xx_hal_rcc.o(i.HAL_RCC_GetPCLK2Freq)
    HAL_RCC_GetSysClockFreq                  0x08000c35   Thumb Code    88  stm32f4xx_hal_rcc.o(i.HAL_RCC_GetSysClockFreq)
    HAL_RCC_OscConfig                        0x08000c99   Thumb Code   856  stm32f4xx_hal_rcc.o(i.HAL_RCC_OscConfig)
    HAL_SYSTICK_Config                       0x08001005   Thumb Code    40  stm32f4xx_hal_cortex.o(i.HAL_SYSTICK_Config)
    HAL_UART_Init                            0x0800102d   Thumb Code    98  stm32f4xx_hal_uart.o(i.HAL_UART_Init)
    HAL_UART_MspInit                         0x08001091   Thumb Code    94  usart.o(i.HAL_UART_MspInit)
    HardFault_Handler                        0x080010fd   Thumb Code     2  stm32f4xx_it.o(i.HardFault_Handler)
    MX_GPIO_Init                             0x08001101   Thumb Code    54  gpio.o(i.MX_GPIO_Init)
    MX_USART1_UART_Init                      0x0800113d   Thumb Code    48  usart.o(i.MX_USART1_UART_Init)
    MemManage_Handler                        0x08001175   Thumb Code     2  stm32f4xx_it.o(i.MemManage_Handler)
    NMI_Handler                              0x08001177   Thumb Code     2  stm32f4xx_it.o(i.NMI_Handler)
    PendSV_Handler                           0x08001179   Thumb Code     2  stm32f4xx_it.o(i.PendSV_Handler)
    SVC_Handler                              0x0800117b   Thumb Code     2  stm32f4xx_it.o(i.SVC_Handler)
    SysTick_Handler                          0x0800117d   Thumb Code     4  stm32f4xx_it.o(i.SysTick_Handler)
    SystemClock_Config                       0x08001181   Thumb Code   142  main.o(i.SystemClock_Config)
    SystemInit                               0x08001219   Thumb Code    12  system_stm32f4xx.o(i.SystemInit)
    UsageFault_Handler                       0x08001335   Thumb Code     2  stm32f4xx_it.o(i.UsageFault_Handler)
    __0printf                                0x08001339   Thumb Code    22  printfa.o(i.__0printf)
    __1printf                                0x08001339   Thumb Code     0  printfa.o(i.__0printf)
    __2printf                                0x08001339   Thumb Code     0  printfa.o(i.__0printf)
    __c89printf                              0x08001339   Thumb Code     0  printfa.o(i.__0printf)
    printf                                   0x08001339   Thumb Code     0  printfa.o(i.__0printf)
    __scatterload_copy                       0x08001379   Thumb Code    14  handlers.o(i.__scatterload_copy)
    __scatterload_null                       0x08001387   Thumb Code     2  handlers.o(i.__scatterload_null)
    __scatterload_zeroinit                   0x08001389   Thumb Code    14  handlers.o(i.__scatterload_zeroinit)
    calc_func                                0x08001c23   Thumb Code   136  core_list_join.o(i.calc_func)
    check_data_types                         0x08001cab   Thumb Code     4  core_util.o(i.check_data_types)
    cmp_complex                              0x08001caf   Thumb Code    26  core_list_join.o(i.cmp_complex)
    cmp_idx                                  0x08001cc9   Thumb Code    42  core_list_join.o(i.cmp_idx)
    core_bench_list                          0x08001cf5   Thumb Code   262  core_list_join.o(i.core_bench_list)
    core_bench_matrix                        0x08001e05   Thumb Code    30  core_matrix.o(i.core_bench_matrix)
    core_bench_state                         0x08001e25   Thumb Code   198  core_state.o(i.core_bench_state)
    core_init_matrix                         0x08001eed   Thumb Code   128  core_matrix.o(i.core_init_matrix)
    core_init_state                          0x08001f6d   Thumb Code   132  core_state.o(i.core_init_state)
    core_list_find                           0x08001ff5   Thumb Code    48  core_list_join.o(i.core_list_find)
    core_list_init                           0x08002025   Thumb Code   208  core_list_join.o(i.core_list_init)
    core_list_insert_new                     0x080020f9   Thumb Code    60  core_list_join.o(i.core_list_insert_new)
    core_list_mergesort                      0x08002135   Thumb Code   148  core_list_join.o(i.core_list_mergesort)
    core_list_remove                         0x080021c9   Thumb Code    24  core_list_join.o(i.core_list_remove)
    core_list_reverse                        0x080021e1   Thumb Code    20  core_list_join.o(i.core_list_reverse)
    core_list_undo_remove                    0x080021f5   Thumb Code    16  core_list_join.o(i.core_list_undo_remove)
    core_main                                0x08002205   Thumb Code  2252  core_main.o(i.core_main)
    core_state_transition                    0x08002ad5   Thumb Code   290  core_state.o(i.core_state_transition)
    crc16                                    0x08002bf7   Thumb Code     6  core_util.o(i.crc16)
    crcu16                                   0x08002bfd   Thumb Code    22  core_util.o(i.crcu16)
    crcu32                                   0x08002c13   Thumb Code    22  core_util.o(i.crcu32)
    crcu8                                    0x08002c29   Thumb Code    46  core_util.o(i.crcu8)
    fputc                                    0x08002c65   Thumb Code    14  usart.o(i.fputc)
    get_seed_32                              0x08002c79   Thumb Code    40  core_util.o(i.get_seed_32)
    get_time                                 0x08002cb5   Thumb Code     8  core_portme.o(i.get_time)
    iterate                                  0x08002cc1   Thumb Code    72  core_main.o(i.iterate)
    main                                     0x08002d09   Thumb Code    28  main.o(i.main)
    matrix_add_const                         0x08002d41   Thumb Code    40  core_matrix.o(i.matrix_add_const)
    matrix_mul_const                         0x08002d69   Thumb Code    42  core_matrix.o(i.matrix_mul_const)
    matrix_mul_matrix                        0x08002d93   Thumb Code    78  core_matrix.o(i.matrix_mul_matrix)
    matrix_mul_matrix_bitextract             0x08002de1   Thumb Code    90  core_matrix.o(i.matrix_mul_matrix_bitextract)
    matrix_mul_vect                          0x08002e3b   Thumb Code    54  core_matrix.o(i.matrix_mul_vect)
    matrix_sum                               0x08002e71   Thumb Code    76  core_matrix.o(i.matrix_sum)
    matrix_test                              0x08002ebd   Thumb Code   170  core_matrix.o(i.matrix_test)
    portable_fini                            0x08002f67   Thumb Code     6  core_portme.o(i.portable_fini)
    portable_init                            0x08002f6d   Thumb Code     6  core_portme.o(i.portable_init)
    start_time                               0x08002f75   Thumb Code    12  core_portme.o(i.start_time)
    stop_time                                0x08002f85   Thumb Code    12  core_portme.o(i.stop_time)
    time_in_secs                             0x08002f95   Thumb Code    24  core_portme.o(i.time_in_secs)
    AHBPrescTable                            0x08002fb4   Data          16  system_stm32f4xx.o(.constdata)
    APBPrescTable                            0x08002fc4   Data           8  system_stm32f4xx.o(.constdata)
    Region$$Table$$Base                      0x0800312c   Number         0  anon$$obj.o(Region$$Table)
    Region$$Table$$Limit                     0x0800314c   Number         0  anon$$obj.o(Region$$Table)
    uwTickFreq                               0x20000000   Data           1  stm32f4xx_hal.o(.data)
    uwTickPrio                               0x20000004   Data           4  stm32f4xx_hal.o(.data)
    uwTick                                   0x20000008   Data           4  stm32f4xx_hal.o(.data)
    SystemCoreClock                          0x2000000c   Data           4  system_stm32f4xx.o(.data)
    seed1_volatile                           0x20000070   Data           4  core_portme.o(.data)
    seed2_volatile                           0x20000074   Data           4  core_portme.o(.data)
    seed3_volatile                           0x20000078   Data           4  core_portme.o(.data)
    seed4_volatile                           0x2000007c   Data           4  core_portme.o(.data)
    seed5_volatile                           0x20000080   Data           4  core_portme.o(.data)
    default_num_contexts                     0x20000084   Data           4  core_portme.o(.data)
    __stdout                                 0x20000090   Data           4  stdout.o(.data)
    huart1                                   0x20000094   Data          68  usart.o(.bss)
    __initial_sp                             0x200008d8   Data           0  startup_stm32f407xx.o(STACK)



==============================================================================

Memory Map of the image

  Image Entry point : 0x08000189

  Load Region LR_IROM1 (Base: 0x08000000, Size: 0x000031e0, Max: 0x00080000, ABSOLUTE)

    Execution Region ER_IROM1 (Exec base: 0x08000000, Load base: 0x08000000, Size: 0x0000314c, Max: 0x00080000, ABSOLUTE)

    Exec Addr    Load Addr    Size         Type   Attr      Idx    E Section Name        Object

    0x08000000   0x08000000   0x00000188   Data   RO            3    RESET               startup_stm32f407xx.o
    0x08000188   0x08000188   0x00000000   Code   RO         2218  * .ARM.Collect$$$$00000000  mc_w.l(entry.o)
    0x08000188   0x08000188   0x00000004   Code   RO         2496    .ARM.Collect$$$$00000001  mc_w.l(entry2.o)
    0x0800018c   0x0800018c   0x00000004   Code   RO         2499    .ARM.Collect$$$$00000004  mc_w.l(entry5.o)
    0x08000190   0x08000190   0x00000000   Code   RO         2501    .ARM.Collect$$$$00000008  mc_w.l(entry7b.o)
    0x08000190   0x08000190   0x00000000   Code   RO         2503    .ARM.Collect$$$$0000000A  mc_w.l(entry8b.o)
    0x08000190   0x08000190   0x00000008   Code   RO         2504    .ARM.Collect$$$$0000000B  mc_w.l(entry9a.o)
    0x08000198   0x08000198   0x00000004   Code   RO         2511    .ARM.Collect$$$$0000000E  mc_w.l(entry12b.o)
    0x0800019c   0x0800019c   0x00000000   Code   RO         2506    .ARM.Collect$$$$0000000F  mc_w.l(entry10a.o)
    0x0800019c   0x0800019c   0x00000000   Code   RO         2508    .ARM.Collect$$$$00000011  mc_w.l(entry11a.o)
    0x0800019c   0x0800019c   0x00000004   Code   RO         2497    .ARM.Collect$$$$00002712  mc_w.l(entry2.o)
    0x080001a0   0x080001a0   0x00000024   Code   RO            4    .text               startup_stm32f407xx.o
    0x080001c4   0x080001c4   0x00000062   Code   RO         2221    .text               mc_w.l(uldiv.o)
    0x08000226   0x08000226   0x00000024   Code   RO         2223    .text               mc_w.l(memseta.o)
    0x0800024a   0x0800024a   0x000000de   Code   RO         2486    .text               mf_w.l(ddiv.o)
    0x08000328   0x08000328   0x0000001a   Code   RO         2488    .text               mf_w.l(dfltui.o)
    0x08000342   0x08000342   0x00000032   Code   RO         2490    .text               mf_w.l(dfixui.o)
    0x08000374   0x08000374   0x00000030   Code   RO         2492    .text               mf_w.l(cdcmple.o)
    0x080003a4   0x080003a4   0x00000030   Code   RO         2494    .text               mf_w.l(cdrcmple.o)
    0x080003d4   0x080003d4   0x0000002c   Code   RO         2513    .text               mc_w.l(uidiv.o)
    0x08000400   0x08000400   0x0000001e   Code   RO         2515    .text               mc_w.l(llshl.o)
    0x0800041e   0x0800041e   0x00000020   Code   RO         2517    .text               mc_w.l(llushr.o)
    0x0800043e   0x0800043e   0x00000000   Code   RO         2519    .text               mc_w.l(iusefp.o)
    0x0800043e   0x0800043e   0x000000ba   Code   RO         2520    .text               mf_w.l(depilogue.o)
    0x080004f8   0x080004f8   0x0000014e   Code   RO         2522    .text               mf_w.l(dadd.o)
    0x08000646   0x08000646   0x000000e4   Code   RO         2524    .text               mf_w.l(dmul.o)
    0x0800072a   0x0800072a   0x00000030   Code   RO         2526    .text               mf_w.l(dfixul.o)
    0x0800075a   0x0800075a   0x00000002   PAD
    0x0800075c   0x0800075c   0x00000024   Code   RO         2528    .text               mc_w.l(init.o)
    0x08000780   0x08000780   0x00000024   Code   RO         2530    .text               mc_w.l(llsshr.o)
    0x080007a4   0x080007a4   0x00000002   Code   RO          233    i.BusFault_Handler  stm32f4xx_it.o
    0x080007a6   0x080007a6   0x00000002   Code   RO          234    i.DebugMon_Handler  stm32f4xx_it.o
    0x080007a8   0x080007a8   0x00000004   Code   RO           13    i.Error_Handler     main.o
    0x080007ac   0x080007ac   0x000001f0   Code   RO         1080    i.HAL_GPIO_Init     stm32f4xx_hal_gpio.o
    0x0800099c   0x0800099c   0x0000000c   Code   RO         1612    i.HAL_GetTick       stm32f4xx_hal.o
    0x080009a8   0x080009a8   0x00000010   Code   RO         1618    i.HAL_IncTick       stm32f4xx_hal.o
    0x080009b8   0x080009b8   0x00000034   Code   RO         1619    i.HAL_Init          stm32f4xx_hal.o
    0x080009ec   0x080009ec   0x00000040   Code   RO         1620    i.HAL_InitTick      stm32f4xx_hal.o
    0x08000a2c   0x08000a2c   0x00000030   Code   RO          308    i.HAL_MspInit       stm32f4xx_hal_msp.o
    0x08000a5c   0x08000a5c   0x00000040   Code   RO         1475    i.HAL_NVIC_SetPriority  stm32f4xx_hal_cortex.o
    0x08000a9c   0x08000a9c   0x00000024   Code   RO         1476    i.HAL_NVIC_SetPriorityGrouping  stm32f4xx_hal_cortex.o
    0x08000ac0   0x08000ac0   0x00000134   Code   RO          726    i.HAL_RCC_ClockConfig  stm32f4xx_hal_rcc.o
    0x08000bf4   0x08000bf4   0x00000020   Code   RO          733    i.HAL_RCC_GetPCLK1Freq  stm32f4xx_hal_rcc.o
    0x08000c14   0x08000c14   0x00000020   Code   RO          734    i.HAL_RCC_GetPCLK2Freq  stm32f4xx_hal_rcc.o
    0x08000c34   0x08000c34   0x00000064   Code   RO          735    i.HAL_RCC_GetSysClockFreq  stm32f4xx_hal_rcc.o
    0x08000c98   0x08000c98   0x0000036c   Code   RO          738    i.HAL_RCC_OscConfig  stm32f4xx_hal_rcc.o
    0x08001004   0x08001004   0x00000028   Code   RO         1480    i.HAL_SYSTICK_Config  stm32f4xx_hal_cortex.o
    0x0800102c   0x0800102c   0x00000062   Code   RO          397    i.HAL_UART_Init     stm32f4xx_hal_uart.o
    0x0800108e   0x0800108e   0x00000002   PAD
    0x08001090   0x08001090   0x0000006c   Code   RO          186    i.HAL_UART_MspInit  usart.o
    0x080010fc   0x080010fc   0x00000002   Code   RO          235    i.HardFault_Handler  stm32f4xx_it.o
    0x080010fe   0x080010fe   0x00000002   PAD
    0x08001100   0x08001100   0x0000003c   Code   RO          161    i.MX_GPIO_Init      gpio.o
    0x0800113c   0x0800113c   0x00000038   Code   RO          187    i.MX_USART1_UART_Init  usart.o
    0x08001174   0x08001174   0x00000002   Code   RO          236    i.MemManage_Handler  stm32f4xx_it.o
    0x08001176   0x08001176   0x00000002   Code   RO          237    i.NMI_Handler       stm32f4xx_it.o
    0x08001178   0x08001178   0x00000002   Code   RO          238    i.PendSV_Handler    stm32f4xx_it.o
    0x0800117a   0x0800117a   0x00000002   Code   RO          239    i.SVC_Handler       stm32f4xx_it.o
    0x0800117c   0x0800117c   0x00000004   Code   RO          240    i.SysTick_Handler   stm32f4xx_it.o
    0x08001180   0x08001180   0x00000098   Code   RO           14    i.SystemClock_Config  main.o
    0x08001218   0x08001218   0x00000010   Code   RO         1858    i.SystemInit        system_stm32f4xx.o
    0x08001228   0x08001228   0x0000010c   Code   RO          423    i.UART_SetConfig    stm32f4xx_hal_uart.o
    0x08001334   0x08001334   0x00000002   Code   RO          241    i.UsageFault_Handler  stm32f4xx_it.o
    0x08001336   0x08001336   0x00000002   PAD
    0x08001338   0x08001338   0x00000020   Code   RO         2458    i.__0printf         mc_w.l(printfa.o)
    0x08001358   0x08001358   0x00000020   Code   RO         1482    i.__NVIC_SetPriority  stm32f4xx_hal_cortex.o
    0x08001378   0x08001378   0x0000000e   Code   RO         2534    i.__scatterload_copy  mc_w.l(handlers.o)
    0x08001386   0x08001386   0x00000002   Code   RO         2535    i.__scatterload_null  mc_w.l(handlers.o)
    0x08001388   0x08001388   0x0000000e   Code   RO         2536    i.__scatterload_zeroinit  mc_w.l(handlers.o)
    0x08001396   0x08001396   0x00000002   PAD
    0x08001398   0x08001398   0x00000184   Code   RO         2465    i._fp_digits        mc_w.l(printfa.o)
    0x0800151c   0x0800151c   0x000006b4   Code   RO         2466    i._printf_core      mc_w.l(printfa.o)
    0x08001bd0   0x08001bd0   0x00000024   Code   RO         2467    i._printf_post_padding  mc_w.l(printfa.o)
    0x08001bf4   0x08001bf4   0x0000002e   Code   RO         2468    i._printf_pre_padding  mc_w.l(printfa.o)
    0x08001c22   0x08001c22   0x00000088   Code   RO         1892    i.calc_func         core_list_join.o
    0x08001caa   0x08001caa   0x00000004   Code   RO         2095    i.check_data_types  core_util.o
    0x08001cae   0x08001cae   0x0000001a   Code   RO         1893    i.cmp_complex       core_list_join.o
    0x08001cc8   0x08001cc8   0x0000002a   Code   RO         1894    i.cmp_idx           core_list_join.o
    0x08001cf2   0x08001cf2   0x00000002   PAD
    0x08001cf4   0x08001cf4   0x00000110   Code   RO         1896    i.core_bench_list   core_list_join.o
    0x08001e04   0x08001e04   0x0000001e   Code   RO         2005    i.core_bench_matrix  core_matrix.o
    0x08001e22   0x08001e22   0x00000002   PAD
    0x08001e24   0x08001e24   0x000000c6   Code   RO         2063    i.core_bench_state  core_state.o
    0x08001eea   0x08001eea   0x00000002   PAD
    0x08001eec   0x08001eec   0x00000080   Code   RO         2006    i.core_init_matrix  core_matrix.o
    0x08001f6c   0x08001f6c   0x00000088   Code   RO         2064    i.core_init_state   core_state.o
    0x08001ff4   0x08001ff4   0x00000030   Code   RO         1897    i.core_list_find    core_list_join.o
    0x08002024   0x08002024   0x000000d4   Code   RO         1898    i.core_list_init    core_list_join.o
    0x080020f8   0x080020f8   0x0000003c   Code   RO         1899    i.core_list_insert_new  core_list_join.o
    0x08002134   0x08002134   0x00000094   Code   RO         1900    i.core_list_mergesort  core_list_join.o
    0x080021c8   0x080021c8   0x00000018   Code   RO         1901    i.core_list_remove  core_list_join.o
    0x080021e0   0x080021e0   0x00000014   Code   RO         1902    i.core_list_reverse  core_list_join.o
    0x080021f4   0x080021f4   0x00000010   Code   RO         1903    i.core_list_undo_remove  core_list_join.o
    0x08002204   0x08002204   0x000008d0   Code   RO         1981    i.core_main         core_main.o
    0x08002ad4   0x08002ad4   0x00000122   Code   RO         2065    i.core_state_transition  core_state.o
    0x08002bf6   0x08002bf6   0x00000006   Code   RO         2096    i.crc16             core_util.o
    0x08002bfc   0x08002bfc   0x00000016   Code   RO         2097    i.crcu16            core_util.o
    0x08002c12   0x08002c12   0x00000016   Code   RO         2098    i.crcu32            core_util.o
    0x08002c28   0x08002c28   0x0000002e   Code   RO         2099    i.crcu8             core_util.o
    0x08002c56   0x08002c56   0x0000000e   Code   RO         2066    i.ee_isdigit        core_state.o
    0x08002c64   0x08002c64   0x00000014   Code   RO          188    i.fputc             usart.o
    0x08002c78   0x08002c78   0x0000003c   Code   RO         2100    i.get_seed_32       core_util.o
    0x08002cb4   0x08002cb4   0x0000000c   Code   RO         2139    i.get_time          core_portme.o
    0x08002cc0   0x08002cc0   0x00000048   Code   RO         1982    i.iterate           core_main.o
    0x08002d08   0x08002d08   0x00000038   Code   RO           15    i.main              main.o
    0x08002d40   0x08002d40   0x00000028   Code   RO         2007    i.matrix_add_const  core_matrix.o
    0x08002d68   0x08002d68   0x0000002a   Code   RO         2008    i.matrix_mul_const  core_matrix.o
    0x08002d92   0x08002d92   0x0000004e   Code   RO         2009    i.matrix_mul_matrix  core_matrix.o
    0x08002de0   0x08002de0   0x0000005a   Code   RO         2010    i.matrix_mul_matrix_bitextract  core_matrix.o
    0x08002e3a   0x08002e3a   0x00000036   Code   RO         2011    i.matrix_mul_vect   core_matrix.o
    0x08002e70   0x08002e70   0x0000004c   Code   RO         2012    i.matrix_sum        core_matrix.o
    0x08002ebc   0x08002ebc   0x000000aa   Code   RO         2013    i.matrix_test       core_matrix.o
    0x08002f66   0x08002f66   0x00000006   Code   RO         2140    i.portable_fini     core_portme.o
    0x08002f6c   0x08002f6c   0x00000006   Code   RO         2141    i.portable_init     core_portme.o
    0x08002f72   0x08002f72   0x00000002   PAD
    0x08002f74   0x08002f74   0x00000010   Code   RO         2142    i.start_time        core_portme.o
    0x08002f84   0x08002f84   0x00000010   Code   RO         2143    i.stop_time         core_portme.o
    0x08002f94   0x08002f94   0x00000020   Code   RO         2144    i.time_in_secs      core_portme.o
    0x08002fb4   0x08002fb4   0x00000010   Data   RO         1859    .constdata          system_stm32f4xx.o
    0x08002fc4   0x08002fc4   0x00000008   Data   RO         1860    .constdata          system_stm32f4xx.o
    0x08002fcc   0x08002fcc   0x000000ad   Data   RO         1984    .conststring        core_main.o
    0x08003079   0x08003079   0x00000003   PAD
    0x0800307c   0x0800307c   0x000000ad   Data   RO         2067    .conststring        core_state.o
    0x08003129   0x08003129   0x00000003   PAD
    0x0800312c   0x0800312c   0x00000020   Data   RO         2532    Region$$Table       anon$$obj.o


    Execution Region RW_IRAM1 (Exec base: 0x20000000, Load base: 0x0800314c, Size: 0x000008d8, Max: 0x0001c000, ABSOLUTE)

    Exec Addr    Load Addr    Size         Type   Attr      Idx    E Section Name        Object

    0x20000000   0x0800314c   0x0000000c   Data   RW         1626    .data               stm32f4xx_hal.o
    0x2000000c   0x08003158   0x00000004   Data   RW         1861    .data               system_stm32f4xx.o
    0x20000010   0x0800315c   0x0000001e   Data   RW         1985    .data               core_main.o
    0x2000002e   0x0800317a   0x00000002   PAD
    0x20000030   0x0800317c   0x00000040   Data   RW         2068    .data               core_state.o
    0x20000070   0x080031bc   0x00000004   Data   RW         2145    .data               core_portme.o
    0x20000074   0x080031c0   0x00000004   Data   RW         2146    .data               core_portme.o
    0x20000078   0x080031c4   0x00000004   Data   RW         2147    .data               core_portme.o
    0x2000007c   0x080031c8   0x00000004   Data   RW         2148    .data               core_portme.o
    0x20000080   0x080031cc   0x00000004   Data   RW         2149    .data               core_portme.o
    0x20000084   0x080031d0   0x00000004   Data   RW         2150    .data               core_portme.o
    0x20000088   0x080031d4   0x00000008   Data   RW         2151    .data               core_portme.o
    0x20000090   0x080031dc   0x00000004   Data   RW         2512    .data               mc_w.l(stdout.o)
    0x20000094        -       0x00000044   Zero   RW          189    .bss                usart.o
    0x200000d8        -       0x00000800   Zero   RW            1    STACK               startup_stm32f407xx.o


    Execution Region RW_IRAM2 (Exec base: 0x2001c000, Load base: 0x080031e0, Size: 0x00000000, Max: 0x00004000, ABSOLUTE)

    **** No section assigned to this execution region ****


==============================================================================

Image component sizes


      Code (inc. data)   RO Data    RW Data    ZI Data      Debug   Object Name

      1004         14          0          0          0      13229   core_list_join.o
      2328        932        173         30          0       3537   core_main.o
       708          0          0          0          0       7809   core_matrix.o
        88         20          0         32          0       9185   core_portme.o
       638         20        173         64          0       4477   core_state.o
       160         26          0          0          0       4132   core_util.o
        60          6          0          0          0        855   gpio.o
       212         38          0          0          0     660600   main.o
        36          8        392          0       2048        848   startup_stm32f407xx.o
       144         24          0         12          0       8849   stm32f4xx_hal.o
       172         14          0          0          0      33314   stm32f4xx_hal_cortex.o
       496         46          0          0          0       1556   stm32f4xx_hal_gpio.o
        48          6          0          0          0        878   stm32f4xx_hal_msp.o
      1348         76          0          0          0       5304   stm32f4xx_hal_rcc.o
       366         10          0          0          0       2064   stm32f4xx_hal_uart.o
        20          0          0          0          0       4262   stm32f4xx_it.o
        16          4         24          4          0       1163   system_stm32f4xx.o
       184         28          0          0         68       2386   usart.o

    ----------------------------------------------------------------------
      8042       1272        800        144       2116     764448   Object Totals
         0          0         32          0          0          0   (incl. Generated)
        14          0          6          2          0          0   (incl. Padding)

    ----------------------------------------------------------------------

      Code (inc. data)   RO Data    RW Data    ZI Data      Debug   Library Member Name

         0          0          0          0          0          0   entry.o
         0          0          0          0          0          0   entry10a.o
         0          0          0          0          0          0   entry11a.o
         4          0          0          0          0          0   entry12b.o
         8          4          0          0          0          0   entry2.o
         4          0          0          0          0          0   entry5.o
         0          0          0          0          0          0   entry7b.o
         0          0          0          0          0          0   entry8b.o
         8          4          0          0          0          0   entry9a.o
        30          0          0          0          0          0   handlers.o
        36          8          0          0          0         68   init.o
         0          0          0          0          0          0   iusefp.o
        30          0          0          0          0         68   llshl.o
        36          0          0          0          0         68   llsshr.o
        32          0          0          0          0         68   llushr.o
        36          0          0          0          0        108   memseta.o
      2218         90          0          0          0        464   printfa.o
         0          0          0          4          0          0   stdout.o
        44          0          0          0          0         80   uidiv.o
        98          0          0          0          0         92   uldiv.o
        48          0          0          0          0         68   cdcmple.o
        48          0          0          0          0         68   cdrcmple.o
       334          0          0          0          0        148   dadd.o
       222          0          0          0          0        100   ddiv.o
       186          0          0          0          0        176   depilogue.o
        50          0          0          0          0         76   dfixui.o
        48          0          0          0          0         68   dfixul.o
        26          0          0          0          0         76   dfltui.o
       228          0          0          0          0         96   dmul.o

    ----------------------------------------------------------------------
      3778        106          0          4          0       1892   Library Totals
         4          0          0          0          0          0   (incl. Padding)

    ----------------------------------------------------------------------

      Code (inc. data)   RO Data    RW Data    ZI Data      Debug   Library Name

      2584        106          0          4          0       1016   mc_w.l
      1190          0          0          0          0        876   mf_w.l

    ----------------------------------------------------------------------
      3778        106          0          4          0       1892   Library Totals

    ----------------------------------------------------------------------

==============================================================================


      Code (inc. data)   RO Data    RW Data    ZI Data      Debug   

     11820       1378        800        148       2116     759156   Grand Totals
     11820       1378        800        148       2116     759156   ELF Image Totals
     11820       1378        800        148          0          0   ROM Totals

==============================================================================

    Total RO  Size (Code + RO Data)                12620 (  12.32kB)
    Total RW  Size (RW Data + ZI Data)              2264 (   2.21kB)
    Total ROM Size (Code + RO Data + RW Data)      12768 (  12.47kB)

==============================================================================

