:020000040800F2
:10000000D8080020A101000877110008FD100008A1
:1000100075110008A507000835130008000000004E
:100020000000000000000000000000007B1100083C
:10003000A707000800000000791100087D110008E2
:10004000BB010008BB010008BB010008BB010008A0
:10005000BB010008BB010008BB010008BB01000890
:10006000BB010008BB010008BB010008BB01000880
:10007000BB010008BB010008BB010008BB01000870
:10008000BB010008BB010008BB010008BB01000860
:10009000BB010008BB010008BB010008BB01000850
:1000A000BB010008BB010008BB010008BB01000840
:1000B000BB010008BB010008BB010008BB01000830
:1000C000BB010008BB010008BB010008BB01000820
:1000D000BB010008BB010008BB010008BB01000810
:1000E000BB010008BB010008BB010008BB01000800
:1000F000BB010008BB010008BB010008BB010008F0
:10010000BB010008BB010008BB010008BB010008DF
:10011000BB010008BB010008BB010008BB010008CF
:10012000BB010008BB010008BB010008BB010008BF
:10013000BB010008BB010008BB010008BB010008AF
:10014000BB010008BB010008BB010008BB0100089F
:10015000BB010008BB010008BB010008BB0100088F
:10016000BB010008BB010008BB010008BB0100087F
:10017000BB010008BB010008BB0100080000000033
:10018000BB010008BB010008DFF810D000F0E6FA60
:1001900000480047092D0008AFF30080D808002070
:1001A0000648804706480047FEE7FEE7FEE7FEE711
:1001B000FEE7FEE7FEE7FEE7FEE7FEE719120008AE
:1001C000890100082DE9F05F0546002092469B4614
:1001D00088460646814640241BE02846414647465D
:1001E000224600F01CF953465A46C01A914110D3DA
:1001F00011461846224600F003F92D1A67EB010854
:100200004F4622460120002100F0FAF817EB0009C2
:100210004E41201EA4F10104DFDC484631462A4647
:100220004346BDE8F09FD2B201E000F8012B491E21
:10023000FBD270470022F6E710B513460A46044683
:100240001946FFF7F0FF204610BD2DE9F04D81EA79
:10025000030404F0004B21F0004514464FF0000A5F
:1002600023F0004150EA050220D054EA01021DD0DB
:10027000C5F30A570246C5F31303C1F31300C1F3D4
:100280000A5640F4801543F48013A7EB0608101BB0
:10029000D64608F2FD3873EB050002D308F10108D9
:1002A00001E092185B41B8F1000F03DA002001462B
:1002B000BDE8F08D00204FF48011064684460EE024
:1002C000171B73EB050705D3121B63EB05030643EE
:1002D0004CEA010C49084FEA300092185B4150EAA1
:1002E0000107EDD152EA030012D082EA040083EA4A
:1002F0000501084305D0101BAB4106D201220023A3
:1003000006E000224FF0004302E06FF001025310BC
:100310001AEB06004CEB085110EB0A0041EB0B0105
:10032000BDE8F04D00F08BB80EB540F233410291BC
:100330000021CDE900110A460B4600F08FF803B00A
:1003400000BDC1F30A5210B5C1F3130140F2FF33EF
:1003500041F480119A4201DA002010BD40F233438B
:100360009A42A2F2334203DC524200F058F810BD28
:10037000904010BD30B5041E71F1000404DB4FF055
:100380000044404264EB0101141E73F1000405DBDC
:100390001C464FF00043524263EB04038B4208BFFC
:1003A000824230BD30B5041E71F1000404DB4FF011
:1003B0000044404264EB0101141E73F1000405DBAC
:1003C0001C464FF00043524263EB0403994208BFBE
:1003D000904230BD30B50B4601460020202201245A
:1003E00009E021FA02F59D4205D303FA02F5491B03
:1003F00004FA02F52844151EA2F10102F1DC30BD19
:10040000202A04DB203A00FA02F1002070479140D4
:10041000C2F1200320FA03F3194390407047202AC9
:1004200004DB203A21FA02F00021704721FA02F39E
:10043000D040C2F12002914008431946704710B5E0
:10044000141E73F1000408DA401C41F100019218F7
:100450005B411A4301D120F0010010BD2DE9F04DA0
:1004600092469B4611B1B1FA81F202E0B0FA80F2F5
:1004700020329046FFF7C4FF04460F4640EA0A00C8
:1004800041EA0B0153465A46084313D0114653EA3A
:10049000010019D0C8F140025046FFF7C0FF0546E1
:1004A0000E46504659464246FFF7AAFF084305D07C
:1004B000012004E020463946BDE8F08D00200543C8
:1004C00046EAE0762C4337430A986305E40AA0EB3A
:1004D00008000022FD0A44EA47540A3002D50020F1
:1004E0000146E9E7010510196941DDE908450019F0
:1004F0006941BDE8F04DA2E72DE9FE4F804681EA53
:100500000300C00F0C46009021F0004123F000458D
:10051000B8EB0200A94105D24046214690461C4650
:100520000B46024623F00040104347D0270DC7F387
:100530000A00C3F30A510290401A019040286BDA76
:10054000C3F3130040F4801B0098924620B10023AF
:10055000D2EB030A63EB0B0B01985946C0F1400242
:100560005046FFF74DFF06460D4650465946019A44
:1005700000F006F910EB08006141002487EA1152EF
:1005800084EAE7731A4340D0009A62B3019A012AC1
:100590004FEA075215DC001B61EB02014FF00042ED
:1005A00002EA0752CDE90042001C41F580113246B3
:1005B0002B46FFF753FF03B0BDE8F08F40462146BE
:1005C000F9E7001B61EB0201001C41F580130018E4
:1005D0005B412018A2F5001747EB030140EAD570F4
:1005E000B6196D4111E06D084FEA360645EAC0754F
:1005F0004FEA0752001B61EB0201001C41F580111C
:1006000049084FEA30000019514132462B4603B0E9
:10061000BDE8F04FFFF713BF009801224000002310
:10062000D0EB020263EBE073009821464FEAE074DE
:10063000B8EB000061EB0401E9E783F000435BE7FE
:1006400081F0004158E72DE9FE4F81EA030404F0F0
:10065000004421F0004100944FF0000B23F00043D0
:1006600050EA01045ED052EA03045BD0C3F30A549B
:10067000C1F30A552C44A4F2F3340194A0FB0254B4
:10068000C1F3130141F48011C3F3130343F4801346
:1006900001FB024400FB034E840A970A44EA81549A
:1006A00047EA8357A4FB076802958D0A05FB078577
:1006B0004FEA932C04FB0C542705029D4FEA065881
:1006C00047EA1637B5EB08056EEB070C870E920E5E
:1006D00047EA811742EA8312A7FB0201B6EB0B013E
:1006E00064EB00042B0D43EA0C335E1844EB1C5002
:1006F000DA465146E7FB0201C5F313044FEA0B3318
:1007000043EA14534FEA0432019C43EA0603A4F17E
:100710000C040294009CCDE900B4FFF79FFE03B0E7
:10072000BDE8F08F00200146F9E7C1F30A52C1F39A
:10073000130140F2FF3341F480119A4202DA0020A3
:100740000146704740F233439A42A2F2334202DC40
:100750005242FFF764BEFFF753BE0000064C074D40
:1007600006E0E06840F0010394E807009847103481
:10077000AC42F6D3FFF70CFD2C3100084C310008D9
:10078000202A06DBCB17203A41FA02F043EAE07355
:1007900006E041FA02F3D040C2F120029140084342
:1007A00019467047FEE7704772B6FEE72DE9F84F2D
:1007B000DFF8BCA10022012503264FF00F090AF142
:1007C000040BAAF1040E00BF0B6805FA02F42340E3
:1007D000A34270D10F7907F00307012F01D0022F38
:1007E00016D187684FEA420806FA08FC27EA0C0788
:1007F000D1F80CC00CFA08FC4CEA070CC0F808C091
:100800004768A7430C79C4F3001494403C43446008
:100810000C79E443A4070AD0C4684FEA420C06FAF4
:100820000CF7BC438F6807FA0CF72743C7600C79B5
:1008300004F00304022C12D1D40800EB840CDCF881
:1008400020405707FF0E09FA07F824EA0804D1F8F8
:10085000108008FA07F848EA0408CCF820800468F9
:100860004FEA420C06FA0CF7BC430F7907F0030776
:1008700007FA0CF7274307604C6814F4403F70D028
:100880003C4C276847F480472760246822F0030720
:1008900004F480440094384C07EB040CDCF808485E
:1008A00097074FEA177809FA08F7BC43334FB84265
:1008B00002D1002724E054E0314FB84201D1012792
:1008C0001EE0304FB84201D1022719E02E4FB84246
:1008D00001D1032714E02D4FB84201D104270FE0C6
:1008E0002B4FB84201D105270AE02A4FB84201D167
:1008F000062705E0284FB84201D1072700E0082766
:1009000007FA08F72743CCF80878DAF8004057468A
:10091000D1F804C09C435FEACC2C00D51C433C605A
:10092000DBF800405F46D1F804C09C435FEA8C2CA2
:1009300000D51C433C60DEF800407746D1F804C087
:100940009C435FEA8C3C00D51C433C60084F083F49
:100950003C68D1F804C09C435FEACC3C00D51C4302
:100960003C60521C102AFFF42FAFBDE8F88F000046
:10097000083C014044380240003001400000024081
:100980000004024000080240000C02400010024037
:100990000014024000180240001C02400148806818
:1009A000704700000000002002488168027811446E
:1009B00081607047000000200B4810B5016841F4C9
:1009C00000710160016841F480610160016841F4D7
:1009D00080710160032000F061F80F2000F006F83C
:1009E00000F024F8002010BD003C024070B50D4D11
:1009F00004464FF47A712878B1FBF0F00A4909688F
:100A0000B1FBF0F000F0FEFA48B9102C07D200223A
:100A10002146501E00F022F800206C6070BD0120BD
:100A200070BD0000000000200C0000200A4808B53E
:100A3000016841F480410160006800F4804000904A
:100A40000548001F016841F080510160006800F016
:100A50008050009008BD000044380240F0B40E4BB6
:100A60001B680C46C3F30223C3F10705042D00D90C
:100A70000425191D072901D2002300E0DB1E0126F1
:100A800006FA05F1491E214099409E40761E164007
:100A90003143F0BC00F060BC0CED00E0064900F012
:100AA000070208684FF6FF03184040EA0220034A95
:100AB00010430860704700000CED00E00000FA05EC
:100AC0002DE9F0470E46050065D0DFF81481D8F80F
:100AD0000000F7B200F00700B04207D288F80070BB
:100AE000D8F8000000F00700B04254D128683D4C0F
:100AF000810712D5400703D5206840F4E0502060FC
:100B00002878000703D5206840F460402060206802
:100B1000A96820F0F000084320602878C0072DD095
:100B2000304968680839012812D0022813D00328F8
:100B300011D00968890700292DDA216821F0030105
:100B400001432160FFF72AFF814641F2883A0EE017
:100B500009688903EFE709688901ECE7FFF71EFFE1
:100B6000A0EB0901514502D90320BDE8F0872068B8
:100B7000696800F00C00B0EB810FEFD1D8F80010DD
:100B8000404601F00701B14207D90770006800F044
:100B90000700B04201D00120E7E72878400705D5DB
:100BA0002068E96820F4E0500843206028780007B6
:100BB00006D52068296920F4604040EAC100206021
:100BC00000F038F82168084AC1F30311515CC840AD
:100BD0000649086006480068FFF708FF0020C4E7E0
:100BE000003C024008380240B42F00080C000020EE
:100BF000040000200448054900680968044AC1F35C
:100C00008221515CC84070470C0000200838024027
:100C1000C42F00080448054900680968044AC1F364
:100C20004231515CC84070470C0000200838024037
:100C3000C42F0008154810B5006810F00C021448C5
:100C400013D01449042A0FD0082A0ED10F4C241FA8
:100C50002268236802F03F025B0207D52068C0F3D8
:100C60008810A0FB010106E0084610BD2168C1F311
:100C70008811A1FB00010023FFF7A4FA2168C1F34A
:100C80000141491C4900B0FBF1F010BD0838024099
:100C90000024F40040787D012DE9F84F04006ED067
:100CA0002078DFF84C93C007A9F104054AD009F178
:100CB00004000168C1F38101012908D00068C0F374
:100CC000810002280AD1D9F80000400206D5286820
:100CD000800337D560680028E1D033E06068B0F564
:100CE000803F10D0B0F5A02F286810D020F48030BD
:100CF0002860286820F4802028606068A8B1FFF789
:100D00004DFE06460DE0286840F48030F4E740F4DC
:100D100080202860F7E700BFFFF740FE801B6428B3
:100D200073D828688003F7D50CE0FFF737FE064636
:100D300005E000BFFFF732FE801B6428F0D828686A
:100D40008003F7D42078DFF8AC8280074FF0000AE8
:100D50003ED5A748001D016811F00C0F08D00068AF
:100D6000C0F3810002280BD1D9F80000400207D45B
:100D70002868800716D5E068012800D112E033E129
:100D8000E068B8B10120C8F80000FFF707FE06468A
:100D900005E000BFFFF702FE801B0228C0D82868CC
:100DA0008007F7D52868216920F0F80040EAC100E3
:100DB00028600DE0C8F800A0FFF7F0FD064604E04B
:100DC000FFF7ECFD801B02281FD828688007F7D4A6
:100DD0002078000722D5864F87486169703771B146
:100DE00001210160FFF7DAFD064604E0FFF7D6FDBA
:100DF000801B022809D838688007F7D50EE0C0F8B4
:100E000000A0FFF7CBFD064605E082E0FFF7C6FD38
:100E1000801B02287DD838688007F7D420784007E7
:100E200068D5DFF8CCB100270BF13C0BDBF80000F4
:100E3000C0000BD4DBF8001041F08051CBF800105B
:100E4000DBF80000012700F0805000906B4E306806
:100E5000C00510D4306840F480703060FFF79EFD0C
:100E6000009005E0FFF79AFD0099401A022850D83B
:100E70003068C005F6D55E4EA0686C3601280FD0EC
:100E80000528306810D020F001003060306820F074
:100E900004003060A068B8B1FFF780FD00900FE05B
:100EA000306840F00100F4E740F004003060F7E7FC
:100EB000FFF774FD0099411A41F28830814266D8EB
:100EC00030688007F4D50EE0FFF768FD009007E07A
:100ED000FFF764FD0099411A41F28830814256D8EB
:100EE00030688007F4D42FB1DBF8001021F0805176
:100EF000CBF80010A069C8B33D49091D0968C1F3CA
:100F0000810102294AD00228504607D0C8F8600063
:100F100000E03CE0FFF742FD04463BE04746C8F8EE
:100F20006000FFF73BFD064605E000BFFFF736FD1A
:100F3000801B02282BD828688001F7D4D4E9070148
:100F40000843A16A2E4A490802EB0141626A41EA5C
:100F50008211084394F82C1040EA0161C9F800108E
:100F600001203866FFF71AFD044606E03EE000BFA8
:100F7000FFF714FD001B022809D828688001F7D567
:100F800034E000BFFFF70AFD001B022802D903204E
:100F9000BDE8F88F28688001F4D427E00128F7D055
:100FA000D9F80000E26900F4800191421CD1226A64
:100FB00000F03F01914217D147F6C071626A0140CB
:100FC000B1EB821F10D1A26A4FF0FF3300F4403121
:100FD00003EB5202B1EB024F06D194F82C1000F053
:100FE0007060B0EB016F01D00120D1E70020CFE7A6
:100FF0000438024000004742800E47420070004023
:101000000000FFFF10B5401EB0F1807F01D301202A
:1010100010BD4FF0E02460610F21601700F09CF9D3
:101020000020A06107202061002010BD70B50400E1
:1010300004D094F83D00002510B106E0012070BDF9
:1010400084F83C50204600F023F8242084F83D002A
:101050002068C16821F40051C160204600F0E4F826
:101060002068016921F4904101612068416921F003
:101070002A0141612068C16841F40051C1602564C2
:10108000202084F83D0084F83E00002070BD000060
:1010900010B586B0044614216846FFF7CBF8144912
:1010A0002068884221D113480021026842F01002D2
:1010B0000260006800F0100005900E4814380268C5
:1010C00042F001020260006800F0010005904FF458
:1010D000C06000900220CDE90101032003900720A9
:1010E000049069460448FFF761FB06B010BD00009C
:1010F000001001404438024000000240FEE70000BA
:101100000D4808B5016841F004010160016801F073
:1011100004010091016841F080010160016801F063
:1011200080010091016841F001010160006800F058
:101130000100009008BD0000303802400C4810B596
:101140000A4901604FF4E1314160002181600C22C5
:10115000C160C0E904128161C161FFF767FF002827
:1011600003D0BDE81040FFF71FBB10BD00100140C9
:1011700094000020FEE7FEE770477047FFF714BCBD
:1011800030B593B030216846FFF754F814210CA80D
:10119000FFF750F81E480025016841F080510160BA
:1011A000006800F0805011901A48016841F48041B5
:1011B00001600068022400F480401190012000903A
:1011C000000401908001CDE90640192008904FF4F9
:1011D000A870CDE9090404200B906846FFF75CFD78
:1011E00008B172B6FEE70CA90F2081E831004FF478
:1011F000A0500F904FF48050109005210CA8FFF7DD
:101200005FFC002801D072B6FEE713B030BD0000CD
:1012100040380240007000400248016841F470010B
:101220000160704788ED00E070B504460068016910
:10123000E26821F44051114301612169A068E2692B
:1012400008436169114308432168CA6849F20C6385
:101250009A430243CA6020684169A26921F440713F
:101260001143416131492068884202D030498842A7
:1012700002D1FFF7CFFC01E0FFF7BCFCE2690023DD
:10128000192164253226B2F5004F626828D0A0FBF0
:101290000101930F9200FEF795FF0146B0FBF5F0B8
:1012A0006FF01802504301EB800006EB0010B0FB1A
:1012B000F5F000F0F002B1FBF5F002EB0012B1FB2B
:1012C000F5F06FF01803584301EB800006EB0010B7
:1012D000B0FBF5F000F00F0021681044886070BD8D
:1012E000A0FB010192185B41FEF76CFF0146B0FBC9
:1012F000F5F00201B1FBF5F06FF01803584301EB74
:10130000800006EBC000B0FBF5F000F0F80002EB47
:101310004002B1FBF5F0584301EB800006EBC00042
:10132000B0FBF5F000F00700D6E700000010014028
:1013300000140140FEE700000FB4054B10B503A9EF
:10134000044A029800F0EAF810BC5DF814FB0000B3
:10135000652C0008900000200907090E002804DB16
:1013600000F1E02080F80014704700F00F0000F159
:10137000E02080F8141D704702E008C8121F08C161
:10138000002AFAD170477047002001E001C1121F06
:10139000002AFBD1704700002DE9FF5F82B00021D9
:1013A000DDE90430020DDDF840B0034318D044F607
:1013B0001050A2F2FF3242431514119801281FD099
:1013C000A5EB0B00401C5FEA000A4FF000064E4FF1
:1013D000DFF83891B046504615D5CAF1000413E045
:1013E000119801244AA3012801D16FEA0B01029848
:1013F000119AC0E90031C0E9024206B0BDE8F09F91
:10140000CBF10000DFE704460021404A491842EBD7
:101410000450CDE9001012E0E00707D032463B4609
:1014200040464946FFF70FF98046894632463B461B
:1014300010461946FFF707F906460F466410002CC0
:10144000EAD1DDE90401DDE90023BAF1000F06DA93
:10145000FFF7F9F842464B46FFF7F5F805E0FEF7CF
:10146000F4FE42464B46FEF7F0FE04460E460022CE
:10147000284BFEF797FF03D84FF0FF30014607E0F7
:101480000022254B20463146FFF736F8FFF74DF98D
:10149000102409E0002C0ADB0A220023FEF792FE4A
:1014A000039B30321A55641E50EA0102F2D1641CCB
:1014B000039AC4F111031444119A012A03D00122A2
:1014C00008430DD10AE0084304D000204FF0110B6F
:1014D000119072E7A3EB0B056D1E0DE05B4504DD7B
:1014E0004FF0000205F1010504E003DA4FF00002BD
:1014F000A5F10105002AECD002981199C0E902314A
:10150000C0E9004579E70000000014400000F03F0A
:10151000300000000000F0430000E03F2DE9FF4FE5
:1015200095B09A46884606460025EEE1252877D1F3
:1015300000242746F94A0121039400E0044316F8E9
:10154000013F203B01FA03F01042F7D130782A28FE
:1015500011D06FF02F033078A0F13002092A16D88D
:10156000039A44F0020402EB820203EB42021044AD
:10157000761C0390EFE758F8042B0392002A03DA55
:10158000504244F40054039044F00204761C307836
:101590002E2816D116F8010F44F004042A280DD085
:1015A0006FF02F023078A0F13003092B09D807EB38
:1015B000870302EB4303C718761CF3E758F8047B54
:1015C000761C30786C280FD006DC4C2817D06828A1
:1015D0000DD06A2814D104E0742810D07A280FD1D5
:1015E0000DE044F400140AE044F4801401E044F4F3
:1015F00040147278824202D104F58014761C761C65
:10160000307866280BD013DC582877D009DC002806
:1016100075D04528F6D04628F4D047281AD193E152
:1016200018E0632835D0642879D0652812D18BE181
:10163000702873D008DC6728F1D069286FD06E2835
:101640000DD06F2806D1ACE073282CD0752874D04B
:10165000782853D05246179990476D1C54E1C4F333
:101660000250022809D003280DD0D8F80010042811
:101670000DD00D6008F1040846E1D8F80010EA1713
:10168000C1E90052F6E7D8F800100D80F2E70D70BE
:10169000F0E718F8041B8DF8001000208DF8010009
:1016A000EB46012003E058F804BB4FF0FF30610720
:1016B0004FF0000102D40DE009F101018946B94261
:1016C0000FDA8145F8DB1BF809100029F4D108E096
:1016D00009F1010189468142FADB1BF80910002952
:1016E000F6D103985346A0EB090721463846179ACE
:1016F00000F080FA284400EB090507E044E008E127
:101700000DE01BF8010B524617999047B9F10109FA
:10171000F7D2534621463846179AF2E039E00A21BB
:10172000C4F302524FF0000B0091022A06D058F881
:10173000040BC117032A09D00AE023E008F10700CF
:1017400020F00702F2E80201904605E000B2C1175E
:10175000042A01D140B2C117002906DA0A46002145
:10176000404261EB02012D2202E0220504D52B222A
:101770008DF80420012203E0E20701D02022F7E7E0
:10178000914657E00A2100E010214FF0000B009134
:101790000BE010214FF0000B44F0040408270091E7
:1017A00003E008204FF0000B0090C4F30252022A1D
:1017B00005D058F8040B0021032A08D008E008F1EE
:1017C000070020F00702F2E80201904603E080B231
:1017D000042A00D1C0B24FF0000922072AD532787E
:1017E000702A07D0DDF800C08CF0100C5CEA0B0CFE
:1017F00005D00EE040228DF80420012208E050EAD6
:10180000010306D030238DF804308DF80520022224
:101810009146009B83F0080353EA0B030AD150EA78
:10182000010201D1620705D530228DF804204FF066
:1018300001097F1E3278582A04D039A20C920CAAD2
:1018400002920BE03BA2F9E75B46009AFEF7BAFC76
:101850000C9B9B5C029A521E0292137050EA01028A
:10186000F2D1029804A9081A00F1200B600702D5F2
:1018700024F4803400E001275F4502DDA7EB0B0074
:1018800000E0002000EB0B01009003984944401A4F
:101890000390E00306D453462146179A039800F0BC
:1018A000A9F90544002706E001A85246C05D179932
:1018B00090476D1C7F1C4F45F6DBE0030CD553466B
:1018C0002146179A039800F095F9054404E030206A
:1018D0005246179990476D1C0099481E00900029A8
:1018E000F5DC08E00298029952460078491C029102
:1018F000179990476D1CBBF10001ABF1010BF1DCB6
:101900005BE100F065F90544761C307800287FF42F
:101910000DAE19B02846BDE8F08F0000092801007F
:101920003031323334353637383961626364656655
:101930000000000030313233343536373839414217
:101940004344454600000000600700D4062708F124
:10195000070020F00700F0E80223804603F0004C67
:101960005FEA0C0001D097A009E0200501D596A000
:1019700005E0E00701D095A001E0AFF24C00139024
:10198000307823F0004365280CD006DC452809D0C8
:1019900046281DD047287FD13BE0662818D067280D
:1019A0007AD136E00021112F01DB112000E0781CF4
:1019B000CDE9000104A90CA8FFF7EEFCDDE90D015B
:1019C0000C9A4FF0000B07F10109109200914EE0C4
:1019D0004FF000400097CDE9011004A90CA8FFF7D3
:1019E000DBFCDDE90D020C9B0F994FF0000B9146DB
:1019F0001093009211B9791C00EB0109B7EB0900B3
:101A000003D4C0F1FF3B07F10109A9EB07000190E6
:101A100042E0012F00DA01270021112F01DD112002
:101A200000E03846CDE9000104A90CA8FFF7B4FC9A
:101A3000DDE90D010C9A00914FF0000BB9461092B0
:101A400021070FD4009A4A4503DA914601E0A9F133
:101A50000109B9F1010F05DD109AA9F10101515CED
:101A60003029F4D0B84202DA10F1040F03DA012170
:101A7000CDE9011010E0002803DC8344A9EB00014C
:101A800002E0411C494500DD8946A0EB0B00401CEB
:101A900001904FF000400290200705D4019848457E
:101AA00002DB4FF0FF30019000208DF84B000298D0
:101AB0000DF14B07B0F1004F25D002200C902B20E8
:101AC0000D90029800280CDA404202902D200D90D3
:101AD00007E00A210298FEF77DFC3031029007F8FA
:101AE000011D0C99481E0C900029F2DC0298002878
:101AF000EFD1791E0D980870307800F0200040F08A
:101B0000450007F8020D11A8C01BC01D02901398D4
:101B1000007800B1012000EB0901019801EBE071B0
:101B2000029801440398401A401E0390E00306D433
:101B300053462146179A039800F05CF80544139821
:101B4000007818B15246179990476D1CE00323D5D1
:101B500053462146179A039800F04CF805441BE0C1
:101B6000BBF1000F07DB0098584504DD109817996A
:101B700010F80B0001E01799302052469047019869
:101B80000BF1010B401E05F10105019004D12E203F
:101B90005246179990476D1CB9F10001A9F101094E
:101BA000DEDC05E017F8010B5246179990476D1CD3
:101BB0000299481E02900029F4DC53462146179AE8
:101BC00003989EE62D0000002B000000200000007E
:101BD0002DE9F041044600251E461746880404D42A
:101BE00005E039462020B0476D1C641EF9D5284613
:101BF000BDE8F0812DE9F041044600251E469046DF
:101C0000C80301D5302700E02027880404D505E06B
:101C100041463846B0476D1C641EF9D52846BDE8DC
:101C2000F0812DE9FC41B0F9006007460C46C6F38F
:101C3000C01018B106F07F00BDE8FC81C6F3C301F7
:101C400016F0070041EA011110D0012822D03546D4
:101C5000218FA8B200F0D2FF208705F07F0006F4A4
:101C60007F41014341F080013980E5E7222900DA14
:101C70002221208FCDE90010D4E90510B4F90230FB
:101C8000B4F9002000F0CEF805B2E08F0028DFD1D3
:101C9000E587DDE7228F04F1280000F0B3F805B2F4
:101CA000A08F0028D4D1A587D2E70020704770B557
:101CB0000E4615461146FFF7B4FF04462946304646
:101CC000FFF7AFFF201A70BD6AB9028802F47F43A4
:101CD000C2F30722134303800A8802F47F43C2F34E
:101CE000072213430B80B0F90200B1F90210401A29
:101CF000704700002DE9F84F0026B0F90490446ABF
:101D000000968B468246B0463746ADF802103546FF
:101D100029E0E8B2ADF800006946204600F06AF913
:101D20000346204600F05CFA0446B3B308F1010014
:101D30001FFA80F85868B0F90000C10703D0C0F35B
:101D40004020304486B2186820B1016819602168CB
:101D500001602060BDF90200002802DB401CADF8E4
:101D600002006D1C2DB24D45D3DBC7EB880030441B
:101D700086B2BBF1000F05DD52462049204600F037
:101D8000D9F90446206800F01FFA07466946204644
:101D900000F030F905000BD00CE0FFE720687F1C55
:101DA000BFB240680088C0F30020304486B2D1E75B
:101DB000256807E060683146B0F9000000F01BFFBD
:101DC0002D680646002DF5D13846216800F012FA3C
:101DD00000220B49204600F0ADF90546046807E0F3
:101DE00068683146B0F9000000F005FF2468064637
:101DF000002CF5D13046BDE8F88F0000AF1C00087C
:101E0000C91C0008F8B520C8144690E84C000091A1
:101E10003146284601F052F82146BDE8F84000F06E
:101E2000EABE00002DE9F04F95B00746DDE91E6BD4
:101E300091460C46002008919A460246694609AD33
:101E400045F8202041F82020401C0828F8D3884677
:101E50000898007848B109A908A800F03BFE58F896
:101E60002020521C48F82020F2E7274409F0FF0206
:101E70002046089406E001782C2901D051400170D9
:101E8000304408908742F6D8089408E009A908A8C9
:101E900000F020FE58F82020521C48F82020089816
:101EA00000780028F2D10AF0FF022046089406E0EC
:101EB00001782C2901D051400170304408908742AC
:101EC000F6D800244FEA0806594656F8240000F0D8
:101ED000A0FE014655F8240000F09BFE641C8346DA
:101EE000082CF1D315B0BDE8F08F00002DE9F043C8
:101EF000012400252E462AB9012203E06D1C05FBB2
:101F000005F6F6008642F9D3681E491E21F0030645
:101F1000361D00FB00F906EB490C002518E00021F6
:101F200013E000BF04FB02F7FA1707EB12426FF34E
:101F30000F0205FB0018BA1A17192CF8187027445D
:101F4000FFB2491C26F81870641C8142EAD36D1C4C
:101F50008542E4D30CEB4901C3E9016C491E21F031
:101F60000301091DD9601860BDE8F083F0B50023B6
:101F70001C461E46401E2FE074B10025134404E0A9
:101F800016F805C003F805C06D1CA542F8D34FF044
:101F90002C0C03F805C07B1C491C09B201F0070595
:101FA000082D19D2DFE805F00404040B0B0E0E1106
:101FB0000F4CC1F3C10554F8256004240CE00C4C0F
:101FC000103404E00A4C203401E0094C3034C1F3F1
:101FD000C10554F8256008241F197D1C8542CBD308
:101FE0000021401C01E0D1545B1C8342FBD3F0BDB7
:101FF00030000020B1F90220002A01DA09E000686F
:10200000002804D04168B1F902109142F7D170471D
:1020100000680028FBD04268B1F9003012789A427B
:10202000F6D170472DE9F7431421B0FBF1F684B0E7
:10203000B61E059D002105EBC60702972960029890
:10204000686007EB86084180696848F28000914625
:102050000880059802AB083005900298CDE9007819
:10206000001D029047F6FF70ADF80E004FF0FF30F4
:10207000ADF80C0005AA03A9284600F03DF800249D
:1020800014E000BF89EA040000F00F01204661F36C
:10209000DF0040EA0020CDE90078ADF80C0002AB8B
:1020A00005AA03A9284600F027F8641CB442E9D326
:1020B00001210523286813E0B6FBF3F28A4203D915
:1020C00042685180491C0AE081EA0902491C01F07A
:1020D000070442EA04224468C2F30D0262800068E9
:1020E0000268002AE8D10349284600F023F807B027
:1020F000BDE8F083C91C0008F0B50446DDE90576AB
:10210000106800F10805BD4203D21F683F1DB742A9
:1021100001D30020F0BD15602268026020601A68BB
:1021200042601A68121D1A6042680B881380498841
:102130005180F0BD2DE9F74F834601205D464FF0F9
:10214000000B80465E46DA4631E000BF00270AF108
:10215000010A2C46384603E024687F1C1CB1401C51
:1021600041464045F8DB894618E077B1B9F1000FE8
:1021700007D034B1DDE9013261686868984700280A
:1021800003DC28462D687F1E03E020462468A9F161
:1021900001090EB1306000E083460646002FE4DC02
:1021A000B9F1000F02DD002CDFD102E02546002D41
:1021B000CCD100203060BAF1010F02DC5846BDE8F6
:1021C000FE8F4FEA4800B9E7D0E900124B68436040
:1021D0004A60026812680260002008600846704782
:1021E000002103E002680160014610460028F9D191
:1021F0000846704742684B6843604A600A6802605C
:10220000086070472DE9F04F2DED068BADF62C0DD3
:102210004FF000080DF624020DF14A0046464546EF
:102220004FF0FF344746CDF82088111FCDF80480C9
:10223000CDF81C0800F09AFE012000F01DFDADF85D
:102240000800022000F018FDADF80A00032000F09D
:1022500013FDADF80C00042000F00EFD09900520E0
:1022600000F00AFD0A9008B907200A90BDF808009E
:10227000662158B9BDF80A0040B9BDF80C0028B96C
:10228000ADF80880ADF80A80ADF80C10BDF8080074
:1022900001280DD1BDF80A0050B9BDF80C0038B9BD
:1022A00043F21540ADF80800ADF80A00ADF80C1087
:1022B00000210DF14C094FF4FA6A02A801EB41022A
:1022C000C2EBC11309EB031C01EB011300EB83020A
:1022D000491CC2F808C0C2F818A0BDF808C020F810
:1022E00023C0BDF80A305380BDF80C309380A2F8AB
:1022F0004080DDF828C009044346C2F820C0090C1C
:10230000DCD000215FF00102DDF8288002FA01FC38
:102310001CEA080F01D06D1CADB2491C89B203291B
:10232000F2D3002101EB011C00EB8C0C491CDCF802
:1023300018800904B8FBF5F8CCF81880090CF1D026
:10234000002192464FEA030B0A9B0AFA01F21A4255
:1023500008D0089B049A03FB062200EB8103761C3D
:10236000B6B2DA60491C89B20329EDD30026814652
:1023700006EB061809EB880595F82000C00706D083
:1023800039F92820E9680898FFF74CFE686295F84B
:10239000200080070AD539F92800698805F128034B
:1023A00040EA014229690898FFF7A0FD95F820004E
:1023B000400705D539F928106A690898FFF7D6FD56
:1023C000761C3604360CD3D09FEDD89B099880BB81
:1023D000B0EE498AF0EE698A9FEDD6ABCDF824A025
:1023E00013E0099800EB80004000099000F0C2FD66
:1023F00002A800F065FC00F0C5FD00F05BFC00F0F9
:10240000C9FDB0EE408AF0EE608A53EC1A2B51EC15
:10241000180BFDF7AFFFE4D351EC180BFDF791FF5C
:1024200000B901200A21B1FBF0F00999401C484392
:10243000099000F09FFD02A800F042FC00F0A2FD10
:1024400000F038FC0090BDF90800019900F0D3FBC2
:10245000BDF90A200146104600F0CDFB0146BDF94A
:102460000C0000F0C8FB0146089800B200F0C3FB66
:1024700047F60532811ADFF8C4828246904217D0AF
:1024800009DCAAF5C050F2381BD000F64320B0F5A5
:10249000804F08D10FE0A1F56061FD3905D00D3105
:1024A000B1F5C04F0AD027465DE00024A4A00AE0A1
:1024B0000124AFA007E00224B8A004E00324C4A0D4
:1024C00001E00424CEA0FEF737FF002647E000BF5E
:1024D00006EB061209EB8205A5F840B095F820003E
:1024E000C0070ED0D1486A8F30F814309A4208D015
:1024F0003146CFA0FEF720FFB5F84000401CA5F8FC
:10250000400095F8200080070FD5C848AA8F0A30F0
:1025100030F814309A4208D03146D1A0FEF70CFFB3
:10252000B5F84000401CA5F8400095F82000400791
:102530000FD5BE48EA8F143030F814309A4208D0D4
:102540003146D4A0FEF7F8FEB5F84000401CA5F8CF
:102550004000B5F84000761C384407B2B6B2D8F84F
:1025600000008642B4D3FFF7A0FB384406B2D5A0E2
:102570000899FEF7E1FED9A00099FEF7DDFE00986C
:1025800000F008FD53EC102BDAA0FEF7D5FE009802
:1025900000F000FD53EC192B51EC100BFDF702FF7E
:1025A00017D2009800F0F6FC0998D8F80010B0EEA9
:1025B000408AF0EE608A4843FDF7B6FE53EC182BD4
:1025C000FDF743FE41EC100BD0A053EC102BFEF7AF
:1025D000B3FE009800F0DEFC9FEDD21B51EC100B17
:1025E00053EC112BFDF7C6FE04D2D0A0FEF7A4FEDB
:1025F000761C36B20999D8F8000045464143DBA065
:10260000FEF79AFEDFA1EBA0FEF796FE57A1EFA022
:10261000FEF792FEF3A1F5A0FEF78EFE5146F9A05B
:10262000FEF78AFE0A98C00710D000270BE000BF13
:1026300007EB071109EB81003946428FF8A0FEF73E
:102640007BFE7F1CBFB228688742F1D30A988007BF
:1026500010D500270BE000BF07EB071109EB810045
:102660003946828FF5A0FEF767FE7F1CBFB228684F
:102670008742F1D30A98400710D500270BE000BF2E
:1026800007EB071109EB81003946C28FF2A0FEF774
:1026900053FE7F1CBFB228688742F1D300270AE0AF
:1026A00007EB071109EB81003946028FF1A0FEF715
:1026B00043FE7F1CBFB228688742F1D3002E04D0AE
:1026C00033DDF3A0FEF738FE04E0F648FEF734FEF3
:1026D000032C09D0DDF81C0800F045FC0DF62C0D8C
:1026E000BDEC068BBDE8F08F009800F053FC099814
:1026F0002968B0EE408AF0EE608A4843FDF714FE88
:1027000053EC182BFDF7A1FD41EC100B17A19DA078
:10271000CDE9000153EC102BE3A0FEF70DFEB1A1B3
:10272000E8A0FEF709FE90A0CCE7CFE10000000092
:1027300000000000000000000000F03F84000020C6
:10274000366B20706572666F726D616E63652072A4
:10275000756E20706172616D657465727320666F4D
:102760007220636F72656D61726B2E0A000000004B
:10277000366B2076616C69646174696F6E20727566
:102780006E20706172616D657465727320666F7220
:1027900020636F72656D61726B2E0A0050726F66F6
:1027A000696C652067656E65726174696F6E207211
:1027B000756E20706172616D657465727320666FED
:1027C0007220636F72656D61726B2E0A00000000EB
:1027D000324B20706572666F726D616E6365207238
:1027E000756E20706172616D657465727320666FBD
:1027F0007220636F72656D61726B2E0A00000000BB
:10280000324B2076616C69646174696F6E207275F9
:102810006E20706172616D657465727320666F728F
:1028200020636F72656D61726B2E0A0010000020CC
:102830005B25755D4552524F5221206C697374209F
:1028400063726320307825303478202D2073686FD0
:10285000756C64206265203078253034780A000079
:102860005B25755D4552524F5221206D617472692E
:10287000782063726320307825303478202D2073DF
:10288000686F756C64206265203078253034780A72
:10289000000000005B25755D4552524F52212073A8
:1028A0007461746520637263203078253034782039
:1028B0002D2073686F756C64206265203078253038
:1028C00034780A00436F72654D61726B2053697AE8
:1028D00065202020203A20256C750A00546F746111
:1028E0006C207469636B732020202020203A2025FF
:1028F0006C750A00546F74616C2074696D652028D2
:1029000073656373293A2025660A0000497465726D
:102910006174696F6E732F5365632020203A202500
:10292000660A000000000000000024404552524F9B
:102930005221204D75737420657865637574652028
:10294000666F72206174206C656173742031302071
:102950007365637320666F7220612076616C6964B1
:1029600020726573756C74210A00000049746572E9
:102970006174696F6E73202020202020203A20256A
:102980006C750A00506C6561736520707574206306
:102990006F6D70696C65722076657273696F6E20F9
:1029A000686572652028652E672E20676363203472
:1029B0002E312900436F6D70696C657220766572E7
:1029C00073696F6E203A2025730A0000436F6D70A3
:1029D000696C657220666C6167732020203A20253F
:1029E000730A0000535441434B0000004D656D6F66
:1029F0007279206C6F636174696F6E20203A2025B4
:102A0000730A0000736565646372632020202020D0
:102A100020202020203A203078253034780A000009
:102A20005B25645D6372636C6973742020202020D1
:102A300020203A203078253034780A005B25645D08
:102A40006372636D617472697820202020203A20BF
:102A50003078253034780A005B25645D63726373D7
:102A6000746174652020202020203A2030782530A1
:102A700034780A005B25645D63726366696E616C1D
:102A80002020202020203A203078253034780A0079
:102A90004572726F72732064657465637465640A4D
:102AA0000000000030300008436F72654D61726BAA
:102AB00020312E30203A202566202F202573202516
:102AC00073000000202F2025730000000048F9E566
:102AD000CC2F00082DE9F0418846074600240668FF
:102AE00080E02C2D07D0082C7BD2DFE804F0067A9A
:102AF000225533436370761C79E0284600F0ABF82A
:102B000008B104240BE02B2D0FD02D2D0DD02E2D30
:102B10000DD0D8F804000124401CC8F80400D8F8EF
:102B20000000401CC8F800005BE00224F7E7052421
:102B3000F5E7284600F08FF808B1042402E02E2DB6
:102B400006D00124D8F80800401CC8F8080048E066
:102B50000524F7E72E2D04D0284600F07CF810B1AC
:102B60003FE0052400E00124D8F81000401CC8F81C
:102B7000100036E0452D06D0652D04D0284600F023
:102B80006AF810B12DE0032400E00124D8F8140005
:102B9000401CC8F8140024E02B2D09D02D2D07D09F
:102BA0005FF00104D8F80C00401CC8F80C0018E0D5
:102BB0000624F7E7284600F04EF808B1072400E0A5
:102BC0000124D8F81800401CC8F8180009E028466D
:102BD00000F041F828B9D8F804000124401CC8F8D6
:102BE0000400761C357815B1012C7FF47AAF2046AD
:102BF0003E60BDE8F08180B2AFF3008010B50446BE
:102C0000C0B200F011F80146200ABDE8104000F003
:102C10000BB810B5044600B2FFF7EDFF01462014D3
:102C2000BDE81040FFF7E7BF10B5024600204AF2AA
:102C3000010300BF82EA010414F0010F4FEA5202BF
:102C400002D083EA510100E04908401CC0B20828C4
:102C5000F0D3084610BD3038092801D8012070474C
:102C60000020704703490A685206FCD5C2B24A6088
:102C7000704700000010014006280FD2DFE800F086
:102C80000E030507090B064806E0064804E006485F
:102C900002E0064800E006480068704700207047E0
:102CA0007000002074000020780000207C000020CC
:102CB00080000020014803C8081A704788000020DF
:102CC0002DE9F0410446C669002020876087A0876F
:102CD000E0870546471E12E001212046FFF70AF86B
:102CE000218FFFF78BFF208739462046FFF702F838
:102CF000218FFFF783FF208705B960876D1CB542E0
:102D0000EAD30020BDE8F081FDF756FEFEF738FA61
:102D1000FEF7F6F9FEF712FA02A0FEF70DFBFFF739
:102D200071FAFEE70D0A48656C6C6F2C2066726FB5
:102D30006D2053544D333266343037210D0A000074
:102D400070B500240DE0002308E000BF04FB00354F
:102D50005B1C31F81560164421F815608342F5D3E9
:102D6000641C8442EFD370BDF0B500250EE0002452
:102D700009E000BF05FB004632F8167017FB03F7A9
:102D800041F82670641C8442F4D36D1C8542EED356
:102D9000F0BD2DE9F047914600251DE00024A24634
:102DA00017E005FB0046002241F826A00EE005FBD7
:102DB000002851F8267039F818C002FB004833F893
:102DC00018801CFB087741F82670521C8242EED313
:102DD000641C8442E5D36D1C8542DFD3BDE8F087D7
:102DE0002DE9F0439946002523E000241EE005FB71
:102DF0000047002341F8273015E000BF05FB0036EF
:102E000003FB004832F8166039F818C016FB0CF6C0
:102E100051F827C0C6F38308C6F3461618FB06C64A
:102E200041F827605B1C8342E8D3641C8442DED3F4
:102E30006D1C8542D9D3BDE8F083F0B50024264649
:102E400013E041F8246000250CE004FB005C51F81D
:102E5000247032F81CC033F815E01CFB0E7741F8E3
:102E600024706D1C8542F0D3641C8442E9D3F0BD0C
:102E7000F0B500240746A446204626461BE0002560
:102E800016E000BF06FB075351F823301C44944260
:102E900003DD0A3000B2002408E0634502DD4FF094
:102EA000010C01E04FF0000C604400B29C466D1C28
:102EB000BD42E7D3761CBE42E1D3F0BD2DE9F04719
:102EC0008146089C924644F47040884606B21F46EC
:102ED0000025224651464846FFF732FF2346524618
:102EE00041464846FFF740FF324641464846FFF715
:102EF000BFFF2946FFF77FFE05463B465246414647
:102F00004846FFF79AFF324641464846FFF7B0FF72
:102F10002946FFF770FE05463B4652464146484665
:102F2000FFF737FF324641464846FFF7A1FF2946E3
:102F3000FFF761FE05463B46524641464846FFF7CD
:102F40004FFF324641464846FFF792FF2946FFF7BA
:102F500052FE0546604202B251464846FFF7F0FE77
:102F600028B2BDE8F087002101707047012101708F
:102F70007047000010B5FDF711FD0149086010BD54
:102F80008800002010B5FDF709FD0149486010BD1B
:102F90008800002010B5FDF7C7F99FED041B53EC26
:102FA000112BFDF752F941EC100B10BD0000000091
:102FB00000408F40000000000000000001020304F8
:102FC00006070809000000000102030443616E6E59
:102FD0006F742076616C6964617465206F706572CE
:102FE0006174696F6E20666F722074686573652006
:102FF000736565642076616C7565732C20706C65F3
:1030000061736520636F6D706172652077697468A4
:1030100020726573756C7473206F6E2061206B6E07
:103020006F776E20706C6174666F726D2E0A00008F
:10303000436F7272656374206F7065726174696F3B
:103040006E2076616C6964617465642E20536565D9
:1030500020524541444D452E6D6420666F722072AA
:10306000756E20616E64207265706F7274696E6730
:103070002072756C65732E0A0000000033352E3502
:1030800034343030000000002B302E3634343030F1
:10309000000000002E3132333435303000000000A3
:1030A0002D3131302E373030000000002D2E3132DE
:1030B00033652D32000000002B302E36652D313265
:1030C0000000000035303132000000002B31323278
:1030D000000000002D3837652B3833320000000027
:1030E000352E353030652B3300000000313233345B
:1030F000000000002D3837340000000054302E331B
:10310000652D31460000000033342E30652D545EAD
:10311000000000002D542E542B2B54710000000091
:103120003154332E3465347A000000004C310008ED
:10313000000000209400000078130008E03100082F
:1031400094000020440800008813000801000000DB
:1031500010000000000000000024F400B0D4403350
:10316000796A14E7C1E352BE99110856D71F470781
:10317000475EBF39A4E53A8E848D0000C430000854
:10318000EC300008F4300008CC3000087C30000837
:1031900094300008A030000888300008E0300008B3
:1031A000AC300008D4300008B8300008FC3000080B
:1031B0001431000820310008083100080000000028
:1031C0000000000066000000400600000000000053
:1031D00001000000000000000000000000000000EE
:040000050800018965
:00000001FF
