Component: ARM Compiler 6.13.1 Tool: armlink [5d895400]

==============================================================================

Section Cross References

    main.o(.text.main) refers to drv_sysclk.o(.text.SystemClockConfig) for SystemClockConfig
    main.o(.text.main) refers to drv_systick.o(.text.Drv_SysTick_Config) for Drv_SysTick_Config
    main.o(.text.main) refers to drv_lcd_init.o(.text.LCD_Init) for LCD_Init
    main.o(.text.main) refers to drv_lcd.o(.text.LCD_Fill) for LCD_Fill
    main.o(.text.main) refers to drv_lcd.o(.text.LCD_ShowString) for LCD_ShowString
    main.o(.text.main) refers to drv_lcd.o(.text.LCD_ShowIntNum) for LCD_ShowIntNum
    main.o(.text.main) refers to main.o(.rodata.str1.1) for .L.str.1
    main.o(.text.main) refers to drv_lcd.o(.text.LCD_ShowFloatNum1) for LCD_ShowFloatNum1
    main.o(.text.main) refers to drv_touch.o(.text.TP_Init) for TP_Init
    main.o(.text.main) refers to main.o(.rodata.gImage_1) for gImage_1
    main.o(.text.main) refers to drv_lcd.o(.text.LCD_ShowPicture) for LCD_ShowPicture
    main.o(.text.main) refers to drv_systick.o(.text.HAL_Delay) for HAL_Delay
    main.o(.text.main) refers to drv_touch.o(.data.tp_dev) for tp_dev
    main.o(.text.main) refers to drv_touch.o(.text.LCD_DrawRoughLine) for LCD_DrawRoughLine
    main.o(.ARM.exidx.text.main) refers to main.o(.text.main) for [Anonymous Symbol]
    drv_sysclk.o(.text.SystemClockConfig) refers to drv_sysclk.o(.text.update_systemclock) for update_systemclock
    drv_sysclk.o(.text.SystemClockConfig) refers to drv_sysclk.o(.text.update_ahb_clock) for update_ahb_clock
    drv_sysclk.o(.text.SystemClockConfig) refers to drv_sysclk.o(.text.update_apb1_clock) for update_apb1_clock
==============================================================================

Removing Unused input sections from the image.

    Removing main.o(.text), (0 bytes).
    Removing main.o(.ARM.exidx.text.main), (8 bytes).
    Removing main.o(.ARM.use_no_argv), (4 bytes).
    Removing drv_sysclk.o(.text), (0 bytes).
    Removing drv_sysclk.o(.ARM.exidx.text.SystemClockConfig), (8 bytes).
    Removing drv_sysclk.o(.ARM.exidx.text.update_systemclock), (8 bytes).
    Removing drv_sysclk.o(.ARM.exidx.text.update_ahb_clock), (8 bytes).
    Removing drv_sysclk.o(.ARM.exidx.text.update_apb1_clock), (8 bytes).
    Removing drv_sysclk.o(.ARM.exidx.text.update_apb2_clock), (8 bytes).
    Removing drv_sysclk.o(.ARM.exidx.text.HAL_GetSysClockFreq), (8 bytes).
    Removing drv_sysclk.o(.text.HAL_Get_AHB_Clock), (12 bytes).
    Removing drv_sysclk.o(.ARM.exidx.text.HAL_Get_AHB_Clock), (8 bytes).
    Removing drv_sysclk.o(.text.HAL_Get_APB1_Clock), (12 bytes).
    Removing drv_sysclk.o(.ARM.exidx.text.HAL_Get_APB1_Clock), (8 bytes).
    Removing drv_sysclk.o(.text.HAL_Get_APB2_Clock), (12 bytes).
    Removing drv_sysclk.o(.ARM.exidx.text.HAL_Get_APB2_Clock), (8 bytes).
    Removing drv_systick.o(.text), (0 bytes).
    Removing drv_systick.o(.ARM.exidx.text.Drv_SysTick_Config), (8 bytes).
==============================================================================

Image Symbol Table

    Local Symbols

    Symbol Name                              Value     Ov Type        Size  Object(Section)

    ../clib/angel/boardlib.s                 0x00000000   Number         0  boardinit1.o ABSOLUTE
    ../clib/angel/boardlib.s                 0x00000000   Number         0  boardinit2.o ABSOLUTE
    ../clib/angel/boardlib.s                 0x00000000   Number         0  boardinit3.o ABSOLUTE
    ../clib/angel/boardlib.s                 0x00000000   Number         0  boardshut.o ABSOLUTE
    ../clib/angel/handlers.s                 0x00000000   Number         0  __scatter_copy.o ABSOLUTE
    ../clib/angel/handlers.s                 0x00000000   Number         0  __scatter_zi.o ABSOLUTE
    ../clib/angel/kernel.s                   0x00000000   Number         0  __rtentry.o ABSOLUTE
    ../clib/angel/kernel.s                   0x00000000   Number         0  __rtentry2.o ABSOLUTE
    ../clib/angel/kernel.s                   0x00000000   Number         0  __rtentry4.o ABSOLUTE
    ../clib/angel/kernel.s                   0x00000000   Number         0  __rtentry7.o ABSOLUTE
    ../clib/angel/kernel.s                   0x00000000   Number         0  rtexit.o ABSOLUTE
    ../clib/angel/kernel.s                   0x00000000   Number         0  rtexit2.o ABSOLUTE
    ../clib/angel/rt.s                       0x00000000   Number         0  rt_errno_addr.o ABSOLUTE
    ../clib/angel/rt.s                       0x00000000   Number         0  rt_errno_addr_intlibspace.o ABSOLUTE
    ../clib/angel/rt.s                       0x00000000   Number         0  rt_raise.o ABSOLUTE
    ../clib/angel/scatter.s                  0x00000000   Number         0  __scatter.o ABSOLUTE
    ../clib/angel/startup.s                  0x00000000   Number         0  __main.o ABSOLUTE
    ../clib/angel/sys.s                      0x00000000   Number         0  libspace.o ABSOLUTE
    ../clib/angel/sys.s                      0x00000000   Number         0  sys_stackheap_outer.o ABSOLUTE
    ../clib/angel/sys.s                      0x00000000   Number         0  sys_stackheap.o ABSOLUTE
    ../clib/angel/sys.s                      0x00000000   Number         0  sys_stackheap_hlt.o ABSOLUTE
    ../clib/angel/sys.s                      0x00000000   Number         0  use_no_semi.o ABSOLUTE
    ../clib/angel/sys.s                      0x00000000   Number         0  indicate_semi.o ABSOLUTE
    ../clib/angel/sysapp.c                   0x00000000   Number         0  sys_exit.o ABSOLUTE
    ../clib/angel/sysapp.c                   0x00000000   Number         0  sys_exit_hlt.o ABSOLUTE
    ../clib/angel/sysapp.c                   0x00000000   Number         0  sys_command.o ABSOLUTE
    ../clib/angel/sysapp.c                   0x00000000   Number         0  sys_command_hlt.o ABSOLUTE
    ../clib/angel/sysapp.c                   0x00000000   Number         0  sys_wrch.o ABSOLUTE
    ../clib/angel/sysapp.c                   0x00000000   Number         0  sys_wrch_hlt.o ABSOLUTE
    ../clib/armsys.c                         0x00000000   Number         0  argv_veneer.o ABSOLUTE
    ../clib/armsys.c                         0x00000000   Number         0  argv_veneer.o ABSOLUTE
    ../clib/armsys.c                         0x00000000   Number         0  _get_argv_nomalloc.o ABSOLUTE
    ../clib/armsys.c                         0x00000000   Number         0  no_argv.o ABSOLUTE
    ../clib/fenv.c                           0x00000000   Number         0  _rserrno.o ABSOLUTE
    ../clib/heapalloc.c                      0x00000000   Number         0  hrguard.o ABSOLUTE
    ../clib/libinit.s                        0x00000000   Number         0  libinit.o ABSOLUTE
    ../clib/libinit.s                        0x00000000   Number         0  libinit2.o ABSOLUTE
    ../clib/libinit.s                        0x00000000   Number         0  libinit5.o ABSOLUTE
    ../clib/libinit.s                        0x00000000   Number         0  libshutdown.o ABSOLUTE
    ../clib/libinit.s                        0x00000000   Number         0  libshutdown2.o ABSOLUTE
    ../clib/signal.c                         0x00000000   Number         0  defsig_rtmem_outer.o ABSOLUTE
    ../clib/signal.c                         0x00000000   Number         0  defsig_rtmem_formal.o ABSOLUTE
    ../clib/signal.c                         0x00000000   Number         0  defsig_exit.o ABSOLUTE
    ../clib/signal.c                         0x00000000   Number         0  defsig_rtmem_inner.o ABSOLUTE
    ../clib/signal.c                         0x00000000   Number         0  __raise.o ABSOLUTE
    ../clib/signal.c                         0x00000000   Number         0  defsig_general.o ABSOLUTE
    ../clib/signal.c                         0x00000000   Number         0  defsig_abrt_inner.o ABSOLUTE
    ../clib/signal.c                         0x00000000   Number         0  defsig_fpe_inner.o ABSOLUTE
    ../clib/signal.c                         0x00000000   Number         0  defsig_rtred_inner.o ABSOLUTE
    ../clib/signal.c                         0x00000000   Number         0  defsig_stak_inner.o ABSOLUTE
    ../clib/signal.c                         0x00000000   Number         0  defsig_pvfn_inner.o ABSOLUTE
    ../clib/signal.c                         0x00000000   Number         0  defsig_cppl_inner.o ABSOLUTE
    ../clib/signal.c                         0x00000000   Number         0  defsig_segv_inner.o ABSOLUTE
    ../clib/signal.c                         0x00000000   Number         0  defsig_other.o ABSOLUTE
    ../clib/signal.s                         0x00000000   Number         0  defsig.o ABSOLUTE
    ../clib/stdlib.c                         0x00000000   Number         0  exit.o ABSOLUTE
    ../fplib/d2f.s                           0x00000000   Number         0  d2f.o ABSOLUTE
    ../fplib/dcmp.s                          0x00000000   Number         0  dcmp.o ABSOLUTE
    ../fplib/dcmpi.s                         0x00000000   Number         0  dcmpi.o ABSOLUTE
    ../fplib/deqf.s                          0x00000000   Number         0  deqf.o ABSOLUTE
    ../fplib/dfix.s                          0x00000000   Number         0  dfix.o ABSOLUTE
    ../fplib/dflt.s                          0x00000000   Number         0  dflt_clz.o ABSOLUTE
    ../fplib/dgeqf.s                         0x00000000   Number         0  dgeqf.o ABSOLUTE
    ../fplib/dleqf.s                         0x00000000   Number         0  dleqf.o ABSOLUTE
    ../fplib/dmul.s                          0x00000000   Number         0  dmul.o ABSOLUTE
    ../fplib/dnaninf.s                       0x00000000   Number         0  dnaninf.o ABSOLUTE
    ../fplib/dretinf.s                       0x00000000   Number         0  dretinf.o ABSOLUTE
    ../fplib/dsqrt.s                         0x00000000   Number         0  dsqrt_noumaal.o ABSOLUTE
    ../fplib/f2d.s                           0x00000000   Number         0  f2d.o ABSOLUTE
    ../fplib/faddsub.s                       0x00000000   Number         0  faddsub_clz.o ABSOLUTE
    ../fplib/fcmp.s                          0x00000000   Number         0  fcmp.o ABSOLUTE
    ../fplib/fcmpi.s                         0x00000000   Number         0  fcmpi.o ABSOLUTE
    ../fplib/fdiv.s                          0x00000000   Number         0  fdiv.o ABSOLUTE
    ../fplib/feqf.s                          0x00000000   Number         0  feqf.o ABSOLUTE
    ../fplib/ffix.s                          0x00000000   Number         0  ffix.o ABSOLUTE
    ../fplib/fflt.s                          0x00000000   Number         0  fflt_clz.o ABSOLUTE
    ../fplib/fgeqf.s                         0x00000000   Number         0  fgeqf.o ABSOLUTE
    ../fplib/fleqf.s                         0x00000000   Number         0  fleqf.o ABSOLUTE
    ../fplib/fmul.s                          0x00000000   Number         0  fmul.o ABSOLUTE
    ../fplib/fnaninf.s                       0x00000000   Number         0  fnaninf.o ABSOLUTE
    ../fplib/fpinit.s                        0x00000000   Number         0  fpinit.o ABSOLUTE
    ../fplib/fpinit_empty.s                  0x00000000   Number         0  fpinit_empty.o ABSOLUTE
    ../fplib/fretinf.s                       0x00000000   Number         0  fretinf.o ABSOLUTE
    ../fplib/usenofp.s                       0x00000000   Number         0  usenofp.o ABSOLUTE
    ../mathlib/sqrt.c                        0x00000000   Number         0  sqrt.o ABSOLUTE
    ../mathlib/sqrt.c                        0x00000000   Number         0  sqrt_x.o ABSOLUTE
    ..\3_MM32F327x\mdk\startup_mm32f3277g.s  0x00000000   Number         0  startup_mm32f3277g.o ABSOLUTE
    dc.s                                     0x00000000   Number         0  dc.o ABSOLUTE
    drv_lcd.c                                0x00000000   Number         0  drv_lcd.o ABSOLUTE
    drv_lcd_init.c                           0x00000000   Number         0  drv_lcd_init.o ABSOLUTE
    drv_sysclk.c                             0x00000000   Number         0  drv_sysclk.o ABSOLUTE
    drv_systick.c                            0x00000000   Number         0  drv_systick.o ABSOLUTE
    drv_touch.c                              0x00000000   Number         0  drv_touch.o ABSOLUTE
    hal_adc.c                                0x00000000   Number         0  hal_adc.o ABSOLUTE
    hal_comp.c                               0x00000000   Number         0  hal_comp.o ABSOLUTE
    hal_dac.c                                0x00000000   Number         0  hal_dac.o ABSOLUTE
    hal_dma.c                                0x00000000   Number         0  hal_dma.o ABSOLUTE
    hal_exti.c                               0x00000000   Number         0  hal_exti.o ABSOLUTE
    hal_fsmc.c                               0x00000000   Number         0  hal_fsmc.o ABSOLUTE
    hal_gpio.c                               0x00000000   Number         0  hal_gpio.o ABSOLUTE
    hal_i2c.c                                0x00000000   Number         0  hal_i2c.o ABSOLUTE
    hal_iwdg.c                               0x00000000   Number         0  hal_iwdg.o ABSOLUTE
    hal_rcc.c                                0x00000000   Number         0  hal_rcc.o ABSOLUTE
    hal_rtc.c                                0x00000000   Number         0  hal_rtc.o ABSOLUTE
    hal_sdio.c                               0x00000000   Number         0  hal_sdio.o ABSOLUTE
    hal_spi.c                                0x00000000   Number         0  hal_spi.o ABSOLUTE
    hal_syscfg.c                             0x00000000   Number         0  hal_syscfg.o ABSOLUTE
    hal_tim_16b.c                            0x00000000   Number         0  hal_tim_16b.o ABSOLUTE
    hal_tim_32b.c                            0x00000000   Number         0  hal_tim_32b.o ABSOLUTE
    hal_tim_adv.c                            0x00000000   Number         0  hal_tim_adv.o ABSOLUTE
    hal_tim_basic.c                          0x00000000   Number         0  hal_tim_basic.o ABSOLUTE
    hal_uart.c                               0x00000000   Number         0  hal_uart.o ABSOLUTE
    hal_usb.c                                0x00000000   Number         0  hal_usb.o ABSOLUTE
    hal_wwdg.c                               0x00000000   Number         0  hal_wwdg.o ABSOLUTE
    main.c                                   0x00000000   Number         0  main.o ABSOLUTE
    system_mm32f3277g.c                      0x00000000   Number         0  system_mm32f3277g.o ABSOLUTE
    RESET                                    0x08000000   Section      400  startup_mm32f3277g.o(RESET)
    !!!main                                  0x08000400   Section        8  __main.o(!!!main)
    !!!scatter                               0x08000408   Section       52  __scatter.o(!!!scatter)
    !!handler_copy                           0x0800043c   Section       26  __scatter_copy.o(!!handler_copy)
    !!handler_zi                             0x08000458   Section       28  __scatter_zi.o(!!handler_zi)
    .ARM.Collect$$libinit$$00000000          0x08000474   Section        2  libinit.o(.ARM.Collect$$libinit$$00000000)
    .ARM.Collect$$libinit$$00000002          0x08000476   Section        0  libinit2.o(.ARM.Collect$$libinit$$00000002)
    .ARM.Collect$$libinit$$00000004          0x08000476   Section        0  libinit2.o(.ARM.Collect$$libinit$$00000004)
    .ARM.Collect$$libinit$$0000000A          0x08000476   Section        0  libinit2.o(.ARM.Collect$$libinit$$0000000A)
    .ARM.Collect$$libinit$$0000000C          0x08000476   Section        0  libinit2.o(.ARM.Collect$$libinit$$0000000C)
    .ARM.Collect$$libinit$$0000000E          0x08000476   Section        0  libinit2.o(.ARM.Collect$$libinit$$0000000E)
    .ARM.Collect$$libinit$$00000011          0x08000476   Section        0  libinit2.o(.ARM.Collect$$libinit$$00000011)
    .ARM.Collect$$libinit$$00000013          0x08000476   Section        0  libinit2.o(.ARM.Collect$$libinit$$00000013)
    .ARM.Collect$$libinit$$00000015          0x08000476   Section        0  libinit2.o(.ARM.Collect$$libinit$$00000015)
    .ARM.Collect$$libinit$$00000017          0x08000476   Section        0  libinit2.o(.ARM.Collect$$libinit$$00000017)
    .ARM.Collect$$libinit$$00000019          0x08000476   Section        0  libinit2.o(.ARM.Collect$$libinit$$00000019)
    .ARM.Collect$$libinit$$0000001B          0x08000476   Section        0  libinit2.o(.ARM.Collect$$libinit$$0000001B)
    .ARM.Collect$$libinit$$0000001D          0x08000476   Section        0  libinit2.o(.ARM.Collect$$libinit$$0000001D)
    .ARM.Collect$$libinit$$0000001F          0x08000476   Section        0  libinit2.o(.ARM.Collect$$libinit$$0000001F)
    .ARM.Collect$$libinit$$00000021          0x08000476   Section        0  libinit2.o(.ARM.Collect$$libinit$$00000021)
    .ARM.Collect$$libinit$$00000023          0x08000476   Section        0  libinit2.o(.ARM.Collect$$libinit$$00000023)
    .ARM.Collect$$libinit$$00000025          0x08000476   Section        0  libinit2.o(.ARM.Collect$$libinit$$00000025)
    .ARM.Collect$$libinit$$0000002C          0x08000476   Section        0  libinit2.o(.ARM.Collect$$libinit$$0000002C)
    .ARM.Collect$$libinit$$0000002E          0x08000476   Section        0  libinit2.o(.ARM.Collect$$libinit$$0000002E)
    .ARM.Collect$$libinit$$00000030          0x08000476   Section        0  libinit2.o(.ARM.Collect$$libinit$$00000030)
    .ARM.Collect$$libinit$$00000032          0x08000476   Section        0  libinit2.o(.ARM.Collect$$libinit$$00000032)
    .ARM.Collect$$libinit$$00000033          0x08000476   Section        2  libinit2.o(.ARM.Collect$$libinit$$00000033)
    .ARM.Collect$$libshutdown$$00000000      0x08000478   Section        2  libshutdown.o(.ARM.Collect$$libshutdown$$00000000)
    .ARM.Collect$$libshutdown$$00000002      0x0800047a   Section        0  libshutdown2.o(.ARM.Collect$$libshutdown$$00000002)
    .ARM.Collect$$libshutdown$$00000004      0x0800047a   Section        0  libshutdown2.o(.ARM.Collect$$libshutdown$$00000004)
    .ARM.Collect$$libshutdown$$00000007      0x0800047a   Section        0  libshutdown2.o(.ARM.Collect$$libshutdown$$00000007)
    .ARM.Collect$$libshutdown$$0000000A      0x0800047a   Section        0  libshutdown2.o(.ARM.Collect$$libshutdown$$0000000A)
    .ARM.Collect$$libshutdown$$0000000C      0x0800047a   Section        0  libshutdown2.o(.ARM.Collect$$libshutdown$$0000000C)
    .ARM.Collect$$libshutdown$$0000000F      0x0800047a   Section        0  libshutdown2.o(.ARM.Collect$$libshutdown$$0000000F)
    .ARM.Collect$$libshutdown$$00000010      0x0800047a   Section        2  libshutdown2.o(.ARM.Collect$$libshutdown$$00000010)
    .ARM.Collect$$rtentry$$00000000          0x0800047c   Section        0  __rtentry.o(.ARM.Collect$$rtentry$$00000000)
    .ARM.Collect$$rtentry$$00000002          0x0800047c   Section        0  __rtentry2.o(.ARM.Collect$$rtentry$$00000002)
    .ARM.Collect$$rtentry$$00000007          0x0800047c   Section        4  __rtentry7.o(.ARM.Collect$$rtentry$$00000007)
    .ARM.Collect$$rtentry$$00000009          0x08000480   Section        0  __rtentry2.o(.ARM.Collect$$rtentry$$00000009)
    .ARM.Collect$$rtentry$$0000000A          0x08000480   Section        4  __rtentry2.o(.ARM.Collect$$rtentry$$0000000A)
    .ARM.Collect$$rtentry$$0000000C          0x08000484   Section        0  __rtentry2.o(.ARM.Collect$$rtentry$$0000000C)
    .ARM.Collect$$rtentry$$0000000D          0x08000484   Section        8  __rtentry2.o(.ARM.Collect$$rtentry$$0000000D)
    __lit__00000000                          0x0800048c   Data           4  __rtentry7.o(.ARM.Collect$$rtentry$$00002718)
    .ARM.Collect$$rtentry$$00002718          0x0800048c   Section        4  __rtentry7.o(.ARM.Collect$$rtentry$$00002718)
    .ARM.Collect$$rtexit$$00000000           0x08000490   Section        2  rtexit.o(.ARM.Collect$$rtexit$$00000000)
    .ARM.Collect$$rtexit$$00000002           0x08000492   Section        0  rtexit2.o(.ARM.Collect$$rtexit$$00000002)
    .ARM.Collect$$rtexit$$00000003           0x08000492   Section        4  rtexit2.o(.ARM.Collect$$rtexit$$00000003)
    .ARM.Collect$$rtexit$$00000004           0x08000496   Section        6  rtexit2.o(.ARM.Collect$$rtexit$$00000004)
    .text                                    0x0800049c   Section       36  startup_mm32f3277g.o(.text)
    .text                                    0x080004c0   Section        0  _rserrno.o(.text)
    .text                                    0x080004d8   Section        8  rt_errno_addr_intlibspace.o(.text)
    .text                                    0x080004e0   Section        0  exit.o(.text)
    .text                                    0x080004f2   Section        2  use_no_semi.o(.text)
    .text                                    0x080004f4   Section        0  indicate_semi.o(.text)
    .text                                    0x080004f4   Section        0  sys_exit.o(.text)
    [Anonymous Symbol]                       0x08000500   Section        0  hal_adc.o(.text.ADC_ClearStatus)
    [Anonymous Symbol]                       0x08000528   Section        0  hal_adc.o(.text.ADC_DoSwTrigger)
    [Anonymous Symbol]                       0x0800053c   Section        0  hal_adc.o(.text.ADC_Enable)
    [Anonymous Symbol]                       0x08000550   Section        0  hal_adc.o(.text.ADC_EnableRegSeq)
    [Anonymous Symbol]                       0x08000570   Section        0  hal_adc.o(.text.ADC_GetConvResult)
    [Anonymous Symbol]                       0x08000588   Section        0  hal_adc.o(.text.ADC_GetStatus)
    [Anonymous Symbol]                       0x080005b0   Section        0  hal_adc.o(.text.ADC_Init)
    [Anonymous Symbol]                       0x08000600   Section        0  hal_adc.o(.text.ADC_SetChnSampleTime)
    [Anonymous Symbol]                       0x08000634   Section        0  drv_lcd.o(.text.Draw_Circle)
    Drv_ADC_Config                           0x080006f9   Thumb Code    76  drv_lcd_init.o(.text.Drv_ADC_Config)
    [Anonymous Symbol]                       0x080006f8   Section        0  drv_lcd_init.o(.text.Drv_ADC_Config)
    Drv_ADC_GPIO_Config                      0x08000745   Thumb Code    36  drv_lcd_init.o(.text.Drv_ADC_GPIO_Config)
    [Anonymous Symbol]                       0x08000744   Section        0  drv_lcd_init.o(.text.Drv_ADC_GPIO_Config)
    [Anonymous Symbol]                       0x08000768   Section        0  drv_lcd_init.o(.text.Drv_ADC_GetAnalogValue)
    [Anonymous Symbol]                       0x08000794   Section        0  drv_lcd_init.o(.text.Drv_ADC_GetDigitalValue)
    [Anonymous Symbol]                       0x080007d0   Section        0  drv_lcd_init.o(.text.Drv_ADC_Init)
    [Anonymous Symbol]                       0x080007e0   Section        0  drv_systick.o(.text.Drv_SysTick_Config)
    [Anonymous Symbol]                       0x08000824   Section        0  hal_gpio.o(.text.GPIO_ClearBits)
    [Anonymous Symbol]                       0x08000828   Section        0  hal_gpio.o(.text.GPIO_Init)
    [Anonymous Symbol]                       0x080008b8   Section        0  hal_gpio.o(.text.GPIO_ReadInDataBit)
    [Anonymous Symbol]                       0x080008c4   Section        0  hal_gpio.o(.text.GPIO_SetBits)
    [Anonymous Symbol]                       0x080008c8   Section        0  hal_gpio.o(.text.GPIO_WriteBit)
    [Anonymous Symbol]                       0x080008d4   Section        0  drv_systick.o(.text.HAL_Delay)
    [Anonymous Symbol]                       0x08000904   Section        0  drv_sysclk.o(.text.HAL_GetSysClockFreq)
    [Anonymous Symbol]                       0x08000910   Section        0  drv_systick.o(.text.HAL_GetTick)
    [Anonymous Symbol]                       0x0800091c   Section        0  drv_lcd_init.o(.text.LCD_Address_Set)
    [Anonymous Symbol]                       0x08000958   Section        0  drv_lcd.o(.text.LCD_DrawLine)
    [Anonymous Symbol]                       0x080009f4   Section        0  drv_lcd.o(.text.LCD_DrawPoint)
    [Anonymous Symbol]                       0x08000a0c   Section        0  drv_touch.o(.text.LCD_DrawRoughLine)
    [Anonymous Symbol]                       0x08000aa8   Section        0  drv_lcd.o(.text.LCD_Fill)
    [Anonymous Symbol]                       0x08000af8   Section        0  drv_lcd_init.o(.text.LCD_GPIO_Init)
    [Anonymous Symbol]                       0x08000b50   Section        0  drv_lcd_init.o(.text.LCD_Init)
    [Anonymous Symbol]                       0x08000d78   Section        0  drv_lcd.o(.text.LCD_ShowChar)
    [Anonymous Symbol]                       0x08000ecc   Section        0  drv_lcd.o(.text.LCD_ShowFloatNum1)
    [Anonymous Symbol]                       0x08000fb0   Section        0  drv_lcd.o(.text.LCD_ShowIntNum)
    [Anonymous Symbol]                       0x08001070   Section        0  drv_lcd.o(.text.LCD_ShowPicture)
    [Anonymous Symbol]                       0x080010dc   Section        0  drv_lcd.o(.text.LCD_ShowString)
    [Anonymous Symbol]                       0x08001124   Section        0  drv_lcd_init.o(.text.LCD_WR_DATA)
    [Anonymous Symbol]                       0x08001138   Section        0  drv_lcd_init.o(.text.LCD_WR_DATA8)
    [Anonymous Symbol]                       0x0800113c   Section        0  drv_lcd_init.o(.text.LCD_WR_REG)
    [Anonymous Symbol]                       0x08001164   Section        0  drv_lcd_init.o(.text.LCD_Writ_Bus)
    NVIC_EncodePriority                      0x080011bd   Thumb Code    42  drv_systick.o(.text.NVIC_EncodePriority)
    [Anonymous Symbol]                       0x080011bc   Section        0  drv_systick.o(.text.NVIC_EncodePriority)
    [Anonymous Symbol]                       0x080011e8   Section        0  hal_rcc.o(.text.RCC_EnableAHB1Periphs)
    [Anonymous Symbol]                       0x08001200   Section        0  hal_rcc.o(.text.RCC_EnableAPB2Periphs)
    SysTick_Config                           0x08001219   Thumb Code    44  drv_systick.o(.text.SysTick_Config)
    [Anonymous Symbol]                       0x08001218   Section        0  drv_systick.o(.text.SysTick_Config)
    [Anonymous Symbol]                       0x08001244   Section        0  drv_systick.o(.text.SysTick_Handler)
    [Anonymous Symbol]                       0x08001254   Section        0  drv_sysclk.o(.text.SystemClockConfig)
    [Anonymous Symbol]                       0x08001348   Section        0  system_mm32f3277g.o(.text.SystemInit)
    [Anonymous Symbol]                       0x0800134c   Section        0  drv_touch.o(.text.TP_Adjust)
    [Anonymous Symbol]                       0x08001804   Section        0  drv_touch.o(.text.TP_Draw_Big_Point)
    [Anonymous Symbol]                       0x08001840   Section        0  drv_touch.o(.text.TP_Drow_Touch_Point)
    [Anonymous Symbol]                       0x080018c4   Section        0  drv_touch.o(.text.TP_Init)
    [Anonymous Symbol]                       0x080018f4   Section        0  drv_touch.o(.text.TP_Read_AD)
    [Anonymous Symbol]                       0x08001998   Section        0  drv_touch.o(.text.TP_Read_XOY)
    [Anonymous Symbol]                       0x08001a08   Section        0  drv_touch.o(.text.TP_Read_XY)
    [Anonymous Symbol]                       0x08001a3c   Section        0  drv_touch.o(.text.TP_Read_XY2)
    [Anonymous Symbol]                       0x08001ab0   Section        0  drv_touch.o(.text.TP_Scan)
    [Anonymous Symbol]                       0x08001b94   Section        0  drv_touch.o(.text.TP_Write_Byte)
    __NVIC_GetPriorityGrouping               0x08001bd5   Thumb Code    16  drv_systick.o(.text.__NVIC_GetPriorityGrouping)
    [Anonymous Symbol]                       0x08001bd4   Section        0  drv_systick.o(.text.__NVIC_GetPriorityGrouping)
    __NVIC_SetPriority                       0x08001be5   Thumb Code    14  drv_systick.o(.text.__NVIC_SetPriority)
    [Anonymous Symbol]                       0x08001be4   Section        0  drv_systick.o(.text.__NVIC_SetPriority)
    [Anonymous Symbol]                       0x08001bf4   Section        0  drv_touch.o(.text.delay_us)
    [Anonymous Symbol]                       0x08001c08   Section        0  main.o(.text.main)
    [Anonymous Symbol]                       0x08001e68   Section        0  drv_lcd.o(.text.mypow)
    update_ahb_clock                         0x08001e81   Thumb Code    58  drv_sysclk.o(.text.update_ahb_clock)
    [Anonymous Symbol]                       0x08001e80   Section        0  drv_sysclk.o(.text.update_ahb_clock)
    update_apb1_clock                        0x08001ebd   Thumb Code    58  drv_sysclk.o(.text.update_apb1_clock)
    [Anonymous Symbol]                       0x08001ebc   Section        0  drv_sysclk.o(.text.update_apb1_clock)
    update_apb2_clock                        0x08001ef9   Thumb Code    58  drv_sysclk.o(.text.update_apb2_clock)
    [Anonymous Symbol]                       0x08001ef8   Section        0  drv_sysclk.o(.text.update_apb2_clock)
    update_systemclock                       0x08001f35   Thumb Code   110  drv_sysclk.o(.text.update_systemclock)
    [Anonymous Symbol]                       0x08001f34   Section        0  drv_sysclk.o(.text.update_systemclock)
    i.sqrt                                   0x08001fa2   Section        0  sqrt.o(i.sqrt)
    x$fpl$d2f                                0x08001ff0   Section       98  d2f.o(x$fpl$d2f)
    x$fpl$dcmpinf                            0x08002052   Section       24  dcmpi.o(x$fpl$dcmpinf)
    x$fpl$deqf                               0x0800206c   Section      120  deqf.o(x$fpl$deqf)
    x$fpl$dfix                               0x080020e4   Section       94  dfix.o(x$fpl$dfix)
    x$fpl$dfltu                              0x08002142   Section       38  dflt_clz.o(x$fpl$dfltu)
    x$fpl$dgeqf                              0x08002168   Section      120  dgeqf.o(x$fpl$dgeqf)
    x$fpl$dleqf                              0x080021e0   Section      120  dleqf.o(x$fpl$dleqf)
    x$fpl$dmul                               0x08002258   Section      340  dmul.o(x$fpl$dmul)
    x$fpl$dnaninf                            0x080023ac   Section      156  dnaninf.o(x$fpl$dnaninf)
    x$fpl$dretinf                            0x08002448   Section       12  dretinf.o(x$fpl$dretinf)
    x$fpl$dsqrt                              0x08002454   Section      460  dsqrt_noumaal.o(x$fpl$dsqrt)
    x$fpl$f2d                                0x08002620   Section       86  f2d.o(x$fpl$f2d)
    x$fpl$fadd                               0x08002678   Section      196  faddsub_clz.o(x$fpl$fadd)
    _fadd1                                   0x08002687   Thumb Code     0  faddsub_clz.o(x$fpl$fadd)
    x$fpl$fcmp                               0x0800273c   Section       84  dcmp.o(x$fpl$fcmp)
    x$fpl$fcmp                               0x08002790   Section       84  fcmp.o(x$fpl$fcmp)
    x$fpl$fcmpinf                            0x080027e4   Section       24  fcmpi.o(x$fpl$fcmpinf)
    _fdiv1                                   0x080027fd   Thumb Code     0  fdiv.o(x$fpl$fdiv)
    x$fpl$fdiv                               0x080027fc   Section      388  fdiv.o(x$fpl$fdiv)
    x$fpl$feqf                               0x08002980   Section      104  feqf.o(x$fpl$feqf)
    x$fpl$ffix                               0x080029e8   Section       54  ffix.o(x$fpl$ffix)
    x$fpl$fflt                               0x08002a20   Section       48  fflt_clz.o(x$fpl$fflt)
    x$fpl$ffltu                              0x08002a50   Section       38  fflt_clz.o(x$fpl$ffltu)
    x$fpl$fgeqf                              0x08002a78   Section      104  fgeqf.o(x$fpl$fgeqf)
    x$fpl$fleqf                              0x08002ae0   Section      104  fleqf.o(x$fpl$fleqf)
    x$fpl$fmul                               0x08002b48   Section      258  fmul.o(x$fpl$fmul)
    x$fpl$fnaninf                            0x08002c4a   Section      140  fnaninf.o(x$fpl$fnaninf)
    x$fpl$fretinf                            0x08002cd6   Section       10  fretinf.o(x$fpl$fretinf)
    x$fpl$fsub                               0x08002ce0   Section      234  faddsub_clz.o(x$fpl$fsub)
    _fsub1                                   0x08002cef   Thumb Code     0  faddsub_clz.o(x$fpl$fsub)
    x$fpl$usenofp                            0x08002dca   Section        0  usenofp.o(x$fpl$usenofp)
    .L.str.1                                 0x08006e3e   Data           7  main.o(.rodata.str1.1)
    [Anonymous Symbol]                       0x08006e3e   Section        0  main.o(.rodata.str1.1)
    .L.str.3                                 0x08006e45   Data           3  main.o(.rodata.str1.1)
    .L.str.4                                 0x08006e48   Data           3  main.o(.rodata.str1.1)
    .L.str.1                                 0x08006e4b   Data          30  drv_touch.o(.rodata.str1.1)
    [Anonymous Symbol]                       0x08006e4b   Section        0  drv_touch.o(.rodata.str1.1)
    .L.str.2                                 0x08006e69   Data          30  drv_touch.o(.rodata.str1.1)
    AHBClockFreq                             0x20000000   Data           4  drv_sysclk.o(.data.AHBClockFreq)
    [Anonymous Symbol]                       0x20000000   Section        0  drv_sysclk.o(.data.AHBClockFreq)
    APB1ClockFreq                            0x20000004   Data           4  drv_sysclk.o(.data.APB1ClockFreq)
    [Anonymous Symbol]                       0x20000004   Section        0  drv_sysclk.o(.data.APB1ClockFreq)
    APB2ClockFreq                            0x20000008   Data           4  drv_sysclk.o(.data.APB2ClockFreq)
    [Anonymous Symbol]                       0x20000008   Section        0  drv_sysclk.o(.data.APB2ClockFreq)
    SystemClockFreq                          0x20000010   Data           4  drv_sysclk.o(.data.SystemClockFreq)
    [Anonymous Symbol]                       0x20000010   Section        0  drv_sysclk.o(.data.SystemClockFreq)
    .bss                                     0x20000044   Section       96  libspace.o(.bss)
    uwTick                                   0x200000a4   Data           4  drv_systick.o(.bss.uwTick)
    [Anonymous Symbol]                       0x200000a4   Section        0  drv_systick.o(.bss.uwTick)

    Global Symbols

    Symbol Name                              Value     Ov Type        Size  Object(Section)

    BuildAttributes$$THM_ISAv4$P$D$K$B$S$PE$A:L22UL41UL21$X:L11$S22US41US21$IEEE1$IW$~IW$USESV6$~STKCKD$USESV7$~SHL$OTIME$ROPI$IEEEJ$EBA8$UX$STANDARDLIB$REQ8$PRES8$EABIv2 0x00000000   Number         0  anon$$obj.o ABSOLUTE
    __fp_init_empty                          0x00000000   Number         0  fpinit_empty.o ABSOLUTE
    Image$$ZI$$Limit                          - Undefined Weak Reference
    __ARM_exceptions_init                     - Undefined Weak Reference
    __alloca_initialize                       - Undefined Weak Reference
    __arm_preinit_                            - Undefined Weak Reference
    __cpp_initialize__aeabi_                  - Undefined Weak Reference
    __cxa_finalize                            - Undefined Weak Reference
    __rt_locale                               - Undefined Weak Reference
    __sigvec_lookup                           - Undefined Weak Reference
    _atexit_init                              - Undefined Weak Reference
    _call_atexit_fns                          - Undefined Weak Reference
    _clock_init                               - Undefined Weak Reference
    _fp_trap_init                             - Undefined Weak Reference
    _fp_trap_shutdown                         - Undefined Weak Reference
    _get_lc_collate                           - Undefined Weak Reference
    _get_lc_ctype                             - Undefined Weak Reference
    _get_lc_monetary                          - Undefined Weak Reference
    _get_lc_numeric                           - Undefined Weak Reference
    _get_lc_time                              - Undefined Weak Reference
    _getenv_init                              - Undefined Weak Reference
    _handle_redirection                       - Undefined Weak Reference
    _init_alloc                               - Undefined Weak Reference
    _init_user_alloc                          - Undefined Weak Reference
    _initio                                   - Undefined Weak Reference
    _rand_init                                - Undefined Weak Reference
    _signal_finish                            - Undefined Weak Reference
    _signal_init                              - Undefined Weak Reference
    _terminate_alloc                          - Undefined Weak Reference
    _terminate_user_alloc                     - Undefined Weak Reference
    _terminateio                              - Undefined Weak Reference
    __Vectors_Size                           0x00000190   Number         0  startup_mm32f3277g.o ABSOLUTE
    __Vectors                                0x08000000   Data           4  startup_mm32f3277g.o(RESET)
    __Vectors_End                            0x08000190   Data           0  startup_mm32f3277g.o(RESET)
    __main                                   0x08000401   Thumb Code     8  __main.o(!!!main)
    __scatterload                            0x08000409   Thumb Code     0  __scatter.o(!!!scatter)
    __scatterload_rt2                        0x08000409   Thumb Code    44  __scatter.o(!!!scatter)
    __scatterload_rt2_thumb_only             0x08000409   Thumb Code     0  __scatter.o(!!!scatter)
    __scatterload_null                       0x08000417   Thumb Code     0  __scatter.o(!!!scatter)
    __scatterload_copy                       0x0800043d   Thumb Code    26  __scatter_copy.o(!!handler_copy)
    __scatterload_zeroinit                   0x08000459   Thumb Code    28  __scatter_zi.o(!!handler_zi)
    __rt_lib_init                            0x08000475   Thumb Code     0  libinit.o(.ARM.Collect$$libinit$$00000000)
    __rt_lib_init_alloca_1                   0x08000477   Thumb Code     0  libinit2.o(.ARM.Collect$$libinit$$0000002E)
    __rt_lib_init_argv_1                     0x08000477   Thumb Code     0  libinit2.o(.ARM.Collect$$libinit$$0000002C)
    __rt_lib_init_atexit_1                   0x08000477   Thumb Code     0  libinit2.o(.ARM.Collect$$libinit$$0000001B)
    __rt_lib_init_clock_1                    0x08000477   Thumb Code     0  libinit2.o(.ARM.Collect$$libinit$$00000021)
    __rt_lib_init_cpp_1                      0x08000477   Thumb Code     0  libinit2.o(.ARM.Collect$$libinit$$00000032)
    __rt_lib_init_exceptions_1               0x08000477   Thumb Code     0  libinit2.o(.ARM.Collect$$libinit$$00000030)
    __rt_lib_init_fp_1                       0x08000477   Thumb Code     0  libinit2.o(.ARM.Collect$$libinit$$00000002)
    __rt_lib_init_fp_trap_1                  0x08000477   Thumb Code     0  libinit2.o(.ARM.Collect$$libinit$$0000001F)
    __rt_lib_init_getenv_1                   0x08000477   Thumb Code     0  libinit2.o(.ARM.Collect$$libinit$$00000023)
    __rt_lib_init_heap_1                     0x08000477   Thumb Code     0  libinit2.o(.ARM.Collect$$libinit$$0000000A)
    __rt_lib_init_lc_collate_1               0x08000477   Thumb Code     0  libinit2.o(.ARM.Collect$$libinit$$00000011)
    __rt_lib_init_lc_ctype_1                 0x08000477   Thumb Code     0  libinit2.o(.ARM.Collect$$libinit$$00000013)
    __rt_lib_init_lc_monetary_1              0x08000477   Thumb Code     0  libinit2.o(.ARM.Collect$$libinit$$00000015)
    __rt_lib_init_lc_numeric_1               0x08000477   Thumb Code     0  libinit2.o(.ARM.Collect$$libinit$$00000017)
    __rt_lib_init_lc_time_1                  0x08000477   Thumb Code     0  libinit2.o(.ARM.Collect$$libinit$$00000019)
    __rt_lib_init_preinit_1                  0x08000477   Thumb Code     0  libinit2.o(.ARM.Collect$$libinit$$00000004)
    __rt_lib_init_rand_1                     0x08000477   Thumb Code     0  libinit2.o(.ARM.Collect$$libinit$$0000000E)
    __rt_lib_init_return                     0x08000477   Thumb Code     0  libinit2.o(.ARM.Collect$$libinit$$00000033)
    __rt_lib_init_signal_1                   0x08000477   Thumb Code     0  libinit2.o(.ARM.Collect$$libinit$$0000001D)
    __rt_lib_init_stdio_1                    0x08000477   Thumb Code     0  libinit2.o(.ARM.Collect$$libinit$$00000025)
    __rt_lib_init_user_alloc_1               0x08000477   Thumb Code     0  libinit2.o(.ARM.Collect$$libinit$$0000000C)
    __rt_lib_shutdown                        0x08000479   Thumb Code     0  libshutdown.o(.ARM.Collect$$libshutdown$$00000000)
    __rt_lib_shutdown_cpp_1                  0x0800047b   Thumb Code     0  libshutdown2.o(.ARM.Collect$$libshutdown$$00000002)
    __rt_lib_shutdown_fp_trap_1              0x0800047b   Thumb Code     0  libshutdown2.o(.ARM.Collect$$libshutdown$$00000007)
    __rt_lib_shutdown_heap_1                 0x0800047b   Thumb Code     0  libshutdown2.o(.ARM.Collect$$libshutdown$$0000000F)
    __rt_lib_shutdown_return                 0x0800047b   Thumb Code     0  libshutdown2.o(.ARM.Collect$$libshutdown$$00000010)
    __rt_lib_shutdown_signal_1               0x0800047b   Thumb Code     0  libshutdown2.o(.ARM.Collect$$libshutdown$$0000000A)
    __rt_lib_shutdown_stdio_1                0x0800047b   Thumb Code     0  libshutdown2.o(.ARM.Collect$$libshutdown$$00000004)
    __rt_lib_shutdown_user_alloc_1           0x0800047b   Thumb Code     0  libshutdown2.o(.ARM.Collect$$libshutdown$$0000000C)
    __rt_entry                               0x0800047d   Thumb Code     0  __rtentry.o(.ARM.Collect$$rtentry$$00000000)
    __rt_entry_presh_1                       0x0800047d   Thumb Code     0  __rtentry2.o(.ARM.Collect$$rtentry$$00000002)
    __rt_entry_sh                            0x0800047d   Thumb Code     0  __rtentry7.o(.ARM.Collect$$rtentry$$00000007)
    __rt_entry_li                            0x08000481   Thumb Code     0  __rtentry2.o(.ARM.Collect$$rtentry$$0000000A)
    __rt_entry_postsh_1                      0x08000481   Thumb Code     0  __rtentry2.o(.ARM.Collect$$rtentry$$00000009)
    __rt_entry_main                          0x08000485   Thumb Code     0  __rtentry2.o(.ARM.Collect$$rtentry$$0000000D)
    __rt_entry_postli_1                      0x08000485   Thumb Code     0  __rtentry2.o(.ARM.Collect$$rtentry$$0000000C)
    __rt_exit                                0x08000491   Thumb Code     0  rtexit.o(.ARM.Collect$$rtexit$$00000000)
    __rt_exit_ls                             0x08000493   Thumb Code     0  rtexit2.o(.ARM.Collect$$rtexit$$00000003)
    __rt_exit_prels_1                        0x08000493   Thumb Code     0  rtexit2.o(.ARM.Collect$$rtexit$$00000002)
    __rt_exit_exit                           0x08000497   Thumb Code     0  rtexit2.o(.ARM.Collect$$rtexit$$00000004)
    Reset_Handler                            0x0800049d   Thumb Code     8  startup_mm32f3277g.o(.text)
    NMI_Handler                              0x080004a5   Thumb Code     2  startup_mm32f3277g.o(.text)
    HardFault_Handler                        0x080004a7   Thumb Code     2  startup_mm32f3277g.o(.text)
    MemManage_Handler                        0x080004a9   Thumb Code     2  startup_mm32f3277g.o(.text)
    BusFault_Handler                         0x080004ab   Thumb Code     2  startup_mm32f3277g.o(.text)
    UsageFault_Handler                       0x080004ad   Thumb Code     2  startup_mm32f3277g.o(.text)
    SVC_Handler                              0x080004af   Thumb Code     2  startup_mm32f3277g.o(.text)
    DebugMon_Handler                         0x080004b1   Thumb Code     2  startup_mm32f3277g.o(.text)
    PendSV_Handler                           0x080004b3   Thumb Code     2  startup_mm32f3277g.o(.text)
    ADC1_2_IRQHandler                        0x080004b7   Thumb Code     0  startup_mm32f3277g.o(.text)
    ADC3_IRQHandler                          0x080004b7   Thumb Code     0  startup_mm32f3277g.o(.text)
    CAN1_RX_IRQHandler                       0x080004b7   Thumb Code     0  startup_mm32f3277g.o(.text)
    COMP1_2_IRQHandler                       0x080004b7   Thumb Code     0  startup_mm32f3277g.o(.text)
    DMA1_Channel1_IRQHandler                 0x080004b7   Thumb Code     0  startup_mm32f3277g.o(.text)
    DMA1_Channel2_IRQHandler                 0x080004b7   Thumb Code     0  startup_mm32f3277g.o(.text)
    DMA1_Channel3_IRQHandler                 0x080004b7   Thumb Code     0  startup_mm32f3277g.o(.text)
    DMA1_Channel4_IRQHandler                 0x080004b7   Thumb Code     0  startup_mm32f3277g.o(.text)
    DMA1_Channel5_IRQHandler                 0x080004b7   Thumb Code     0  startup_mm32f3277g.o(.text)
    DMA1_Channel6_IRQHandler                 0x080004b7   Thumb Code     0  startup_mm32f3277g.o(.text)
    DMA1_Channel7_IRQHandler                 0x080004b7   Thumb Code     0  startup_mm32f3277g.o(.text)
    DMA2_Channel1_IRQHandler                 0x080004b7   Thumb Code     0  startup_mm32f3277g.o(.text)
    DMA2_Channel2_IRQHandler                 0x080004b7   Thumb Code     0  startup_mm32f3277g.o(.text)
    DMA2_Channel3_IRQHandler                 0x080004b7   Thumb Code     0  startup_mm32f3277g.o(.text)
    DMA2_Channel4_IRQHandler                 0x080004b7   Thumb Code     0  startup_mm32f3277g.o(.text)
    DMA2_Channel5_IRQHandler                 0x080004b7   Thumb Code     0  startup_mm32f3277g.o(.text)
    ETH_IRQHandler                           0x080004b7   Thumb Code     0  startup_mm32f3277g.o(.text)
    EXTI0_IRQHandler                         0x080004b7   Thumb Code     0  startup_mm32f3277g.o(.text)
    EXTI15_10_IRQHandler                     0x080004b7   Thumb Code     0  startup_mm32f3277g.o(.text)
    EXTI1_IRQHandler                         0x080004b7   Thumb Code     0  startup_mm32f3277g.o(.text)
    EXTI2_IRQHandler                         0x080004b7   Thumb Code     0  startup_mm32f3277g.o(.text)
    EXTI3_IRQHandler                         0x080004b7   Thumb Code     0  startup_mm32f3277g.o(.text)
    EXTI4_IRQHandler                         0x080004b7   Thumb Code     0  startup_mm32f3277g.o(.text)
    EXTI9_5_IRQHandler                       0x080004b7   Thumb Code     0  startup_mm32f3277g.o(.text)
    FLASH_IRQHandler                         0x080004b7   Thumb Code     0  startup_mm32f3277g.o(.text)
    FlashCache_IRQHandler                    0x080004b7   Thumb Code     0  startup_mm32f3277g.o(.text)
    I2C1_IRQHandler                          0x080004b7   Thumb Code     0  startup_mm32f3277g.o(.text)
    I2C2_IRQHandler                          0x080004b7   Thumb Code     0  startup_mm32f3277g.o(.text)
    OTG_FS_IRQHandler                        0x080004b7   Thumb Code     0  startup_mm32f3277g.o(.text)
    OTG_FS_WKUP_IRQHandler                   0x080004b7   Thumb Code     0  startup_mm32f3277g.o(.text)
    PVD_IRQHandler                           0x080004b7   Thumb Code     0  startup_mm32f3277g.o(.text)
    RCC_CRS_IRQHandler                       0x080004b7   Thumb Code     0  startup_mm32f3277g.o(.text)
    RTCAlarm_IRQHandler                      0x080004b7   Thumb Code     0  startup_mm32f3277g.o(.text)
    RTC_IRQHandler                           0x080004b7   Thumb Code     0  startup_mm32f3277g.o(.text)
    SDIO_IRQHandler                          0x080004b7   Thumb Code     0  startup_mm32f3277g.o(.text)
    SPI1_IRQHandler                          0x080004b7   Thumb Code     0  startup_mm32f3277g.o(.text)
    SPI2_IRQHandler                          0x080004b7   Thumb Code     0  startup_mm32f3277g.o(.text)
    SPI3_IRQHandler                          0x080004b7   Thumb Code     0  startup_mm32f3277g.o(.text)
    TAMPER_IRQHandler                        0x080004b7   Thumb Code     0  startup_mm32f3277g.o(.text)
    TIM1_BRK_IRQHandler                      0x080004b7   Thumb Code     0  startup_mm32f3277g.o(.text)
    TIM1_CC_IRQHandler                       0x080004b7   Thumb Code     0  startup_mm32f3277g.o(.text)
    TIM1_TRG_COM_IRQHandler                  0x080004b7   Thumb Code     0  startup_mm32f3277g.o(.text)
    TIM1_UP_IRQHandler                       0x080004b7   Thumb Code     0  startup_mm32f3277g.o(.text)
    TIM2_IRQHandler                          0x080004b7   Thumb Code     0  startup_mm32f3277g.o(.text)
    TIM3_IRQHandler                          0x080004b7   Thumb Code     0  startup_mm32f3277g.o(.text)
    TIM4_IRQHandler                          0x080004b7   Thumb Code     0  startup_mm32f3277g.o(.text)
    TIM5_IRQHandler                          0x080004b7   Thumb Code     0  startup_mm32f3277g.o(.text)
    TIM6_IRQHandler                          0x080004b7   Thumb Code     0  startup_mm32f3277g.o(.text)
    TIM7_IRQHandler                          0x080004b7   Thumb Code     0  startup_mm32f3277g.o(.text)
    TIM8_BRK_IRQHandler                      0x080004b7   Thumb Code     0  startup_mm32f3277g.o(.text)
    TIM8_CC_IRQHandler                       0x080004b7   Thumb Code     0  startup_mm32f3277g.o(.text)
    TIM8_TRG_COM_IRQHandler                  0x080004b7   Thumb Code     0  startup_mm32f3277g.o(.text)
    TIM8_UP_IRQHandler                       0x080004b7   Thumb Code     0  startup_mm32f3277g.o(.text)
    UART1_IRQHandler                         0x080004b7   Thumb Code     0  startup_mm32f3277g.o(.text)
    UART2_IRQHandler                         0x080004b7   Thumb Code     0  startup_mm32f3277g.o(.text)
    UART3_IRQHandler                         0x080004b7   Thumb Code     0  startup_mm32f3277g.o(.text)
    UART4_IRQHandler                         0x080004b7   Thumb Code     0  startup_mm32f3277g.o(.text)
    UART5_IRQHandler                         0x080004b7   Thumb Code     0  startup_mm32f3277g.o(.text)
    UART6_IRQHandler                         0x080004b7   Thumb Code     0  startup_mm32f3277g.o(.text)
    UART7_IRQHandler                         0x080004b7   Thumb Code     0  startup_mm32f3277g.o(.text)
    UART8_IRQHandler                         0x080004b7   Thumb Code     0  startup_mm32f3277g.o(.text)
    WWDG_IRQHandler                          0x080004b7   Thumb Code     0  startup_mm32f3277g.o(.text)
    __read_errno                             0x080004c1   Thumb Code    10  _rserrno.o(.text)
    __set_errno                              0x080004cb   Thumb Code    12  _rserrno.o(.text)
    __aeabi_errno_addr                       0x080004d9   Thumb Code     8  rt_errno_addr_intlibspace.o(.text)
    __errno$intlibspace                      0x080004d9   Thumb Code     0  rt_errno_addr_intlibspace.o(.text)
    __rt_errno_addr$intlibspace              0x080004d9   Thumb Code     0  rt_errno_addr_intlibspace.o(.text)
    exit                                     0x080004e1   Thumb Code    18  exit.o(.text)
    __I$use$semihosting                      0x080004f3   Thumb Code     0  use_no_semi.o(.text)
    __use_no_semihosting_swi                 0x080004f3   Thumb Code     2  use_no_semi.o(.text)
    __semihosting_library_function           0x080004f5   Thumb Code     0  indicate_semi.o(.text)
    _sys_exit                                0x080004f5   Thumb Code     8  sys_exit.o(.text)
    ADC_ClearStatus                          0x08000501   Thumb Code    38  hal_adc.o(.text.ADC_ClearStatus)
    ADC_DoSwTrigger                          0x08000529   Thumb Code    18  hal_adc.o(.text.ADC_DoSwTrigger)
    ADC_Enable                               0x0800053d   Thumb Code    18  hal_adc.o(.text.ADC_Enable)
    ADC_EnableRegSeq                         0x08000551   Thumb Code    30  hal_adc.o(.text.ADC_EnableRegSeq)
    ADC_GetConvResult                        0x08000571   Thumb Code    22  hal_adc.o(.text.ADC_GetConvResult)
    ADC_GetStatus                            0x08000589   Thumb Code    38  hal_adc.o(.text.ADC_GetStatus)
    ADC_Init                                 0x080005b1   Thumb Code    80  hal_adc.o(.text.ADC_Init)
    ADC_SetChnSampleTime                     0x08000601   Thumb Code    50  hal_adc.o(.text.ADC_SetChnSampleTime)
    Draw_Circle                              0x08000635   Thumb Code   196  drv_lcd.o(.text.Draw_Circle)
    Drv_ADC_GetAnalogValue                   0x08000769   Thumb Code    44  drv_lcd_init.o(.text.Drv_ADC_GetAnalogValue)
    Drv_ADC_GetDigitalValue                  0x08000795   Thumb Code    60  drv_lcd_init.o(.text.Drv_ADC_GetDigitalValue)
    Drv_ADC_Init                             0x080007d1   Thumb Code    14  drv_lcd_init.o(.text.Drv_ADC_Init)
    Drv_SysTick_Config                       0x080007e1   Thumb Code    66  drv_systick.o(.text.Drv_SysTick_Config)
    GPIO_ClearBits                           0x08000825   Thumb Code     4  hal_gpio.o(.text.GPIO_ClearBits)
    GPIO_Init                                0x08000829   Thumb Code   144  hal_gpio.o(.text.GPIO_Init)
    GPIO_ReadInDataBit                       0x080008b9   Thumb Code    10  hal_gpio.o(.text.GPIO_ReadInDataBit)
    GPIO_SetBits                             0x080008c5   Thumb Code     4  hal_gpio.o(.text.GPIO_SetBits)
    GPIO_WriteBit                            0x080008c9   Thumb Code    12  hal_gpio.o(.text.GPIO_WriteBit)
    HAL_Delay                                0x080008d5   Thumb Code    46  drv_systick.o(.text.HAL_Delay)
    HAL_GetSysClockFreq                      0x08000905   Thumb Code    12  drv_sysclk.o(.text.HAL_GetSysClockFreq)
    HAL_GetTick                              0x08000911   Thumb Code    12  drv_systick.o(.text.HAL_GetTick)
    LCD_Address_Set                          0x0800091d   Thumb Code    60  drv_lcd_init.o(.text.LCD_Address_Set)
    LCD_DrawLine                             0x08000959   Thumb Code   154  drv_lcd.o(.text.LCD_DrawLine)
    LCD_DrawPoint                            0x080009f5   Thumb Code    22  drv_lcd.o(.text.LCD_DrawPoint)
    LCD_DrawRoughLine                        0x08000a0d   Thumb Code   154  drv_touch.o(.text.LCD_DrawRoughLine)
    LCD_Fill                                 0x08000aa9   Thumb Code    78  drv_lcd.o(.text.LCD_Fill)
    LCD_GPIO_Init                            0x08000af9   Thumb Code    86  drv_lcd_init.o(.text.LCD_GPIO_Init)
    LCD_Init                                 0x08000b51   Thumb Code   552  drv_lcd_init.o(.text.LCD_Init)
    LCD_ShowChar                             0x08000d79   Thumb Code   338  drv_lcd.o(.text.LCD_ShowChar)
    LCD_ShowFloatNum1                        0x08000ecd   Thumb Code   226  drv_lcd.o(.text.LCD_ShowFloatNum1)
    LCD_ShowIntNum                           0x08000fb1   Thumb Code   192  drv_lcd.o(.text.LCD_ShowIntNum)
    LCD_ShowPicture                          0x08001071   Thumb Code   106  drv_lcd.o(.text.LCD_ShowPicture)
    LCD_ShowString                           0x080010dd   Thumb Code    70  drv_lcd.o(.text.LCD_ShowString)
    LCD_WR_DATA                              0x08001125   Thumb Code    20  drv_lcd_init.o(.text.LCD_WR_DATA)
    LCD_WR_DATA8                             0x08001139   Thumb Code     4  drv_lcd_init.o(.text.LCD_WR_DATA8)
    LCD_WR_REG                               0x0800113d   Thumb Code    38  drv_lcd_init.o(.text.LCD_WR_REG)
    LCD_Writ_Bus                             0x08001165   Thumb Code    88  drv_lcd_init.o(.text.LCD_Writ_Bus)
    RCC_EnableAHB1Periphs                    0x080011e9   Thumb Code    24  hal_rcc.o(.text.RCC_EnableAHB1Periphs)
    RCC_EnableAPB2Periphs                    0x08001201   Thumb Code    24  hal_rcc.o(.text.RCC_EnableAPB2Periphs)
    SysTick_Handler                          0x08001245   Thumb Code    16  drv_systick.o(.text.SysTick_Handler)
    SystemClockConfig                        0x08001255   Thumb Code   242  drv_sysclk.o(.text.SystemClockConfig)
    SystemInit                               0x08001349   Thumb Code     2  system_mm32f3277g.o(.text.SystemInit)
    TP_Adjust                                0x0800134d   Thumb Code  1208  drv_touch.o(.text.TP_Adjust)
    TP_Draw_Big_Point                        0x08001805   Thumb Code    58  drv_touch.o(.text.TP_Draw_Big_Point)
    TP_Drow_Touch_Point                      0x08001841   Thumb Code   132  drv_touch.o(.text.TP_Drow_Touch_Point)
    TP_Init                                  0x080018c5   Thumb Code    48  drv_touch.o(.text.TP_Init)
    TP_Read_AD                               0x080018f5   Thumb Code   164  drv_touch.o(.text.TP_Read_AD)
    TP_Read_XOY                              0x08001999   Thumb Code   112  drv_touch.o(.text.TP_Read_XOY)
    TP_Read_XY                               0x08001a09   Thumb Code    50  drv_touch.o(.text.TP_Read_XY)
    TP_Read_XY2                              0x08001a3d   Thumb Code   116  drv_touch.o(.text.TP_Read_XY2)
    TP_Scan                                  0x08001ab1   Thumb Code   226  drv_touch.o(.text.TP_Scan)
    TP_Write_Byte                            0x08001b95   Thumb Code    64  drv_touch.o(.text.TP_Write_Byte)
    delay_us                                 0x08001bf5   Thumb Code    18  drv_touch.o(.text.delay_us)
    main                                     0x08001c09   Thumb Code   608  main.o(.text.main)
    mypow                                    0x08001e69   Thumb Code    24  drv_lcd.o(.text.mypow)
    sqrt                                     0x08001fa3   Thumb Code    76  sqrt.o(i.sqrt)
    __aeabi_d2f                              0x08001ff1   Thumb Code     0  d2f.o(x$fpl$d2f)
    _d2f                                     0x08001ff1   Thumb Code    98  d2f.o(x$fpl$d2f)
    __fpl_dcmp_Inf                           0x08002053   Thumb Code    24  dcmpi.o(x$fpl$dcmpinf)
    __aeabi_cdcmpeq                          0x0800206d   Thumb Code     0  deqf.o(x$fpl$deqf)
    _dcmpeq                                  0x0800206d   Thumb Code   120  deqf.o(x$fpl$deqf)
    __aeabi_d2iz                             0x080020e5   Thumb Code     0  dfix.o(x$fpl$dfix)
    _dfix                                    0x080020e5   Thumb Code    94  dfix.o(x$fpl$dfix)
    __aeabi_ui2d                             0x08002143   Thumb Code     0  dflt_clz.o(x$fpl$dfltu)
    _dfltu                                   0x08002143   Thumb Code    38  dflt_clz.o(x$fpl$dfltu)
    __aeabi_cdcmpge                          0x08002169   Thumb Code     0  dgeqf.o(x$fpl$dgeqf)
    _dcmpge                                  0x08002169   Thumb Code   120  dgeqf.o(x$fpl$dgeqf)
    __aeabi_cdcmple                          0x080021e1   Thumb Code     0  dleqf.o(x$fpl$dleqf)
    _dcmple                                  0x080021e1   Thumb Code   120  dleqf.o(x$fpl$dleqf)
    __fpl_dcmple_InfNaN                      0x08002243   Thumb Code     0  dleqf.o(x$fpl$dleqf)
    __aeabi_dmul                             0x08002259   Thumb Code     0  dmul.o(x$fpl$dmul)
    _dmul                                    0x08002259   Thumb Code   332  dmul.o(x$fpl$dmul)
    __fpl_dnaninf                            0x080023ad   Thumb Code   156  dnaninf.o(x$fpl$dnaninf)
    __fpl_dretinf                            0x08002449   Thumb Code    12  dretinf.o(x$fpl$dretinf)
    _dsqrt                                   0x08002455   Thumb Code   456  dsqrt_noumaal.o(x$fpl$dsqrt)
    __aeabi_f2d                              0x08002621   Thumb Code     0  f2d.o(x$fpl$f2d)
    _f2d                                     0x08002621   Thumb Code    86  f2d.o(x$fpl$f2d)
    __aeabi_fadd                             0x08002679   Thumb Code     0  faddsub_clz.o(x$fpl$fadd)
    _fadd                                    0x08002679   Thumb Code   196  faddsub_clz.o(x$fpl$fadd)
    __aeabi_dcmpeq                           0x0800273d   Thumb Code     0  dcmp.o(x$fpl$fcmp)
    _deq                                     0x0800273d   Thumb Code    14  dcmp.o(x$fpl$fcmp)
    _dneq                                    0x0800274b   Thumb Code    14  dcmp.o(x$fpl$fcmp)
    __aeabi_dcmpgt                           0x08002759   Thumb Code     0  dcmp.o(x$fpl$fcmp)
    _dgr                                     0x08002759   Thumb Code    14  dcmp.o(x$fpl$fcmp)
    __aeabi_dcmpge                           0x08002767   Thumb Code     0  dcmp.o(x$fpl$fcmp)
    _dgeq                                    0x08002767   Thumb Code    14  dcmp.o(x$fpl$fcmp)
    __aeabi_dcmple                           0x08002775   Thumb Code     0  dcmp.o(x$fpl$fcmp)
    _dleq                                    0x08002775   Thumb Code    14  dcmp.o(x$fpl$fcmp)
    __aeabi_dcmplt                           0x08002783   Thumb Code     0  dcmp.o(x$fpl$fcmp)
    _dls                                     0x08002783   Thumb Code    14  dcmp.o(x$fpl$fcmp)
    __aeabi_fcmpeq                           0x08002791   Thumb Code     0  fcmp.o(x$fpl$fcmp)
    _feq                                     0x08002791   Thumb Code    14  fcmp.o(x$fpl$fcmp)
    _fneq                                    0x0800279f   Thumb Code    14  fcmp.o(x$fpl$fcmp)
    __aeabi_fcmpgt                           0x080027ad   Thumb Code     0  fcmp.o(x$fpl$fcmp)
    _fgr                                     0x080027ad   Thumb Code    14  fcmp.o(x$fpl$fcmp)
    __aeabi_fcmpge                           0x080027bb   Thumb Code     0  fcmp.o(x$fpl$fcmp)
    _fgeq                                    0x080027bb   Thumb Code    14  fcmp.o(x$fpl$fcmp)
    __aeabi_fcmple                           0x080027c9   Thumb Code     0  fcmp.o(x$fpl$fcmp)
    _fleq                                    0x080027c9   Thumb Code    14  fcmp.o(x$fpl$fcmp)
    __aeabi_fcmplt                           0x080027d7   Thumb Code     0  fcmp.o(x$fpl$fcmp)
    _fls                                     0x080027d7   Thumb Code    14  fcmp.o(x$fpl$fcmp)
    __fpl_fcmp_Inf                           0x080027e5   Thumb Code    24  fcmpi.o(x$fpl$fcmpinf)
    __aeabi_fdiv                             0x080027fd   Thumb Code     0  fdiv.o(x$fpl$fdiv)
    _fdiv                                    0x080027fd   Thumb Code   384  fdiv.o(x$fpl$fdiv)
    __aeabi_cfcmpeq                          0x08002981   Thumb Code     0  feqf.o(x$fpl$feqf)
    _fcmpeq                                  0x08002981   Thumb Code   104  feqf.o(x$fpl$feqf)
    __aeabi_f2iz                             0x080029e9   Thumb Code     0  ffix.o(x$fpl$ffix)
    _ffix                                    0x080029e9   Thumb Code    54  ffix.o(x$fpl$ffix)
    __aeabi_i2f                              0x08002a21   Thumb Code     0  fflt_clz.o(x$fpl$fflt)
    _fflt                                    0x08002a21   Thumb Code    48  fflt_clz.o(x$fpl$fflt)
    __aeabi_ui2f                             0x08002a51   Thumb Code     0  fflt_clz.o(x$fpl$ffltu)
    _ffltu                                   0x08002a51   Thumb Code    38  fflt_clz.o(x$fpl$ffltu)
    _fcmpge                                  0x08002a79   Thumb Code   104  fgeqf.o(x$fpl$fgeqf)
    __aeabi_cfcmple                          0x08002ae1   Thumb Code     0  fleqf.o(x$fpl$fleqf)
    _fcmple                                  0x08002ae1   Thumb Code   104  fleqf.o(x$fpl$fleqf)
    __fpl_fcmple_InfNaN                      0x08002b33   Thumb Code     0  fleqf.o(x$fpl$fleqf)
    __aeabi_fmul                             0x08002b49   Thumb Code     0  fmul.o(x$fpl$fmul)
    _fmul                                    0x08002b49   Thumb Code   258  fmul.o(x$fpl$fmul)
    __fpl_fnaninf                            0x08002c4b   Thumb Code   140  fnaninf.o(x$fpl$fnaninf)
    __fpl_fretinf                            0x08002cd7   Thumb Code    10  fretinf.o(x$fpl$fretinf)
    __aeabi_fsub                             0x08002ce1   Thumb Code     0  faddsub_clz.o(x$fpl$fsub)
    _fsub                                    0x08002ce1   Thumb Code   234  faddsub_clz.o(x$fpl$fsub)
    __I$use$fp                               0x08002dca   Number         0  usenofp.o(x$fpl$usenofp)
    ascii_1206                               0x08002dca   Data        1140  drv_lcd.o(.rodata.ascii_1206)
    ascii_1608                               0x0800323e   Data        1520  drv_lcd.o(.rodata.ascii_1608)
    ascii_2412                               0x0800382e   Data        4560  drv_lcd.o(.rodata.ascii_2412)
    ascii_3216                               0x080049fe   Data        6080  drv_lcd.o(.rodata.ascii_3216)
    gImage_1                                 0x080061be   Data        3200  main.o(.rodata.gImage_1)
    Region$$Table$$Base                      0x08006e88   Number         0  anon$$obj.o(Region$$Table)
    Region$$Table$$Limit                     0x08006ea8   Number         0  anon$$obj.o(Region$$Table)
    CMD_RDX                                  0x2000000c   Data           1  drv_touch.o(.data.CMD_RDX)
    CMD_RDY                                  0x2000000d   Data           1  drv_touch.o(.data.CMD_RDY)
    tp_dev                                   0x20000014   Data          48  drv_touch.o(.data.tp_dev)
    __libspace_start                         0x20000044   Data          96  libspace.o(.bss)
    __temporary_stack_top$libspace           0x200000a4   Data           0  libspace.o(.bss)
    Image$$ARM_LIB_HEAP$$ZI$$Base            0x200000a8   Number         0  anon$$obj.o ABSOLUTE
    Image$$ARM_LIB_HEAP$$ZI$$Limit           0x200004a8   Number         0  anon$$obj.o ABSOLUTE
    Image$$ARM_LIB_STACK$$ZI$$Limit          0x20020000   Number         0  anon$$obj.o ABSOLUTE



==============================================================================

Memory Map of the image

  Image Entry point : 0x08000401

  Load Region LR_m_text (Base: 0x08000000, Size: 0x00006eec, Max: 0x00080000, ABSOLUTE)

    Execution Region VECTOR_ROM (Exec base: 0x08000000, Load base: 0x08000000, Size: 0x00000190, Max: 0x00000400, ABSOLUTE)

    Exec Addr    Load Addr    Size         Type   Attr      Idx    E Section Name        Object

    0x08000000   0x08000000   0x00000190   Data   RO          192    RESET               startup_mm32f3277g.o


    Execution Region ER_m_text (Exec base: 0x08000400, Load base: 0x08000400, Size: 0x00006aa8, Max: 0x0007fc00, ABSOLUTE, FIXED)

    Exec Addr    Load Addr    Size         Type   Attr      Idx    E Section Name        Object

    0x08000400   0x08000400   0x00000008   Code   RO         1021  * !!!main             c_w.l(__main.o)
    0x08000408   0x08000408   0x00000034   Code   RO         1281    !!!scatter          c_w.l(__scatter.o)
    0x0800043c   0x0800043c   0x0000001a   Code   RO         1283    !!handler_copy      c_w.l(__scatter_copy.o)
    0x08000456   0x08000456   0x00000002   PAD
    0x08000458   0x08000458   0x0000001c   Code   RO         1285    !!handler_zi        c_w.l(__scatter_zi.o)
    0x08000474   0x08000474   0x00000002   Code   RO         1140    .ARM.Collect$$libinit$$00000000  c_w.l(libinit.o)
    0x08000476   0x08000476   0x00000000   Code   RO         1148    .ARM.Collect$$libinit$$00000002  c_w.l(libinit2.o)
    0x08000476   0x08000476   0x00000000   Code   RO         1150    .ARM.Collect$$libinit$$00000004  c_w.l(libinit2.o)
    0x08000476   0x08000476   0x00000000   Code   RO         1153    .ARM.Collect$$libinit$$0000000A  c_w.l(libinit2.o)
    0x08000476   0x08000476   0x00000000   Code   RO         1155    .ARM.Collect$$libinit$$0000000C  c_w.l(libinit2.o)
    0x08000476   0x08000476   0x00000000   Code   RO         1157    .ARM.Collect$$libinit$$0000000E  c_w.l(libinit2.o)
    0x08000476   0x08000476   0x00000000   Code   RO         1160    .ARM.Collect$$libinit$$00000011  c_w.l(libinit2.o)
    0x08000476   0x08000476   0x00000000   Code   RO         1162    .ARM.Collect$$libinit$$00000013  c_w.l(libinit2.o)
    0x08000476   0x08000476   0x00000000   Code   RO         1164    .ARM.Collect$$libinit$$00000015  c_w.l(libinit2.o)
    0x08000476   0x08000476   0x00000000   Code   RO         1166    .ARM.Collect$$libinit$$00000017  c_w.l(libinit2.o)
    0x08000476   0x08000476   0x00000000   Code   RO         1168    .ARM.Collect$$libinit$$00000019  c_w.l(libinit2.o)
    0x08000476   0x08000476   0x00000000   Code   RO         1170    .ARM.Collect$$libinit$$0000001B  c_w.l(libinit2.o)
    0x08000476   0x08000476   0x00000000   Code   RO         1172    .ARM.Collect$$libinit$$0000001D  c_w.l(libinit2.o)
    0x08000476   0x08000476   0x00000000   Code   RO         1174    .ARM.Collect$$libinit$$0000001F  c_w.l(libinit2.o)
    0x08000476   0x08000476   0x00000000   Code   RO         1176    .ARM.Collect$$libinit$$00000021  c_w.l(libinit2.o)
    0x08000476   0x08000476   0x00000000   Code   RO         1178    .ARM.Collect$$libinit$$00000023  c_w.l(libinit2.o)
    0x08000476   0x08000476   0x00000000   Code   RO         1180    .ARM.Collect$$libinit$$00000025  c_w.l(libinit2.o)
    0x08000476   0x08000476   0x00000000   Code   RO         1184    .ARM.Collect$$libinit$$0000002C  c_w.l(libinit2.o)
    0x08000476   0x08000476   0x00000000   Code   RO         1186    .ARM.Collect$$libinit$$0000002E  c_w.l(libinit2.o)
    0x08000476   0x08000476   0x00000000   Code   RO         1188    .ARM.Collect$$libinit$$00000030  c_w.l(libinit2.o)
    0x08000476   0x08000476   0x00000000   Code   RO         1190    .ARM.Collect$$libinit$$00000032  c_w.l(libinit2.o)
    0x08000476   0x08000476   0x00000002   Code   RO         1191    .ARM.Collect$$libinit$$00000033  c_w.l(libinit2.o)
    0x08000478   0x08000478   0x00000002   Code   RO         1220    .ARM.Collect$$libshutdown$$00000000  c_w.l(libshutdown.o)
    0x0800047a   0x0800047a   0x00000000   Code   RO         1232    .ARM.Collect$$libshutdown$$00000002  c_w.l(libshutdown2.o)
    0x0800047a   0x0800047a   0x00000000   Code   RO         1234    .ARM.Collect$$libshutdown$$00000004  c_w.l(libshutdown2.o)
    0x0800047a   0x0800047a   0x00000000   Code   RO         1237    .ARM.Collect$$libshutdown$$00000007  c_w.l(libshutdown2.o)
    0x0800047a   0x0800047a   0x00000000   Code   RO         1240    .ARM.Collect$$libshutdown$$0000000A  c_w.l(libshutdown2.o)
    0x0800047a   0x0800047a   0x00000000   Code   RO         1242    .ARM.Collect$$libshutdown$$0000000C  c_w.l(libshutdown2.o)
    0x0800047a   0x0800047a   0x00000000   Code   RO         1245    .ARM.Collect$$libshutdown$$0000000F  c_w.l(libshutdown2.o)
    0x0800047a   0x0800047a   0x00000002   Code   RO         1246    .ARM.Collect$$libshutdown$$00000010  c_w.l(libshutdown2.o)
    0x0800047c   0x0800047c   0x00000000   Code   RO         1073    .ARM.Collect$$rtentry$$00000000  c_w.l(__rtentry.o)
    0x0800047c   0x0800047c   0x00000000   Code   RO         1100    .ARM.Collect$$rtentry$$00000002  c_w.l(__rtentry2.o)
    0x0800047c   0x0800047c   0x00000004   Code   RO         1114    .ARM.Collect$$rtentry$$00000007  c_w.l(__rtentry7.o)
    0x08000480   0x08000480   0x00000000   Code   RO         1102    .ARM.Collect$$rtentry$$00000009  c_w.l(__rtentry2.o)
    0x08000480   0x08000480   0x00000004   Code   RO         1103    .ARM.Collect$$rtentry$$0000000A  c_w.l(__rtentry2.o)
    0x08000484   0x08000484   0x00000000   Code   RO         1105    .ARM.Collect$$rtentry$$0000000C  c_w.l(__rtentry2.o)
    0x08000484   0x08000484   0x00000008   Code   RO         1106    .ARM.Collect$$rtentry$$0000000D  c_w.l(__rtentry2.o)
    0x0800048c   0x0800048c   0x00000004   Code   RO         1115    .ARM.Collect$$rtentry$$00002718  c_w.l(__rtentry7.o)
    0x08000490   0x08000490   0x00000002   Code   RO         1145    .ARM.Collect$$rtexit$$00000000  c_w.l(rtexit.o)
    0x08000492   0x08000492   0x00000000   Code   RO         1200    .ARM.Collect$$rtexit$$00000002  c_w.l(rtexit2.o)
    0x08000492   0x08000492   0x00000004   Code   RO         1201    .ARM.Collect$$rtexit$$00000003  c_w.l(rtexit2.o)
    0x08000496   0x08000496   0x00000006   Code   RO         1202    .ARM.Collect$$rtexit$$00000004  c_w.l(rtexit2.o)
    0x0800049c   0x0800049c   0x00000024   Code   RO          193    .text               startup_mm32f3277g.o
    0x080004c0   0x080004c0   0x00000016   Code   RO         1074    .text               c_w.l(_rserrno.o)
    0x080004d6   0x080004d6   0x00000002   PAD
    0x080004d8   0x080004d8   0x00000008   Code   RO         1122    .text               c_w.l(rt_errno_addr_intlibspace.o)
    0x080004e0   0x080004e0   0x00000012   Code   RO         1133    .text               c_w.l(exit.o)
    0x080004f2   0x080004f2   0x00000002   Code   RO         1196    .text               c_w.l(use_no_semi.o)
    0x080004f4   0x080004f4   0x00000000   Code   RO         1198    .text               c_w.l(indicate_semi.o)
    0x080004f4   0x080004f4   0x0000000c   Code   RO         1210    .text               c_w.l(sys_exit.o)
    0x08000500   0x08000500   0x00000026   Code   RO          223    .text.ADC_ClearStatus  hal_adc.o
    0x08000526   0x08000526   0x00000002   PAD
    0x08000528   0x08000528   0x00000012   Code   RO          237    .text.ADC_DoSwTrigger  hal_adc.o
    0x0800053a   0x0800053a   0x00000002   PAD
    0x0800053c   0x0800053c   0x00000012   Code   RO          211    .text.ADC_Enable    hal_adc.o
    0x0800054e   0x0800054e   0x00000002   PAD
    0x08000550   0x08000550   0x0000001e   Code   RO          233    .text.ADC_EnableRegSeq  hal_adc.o
    0x0800056e   0x0800056e   0x00000002   PAD
    0x08000570   0x08000570   0x00000016   Code   RO          225    .text.ADC_GetConvResult  hal_adc.o
    0x08000586   0x08000586   0x00000002   PAD
    0x08000588   0x08000588   0x00000026   Code   RO          221    .text.ADC_GetStatus  hal_adc.o
    0x080005ae   0x080005ae   0x00000002   PAD
    0x080005b0   0x080005b0   0x00000050   Code   RO          209    .text.ADC_Init      hal_adc.o
    0x08000600   0x08000600   0x00000032   Code   RO          229    .text.ADC_SetChnSampleTime  hal_adc.o
    0x08000632   0x08000632   0x00000002   PAD
    0x08000634   0x08000634   0x000000c4   Code   RO           82    .text.Draw_Circle   drv_lcd.o
    0x080006f8   0x080006f8   0x0000004c   Code   RO          129    .text.Drv_ADC_Config  drv_lcd_init.o
    0x08000744   0x08000744   0x00000024   Code   RO          127    .text.Drv_ADC_GPIO_Config  drv_lcd_init.o
    0x08000768   0x08000768   0x0000002c   Code   RO          133    .text.Drv_ADC_GetAnalogValue  drv_lcd_init.o
    0x08000794   0x08000794   0x0000003c   Code   RO          131    .text.Drv_ADC_GetDigitalValue  drv_lcd_init.o
    0x080007d0   0x080007d0   0x0000000e   Code   RO          125    .text.Drv_ADC_Init  drv_lcd_init.o
    0x080007de   0x080007de   0x00000002   PAD
    0x080007e0   0x080007e0   0x00000042   Code   RO           48    .text.Drv_SysTick_Config  drv_systick.o
    0x08000822   0x08000822   0x00000002   PAD
    0x08000824   0x08000824   0x00000004   Code   RO          408    .text.GPIO_ClearBits  hal_gpio.o
    0x08000828   0x08000828   0x00000090   Code   RO          396    .text.GPIO_Init     hal_gpio.o
    0x080008b8   0x080008b8   0x0000000a   Code   RO          398    .text.GPIO_ReadInDataBit  hal_gpio.o
    0x080008c2   0x080008c2   0x00000002   PAD
    0x080008c4   0x080008c4   0x00000004   Code   RO          406    .text.GPIO_SetBits  hal_gpio.o
    0x080008c8   0x080008c8   0x0000000c   Code   RO          410    .text.GPIO_WriteBit  hal_gpio.o
    0x080008d4   0x080008d4   0x0000002e   Code   RO           62    .text.HAL_Delay     drv_systick.o
    0x08000902   0x08000902   0x00000002   PAD
    0x08000904   0x08000904   0x0000000c   Code   RO           27    .text.HAL_GetSysClockFreq  drv_sysclk.o
    0x08000910   0x08000910   0x0000000c   Code   RO           60    .text.HAL_GetTick   drv_systick.o
    0x0800091c   0x0800091c   0x0000003c   Code   RO          143    .text.LCD_Address_Set  drv_lcd_init.o
    0x08000958   0x08000958   0x0000009a   Code   RO           78    .text.LCD_DrawLine  drv_lcd.o
    0x080009f2   0x080009f2   0x00000002   PAD
    0x080009f4   0x080009f4   0x00000016   Code   RO           76    .text.LCD_DrawPoint  drv_lcd.o
    0x08000a0a   0x08000a0a   0x00000002   PAD
    0x08000a0c   0x08000a0c   0x0000009a   Code   RO          178    .text.LCD_DrawRoughLine  drv_touch.o
    0x08000aa6   0x08000aa6   0x00000002   PAD
    0x08000aa8   0x08000aa8   0x0000004e   Code   RO           74    .text.LCD_Fill      drv_lcd.o
    0x08000af6   0x08000af6   0x00000002   PAD
    0x08000af8   0x08000af8   0x00000056   Code   RO          123    .text.LCD_GPIO_Init  drv_lcd_init.o
    0x08000b4e   0x08000b4e   0x00000002   PAD
    0x08000b50   0x08000b50   0x00000228   Code   RO          145    .text.LCD_Init      drv_lcd_init.o
    0x08000d78   0x08000d78   0x00000152   Code   RO           94    .text.LCD_ShowChar  drv_lcd.o
    0x08000eca   0x08000eca   0x00000002   PAD
    0x08000ecc   0x08000ecc   0x000000e2   Code   RO          102    .text.LCD_ShowFloatNum1  drv_lcd.o
    0x08000fae   0x08000fae   0x00000002   PAD
    0x08000fb0   0x08000fb0   0x000000c0   Code   RO          100    .text.LCD_ShowIntNum  drv_lcd.o
    0x08001070   0x08001070   0x0000006a   Code   RO          104    .text.LCD_ShowPicture  drv_lcd.o
    0x080010da   0x080010da   0x00000002   PAD
    0x080010dc   0x080010dc   0x00000046   Code   RO           96    .text.LCD_ShowString  drv_lcd.o
    0x08001122   0x08001122   0x00000002   PAD
    0x08001124   0x08001124   0x00000014   Code   RO          139    .text.LCD_WR_DATA   drv_lcd_init.o
    0x08001138   0x08001138   0x00000004   Code   RO          137    .text.LCD_WR_DATA8  drv_lcd_init.o
    0x0800113c   0x0800113c   0x00000026   Code   RO          141    .text.LCD_WR_REG    drv_lcd_init.o
    0x08001162   0x08001162   0x00000002   PAD
    0x08001164   0x08001164   0x00000058   Code   RO          135    .text.LCD_Writ_Bus  drv_lcd_init.o
    0x080011bc   0x080011bc   0x0000002a   Code   RO           56    .text.NVIC_EncodePriority  drv_systick.o
    0x080011e6   0x080011e6   0x00000002   PAD
    0x080011e8   0x080011e8   0x00000018   Code   RO          497    .text.RCC_EnableAHB1Periphs  hal_rcc.o
    0x08001200   0x08001200   0x00000018   Code   RO          505    .text.RCC_EnableAPB2Periphs  hal_rcc.o
    0x08001218   0x08001218   0x0000002c   Code   RO           50    .text.SysTick_Config  drv_systick.o
    0x08001244   0x08001244   0x00000010   Code   RO           58    .text.SysTick_Handler  drv_systick.o
    0x08001254   0x08001254   0x000000f2   Code   RO           17    .text.SystemClockConfig  drv_sysclk.o
    0x08001346   0x08001346   0x00000002   PAD
    0x08001348   0x08001348   0x00000002   Code   RO          200    .text.SystemInit    system_mm32f3277g.o
    0x0800134a   0x0800134a   0x00000002   PAD
    0x0800134c   0x0800134c   0x000004b8   Code   RO          160    .text.TP_Adjust     drv_touch.o
    0x08001804   0x08001804   0x0000003a   Code   RO          176    .text.TP_Draw_Big_Point  drv_touch.o
    0x0800183e   0x0800183e   0x00000002   PAD
    0x08001840   0x08001840   0x00000084   Code   RO          174    .text.TP_Drow_Touch_Point  drv_touch.o
    0x080018c4   0x080018c4   0x00000030   Code   RO          156    .text.TP_Init       drv_touch.o
    0x080018f4   0x080018f4   0x000000a4   Code   RO          166    .text.TP_Read_AD    drv_touch.o
    0x08001998   0x08001998   0x00000070   Code   RO          168    .text.TP_Read_XOY   drv_touch.o
    0x08001a08   0x08001a08   0x00000032   Code   RO          170    .text.TP_Read_XY    drv_touch.o
    0x08001a3a   0x08001a3a   0x00000002   PAD
    0x08001a3c   0x08001a3c   0x00000074   Code   RO          172    .text.TP_Read_XY2   drv_touch.o
    0x08001ab0   0x08001ab0   0x000000e2   Code   RO          158    .text.TP_Scan       drv_touch.o
    0x08001b92   0x08001b92   0x00000002   PAD
    0x08001b94   0x08001b94   0x00000040   Code   RO          164    .text.TP_Write_Byte  drv_touch.o
    0x08001bd4   0x08001bd4   0x00000010   Code   RO           52    .text.__NVIC_GetPriorityGrouping  drv_systick.o
    0x08001be4   0x08001be4   0x0000000e   Code   RO           54    .text.__NVIC_SetPriority  drv_systick.o
    0x08001bf2   0x08001bf2   0x00000002   PAD
    0x08001bf4   0x08001bf4   0x00000012   Code   RO          162    .text.delay_us      drv_touch.o
    0x08001c06   0x08001c06   0x00000002   PAD
    0x08001c08   0x08001c08   0x00000260   Code   RO            4    .text.main          main.o
    0x08001e68   0x08001e68   0x00000018   Code   RO           98    .text.mypow         drv_lcd.o
    0x08001e80   0x08001e80   0x0000003a   Code   RO           21    .text.update_ahb_clock  drv_sysclk.o
    0x08001eba   0x08001eba   0x00000002   PAD
    0x08001ebc   0x08001ebc   0x0000003a   Code   RO           23    .text.update_apb1_clock  drv_sysclk.o
    0x08001ef6   0x08001ef6   0x00000002   PAD
    0x08001ef8   0x08001ef8   0x0000003a   Code   RO           25    .text.update_apb2_clock  drv_sysclk.o
    0x08001f32   0x08001f32   0x00000002   PAD
    0x08001f34   0x08001f34   0x0000006e   Code   RO           19    .text.update_systemclock  drv_sysclk.o
    0x08001fa2   0x08001fa2   0x0000004c   Code   RO         1066    i.sqrt              m_ws.l(sqrt.o)
    0x08001fee   0x08001fee   0x00000002   PAD
    0x08001ff0   0x08001ff0   0x00000062   Code   RO         1023    x$fpl$d2f           fz_ws.l(d2f.o)
    0x08002052   0x08002052   0x00000018   Code   RO         1124    x$fpl$dcmpinf       fz_ws.l(dcmpi.o)
    0x0800206a   0x0800206a   0x00000002   PAD
    0x0800206c   0x0800206c   0x00000078   Code   RO         1076    x$fpl$deqf          fz_ws.l(deqf.o)
    0x080020e4   0x080020e4   0x0000005e   Code   RO         1027    x$fpl$dfix          fz_ws.l(dfix.o)
    0x08002142   0x08002142   0x00000026   Code   RO         1031    x$fpl$dfltu         fz_ws.l(dflt_clz.o)
    0x08002168   0x08002168   0x00000078   Code   RO         1078    x$fpl$dgeqf         fz_ws.l(dgeqf.o)
    0x080021e0   0x080021e0   0x00000078   Code   RO         1080    x$fpl$dleqf         fz_ws.l(dleqf.o)
    0x08002258   0x08002258   0x00000154   Code   RO         1037    x$fpl$dmul          fz_ws.l(dmul.o)
    0x080023ac   0x080023ac   0x0000009c   Code   RO         1082    x$fpl$dnaninf       fz_ws.l(dnaninf.o)
    0x08002448   0x08002448   0x0000000c   Code   RO         1084    x$fpl$dretinf       fz_ws.l(dretinf.o)
    0x08002454   0x08002454   0x000001cc   Code   RO         1086    x$fpl$dsqrt         fz_ws.l(dsqrt_noumaal.o)
    0x08002620   0x08002620   0x00000056   Code   RO         1039    x$fpl$f2d           fz_ws.l(f2d.o)
    0x08002676   0x08002676   0x00000002   PAD
    0x08002678   0x08002678   0x000000c4   Code   RO         1041    x$fpl$fadd          fz_ws.l(faddsub_clz.o)
    0x0800273c   0x0800273c   0x00000054   Code   RO         1025    x$fpl$fcmp          fz_ws.l(dcmp.o)
    0x08002790   0x08002790   0x00000054   Code   RO         1047    x$fpl$fcmp          fz_ws.l(fcmp.o)
    0x080027e4   0x080027e4   0x00000018   Code   RO         1126    x$fpl$fcmpinf       fz_ws.l(fcmpi.o)
    0x080027fc   0x080027fc   0x00000184   Code   RO         1050    x$fpl$fdiv          fz_ws.l(fdiv.o)
    0x08002980   0x08002980   0x00000068   Code   RO         1088    x$fpl$feqf          fz_ws.l(feqf.o)
    0x080029e8   0x080029e8   0x00000036   Code   RO         1053    x$fpl$ffix          fz_ws.l(ffix.o)
    0x08002a1e   0x08002a1e   0x00000002   PAD
    0x08002a20   0x08002a20   0x00000030   Code   RO         1058    x$fpl$fflt          fz_ws.l(fflt_clz.o)
    0x08002a50   0x08002a50   0x00000026   Code   RO         1057    x$fpl$ffltu         fz_ws.l(fflt_clz.o)
    0x08002a76   0x08002a76   0x00000002   PAD
    0x08002a78   0x08002a78   0x00000068   Code   RO         1090    x$fpl$fgeqf         fz_ws.l(fgeqf.o)
    0x08002ae0   0x08002ae0   0x00000068   Code   RO         1092    x$fpl$fleqf         fz_ws.l(fleqf.o)
    0x08002b48   0x08002b48   0x00000102   Code   RO         1063    x$fpl$fmul          fz_ws.l(fmul.o)
    0x08002c4a   0x08002c4a   0x0000008c   Code   RO         1094    x$fpl$fnaninf       fz_ws.l(fnaninf.o)
    0x08002cd6   0x08002cd6   0x0000000a   Code   RO         1096    x$fpl$fretinf       fz_ws.l(fretinf.o)
    0x08002ce0   0x08002ce0   0x000000ea   Code   RO         1043    x$fpl$fsub          fz_ws.l(faddsub_clz.o)
    0x08002dca   0x08002dca   0x00000000   Code   RO         1098    x$fpl$usenofp       fz_ws.l(usenofp.o)
    0x08002dca   0x08002dca   0x00000474   Data   RO          106    .rodata.ascii_1206  drv_lcd.o
    0x0800323e   0x0800323e   0x000005f0   Data   RO          107    .rodata.ascii_1608  drv_lcd.o
    0x0800382e   0x0800382e   0x000011d0   Data   RO          108    .rodata.ascii_2412  drv_lcd.o
    0x080049fe   0x080049fe   0x000017c0   Data   RO          109    .rodata.ascii_3216  drv_lcd.o
    0x080061be   0x080061be   0x00000c80   Data   RO            6    .rodata.gImage_1    main.o
    0x08006e3e   0x08006e3e   0x0000000d   Data   RO            7    .rodata.str1.1      main.o
    0x08006e4b   0x08006e4b   0x0000003c   Data   RO          183    .rodata.str1.1      drv_touch.o
    0x08006e87   0x08006e87   0x00000001   PAD
    0x08006e88   0x08006e88   0x00000020   Data   RO         1280    Region$$Table       anon$$obj.o


    Execution Region RW_m_data (Exec base: 0x20000000, Load base: 0x08006ea8, Size: 0x000000a8, Max: 0x0001f800, ABSOLUTE)

    Exec Addr    Load Addr    Size         Type   Attr      Idx    E Section Name        Object

    0x20000000   0x08006ea8   0x00000004   Data   RW           36    .data.AHBClockFreq  drv_sysclk.o
    0x20000004   0x08006eac   0x00000004   Data   RW           37    .data.APB1ClockFreq  drv_sysclk.o
    0x20000008   0x08006eb0   0x00000004   Data   RW           38    .data.APB2ClockFreq  drv_sysclk.o
    0x2000000c   0x08006eb4   0x00000001   Data   RW          181    .data.CMD_RDX       drv_touch.o
    0x2000000d   0x08006eb5   0x00000001   Data   RW          182    .data.CMD_RDY       drv_touch.o
    0x2000000e   0x08006eb6   0x00000002   PAD
    0x20000010   0x08006eb8   0x00000004   Data   RW           35    .data.SystemClockFreq  drv_sysclk.o
    0x20000014   0x08006ebc   0x00000030   Data   RW          180    .data.tp_dev        drv_touch.o
    0x20000044        -       0x00000060   Zero   RW         1129    .bss                c_w.l(libspace.o)
    0x200000a4        -       0x00000004   Zero   RW           64    .bss.uwTick         drv_systick.o


    Execution Region ARM_LIB_HEAP (Exec base: 0x200000a8, Load base: 0x08006eec, Size: 0x00000400, Max: 0x00000400, ABSOLUTE)

    Exec Addr    Load Addr    Size         Type   Attr      Idx    E Section Name        Object

    0x200000a8        -       0x00000400   Zero   RW            1    ARM_LIB_HEAP.bss    anon$$obj.o


    Execution Region ARM_LIB_STACK (Exec base: 0x2001fc00, Load base: 0x08006eec, Size: 0x00000400, Max: 0x00000400, ABSOLUTE)

    Exec Addr    Load Addr    Size         Type   Attr      Idx    E Section Name        Object

    0x2001fc00        -       0x00000400   Zero   RW            2    ARM_LIB_STACK.bss   anon$$obj.o


==============================================================================

Image component sizes


      Code (inc. data)   RO Data    RW Data    ZI Data      Debug   Object Name

      1406          6      13300          0          0      11791   drv_lcd.o
      1078          0          0          0          0       5688   drv_lcd_init.o
       538          4          0         16          0       3419   drv_sysclk.o
       256          0          0          0          4       4756   drv_systick.o
      2350        124         60         50          0       6379   drv_touch.o
       294          0          0          0          0       7729   hal_adc.o
       174          0          0          0          0       3893   hal_gpio.o
        48          0          0          0          0       3035   hal_rcc.o
       608         28       3213          0          0       1076   main.o
        36          8        400          0          0        804   startup_mm32f3277g.o
         2          0          0          0          0        361   system_mm32f3277g.o

    ----------------------------------------------------------------------
      6854        170      17006         68       2052      48931   Object Totals
         0          0         32          0       2048          0   (incl. Generated)
        64          0          1          2          0          0   (incl. Padding)

    ----------------------------------------------------------------------

      Code (inc. data)   RO Data    RW Data    ZI Data      Debug   Library Member Name

         8          0          0          0          0         68   __main.o
         0          0          0          0          0          0   __rtentry.o
        12          0          0          0          0          0   __rtentry2.o
         8          4          0          0          0          0   __rtentry7.o
        52          8          0          0          0          0   __scatter.o
        26          0          0          0          0          0   __scatter_copy.o
        28          0          0          0          0          0   __scatter_zi.o
        22          0          0          0          0        100   _rserrno.o
        18          0          0          0          0         80   exit.o
         0          0          0          0          0          0   indicate_semi.o
         2          0          0          0          0          0   libinit.o
         2          0          0          0          0          0   libinit2.o
         2          0          0          0          0          0   libshutdown.o
         2          0          0          0          0          0   libshutdown2.o
         0          0          0          0         96          0   libspace.o
         8          4          0          0          0         68   rt_errno_addr_intlibspace.o
         2          0          0          0          0          0   rtexit.o
        10          0          0          0          0          0   rtexit2.o
        12          4          0          0          0         68   sys_exit.o
         2          0          0          0          0         68   use_no_semi.o
        98          4          0          0          0         92   d2f.o
        84          0          0          0          0        196   dcmp.o
        24          0          0          0          0         68   dcmpi.o
       120          4          0          0          0         92   deqf.o
        94          4          0          0          0         92   dfix.o
        38          0          0          0          0         68   dflt_clz.o
       120          4          0          0          0         92   dgeqf.o
       120          4          0          0          0         92   dleqf.o
       340         12          0          0          0        104   dmul.o
       156          4          0          0          0         92   dnaninf.o
        12          0          0          0          0         68   dretinf.o
       460         56          0          0          0        120   dsqrt_noumaal.o
        86          4          0          0          0         84   f2d.o
       430          8          0          0          0        168   faddsub_clz.o
        84          0          0          0          0        196   fcmp.o
        24          0          0          0          0         68   fcmpi.o
       388         76          0          0          0         96   fdiv.o
       104          4          0          0          0         84   feqf.o
        54          4          0          0          0         84   ffix.o
        86          0          0          0          0        136   fflt_clz.o
       104          4          0          0          0         84   fgeqf.o
       104          4          0          0          0         84   fleqf.o
       258          4          0          0          0         84   fmul.o
       140          4          0          0          0         84   fnaninf.o
        10          0          0          0          0         68   fretinf.o
         0          0          0          0          0          0   usenofp.o
        76          0          0          0          0         84   sqrt.o

    ----------------------------------------------------------------------
      3844        224          0          0         96       3032   Library Totals
        14          0          0          0          0          0   (incl. Padding)

    ----------------------------------------------------------------------

      Code (inc. data)   RO Data    RW Data    ZI Data      Debug   Library Name

       216         20          0          0         96        452   c_w.l
      3538        204          0          0          0       2496   fz_ws.l
        76          0          0          0          0         84   m_ws.l

    ----------------------------------------------------------------------
      3844        224          0          0         96       3032   Library Totals

    ----------------------------------------------------------------------

==============================================================================


      Code (inc. data)   RO Data    RW Data    ZI Data      Debug   

     10698        394      17006         68       2148      50307   Grand Totals
     10698        394      17006         68       2148      50307   ELF Image Totals
     10698        394      17006         68          0          0   ROM Totals

==============================================================================

    Total RO  Size (Code + RO Data)                27704 (  27.05kB)
    Total RW  Size (RW Data + ZI Data)              2216 (   2.16kB)
    Total ROM Size (Code + RO Data + RW Data)      27772 (  27.12kB)

==============================================================================

