:020000040800F2
:10000000E006002029020008B30F0008FB0E0008DC
:10001000B10F00081F04000875110008000000005F
:10002000000000000000000000000000C9100008EF
:100030002104000800000000B50F0008CB100008E4
:10004000430200084302000843020008430200087C
:10005000430200084302000843020008430200086C
:10006000430200084302000843020008430200085C
:10007000430200084302000843020008430200084C
:10008000430200084302000843020008430200083C
:10009000430200084302000843020008430200082C
:1000A000430200084302000843020008430200081C
:1000B000430200084302000843020008430200080C
:1000C00043020008430200084302000843020008FC
:1000D00043020008430200084302000843020008EC
:1000E00043020008430200084302000843020008DC
:1000F00043020008430200084302000843020008CC
:1001000043020008430200084302000843020008BB
:1001100043020008430200084302000843020008AB
:10012000430200084302000843020008430200089B
:10013000430200084302000843020008430200088B
:10014000430200084302000843020008430200087B
:10015000430200084302000843020008430200086B
:10016000430200084302000843020008430200085B
:100170004302000843020008430200080000000098
:10018000430200084302000800F002F800F03CF8C7
:100190000AA090E8000C82448344AAF10107DA45E2
:1001A00001D100F031F8AFF2090EBAE80F0013F0F8
:1001B000010F18BFFB1A43F001031847401000005D
:1001C00060100000103A24BF78C878C1FAD85207EE
:1001D00024BF30C830C144BF04680C6070470000C1
:1001E0000023002400250026103A28BF78C1FBD840
:1001F000520728BF30C148BF0B6070471FB500F0E1
:10020000EFFF1FBD10B510BD00F0CFF81146FFF78E
:10021000F5FF00F0C5FF00F0EDF803B4FFF7F2FFC3
:1002200003BC00F0F5F80000094880470948004782
:10023000FEE7FEE7FEE7FEE7FEE7FEE7FEE7FEE796
:10024000FEE7FEE704480549054A064B70470000F3
:100250006511000889010008E0000020E006002088
:10026000E0020020E002002053EA020C00F0698066
:100270002DE9F04B4FF00006002B1FBFB3FA83F5BA
:1002800003FA05F424FA05F65E4012BF1643B2FAEB
:1002900082F502FA05F4C5F120051EBF22FA05FC1D
:1002A00044EA0C04203556EA044C4FEA144418BFC3
:1002B000641C4FF000084FF00009904271EB030CF2
:1002C00039D3002919BFB1FA81F701FA07F6B0FA5C
:1002D00080F700FA07F6C7F120071EBF20FA07FCD7
:1002E00046EA0C062037B6FBF4FCA7EB0507103FE7
:1002F00007F01F0BCBF120060CFA0BFB2CFA06F6CD
:1003000044BFB3460026202FA4BF5E464FF0000B2B
:100310005BEA060C08BF4FF0010B19EB0B09ABFBB6
:10032000027C48EB0608C01B06FB02CC0BFB03CC8F
:1003300071EB0C01C1E70B46024641464846BDE859
:10034000F08B13B54FF000004FF00001AFF30080C9
:10035000BDE81C4070474FF0000200B513469446BC
:100360009646203922BFA0E80C50A0E80C50B1F10D
:100370002001BFF4F7AF090728BFA0E80C5048BF21
:100380000CC05DF804EB890028BF40F8042B08BFBF
:10039000704748BF20F8022B11F0804F18BF00F8BB
:1003A000012B7047704770477047754600F02CF876
:1003B000AE4605006946534620F00700854618B052
:1003C00020B5FFF73FFFBDE820404FF000064FF09B
:1003D00000074FF000084FF0000B21F00701AC467A
:1003E000ACE8C009ACE8C009ACE8C009ACE8C00999
:1003F0008D46704710B50446AFF300802046BDE837
:100400001040FFF70ABF0000004870477C00002042
:1004100001491820ABBEFEE7260002007047FEE748
:10042000704700002DE9F84FDFF8BCA1002201253C
:1004300003264FF00F090AF1040BAAF1040E00BFC6
:100440000B6805FA02F42340A34270D10F7907F03C
:100450000307012F01D0022F16D187684FEA420807
:1004600006FA08FC27EA0C07D1F80CC00CFA08FCC5
:100470004CEA070CC0F808C04768A7430C79C4F3DE
:10048000001494403C4344600C79E443A4070AD030
:10049000C4684FEA420C06FA0CF7BC438F6807FAAF
:1004A0000CF72743C7600C7904F00304022C12D127
:1004B000D40800EB840CDCF820405707FF0E09FA43
:1004C00007F824EA0804D1F8108008FA07F848EA87
:1004D0000408CCF8208004684FEA420C06FA0CF7B6
:1004E000BC430F7907F0030707FA0CF727430760AF
:1004F0004C6814F4403F70D03C4C276847F4804768
:100500002760246822F0030704F480440094384CE8
:1005100007EB040CDCF8084897074FEA177809FA4C
:1005200008F7BC43334FB84202D1002724E054E01F
:10053000314FB84201D101271EE0304FB84201D1FE
:10054000022719E02E4FB84201D1032714E02D4FA6
:10055000B84201D104270FE02B4FB84201D1052743
:100560000AE02A4FB84201D1062705E0284FB842D9
:1005700001D1072700E0082707FA08F72743CCF83E
:100580000878DAF800405746D1F804C09C435FEA87
:10059000CC2C00D51C433C60DBF800405F46D1F812
:1005A00004C09C435FEA8C2C00D51C433C60DEF801
:1005B00000407746D1F804C09C435FEA8C3C00D5EC
:1005C0001C433C60084F083F3C68D1F804C09C4382
:1005D0005FEACC3C00D51C433C60521C102AFFF45F
:1005E0002FAFBDE8F88F0000083C014044380240BE
:1005F00000300140000002400004024000080240B8
:10060000000C02400010024000140240001802409A
:10061000001C02400AB1816170470904FBE7000039
:10062000014880687047000000000020024881688F
:100630000278114481607047000000200B4810B51B
:10064000016841F400710160016841F4806101605A
:10065000016841F480710160032000F061F80F200F
:1006600000F006F800F024F8002010BD003C024025
:1006700070B50D4D04464FF47A712878B1FBF0F057
:100680000A490968B1FBF0F000F023FC48B9102CCE
:1006900007D200222146501E00F022F800206C6094
:1006A00070BD012070BD0000000000200C00002083
:1006B0000A4808B5016841F480410160006800F40F
:1006C000804000900548001F016841F080510160A2
:1006D000006800F08050009008BD000044380240DF
:1006E000F0B40E4B1B680C46C3F30223C3F107059D
:1006F000042D00D90425191D072901D2002300E08B
:10070000DB1E012606FA05F1491E214099409E4054
:10071000761E16403143F0BC00F02DBD0CED00E01C
:10072000064900F0070208684FF6FF03184040EA48
:100730000220034A10430860704700000CED00E0FF
:100740000000FA052DE9F0470E46050065D0DFF8F8
:100750001481D8F80000F7B200F00700B04207D2C9
:1007600088F80070D8F8000000F00700B04254D1BB
:1007700028683D4C810712D5400703D5206840F416
:10078000E05020602878000703D5206840F46040DE
:1007900020602068A96820F0F000084320602878D5
:1007A000C0072DD0304968680839012812D00228C6
:1007B00013D0032811D00968890700292DDA216890
:1007C00021F0030101432160FFF72AFF814641F236
:1007D000883A0EE009688903EFE709688901ECE7C8
:1007E000FFF71EFFA0EB0901514502D90320BDE828
:1007F000F0872068696800F00C00B0EB810FEFD142
:10080000D8F80010404601F00701B14207D907703F
:10081000006800F00700B04201D00120E7E7287827
:10082000400705D52068E96820F4E05008432060BF
:100830002878000706D52068296920F4604040EA3E
:10084000C100206000F018F82168084AC1F30311C4
:10085000515CC8400649086006480068FFF708FF79
:100860000020C4E7003C024008380240EA110008BA
:100870000C00002004000020154810B5006810F09E
:100880000C02144813D01449042A0FD0082A0ED1A0
:100890000F4C241F2268236802F03F025B0207D539
:1008A0002068C0F38810A0FB010106E0084610BDD7
:1008B0002168C1F38811A1FB00010023FFF7D4FCDC
:1008C0002168C1F30141491C4900B0FBF1F010BDA2
:1008D000083802400024F40040787D012DE9F84FEB
:1008E00004006ED02078DFF84C93C007A9F104050E
:1008F0004AD009F104000168C1F38101012908D03F
:100900000068C0F3810002280AD1D9F80000400233
:1009100006D52868800337D560680028E1D033E029
:100920006068B0F5803F10D0B0F5A02F286810D0D7
:1009300020F480302860286820F4802028606068D7
:10094000A8B1FFF76DFE06460DE0286840F4803040
:10095000F4E740F480202860F7E700BFFFF760FE6F
:10096000801B642873D828688003F7D50CE0FFF754
:1009700057FE064605E000BFFFF752FE801B6428C5
:10098000F0D828688003F7D42078DFF8AC8280079D
:100990004FF0000A3ED5A748001D016811F00C0F6A
:1009A00008D00068C0F3810002280BD1D9F80000FC
:1009B000400207D42868800716D5E068012800D1D6
:1009C00012E033E1E068B8B10120C8F80000FFF799
:1009D00027FE064605E000BFFFF722FE801B022827
:1009E000C0D828688007F7D52868216920F0F8006A
:1009F00040EAC10028600DE0C8F800A0FFF710FE33
:100A0000064604E0FFF70CFE801B02281FD828686A
:100A10008007F7D42078000722D5864F8748616980
:100A2000703771B101210160FFF7FAFD064604E05D
:100A3000FFF7F6FD801B022809D838688007F7D534
:100A40000EE0C0F800A0FFF7EBFD064605E082E0EF
:100A5000FFF7E6FD801B02287DD838688007F7D4B1
:100A60002078400768D5DFF8CCB100270BF13C0BAC
:100A7000DBF80000C0000BD4DBF8001041F080511F
:100A8000CBF80010DBF80000012700F08050009048
:100A90006B4E3068C00510D4306840F48070306010
:100AA000FFF7BEFD009005E0FFF7BAFD0099401A80
:100AB000022850D83068C005F6D55E4EA0686C3666
:100AC00001280FD00528306810D020F001003060D8
:100AD000306820F004003060A068B8B1FFF7A0FDD6
:100AE00000900FE0306840F00100F4E740F00400AF
:100AF0003060F7E7FFF794FD0099411A41F2883022
:100B0000814266D830688007F4D50EE0FFF788FD93
:100B1000009007E0FFF784FD0099411A41F2883008
:100B2000814256D830688007F4D42FB1DBF800102A
:100B300021F08051CBF80010A069C8B33D49091DD0
:100B40000968C1F3810102294AD00228504607D022
:100B5000C8F8600000E03CE0FFF762FD04463BE0BF
:100B60004746C8F86000FFF75BFD064605E000BF9A
:100B7000FFF756FD801B02282BD828688001F7D488
:100B8000D4E907010843A16A2E4A490802EB014152
:100B9000626A41EA8211084394F82C1040EA01612C
:100BA000C9F8001001203866FFF73AFD044606E058
:100BB0003EE000BFFFF734FD001B022809D828687B
:100BC0008001F7D534E000BFFFF72AFD001B0228A3
:100BD00002D90320BDE8F88F28688001F4D427E00B
:100BE0000128F7D0D9F80000E26900F480019142B1
:100BF0001CD1226A00F03F01914217D147F6C07123
:100C0000626A0140B1EB821F10D1A26A4FF0FF333C
:100C100000F4403103EB5202B1EB024F06D194F8DD
:100C20002C1000F07060B0EB016F01D00120D1E713
:100C30000020CFE70438024000004742800E4742C0
:100C4000007000400000FFFF70B5040009D0606A2A
:100C5000002540B125616561A56294F8510040B15D
:100C60000CE0012070BD6068B0F5827FF4D0E561D2
:100C7000F2E784F85050204600F044F8022084F84F
:100C800051002068016821F040010160A08821899D
:100C900000F4827001F404410843A18901F4006169
:100CA0000843217C01F002010843217D01F001018C
:100CB0000843218B01F400710843217F01F03801C2
:100CC000084394F8201001F080010843218D01F4BD
:100CD0000051084321680860A069042101EA10401E
:100CE00094F8241001F0100108432168486020683E
:100CF000C16921F40061C1616565012084F851007A
:100D0000002070BD10B586B0044614216846FFF778
:100D100022FB13492068884220D112480021026832
:100D200042F480520260006800F4805005900D4843
:100D30001438026842F001020260006800F001000D
:100D40000590E02000900220CDE9010103200390EE
:100D50000520049069460448FFF764FB06B010BD07
:100D60000030014044380240000002402DE9F84FB5
:100D7000044690F8500000271D4616468946012873
:100D80000DD04FF0010B84F850B0FFF749FC8046BE
:100D900094F85100BA46012804D0022793E00220BB
:100DA000BDE8F88FB9F1000F73D0002E71D0032089
:100DB00084F85100C4F854A0C4F83090A686E686A2
:100DC000C4F838A0A4F83CA0A4F83EA0C4F844A0FD
:100DD000C4F840A0A068B0F5004F09D120680168B0
:100DE00021F0400101602068016841F48041016008
:100DF00020680168490603D4016841F040010160A0
:100E0000E068B0F5006F606803D030B3012E24D0E5
:100E100041E008B1012E1CD1206B21680088C86018
:100E200006E020688168890709D5216B0988C160BF
:100E3000206B801C2063E08E401EE08609E0FFF7F7
:100E4000EFFBA0EB0800A84202D3681C01D031E000
:100E50007DB3E08E0028E4D120E0206B216800788B
:100E6000087306E020688168890709D5216B097835
:100E70000173206B401C2063E08E401EE0860AE078
:100E8000FFF7CEFBA0EB0800A84203D3681C02D0FA
:100E900010E017E06DB1E08E0028E3D1424629460C
:100EA000204600F089F808B120206065A06818B1DC
:100EB00006E0FFE7032706E02068C168806800902D
:100EC000606D00B1012784F851B084F850A0384615
:100ED00066E710B5401EB0F1807F01D3012010BD40
:100EE0004FF0E02460610F21601700F044F900200A
:100EF000A06107202061002010BDFEE77047704709
:100F000070B586B014216846FFF725FA164800240C
:100F1000016841F080010160016801F080010591E4
:100F2000016841F001010160016801F001010591D2
:100F3000016841F00201016000680C4E00F00200FF
:100F40004FF440450590002229463046FFF762FBEA
:100F500001200095CDE90104694630460394FFF76E
:100F600061FA06B070BD0000303802400004024053
:100F70000E4810B50C4901604FF4827141600021A8
:100F800002228160C0E903121202C0E90512C161A8
:100F90000162416281620A21C162FFF755FE0028A9
:100FA00001D072B6FEE710BD0030014024000020E1
:100FB000FEE7FEE77047000038B504461248134BC1
:100FC0000068B0FBF3F04FF47A7358430090606808
:100FD000B0F5827F0DD10B46009200228021204681
:100FE00000F016F870B1606D40F0200060650320DD
:100FF00038BD009830B1401E009020688068C04322
:101000000006F6D5002038BD0C00002000366E0129
:101010002DE9F8431E46914688460446089DFFF791
:10102000FFFA401B351AFFF7FBFA07462548006810
:10103000C0F3CB30684338E0701C37D0FFF7F0FACC
:10104000C01BA84203D215B1009860B32CE0206801
:10105000416821F0E00141606068B0F5827F0BD10A
:10106000A068B0F5004F02D0B0F5806F04D12068C1
:10107000016821F040010160A06AB0F5005F09D16C
:101080002068016821F4005101602068016841F482
:1010900000510160012084F85100002084F85000C4
:1010A0000320BDE8F8830025401E00902068816879
:1010B00038EA010004D000214945BDD10020F0E705
:1010C0000121F9E70C0000207047FFF7AFBA0000DC
:1010D00030B593B030216846FFF73DF914210CA8D4
:1010E000FFF739F91D480025016841F08051016082
:1010F000006800F0805011901948016841F4804167
:1011000001600068022400F48040119001200090EA
:10111000000401908001CDE906400C200890602079
:10112000CDE9090404200B906846FFF7D7FB08B10E
:1011300072B6FEE70CA90F2081E831004FF4A050F1
:101140000F904FF48050109003210CA8FFF7FAFA8B
:10115000002801D072B6FEE713B030BD403802401F
:10116000007000400248016841F47001016070475E
:1011700088ED00E0FEE70907090E002804DB00F116
:10118000E02080F80014704700F00F0000F1E0202C
:1011900080F8141D70470020401C6428FCDB704759
:1011A00008B5FFF74BFAFFF793FFFFF7A9FEFFF72C
:1011B000DFFE18208DF80000002301226946024856
:1011C000FFF7D4FDF8E70000240000200020401CB9
:1011D0006428FCDB70470020401C6428FCDB70475F
:1011E0004FF04070E1EE100A704700000000000070
:1011F0000000010203040607080900001C12000891
:101200000000002024000000C40100084012000873
:1012100024000020BC060000E001000801000000DE
:1012200010000000000000000024F400FD0E000883
:1012300097110008CD110008D7110008FF0E000813
:040000050800018965
:00000001FF
