:020000040800F2
:10000000581100204D01000807080008E10400080D
:1000100005080008E9010008210D000800000000A3
:10002000000000000000000000000000930900082C
:10003000150200080000000009080008AD0B0008C8
:1000400067010008670100086701000867010008F0
:1000500067010008670100086701000867010008E0
:1000600067010008670100086701000867010008D0
:1000700067010008670100086701000867010008C0
:1000800067010008670100086701000867010008B0
:1000900067010008670100086701000867010008A0
:1000A0006701000867010008670100086701000890
:1000B0006701000867010008670100086701000880
:1000C0006701000867010008670100086701000870
:1000D00067010008550C0008AD0C00086701000816
:1000E0006701000867010008670100086701000850
:1000F0006701000867010008670100086701000840
:10010000670100086701000867010008670100082F
:10011000670100086701000867010008670100081F
:10012000670100086701000867010008670100080F
:10013000DFF80CD000F046F800480047D112000864
:100140005811002080F30888704700000648804757
:1001500006480047FEE7FEE7FEE7FEE7FEE7FEE7AC
:10016000FEE7FEE7FEE7FEE7510C0008310100085C
:10017000202A04DB203A21FA02F00021704721FAFC
:1001800002F3D040C2F12002914008431946704763
:10019000D2B201E000F8012B491EFBD270470022C9
:1001A000F6E710B513460A4604461946FFF7F0FF76
:1001B000204610BD421C10F8011B0029FBD1801AFB
:1001C00070470000064C074D06E0E06840F0010370
:1001D00094E8070098471034AC42F6D3FFF7ACFF21
:1001E0000C1400082C140008FEE7000030B504468B
:1001F0000020651804E000BF14F8011B00F080FD2A
:10020000AC42F9D3002100F07BFDBDE83040002175
:1002100000F076BD7047000006490020C86106481E
:10022000016941F004010161016941F0400101618E
:10023000704700001800002000200240064A0021FC
:10024000D16106490A6942F002020A6148610869FF
:1002500040F0400008617047180000200020024074
:10026000044B0022DA61044A136943F0010313616D
:10027000018070471800002000200240144800222E
:10028000C168CB06134904D5CA6942F00202CA61AB
:100290001022C3685B0705D5CB6943F00103CB612E
:1002A00042F00402C369DB0707D0CB6943F00403C3
:1002B000CB61C16921F00101C161A2F580710139F1
:1002C00001D0C2607047C16921F00101C16170476E
:1002D000002002401800002070B5054600F0E0F84C
:1002E0000646114C09E0681C07D025B100F0D8F88B
:1002F000801BA84201D9032070BDE068C007F2D17D
:10030000E068800601D52020E060E068C00605D4E2
:10031000E069C00702D1E068400703D5FFF7AEFFF0
:10032000012070BD002070BD002002404FF0E02091
:10033000016921F002010161704700002DE9F047D9
:10034000054626480F460126017E01290FD00121CE
:10035000814601762868DFF888804CF25034022804
:1003600008D0A2462046FFF7B7FFA8B131E002202F
:10037000BDE8F0872046FFF7AFFF08BB0120FFF77D
:100380004BFF2046FFF7A8FFD8F81010064621F0D3
:100390000401C8F810101CE04FF0FF303860AC6862
:1003A00011E02046FFF74AFF5046FFF795FFD8F8C7
:1003B0001010060021F00201C8F8101001D03C60B6
:1003C00007E004F50064D5E9020100EBC120A0427A
:1003D000E7D8002189F818103046C9E71800002036
:1003E000002002400348016941F0800101610020C2
:1003F00070470000002002402DE9F05F07461C48CE
:1004000088460024017E15461E46012909D0012197
:10041000814601764CF2503A5046FFF75DFF18B125
:1004200022E00220BDE8F09F012F02D0022F00D071
:100430000427D346DFF83CA0220128463146FFF7C7
:1004400097FE81B208EB4400FFF70AFF5846FFF71A
:1004500043FFDAF8102022F00102CAF8102018B980
:10046000641CE4B2BC42E7D3002289F81820D9E723
:100470001800002000200240064900200A691206E8
:1004800007D5054A4A60054A4A600969090600D548
:10049000012070470020024023016745AB89EFCD62
:1004A0000148006870470000000000200248016811
:1004B000491C0160704700000000002007484FF40D
:1004C0007A71B0FBF1F14FF0E020491E416100214B
:1004D0008161052101610721016170470024F40059
:1004E000FEE70000F0B500220D4B154614460A2722
:1004F000B1FBF3F630368654B1FBF3F603FB16116D
:10050000B3FBF7F3521C861816F8016C302E00D19D
:1005100025B16D1C641C0A2CEAD3F0BD0022F9E75A
:1005200000CA9A3B02490A6902430A617047000007
:100530000010024002490A6982430A6170470000C4
:1005400000100240044908B58A6902438A6189693A
:100550000140009108BD000000100240F0B50A689B
:10056000C2F30F2595FAA5F2B2FA82F369E00122EF
:100570009A402A4264D0082B03D240F201129A40DA
:1005800006E0A3F108024FF00114944044F08062A9
:100590004C68082C0BD10C69C668170A97FAA7F7A4
:1005A000B7FA87F726EA1226BC402643C66092FABD
:1005B000A2F700EB1264B7FA87F74FEA870C0F2710
:1005C000266807FA0CF7BE4392FAA2F7D1F804E0C6
:1005D000B7FA87F7BF000EFA07FE46EA0E06266056
:1005E0004F68012F01D0092F2AD192FAA2F7B7FA4A
:1005F00087F74FEA870C032707FA0CF7BE4392FAF6
:10060000A2F7B7FA87F7D1F808E0BF000EFA07FEA5
:1006100092FAA2FC46EA0E06BCFA8CFC4FEA8C0E5B
:100620004FF0040C26600CFA0EFC92FAA2F2B2FA19
:1006300082F2CF68920026EA0C0697403E4326607D
:100640005B1C35FA03F292D10020F0BD4FF47A71B1
:10065000B0FBF1F14FF0E020491E416100218161C2
:1006600005210161704700B5034600F0F9F81860F4
:1006700000F0CCF8586000F0D7F89860586800F0A7
:10068000E1F8D86000BD0000014908607047000033
:100690000400002070B517490024884209D116488B
:1006A000C16841F48041C160C16821F48041C160EA
:1006B0001EE01249884202D14FF4003510E0104983
:1006C000884202D14FF480250AE00E49884202D1C7
:1006D0004FF4002504E00C49884208D14FF48015FE
:1006E0002846FFF71FFF2846FFF724FF00E00124FC
:1006F000204670BD00380140001002400044004018
:1007000000480040004C0040005000402DE9FF41EF
:100710000446C0680D460126C0F34030002861D170
:10072000E9686868E2680843296941F20C639A4302
:1007300011430843E060A868216921F44051014356
:1007400021616869616921F4407101436161684612
:10075000FFF789FF2548844201D103980CE0244823
:10076000844208D02348844205D02348844202D0E2
:100770002248844236D10298A0B32A6892B300EB93
:10078000C00101EB00119200B1FBF2F36420B3FB56
:10079000F0F36FF018077B43B1FBF2F5B1FBF2F712
:1007A00005EB8305322303EB0515B5FBF0F5B7FB2D
:1007B000F0F705F0F00505EB0715B1FBF2F7B1FB1B
:1007C000F2F1B1FBF0F100266FF01802514307EB94
:1007D000810103EB0111B1FBF0F000F00F002844A0
:1007E00080B2A06004B03046BDE8F081003801401E
:1007F0000044004000480040004C004000500040D1
:1008000000F0C8B8FEE7FEE77047000004494968F9
:10081000044A01F0F0010909515CC840704700002A
:1008200000100240A013000804494968044A01F47A
:10083000E06102EB11210978C840704700100240C6
:10084000B013000804494968044A01F4605102EBFE
:10085000D1210978C840704700100240B013000849
:100860000648406810F00C01054805D0042903D063
:10087000082901D100F006B87047000000100240BE
:1008800000127A000B48416811F480320A4909D0FD
:10089000B2F5803F06D14168084AC1F34041491C86
:1008A000B2FBF1F14068022200F4701002EB9040BC
:1008B000484370470010024000093D0000127A00D2
:1008C0002DE9F84300240F4606460C6090460121AE
:1008D000684600F011FD0546012820D19DF8000072
:1008E000182820D006DC01280BD002280BD00428C1
:1008F00026D12AE0412827D0612825D072281FD18F
:1009000025E0802401E04FF480643070211D4246D0
:10091000B01C00F0F1FC0546012826D00024284632
:100920003C60BDE8F88342460121684600F0E4FCE3
:10093000012805D19DF80000182801D1022404E007
:1009400000259DF8000000E000253070E7E74246F2
:100950000121684600F0D0FC0128F1D19DF800008B
:100960006528EDD100F0A2FCEAE7F178B07881F0DB
:10097000FF0188420AD130190179407900EB012842
:100980002146301DFFF732FC4045C8D000242546E3
:10099000C5E770471FB500200090019002900390BA
:1009A00003A800F0BFF938B1052822D0042822D0CE
:1009B000022824D013A01FE01A4800F091F81A482A
:1009C00000F08EF868460399FFF78CFD17A000F041
:1009D00087F8684600F084F817A000F081F819A0A5
:1009E00000F07EF800F0E0FA72B61C4800F048FC17
:1009F0001FBD1BA000E02AA000F072F81FBD2FA0B1
:100A0000FAE700000A0D4661696C656420746F2086
:100A100072656365697665207468652066696C65D2
:100A2000210A0D00B8130008020900200A0D205306
:100A3000697A653A200000002042797465730D0AD6
:100A4000000000002D2D2D2D2D2D2D2D2D2D2D2D8A
:100A50002D2D2D2D2D2D2D0A000000000028000821
:100A60000A0A0D54686520696D6167652073697AAB
:100A70006520697320686967686572207468616EB3
:100A80002074686520616C6C6F7765642073706199
:100A90006365206D656D6F7279210A0D000000009D
:100AA0000A0A0D566572696669636174696F6E2022
:100AB0006661696C6564210A0D0000000D0A0A4137
:100AC000626F7274656420627920757365722E0A94
:100AD0000D00000001B50121684600F03BFC08BD97
:100AE000002101E0491C89B2425C002AFAD100F0E1
:100AF00031BC0000F0B5054600242A782046234684
:100B0000302A2ED16A78782A01D0582A29D1022495
:100B10001CE000BFA2F14106052E07D9A2F1610732
:100B2000052F03D91136092E04D913E0A2F130079D
:100B3000092F01D8303A04E0052E01D8373A00E0F9
:100B4000573A641C02EB03130B2C04D22A5D002AD3
:100B5000E0D103E000202A5D002A01D101200B60D2
:100B6000F0BD2A5D62B16B2A01D04B2A02D10CB1D3
:100B70009B0205E06D2A01D04D2A04D11CB11B0552
:100B800001200B600AE0A2F13006092E0CD803EB1D
:100B900083036FF02F0606EB43031344641C0B2CF6
:100BA000DED20128DDD1F0BD0020F0BDFFF77EBC14
:100BB000244810B5016821F007010160016811F0B7
:100BC000070FFBD12048016821F0F80141F08001B6
:100BD0000160016841F0010101600168C1F3400159
:100BE0000029FAD0416821F47C1141F400214160D0
:100BF000016841F0807101600168C1F34061002922
:100C0000FAD0416821F0F0014160416821F4E061CF
:100C10004160416821F460514160416821F0030165
:100C200041F002014160416801F00C010829FAD14C
:100C3000064C2046FFF70AFD2046BDE81040FFF7AE
:100C400023BD000000200240001002400024F400F8
:100C50007047000038B5124C2068C0F3401090B1C6
:100C6000E068C0F3401070B160680F490D4B0A880E
:100C70009854521C90B240F698020880904201D3DA
:100C80000020088038BD252000F006F9206800907B
:100C90004007F7D5206800906068009038BD0000DC
:100CA00000380140380000200800002038B5114C01
:100CB0002068C0F3401080B1E068C0F3401060B11C
:100CC00060680E490C4B4A889854521C90B2488078
:100CD000322801D30020488038BD262000F0DCF8FF
:100CE000206800904007F7D5206800906068009069
:100CF00038BD000000440040D0080020080000205B
:100D000041F4807141F2210240004900CB0500D539
:100D1000401CC30300D55040CB03F5D580B27047CB
:100D2000FEE700002DE9F14F0027DFF850A188B061
:100D3000DFF844B13D46B8463C46CAF800B093E0FF
:100D40004FF000094E468BE040F6B83204A94C48FB
:100D5000FFF7B6FD01280AD0B8F1000F00D06D1CD6
:100D6000052D7AD91820FFF7B5FE182076E0049AF1
:100D7000002572B1022A07D0414909F0FF008B78A3
:100D800083420BD0152069E00620FFF7A3FE022462
:100D900066E00620FFF79EFE012661E0B9F1000F34
:100DA0000CD0DAF80000091D00F0C6F8DAF80000EF
:100DB00004990144CAF8001006203EE00879E8B31F
:100DC0000020304B091D02E01A54401C491C0A78CF
:100DD0000AB14028F8D34FF0000C03F800C0604679
:100DE0006B4601E01A54401C11F8012F202A01D053
:100DF0001028F7D303F800C006A91846FFF77AFEBB
:100E000008986FF4FB210068C8420BD918208DF8B0
:100E10001400012105A800F09DFA012105A800F0A9
:100E200099FA0524FB21584600F0C5F80898069960
:100E300001600620FFF74EFE432001E007E00CE0D2
:100E4000FFF748FE09F101094FF0010808E006200C
:100E5000FFF740FE0126374602E04320FFF73AFE47
:100E600056EA04003FF470AF57EA04003FF468AF5D
:100E700009B02046BDE8F08F0028000814000020CB
:100E80004209002002090020014A024900F024B86A
:100E9000691200080C00002000280DDB00F01F0282
:100EA000012191404009800000F1E020C0F880114C
:100EB000BFF34F8FBFF36F8F704702E008C8121F58
:100EC00008C1002AFAD170477047002001E001C133
:100ED000121F002AFBD170472DE9F04116460F463C
:100EE0000446002503E03946B047641C6D1C207899
:100EF0000028F8D12846BDE8F08100000448406889
:100F0000B0F1AA3F01D001207047002070470000D7
:100F1000480D002070B5074D0024601900F064F8FA
:100F2000FF2801D0012070BD641CE4B2202CF4D352
:100F3000002070BD003800082DE9F04114000F4674
:100F40004FF0000506461AD0A00715D022F0030482
:100F5000241D11E007EB850017F82510427841EABF
:100F600002218278C07841EA024141EA00613046BC
:100F700000F03CF86D1C361DB5EB940FEAD3BDE8CC
:100F8000F081000070B5064D064E0024601900F097
:100F90002BF83055641CA4B2102CF7D370BD0000A0
:100FA00000180008480D002010B500F069F8BDE8F1
:100FB0001040FFF7BBB970B586B000260C46054659
:100FC0000496FFF759FACDE9025404A96846009641
:100FD000FFF7B4F920B1FFF705FA002006B070BDA5
:100FE000FFF700FA0120F9E70078704770B50C466A
:100FF0000546FFF741FA2246002329460220FFF763
:10100000FBF918B1FFF7EEF9002070BDFFF7EAF920
:10101000012070BD164808B5816941F00101816168
:10102000816901F001010091C16941F08051C16104
:10103000C069104900F08050009008684FF6FF0228
:1010400010400D4A40F44070104308600B4841685E
:1010500021F0E0614160416841F000714160FFF7BB
:10106000A7FDFFF72BFABDE8084000F015B8000017
:10107000001002400CED00E00000FA050000014005
:1010800010B52520FFF708FFBDE810400148FFF725
:1010900001BB00000038014030B58DB01C2168460E
:1010A000FFF77DF8142107A8FFF779F84FF4804087
:1010B000FFF748FA0420FFF745FA1948079009207E
:1010C000089003200024CDE90904164D07A92846FD
:1010D000FFF744FA144807900420089007A928460F
:1010E000FFF73CFA4FF4E130CDE900040C20029404
:1010F000CDE90340059406940C4C69462046FFF761
:1011000005FB206920F490402061606920F02A00EE
:101110006061E06840F40050E0600DB030BD000058
:1011200002000204000801400400040400380140E9
:1011300010B50022094B09E01C68C4F3C014002C50
:10114000FAD010F8014B5C60521C92B28A42F3D381
:101150001868C0F380100028FAD010BD0038014094
:1011600010B5FFF7CBFE002812D0FFF7D3FE50B129
:1011700008A0FFF789FEFFF717FF72B61448BDE815
:10118000104000F07DB813A0BDE81040FFF77CBE12
:101190001FA0F9E76170702065786973742C206A6C
:1011A000756D7020746F206170702E2E2E20286156
:1011B0007070206E6576657220657261736564205B
:1011C000262076616C696420617070290D0A000028
:1011D00000280008617070206E6F74206578697354
:1011E000742C20776169742E2E2E20286170702057
:1011F0006E65766572206572617365642026206E67
:101200006F2076616C696420617070290D0A00009E
:10121000617070206E6F742065786973742C20770C
:101220006169742E2E2E20286170702065726173A2
:101230006564290D0A00000008B5002000904FF4F5
:1012400016720221684600F057F8012807D19DF870
:101250000000732803D19DF80100742801D00020FC
:1012600008BD012008BD000004490A685206FCD5EB
:10127000024AC1B2121D11607047000000380140DF
:1012800010B50168074A1140B1F1005F09D141680A
:10129000054C21600068FEF755FF2068BDE810404E
:1012A000004710BD0000FE2F1000002072B6BFF3F3
:1012B0004F8F05480168054A01F4E0611143016060
:1012C000BFF34F8F00BFFDE70CED00E00400FA050F
:1012D000FFF7A0FEFFF756FEFFF7AEFF08B9FFF7D6
:1012E0003FFFFFF78DFA00BF00F036F80128FBD171
:1012F000FFF7DCFFF8E700002DE9F84316460F463C
:101300008146FFF7CDF880460025114C1BE02EB139
:10131000FFF7C6F8A0EB0800B04202D90020BDE8F4
:10132000F88320680090000703D52068009060686B
:1013300000902068C0F340100028E8D0606809F8E9
:1013400005006D1CADB2BD42F3D30120E7E70000FC
:1013500000380140FFF7ECBEF8B500252C468DF8AB
:1013600000500DA60EE0322201216846FFF7C4FFAF
:1013700001280ED1305D9DF80010884209D1012569
:10138000641CE4B23046FEF715FFA042EBD82846B5
:10139000F8BD0025FBE700007265626F6F74000006
:1013A0000000000000000000010203040607080915
:1013B00000000000010203040A0A0D2050726F674A
:1013C00072616D6D696E6720436F6D706C657465D9
:1013D00064205375636365737366756C6C79210A59
:1013E0000D2D2D2D2D2D2D2D2D2D2D2D2D2D2D2D4D
:1013F0002D2D2D2D2D2D2D2D2D2D2D2D2D2D2D2D1D
:101400002D0D0A204E616D653A2000002C14000855
:101410000000002018000000BA0E00084414000864
:101420001800002040110000CA0E00080000000053
:101430000024F40000000000000000000000000094
:0414400000000000A8
:0400000508000131BD
:00000001FF
