:020000040800F2
:10000000180700202902000897110008AB1000080B
:10001000951100081F040008871300080000000065
:100020000000000000000000000000009B1100081C
:100030002104000800000000991100089D1100082B
:10004000430200084302000843020008430200087C
:10005000430200084302000843020008430200086C
:10006000430200084302000843020008430200085C
:10007000430200084302000843020008430200084C
:10008000430200084302000843020008430200083C
:10009000430200084302000843020008430200082C
:1000A000430200084302000843020008430200081C
:1000B00043020008491200084302000843020008F6
:1000C00043020008430200084302000843020008FC
:1000D00043020008430200084302000843020008EC
:1000E00043020008430200084302000843020008DC
:1000F00043020008430200084302000843020008CC
:1001000043020008430200084302000843020008BB
:1001100043020008430200084302000843020008AB
:10012000430200084302000843020008430200089B
:10013000430200084302000843020008430200088B
:10014000430200084302000843020008430200087B
:10015000430200084302000843020008430200086B
:10016000430200084302000843020008430200085B
:100170004302000843020008430200080000000098
:10018000430200084302000800F002F800F03CF8C7
:100190000AA090E8000C82448344AAF10107DA45E2
:1001A00001D100F031F8AFF2090EBAE80F0013F0F8
:1001B000010F18BFFB1A43F0010318473C1300005E
:1001C0005C130000103A24BF78C878C1FAD85207EF
:1001D00024BF30C830C144BF04680C6070470000C1
:1001E0000023002400250026103A28BF78C1FBD840
:1001F000520728BF30C148BF0B6070471FB501F0E0
:100200006DF91FBD10B510BD00F0CFF81146FFF716
:10021000F5FF01F0D1F800F0EDF803B4FFF7F2FFBD
:1002200003BC00F0F5F80000094880470948004782
:10023000FEE7FEE7FEE7FEE7FEE7FEE7FEE7FEE796
:10024000FEE7FEE704480549054A064B70470000F3
:100250003912000889010008180100201807002041
:10026000180300201803002053EA020C00F06980F4
:100270002DE9F04B4FF00006002B1FBFB3FA83F5BA
:1002800003FA05F424FA05F65E4012BF1643B2FAEB
:1002900082F502FA05F4C5F120051EBF22FA05FC1D
:1002A00044EA0C04203556EA044C4FEA144418BFC3
:1002B000641C4FF000084FF00009904271EB030CF2
:1002C00039D3002919BFB1FA81F701FA07F6B0FA5C
:1002D00080F700FA07F6C7F120071EBF20FA07FCD7
:1002E00046EA0C062037B6FBF4FCA7EB0507103FE7
:1002F00007F01F0BCBF120060CFA0BFB2CFA06F6CD
:1003000044BFB3460026202FA4BF5E464FF0000B2B
:100310005BEA060C08BF4FF0010B19EB0B09ABFBB6
:10032000027C48EB0608C01B06FB02CC0BFB03CC8F
:1003300071EB0C01C1E70B46024641464846BDE859
:10034000F08B13B54FF000004FF00001AFF30080C9
:10035000BDE81C4070474FF0000200B513469446BC
:100360009646203922BFA0E80C50A0E80C50B1F10D
:100370002001BFF4F7AF090728BFA0E80C5048BF21
:100380000CC05DF804EB890028BF40F8042B08BFBF
:10039000704748BF20F8022B11F0804F18BF00F8BB
:1003A000012B7047704770477047754600F02CF876
:1003B000AE4605006946534620F00700854618B052
:1003C00020B5FFF73FFFBDE820404FF000064FF09B
:1003D00000074FF000084FF0000B21F00701AC467A
:1003E000ACE8C009ACE8C009ACE8C009ACE8C00999
:1003F0008D46704710B50446AFF300802046BDE837
:100400001040FFF70ABF000000487047B40000200A
:1004100001491820ABBEFEE7260002007047FEE748
:10042000704772B6FEE700002DE9F84FDFF8BCA177
:100430000022012503264FF00F090AF1040BAAF14F
:10044000040E00BF0B6805FA02F42340A34270D1EA
:100450000F7907F00307012F01D0022F16D187680B
:100460004FEA420806FA08FC27EA0C07D1F80CC04C
:100470000CFA08FC4CEA070CC0F808C04768A74310
:100480000C79C4F3001494403C4344600C79E44379
:10049000A4070AD0C4684FEA420C06FA0CF7BC4322
:1004A0008F6807FA0CF72743C7600C7904F0030440
:1004B000022C12D1D40800EB840CDCF82040570742
:1004C000FF0E09FA07F824EA0804D1F8108008FAA8
:1004D00007F848EA0408CCF8208004684FEA420C88
:1004E00006FA0CF7BC430F7907F0030707FA0CF77D
:1004F000274307604C6814F4403F70D03C4C276899
:1005000047F480472760246822F0030704F48044FE
:100510000094384C07EB040CDCF8084897074FEAC6
:10052000177809FA08F7BC43334FB84202D10027C5
:1005300024E054E0314FB84201D101271EE0304F92
:10054000B84201D1022719E02E4FB84201D103274A
:1005500014E02D4FB84201D104270FE02B4FB842D1
:1005600001D105270AE02A4FB84201D1062705E04C
:10057000284FB84201D1072700E0082707FA08F7FB
:100580002743CCF80878DAF800405746D1F804C081
:100590009C435FEACC2C00D51C433C60DBF8004058
:1005A0005F46D1F804C09C435FEA8C2C00D51C4305
:1005B0003C60DEF800407746D1F804C09C435FEA17
:1005C0008C3C00D51C433C60084F083F3C68D1F888
:1005D00004C09C435FEACC3C00D51C433C60521CE9
:1005E000102AFFF42FAFBDE8F88F0000083C01404F
:1005F0004438024000300140000002400004024044
:1006000000080240000C02400010024000140240AA
:1006100000180240001C0240426921EA02030A401D
:1006200043EA0241816170470AB181617047090460
:10063000FBE70000014880687047000000000020D0
:1006400002488168027811448160704700000020F0
:100650000B4810B5016841F400710160016841F474
:1006600080610160016841F480710160032000F045
:100670006FF80F2000F006F800F024F8002010BDFD
:10068000003C024070B50D4D04464FF47A71287855
:10069000B1FBF0F00A490968B1FBF0F000F0ECFAA8
:1006A00048B9102C07D200222146501E00F030F825
:1006B00000206C6070BD012070BD000000000020B3
:1006C0000C0000200A4808B5016841F4804101602F
:1006D000006800F4804000900548001F016841F068
:1006E00080510160006800F08050009008BD00005B
:1006F00044380240002809DB00F01F02012191402C
:100700004009800000F1E020C0F8001170470000AF
:10071000F0B40E4B1B680C46C3F30223C3F107056C
:10072000042D00D90425191D072901D2002300E05A
:10073000DB1E012606FA05F1491E214099409E4024
:10074000761E16403143F0BC00F01EBE0CED00E0FA
:10075000064900F0070208684FF6FF03184040EA18
:100760000220034A10430860704700000CED00E0CF
:100770000000FA052DE9F0470E46050065D0DFF8C8
:100780001481D8F80000F7B200F00700B04207D299
:1007900088F80070D8F8000000F00700B04254D18B
:1007A00028683D4C810712D5400703D5206840F4E6
:1007B000E05020602878000703D5206840F46040AE
:1007C00020602068A96820F0F000084320602878A5
:1007D000C0072DD0304968680839012812D0022896
:1007E00013D0032811D00968890700292DDA216860
:1007F00021F0030101432160FFF71CFF814641F214
:10080000883A0EE009688903EFE709688901ECE797
:10081000FFF710FFA0EB0901514502D90320BDE805
:10082000F0872068696800F00C00B0EB810FEFD111
:10083000D8F80010404601F00701B14207D907700F
:10084000006800F00700B04201D00120E7E72878F7
:10085000400705D52068E96820F4E050084320608F
:100860002878000706D52068296920F4604040EA0E
:10087000C100206000F018F82168084AC1F3031194
:10088000515CC8400649086006480068FFF7FAFE58
:100890000020C4E7003C024008380240E61400088B
:1008A0000C00002004000020154810B5006810F06E
:1008B0000C02144813D01449042A0FD0082A0ED170
:1008C0000F4C241F2268236802F03F025B0207D509
:1008D0002068C0F38810A0FB010106E0084610BDA7
:1008E0002168C1F38811A1FB00010023FFF7BCFCC4
:1008F0002168C1F30141491C4900B0FBF1F010BD72
:10090000083802400024F40040787D012DE9F84FBA
:1009100004006ED02078DFF84C93C007A9F10405DD
:100920004AD009F104000168C1F38101012908D00E
:100930000068C0F3810002280AD1D9F80000400203
:1009400006D52868800337D560680028E1D033E0F9
:100950006068B0F5803F10D0B0F5A02F286810D0A7
:1009600020F480302860286820F4802028606068A7
:10097000A8B1FFF75FFE06460DE0286840F480301E
:10098000F4E740F480202860F7E700BFFFF752FE4D
:10099000801B642873D828688003F7D50CE0FFF724
:1009A00049FE064605E000BFFFF744FE801B6428B1
:1009B000F0D828688003F7D42078DFF8AC8280076D
:1009C0004FF0000A3ED5A748001D016811F00C0F3A
:1009D00008D00068C0F3810002280BD1D9F80000CC
:1009E000400207D42868800716D5E068012800D1A6
:1009F00012E033E1E068B8B10120C8F80000FFF769
:100A000019FE064605E000BFFFF714FE801B022812
:100A1000C0D828688007F7D52868216920F0F80039
:100A200040EAC10028600DE0C8F800A0FFF702FE10
:100A3000064604E0FFF7FEFD801B02281FD8286849
:100A40008007F7D42078000722D5864F8748616950
:100A5000703771B101210160FFF7ECFD064604E03B
:100A6000FFF7E8FD801B022809D838688007F7D512
:100A70000EE0C0F800A0FFF7DDFD064605E082E0CD
:100A8000FFF7D8FD801B02287DD838688007F7D48F
:100A90002078400768D5DFF8CCB100270BF13C0B7C
:100AA000DBF80000C0000BD4DBF8001041F08051EF
:100AB000CBF80010DBF80000012700F08050009018
:100AC0006B4E3068C00510D4306840F480703060E0
:100AD000FFF7B0FD009005E0FFF7ACFD0099401A6C
:100AE000022850D83068C005F6D55E4EA0686C3636
:100AF00001280FD00528306810D020F001003060A8
:100B0000306820F004003060A068B8B1FFF792FDB3
:100B100000900FE0306840F00100F4E740F004007E
:100B20003060F7E7FFF786FD0099411A41F28830FF
:100B3000814266D830688007F4D50EE0FFF77AFD71
:100B4000009007E0FFF776FD0099411A41F28830E6
:100B5000814256D830688007F4D42FB1DBF80010FA
:100B600021F08051CBF80010A069C8B33D49091DA0
:100B70000968C1F3810102294AD00228504607D0F2
:100B8000C8F8600000E03CE0FFF754FD04463BE09D
:100B90004746C8F86000FFF74DFD064605E000BF78
:100BA000FFF748FD801B02282BD828688001F7D466
:100BB000D4E907010843A16A2E4A490802EB014122
:100BC000626A41EA8211084394F82C1040EA0161FC
:100BD000C9F8001001203866FFF72CFD044606E036
:100BE0003EE000BFFFF726FD001B022809D8286859
:100BF0008001F7D534E000BFFFF71CFD001B022881
:100C000002D90320BDE8F88F28688001F4D427E0DA
:100C10000128F7D0D9F80000E26900F48001914280
:100C20001CD1226A00F03F01914217D147F6C071F2
:100C3000626A0140B1EB821F10D1A26A4FF0FF330C
:100C400000F4403103EB5202B1EB024F06D194F8AD
:100C50002C1000F07060B0EB016F01D00120D1E7E3
:100C60000020CFE70438024000004742800E474290
:100C7000007000400000FFFF10B5401EB0F1807F03
:100C800001D3012010BD4FF0E02460610F216017F7
:100C900000F07AFB0020A06107202061002010BD39
:100CA0007047704770B590F83C20012A32D001247B
:100CB00080F83C40022280F83D2003685A689D6815
:100CC00022F070060A6832435A60134B02689A4257
:100CD00014D0B2F1804F11D0104B9A420ED0104B6D
:100CE0009A420BD00F4B9A4208D00F4B9A4205D034
:100CF0000E4B9A4202D00E4B9A4204D1496825F01D
:100D000080031943916080F83D40002180F83C1039
:100D1000084670BD022070BD000001400004004084
:100D200000080040000C0040000401400040014069
:100D30000018004010B5040003D094F83D0010B135
:100D400007E0012010BD002084F83C00204600F0A0
:100D50001FF8022084F83D00211D206800F07AFA77
:100D6000012084F8460084F83E0084F83F0084F8AF
:100D7000400084F8410084F8420084F8430084F87D
:100D8000440084F8450084F83D00002010BD0000B8
:100D900008B500680B49884212D10B48016841F040
:100DA000020101600068002200F00200009011467C
:100DB0001D20FFF7ADFCBDE808401D20FFF79ABCE1
:100DC00008BD0000000400404038024090F83D108B
:100DD000012901D001207047022180F83D100168EF
:100DE000CA6842F00102CA6000681149884214D002
:100DF000B0F1804F11D00F4988420ED00E49884281
:100E00000BD00E49884208D00D49884205D00D49C3
:100E1000884202D00C49884204D1816801F0070160
:100E2000062903D0016841F00101016000207047EC
:100E3000000001400004004000080040000C004099
:100E400000040140004001400018004070B5044615
:100E500090F83C000025012817D0012684F83C605A
:100E6000022084F83D002068826822F0770222F494
:100E70007F4282600868502838D00DDC20284FD08F
:100E800005DC90B3102811D14AE0022070BD302853
:100E900046D040280AD13BE060282FD070280DD0E2
:100EA000B0F5805F03D0B0F5005F12D0012584F863
:100EB0003D60002084F83C00284670BDCB68D1E935
:100EC0000121206800F02AFA2068816841F077014A
:100ED00009E0CB68D1E90121206800F01FFA206801
:100EE000816841F480418160E1E719E0CA6849689E
:100EF000206800F025FA5021206806E0CA68496899
:100F0000206800F02EFA6021206800F011FACEE788
:100F1000CA684968206800F013FA40212068F4E7A5
:100F2000226801461046F0E7704770B50446006835
:100F300001694FF00005C943890715D4C168C94349
:100F4000890711D4E91E016101202077206880699A
:100F50008007204602D0FFF7E7FF04E000F098F892
:100F6000204600F096F8257720680169C9434907B3
:100F700017D4C168C943490713D46FF00401016154
:100F8000022020772068806910F4407F204602D03C
:100F9000FFF7CAFF04E000F07BF8204600F079F884
:100FA000257720680169C943090716D4C168C94378
:100FB000090712D46FF0080101610420207720682E
:100FC000C0698007204602D0FFF7AEFF04E000F0C2
:100FD0005FF8204600F05DF8257720680169C94375
:100FE000C90617D4C168C943C90613D46FF01001EC
:100FF0000161082020772068C06910F4407F2046F6
:1010000002D0FFF791FF04E000F042F8204600F024
:1010100040F8257720680169C943C90708D1C1682C
:10102000C943C90704D1891E0161204600F032F886
:1010300020680169C943090609D4C168C943090682
:1010400005D46FF0800101612046FFF729FE20687A
:101050000169C943490609D4C168C943490605D491
:101060006FF040010161204600F01EF82068016920
:10107000C94389060BD4C168C943890607D46FF0F8
:10108000200101612046BDE87040FFF70ABE70BD37
:101090007047704700680349884201D100F008BAE0
:1010A00070470000000400407047FEE770B586B04E
:1010B00014216846FFF74FF91A480024016841F0EF
:1010C00004010160016801F004010591016841F02B
:1010D00080010160016801F080010591016841F023
:1010E00010010160016801F010010591016841F0F3
:1010F0000101016000680C4E00F001004FF46045F2
:101100000590002229463046FFF78EFA012000950F
:10111000CDE90104694630460394FFF785F906B02E
:1011200070BD0000303802400010024010B586B09B
:1011300000241748009401940294039404941349E2
:10114000059401605321C0E9011442F20F71C0E916
:10115000031480218161FFF7EDFD08B1FFF761F90C
:101160004FF48050009069460948FFF76FFE08B1C0
:10117000FFF757F9049404A905480594FFF792FD79
:10118000002801D0FFF74DF906B010BD0004004063
:101190006C000020FEE7FEE770477047FFF750BA8B
:1011A00030B593B030216846FFF7D5F814210CA86C
:1011B000FFF7D1F81E480025016841F08051016019
:1011C000006800F0805011901A48016841F4804195
:1011D00001600068022400F480401190012000901A
:1011E000000401908001CDE90640192008904FF4D9
:1011F000A870CDE9090404200B906846FFF786FB30
:1012000008B172B6FEE70CA90F2081E831004FF457
:10121000A0500F904FF48050109005210CA8FFF7BC
:10122000A9FA002801D072B6FEE713B030BD000065
:1012300040380240007000400248016841F47001EB
:101240000160704788ED00E00148FFF76EBE0000C6
:101250006C000020F0B50268254C264D264E274F25
:10126000274B4FF0804CA04209D0604507D0A842E0
:1012700005D0B04203D0B84201D0984204D122F048
:10128000700E4A6842EA0E02A0421BD0604519D097
:10129000A84217D0B04215D0B84213D0984211D00E
:1012A000184DA8420ED0184DA8420BD0174DA84299
:1012B00008D0174DA84205D0164DA84202D0164DB1
:1012C000A84203D122F44075CA682A434D6922F02E
:1012D00080022A4302608A68C2620A688262A0426F
:1012E00001D0984201D10969016301214161F0BD3A
:1012F000000001400004004000080040000C0040D5
:101300000004014000400140004401400048014009
:1013100000180040001C00400020004010B5846808
:1013200042EA032224F47F440A432243826010BD30
:10133000826822F070020A4342F007018160704720
:1013400010B5036A046A24F001040462846924F07D
:10135000F00444EA021423F00A020A4384610262A0
:1013600010BD10B5036A23F0100303628369046A99
:1013700023F4704343EA023224F0A00343EA01114C
:101380008261016210BDFEE70907090E002804DB37
:1013900000F1E02080F80014704700F00F0000F129
:1013A000E02080F8141D70474268116042684A606E
:1013B0004160086070470000FFF74AF9FFF7F0FE50
:1013C000FFF774FEFFF7B2FE0448FFF7FFFC00F0E2
:1013D0001FF800BF00F046F8FCE700006C0000209A
:1013E0004FF400510148FFF717B900000010024008
:1013F0004FF480410148FFF70FB900000010024090
:101400004FF400410148FFF707B900000010024007
:1014100010B5052301220F490F4800F041F80E488E
:10142000142302220D491C3000F03AF80A480A231E
:1014300003220B49383000F033F8074800F028F851
:1014400005481C3000F024F80348BDE8104038304F
:1014500000F01EB8E113000818000020F113000886
:10146000011400082DE9F041084E0027346808E017
:10147000A4F11405287A012802D1686880472F72E8
:101480002468B442F4D1BDE8F081000010000020CF
:1014900000F114010148FFF787BF00001000002091
:1014A000026000220272C360036141607047000065
:1014B00010B5094B012418680BE000BFA0F114011E
:1014C000CA682AB1521ECA6002D10C720A69CA6087
:1014D00000689842F2D110BD100000204FF040701B
:1014E000E1EE100A70470000000000000000010259
:1014F0000304060708090000181500080000002072
:1015000018000000C4010008301500081800002071
:1015100000070000E00100080100000010000000CA
:10152000000000000024F400100000201000002043
:040000050800018965
:00000001FF
