:020000040800F2
:10000000C8200020A1010008A71500084714000817
:10001000A5150008AD0200083D180008000000000A
:10002000000000000000000000000000AB15000808
:10003000BD02000800000000A9150008AD15000869
:10004000BB010008BB010008BB010008BB010008A0
:10005000BB010008BB010008BB010008BB01000890
:10006000BB010008BB010008BB010008BB01000880
:10007000BB010008BB010008BB010008BB01000870
:10008000BB010008BB010008BB010008BB01000860
:10009000B1020008BB010008BB010008BB01000859
:1000A000BB010008BB010008BB010008BB01000840
:1000B000BB010008BB010008BB010008BB01000830
:1000C000BB010008BB010008BB010008BB01000820
:1000D000BB010008BB010008BB010008BB01000810
:1000E000BB010008BB010008BB010008BB01000800
:1000F000BB010008BB010008BB010008BB010008F0
:10010000BB010008BB010008BB010008BB010008DF
:10011000BB010008BB010008BB010008BB010008CF
:10012000BB010008BB010008BB010008BB010008BF
:10013000BB010008BB010008BB010008BB010008AF
:10014000BB010008BB010008BB010008BB0100089F
:10015000BB010008BB010008BB010008BB0100088F
:10016000BB010008BB010008BB010008BB0100087F
:10017000BB010008BB010008BB0100080000000033
:10018000BB010008BB010008DFF810D000F07CF8CC
:1001900000480047811B0008AFF30080C820002002
:1001A0000648804706480047FEE7FEE7FEE7FEE711
:1001B000FEE7FEE7FEE7FEE7FEE7FEE7451600087E
:1001C000890100082DE9F05F0546002092469B4614
:1001D00088460646814640241BE02846414647465D
:1001E000224600F041F853465A46C01A914110D3B6
:1001F00011461846224600F028F82D1A67EB010830
:100200004F4622460120002100F01FF817EB00099D
:100210004E41201EA4F10104DFDC484631462A4647
:100220004346BDE8F09FD2B201E000F8012B491E21
:10023000FBD270470022F6E710B513460A46044683
:100240001946FFF7F0FF204610BD202A04DB203AB4
:1002500000FA02F1002070479140C2F1200320FA19
:1002600003F3194390407047202A04DB203A21FA17
:1002700002F00021704721FA02F3D040C2F12002BF
:100280009140084319467047064C074D06E0E06868
:1002900040F0010394E8070098471034AC42F6D3CD
:1002A000FFF776FF281C0008481C0008FEE7000046
:1002B000014800F08EB900005C000020704700008B
:1002C00001A001F0BDBA00006572726F7220686112
:1002D0006E646C6572210D0A0000000090F8202009
:1002E000012A07D0022A05D0416A41F480214162E7
:1002F00001207047006842690A434261002070474C
:10030000F0B590F820500468A468012D05D0022DA6
:1003100003D0416A41F480215DE014F0406F01D1C7
:10032000E50055D5C4F30164022C03D9416A41F4B8
:10033000000150E00125A5401D608D684FF4C07399
:100340009DB1CE6835434E6845EAC605066803EBA5
:100350000417F5514FF4C275076805EB04150E69D3
:100360007E51097D012905D009E00E88CD6845EA56
:100370004655EBE701684E5946F480764E511179A7
:10038000D579567941EA056195792D0445EA062526
:1003900029434FF4C676056806EB0416A951117877
:1003A000D57841EA0561957852782D0445EA022214
:1003B00011434FF4C475026805EB041551510068F0
:1003C00003EB0411425842F0010242500020F0BDFC
:1003D000416A41F4001141620120F0BD10B590F86E
:1003E0002020012A07D0022A05D0416A41F4802149
:1003F0004162012010BD3B48D0F8002242F00102CA
:10040000C0F80022D0F8002222F47C52C0F800226A
:10041000D0F800224B6A42EA0322C0F800220A7D8B
:1004200002F01F0301229A40D0F81C329343C0F817
:100430001C32CB69B3B9D0F80C329343C0F80C32FC
:100440008C894B6864F31F434C6900EBC404C4F807
:1004500040320C890B6864F31F434C6900EBC40401
:10046000C4F84432CB69012B16D1D0F80C321343B7
:10047000C0F80C320C884B6864F31F434C6900EBE6
:10048000C404C4F840320C89CB6864F31F434C6940
:1004900000EBC404C4F844328B69002BD0F804325A
:1004A0000ED01343C0F804320B69002BD0F814327D
:1004B00008D01343C0F81432096A012904D008E0B7
:1004C0009343EFE79343F5E7D0F81C121143C0F8CC
:1004D0001C12D0F8001221F00101C0F80012002017
:1004E00010BD000000640040704730B590F8204017
:1004F000012C05D0022C03D0416A41F480215DE03B
:100500000468002955D02469A40754D04FF4D87446
:10051000056804EB01142D5915F004059560056874
:100520002D594ED0ED08556005682C5904F0020491
:10053000D4604FF4DA74056804EB01142D5905F00A
:100540000F05156105682D59C5F3072595610568E7
:100550002C59240C54614FF4DC72046802EB011234
:10056000A4581C700468A458240A5C700468A45839
:10057000240C9C700468A258120EDA704FF4DE72DC
:10058000046802EB0112A4581C710468A458240AE0
:100590005C710468A458240C9C710468A258120E63
:1005A000DA71006881B1016941F020010161002028
:1005B00030BDE468A8E7416A41F4001141620120BE
:1005C00030BD6D0D1560AFE7C16841F02001C1601D
:1005D000EDE72DE9F05F0546006800244669D0F894
:1005E00004908768D0F80CB0D0F810A0D0F818802C
:1005F000F10748D0F90714D001218160B80703D56D
:10060000284600F006FA0CE0780702D54FF40064A3
:1006100007E0380702D54FF4805402E0284600F086
:10062000F7F9F80516D529684FF480708860B80589
:1006300003D5284600F0EFF90CE0780502D544F424
:10064000005407E0380502D544F4804402E028460F
:1006500000F0E0F9F80316D529684FF4803088607F
:10066000B80303D5284600F0D8F90CE0780302D58A
:1006700044F4004407E0380302D544F4803402E037
:10068000284600F0C9F9300707D55FEACB6004D5EA
:100690002968102044F40074C86070074FF0080700
:1006A00007D55FEA0B7004D52868C760284600F0BC
:1006B00057F9B00706D52868C068800702D02846D9
:1006C00000F050F9700607D55FEACA6004D52968C2
:1006D000102044F480640861B00607D55FEA0A7010
:1006E00004D528680761284600F062F9F00606D5AF
:1006F00028680069800702D0284600F05AF9B00344
:1007000008D55FEAC96005D52968102048602846E9
:1007100000F050F9F00307D55FEA097004D52868A6
:100720004760284600F07AF9300446D55FEA497000
:1007300040D5F00504D55FEAC87001D044F001044B
:10074000B00504D55FEA887001D544F00204700555
:1007500004D55FEA487001D544F00404300529D57A
:1007600018F0700F26D008F07000402815D006DC75
:10077000102809D020280AD0302816D10AE05028A5
:100780000ED0602811D10EE044F008040DE044F0D2
:1007900010040AE044F0200407E044F0400404E0C0
:1007A00044F0800401E044F480742868816921F0F9
:1007B00070018161296804204860002C05D0686AB6
:1007C000204368622846FFF78FFEBDE8F09F70B5B2
:1007D000040003D094F8200010B104E0012070BDA3
:1007E000204600F081F82068016821F002010160D4
:1007F00000F016FA0546052604E000F011FA401B49
:100800000A2811D8206840688007F6D4206801685B
:1008100041F00101016000F003FA05460BE000F031
:10082000FFF9401B0A2806D9606A40F40030606274
:1008300084F82060D2E720684068C007EFD0207EAF
:100840000128206801683DD021F080010160607EB0
:1008500001282068016838D021F040010160A07EA5
:1008600001282068016833D021F020010160E07E7A
:100870000128206801682ED041F010010160207F1E
:1008800001282068016829D021F008010160607FFB
:1008900001282068016824D021F004010160D4E916
:1008A00002010843D4E90412114308436168491E58
:1008B00008432168C86100206062012084F820009C
:1008C000002070BD41F08001C0E741F04001C5E764
:1008D00041F02001CAE721F01001CFE741F0080103
:1008E000D4E741F00401D9E710B586B004461421DD
:1008F0006846FFF79FFC17492068884227D11648B1
:10090000016841F000710160006800F0007005901E
:1009100011481038016841F00801016000680221A7
:1009200000F0080005900320CDE900010121CDE988
:100930000210092004906946084800F083F800225C
:100940001146142000F0DAF9142000F0C9F906B0BD
:1009500010BD00000064004040380240000C02401E
:100960007047000070B50E4A0168914217D10D4BD7
:100970000D4A0021FFF7B9FD08B1FFF7A1FC0A4DB0
:100980000848297C00F032FF0024064E04E0315D67
:1009900006A000F055FF641C2869A042F7D870BD7E
:1009A000006400400C00002040000020257820005A
:1009B000704770477047000070B5044690F82000FB
:1009C000012804D0606A40F40020606218E0022030
:1009D00084F820002068016821F00101016000F026
:1009E0001FF905460EE000BF00F01AF9401B0A2867
:1009F00008D9606A40F400306062052084F8200065
:100A0000012070BD20684068C007EDD1606270BDF4
:100A100070477047704770477047704770470000D5
:100A200070B5044600F0FCF80546601C02D004488E
:100A30000078044400F0F4F8401BA042FAD370BDE3
:100A4000140000202DE9F84F00224FF00108032583
:100A50004FF00F0E0B6808FA02F42340A3426ED148
:100A60004E68012E05D0022E03D0112E01D0122E79
:100A700012D186684FEA420C05FA0CF7BE43CF68E4
:100A800007FA0CF7374387604668A6430C79C4F32E
:100A90000014944034434460C668570005FA07FCCC
:100AA0008C6826EA0C06BC403443C4604C68022CB7
:100AB00001D0122C13D1D40800EB8404A346D4F83F
:100AC000209054074FEAD46A0EFA0AF629EA06097A
:100AD0000E6906FA0AF646EA0906CBF820600668AF
:100AE0000C7926EA0C0604F00304BC40344304608D
:100AF0004C68E40065D5364C266846F4804626608E
:100B0000246822F0030604F480440094314C3444F9
:100B1000A446D4F808489607370F0EFA07F6B443F0
:100B20002D4EB04201D1002624E02C4EB04201D11E
:100B300001261FE02A4EB04202D102261AE040E010
:100B4000284EB04201D1032614E0274EB04201D115
:100B500004260FE0254EB04201D105260AE0244EBE
:100B6000B04201D1062605E0224EB04201D107264F
:100B700000E00826BE402643CCF808681E4E3468C4
:100B80004F689C43FF0300D51C4334601A4C241D5E
:100B900026684F689E43BF0300D51E432660164E4D
:100BA000083634684F689C43FF0200D51C4334600C
:100BB000114E0C3634684F689C43BF0200D51C436D
:100BC0003460521C102AFFF445AFBDE8F88F0000D6
:100BD000443802400030014000000240000402405E
:100BE00000080240000C02400010024000140240C5
:100BF00000180240001C0240003C0140006908400F
:100C000000D001207047426931EA020200D1090494
:100C1000816170470AB1816170470904FBE70000F8
:100C20000148806870470000140000200248816875
:100C30000278114481607047140000200B4810B501
:100C4000016841F400710160016841F48061016054
:100C5000016841F480710160032000F06FF800200A
:100C600000F006F800F024F8002010BD003C02401F
:100C700070B50D4D04464FF47A712878B1FBF0F051
:100C80000A490968B1FBF0F000F004FB48B9102CE8
:100C900007D200222146501E00F030F800206C6080
:100CA00070BD012070BD0000140000202000002055
:100CB0000A4808B5016841F480410160006800F409
:100CC000804000900548001F016841F0805101609C
:100CD000006800F08050009008BD000044380240D9
:100CE000002809DB00F01F0201219140400980002B
:100CF00000F1E020C0F8001170470000F0B40E4B86
:100D00001B680C46C3F30223C3F10705042D00D969
:100D10000425191D072901D2002300E0DB1E01264E
:100D200006FA05F1491E214099409E40761E164064
:100D30003143F0BC00F094BD0CED00E0064900F03A
:100D4000070208684FF6FF03184040EA0220034AF2
:100D500010430860704700000CED00E00000FA0549
:100D60002DE9F0470E46050065D0DFF81481D8F86C
:100D70000000F7B200F00F00B04207D288F8007010
:100D8000D8F8000000F00F00B04254D128683D4C64
:100D9000810712D5400703D5206840F4E050206059
:100DA0002878000703D5206840F460402060206860
:100DB000A96820F0F000084320602878C0072DD0F3
:100DC000304968680839012812D0022813D0032856
:100DD00011D00968890700292DDA216821F0030163
:100DE00001432160FFF71CFF814641F2883A0EE083
:100DF00009688903EFE709688901ECE7FFF710FF4D
:100E0000A0EB0901514502D90320BDE8F087206815
:100E1000696800F00C00B0EB810FEFD1D8F800103A
:100E2000404601F00F01B14207D90770006800F099
:100E30000F00B04201D00120E7E72878400705D530
:100E40002068E96820F4E050084320602878000713
:100E500006D52068296920F4604040EAC10020607E
:100E600000F038F82168084AC1F30311515CC8400A
:100E70000649086006480068FFF7FAFE0020C4E74C
:100E8000003C024008380240101C000820000020EE
:100E9000180000200448054900680968044AC1F3A5
:100EA0008221515CC8407047200000200838024071
:100EB000201C00080448054900680968044AC1F379
:100EC0004231515CC8407047200000200838024081
:100ED000201C0008154810B5006810F00C021448DA
:100EE00013D01449042A0FD0082A0ED10F4C241F06
:100EF0002268236802F03F025B0207D52068C0F336
:100F00008810A0FB010106E0084610BD2168C1F36E
:100F10008811A1FB00010023FFF754F92168C1F3F8
:100F20000141491C4900B0FBF1F010BD08380240F6
:100F30000024F40040787D012DE9F84F040076D0BC
:100F40002078DFF838A3CE4DC00749D0DAF800107A
:100F50005046C1F38101012908D00068C0F3810027
:100F600002280AD1281D0068400206D5286880039F
:100F700036D560680028E2D032E06068B0F5803F86
:100F800010D0B0F5A02F286810D020F48030286051
:100F9000286820F4802028606068A0B1FFF740FE38
:100FA00006460CE0286840F48030F4E740F48020E6
:100FB0002860F7E7FFF734FE801B642873D82868A1
:100FC0008003F7D50CE0FFF72BFE064605E000BFD7
:100FD000FFF726FE801B6428F0D828688003F7D42A
:100FE0002078DFF8A08280074FF000093ED5DAF8BC
:100FF0000010504611F00C0F09D00068C0F38100BA
:1010000002280BD19D48001F0068400206D42868C2
:10101000800715D5E068012809D111E0E068B8B172
:101020000120C8F80000FFF7FBFD064605E020E1BF
:10103000FFF7F6FD801B0228C0D828688007F7D587
:101040002868216920F0F80040EAC10028600DE01E
:10105000C8F80090FFF7E4FD064604E0FFF7E0FD66
:10106000801B02281FD828688007F7D42078000743
:1010700022D5824E844861696C3671B101210160CC
:10108000FFF7CEFD074604E0FFF7CAFDC01B0228AC
:1010900009D830688007F7D50EE0C0F80090FFF758
:1010A000BFFD074605E082E0FFF7BAFDC01B02283E
:1010B0007DD830688007F7D42078400768D5DFF8FE
:1010C000BCB100270BF1380BDBF80000C0000BD4DB
:1010D000DBF8001041F08051CBF80010DBF8000085
:1010E000012700F080500090684E3068C00510D491
:1010F000306840F480703060FFF792FD009005E0AA
:10110000FFF78EFD0099401A022850D83068C005BC
:10111000F6D55A4EA068683601280FD005283068E9
:1011200010D020F001003060306820F00400306002
:10113000A068B8B1FFF774FD00900FE0306840F090
:101140000100F4E740F004003060F7E7FFF768FDC6
:101150000099411A41F28830814266D83068800790
:10116000F4D50EE0FFF75CFD009007E0FFF758FDB7
:101170000099411A41F28830814256D83068800780
:10118000F4D42FB1DBF8001021F08051CBF800101F
:10119000A069D0B3DAF800205146C2F38102022AD6
:1011A0004AD00228484607D0C8F8600000E03CE07A
:1011B000FFF736FD04463BE04746C8F86000FFF7FE
:1011C0002FFD064605E000BFFFF72AFD801B022821
:1011D0002BD828688001F7D4D4E907010843A16A15
:1011E0002B4A490802EB0141626A41EA8211084335
:1011F00094F82C1040EA01612048001F0160012092
:101200003866FFF70DFD044605E034E0FFF708FD02
:10121000001B022809D828688001F7D52BE000BF01
:10122000FFF7FEFC001B022802D90320BDE8F88F5F
:1012300028688001F4D41EE00128F7D00868E2692C
:1012400000F48001914214D1226A00F03F019142E2
:101250000FD147F6C071626A0140914209D1A26A7A
:1012600000F44031914204D1E16A00F0706088429C
:1012700001D00120DAE70020D8E70000083802405A
:101280000038024000004742800E47420070004094
:101290000000FFFF10B5401EB0F1807F01D3012098
:1012A00010BD4FF0E02460610F21601700F0D8FA04
:1012B0000020A06107202061002010BD70B504004F
:1012C00004D094F83900002510B106E0012070BD6B
:1012D00084F83850204600F023F8242084F83900A0
:1012E0002068C16821F40051C160204600F0B8F9BF
:1012F0002068016921F4904101612068416921F071
:101300002A0141612068C16841F40051C160E56370
:10131000202084F8390084F83A00002070BD0000D5
:1013200010B586B0044614216846FEF783FF1449C1
:101330002068884221D11348016841F01001016002
:10134000006800F0100005900E481438016841F064
:10135000010101600068694600F0010005904FF44A
:10136000C0600090022001900120029003200390B1
:10137000072004900448FFF765FB06B010BD00008D
:101380000010014044380240000002402DE9F843BB
:10139000044690F839001F4616460D46202850D1C5
:1013A000B5B1AEB194F8380001284AD0012084F8D4
:1013B00038004FF00008C4F83C80212084F8390040
:1013C000FFF72EFCA6848146E68484F8388026E068
:1013D0000120BDE8F883E08C401EE084A0684B4605
:1013E000B0F5805F4FF000024FF08001204600977B
:1013F00003D000F0C9F9E8B90DE000F0C5F9C8B9AB
:1014000028882168C0F308004860206908B16D1C75
:1014100005E0AD1C03E0216815F8010B4860E08C85
:101420000028D8D14B46002240212046009700F0EA
:10143000ABF908B10320CCE7202084F83900002064
:10144000C7E70220C5E7FEE710B51F488AB01D496F
:10145000016006210024C0E901144FF4A021C0E975
:1014600003414FF4C0014161047644768476C4762A
:1014700004774477FFF7ABF908B1FEF721FF0120AD
:10148000CDE906400394089004940E200594099039
:1014900000940194029469460B48FEF79FFF08B13F
:1014A000FEF70EFF0848FFF787FA08B1FEF708FFBE
:1014B00002210548FEF712FF002801D0FEF700FFC9
:1014C0000AB010BD006400405C00002070B586B01A
:1014D00014216846FEF7AEFE22480024016841F060
:1014E00004010160016801F004010591016841F007
:1014F00080010160016801F080010591016841F0FF
:1015000010010160016801F010010591016841F0CE
:1015100001010160016801F001010591016841F0DC
:10152000080101600068104E00F008004FF40055FB
:101530000590002229463046FFF76CFBE810CDE904
:101540000004694630460294FFF77CFA01200095BA
:10155000CDE901040320039069463046FFF772FA93
:1015600006B070BD30380240001002400C4810B583
:101570000A4901604FF4E1314160002181600C2291
:10158000C160C0E904128161C161FFF797FE0028C4
:1015900003D0BDE81040FEF793BE10BD001001401F
:1015A00084000020FEE7704770477047FFF73EBB9E
:1015B00030B593B030216846FEF73CFE14210CA8EC
:1015C000FEF738FE1D480025016841F0805101609A
:1015D000006800F0805011901948016841F4804182
:1015E00001600068022400F4804011900120039003
:1015F00010200490009406940820CDE90750A820FC
:10160000CDE9090404200B906846FFF795FC08B16A
:10161000FEF756FE0CA90F2081E831004FF4A050D0
:101620000F904FF48050109005210CA8FFF798FB05
:10163000002801D0FEF744FE13B030BD4038024010
:10164000007000400548016841F4700101600349E1
:101650004FF00060803908607047000088ED00E0BE
:101660002DE9F041044600680169E26821F4405127
:10167000114301612169A068E2690843616911436E
:1016800008432168CA6849F20C639A430243CA605E
:1016900020684169A26921F4407111434161E06908
:1016A000192764253226B0F5004F354A35492068A0
:1016B0004FF0000806D0884201D0904236D1FFF7A3
:1016C000F9FB35E0884201D0904202D1FFF7F2FBEE
:1016D00001E0FFF7DFFB61684A18A0FB070148EB58
:1016E0000803FEF76FFD0146B0FBF5F00201B1FB08
:1016F000F5F06FF01803584301EB800006EBC000D3
:10170000B0FBF5F000F0F80002EB4002B1FBF5F0A1
:10171000584301EB800006EBC000B0FBF5F000F091
:101720000700216810448860BDE8F081FFF7B2FB34
:1017300061688B0F8A00A0FB0701FEF743FD01469D
:10174000B0FBF5F06FF01802504301EB800006EBA0
:101750000010B0FBF5F000F0F002B1FBF5F002EB89
:101760000012B1FBF5F06FF01803584301EB800055
:1017700006EB0010B0FBF5F000F00F00D1E7000021
:1017800000140140001001402DE9F0419846174631
:101790000E460446069D1DE0681C1BD02DB1FFF7C8
:1017A0003FFAA0EB0800A84214D92068C16821F4D0
:1017B000D071C1602068416921F0010141612020A0
:1017C00084F8390084F83A00002084F838000320B7
:1017D000BDE8F0812068006836EA000004D00020EF
:1017E000B842D9D00020F3E70120F9E710B5104A3C
:1017F000104C0023C2E9003404249460C2E9033190
:1018000013751A460C4B02E0845C9C54521C8A42AD
:10181000FADB094B06491B1F1A1D01F13400FEF7C4
:101820006FFD002803D0BDE81040FEF749BD10BD94
:10183000280000202050341204000020FEE70000A1
:101840000FB4054B10B503A9044A029800F028F81C
:1018500010BC5DF814FB0000611B00082400002090
:101860000907090E002804DB00F1E02080F80014CD
:10187000704700F00F0000F1E02080F8141D704761
:1018800002E008C8121F08C1002AFAD17047704749
:10189000002001E001C1121F002AFBD170470000A7
:1018A0002DE9FF4F8DB09B460F460446002606E00B
:1018B00025280BD05A460F999047641C761C207837
:1018C0000028F5D111B03046BDE8F08F0025A846BC
:1018D0000122984900E0054314F8013F203B02FA39
:1018E00003F00842F7D120782E2817D114F8010F01
:1018F00045F004052A280ED06FF02F022078A0F1C1
:10190000300109290AD808EB880102EB410100EBFC
:101910000108641CF2E757F8048B641C20786C28DB
:101920000DD004DC4C2812D06A2811D104E07428B0
:101930000DD07A280CD10AE045F4001507E0617853
:1019400045F48015814202D1641C05F58015641CA4
:101950002078692844D008DC0028B3D0582867D004
:1019600063280FD0642808D13AE0702865D0732826
:1019700012D075285AD078285AD05A460F999047D5
:10198000761CD5E017F8040B8DF8000000208DF8C8
:101990000100E946012003E057F8049B4FF0FF30B7
:1019A00069074FF0000501D40AE06D1C45450DDACA
:1019B0008542FADB19F805100029F6D106E06D1C06
:1019C0008542FCDB19F805100029F8D12E4404E00B
:1019D00019F8010B5A460F9990476D1EF8D2A7E0EF
:1019E0000A200021CDE90801C5F3025002280CD0DD
:1019F00001CFC117021E71F100020CDA0023D0EBF7
:101A0000030063EB01012D2208E0FF1D27F007070B
:101A1000F7E80201EEE72A0504D52B228DF82820ED
:101A200001223CE0EA073AD02022F7E70A2000E052
:101A300010200021CDE9080107E01020002145F029
:101A40000405CDE908014FF00808C5F3025002284B
:101A500010D001CF00214FF0000A2A0720D52278AC
:101A6000702A0DD0DDE908C38CF0100C5CEA030C81
:101A70000CD015E0FF1D27F00707F7E80201EAE7A1
:101A800040228DF828204FF0010A0CE050EA0103B3
:101A900006D030238DF828308DF829200222924676
:101AA0002278582A04D024A20DF120090B9209E0D3
:101AB00026A2F9E7DDE90823FEF784FB0B9B9B5C7C
:101AC00009F8013D50EA0102F4D1ADEB09002030E4
:101AD0000890680701D44FF001080899884503DD94
:101AE0000898A8EB000000E000208046002506E0F2
:101AF0000AA85A46405D0F9990476D1C761C5545C3
:101B0000F6DB04E030205A460F999047761CB8F176
:101B10000001A8F10108F5DC05E019F8010B5A46AF
:101B20000F999047761C0899481E08900029F4DC0C
:101B3000641CC4E6092801003031323334353637AD
:101B40003839616263646566000000003031323309
:101B500034353637383941424344454600000000A9
:101B600038B504468DF800004FF47A7301226946B7
:101B70000248FFF70BFC204638BD0000840000201F
:101B80001CB5FFF75BF8FFF713FDFFF79FFCFFF7AE
:101B9000EDFCFFF759FC19A11A4DD1E90001002411
:101BA0004FF480664FF4FA774FF40058CDE9000106
:101BB00031462846FFF722F8A0B90A20FEF730FF89
:101BC00031462846FFF71AF830B90FA0FFF738FE64
:101BD00008216846FFF70AFE31462846FFF70EF84F
:101BE0000028F9D00120FEF71BFF641CBC42DFD1A6
:101BF00041462846FFF707F80024D9E7FF63594D0F
:101C0000424220380010024068656C6C6F0D0A007B
:101C1000000000000000000001020304060708099C
:101C20000000000001020304481C0008000000201E
:101C30002800000080180008701C00082800002000
:101C4000A020000090180008000000000000000024
:101C50000000000000000000000000000100000083
:101C600010000000000000000024F400000000004C
:040000050800018965
:00000001FF
