:020000040800F2
:100000007006002029020008790A0008750A000815
:10001000770A00081F040008250B000800000000F4
:100020000000000000000000000000007D0A000841
:1000300021040008000000007B0A00087F0A000875
:10004000430200084302000843020008430200087C
:10005000430200084302000843020008430200086C
:10006000430200084302000843020008430200085C
:10007000430200084302000843020008430200084C
:10008000430200084302000843020008430200083C
:10009000430200084302000843020008430200082C
:1000A000430200084302000843020008430200081C
:1000B000430200084302000843020008430200080C
:1000C00043020008430200084302000843020008FC
:1000D00043020008430200084302000843020008EC
:1000E00043020008430200084302000843020008DC
:1000F00043020008430200084302000843020008CC
:1001000043020008430200084302000843020008BB
:1001100043020008430200084302000843020008AB
:10012000430200084302000843020008430200089B
:10013000430200084302000843020008430200088B
:10014000430200084302000843020008430200087B
:10015000430200084302000843020008430200086B
:10016000430200084302000843020008430200085B
:100170004302000843020008430200080000000098
:10018000430200084302000800F002F800F03CF8C7
:100190000AA090E8000C82448344AAF10107DA45E2
:1001A00001D100F031F8AFF2090EBAE80F0013F0F8
:1001B000010F18BFFB1A43F001031847B0090000F4
:1001C000D0090000103A24BF78C878C1FAD8520785
:1001D00024BF30C830C144BF04680C6070470000C1
:1001E0000023002400250026103A28BF78C1FBD840
:1001F000520728BF30C148BF0B6070471FB500F0E1
:10020000A7FC1FBD10B510BD00F0CFF81146FFF7D9
:10021000F5FF00F098FC00F0EDF803B4FFF7F2FFF3
:1002200003BC00F0F5F80000094880470948004782
:10023000FEE7FEE7FEE7FEE7FEE7FEE7FEE7FEE796
:10024000FEE7FEE704480549054A064B70470000F3
:10025000150B0008890100087000002070060020BE
:10026000700200207002002053EA020C00F0698046
:100270002DE9F04B4FF00006002B1FBFB3FA83F5BA
:1002800003FA05F424FA05F65E4012BF1643B2FAEB
:1002900082F502FA05F4C5F120051EBF22FA05FC1D
:1002A00044EA0C04203556EA044C4FEA144418BFC3
:1002B000641C4FF000084FF00009904271EB030CF2
:1002C00039D3002919BFB1FA81F701FA07F6B0FA5C
:1002D00080F700FA07F6C7F120071EBF20FA07FCD7
:1002E00046EA0C062037B6FBF4FCA7EB0507103FE7
:1002F00007F01F0BCBF120060CFA0BFB2CFA06F6CD
:1003000044BFB3460026202FA4BF5E464FF0000B2B
:100310005BEA060C08BF4FF0010B19EB0B09ABFBB6
:10032000027C48EB0608C01B06FB02CC0BFB03CC8F
:1003300071EB0C01C1E70B46024641464846BDE859
:10034000F08B13B54FF000004FF00001AFF30080C9
:10035000BDE81C4070474FF0000200B513469446BC
:100360009646203922BFA0E80C50A0E80C50B1F10D
:100370002001BFF4F7AF090728BFA0E80C5048BF21
:100380000CC05DF804EB890028BF40F8042B08BFBF
:10039000704748BF20F8022B11F0804F18BF00F8BB
:1003A000012B7047704770477047754600F02CF876
:1003B000AE4605006946534620F00700854618B052
:1003C00020B5FFF73FFFBDE820404FF000064FF09B
:1003D00000074FF000084FF0000B21F00701AC467A
:1003E000ACE8C009ACE8C009ACE8C009ACE8C00999
:1003F0008D46704710B50446AFF300802046BDE837
:100400001040FFF70ABF00000048704710000020AE
:1004100001491820ABBEFEE7260002007047FEE748
:10042000704700000148806870470000000000200D
:100430000248816802781144816070470000002002
:100440000B4810B5016841F400710160016841F486
:1004500080610160016841F480710160032000F057
:1004600061F80F2000F006F800F024F8002010BD1D
:10047000003C024070B50D4D04464FF47A71287867
:10048000B1FBF0F00A490968B1FBF0F000F0DEFAC8
:1004900048B9102C07D200222146501E00F022F845
:1004A00000206C6070BD012070BD000000000020C5
:1004B0000C0000200A4808B5016841F48041016041
:1004C000006800F4804000900548001F016841F07A
:1004D00080510160006800F08050009008BD00006D
:1004E00044380240F0B40E4B1B680C46C3F30223A1
:1004F000C3F10705042D00D90425191D072901D2D0
:10050000002300E0DB1E012606FA05F1491E21400A
:1005100099409E40761E16403143F0BC00F003BB6C
:100520000CED00E0064900F0070208684FF6FF03F3
:10053000184040EA0220034A104308607047000058
:100540000CED00E00000FA052DE9F0470E4605002D
:1005500065D0DFF81481D8F80000F7B200F007008A
:10056000B04207D288F80070D8F8000000F0070009
:10057000B04254D128683D4C810712D5400703D5BD
:10058000206840F4E05020602878000703D52068F8
:1005900040F4604020602068A96820F0F000084323
:1005A00020602878C0072DD03049686808390128B4
:1005B00012D0022813D0032811D009688907002916
:1005C0002DDA216821F0030101432160FFF72AFFA2
:1005D000814641F2883A0EE009688903EFE709682D
:1005E0008901ECE7FFF71EFFA0EB0901514502D995
:1005F0000320BDE8F0872068696800F00C00B0EBCC
:10060000810FEFD1D8F80010404601F00701B14248
:1006100007D90770006800F00700B04201D0012040
:10062000E7E72878400705D52068E96820F4E0501E
:10063000084320602878000706D52068296920F43F
:10064000604040EAC100206000F018F82168084AC4
:10065000C1F30311515CC8400649086006480068B0
:10066000FFF708FF0020C4E7003C024008380240C2
:100670005A0B00080C00002004000020154810B59B
:10068000006810F00C02144813D01449042A0FD04B
:10069000082A0ED10F4C241F2268236802F03F0263
:1006A0005B0207D52068C0F38810A0FB010106E0BB
:1006B000084610BD2168C1F38811A1FB0001002389
:1006C000FFF7D2FD2168C1F30141491C4900B0FB8D
:1006D000F1F010BD083802400024F40040787D019C
:1006E0002DE9F84F04006ED02078DFF84C93C00756
:1006F000A9F104054AD009F104000168C1F38101A0
:10070000012908D00068C0F3810002280AD1D9F875
:100710000000400206D52868800337D560680028AD
:10072000E1D033E06068B0F5803F10D0B0F5A02F85
:10073000286810D020F480302860286820F48020B9
:1007400028606068A8B1FFF76DFE06460DE02868D6
:1007500040F48030F4E740F480202860F7E700BFE1
:10076000FFF760FE801B642873D828688003F7D5E4
:100770000CE0FFF757FE064605E000BFFFF752FE0C
:10078000801B6428F0D828688003F7D42078DFF82D
:10079000AC8280074FF0000A3ED5A748001D0168D3
:1007A00011F00C0F08D00068C0F3810002280BD1B3
:1007B000D9F80000400207D42868800716D5E06801
:1007C000012800D112E033E1E068B8B10120C8F897
:1007D0000000FFF727FE064605E000BFFFF722FEF8
:1007E000801B0228C0D828688007F7D528682169AF
:1007F00020F0F80040EAC10028600DE0C8F800A031
:10080000FFF710FE064604E0FFF70CFE801B0228EF
:100810001FD828688007F7D42078000722D5864F94
:1008200087486169703771B101210160FFF7FAFDF6
:10083000064604E0FFF7F6FD801B022809D8386859
:100840008007F7D50EE0C0F800A0FFF7EBFD0646E5
:1008500005E082E0FFF7E6FD801B02287DD83868BE
:100860008007F7D42078400768D5DFF8CCB100279F
:100870000BF13C0BDBF80000C0000BD4DBF80010E0
:1008800041F08051CBF80010DBF80000012700F0A8
:10089000805000906B4E3068C00510D4306840F432
:1008A00080703060FFF7BEFD009005E0FFF7BAFDF5
:1008B0000099401A022850D83068C005F6D55E4E1F
:1008C000A0686C3601280FD00528306810D020F0C1
:1008D00001003060306820F004003060A068B8B1DA
:1008E000FFF7A0FD00900FE0306840F00100F4E752
:1008F00040F004003060F7E7FFF794FD0099411ADB
:1009000041F28830814266D830688007F4D50EE025
:10091000FFF788FD009007E0FFF784FD0099411A7A
:1009200041F28830814256D830688007F4D42FB124
:10093000DBF8001021F08051CBF80010A069C8B39B
:100940003D49091D0968C1F3810102294AD00228E5
:10095000504607D0C8F8600000E03CE0FFF762FDB9
:1009600004463BE04746C8F86000FFF75BFD0646DB
:1009700005E000BFFFF756FD801B02282BD8286832
:100980008001F7D4D4E907010843A16A2E4A490837
:1009900002EB0141626A41EA8211084394F82C108B
:1009A00040EA0161C9F8001001203866FFF73AFDFE
:1009B000044606E03EE000BFFFF734FD001B0228BE
:1009C00009D828688001F7D534E000BFFFF72AFD79
:1009D000001B022802D90320BDE8F88F2868800197
:1009E000F4D427E00128F7D0D9F80000E26900F438
:1009F000800191421CD1226A00F03F01914217D13F
:100A000047F6C071626A0140B1EB821F10D1A26A41
:100A10004FF0FF3300F4403103EB5202B1EB024FD1
:100A200006D194F82C1000F07060B0EB016F01D08B
:100A30000120D1E70020CFE7043802400000474200
:100A4000800E4742007000400000FFFF10B5401EBE
:100A5000B0F1807F01D3012010BD4FF0E024606130
:100A60000F21601700F05FF80020A06107202061CF
:100A7000002010BDFEE7FEE7FEE770477047FFF776
:100A8000D7BC000030B593B030216846FFF763FC57
:100A900014210CA8FFF75FFC1C480025016841F0F9
:100AA00080510160006800F0805011901848016882
:100AB00041F4804101600068022400F480401190FC
:100AC0000120039010200490009406940820CDE9A2
:100AD00007506020CDE9090404200B906846FFF719
:100AE000FFFD08B172B6FEE70F20CDE90C048020AF
:100AF0000E904001CDE90F0501210CA8FFF724FD60
:100B0000002801D072B6FEE713B030BD4038024075
:100B1000007000400248016841F4700101607047B4
:100B200088ED00E0FEE70907090E002804DB00F16C
:100B3000E02080F80014704700F00F0000F1E02082
:100B400080F8141D7047FFF77BFCFFF79BFFFEE763
:100B50004FF04070E1EE100A704700000000000006
:100B60000000010203040607080900008C0B0008BE
:100B70000000002010000000C40100089C0B0008C9
:100B80001000002060060000E001000801000000E5
:0C0B900010000000000000000024F40031
:040000050800018965
:00000001FF
