:020000040800F2
:10000000480700204102000855190008511900084E
:10001000531900087D120008991D00080000000017
:100020000000000000000000000000005919000856
:10003000E912000800000000571900085B190008C9
:100040005B0200085B0200085B0200085B0200081C
:100050005B0200085B0200085B0200085B0200080C
:100060005B0200085B0200085B0200085B020008FC
:100070005B0200085B0200085B0200085B020008EC
:100080005B0200085B0200085B0200085B020008DC
:100090005B0200085B0200085B0200085B020008CC
:1000A0005B0200085B0200085B0200085B020008BC
:1000B0005B0200085B0200085B0200085B020008AC
:1000C0005B0200085B0200085B0200085B0200089C
:1000D0005B0200085B0200085B0200085B0200088C
:1000E0005B0200085B0200085B0200085B0200087C
:1000F0005B0200085B0200085B0200085B0200086C
:100100005B0200085B0200085B0200085B0200085B
:100110005B0200085B0200085B0200085B0200084B
:100120005B0200085B0200085B0200085B0200083B
:100130005B0200085B0200085B0200085B0200082B
:100140005B0200085B0200085B0200085B0200081B
:100150005B0200085B0200085B0200085B0200080B
:100160005B0200085B0200085B0200085B020008FB
:100170005B0200085B0200085B0200080000000050
:100180005B0200085B02000800F002F800F049F88A
:100190000AA090E8000C82448344AAF10107DA45E2
:1001A00001D100F03EF8AFF2090EBAE80F0013F0EB
:1001B000010F18BFFB1A43F0010318475421000038
:1001C00074210000103A24BF78C878C1FAD85207C9
:1001D00024BF30C830C144BF04680C6070470000C1
:1001E0000023002400250026103A28BF78C1FBD840
:1001F000520728BF30C148BF0B607047662902F024
:100200003680002070471FB502F027F800F0EEFAA4
:1002100004000020002101F069FEE0601FBD10B560
:1002200010BD00F0FBFB1146FFF7EDFF01F0EEFD06
:1002300000F019FC03B4FFF7F2FF03BC00F05CFC14
:100240000948804709480047FEE7FEE7FEE7FEE76A
:10025000FEE7FEE7FEE7FEE7FEE7FEE704480549A6
:10026000054A064B70470000611900088901000823
:1002700048010020480700204803002048030020D0
:100280000FB4044910B503AA029800F09DFA10BCFF
:100290005DF814FB100000202DE9F0474FF0000A34
:1002A00089460446C0F820A02046E1688847002817
:1002B00076D0252806D0D4E901219047206A401C39
:1002C0002062F1E7E168204600258847C4F81CA0B9
:1002D00006460027C4F818A02A2E09D0304601F09F
:1002E00084FD38B304EB8708303EC8F8186019E085
:1002F00059F8041B204604EB87029161E1688847A6
:10030000012F064618D1E069002820DA25F02005E3
:100310001DE0D8F8180000EB800006EB40003038F4
:10032000C8F818002046E1688847064601F05DFDE0
:100330000028EED1012F0AD02E2E08D12046E168E8
:1003400088477F1C0646022F45F02005C4DBA069C4
:10035000002803DA404245F00105A061E80701D01A
:1003600025F01005B6B1A6F14100192802D82036B3
:1003700045F400654A463146204625604D46FFF764
:100380003DFF58B1012806D0ED1D25F0070000F112
:10039000080989E704E005F1040985E730468AE7A2
:1003A000206ABDE8F08770477047704770472DE9B5
:1003B000FF4F0C461E464FF0FF378BB0D2E90001CD
:1003C000DDF860800A908A46C1F30A5505B93D46BA
:1003D000002108464FF00000BAF1000F00F4400081
:1003E00005DA00EB80004FF4400101EA50004FEACB
:1003F0009059B9F1010F00DDB9460A9850EA4A0058
:100400000ED044F61050A5F2FF3545432F14B8F135
:10041000000F1ED07542291E1EDDC9F100021CE02E
:10042000B8F1010F4FF0000001D0302103E0F2439A
:1004300005E02154401CB042FBDB30460022002185
:1004400021540B99C1F80880C1E900200FB0BDE824
:10045000F08FBD1B6D1CDEE74A4600DA694206A834
:1004600000F066FA06AB93E8070003AB83E80700E9
:1004700050460A9900F047FB8DE80700A0F50050B0
:100480001F3800900398002D09DD42F21F014A46F3
:10049000084403A90390684600F0A6FD08E0A0F513
:1004A00000504A461F3803A90390684600F0B0FD8B
:1004B0008DE807000004000C03D04FF0FF30410826
:1004C00000E01046B8F1000F03D00022009215465C
:1004D0001EE0751E05D400F08DF9303262556D1E98
:1004E000F9D5B3460122084302D000227F1C04E064
:1004F0002078302801D100227F1E002A099786D05B
:100500001DE0112D07DA00F075F9303262556D1CCF
:1005100050EA0102F5D1084302D00098C8B10EE0BC
:100520000021681E05E0235C625C63542254401E77
:10053000491C8142F7DBAB46A81B401E09900020F6
:1005400004F80B000B98099AC0F80880C0E9002B4A
:100550007CE711264FF0000859E72DE9F04F884657
:100560000446D21D22F0070191B0D1E90001CDE986
:100570000A0101F012FC02460B98C00F01D02D2099
:1005800007E02068810701D52B2002E0202101EA45
:10059000C000032A099001D0072A05DB0346414623
:1005A000204600F085F90BE12078800601D5E0694E
:1005B00000E00620B8F1650F814606D0B8F1660F5D
:1005C00018D0B8F1670F70D131E00020B9F1110FE8
:1005D000009001DB112301E009F101030AAA01A93E
:1005E0000CA8FFF7E4FEDDE90C70002609F1010517
:1005F000834647E001204B4600904FF000470AAA8F
:1006000001A90CA8FFF7D3FEDDE90DB00C995D46FA
:10061000002610B909F101000D18B9EB050003D44B
:10062000C0F1FF3609F10105A5EB09002BE0B9F196
:10063000010F01DA4FF001090020B9F1110F00900C
:10064000484601DD112300E003460AAA01A90CA8CF
:10065000FFF7ADFEDDE90C704D460026834620789D
:1006600000070AD4AB4500DA5D4601A8012D04DD80
:10067000411911F8011C302907D04F4502DA17F152
:10068000040F04DA012082460FE06D1EEEE7002F12
:1006900002DCED1B3E4403E0781CA84200DD7D1C1B
:1006A000B81B00F1010A4FF000472078000703D47F
:1006B000AA4501DB4FF0FF3A0021B7F1004F0DF1E1
:1006C00043088DF8431024D002202B23002F01DA99
:1006D0007F422D230A21021EA0F1010000DC5FB140
:1006E00097FBF1FC97FBF1F201FB1C7C17460CF128
:1006F000300C08F801CDEEE7A8F101000370218865
:10070000090501D5452100E06521A0F1010800F8A7
:10071000011C09980FA9A1EB0807FF1D00B10120DA
:10072000411901EBEA70A1693844081A401EA06122
:100730002078C00602D42046AFF30080099828B183
:10074000D4E901219047206A401C20622078C0062D
:1007500022D52046AFF300801EE0002E04DBB34517
:1007600002DD01A8805D00E03020D4E9012190473E
:10077000206A401C2062761CAAF101005FEA000A90
:100780000AD100F033F8C0680168405CD4E9012167
:100790009047206A401C2062281EA5F10105DCDC80
:1007A00007E0D4E9012118F8010B9047206A401CAA
:1007B0002062381EA7F10107F3DC2046AFF300806A
:1007C000032011B043E60000074B70B50D467B4493
:1007D00000F05BF80446284600F018F910B14FF01D
:1007E000FF3070BD204670BD2716000000487047DE
:1007F0000801002030B5B0F10A024FEA900E71F105
:1008000000034EEA817EB0EB0E0061EB91014FEAEE
:10081000101E4EEA017E10EB0E0041EB11114FEA63
:10082000102E4EEA016E10EB0E0041EB11214FEA43
:10083000104E4EEA014E10EB0E0041EB11414018F4
:1008400041F100014FEAD00040EA41704FEAD10186
:1008500010EB80054FEA810444EA907444EB0104F4
:100860006D1944EB0404521BA3414FF0000348BF31
:100870000A3200D530BD401C41F1000130BD0000FE
:1008800001694A1C02610878704700B58FB0CDE954
:1008900001310021059105497944CDE90310114644
:1008A0006846FFF7F9FC0FB000BD0000E5FFFFFF51
:1008B0002DE9F0411F46044603260168072A01F48A
:1008C000006004DB08B116A505E016A503E008B139
:1008D00015A500E015A521F010002060A069C01E3C
:1008E000A0610FB1401EA0612046AFF300804FB160
:1008F000D4E9012138469047206A401C2062C01C80
:10090000206206E0206AFAE7D4E9012115F8010B1C
:100910009047761EF8D22046AFF30080BDE8F08104
:100920004E414E006E616E00494E4600696E660093
:100930002DE9F047814616468AB0334878440DC801
:100940008DE80D0030487844801C03AC0DC884E865
:100950000D0041F69B300844372190FBF1F290FBEB
:10096000F1F5A5F1800501FB12041B3C02D56442A0
:10097000012000E00020DFF890A080460027FA4424
:10098000AAF1BE0A0DE0E00709D03246684607EB3F
:1009900047010AEB810100F03BFB8DE80700641082
:1009A0007F1C002CEFD1184F7F44AC3F18E0E807C4
:1009B00014D007EB04100DF1180A90E80E008AE835
:1009C0000E00C068F04201D198190890324606A97D
:1009D00003A800F01DFB03AB83E807006D10641C47
:1009E000002DE4D132466946B8F1000F03A802D0C9
:1009F00000F0FAFA01E000F00BFBC9E90001C9F8C8
:100A000008200AB0BDE8F087B8190000007B00F0AC
:100A10008000704700487047E80000207546FFF7E7
:100A2000F9FFAE4605006946534620F007008546AB
:100A300018B020B5FFF712FCBDE820404FF00006CB
:100A40004FF000074FF000084FF0000B21F00701B6
:100A5000AC46ACE8C009ACE8C009ACE8C009ACE8F9
:100A6000C0098D46704710B50446AFF3008020469C
:100A7000BDE81040FFF7DEBB4FF0013C50F8042BFF
:100A800051F8043B9A4221D1A2EB0C03934313EAA1
:100A9000CC1317D150F8042B51F8043B9A4215D1CE
:100AA000A2EB0C03934313EACC130BD150F8042BA5
:100AB00051F8043B9A4209D1A2EB0C03934313EA89
:100AC000CC13DBD04FF00000704700BFD01A01BA42
:100AD000B1FA81F101F0180122FA01F0CB40C1F125
:100AE0002001DBB2C0B2C01A2CFA01F3D11A914333
:100AF00011EAC311E6D1704701491820ABBEFEE7E9
:100B00002600020070475FEA400C08BF91F0000F1A
:100B10004FEA8C234FEAC12243EA51514FEA1C505D
:100B200018BF00F5F0404FEA300018BF41F0004117
:100B30005FEA6C5C00F02980BCF1FF3F08BF40F029
:100B400080407047130C06BF12044FF0100C4FF09A
:100B5000000C130E04BF12020CF1080C130F04BF9B
:100B600012010CF1040C930F04BF92000CF1020C63
:100B7000D30F04BF52000CF1010C11464FF00002DC
:100B8000A0F11F00A0EB0C00704711F0004F08BF50
:100B9000704731F000413FF4D5AF0B0C06BF09049C
:100BA0004FF0100C4FF0000C0B0E04BF09020CF1BB
:100BB000080C0B0F04BF09010CF1040C8B0F04BFD0
:100BC00089000CF1020CCB0F04BF49000CF1010CA1
:100BD000CCF12003A0EB0C0022FA03F302FA0CF292
:100BE00041EA030100F10100704720F07F4C80EAE8
:100BF000030023F07F47ACEB070303F57C5300F0C1
:100C0000004003F1FF032DE980494FEA154B09B479
:100C10004FEA144325EA0B4E24EA03480FF2042658
:100C200006EB132749083E785FEA320203FB0667AA
:100C3000C7F5000707FB06F64FEA54374FEAD646DA
:100C400006F1020607FB066CCCF1005C4FEA1C477C
:100C50002CEA074C07FB06F40CFB06F504EB1546E3
:100C60004FEA961634BF00204FF000404FEAD137CC
:100C700006FB07FC4FEA1C4C0CFB0BF7D21B03FBDB
:100C80000CF761EB07010CFB0EF7B0EB074072EBC2
:100C900017420CFB08F734BFA2EB0742B2EB074246
:100CA00061EB17414FEA0C444FEA910706FB07FC42
:100CB0004FEA1C4C0CFB0BF7B0EBC74072EB573202
:100CC00003FB0CF734BFA2EBC742B2EBC74261EBA8
:100CD00057310CFB0EF7B0EBC70072EB57720CFBF1
:100CE00008F734BFA2EBC702B2EBC70261EB577142
:100CF000039F4FEA816141EA921104EBCC044FEA71
:100D0000D1374FEA826206FB07FC42EA90124FEAB3
:100D100080604FEA1C4C0CFB0BF7D21B03FB0CF75B
:100D200061EB07010CFB0EF7B0EB074072EB1742CB
:100D30000CFB08F734BFA2EB0742B2EB074261EBB2
:100D400017414FEA8C554FEA910704EB9C2406FBB0
:100D500007FC4FEA1C4C0CFB0BF7B0EBC74072EBE7
:100D6000573203FB0CF734BFA2EBC742B2EBC742CA
:100D700061EB57310CFB0EF7B0EBC70072EB57720B
:100D80000CFB08F734BFA2EBC702B2EBC70261EB62
:100D9000577115EB4C254FEA816141EA92114FEAF8
:100DA00082624FEAD13742EA901206FB07FC44F117
:100DB00000044FEA80604FEA1C4C0CFB0BF7D21B7F
:100DC00003FB0CF761EB07010CFB0EF7B0EB0740E0
:100DD00072EB17420CFB08F734BFA2EB0742B2EBF1
:100DE000074261EB174115EB1C154FEA813141EACF
:100DF00092414FEA823242EA90424FEA80304FEA13
:100E00000C7644F1000448EA03434EEA0B484FF0E5
:100E1000000EB2EB080C71EB030724BF62463946A3
:100E20004EEB0E0E4FF0000B0018524149414BEBB8
:100E30000B0BB2EB080C71EB03077BF1000B24BF2B
:100E4000624639464EEB0E0E4FF0000B0018524131
:100E500049414BEB0B0BB2EB080C71EB03077BF139
:100E6000000B24BF624639464EEB0E0E51EA0207D4
:100E700018BF46F0010616EB0E7655F1000254F14C
:100E8000000103D5BDE88901BDE80088BDE88901FE
:100E9000BDE80048B619524141EB0101A3F101033D
:100EA000704780807F7E7D7C7B7A797877767675D7
:100EB0007473727171706F6E6E6D6C6C6B6A6A694F
:100EC0006868676666656464636362616160605FE9
:100ED0005F5E5E5D5D5C5C5B5B5A5A595958585762
:100EE00057565655555554545353525252515150CA
:100EF00050504F4F4F4E4E4D4D4D4C4C4C4B4B4B1D
:100F00004A4A4A4949494848484747474746464662
:100F1000454545444444444343434342424242419D
:100F20004141002B26D4770021D01CB54FEA37076A
:100F300003B44FF010004FF010014FF000000FBC51
:100F4000BDE810400BF1010BBBF1010F08BF5FEAD8
:100F5000170722BF12F1010211F101014FF0004108
:100F600043F1000300F0004043EA00007047F9D36A
:100F70005708DAE746EA064613F1400F4FEA1646ED
:100F80001FDD13F1200FDFBF16430A460021203377
:100F90005B42C8D0C3F1200746EA064602FA07F7CB
:100FA0004FEA164646EA0706C3F1200722FA03F283
:100FB00001FA07F721FA03F14FF0000342EA0702B2
:100FC000B1E746EA020646EA06464FEA164646EA10
:100FD0000106BCBF46EA0646360C4FF000034FF050
:100FE00000024FF000019EE72DE9C048934630B45F
:100FF00091E8380007C831EA400C48BF34EA430C96
:1010000003D5FFF7F2FDFFF78CFFF0BCBDE80088C9
:101010002DE9C048934630B491E8380007C810F075
:10102000804F08BF13F0804F03D100F005F8FFF7A1
:1010300078FFF0BCBDE8008820F07F4780EA03001D
:1010400023F07F4C07EB0C03A3F57C5300F000402A
:10105000A3F1FE0392F0000F00F0B38095F0000FB3
:1010600000F077802DE901494FEA11404FEA14461C
:1010700021EA004800FB06FC24EA064708FB06F6C6
:1010800007FB08F800FB07F718EB06484CEB164C7B
:101090004FEA124B18EB07484FEA15464CEB174046
:1010A00022EA0B4E0BFB06FC25EA06470EFB06F672
:1010B00007FB0EFE0BFB07F71EEB064E4CEB164C28
:1010C0004FF000061EEB074E4CEB174B18EB0B08CE
:1010D00040F1000018EB0E0B58EB000840F1000047
:1010E0008F1A4FF000013CBFC943661B14BFB5EB1C
:1010F000040C00213CBFC943F61B4FEA17444EEADB
:101100008E0E27EA04454FEA1C4704FB07622CEACF
:10111000074C05FB07F70CFB05F604FB0CFC16EB74
:10112000074642EB174216EB0C4642EB1C421BEB08
:10113000060658EB0202414146EA9E0601D5BDE88B
:101140000189B619524141EB0101A3F10103BDE848
:1011500001894FEA14454FEA114724EA054621EA7E
:10116000074C05FB07F406FB07F70CFB06F105FB34
:101170000CFC11EB074144EB17444FEA124711EB0B
:101180000C4144EB1C4422EA074C05FB07F206FB2A
:1011900007F70CFB06F605FB0CFC16EB074642EBCB
:1011A000174216EB0C4642EB1C456A1854F100013D
:1011B00048BF7047B619524141EB0101A3F1010349
:1011C000704795F0000F37D04FEA11424FEA1447AD
:1011D00021EA024624EA074C02FB07F106FB07F767
:1011E0000CFB06F402FB0CFC14EB074441EB17412B
:1011F0004FEA154714EB0C4441EB1C4125EA074C20
:1012000002FB07F506FB07F70CFB06F602FB0CFCDE
:1012100016EB074645EB174516EB0C4645EB1C4213
:10122000121951F1000148BF7047B619524141EB04
:101230000101A3F1010370474FEA14454FEA11473A
:1012400024EA054621EA074C05FB07F106FB07F7F0
:101250000CFB06F24FF0000605FB0CFC12EB0742FC
:1012600041EB174112EB0C4251EB1C4148BF704758
:10127000921841EB0101A3F101037047FEE7000062
:101280001CB51849164808601C200090084600F05C
:1012900079F810226946134800F04DF814200090A8
:1012A000002269460F4800F046F84FF430642246A9
:1012B00010210C4800F025F822460021094800F0D2
:1012C00020F81021074800F097F80021054800F0A9
:1012D00093F800231A461946024800F006F81CBD90
:1012E00000740040940000207047082906D042EAAC
:1012F00003420068084402620020704742EA032269
:10130000F7E770B54379012B13D00126467102230C
:10131000037103681C684FF47C658D4042F0400205
:10132000AC438A4014431C60067100214171084699
:1013300070BD022070BD70B54379012B1AD0012613
:1013400046710223037103681D6840F6FE749440E1
:10135000A543D1E900410C4394402C431C60016833
:101360000B68C0249440A3430B60067100214171B7
:10137000084670BD022070BD006809B1006B70475F
:10138000C06A704770B5040003D02079002510B101
:1013900005E0012070BD6571204600F007F80220CD
:1013A0002071256101202071002070BD104800B51A
:1013B000026887B0002142F000520260006800F02D
:1013C000005005900A481038026842F0010202609D
:1013D000006800F001000590302000900320CDE966
:1013E00001016946034800F04FF807B000BD000056
:1013F000403802400000024030B54279012A16D040
:1014000001234371022202710268146803FA01F594
:101410002C431460002901680A680AD00C6802F4A1
:10142000802204F46014B2F5802F0FD015E0022062
:1014300030BD0C6802F0040204F03804042A0CD118
:10144000382C0AD14A6842F0010205E0B4F5601F69
:1014500003D14A6842F002024A60037100214171DF
:10146000084630BD70B5044600F0EEF80546601C35
:1014700002D004480078044400F0E6F8401BA04283
:10148000FAD370BD040000202DE9F84FDFF88C91ED
:10149000002209F1040A0AF1040B4FF00F080BF1C6
:1014A000040E01260B6896403340B34271D14C685C
:1014B000022C01D0122C11D1D40800EB84073D6A14
:1014C0005407E40E08FA04FC25EA0C05D1F810C014
:1014D0000CFA04FC4CEA050CC7F820C0076854005D
:1014E000032591F804C0A5400CF0030CAF430CFA9F
:1014F00004FC4CEA070CC0F800C04F68012F05D06F
:10150000022F03D0112F01D0122F11D18768D1F8EB
:101510000CC0AF430CFA04FC4CEA070CC0F808C03E
:101520004768B7430E79C6F3001696403E434660BF
:10153000C668AE438D68A5403543C5604C68E4007D
:1015400065D5374C256845F480452560246822F030
:10155000030504F480440094324C2E19D6F8087820
:101560009407250F08FA05F4A7432F4CA04201D198
:10157000002424E02D4CA04201D101241FE02C4C7A
:10158000A04201D102241AE02A4CA04202D1032435
:1015900015E03CE0284CA04201D104240FE0274C88
:1015A000A04201D105240AE0254CA04201D1062425
:1015B00005E0244CA04201D1072400E00824AC40FF
:1015C0003C43C6F80848D9F800404D464E689C4355
:1015D000F60300D51C432C60DAF8004055464E68EF
:1015E0009C43B60300D51C432C60DBF800405D46ED
:1015F0004E689C43F60200D51C432C60DEF8004088
:1016000075464E689C43B60200D51C432C60521CA4
:10161000102AFFF446AFBDE8F88F0000003C0140FF
:101620004438024000300140000002400004024003
:1016300000080240000C024000100240001402406A
:1016400000180240001C02400148806870470000FA
:1016500004000020024881680278114481607047CC
:1016600004000020094810B5016841F400710160D0
:10167000016841F480610160052000F04BF80F2003
:1016800000F006F800F024F8002010BD003C0240F5
:1016900070B50D4D04464FF47A712878B1FBF0F027
:1016A0000A490968B1FBF0F000F066F848B9102C5F
:1016B00007D200222146501E00F00CF800206C607A
:1016C00070BD012070BD000004000020000000205B
:1016D00070470000F0B40E4B1B68C3F30223C3F144
:1016E0000704042C00D904241D1D072D01D200235A
:1016F00000E0DB1E012606FA04F56D1E0D409D403C
:101700009E40761E164045EA0601F0BC00F05DBB27
:101710000CED00E0064A00F0070110684FF6FF03E9
:10172000184040EA01200349084310607047000058
:101730000CED00E00000FA0504480549006809685E
:10174000044AC1F38221515CC84070470000002068
:1017500008380240722200080448054900680968F8
:10176000044AC1F34231515CC84070470000002078
:10177000083802407222000810B5401EB0F1807F88
:1017800001D3012010BD4FF0E02460610F216017EC
:1017900000F01BFB0020A06107202061002010BD8D
:1017A00070B590F83C20012A19D0012500F83C5F63
:1017B0000222427050F83C2C5368946823F0700663
:1017C0000B684968334324F080042143536050F888
:1017D0003C2C9160457000210170084670BD0220CC
:1017E00070BD10B5040003D094F83D0010B107E0BF
:1017F000012010BD002084F83C00204600F00CF8C9
:10180000022084F83D00211D206800F00BF9012022
:1018100084F83D00002010BD08B50D4B02680D494D
:101820009A4207D10A6842F008020A600A6802F088
:10183000080200920068084A904207D1086840F008
:1018400020000860086800F02000009008BD00003B
:10185000000C00404038024000140040022180F893
:101860003D1001688A6802F00702062A03D00A6860
:1018700042F001020A60012180F83D10002070470B
:1018800070B5040004D094F83900002510B106E0CA
:10189000012070BD84F83850204600F023F8242041
:1018A00084F839002068C16821F40051C1602046E5
:1018B00000F01CF92068016921F490410161206861
:1018C000416921F02A0141612068C16841F4005159
:1018D000C160E563202084F8390084F83A000020D4
:1018E00070BD000010B50068164986B0884227D147
:1018F0001548016841F001010160006800F0010035
:10190000059011481430016841F010010160006831
:10191000012100F0100005904FF4007000900220AB
:10192000CDE9010103900720084C04906946204648
:10193000FFF7AAFD2115009169462046FFF7A4FD97
:1019400006B010BD001001403038024000000240D7
:10195000FEE7FEE7704770477047FFF77BBE000069
:101960001048016841F4700101600F48016841F0BE
:10197000010101600C4A00210832116002680B4B22
:101980001A400260031D0A4A1A60026822F480228B
:10199000026005480C300160024958068039086031
:1019A0007047000088ED00E000380240FFFFF6FEBF
:1019B000103000241CB50C480A49002401600121A4
:1019C000C0E90114C16049020161FFF70AFF20204C
:1019D000CDE9000469460448FFF7E2FE0248FFF73C
:1019E0003DFF1CBD000C0040140000201CB50C483D
:1019F0000A49002401600121C0E90114C0E903146F
:101A0000FFF7EFFE2020CDE9000469460448FFF708
:101A1000C7FE0348FFF722FF1CBD00000014004072
:101A200054000020F0B50268254D264E264FDFF801
:101A30009CC0274B4FF0804EA84209D0704507D07C
:101A4000B04205D0B84203D0604501D0984203D1DE
:101A500022F070044A682243A8421BD0704519D076
:101A6000B04217D0B84215D0604513D0984211D07B
:101A7000184CA0420ED0184CA0420BD0174CA042DC
:101A800008D0174CA04205D0164CA04202D0164CEC
:101A9000A04203D122F44074CA6822434C6922F068
:101AA0008002224302608A68C2620A688262A84297
:101AB00001D0984201D10969016301214161F0BD62
:101AC000000001400004004000080040000C0040FD
:101AD0000004014000400140004401400048014032
:101AE00000180040001C0040002000402DE9F0419B
:101AF000044600680169E26821F440511143016124
:101B0000A1682069E26901436069104301432068CC
:101B1000C26849F20C639A430A43C2602068416973
:101B2000A26921F4407111434161E0696425B0F577
:101B3000004F974A974920684FF032083FD08842BB
:101B400001D090427CD1FFF707FE00EBC00101EB12
:101B5000001061688900B0FBF1F6FFF7FDFD00EBB6
:101B6000C00101EB001061688900B0FBF1F0B0FB2F
:101B7000F5F06FF01801484306EB800108EB011007
:101B8000B0FBF5F000F0F006FFF7E6FD00EBC0015A
:101B900001EB001061688900B0FBF1F0B0FBF5F0DB
:101BA00006EB0016FFF7D8FD00EBC00101EB0010BB
:101BB00061688900B0FBF1F7FFF7CEFDD2E0884203
:101BC00001D090423DD1FFF7C7FD00EBC00101EB12
:101BD000001061684900B0FBF1F0B0FBF5F00601C0
:101BE000FFF7BAFD00EBC00101EB0010616849008E
:101BF000B0FBF1F7FFF7B0FD00EBC00101EB001007
:101C000061684900B0FBF1F0B0FBF5F06FF018012E
:101C1000484307EB800108EBC100B0FBF5F000F092
:101C2000F80006EB4006FFF797FD00EBC00101EB63
:101C3000001061684900B0FBF1F7FFF78DFD3CE053
:101C400055E0FFF779FD00EBC00101EB0010616882
:101C50004900B0FBF1F0B0FBF5F00601FFF76CFDB9
:101C600000EBC00101EB001061684900B0FBF1F727
:101C7000FFF762FD00EBC00101EB00106168490055
:101C8000B0FBF1F0B0FBF5F06FF01801484307EB43
:101C9000800108EBC100B0FBF5F000F0F80006EBA6
:101CA0004006FFF749FD00EBC00101EB0010616841
:101CB0004900B0FBF1F7FFF73FFD00EBC00101EB7E
:101CC000001061684900B0FBF1F0B0FBF5F06FF077
:101CD0001801484307EB800108EBC100B0FBF5F0A9
:101CE00000F00700216830448860BDE8F081FFF70C
:101CF00023FD00EBC00101EB001061688900B0FB1F
:101D0000F1F6FFF719FD00EBC00101EB001061686F
:101D10008900B0FBF1F0B0FBF5F06FF0180148431B
:101D200006EB800108EB0110B0FBF5F000F0F006C7
:101D3000FFF702FD00EBC00101EB001061688900B4
:101D4000B0FBF1F0B0FBF5F006EB0016FFF7F4FC8A
:101D500000EBC00101EB001061688900B0FBF1F7F6
:101D6000FFF7EAFC00EBC00101EB0010616889009D
:101D7000B0FBF1F0B0FBF5F06FF01801484307EB52
:101D8000800108EB0110B0FBF5F000F00F00A9E7AF
:101D90000014014000100140FEE703B40198410027
:101DA000009850EAC12018BF04204A0D18BF40F027
:101DB000010040F2FF72B2EB515F08BF40F0020039
:101DC000012808BF052002B070470907090E002846
:101DD00004DB00F1E02080F80014704700F00F00F1
:101DE00000F1E02080F8141D704730380A2801D235
:101DF000012070470020704703490A685206FCD54D
:101E0000C2B24A6070470000001001402DED028B05
:101E100082B0FFF727FC4FF4E13000F055F8FFF7F0
:101E20002FFAFFF7C7FDFFF7E1FD9FED1D8B102196
:101E30001D48FFF7A1FA00EE100AB8EE400A10EEB6
:101E4000100A00F099F953EC182B00F097F800F005
:101E500063F8064600211448FFF78EFA00EE100AD8
:101E6000B8EE400A10EE100A00F086F953EC182B79
:101E700000F084F800F050F800F07EF904460D46BA
:101E8000304600F079F941EC100B08A053EC102B10
:101E9000CDE90045FEF7F4F96420FFF7E3FAC6E761
:101EA0006666666666664A3F940000206368312075
:101EB0003D20252E33662020636832203D20252ECC
:101EC00033660D0A000000000749064AC1E90020F8
:101ED00000208860C860086188610C20486108465D
:101EE000FFF7CEBC00100140A800002010B500296B
:101EF0000AD00878002807D005487844FEF7BCFDD2
:101F0000002801D0002010BD0248784410BD000018
:101F1000360400002E04000021F00042A2F16052BD
:101F2000B2F5801F01F0004328BFD2F17F6C0BD9BE
:101F30005FEA001C43EAC20242EB507018BF7047D0
:101F400028BF20F001007047B2F5801FBCBF1846C3
:101F500070474FEA410C1CF5001F02D2084600F002
:101F600081B970B500F0B4F800000089FFF7F6BF42
:101F70004FF00040A0F5800070470000DFF848C136
:101F800070B51CEA111E1EBF1CEA13159EEA0C0F49
:101F900095EA0C0F00F06F8081EA030423EA4C13EA
:101FA0004EEAD47E21EA4C1141F4801143F48013AF
:101FB000AE44A1FB024CA0FB0365AEF17F7E361957
:101FC00055EB0C05A1FB034C4CF10003A0FB021CDC
:101FD00016EB0C06654153F10003094218BF46F0A9
:101FE000010613F4007F0BD14FEA03314FEA0530AD
:101FF000340341EA155140EA16506FF003020AE03B
:102000004FEAC3214FEAC520F40241EA555140EAA4
:1020100056506FF0020202EB2E4201EB025585EAA8
:10202000CE710AD05FEA440C18BF24F0004450F18E
:10203000000041F1000120EAD47040F2FE7C6245CC
:1020400000D270BDA84214BF4FF080444FF040440E
:10205000002E08BF0024BEF1806FA8BFA1F1C041CF
:10206000BDE8704080F282804FF0000001F1C04175
:1020700001F0004170479EEA0C0F0CEA131518BFDF
:1020800095EA0C0F06D04FF0000081EA030E0EF027
:10209000004170BD00F01CF88900013E00F007B857
:1020A00000F009B84FEA430C5FEA5C5C08D081EAB3
:1020B000030100F05BB84FEA410C5FEA5C5CF6D1CB
:1020C0004FF00000014970470000FF070000F87F53
:1020D0000EF1020E2EF0030E5EF8046B364205D4AC
:1020E000012A43EB030515F5001F12D8012841EB27
:1020F000010C1CF5001F0CD80ED14FEAD17C15F550
:10210000001F0CEB4C0C0CF1020C08BF4CEBD37C09
:1021100004E04FF0080C01E04FEAD37C0CEB4C05D7
:1021200026FA05F606F00706B6F1040C06D20EEB09
:10213000860CBDE870404CF0010C6047DFE80CF005
:10214000090B02024FF000414FF00000A1F5002101
:1021500070BD19461046012851EB010418BFD4F593
:10216000001484BF002001F0004170BD0808A0F5F4
:1021700000114FEA3101704743004FEAD30C4FEA98
:102180003C0C43401FBF40070CF1605113F0FE4F61
:1021900070471CF0006F03D100200CF00041704725
:1021A0000CF0004343EA507010B540EACC0000F058
:1021B0000EF800BF000000924FEA0001FFF7D6BF03
:1021C0004FF000414FF00000A1F5002170470EF1E3
:1021D000020E2EF0030E5EF8044B244204D44FEAA4
:1021E0004102B2F17F4F11D84FEA4003B3F17F4F64
:1021F0000CD80ED14FEAD07CB2F17F4F0CEB4C0CD7
:102200000CF1020C08BF4CEBD17C04E04FF0080C41
:1022100001E04FEAD17C0CEB4C0324FA03F404F008
:102220000704B4F1040C06D20EEB840CBDE8104098
:102230004CF0010C6047DFE80CF0070802024FF099
:102240000040A0F5800010BD0846420018BFD2F142
:10225000807288BF00F0004010BD4FF04070E1EE8A
:10226000100A7047FF2141EAD050C0057047FEF7C1
:1022700074B90000000001020304000002400000E5
:10228000000000A00000000005400000000000C8A1
:10229000000000000C4000000000409C0000000016
:1022A000194000000020BCBE0000000034400000C7
:1022B000BFC91B8E00000004B5400000504BCFD0BA
:1022C0006607E2CF010000006C4100003E8251AA87
:1022D000DFEEA73401000000D9420000DCB5A0E227
:1022E0003A301F97FFFFFFFFB4450000FD25A0C84F
:1022F000E9A3C14FFFFFFFFFFF3F00000000008088
:1023000000000000FF3F000000000080000000000F
:102310004C2300080000002014000000C401000845
:10232000602300081400002034070000E0010008CA
:102330001C00000043000000F8FFFFFF0C0000003D
:102340000E0000000F0000002E0000000024F4002A
:10235000010000001000000000000000000000006C
:040000050800018965
:00000001FF
