:020000040800F2
:10000000D8260020490100085F1C00088D15000853
:100010005D1C000837020008E9210008000000000C
:10002000000000000000000000000000631C000849
:100030003902000800000000611C0008651C00086F
:100040006301000863010008630100086301000800
:1000500063010008630100086301000863010008F0
:1000600063010008630100086301000863010008E0
:1000700063010008630100086301000863010008D0
:1000800063010008630100086301000863010008C0
:1000900063010008630100086301000863010008B0
:1000A00063010008630100086301000863010008A0
:1000B0006301000863010008C91C0008630100080F
:1000C0006301000863010008630100086301000880
:1000D00063010008892100086301000895210008D8
:1000E0006301000863010008630100086301000860
:1000F0006301000863010008630100086301000850
:10010000630100086301000863010008630100083F
:10011000630100086301000863010008630100082F
:10012000630100086301000863010008630100081F
:10013000DFF810D000F03EF800480047792B0008A7
:10014000AFF30080D82600200648804706480047C5
:10015000FEE7FEE7FEE7FEE7FEE7FEE7FEE7FEE777
:10016000FEE7FEE7C71C00083101000840EA010372
:100170009B0703D009E008C9121F08C0042AFAD25D
:1001800003E011F8013B00F8013B521EF9D2704721
:10019000D2B201E000F8012B491EFBD270470022C9
:1001A000F6E710B513460A4604461946FFF7F0FF76
:1001B000204610BD064C074D06E0E06840F0010304
:1001C00094E8070098471034AC42F6D3FFF7B4FF29
:1001D0008C450008AC45000870B58D1810F8014B2F
:1001E00014F0030201D110F8012B231106D110F8ED
:1001F000013B03E010F8016B01F8016B521EF9D1CD
:10020000ABB110F8012B04F00C048A1A0C2C03D0AB
:10021000A2EB84129B1C08E010F8014BA2EB042215
:10022000F8E712F8014B01F8014B5B1EF9D5A94222
:10023000D4D3002070BDFEE77047000001A001F09C
:10024000D5BF00006572726F725F68616E646C6525
:1002500072210D0A0000000010B590F82110002254
:10026000022905D00421816380F82020012010BDDF
:1002700001680B6823F00E030B6001680B6823F024
:1002800001030B6090F84030C46B012101FA03F3C5
:10029000636080F8211080F82020104610BD000017
:1002A0002DE9F05F90F821100024022903D00421E9
:1002B0008163012485E001680A6822F00E020A6069
:1002C00001680A6822F001020A603F4E3E4FB215F3
:1002D000DFF8F4C0DFF8F090DFF8ECA0DFF8E8B06A
:1002E000DFF8E4E00168783F13011502ACF1640C1B
:1002F000A9F15009AAF13C0AABF1280BAEF1140E9A
:100300004FF48018B14227D9B9420ED0614512D0BE
:1003100049451DD0514518D0594518D0714501D1D6
:10032000424615E0294EB14201D1012210E0274E8C
:100330001436B14201D110220AE0244E2836B142CF
:1003400006D0224A3C32914201D11A4600E02A46A8
:100350001E49091F0A602BE0B94213D0614517D02E
:10036000494522D051451DD059451DD0714501D177
:1003700042461AE0B14202D14FF0807215E0134EAE
:10038000B14201D1012210E0104E1436B14201D128
:1003900010220AE00D4E2836B14206D00B4A3C32FC
:1003A000914201D11A4600E02A46074980394A6045
:1003B000012180F82110002180F82010416B01B14B
:1003C00088472046BDE8F09F8000024008040240B4
:1003D00070B5044600F01CF90546601C02D00448C4
:1003E0000078044400F014F9401BA042FAD370BD19
:1003F000381300202DE9F84FDFF8C891002409F1E7
:10040000040A0AF1040B23460F270BF1040ED1E076
:100410000125A54006EA0502AA4276D1DFF8A8C167
:100420004E68A6EB0C0866452BD00DDC032E34D0AD
:1004300005DC36B3012E19D0022E2FD11BE0112E70
:1004400016D0122E2AD119E0B8F5881F19D006DC73
:10045000B8F5803F15D0B8F5801F1FD111E0B8F571
:10046000001F0ED0B8F5041F18D10AE0CB6815E0C4
:10047000CB681B1D12E0CB6808330FE0CB680C3350
:100480000CE08B682BB1012B4FF0080303D04561C2
:1004900004E0042302E0056100E00023FF2A01D804
:1004A000064601E000F104064FEA840501D9A5F1F2
:1004B0002005D6F8008007FA05FC28EA0C0803FAA4
:1004C00005F548EA0508C6F800804D68ED0070D5CE
:1004D0003E4DAE6946F00106AE61AD6924F00306FB
:1004E00005F0010500953A4D06EB050CDCF80850C7
:1004F000A607360F07FA06F825EA0805DFF8D480C4
:10050000404503D14FF0000825E052E0DFF8C880F5
:10051000404502D14FF001081DE0DFF8C0804045A2
:1005200002D14FF0020816E0DFF8B480404502D156
:100530004FF003080FE0DFF8AC80404502D14FF0E8
:10054000040808E0DFF8A080404502D14FF005081C
:1005500001E04FF0060808FA06F848EA0508CCF86A
:1005600008804D68D9F80060ED034D4601D516436B
:1005700000E096432E604D68DAF80060AD03554602
:1005800001D5164300E096432E604D68DBF800600D
:10059000ED025D4601D5164300E096432E604D689E
:1005A000DEF80060AD02754601D5164300E09643C3
:1005B0002E60641C0A681646E2407FF429AFBDE84D
:1005C000F88F0000000401400000111000100240EC
:1005D0000000014000080140000C014000100140F3
:1005E0000014014000180140001C014080680840D0
:1005F00000D001207047C26821EA02030A4043EAA2
:100600000241016170470AB1016170470904FBE7CB
:100610000148806870470000381300200248816854
:10062000027811448160704738130020074810B5E4
:10063000016841F010010160032000F075F800200E
:1006400000F006F800F024F8002010BD0020024061
:1006500070B50D4D04464FF47A712878B1FBF0F077
:100660000A490968B1FBF0F000F0ECFA48B9102C27
:1006700007D200222146501E00F036F800206C60A0
:1006800070BD012070BD000038130020341300201D
:100690000C4808B5816941F001018161816901F06F
:1006A00001010091C16941F08051C161C06900F050
:1006B000805000900448416821F0E06141F0807171
:1006C000416008BD0010024000000140002809DB25
:1006D00000F01F02012191404009800000F1E0205C
:1006E000C0F8001170470000F0B40E4B1B680C46B8
:1006F000C3F30223C3F10705042D00D90425191DF6
:10070000072901D2002300E0DB1E012606FA05F1CD
:10071000491E214099409E40761E16403143F0BC50
:1007200001F06CBD0CED00E0064900F0070208681E
:100730004FF6FF03184040EA0220034A10430860C6
:10074000704700000CED00E00000FA052DE9F047CD
:100750000F46050061D0434E306800F00700B842F4
:1007600009D2306820F0070038433060306800F06C
:100770000700B84251D128683B4C810712D5400789
:1007800003D5606840F4E06060602878000703D516
:10079000606840F4605060606068A96820F0F00014
:1007A000084360602878C00728D06868012810D006
:1007B0002168022810D0890700292EDA616821F00B
:1007C000030101436160FFF723FF804641F288394E
:1007D0000DE021688903EFE78901EDE7FFF718FFD6
:1007E000A0EB0801494502D90320BDE8F087606805
:1007F000696800F00C00B0EB810FEFD1306800F0B9
:100800000700B8420BD9306820F007003843306049
:10081000306800F00700B84201D00120E5E72878F1
:10082000400705D56068E96820F4E060084360602F
:100830002878000706D56068296920F4605040EAEE
:10084000C100606000F038F86168084AC1F3031124
:10085000515CC8400649086006480068FFF7F8FE8A
:100860000020C2E70020024000100240744300084C
:10087000341300203C1300200448054900684968EF
:10088000044AC1F30221515CC84070473413002070
:100890000010024084430008044805490068496884
:1008A000044AC1F3C221515CC84070473413002090
:1008B000001002408443000812A185B00FC98DE8E2
:1008C0000F0014A0144A006804905168134801F006
:1008D0000C03042B10D0082B0ED1C1F38343C903A2
:1008E0001DF803000AD5516804AAC1F34041515CC8
:1008F0000A4A5043B0FBF1F005B07047084948433D
:10090000FAE7000002030405060708090A0B0C0DAC
:100910000E0F1010010200000010024000127A00B9
:1009200000093D002DE9F84F040070D02078C04D3B
:10093000C00749D06868C0F38100012807D0686803
:10094000C0F38100022809D16868C00306D5286871
:10095000800339D560680028E7D035E06068B0F5DD
:10096000803F0BD010B1B0F5A02F11D0286820F433
:1009700080302860286820F4802002E0286840F455
:1009800080302860606890B1FFF742FE06460AE0BA
:10099000286840F480202860F0E700BFFFF738FEA9
:1009A000801B642873D828688003F7D50CE0FFF714
:1009B0002FFE064605E000BFFFF72AFE801B6428D5
:1009C000F0D828688003F7D420789A4E80074FF03B
:1009D00001094FF0000839D5686810F00C0F07D0F6
:1009E0006868C0F38100022809D16868C00306D492
:1009F0002868800714D52069012808D110E02069F3
:100A0000B0B1C6F80090FFF703FE074605E00AE123
:100A1000FFF7FEFDC01B0228C4D828688007F7D561
:100A20002868616920F0F80040EAC10028600DE004
:100A3000C6F80080FFF7ECFD074604E0FFF7E8FD8D
:100A4000C01B022823D828688007F7D42078000725
:100A50002CD57948A169D9B1C0F80090FFF7D8FD2D
:100A6000074604E0FFF7D4FDC01B02280FD8686AD0
:100A70008007F7D571484FF4FA510068B0FBF1F0E8
:100A8000009000BF0098411E0091FAD20EE080E075
:100A9000C0F80080FFF7BCFD074604E0FFF7B8FD93
:100AA000C01B022875D8686A8007F7D420784007F1
:100AB00060D5E8690027C00008D4E86940F080509C
:100AC000E861E869012700F0805000905C48016807
:100AD000C90513D40168834641F480710160FFF7B2
:100AE00097FD824606E000BFFFF792FDA0EB0A00EB
:100AF00064284ED8DBF80000C005F5D5E068012871
:100B00000AD008B1052813D0286A20F00100286215
:100B1000286A20F0040002E0286A40F00100286200
:100B2000E06841F2883B98B1FFF772FD82460BE026
:100B3000286A40F004002862EEE700BFFFF768FD76
:100B4000A0EB0A0159455AD8286A8007F6D50CE06F
:100B5000FFF75EFD824605E0FFF75AFDA0EB0A01B4
:100B600059454CD8286A8007F6D41FB1E86920F0AF
:100B70008050E861E06988B36968C1F381010229A6
:100B800044D00228C6F8608004D0FFF741FD044637
:100B900038E034E0FFF73CFD074604E0FFF738FD9E
:100BA000C01B02282BD828688001F7D4206AB0F532
:100BB000803F05D16868A16820F400300843686070
:100BC000D4E908010843696821F474110843686096
:100BD000C6F86090FFF71CFD044606E025E000BF64
:100BE000FFF716FD001B022809D828688001F7D5F9
:100BF0001BE000BFFFF70CFD001B022802D90320F9
:100C0000BDE8F88F28688001F4D40EE00128F7D001
:100C10006868226A00F48031914204D1616A00F46C
:100C20007010884201D00120EAE70020E8E70000C8
:100C3000001002400000424280044242341300206F
:100C40000070004010B5401EB0F1807F01D301203C
:100C500010BD4FF0E02460610F21601701F0CEFA63
:100C60000020A06107202061002010BD7047704760
:100C700070B590F83C20012A2CD0012480F83C402B
:100C8000022280F83D2003685A689D6822F07006B1
:100C90000A6832435A60104B02689A420ED00F4BDA
:100CA0009A420BD0B2F1804F08D00D4B9A4205D03A
:100CB0000C4B9A4202D00C4B9A4204D1496825F061
:100CC00080031943916080F83D40002180F83C107A
:100CD000084670BD022070BD002C01400034014068
:100CE0000004004000080040000C004010B5040063
:100CF00003D094F83D0010B107E0012010BD0020A2
:100D000084F83C00204600F01FF8022084F83D00E3
:100D1000211D206800F0F2FF012084F8460084F8CD
:100D20003E0084F83F0084F8400084F8410084F8D5
:100D3000420084F8430084F8440084F8450084F8B5
:100D40003D00002010BD000008B5174A0168174893
:100D5000914207D1C16941F00201C161C06900F04F
:100D600002001EE0124A914211D1C16941F0040112
:100D7000C161C069002200F00400009002211E2021
:100D8000FFF7B2FCBDE808401E20FFF79FBC094AF0
:100D9000914207D1C16941F01001C161C06900F001
:100DA0001000009008BD0000000400400010024048
:100DB000000800400010004070B5044690F83C0068
:100DC000012817D0012584F83C50022084F83D000A
:100DD0002068826822F0770222F47F4282600868ED
:100DE000502830D00DDC20284DD005DC98B31028D9
:100DF0003BD148E0022070BD302844D0402834D197
:100E000039E0602828D0702806D0B0F5805F2CD05B
:100E1000B0F5005F29D10AE0CB68D1E90121206853
:100E200000F0B2FF2068816841F0770109E0CB68EB
:100E3000D1E90121206800F0A7FF2068816841F412
:100E40008041816011E0CA684968206801F070F84B
:100E50005021206807E016E0CA684968206801F060
:100E600078F86021206800F099FF84F83D50002058
:100E700084F83C0070BDCA684968206801F058F8E1
:100E800040212068EFE7226801461046EBE77047F3
:100E900070B50446006801694FF00005C943890731
:100EA00015D4C168C943890711D4E91E0161012025
:100EB0002077206880698007204602D0FFF7E7FF8F
:100EC00004E000F0C9F8204600F058F925772068C2
:100ED0000169C943490717D4C168C943490713D4F5
:100EE0006FF004010161022020772068806910F40E
:100EF000407F204602D0FFF7CAFF04E000F0ACF8C4
:100F0000204600F03BF9257720680169C9430907AD
:100F100016D4C168C943090712D46FF008010161F2
:100F2000042020772068C0698007204602D0FFF7A0
:100F3000AEFF04E000F090F8204600F01FF925779E
:100F400020680169C943C90617D4C168C943C906E5
:100F500013D46FF010010161082020772068C06968
:100F600010F4407F204602D0FFF791FF04E000F02C
:100F700073F8204600F002F9257720680169C9431B
:100F8000C90708D1C168C943C90704D1891E0161D5
:100F9000204600F0F4F820680169C943090609D425
:100FA000C168C943090605D46FF08001016120467C
:100FB000FFF75CFE20680169C943490609D4C1688E
:100FC000C943490605D46FF040010161204600F095
:100FD000D7F820680169C94389060BD4C168C943A1
:100FE000890607D46FF0200101612046BDE87040FA
:100FF000FFF73DBE70BD000000B585B00021009137
:1010000001910291039100680F4988421AD10F485B
:10101000816941F0100181618069694600F010002A
:101020000490402000900220019003900848FFF7B0
:10103000E1F90848416821F4406141F0E06141F480
:101040004061416005B000BD000400400010024056
:101050000010014000000140704770B5044690F850
:101060003C000D4601280AD0012084F83C0042B122
:10107000042A18D0082A2AD00C2A4DD139E002209F
:1010800070BD206800F092FE2068816941F008017F
:1010900081612068816921F0040181612068816992
:1010A0002A69114311E0206800F0B0FE20688169D0
:1010B00041F4006181612068816921F4806181616E
:1010C000206881692A6941EA0221816124E020685F
:1010D00000F0D2FE2068C16941F00801C1612068BA
:1010E000C16921F00401C1612068C1692A69114305
:1010F00011E0206800F0F4FE2068C16941F400614D
:10110000C1612068C16921F48061C1612068C16941
:101110002A6941EA0221C161002084F83C0070BDC7
:1011200010B5040003D094F83D0010B107E0012091
:1011300010BD002084F83C00204600F01EF802207C
:1011400084F83D00211D206800F0D8FD012084F8BE
:10115000460084F83E0084F83F0084F8400084F89C
:10116000410084F8420084F8430084F8440084F885
:10117000450084F83D00002010BD7047704770475F
:101180007047704770470000F8B502680446106861
:10119000D168536910F00F0F4FF0000553D003F0E2
:1011A000010601F4907737435FD0C20705D0CA0526
:1011B00003D5226C42F001022264420705D5DA070A
:1011C00003D0226C42F002022264820705D5DA07BE
:1011D00003D0226C42F004022264020707D501F01A
:1011E0002002324303D0226C42F008022264226CB7
:1011F000002A34D0800604D5880602D5204600F0A7
:10120000DAFE20684069216CC0F38010090700D421
:1012100030B3204600F0B7FE2068416949061BD56F
:10122000416921F040014161A06BA8B15849416377
:10123000A06BFFF735F8002811D0A06B416B01B00F
:10124000BDE8F040084783060FD58B060DD5204634
:10125000BDE8F84000F0AFBE2046FFF793FFF8BDB1
:101260002046FFF78FFF2564F8BD266B2023012E53
:1012700052D1C60650D5CE064ED5106850680090A3
:10128000506940062AD5A16B086840680004000C2C
:10129000EAD0A68D8642E7D9E0858869202818D053
:1012A000D06820F48070D0602068416921F001018D
:1012B00041612068416921F04001416184F83E307C
:1012C00025632068C16821F01001C160A06BFEF7A2
:1012D000C3FFA08DE18D401A81B219E0A08DE18D90
:1012E000401A81B2E08D0028BED00029BCD0D06861
:1012F00020F49070D0602068426922F001024261BF
:1013000084F83E3025632068C26822F01002C26073
:101310002046FFF736FFF8BD05062BD50D0629D56B
:1013200094F83D002128F6D1A068B0F5805F01D186
:101330002069B0B1206A411C2162216800784860B0
:10134000E08C401E0004000CE084E4D12068C168F9
:1013500021F08001C1602068C16841F04001C16096
:10136000F8BD206A0088C0F308005060206A801C25
:101370002062E5E74006F3D54806F1D5D16820465E
:1013800021F04001D16084F83D3000F0FEF8F8BD56
:10139000771F000870B5040004D094F83D000025C4
:1013A00010B106E0012070BD84F83C50204600F0EA
:1013B00023F8242084F83D002068C16821F40051FE
:1013C000C160204600F052FE2068016921F490417E
:1013D00001612068416921F02A0141612068C168EA
:1013E00041F40051C1602564202084F83D0084F858
:1013F0003E00002070BD000070B586B0002400944F
:1014000001940294039403682E482D4E0221032276
:101410000515B34226D1836943F480438361836910
:1014200003F480430493836943F004038361806978
:10143000254E00F0040004900802CDE9000103925B
:1014400069463046FEF7D6FFCDE90054694630467E
:101450000294FEF7CFFF002211462520FFF744F942
:10146000252028E0194EB34227D1C36943F48023D5
:10147000C361C36903F480230493836943F00803C1
:1014800083618069CDE9005100F00800CDE90320B7
:101490000F4D69462846FEF7ADFFE814CDE900047C
:1014A000694628460294FEF7A5FF00220121272065
:1014B000FFF71AF92720FFF709F906B070BD000001
:1014C0000038014000100240000801400048004080
:1014D000000C0140704700002DE9F843044690F8E5
:1014E0003D001F4616460D4620284CD1C5B1BEB161
:1014F00094F83C00012846D0012084F83C004FF0CD
:101500000008C4F84080212084F83D00FFF780F8EF
:10151000A6848146E684A068B0F5805F03D004E02D
:101520000120BDE8F883206928B12E465FF0000550
:1015300084F83C800EE00026FAE78021204600F087
:10154000F1FDA0B9AEB116F8010B21684860E08C3E
:10155000401EE084E08C4B464FF0000200970028CC
:10156000EBD14FF04001204600F0DCFD30B103200C
:10157000D7E735F8020BC0F30800E6E7202084F82F
:101580003D000020CDE70220CBE77047FEE72DE9C4
:10159000F04104461D4616460F462A2000F0D4F8B6
:1015A000204600F0B1F8304600F0AEF82B2000F0F5
:1015B000CBF8384600F0A8F8284600F0A5F8BDE8BA
:1015C000F0412C2000F0C0B82DE9F0410746002181
:1015D000EF2340F23F120846FFF7D9FF00254FF4F2
:1015E000A0760024384600F08FF8641CF02CF9D364
:1015F0006D1CB542F5D3BDE8F08110B514460B461D
:101600000246FFF7C4FF2046BDE8104000F07CB85A
:101610002DE9F05F1C4688468146B0F5987F2BD8AF
:101620000846B8F1E00F27D8203AD6B200F10F03F0
:1016300009F1070241464846FFF7A9FF1D48002C63
:101640004FF000041AD0834604EB061100251BF866
:10165000017008EB040AF80705D0514609EB0500B4
:101660000A9AFFF7CAFF6D1C7F08EDB2082DF2D36E
:10167000641CE4B2102CE7D3BDE8F09FDFF838809B
:101680004FEA000904EB0611002519F80170F8076C
:1016900001D00A9801E0D8F8000000F035F86D1C80
:1016A0007F08EDB2082DF2D3641CE4B2102CE9D30C
:1016B000E2E7000004310008000000202DE9F843B3
:1016C000984616460D4604464FF498774FF47849ED
:1016D00014E0BC4201D900241035E02D04D90024C7
:1016E00025464846FFF770FFCDF80080327800238A
:1016F00029462046FFF78CFF0834761C30780028F6
:10170000E7D1BDE8F883000010B5044601220821A6
:101710000548FEF778FFC4F3072000F023F8E0B295
:10172000BDE8104000F01EB80008014010B50446A6
:10173000012208210348FEF766FF2046BDE810405D
:1017400000F010B80008014010B50446002208213E
:101750000348FEF758FF2046BDE8104000F002B8ED
:101760000008014070B5144E054600224021304665
:10177000FEF749FF0024002201213046FEF743FF17
:10178000280601D5012200E0002202213046FEF7A2
:101790003AFF012211463046FEF735FF6806641C09
:1017A000050EE4B2082CE6D33046BDE870400122B5
:1017B0004021FEF728BF00000008014010B5874C0B
:1017C000002204212046FEF71EFF1420FEF700FE33
:1017D000012204212046FEF716FF1420FEF7F8FD33
:1017E000012210212046FEF70EFFCF20FFF7ACFFAD
:1017F0000020FFF79BFFD920FFF798FF3020FFF76D
:1018000095FFED20FFF7A0FF6420FFF78FFF032077
:10181000FFF78CFF1220FFF789FF8120FFF786FF7B
:10182000E820FFF791FF8520FFF780FF1020FFF7EA
:101830007DFF7820FFF77AFFCB20FFF785FF392067
:10184000FFF774FF2C20FFF771FF0020FFF76EFFFA
:101850003420FFF76BFF0220FFF768FFF720FFF748
:1018600073FF2020FFF762FFEA20FFF76DFF0020E3
:10187000FFF75CFF0020FFF759FFC020FFF764FF70
:101880002120FFF753FFC120FFF75EFF1220FFF773
:101890004DFFC520FFF758FF3220FFF747FF3C20E0
:1018A000FFF744FFC720FFF74FFFC120FFF73EFFC0
:1018B0003620FFF749FF7820FFF738FF3A20FFF77F
:1018C00043FF5520FFF732FFB120FFF73DFF002017
:1018D000FFF72CFF1820FFF729FFB620FFF734FF92
:1018E0000A20FFF723FFA220FFF720FFF220FFF7D7
:1018F0002BFF0020FFF71AFF2620FFF725FF01200E
:10190000FFF714FFE020FFF71FFF0F20FFF70EFF88
:101910002020FFF70BFF1E20FFF708FF0920FFF72D
:1019200005FF1220FFF702FF0B20FFF7FFFE5020FC
:10193000FFF7FCFEBA20FFF7F9FE4420FFF7F6FEA2
:101940000920FFF7F3FE1420FFF7F0FE0520FFF754
:10195000EDFE2320FFF7EAFE2120FFF7E7FE00203F
:10196000FFF7E4FEE120FFF7EFFE0020FFF7DEFEC9
:101970001920FFF7DBFE1920FFF7D8FE0020FFF744
:10198000D5FE1220FFF7D2FE0720FFF7CFFE2D2055
:10199000FFF7CCFE2820FFF7C9FE3F20FFF7C6FE69
:1019A0000220FFF7C3FE0A20FFF7C0FE0820FFF762
:1019B000BDFE2520FFF7BAFE2D20FFF7B7FE0F2052
:1019C000FFF7B4FE1120FFF7BFFE7820FEF700FD01
:1019D000BDE810402920FFF7B7BE00000008014015
:1019E0002DE9F04385B000242C4800940194029422
:1019F0000394816941F020018161816901F0200136
:101A00000491816941F004018161816901F004015F
:101A10000491816941F008018161816901F0080147
:101A20000491816941F0100181618069DFF8708063
:101A300000F0100004900122DF214046FEF7E3FD94
:101A4000DFF8609042F22007002239464846FEF750
:101A5000DAFDDF200125CDE900050320CDE90240B4
:101A600069464046FEF7C6FC202002268DE851005C
:101A700069464046FEF7BEFC00970396CDE9015447
:101A800069464846FEF7B6FC40208DE831006946BD
:101A90004846FEF7AFFC05B0BDE8F08300100240F9
:101AA00000080140000C014010B58EB000240794DE
:101AB000089409940A940B941C2168460C94FEF730
:101AC0006EFB1F481D49016041F63F71C0E90114DA
:101AD000C721C0E9031480218161FFF707F908B12C
:101AE000FEF7ACFB4FF48050079007A91448FFF7AE
:101AF00063F908B1FEF7A2FB1148FFF711FB08B12B
:101B0000FEF79CFB0B940BA90D480C94FFF7B0F863
:101B100008B1FEF793FB6020CDE900040294002297
:101B2000694607480494FFF798FA08B1FEF786FB68
:101B30000348FFF761FA0EB010BD0000000400403A
:101B40002C14002010B586B000241648009401948F
:101B500002940394049412490594C0E900144FF6CA
:101B6000FF71C0E9024104618461FFF7BFF808B169
:101B7000FEF764FB4FF48050009069460948FFF778
:101B80001BF908B1FEF75AFB049404A90548059413
:101B9000FFF76EF8002801D0FEF750FB06B010BD2D
:101BA00000080040741400201CB500240E48009466
:101BB0000C490194C0E900144FF6FF71C0E90241DD
:101BC0008461FFF793F808B1FEF738FB009469468B
:101BD00005480194FFF74CF8002801D0FEF72EFBD2
:101BE0001CBD000000100040BC1400200C4810B5C3
:101BF0000A4901604FF4E1314160002181600C220B
:101C0000C160C0E904128161C161FFF7C3FB002814
:101C100003D0BDE81040FEF711BB10BD00380140F5
:101C2000041500200C4810B50A4901604FF4165104
:101C30004160002181600C22C160C0E90412816111
:101C4000C161FFF7A7FB002803D0BDE81040FEF7F5
:101C5000F5BA10BD0048004048150020FEE7704767
:101C600070477047FEF7DABC30B58FB02821684660
:101C7000FEF795FA14210AA8FEF791FA012108044B
:101C8000CDE900100024029402250491CDE907500B
:101C90004FF4E01009906846FEF744FE08B1FEF7E5
:101CA000CDFA0F20CDE90A054FF48060CDE90C4054
:101CB00002210AA80E94FEF749FD002801D0FEF784
:101CC000BDFA0FB030BD704710B500F007F8BDE8A1
:101CD00010400148FFF7DCB8741400200548006884
:101CE0000169C90705D06FF0010101610248006870
:101CF00000477047741400206C130020F0B5026890
:101D00001C4B1D4D1D4E1E4F1E4C4FF0804C9842DB
:101D100009D0A04207D0604505D0A84203D0B04208
:101D200001D0B84204D122F0700E4A6842EA0E0295
:101D3000984209D0A04207D0604505D0A84203D000
:101D4000B04201D0B84203D122F44075CA682A4398
:101D50004D6922F080022A4302608A68C2620A68E2
:101D60008262984201D0A04201D109690163012138
:101D70004161F0BD002C014000040040000800401B
:101D8000000C00400034014010B5846842EA032290
:101D900024F47F440A432243826010BD826822F00B
:101DA00070020A4342F0070181607047F0B5026A91
:101DB00022F001020262036A42688469124E24F032
:101DC00073050C682C4323F002058B682B430D4DE3
:101DD000A84201D0B04205D123F00807CB683B43AD
:101DE00023F00403A84201D0B04205D14D6922F48A
:101DF000407215438A692A4342608461496841639D
:101E00000362F0BD002C014000340140F0B5026ACD
:101E100022F010020262026A436884690D6824F4A9
:101E2000E64444EA05248D6822F0200242EA0512C5
:101E30000F4D104EA84201D0B04206D1CF6822F01B
:101E4000800242EA071222F04002A84201D0B042CA
:101E500007D14D6923F4406343EA85038D6943EA62
:101E6000850343608461496881630262F0BD0000BC
:101E7000002C014000340140F0B5026A22F4807267
:101E80000262026A4368C46922F4007224F0730596
:101E90000C68124E2C438D6842EA05220E4DA84272
:101EA00001D0B04206D1CF6822F4006242EA072294
:101EB00022F48062A84201D0B04207D14D6923F4D8
:101EC000405343EA05138D6943EA05134360C46137
:101ED0004968C1630262F0BD002C0140003401403A
:101EE00030B5026A22F480520262046A4268C36911
:101EF0000D6823F4E64343EA05238D6824F4005477
:101F000044EA0534084DA84202D0084DA84204D145
:101F10004D6922F4804242EA85124260C3614968F9
:101F20000164046230BD0000002C01400034014017
:101F300010B5036A046A24F001040462846924F081
:101F4000F00444EA021423F00A020A4384610262A4
:101F500010BD10B5036A23F0100303628369046A9D
:101F600023F4704343EA023224F0A00343EA011150
:101F70008261016210BD10B5406A0021C185C18433
:101F8000FFF700F910BD0168CA6822F49072CA60B8
:101F900001684A6922F001024A61016B012904D1FA
:101FA0000168CA6822F01002CA60202180F83E1041
:101FB00000210163704708B590F83E10222901D036
:101FC000022008BD82684FF480539A4201D1016912
:101FD00021B1816A9A421BD04AB10AE00268816A43
:101FE0005268C2F308020A80816A891C08E002690B
:101FF00072B10268526802F07F020A70816A491C5D
:102000008162C18D491E0904090CC18503D019E004
:1020100002685268F1E70168CA6822F02002CA60CB
:102020000168CA6822F48072CA6001684A6922F0B5
:1020300001024A61202180F83E10016B012903D082
:10204000FFF748FA002008BD002101630168CA6853
:1020500022F01002CA6001680A68D20602D50A6836
:1020600049680091818DFFF78CF8EBE770B5044665
:1020700000680169E26821F440511143016121695E
:10208000A0680843616908432168CA6841F20C638B
:102090009A430243CA6020684169A26921F44071F1
:1020A000114341611E492068884202D1FEF7F4FBCA
:1020B00001E0FEF7E1FB00EBC00101EB00126068FC
:1020C00064218000B2FBF0F3B3FBF1F36FF018066C
:1020D0007343B2FBF0F5B2FBF0F605EB8305322358
:1020E00003EB0515B5FBF1F5B6FBF1F605F0F005D0
:1020F00005EB0615B2FBF0F6B2FBF0F0B0FBF1F029
:102100006FF01802504306EB800003EB0010B0FBA9
:10211000F1F0216800F00F002844886070BD0000D5
:10212000003801402DE9F041984617460E46044616
:10213000069D1DE0681C1BD02DB1FEF769FAA0EBCF
:102140000800A84214D92068C16821F4D071C16088
:102150002068416921F001014161202084F83D009F
:1021600084F83E00002084F83C000320BDE8F081A4
:102170002068006836EA000004D00020B842D9D0B8
:102180000020F3E70120F9E70148FEF7FDBF00005A
:102190000415002010B500F007F8BDE81040014814
:1021A000FEF7F2BF4815002010B50C4C20680168FE
:1021B000890605D56FF02001016009480068804755
:1021C00020680168090607D56FF0800101600548A5
:1021D0000068BDE81040004710BD00004815002011
:1021E0006413002068130020FEE70000014A024942
:1021F00000F023B8592B0008281400200907090E05
:10220000002804DB00F1E02080F80014704700F0A3
:102210000F0000F1E02080F8141D704702E008C8AC
:10222000121F08C1002AFAD170477047002001E050
:1022300001C1121F002AFBD170472DE9F04116465B
:102240000F460446002503E03946B047641C6D1C68
:1022500020780028F8D12846BDE8F08170B50A4DF5
:10226000084600240A211646E9700722314600F08C
:1022700063FE012805D144F6206000F08BFE0128A2
:1022800000D00324204670BDF01300202DE9F0415A
:102290000F4C07461646A08888460025FF2801D91E
:1022A000AFF30080A088032804D3A188A06800F0C1
:1022B000E5FC18B105252846BDE8F081A06810F8B6
:1022C000011B3970A188891E3180C8F80000F2E72F
:1022D000F013002070B5104C03460025607810B153
:1022E0000525284670BD491E0126E1600846E680A6
:1022F0000B70E1881144E180E18800F0BFFC0146E9
:10230000E088A2680244401CE08011702670012120
:10231000002000F0D5FCE4E7F013002010B5002108
:10232000012000F0CDFC034900204870BDE81040BA
:1023300000F0F2BDF013002010B50021084600F0B7
:10234000BFFCBDE8104000F0D3BC000070B5064DE6
:1023500000242878012802D00624204670BD286970
:10236000804700202870F8E74413002070B50C4621
:102370000988002505292FD1417840F2CF760A023D
:1023800081781143C278491C1302027989B21A4339
:10239000531EB34220D200232380012300F8013BC7
:1023A0002688761C2680560703D003EBD203DEB2C4
:1023B00001E0C2F3C70600F8016B23885B1C238091
:1023C000002300F0EBFA18B100F03EFC054604E0F3
:1023D00020883044208000E00325284670BD70B579
:1023E0000C460988002505292FD1417840F2CF7687
:1023F0000A0281781143C278491C1302027989B21A
:102400001A43531EB34220D200232380022300F834
:10241000013B23885B1C2380530704D0012303EB7B
:10242000D203DEB201E0C2F3C70600F8016B2388D5
:102430005B1C238000F0FCFA18B100F005FC054697
:1024400004E020883044208000E00325284670BD49
:1024500070B50C4609880026052925D141780579F3
:102460000A0281781143491C6A1E89B27C2A1BD852
:1024700000222280032200F8012B22880023521C14
:1024800022806A0000F8012B2288521C22802A46F2
:1024900000F00EFB18B100F0D7FB064605E02088DF
:1024A00000EB4500208000E00326304670BD70B58B
:1024B0000C4609880026052927D1417805790A02AA
:1024C00081781143C278491C45EA02256A1E89B207
:1024D0007C2A1AD200222280042200F8012B2288B2
:1024E000521C22806A0000F8012B2288521C228094
:1024F0002A4600F009FB18B100F0A6FB064605E0ED
:10250000208800EB4500208000E00326304670BDA7
:102510002DE9F0410446088800270D460A2842D3D9
:10252000607826790102A078227A0843401C1FFABD
:1025300080F8E07846EA00266079731E0102A079EF
:102540000843401C81B2E0797C2B42EA0022607A89
:1025500028D83AB3792A25D8B0EB420F22D10123EB
:1025600004F10A0000F0A4FA98B90021298017218B
:1025700021702988601C491C2980710000F8011B0A
:1025800029880023491C29803246414600F090FAF0
:1025900018B100F059FB074605E0288800EB46001B
:1025A000288000E003273846BDE8F08170B5064C6E
:1025B0000D4606492288401CFDF7D8FD2088401CA6
:1025C0002880002070BD0000001400208C15002021
:1025D00038B50988002405290BD141780A02817891
:1025E0001143491C027989B21AB9C278FF2A03D073
:1025F00012B10324204638BD00228DF80120C07896
:10260000FF280CD08DF8002001231A46684600F000
:10261000C5F90028EED000F017FB0446EAE70120D8
:102620008DF80000F0E710B509880024052902D0D4
:102630000324204610BD417801230A028178C01C82
:102640001143491C89B21A4600F032FA0028F0D032
:1026500000F0FAFA0446ECE72DE9F0410D4609884E
:102660000024052926D9417843790A02817811434B
:10267000491C8EB2C178027942EA0122510704D086
:10268000012101EBD201C9B201E0C2F3C701571E1B
:10269000B7F5F66F0ED299420CD101233146801D59
:1026A00000F07CF918B100F0CFFA044603E00520F1
:1026B000288000E003242046BDE8F08170B50D4677
:1026C0000988002406291DD341780A028178114324
:1026D000C278491C1302027989B21A434379561E03
:1026E000772E0FD85606360E9E420BD10123801D41
:1026F00000F0DEF918B100F0A7FA044603E0052067
:10270000288000E00324204670BD00002DE9F04140
:102710001D46069B1746064641B1F72906D81E4CB2
:102720000846217100211EB1012E15D002252EE090
:102730001A4A22611A4A62611A4AE2601A4AC4E9D4
:1027400006211A4921621A4961621A49A1622A4680
:10275000394600F099F812E0174A2261174A62617F
:10276000174AE260174AC4E906211749216217494E
:1027700061621749A1622A463946FFF76FFD0500DD
:1027800005D100F0C1FB28B16671012020702846F8
:10279000BDE8F0810325FAE7441300206D29000805
:1027A0008929000815290008C528000801300008FB
:1027B000A9300008693000081D23000839230008EB
:1027C000D52200088D2200082D2D0008412E00087A
:1027D000112E000838B52B4C207808B1062038BDE2
:1027E000684600F083FB01284AD19DF80000E8B359
:1027F000012802D0022843D10FE0224AA369921D8A
:10280000911CC81F984788BB60782179884200D006
:1028100060BB022000F080FB32E0A0680121194B70
:102820000278A270E170002113F12C0313F83150EB
:1028300065B1954207D103EBC1014A681149891D71
:102840009047E07002E0491C1029EFDB607868B126
:10285000E07880B10021E180A17841F08002A16898
:102860000A70E288521C92B2E28000E008E08854CC
:10287000E088401CE080D4E90213E2882079984780
:10288000002038BD4413002070B5154608460024CA
:102890000822294600F050FB01280DD1B5F5964FCE
:1028A00001D9232003E006496800B1FBF0F080B2B3
:1028B00000F070FB012800D00324204670BD00000A
:1028C000A07F17002DE9F041104C07461646A0885E
:1028D00088460025FF2801D9AFF30080A08804288E
:1028E00004D3A1880A4800F0D5F918B10525284677
:1028F000BDE8F081064800783870A088C01E30809E
:102900000348401CC8F80000F1E700000414002050
:10291000AC15002070B5134C0346002560780128E3
:1029200002D00525284670BD491E0126A160084633
:1029300066800B70618811446180618800F0AAF99B
:102940006188094A5318491C61801870010A60881F
:102950000244401C6080117026700121002000F0AC
:10296000AFF9DFE704140020AC150020054910B5CD
:10297000002048700146012000F0A2F9BDE8104097
:1029800000F0C8B90414002010B50021084600F07A
:1029900097F9BDE8104000F0ABB90000F0B5541E47
:1029A000E51704EB55740125491E05EBE40489B2D3
:1029B00000278D18A4B20A2D01D90120F0BD1B4EAD
:1029C000012B11D02CE000BF10F8013B082505E0D9
:1029D00003F001077754491C89B25B08521E92B27A
:1029E00002D36D1EEDB2F3D2641EA4B2ECD21AE093
:1029F000002508230CE000BF16F801C00CFA05FC06
:102A0000491C4CEA070C6D1C0CF0FF0789B2EDB2B3
:102A1000521E92B202D35B1EDBB2EDD200F8017BF4
:102A2000641EA4B2E4D20020F0BD0000C016002055
:102A3000F0B5491E1FFA81FE511ECB1701EB5371F1
:102A4000012404EBE1018BB200270EEB02051749CC
:102A50000A2D1AD90120F0BD002608250DE000BF7F
:102A600011F80EC0BCF1000F05D004FA06FC4CEAC8
:102A7000070C0CF0FF07761CF6B2521E92B202D37E
:102A80006D1EEDB2ECD200F8017B5B1E9BB2E3D26F
:102A900000200A5C3AB100220A54401C80B20A2885
:102AA000F7D30020F0BD0122F6E70000CA1600208F
:102AB00010B5491E89B28C180A2C01D9012010BD0D
:102AC000104C012B09D018E030F8023B5BBA24F817
:102AD0001130491C521E89B292B2002AF4D10EE084
:102AE00034F811301B0A00F8013B14F81130491C6E
:102AF000521E00F8013B89B292B2002AF0D10020A8
:102B000010BD000010140020491E10B58BB29C1897
:102B100010490A2C0FD9012010BD00BF31F8134015
:102B2000240A00F8014B11F813405B1C521E00F8F8
:102B3000014B9BB292B2002AF0D1002031F8102054
:102B4000521C21F81020401C80B20A28F6D3002025
:102B500010BD0000AC16002038B504468DF800000A
:102B60004FF47A73012269460248FEF7B5FC20460D
:102B700038BD00000415002008B5FDF757FDFFF72C
:102B800073F8FEF72DFFFFF731F8FEF78DFFFFF723
:102B90000BF8FFF747F8FEF7D5FFFEF70FFE47F6F5
:102BA0007C542046FEF710FD1F481F231FA204601F
:102BB00010211E20FEF782FD1F231EA230211E20A1
:102BC000FEF77CFD00244FF416530322012120461A
:102BD0000094FFF79BFDFFF7B9FB184D4FF4FA7611
:102BE00040212846FDF702FD80B90A20FDF7F0FBE1
:102BF00040212846FDF7FAFC10B911A0FFF7F6FABC
:102C000040212846FDF7F2FC0028F9D00120FDF70D
:102C1000DFFB641CB44204D120212846FDF7EBFC05
:102C20000024FFF7D7FDDBE70000002054454D509E
:102C30003A00000048554D493A000000000C0140A0
:102C400068656C6C6F0D0A00002804D0012803D061
:102C5000072803D0042070470220704706207047E1
:102C600010B5092801D8303004E0A0F10A01052987
:102C700002D83730C0B210BDAFF30080002203E0AD
:102C800010F8013B1A44D2B2491E89B2F8D2504220
:102C9000C0B2704770B5094DFF231A4605F580761E
:102CA00006E000BF10F8014B54402A5D5A40335DE6
:102CB000491E89B2F6D242EA032070BD8C43000857
:102CC0000A4B00281A68D06802D040F0200001E0CA
:102CD00020F02000D06018680029C16802D041F0BF
:102CE000800101E021F08001C1607047481500209B
:102CF00007480068016A41F21112114207D1016AC6
:102D00009210114203D1016821F001010160704766
:102D100074140020044800210268516200680168B0
:102D200041F001010160704774140020F8B5374C80
:102D30000027207808B1AFF30080684600F0F4F86F
:102D400060780025012670B3012802D002285AD1EC
:102D500039E0FFF7DFFF9DF800003A2807D00D2883
:102D600008D0A0F13001092907D8C8B20DE0A5703C
:102D7000A58048E00220607045E0A0F141010529EE
:102D800002D83738C0B200E0FF20A17811B1012984
:102D900039D10DE0A188FF2906D8A288A1680001D9
:102DA0008854A6702FE025E06570FFF7A1FF2AE0A8
:102DB000A288A16811440A7802430A70A088401CC6
:102DC000A080A5701FE09DF80000E178884207D13F
:102DD000FFF78EFF6570012000F09EF8074612E0B5
:102DE0003A2801D065700EE0A570A5806670FFF7E7
:102DF00091FF08E09DF800003A2804D1FFF78AFF10
:102E0000A580A57066703846F8BD0000F01300205C
:102E10000A4810B54178012909D0022907D0417824
:102E2000012906D04078022803D0AFF300800021AA
:102E30004170FFF75DFF002010BD0000F01300207F
:102E400070B5294C0026607808B1AFF30080207877
:102E50000025052846D2DFE800F041030A3136009C
:102E60003A2000F091F802202070A5703AE0E08846
:102E7000F0B1A1781C48C06811B1012932D108E035
:102E800000780009FFF7ECFE00F07EF80120A0704A
:102E900028E0007800F00F00FFF7E2FE00F074F881
:102EA000E068401CE060A570E088401EE08019E00A
:102EB0000D2000F069F80320207013E0E07800F0A6
:102EC00063F80420F8E72570032000F025F8064693
:102ED00000210120FFF7F4FE257003E0002101200E
:102EE000FFF7EEFE304670BDF013002005490246A4
:102EF00000204B78002B04D0087810700020487018
:102F0000012070472414002002490020487001204D
:102F10007047000024140020024901224A70087002
:102F200010467047241400200249096801700120EE
:102F30007047000004480040124810B5104AC0E92C
:102F4000002100210C22C160C0E905214FF480520C
:102F5000C161012B09D0022B0AD0016181600948AF
:102F6000FEF718FA48B1002010BD4FF4C06101E02F
:102F70004FF4806182600161F1E7012010BD000023
:102F800000480040481500200149086001207047B2
:102F90000448004030B587B00024184D00940194D7
:102FA00002940394049414490594296040F60F6137
:102FB000401E6960C5E902402C612846AC61FDF7FE
:102FC00095FE70B94FF48050009069462846FDF791
:102FD000F3FE30B9049404A928460594FDF748FE91
:102FE00010B1002007B030BD2868C16841F0010170
:102FF000C1600120F6E700000008004074140020C2
:1030000038B5174C0025207808B1AFF3008068462A
:10301000FFF78AFF607830B1124A012807D00228F2
:1030200010D0032801D1FFF775FE284638BD0020D7
:10303000A0809DF80000A1880A44491CA18010705E
:1030400002200BE0A088FF2807D89DF80010A08878
:103050000244401CA0801170E5E703206070E2E7A5
:1030600004140020AC15002070B50E4D00246878C3
:1030700070B102280BD003280DD0687858B1687859
:10308000022808D06878032805D0AFF3008001201B
:10309000FFF742FF0446FFF72BFE01206870204631
:1030A00070BD00000414002070B5154C0025607838
:1030B000012801D0AFF30080207810B101281CD185
:1030C00004E000210120FFF7FBFD16E0608850B10D
:1030D000A0680078FFF758FFA068401CA0606088D7
:1030E000401E608009E00320FFF716FF054600211F
:1030F0000120FFF7E5FD00202070284670BD00008C
:103100000414002000000000000000000000000087
:103110000000000000000008080808080808000077
:103120001818000000486C24120000000000000085
:10313000000000000000002424247F1212127F12DD
:10314000121200000000081C2A2A0A0C1828282A3B
:103150002A1C080800000022251515152A58545469
:10316000542200000000000C1212120A76252911C8
:10317000916E00000006060403000000000000003D
:10318000000000000040201010080808080808107F
:103190001020400000020408081010101010100841
:1031A000080402000000000008086B1C1C6B0808E3
:1031B0000000000000000000080808087F08080858
:1031C00008000000000000000000000000000000F7
:1031D000060604030000000000000000FE000000DE
:1031E00000000000000000000000000000000000DF
:1031F000060600000000804040202010100808044F
:1032000004020200000000182442424242424242AC
:1032100024180000000000080E0808080808080824
:10322000083E00000000003C4242422020100804FA
:10323000427E00000000003C4242201820404042F4
:10324000221C0000000000203028242422227E209E
:10325000207800000000007E0202021A2640404250
:10326000221C0000000000382402021A26424242BA
:10327000241800000000007E222210100808080810
:10328000080800000000003C424242241824424248
:10329000423C000000000018244242426458404072
:1032A000241C0000000000000000181800000000AE
:1032B00018180000000000000000000800000000D6
:1032C0000008080400000040201008040204081050
:1032D000204000000000000000007F0000007F0090
:1032E0000000000000000002040810204020100828
:1032F000040200000000003C424246402010100042
:10330000181800000000001C225A555555552D4232
:10331000221C00000000000808181414243C22425B
:1033200042E700000000001F2222221E22424242E9
:10333000221F00000000007C424201010101014205
:10334000221C00000000001F224242424242424230
:10335000221F00000000003F4212121E1212024201
:10336000423F00000000003F4212121E12120202F1
:10337000020700000000003C22220101017121220D
:10338000221C0000000000E7424242427E424242CC
:1033900042E700000000003E080808080808080886
:1033A000083E00000000007C1010101010101010DB
:1033B0001010110F0000007722120A0E0A121222BA
:1033C000227700000000000702020202020202024D
:1033D000427F000000000077363636362A2A2A2A35
:1033E0002A6B0000000000E346464A4A52525262ED
:1033F000624700000000001C22414141414141411F
:10340000221C00000000003F424242423E020202F3
:10341000020700000000001C2241414141414D5380
:10342000321C60000000003F4242423E1212222243
:1034300042C700000000007C4242020418204042C3
:10344000423E00000000007F4908080808080808FC
:10345000081C0000000000E7424242424242424251
:10346000423C0000000000E74242222424141418C9
:10347000080800000000006B4949494955553622AB
:1034800022220000000000E74224241818182424F7
:1034900042E7000000000077222214140808080800
:1034A000081C00000000007E2120101008040442C7
:1034B000423F0000007808080808080808080808C3
:1034C0000808780000000202040408080810102010
:1034D00020204040001E101010101010101010106E
:1034E00010101E0000384400000000000000000022
:1034F00000000000000000000000000000000000CC
:10350000000000FF000608000000000000000000AE
:1035100000000000000000000000003C427844422F
:1035200042FC0000000000030202021A264242424E
:10353000261A0000000000000000003844020202C9
:10354000443800000000006040404078444242425D
:1035500064D80000000000000000003C427E02022F
:10356000423C0000000000F08808087E08080808B7
:10357000083E0000000000000000007C22221C0227
:103580003C42423C000000030202023A46424242F0
:1035900042E700000000000C0C00000E08080808BC
:1035A000083E0000000000303000003820202020BD
:1035B0002020221E0000000302020272120A1612CC
:1035C000227700000000000E080808080808080814
:1035D000083E0000000000000000007F92929292DE
:1035E00092B70000000000000000003B464242424B
:1035F00042E70000000000000000003C424242425E
:10360000423C0000000000000000001B2642424235
:10361000221E0207000000000000007844424242DF
:10362000447840E000000000000000774C040404EF
:10363000041F0000000000000000007C42023C402B
:10364000423E0000000000000008083E080808088C
:1036500008300000000000000000006342424242C7
:1036600062DC000000000000000000E74224241497
:103670000808000000000000000000EB4949555513
:103680002222000000000000000000762418181814
:10369000246E000000000000000000E74224241413
:1036A00018080807000000000000007E221008082B
:1036B000447E000000C02020202020102020202058
:1036C0002020C0001010101010101010101010103A
:1036D000101010100006080808080810080808084C
:1036E000080806000C32C2000000000000000000C4
:1036F00000000000FFFFFFFFFFFFFFFFFFFFFFFFD6
:10370000FFFFFFFFFFFFFFFFFFFFFFFFFFFFFFFFC9
:10371000BEF77DEFBAD6B6B5F39CB294B39CB29423
:1037200034A5F7BDFBDE7DEFFFFFFFFFFFFFFFFFCF
:10373000FFFFFFFFFFFFFFFFFFFFFFFFFFFFFFFF99
:10374000FFFFFFFFFFFFFFFFFFFFFFFFFFFFFFFF89
:10375000FFFFFFFFFFFFFFFFFFFFFFFFBEF7FBDEE7
:10376000F39CCB5AC7390421821042104210410801
:1037700083184529C7390C6375AD3CE7BEF7FFFFD9
:10378000FFFFFFFFFFFFFFFFFFFFFFFFFFFFFFFF49
:10379000FFFFFFFFFFFFFFFFFFFFFFFFFFFFFFFF39
:1037A000FFFFFFFFFFFFFFFFFFFF3CE7B294084270
:1037B000C31882100421452986318631863186312D
:1037C0004529042182104108C3180842F39C3CE7B4
:1037D000FFFFFFFFFFFFFFFFFFFFFFFFFFFFFFFFF9
:1037E000FFFFFFFFFFFFFFFFFFFFFFFFFFFFFFFFE9
:1037F000FFFFFFFFFFFFFFFFFBDE0C63C318C318D3
:103800004529C7390842084208420842084208428E
:10381000C739C73986318631042141088210CB5A15
:10382000BAD6FFFFFFFFFFFFFFFFFFFFFFFFFFFF16
:10383000FFFFFFFFFFFFFFFFFFFFFFFFFFFFFFFF98
:10384000FFFFFFFFFFFFFBDECB5A82104529C73980
:1038500008420842094A494A494A494A494A494AA2
:103860000842C739C739C73986314529831800004E
:10387000C84138C6FFFFFFFFFFFFFFFFFFFFFFFF4D
:10388000FFFFFFFFFFFFFFFFFFFFFFFFFFFFFFFF48
:10389000FFFFFFFF7DEF8E7382104529C739084275
:1038A000094A8A523084CF7B8A52494A4A52494A4D
:1038B000CB5ACF7B0C630842C73986314529C318E0
:1038C0000000494ABAD6FFFFFFFFFFFFFFFFFFFFDF
:1038D000FFFFFFFFFFFFFFFFFFFFFFFFFFFFFFFFF8
:1038E000FFFFFFFFF39CC3180421C7390842494A70
:1038F000494A72947DEF7DEFB2944A52494A8A5206
:1039000075ADBEF7BAD64D6BC739C7398631452973
:10391000C3184108CF7B7CE7FFFFFFFFFFFFFFFFDE
:10392000FFFFFFFFFFFFFFFFFFFFFFFFFFFFFFFFA7
:10393000FFFFBAD608428210C7390842494A494AAD
:103940008E73FBDEFFFFBEF7BAD68E73084230845B
:103950003CE77DEFFFFFB6B5494AC73986314529B7
:10396000042141084529B6B5FFFFFFFFFFFFFFFF18
:10397000FFFFFFFFFFFFFFFFFFFFFFFFFFFFFFFF57
:10398000BEF7718C410845290842494A494A4A52C2
:10399000B294BEF7BEF7B294CF7BCF7B494AB6B59F
:1039A000F39C0C6338C6BAD60C638739C7398631A5
:1039B0004529C318410830847DEFFFFFFFFFFFFF5B
:1039C000FFFFFFFFFFFFFFFFFFFFFFFFFFFFFFFF07
:1039D0003CE7CB5A4108C7390842494A4A528A5201
:1039E000F39CFFFF7DEFC739C3180C63CB5AB6B504
:1039F000B294CB5A75ADFAD64D6B8739C73986313B
:103A00004529042141088A5279CEFFFFFFFFFFFFBD
:103A1000FFFFFFFFFFFFFFFFFFFFFFFFFFFFFFFFB6
:103A200038C686310421C841494A494A4A52494A5E
:103A3000B18CBEF7BEF7B294CF7BCF7B494A74A559
:103A40007DEF7CE7BEF779CE0C63C739C739863185
:103A5000452904218210452975ADBEF7FFFFFFFF00
:103A6000FFFFFFFFFFFFFFFFFFFFFFFFFFFFFFFF66
:103A700034A5821086310842494A494A8A52494A45
:103A80004D6BBAD6FFFFFFFF79CE0D63C739CF7BF1
:103A90007DEFFFFFFFFF75AD08428631C7398631E4
:103AA00045294529C318C318B2947DEFFFFFFFFFD6
:103AB000FFFFFFFFFFFFFFFFFFFFFFFFFFFFBEF75F
:103AC000B28C4108C7390842494A494A8A528A5247
:103AD0004A4AD07B7AC67BBE906BC9398831C939D6
:103AE000B384BBC6F8B5CC5A8631C739C7398631DD
:103AF00045294529C420410830843CE7FFFFFFFFEA
:103B0000FFFFFFFFFFFFFFFFFFFFFFFFFFFF3CE7A0
:103B10008A4AC310C7390842494A494A4A4A4A426E
:103B2000093A084A096B497BC67A05834683C57AF8
:103B3000C672097B485A87318821882986318631A7
:103B400045294529042141084A4ABAD6FFFFFFFF0B
:103B5000FFFFFFFFFFFFFFFFFFFFFFFFFFFFF7C5B7
:103B600082500541C7290842494A4A42494A097BCD
:103B7000889BC6B321D4A0DCE1E461ED61ED21EDC9
:103B8000A0E420DC80CB43ABC482065A47214629FF
:103B900045290429041982108218F39C7DEFFFFF48
:103BA000FFFFFFFFFFFFFFFFFFFFFFFF7DEF4D93D5
:103BB00000A082B8C7310932494A867A43C36BED07
:103BC000F4F6EBFD20FD20FD60FDA0FDA0FD60FDF5
:103BD00060FD20FDE0FCA0FC60F4C1DB839AC549D8
:103BE00045290419C42082380050CB6ABAD6FFFF99
:103BF000FFFFFFFFFFFFFFFFFFFFFFFFFBEE04A143
:103C000000C000F0C3A0C8414942059B20FCA4FCB1
:103C100069FDE8FD63FD20FD60FD60FD60FD20FDA8
:103C200020FDE0FCE0FCA0FC60FC20FC41D3C54989
:103C30004519C438826841880070495A79CEFFFF1F
:103C4000FFFFFFFFFFFFFFFFFFFFFFFFFBF682C04D
:103C500000D086C146F141C8457989528862866A9A
:103C6000C67AC4BBE1FC60FD60FDA0FDA0FD60FD67
:103C700060FDE0FC60E403938472446AC541452919
:103C8000C35841A8409800B000600C6B79CEFFFF8C
:103C9000FFFFFFFFFFFFFFFFFFFF7DEFCE83828867
:103CA00000F8C4D80CF38AFA82E882B04569C7519B
:103CB0000842083A865A839BA2BC22CD21CDA1C4DA
:103CC00022B4C47A063A862945290531C450419068
:103CD00000C000A800A000A800304A4ABAD6FFFFE2
:103CE000FFFFFFFFFFFFFFFF7DEF8E73C318053956
:103CF00082A800F8C3F84DFB4DFBC7F9C3F082D88A
:103D0000C3B00481456146518649864946414541D3
:103D10004541454105490461829041B000D000C849
:103D200000A800A800B8415882108210B294BEF7D3
:103D3000FFFFFFFFFFFFBEF7CF7B82100421862924
:103D40008641049940E841F886F9CBFA49FA82F8AD
:103D500000F800F000E841D841D041C041C041C066
:103D600041C041C800D000E000E000D800D000B859
:103D700000A841888248821082100000452979CE2F
:103D8000FFFFFFFFBEF7F39C8210C3184529863161
:103D9000C731307CF3DC86E100F000F841F841F8EF
:103DA00000F800F800F800F800F800F800F800F853
:103DB00000F800F800E800E000E000D800C841A0EA
:103DC0008A9A0C63041182108210410800004D6B26
:103DD0007DEFFFFFFBDE0842421045298631863128
:103DE000494A38BEFFFF38D686A900C800E000F077
:103DF00000F800F800F800F800F800F800F800F803
:103E000000F000F000E800E000D0C3988A8AB2A475
:103E1000BAC6F7B50842410882104108000045299A
:103E2000F7BDFFFF718C4108042145298631863199
:103E30000C633CE7FFFF79D646B900E042C882A890
:103E400082B041D882E882F041E841E841E841F09F
:103E500041E841D804C108924D8B34A5FBC6FBD67E
:103E6000BACE3CE73084C31841084108000041083D
:103E7000CF7B7DEF494A0000042145294631863138
:103E80003084FFFFFFF7F7DD09DA83F801F042C065
:103E90008298499AF3B4F3CC71BC8EBB8EBB30BC14
:103EA00071BCF3BCB6BDFBCEBEE77DE73BDFBAD647
:103EB00079CEFBDE75AD8631410841080000000077
:103EC000494AFBDE04214108042145294529873957
:103ED000B294FFFFBEF734DD0CEB09FA00F001D815
:103EE00000D88BD27DE7FFFFFFFFFFFFFFFFFFFF43
:103EF000FFFFFFFFFFFFBEFF7DEFFBDEFBDEBAD65D
:103F000079CEBAD678C6C739000041080000000053
:103F1000C73979CE00008210C318042105298631E3
:103F2000B39CFFFFFFF775DDC7E9C7F901F801F0A2
:103F300000E849E2FBEEFFFFFFFFFFFFFFFFFFFF8F
:103F4000FFFFFFFFFFFFBEF77DEFFBDEFBDEBAD614
:103F500079CEBAD6B9CE08420000000000000000B9
:103F6000C73938C600008210821004210421452977
:103F70003084FFFFFFFF38DEC4D000F001F800F806
:103F800000F008D2FBE6FFFFFFFFFFFFFFFFFFFF90
:103F9000FFFFFFFFFFFFBEF77DEFFBDEBAD679CE56
:103FA00079CEBAD679CEC7394108000000000000AA
:103FB000863138C600000000C318CB5A8631C318BA
:103FC000CB5A7DEFFFFF7DEFCFBBC3B041D041D0D7
:103FD00082B84DB37DE7FFFFFFFFFFFFFFFFFFFF4D
:103FE000FFFFFFFFBEF7BEF73DEFFBDEBAD679CE8F
:103FF00079CEFAD6F7BD04218631042100000000F5
:10400000863138C68631C318CB5A75ADCF7B41088F
:104010008631F7BDFFFFFFFFBEEF74B5309C309CCB
:1040200072A4BBD6FFFFFFFFFFFFFFFFFFFFFFFFF5
:10403000FFFFFFFFBEF77DEF3CE7FBDEBAD679CE90
:1040400079CE3CE7718C81080C63CF7B8210000035
:104050008A5238C675AD718CB6B53CE7FBDEC73900
:104060000000CF73FFFFFFFFFFFFFFFFFFFFFFFF1A
:10407000FFFFFFFFFFFFFFFFFFFFFFFFFFFFFFFF50
:10408000FFFFBEF77DEF7DEF3BDFFAD679CE79CE2D
:10409000FBDEB9CEC739C420718CBAD6718CCB5A2D
:1040A000B294BAD6FFFF7DEF7DEFFFFFFFFFB6B5FD
:1040B0004629051975A5FFFFFFFFFFFFFFFFFFFF63
:1040C000FFFFFFFFFFFFFFFFFFFFFFFFFFFFFFFF00
:1040D000FFFFBEF77DEF3CE7FBDEBAD679CEBAD65E
:1040E000FCDE4E6342080C63F7BDBEF7FFFFFBDE4C
:1040F000FBDEBEF7FFFFFFFFFFFFFFFFFFFFFFFF3E
:10410000F49C04210521B6A5FFFFFFFFFFFFFFFF81
:10411000FFFFFFFFFFFFFFFFFFFFFFFFFFFFBEF7F8
:10412000BEF77DEF3CE7FBDEBAD679CEFBDEBBD631
:10413000D17383188639349DBDEFFFFFFFFFFFFF6A
:10414000FFFFFFFFFFFFFFFFFFFFFFFFBEFF35D6B3
:10415000EBCC43B340510519F58CBEEFFFFFFFFFD9
:10416000FFFFFFFFFFFFFFFFFFFFBEF7BEF77DEF83
:104170007DEF3CE7FBDEBADEBAD63CDF3ABE4F63EA
:10418000824940A323B4CC833ABEFFFFFFFFFFFF69
:10419000FFFFFFFFFFFFFFFFFFFFBFF7B5BD8292ED
:1041A00020F4A0FC60E4408284418F6B77AD3DE752
:1041B000FFFFFFFFFEFFBEF7BEF7BEF77DEF7DEF0F
:1041C0003CE7FBDEFBDE3DE7BBCE369D0B6B416A79
:1041D00060C420FE60F5008BC76A38C6BEF7FFFFDB
:1041E000FFFFFFFFFFFFFFFFFFFF7DEF4B7B80B275
:1041F000A0FCA0FCE0FCE0FCC0CBC18A45624D6B9A
:10420000B394F7BD3DDFFFF7FFFFBEF77DEF7DEF16
:104210007DE73DDFBAC675A58D7B847A40B3E0ECBF
:10422000E0FDE0FD60F520E5A0D40A6BFBDEFFFFBA
:10423000FFFFFFFFFFFFFFFFFFFF7DEFCC9340EB92
:1042400060FCA0FCE0FC20FD60FD20F5A0D4C0BB1C
:10425000429B458B6B9CAE9C718CB394339D34A573
:10426000F2A4F0B4CA9B049B40BB20E420FDA0FD57
:10427000A0FDE0FDE0FDE0FD20C4885A38BEFFFF50
:10428000FFFFFFFFFFFFFFFFFFFFFFFF78D646ABFB
:1042900040DB20F460FCA0FCE0FC60FDA0FD60FDC4
:1042A00020F5A0DCC0B3C05186290D638F7B0D5B68
:1042B000C741018200C3C0E360FCA0FCE0FCE0FC5D
:1042C00060F560F520E5809B8662308479CEFFFF43
:1042D000FFFFFFFFFFFFFFFFFFFFFFFFFFFF38C6EE
:1042E0002D9C059343A382B3C2BBC2BB22B482A35D
:1042F0004293C37A85620B637184B6B579CE79C671
:10430000B5AD70944A8B06830493049B439B439BF7
:104310004393048308738D73B39479CE7DEFFFFFCD
:10432000FFFFFFFFFFFFFFFFFFFFFFFFFFFFFFFF9D
:104330003CDF38BE75B533A533A5F39CF39CF39CE5
:10434000F394F39C35A5F8BDFBDEBEF7FFFFFFFF3E
:10435000FFFF7EEFBBD6F8BDB6AD75AD34A5339D7E
:10436000349D35A5B7AD79C63CE7BEF7FFFFFFFF2B
:10437000FFFFFFFF00000000000000000102030437
:1043800006070809000000000102030400C1814083
:1043900001C0804101C0804100C1814001C0804115
:1043A00000C1814000C1814001C0804101C0804105
:1043B00000C1814000C1814001C0804100C18140F5
:1043C00001C0804101C0804100C1814001C08041E5
:1043D00000C1814000C1814001C0804100C18140D5
:1043E00001C0804101C0804100C1814000C18140C5
:1043F00001C0804101C0804100C1814001C08041B5
:1044000000C1814000C1814001C0804101C08041A4
:1044100000C1814000C1814001C0804100C1814094
:1044200001C0804101C0804100C1814000C1814084
:1044300001C0804101C0804100C1814001C0804174
:1044400000C1814000C1814001C0804100C1814064
:1044500001C0804101C0804100C1814001C0804154
:1044600000C1814000C1814001C0804101C0804144
:1044700000C1814000C1814001C0804100C1814034
:1044800001C0804101C0804100C1814000C0C10124
:10449000C30302C2C60607C705C5C404CC0C0DCDB4
:1044A0000FCFCE0E0ACACB0BC90908C8D81819D924
:1044B0001BDBDA1A1EDEDF1FDD1D1CDC14D4D51554
:1044C000D71716D6D21213D311D1D010F03031F144
:1044D00033F3F23236F6F737F53534F43CFCFD3D74
:1044E000FF3F3EFEFA3A3BFB39F9F83828E8E92964
:1044F000EB2B2AEAEE2E2FEF2DEDEC2CE42425E514
:1045000027E7E62622E2E323E12120E0A06061A183
:1045100063A3A26266A6A767A56564A46CACAD6D33
:10452000AF6F6EAEAA6A6BAB69A9A86878B8B979A3
:10453000BB7B7ABABE7E7FBF7DBDBC7CB47475B5D3
:1045400077B7B67672B2B373B17170B050909151C3
:104550009353529296565797559594549C5C5D9DF3
:104560005F9F9E5E5A9A9B5B9959589888484989E3
:104570004B8B8A4A4E8E8F4F8D4D4C8C4484854593
:10458000874746868242438341818040AC4500088C
:10459000000000202C140000D8010008A0500008E2
:1045A0002C140020AC1200002C220008B2000110D4
:1045B000080800100018006004100AE0001808C085
:1045C000F8FF1FC01010090000180600E0FF0F08D8
:1045D0001300401C100AFE001818C0FCFF3FC01A50
:1045E0001104700A02C0C0FF07C040000604211079
:1045F00012480812440C12C20C12430C5005410020
:1046000006E02410080040F00300408004A30001ED
:104610007E1240801004C0013854121C8420302CBB
:104620000060084600FE1FC6002000830130808124
:104630000390C0C20E9063FD7D9831001888290850
:10464000008CE51F18FC7F8C0884618C0880044373
:10465000E18F08210C111812FC10628C10310452E9
:104660000C04E00C8C0F80610E0E8021040400010C
:10467000120C89123CD94260DD23008004420104FF
:1046800053C00304120220520604114343300C04A9
:1046900016182C130C3804100530000006411303C3
:1046A000E0371013C001800080034000000F20009D
:1046B000003E1000001C2A00041108020001924074
:1046C0006C2008800108F0FFFF1F30100B186020DD
:1046D0000418C0700200CC5C301F8C1C00800C0ED3
:1046E00001400C030660CC210C70EC201C303C20F7
:1046F00008000E6000C0F97FBB61B45005C08001A6
:104700000304B2010427FFFF786104C18414081870
:104710000004FCFFFF0FD8420604400806024000D8
:104720000302600413032004200730040303F00F86
:104730000810140103380401113884FF3F340401C8
:1047400010340400103204200D30040018300480AE
:104750001930E4FF1B0C23F00710111414070C0090
:10476000083000201E1AC04C13000704051307016F
:10477000320112E00452F004021DE020021A6049E6
:10478000140B408201E0FFC201006064D8101114D4
:104790000460300C0EC019080680091801800D62F3
:1047A000140C066C0000FBDF018001800720240B45
:1047B0003E2001401C18FFFF0004E2A10443FF7FDC
:1047C000102D57034B04301429201408380800001A
:1047D000100418640A123F01159C59099104214CD8
:1047E0008110413C15E01640E4181C8080030380D2
:1047F0008383070087C501008765000086190000D4
:10480000C2090000B0112C1C0C310000876100C0EF
:1048100081C101784003340D3C80011F1884013EA2
:1048200008F8010C11FA40FE2D10031B0EF8785EFB
:1048300000DD03217F1B8020C2193419CC720004D3
:10484000C381C1040310C1C0041E402C03140760BF
:104850001C000070704C140FE00100188007000E5F
:10486000000F0003000EB00F100C1C02031D1F03ED
:10487000330038E056C0B52D88031D39031C0510E0
:104880002000041003B0060F30100C0404F004F0F4
:104890000F0414011918114447073092DB04102447
:1048A0004D37031E18840411041019400C08E0FF52
:1048B000FC1F200242003006C10018C4800104849D
:1048C000810010211D9803373F10CE2C09400C1C8D
:1048D000FFFF040003EC03510435F82110154E12BC
:1048E00003522D6C031E034E03A10425E431140D65
:1048F000150404E00ACCFF1FFCDF300C80C00473F9
:10490000FF0F0C8004CC300C245118134030C451DC
:10491000041230241ECEC005100503300078141296
:104920001C0412080419D50804121000FC7C55025E
:1049300012FEB08E06FE03710443FEFF144DB9044F
:104940001A03101A07832004038081041984C38189
:10495000010463C100041D4C032D20051D3C031EF2
:104960003841051A1C041102190EEA040015E71E4D
:10497000049C041A0FD8021606041120E2071452F0
:10498000600412E09492601052200412300C521015
:10499000041C09088071070880C107B605EF0302EF
:1049A00000056D800545BD2D9F041602C01A07B095
:1049B000021706048120AC04020001BF0549505DC6
:1049C000430369C739E15E186706ED04061620BA8D
:1049D000AC06C080FF01C05C031541170080803227
:1049E000C0041C083F8060803FFC23940314061120
:1049F000000180ED8425802301810442010410051B
:104A0000C2008021041C0F11640080097C00800515
:104A100038008007188206110C1F01E631041FC3FD
:104A200007DD071C043F0038EA06F6078025441E10
:104A30000FF404A2060435582DB8071DB3071961F9
:104A40002E0688032DF907228094A9E079D8011158
:104A500010C11C08041618FEFF840D1112042D90BD
:104A6000071E1EE1051804FFFF03004C0903F0C1F7
:104A7000010030C0019404210412C3D71114153B66
:104A800019DB1C0BFF7FFEC3FF7F0EC0013EC90375
:104A9000F200040F3080015D062D16052D18031F4E
:104AA000FEFFBA041179520C0432FC718110211CF2
:104AB00041281C0401000FF8071C0907C001F80376
:104AC000C001FE040872FC810D35E1062F076084E9
:104AD000054554C30770044F1F7C78042104E11C72
:104AE0002120611C0F3902205E074009E0011806F1
:104AF000E001FC0F04100718EEFF7F18F6041C05F8
:104B000037E03DF8CE0313F8C7142009C6E30118B7
:104B100086E701181051041F1804F8051E40FC0315
:104B20002E80D80602357FFD1D70091E187F0A18D9
:104B3000120E3C00C007F800FE03E003FE00C07F39
:104B40003C08C81006FE011E00FEE013C0710412EE
:104B500061A71D8405127004163C181E1E08051C52
:104B6000090F3800FEE31F00FC73082D7F06013398
:104B7000FF240A307000C87F7000F83F501377069A
:104B8000041C240F1807770EFC7F731C1C877338D6
:104B900080877160C08F7000E05F700C783F700C90
:104BA0003E67700E1C07F6081E07F0041C0A07F08B
:104BB0000100077E0000E73F0B0F14E700F4050536
:104BC0009E805E06AE091E8E7C051C04D8FF0FBCBD
:104BD00007220704100CC0181807C0FC3F07C01CB0
:104BE000380C11042005F81F07E0041118210412E5
:104BF000700C1C0678F83F073EFC0A21041DFA08D9
:104C0000520F4E052C801E0E49051E9CEC041E9C66
:104C1000980A154E1C05C0810107C3051E0603092D
:104C200010180680FDFF06808D030680913B0680EC
:104C3000F93F0680B13306C091040C17349933074D
:104C4000E0983307F09C3307788833073C80030FE4
:104C50001C8003740A1E0254031F037044052C07B2
:104C60007000C01F7000980B201778C0FF1F7EC017
:104C70007118FEDF7118E0C3711C00C3FF1FF8BF7D
:104C80000410047000082C130023301930128030F7
:104C900013C00F0421405F007006060529FB9D78B4
:104CA0000C2D000921041F70C04E0A1C12D3310CB8
:104CB000309B390CA01BDC0D8039CE0080E17D08D3
:104CC0001C11E00F3C007CFF3FE08FFD1FFEC3E1A5
:104CD0000F3C28051F00C3140621045D3C050E127D
:104CE00080F40B011F841C07800110C0FF01180A0B
:104CF0003F01F864061E83020A41041C17E080830A
:104D000001F0998301F89F8339DE88FF3FCE880147
:104D10003CC008EA071C04EFFF394C061E39D506D3
:104D20002DE7071D050A4C04E01F00F80B0D30FFAE
:104D3000035E01800A4303E004310C4EC0FC052DE4
:104D400014051FC3031C051DB30A11A01EE00806AD
:104D500016F02C2E90180646C13C1DD00A2E7F1846
:104D6000061D8A0A5E3F83070D2C7F031EC3BF0406
:104D70001C12E3300CF0FFFB1FF8FF3B1E00C310BA
:104D80001C00FFCE0C1006F3F00F00C304210C2210
:104D9000C3042F780E3C0D1C19FEFF1F0C06401893
:104DA0000C00E31C1C80C30E1CC0810F1CE0E0073C
:104DB0001CB4065E1CFB07D96020130202E43F040A
:104DC00002C01F0002E77F0400C41F4410041C2A15
:104DD000D41F4C10441440080402040584085F10DA
:104DE000A46F0200CA23492A5F2AC82B582A4F2AD7
:104DF000CA2B4822482A481320380C32800223400C
:104E000001021C10200220021004100408080408EB
:104E1000021001BB071E802305201302404124908D
:104E2000021411D2283808E70F80008410022FFCEA
:104E30001F62071018801F3F100810081104113C52
:104E400011267F264025402440A45F3C060712041B
:104E500028303E0C270F41061D490B400802FC7EFE
:104E60001209A11066100CF9270804F8070800F8C9
:104E70000F08012106194110083FBF248824883FEC
:104E800004100424BE3F97130488063C0638040728
:104E900004C29304612C10050000FC1FB9319A1C58
:104EA0000A84104003200C181007370F63FC1FAE54
:104EB000C1084007821082140108FE13F81FC23196
:104EC00002310A1DCC101E08B9073E04B10A142590
:104ED000840F88088808800840702F00C81F881039
:104EE00088080809280518020805C0183060FE3F28
:104EF0002222FE3F24110421B6A1043D7B0D100B9C
:104F00001000103E102210A27F2206110A10041178
:104F10002212023114140A001400080400C83F08C9
:104F2000753004E22322018108158916288B100DA3
:104F300000E83F002042208220FA2F82061005F26E
:104F40002792240210042592220E112025102408F5
:104F50003C040404823FBD263724BF2A10060804FF
:104F60002804181A073E0004C0251EA00BFE3FA00F
:104F70000290048C188360E25D5B0E131FFE221CFE
:104F800004FC1F4045081E200212300CF80F1408C4
:104F9000F20F1108F00F1004013EC01D1A0B10157E
:104FA000023F3E08218810447F3C492649267F2540
:104FB000492449240C100CA44884504020000204C9
:104FC0000208022128220F0A220502200BA80898B5
:104FD000084810202010401C10190802C87F180132
:104FE0002A090A098A48894A882A4809481428143B
:104FF0000822562640EC5408F83F0400FA0F09B87E
:105000001C092000F00F180426024E121E0E010982
:10501000180D047F1449246B245D04C97F7F7C1123
:1050200004000E1E0A780A070A4011551195204106
:105030004080ED40033C040024F43D118E109E0896
:105040000D274B081D960F280400AD25341C0500C4
:1050500000AF242B061D90101251082DE70A2C05D5
:10506000BD2600086B0712270822172C112821687B
:105070001C066D23000805D81012D1382D39114FA8
:105080005926401212DF180D3630110F14AC158955
:10509000061601AD1E0338031E05A713D2075F00D5
:0400000508000131BD
:00000001FF
