:020000040800F2
:10000000F0050020F1010008F5010008F7010008E3
:10001000F9010008FB010008FD01000800000000D4
:10002000000000000000000000000000FF010008C8
:100030000102000800000000030200080502000899
:10004000070200080702000807020008070200086C
:10005000070200080702000807020008070200085C
:10006000070200080702000807020008070200084C
:10007000070200080702000807020008070200083C
:10008000070200080702000807020008070200082C
:10009000070200080702000807020008070200081C
:1000A000070200080702000807020008070200080C
:1000B00007020008312900080702000807020008AB
:1000C00007020008070200080702000807020008EC
:1000D00007020008BD290008412A0008070200089D
:1000E00007020008070200080702000807020008CC
:1000F00007020008070200080702000807020008BC
:1001000007020008070200080702000807020008AB
:10011000070200080702000807020008070200089B
:10012000070200080702000807020008070200088B
:1001300000F002F800F04DF80AA090E8000C8244AC
:100140008344AAF10107DA4501D100F042F8AFF289
:10015000090EBAE80F0013F0010F18BFFB1A43F0A5
:1001600001031847743A0000943A0000103A24BF83
:1001700078C878C1FAD8520724BF30C830C144BF0C
:1001800004680C607047000000230024002500264E
:10019000103A28BF78C1FBD8520728BF30C148BFEA
:1001A0000B607047662903F0B684642900F048802C
:1001B000782900F08180002070471FB500F080FB97
:1001C00004000020002102F0B1FEE0601FBD10B568
:1001D00010BD00F08DFC1146FFF7EFFF02F070FD3F
:1001E00000F0ABFC03B4FFF7F2FF03BC02F018FD14
:1001F00008480047FEE7FEE7FEE7FEE7FEE7FEE70A
:10020000FEE7FEE7FEE7FEE703480449024A044B27
:100210007047000031010008F0010020F0050020C7
:10022000F0010020704700000FB4044910B503AA84
:10023000029800F033FB10BC5DF814FB04000020B2
:100240002DE9F0410646002410687529314616A5AF
:1002500010D0AFF30080002802DA404213A507E077
:1002600031688A0701D512A502E0490704D511A516
:10027000012401E0AFF3008000210A2206F12407E7
:1002800009E0B0FBF2FCB0FBF2F302FB1C003030E3
:1002900078541846491C0028F3D123462A46304694
:1002A000BDE8F04100F094B8000000002D0000000F
:1002B0002B0000002000000070B504460D462146CA
:1002C0001068AFF300802188090502D50F4A7A44EF
:1002D00002E00E4A7A440E32002104F1240305E0C4
:1002E00000F00F060009965D5E54491C0028F7D106
:1002F00020780023000704D5702D02D009B1022315
:1003000011322046BDE8704000F062B84838000065
:100310002DE9F0410F460546002028622846E9688D
:10032000884770B3252805D0D5E901219047286A70
:10033000401CF2E7E9682846002688476C280446F6
:100340000AD0682C08D04C2C35D06A2C31D0742CB3
:1003500031D07A2C2FD016E0E96806462846884727
:10036000B042044608D16C2E23D04FF48066284654
:10037000E9688847044606E06C2E03D04FF4807687
:1003800001E01EE04026E4B1A4F14100192802D8A2
:10039000203446F400663A46214628462E60FFF790
:1003A00001FF60B1012808D0FF1D27F007070837BB
:1003B000B4E78026DBE70026D9E73F1DAEE72046FD
:1003C000B2E7286ABDE8F081704770477047704710
:1003D0002DE9F0470D4699469246044600F124085F
:1003E0000168880604D5E06921F01001216000E071
:1003F0000120A84201DD471B00E00027A1697A190E
:1004000002EB0900081AA0612078C00602D4204639
:10041000AFF30080002608E0D4E901211AF80600B5
:100420009047206A401C761C20624E45F4DB207801
:10043000C0060AD52046AFF3008006E0D4E90121CA
:1004400030209047206A401C2062381EA7F1010727
:10045000F4DC07E0D4E9012118F805009047206A90
:10046000401C2062281EA5F10105F3DC2046AFF3F5
:1004700000802078000602D50220BDE8F087012028
:10048000FBE770472DE9FF4F0C461E464FF0FF3744
:100490008BB0D2E90001DDF860800A908A46C1F392
:1004A0000A5505B93D46002108464FF00000BAF153
:1004B000000F00F4400005DA00EB80004FF440012B
:1004C00001EA50004FEA9059B9F1010F00DDB94639
:1004D0000A9850EA4A000ED044F61050A5F2FF35B3
:1004E00045432F14B8F1000F1ED07542291E1EDDA2
:1004F000C9F100021CE0B8F1010F4FF0000001D07B
:10050000302103E0F24305E02154401CB042FBDB04
:1005100030460022002121540B99C1F80880C1E91E
:1005200000200FB0BDE8F08FBD1B6D1CDEE74A4612
:1005300000DA694206A800F065FA06AB93E8070006
:1005400003AB83E8070050460A9900F03FFB8DE8B3
:100550000700A0F500501F3800900398002D09DD1A
:1005600042F21F014A46084403A90390684600F07E
:100570009EFD08E0A0F500504A461F3803A90390ED
:10058000684600F0A8FD8DE807000004000C03D0C9
:100590004FF0FF30410800E01046B8F1000F03D0E3
:1005A0000022009215461EE0751E05D400F08CF95D
:1005B000303262556D1EF9D5B3460122084302D090
:1005C00000227F1C04E02078302801D100227F1E09
:1005D000002A099786D01DE0112D07DA00F074F982
:1005E000303262556D1C50EA0102F5D1084302D049
:1005F0000098C8B10EE00021681E05E0235C625C33
:1006000063542254401E491C8142F7DBAB46A81BB1
:10061000401E0990002004F80B000B98099AC0F8BE
:100620000880C0E9002B7CE711264FF0000859E74D
:100630002DE9F04F88460446D21D22F0070191B003
:10064000D1E90001CDE90A0102F0D6FA02460B9881
:10065000C00F01D02D2007E02068810701D52B2095
:1006600002E0202101EAC000032A099001D0072AF4
:1006700005DB03464146204600F084F90BE1207873
:10068000800601D5E06900E00620B8F1650F8146DB
:1006900006D0B8F1660F18D0B8F1670F70D131E00D
:1006A0000020B9F1110F009001DB112301E009F1E5
:1006B00001030AAA01A90CA8FFF7E4FEDDE90C700A
:1006C000002609F10105834647E001204B460090D2
:1006D0004FF000470AAA01A90CA8FFF7D3FEDDE9F5
:1006E0000DB00C995D46002610B909F101000D18F6
:1006F000B9EB050003D4C0F1FF3609F10105A5EB04
:1007000009002BE0B9F1010F01DA4FF001090020D7
:10071000B9F1110F0090484601DD112300E00346B6
:100720000AAA01A90CA8FFF7ADFEDDE90C704D4641
:1007300000268346207800070AD4AB4500DA5D46E0
:1007400001A8012D04DD411911F8011C302907D041
:100750004F4502DA17F1040F04DA012082460FE058
:100760006D1EEEE7002F02DCED1B3E4403E0781C1B
:10077000A84200DD7D1CB81B00F1010A4FF00047C4
:100780002078000703D4AA4501DB4FF0FF3A00218F
:10079000B7F1004F0DF143088DF8431024D002202B
:1007A0002B23002F01DA7F422D230A21021EA0F104
:1007B000010000DC5FB197FBF1FC97FBF1F201FB5C
:1007C0001C7C17460CF1300C08F801CDEEE7A8F1BF
:1007D000010003702188090501D5452100E065214C
:1007E000A0F1010800F8011C09980FA9A1EB080766
:1007F000FF1D00B10120411901EBEA70A1693844E5
:10080000081A401EA0612078C00602D42046AFF32B
:100810000080099828B1D4E901219047206A401C42
:1008200020622078C00622D52046AFF300801EE06B
:10083000002E04DBB34502DD01A8805D00E030201E
:10084000D4E901219047206A401C2062761CAAF15D
:1008500001005FEA000A0AD100F032F8C0680168BE
:10086000405CD4E901219047206A401C2062281E88
:10087000A5F10105DCDC07E0D4E9012118F8010B42
:100880009047206A401C2062381EA7F10107F3DC64
:100890002046AFF30080032011B043E6074B70B54C
:1008A0000D467B4400F05BF80446284600F018F93A
:1008B00010B14FF0FF3070BD204670BDFF23000027
:1008C00000487047B001002030B5B0F10A024FEA8D
:1008D000900E71F100034EEA817EB0EB0E0061EBE9
:1008E00091014FEA101E4EEA017E10EB0E0041EB23
:1008F00011114FEA102E4EEA016E10EB0E0041EB83
:1009000011214FEA104E4EEA014E10EB0E0041EB62
:100910001141401841F100014FEAD00040EA417016
:100920004FEAD10110EB80054FEA810444EA90744C
:1009300044EB01046D1944EB0404521BA3414FF036
:10094000000348BF0A3200D530BD401C41F1000110
:1009500030BD000001694A1C02610878704700B58B
:100960008FB0CDE901310021059105497944CDE9E8
:10097000031011466846FFF7CBFC0FB000BD000026
:10098000E5FFFFFF2DE9F0411F46044603260168FD
:10099000072A01F4006004DB08B116A505E016A5DE
:1009A00003E008B115A500E015A521F010002060B6
:1009B000A069C01EA0610FB1401EA0612046AFF328
:1009C00000804FB1D4E9012138469047206A401C8D
:1009D0002062C01C206206E0206AFAE7D4E9012107
:1009E00015F8010B9047761EF8D22046AFF3008031
:1009F000BDE8F0814E414E006E616E00494E4600EA
:100A0000696E66002DE9F047814616468AB0334884
:100A100078440DC88DE80D0030487844801C03AC44
:100A20000DC884E80D0041F69B300844372190FB47
:100A3000F1F290FBF1F5A5F1800501FB12041B3CDE
:100A400002D56442012000E00020DFF890A080463B
:100A50000027FA44AAF1BE0A0DE0E00709D03246A9
:100A6000684607EB47010AEB810100F034FB8DE893
:100A7000070064107F1C002CEFD1184F7F44AC3F5F
:100A800018E0E80714D007EB04100DF1180A90E8FD
:100A90000E008AE80E00C068F04201D19819089053
:100AA000324606A903A800F016FB03AB83E8070053
:100AB0006D10641C002DE4D132466946B8F1000F78
:100AC00003A802D000F0F3FA01E000F004FBC9E94A
:100AD0000001C9F808200AB0BDE8F087AC31000079
:100AE000007B00F0800070470048704790010020B4
:100AF0007546FFF7F9FFAE4605006946534620F0FC
:100B00000700854618B020B5FFF77EFBBDE8204002
:100B10004FF000064FF000074FF000084FF0000BB9
:100B200021F00701AC46ACE8C009ACE8C009ACE86C
:100B3000C009ACE8C0098D46704710B50446AFF354
:100B400000802046BDE81040FFF74CBB4FF0013C51
:100B500050F8042B51F8043B9A4221D1A2EB0C032C
:100B6000934313EACC1317D150F8042B51F8043BEC
:100B70009A4215D1A2EB0C03934313EACC130BD189
:100B800050F8042B51F8043B9A4209D1A2EB0C0314
:100B9000934313EACC13DBD04FF00000704700BF43
:100BA000D01A01BAB1FA81F101F0180122FA01F06C
:100BB000CB40C1F12001DBB2C0B2C01A2CFA01F364
:100BC000D11A914311EAC311E6D170475FEA400C94
:100BD00008BF91F0000F4FEA8C234FEAC12243EA8D
:100BE00051514FEA1C5018BF00F5F0404FEA300059
:100BF00018BF41F000415FEA6C5C00F02980BCF155
:100C0000FF3F08BF40F080407047130C06BF12043E
:100C10004FF0100C4FF0000C130E04BF12020CF139
:100C2000080C130F04BF12010CF1040C930F04BF46
:100C300092000CF1020CD30F04BF52000CF1010C16
:100C400011464FF00002A0F11F00A0EB0C0070470E
:100C500011F0004F08BF704731F000413FF4D5AFAD
:100C60000B0C06BF09044FF0100C4FF0000C0B0EDC
:100C700004BF09020CF1080C0B0F04BF09010CF1B1
:100C8000040C8B0F04BF89000CF1020CCB0F04BFC6
:100C900049000CF1010CCCF12003A0EB0C0022FA6E
:100CA00003F302FA0CF241EA030100F1010070477C
:100CB00020F07F4C80EA030023F07F47ACEB070372
:100CC00003F57C5300F0004003F1FF032DE9804958
:100CD0004FEA154B09B44FEA144325EA0B4E24EAB8
:100CE00003480FF2042606EB132749083E785FEA13
:100CF000320203FB0667C7F5000707FB06F64FEA5B
:100D000054374FEAD64606F1020607FB066CCCF1D3
:100D1000005C4FEA1C472CEA074C07FB06F40CFB6F
:100D200006F504EB15464FEA961634BF00204FF047
:100D300000404FEAD13706FB07FC4FEA1C4C0CFB86
:100D40000BF7D21B03FB0CF761EB07010CFB0EF753
:100D5000B0EB074072EB17420CFB08F734BFA2EB75
:100D60000742B2EB074261EB17414FEA0C444FEAEE
:100D7000910706FB07FC4FEA1C4C0CFB0BF7B0EB92
:100D8000C74072EB573203FB0CF734BFA2EBC742EC
:100D9000B2EBC74261EB57310CFB0EF7B0EBC7006B
:100DA00072EB57720CFB08F734BFA2EBC702B2EB31
:100DB000C70261EB5771039F4FEA816141EA9211CB
:100DC00004EBCC044FEAD1374FEA826206FB07FC02
:100DD00042EA90124FEA80604FEA1C4C0CFB0BF782
:100DE000D21B03FB0CF761EB07010CFB0EF7B0EB1A
:100DF000074072EB17420CFB08F734BFA2EB074227
:100E0000B2EB074261EB17414FEA8C554FEA91076D
:100E100004EB9C2406FB07FC4FEA1C4C0CFB0BF775
:100E2000B0EBC74072EB573203FB0CF734BFA2EBB9
:100E3000C742B2EBC74261EB57310CFB0EF7B0EB88
:100E4000C70072EB57720CFB08F734BFA2EBC70266
:100E5000B2EBC70261EB577115EB4C254FEA81618C
:100E600041EA92114FEA82624FEAD13742EA901288
:100E700006FB07FC44F100044FEA80604FEA1C4C7B
:100E80000CFB0BF7D21B03FB0CF761EB07010CFB10
:100E90000EF7B0EB074072EB17420CFB08F734BFBC
:100EA000A2EB0742B2EB074261EB174115EB1C15B1
:100EB0004FEA813141EA92414FEA823242EA90425E
:100EC0004FEA80304FEA0C7644F1000448EA0343CD
:100ED0004EEA0B484FF0000EB2EB080C71EB030723
:100EE00024BF624639464EEB0E0E4FF0000B001841
:100EF000524149414BEB0B0BB2EB080C71EB030772
:100F00007BF1000B24BF624639464EEB0E0E4FF0CC
:100F1000000B0018524149414BEB0B0BB2EB080C94
:100F200071EB03077BF1000B24BF624639464EEBA1
:100F30000E0E51EA020718BF46F0010616EB0E76B8
:100F400055F1000254F1000103D5BDE88901BDE867
:100F50000088BDE88901BDE80048B619524141EB5F
:100F60000101A3F10103704780807F7E7D7C7B7A45
:100F70007978777676757473727171706F6E6E6D45
:100F80006C6C6B6A6A6968686766666564646363EB
:100F900062616160605F5F5E5E5D5D5C5C5B5B5A71
:100FA0005A595958585757565655555554545353DE
:100FB00052525251515050504F4F4F4E4E4D4D4D39
:100FC0004C4C4C4B4B4B4A4A4A4949494848484784
:100FD00047474746464645454544444444434343C2
:100FE0004342424242414141002B26D4770021D066
:100FF0001CB54FEA370703B44FF010004FF0100153
:101000004FF000000FBCBDE810400BF1010BBBF12D
:10101000010F08BF5FEA170722BF12F1010211F1A9
:1010200001014FF0004143F1000300F0004043EAAA
:1010300000007047F9D35708DAE746EA064613F18D
:10104000400F4FEA16461FDD13F1200FDFBF164396
:101050000A46002120335B42C8D0C3F1200746EA8C
:10106000064602FA07F74FEA164646EA0706C3F1B4
:10107000200722FA03F201FA07F721FA03F14FF0F1
:10108000000342EA0702B1E746EA020646EA0646DC
:101090004FEA164646EA0106BCBF46EA0646360C4B
:1010A0004FF000034FF000024FF000019EE72DE9E2
:1010B000C048934630B491E8380007C831EA400C84
:1010C00048BF34EA430C03D5FFF7F2FDFFF78CFF6E
:1010D000F0BCBDE800882DE9C048934630B491E8E3
:1010E000380007C810F0804F08BF13F0804F03D1BD
:1010F00000F005F8FFF778FFF0BCBDE8008820F0AD
:101100007F4780EA030023F07F4C07EB0C03A3F535
:101110007C5300F00040A3F1FE0392F0000F00F0BA
:10112000B38095F0000F00F077802DE901494FEA78
:1011300011404FEA144621EA004800FB06FC24EA6D
:10114000064708FB06F607FB08F800FB07F718EB55
:1011500006484CEB164C4FEA124B18EB07484FEA87
:1011600015464CEB174022EA0B4E0BFB06FC25EA1A
:1011700006470EFB06F607FB0EFE0BFB07F71EEB02
:10118000064E4CEB164C4FF000061EEB074E4CEB98
:10119000174B18EB0B0840F1000018EB0E0B58EB47
:1011A000000840F100008F1A4FF000013CBFC94316
:1011B000661B14BFB5EB040C00213CBFC943F61BF2
:1011C0004FEA17444EEA8E0E27EA04454FEA1C47C1
:1011D00004FB07622CEA074C05FB07F70CFB05F63E
:1011E00004FB0CFC16EB074642EB174216EB0C46D1
:1011F00042EB1C421BEB060658EB0202414146EA59
:101200009E0601D5BDE80189B619524141EB0101A5
:10121000A3F10103BDE801894FEA14454FEA1147E4
:1012200024EA054621EA074C05FB07F406FB07F70D
:101230000CFB06F105FB0CFC11EB074144EB1744DA
:101240004FEA124711EB0C4144EB1C4422EA074CD5
:1012500005FB07F206FB07F70CFB06F605FB0CFC8B
:1012600016EB074642EB174216EB0C4642EB1C45C9
:101270006A1854F1000148BF7047B619524141EB5A
:101280000101A3F10103704795F0000F37D04FEA39
:1012900011424FEA144721EA024624EA074C02FBB6
:1012A00007F106FB07F70CFB06F402FB0CFC14EB42
:1012B000074441EB17414FEA154714EB0C4441EB4F
:1012C0001C4125EA074C02FB07F506FB07F70CFB60
:1012D00006F602FB0CFC16EB074645EB174516EB32
:1012E0000C4645EB1C42121951F1000148BF7047F2
:1012F000B619524141EB0101A3F1010370474FEAD6
:1013000014454FEA114724EA054621EA074C05FB3C
:1013100007F106FB07F70CFB06F24FF0000605FB92
:101320000CFC12EB074241EB174112EB0C4251EB64
:101330001C4148BF7047921841EB0101A3F1010322
:101340007047000070B500F0F7F901F007F801F000
:10135000F9F901F0EBF800F039FF01F089F800F03D
:101360003FFE01F073F954A0FEF75EFF52A0FEF7B6
:101370005BFF52A0FEF758FF5648016856A0FEF7E3
:1013800053FF5B4801685BA0FEF74EFF5F480168B2
:101390005FA0FEF749FF6448016864A0FEF744FFC0
:1013A0006848016868A0FEF73FFF6D4801686DA0BE
:1013B000FEF73AFF7148016871A0FEF735FF7648E5
:1013C000016876A0FEF730FF7A4801687AA0FEF740
:1013D0002BFF7E4801687EA0FEF726FF36A0FEF7B1
:1013E00023FF8248016882A0FEF71EFF864801683D
:1013F00086A0FEF719FF8948016889A0FEF714FF4F
:101400008D4801688DA0FEF70FFF2BA0FEF70CFFA3
:101410009048006802F070F8044622460B468EA001
:10142000FEF702FF9148006802F066F80446224683
:101430000B468FA0FEF7F8FE9248006802F05CF8B9
:10144000044622460B4690A0FEF7EEFE9348006845
:1014500002F052F8044622460B4691A0FEF7E4FE45
:101460009648006802F048F8044622460B4694A0CD
:10147000FEF7DAFE9948006802F03EF8044622467C
:101480000B4697A0FEF7D0FE9948006802F034F8AA
:10149000044622460B4697A0FEF7C6FE06A0FEF7BE
:1014A000C3FE05A0FEF7C0FE96A0FEF7BDFE95A008
:1014B000FEF7BAFE70BD00000D0A0000BDBBC1F70B
:1014C000B2E2C1BF2C75617274CDA8D1B6B7BDCAE6
:1014D000BD0D0A003000002041CDA8B5C0B5E7C160
:1014E000F7D7AABBBBCFB5CAFD3A25780A200000C2
:1014F0003400002042CDA8B5C0B5E7C1F7D7AABBDC
:10150000BBCFB5CAFD3A25780A200000380000207C
:10151000B5E7D1B9CDA8B5C0D7AABBBBCFB5CAFD79
:101520003A25780A200000003C00002041CDA8B5F3
:10153000C0B9A6C2CAD7AABBBBCFB5CAFD3A2578E7
:101540000A2000004000002042CDA8B5C0B9A6C2C4
:10155000CAD7AABBBBCFB5CAFD3A25780A2000007E
:1015600044000020CAD3D4DAB9A6C2CAD7AABBBBEA
:10157000CFB5CAFD3A25780A2000000048000020B7
:1015800041CDA8B5C0B5E7C1BFD7AABBBBCFB5CACF
:10159000FD3A25780A2000004C00002042CDA8B575
:1015A000C0B5E7C1BFD7AABBBBCFB5CAFD3A257846
:1015B0000A20000050000020D7AABBBBCFB5CAFD4F
:1015C000D0A3D1E9BACD3A25780A200054000020F2
:1015D000D7AABBBBCFB5CAFDBCC6CBE3B3F6B5C477
:1015E000D0A3D1E9BACD3A25780A200064000020C2
:1015F00041CDA8B5C0B5E7C1F7BCC4B4E6C6F73A5B
:1016000025780A200000000068000020B5E7D1B965
:10161000BCC4B4E6C6F73A25780A20006C00002066
:1016200041CDA8B5C0B9A6C2CABCC4B4E6C6F73A93
:1016300025780A20000000007000002041CDA8B5E8
:10164000C0B5E7C1BFBCC4B4E6C6F73A25780A20E6
:101650000000000084000020465F41435F49203DB8
:101660002025662041200A20000000008000002084
:10167000465F41435F56203D2025662056090A20DB
:101680000000000088000020465F41435F50203D7D
:101690002025662057090A20000000009000002045
:1016A000465F41435F4241434B55505F45203D20DB
:1016B0002566204B5748200A20000000AC0000207F
:1016C000465F41435F4C494E455F46726571203D20
:1016D00020256620487A200A20000000980000207B
:1016E000465F416E676C65203D2025660A2000003C
:1016F00094000020465F41435F5046203D20256610
:101700000A2000002D2D2D2D2D2D2D2D2D2D2D2D93
:101710002D2D2D2D2D2D2D2D2D2D2D2D2D2D2D2DF9
:101720002D2D2D2D2D2D2D2D2D2D2D2D2D2D2D2DE9
:101730002D2D0D0A0000000010B50221002001F03F
:101740000DFA0A2001F090FA3548007800F0E6F82A
:1017500033490978491E334A515C88420DD11046FD
:1017600040781146097800EB01202F4908600846AF
:1017700001682EA0FEF758FD05E033A0FEF754FDEA
:101780000120384908700221012001F0E7F90A2000
:1017900001F06AFA2248007800F0C0F82049097880
:1017A000491E204A515C88420DD1104640781146AE
:1017B000097800EB01202C490860084601682BA03D
:1017C000FEF732FD05E030A0FEF72EFD0120254991
:1017D00008700221132001F0C1F90A2001F044FA37
:1017E0000F48007800F09AF80D490978491E0D4A13
:1017F000515C88420DD1104640781146097800EBC3
:101800000120284908600846016827A0FEF70CFD62
:1018100005E02EA0FEF708FD01201249087010BD5A
:101820000D0000208601002058000020D0B4C8EB35
:10183000B5C4537973636F6E526567BCC4B4E6C6B2
:10184000F73A256C780A2000537973636F6E5265FE
:1018500067BCC4B4E6C6F7B6C1C8A1B3F6B4ED0D13
:101860000A000000110000205C000020D0B4C8EB8A
:10187000B5C4456D75636F6E526567BCC4B4E6C68A
:10188000F73A256C780A2000456D75636F6E5265D6
:1018900067BCC4B4E6C6F7B6C1C8A1B3F6B4ED0DD3
:1018A0000A00000060000020D0B4C8EBB5C4456D4C
:1018B00075636F6E32526567BCC4B4E6C6F7BCC4CC
:1018C000B4E6C6F73A256C780A200000456D7563CA
:1018D0006F6E32526567BCC4B4E6C6F7B6C1C8A124
:1018E000B3F6B4ED0D0A0000002004E00021074A21
:1018F0001154411CC8B20A28F8DB0021044A1170B7
:10190000044A1170044A11707047000086010020DB
:10191000100000200F0000200E00002030B503460C
:1019200000210020002204E0084CA45C2144541C47
:10193000E2B25C1E9442F7DC054C24780C44044D62
:101940006D786119C943C8B230BD0000860100201E
:101950007C01002010B5034600220020002104E095
:10196000054C645C22444C1CE1B25C1E8C42F7DCEA
:10197000D243D0B210BD00007C01002010B5214838
:10198000806940F004001F4988611F480068C0F367
:1019900013001D490860084600681C4908431A499D
:1019A000086000201A49086001201A49C1F89C010A
:1019B00000201749091D086001F0B0F80A2001F065
:1019C00053F901F06BF80A2001F04EF940F60422B9
:1019D0000221002001F0DEF80A2001F045F9012281
:1019E0000221104601F0D6F840F265420221132090
:1019F00001F0D0F80A2001F037F901F06FF800F09B
:101A00000BF810BD00100240000801400000303308
:101A1000940121420000214270B50221702001F0A2
:101A20009DF8322001F020F9A2480078FFF776FFF8
:101A3000A0490978491EA04A515C88420CD1104641
:101A400040781146097800EB01209C49086008465F
:101A500001689BA0FEF7E8FB0221712001F07EF8EF
:101A6000322001F001F993480078FFF757FF9149C0
:101A70000978491E904A515C88420CD11046407842
:101A80001146097800EB0120934908600846016877
:101A900092A0FEF7C9FB0221722001F05FF832200C
:101AA00001F0E2F883480078FFF738FF81490978B0
:101AB000491E814A515C88420CD11046407811463B
:101AC000097800EB01208B490860084601688AA06C
:101AD000FEF7AAFB0221732001F040F8322001F04A
:101AE000C3F874480078FFF719FF72490978491E56
:101AF000714A515C88420CD11046407811460978F1
:101B000000EB0120824908600846016881A0FEF7C9
:101B10008BFB0221742001F021F8322001F0A4F89F
:101B200064480078FFF7FAFE62490978491E624A64
:101B3000515C88420CD1104640781146097800EB80
:101B400001207A4908607248016879A0FEF76CFBB1
:101B50000221752001F002F8322001F085F8554885
:101B60000078FFF7DBFE53490978491E524A515C61
:101B700088420CD1104640781146097800EB0120CC
:101B8000714908600846016870A0FEF74DFB02210C
:101B9000762000F0E3FF322001F066F84548007837
:101BA000FFF7BCFE43490978491E434A515C88420D
:101BB0000CD1104640781146097800EB01206949A4
:101BC00008600846016868A0FEF72EFB0221772016
:101BD00000F0C4FF322001F047F836480078FFF7E4
:101BE0009DFE34490978491E334A515C88420CD124
:101BF000104640781146097800EB012060490860E2
:101C0000084601685FA0FEF70FFB02216F2000F07D
:101C1000A5FF322001F028F826480078FFF77EFE65
:101C200024490978491E244A515C88420CD1104647
:101C300040781146097800EB0120584908600846B1
:101C4000016857A0FEF7F0FA00251C4800684FF61F
:101C5000FF71084420490968084426490968084476
:101C60002B4909680844314909680844364909681C
:101C700008443C4909680844414909680844C54387
:101C8000A8B24B490860084601684AA0FEF7CCFAA2
:101C90004748006841490968884204D101244AA0A4
:101CA000FEF7C2FA03E000244BA0FEF7BDFA20467F
:101CB00070BD00000D0000208601002030000020D3
:101CC00041CDA8B5C0B5E7C1F7D7AABBBBCFB5CA50
:101CD000FD3A25780A2000003400002042CDA8B546
:101CE000C0B5E7C1F7D7AABBBBCFB5CAFD3A2578C7
:101CF0000A20000038000020B5E7D1B9CDA8B5C052
:101D0000D7AABBBBCFB5CAFD3A25780A2000000090
:101D10003C00002041CDA8B5C0B9A6C2CAD7AABB15
:101D2000BBCFB5CAFD3A25780A200000400000204C
:101D300042CDA8B5C0B9A6C2CAD7AABBBBCFB5CA47
:101D4000FD3A25780A20000044000020CAD3D4DAE6
:101D5000B9A6C2CAD7AABBBBCFB5CAFD3A25780A75
:101D6000200000004800002041CDA8B5C0B5E7C163
:101D7000BFD7AABBBBCFB5CAFD3A25780A20000061
:101D80004C00002042CDA8B5C0B5E7C1BFD7AABB63
:101D9000BBCFB5CAFD3A25780A20000050000020CC
:101DA000CFB5CAFDD0A3D1E9BACD3A25780A200033
:101DB00054000020BCC6CBE3CFB5CAFDD0A3D1E907
:101DC000BACD3A25780A2000D0A3D1E9BACDD5FD05
:101DD000C8B70D0A20000000D0A3D1E9BACDB3F6F0
:101DE000B4ED0D0A200000003148806940F0080081
:101DF0002F4988610846806940F0400088612D487D
:101E0000006820F470002B4908600846006840F420
:101E10004010086027480C30006840F02000254939
:101E20000C3108602448006820F4700022490860E2
:101E30000846006840F4401008601F480C300068F5
:101E400040F020001C490C3108601C48006820F458
:101E50007F201A4908600846006840F4082008609E
:101E600016480C30006840F4006014490C310860DA
:101E70000846006840F4805008600D48806940F0D2
:101E800004000B4988610E48006820F00F000C49DF
:101E900008600846006840F0030008600848083001
:101EA000006840F4807006490831086070470000FF
:101EB00000100240000C01400018014000140140D5
:101EC0000408014000B5002015490861C8601420CD
:101ED000486100208861C8610846006840F0010040
:101EE0000860084640680F4908400D4948600846A8
:101EF00000680D4908400A4908600846006820F457
:101F0000802008600846406820F4FE0048600020F9
:101F1000886000214FF0006000F058F800BD00001C
:101F2000001002400000FFF8FFFFF6FE2DE9F0412F
:101F30000746884614461D46284600F033F8C5F18A
:101F4000040007FA00F60F20284100EA08000643C3
:101F500006F00F06E21704EBD2625211920002F172
:101F6000E022D2F800212146E31704EBD3635B1192
:101F7000A4EB431C012303FA0CF31A432046E31796
:101F800004EBD3635B119B0003F1E023C3F8002152
:101F90000348005D40EA061001490855BDE8F0819C
:101FA00000E400E00146072323EA01021202054B88
:101FB00018684FF6FF031840034B18431043014BBA
:101FC000186070470CED00E00000FA05024A0A4074
:101FD0000243024B1A60704780FFFF1F08ED00E0CC
:101FE0002DE9F0470221222000F0B8FD0A2000F080
:101FF0003BFE51480078FFF791FC4F490978491E94
:102000004E4A515C88420AD1104640781146097800
:1020100000EB012949464AA0FEF706F905E04EA06B
:10202000FEF702F9012052490870524952480068EF
:1020300001F0F2FB12D2484601F0DAFB04462046DA
:1020400001F05AFA07464D4A4D4B01F057F9054643
:1020500000F082FF04464B48046011E0484601F05E
:10206000C7FB0446204601F047FA0546464A474B5F
:1020700001F044F9074600F06FFF04464148046050
:102080004348006801F038FA05460022414B01F050
:10209000F9F802D200203B4908603F4939480068FE
:1020A00001F0BAFB0BD237480468204601F024FA4D
:1020B00005462A460B4639A0FEF7B6F83AE03C49F9
:1020C0003048006801F0A8FB0FD22E48016838485C
:1020D00001F0ACFC0446204601F00EFA05462A4603
:1020E0000B4634A0FEF7A0F824E0374925480068E5
:1020F00001F092FB0FD223480168334801F096FCAF
:102100000446204601F0F8F905462A460B4629A068
:10211000FEF78AF80EE02C491A48006801F086FCA8
:102120000446204601F0E8F905462A460B461BA066
:10213000FEF77AF8BDE8F0870D0000208601002048
:1021400041CDA8B5C0CFDFCFE0BDC7BCC4B4E6C6A3
:10215000F73A256C640A200041CDA8B5C0CFDFCF87
:10216000E0BDC7BCC4B4E6C6F7B3F6B4ED0D0A00D3
:102170001100002000005C4294000020CFF753E3E0
:10218000A59BB43F980000204E62105839B4B83F68
:10219000880000200000E03F0000B442B5E7C1F72E
:1021A000B3ACC7B0B5E7D1B93A25660A2000000044
:1021B00000003443B5E7C1F7D6CDBAF3B5E7D1B9DE
:1021C0003A25660A200000000000B44370B50321E0
:1021D000282000F0C3FC0A2000F046FD3B480078B0
:1021E000FFF79CFB39490978491E394A515C8842FE
:1021F00011D11046007800041146497800EB012007
:10220000114689780844334908600846016832A0BD
:10221000FEF70AF805E037A0FEF706F801203D4971
:1022200008700221084600F099FC0A2000F01CFD0D
:1022300026480078FFF772FB24490978491E244A92
:10224000515C88420DD1104640781146097800EB68
:102250000120314908600846016830A0FDF7E4FF1D
:1022600005E033A0FDF7E0FF01202A490870194876
:10227000006801F0BDFA04463448006801F0B8FA7D
:102280000546214601F0FCFA04464FF09C412046E9
:1022900001F0CCF904464FF07E51204601F0C6F91A
:1022A00004464FF07E51204601F0C0F9044628490B
:1022B000204601F0E5FA0546254901F0B7F9044644
:1022C0002448046000682449086070BD0D000020A7
:1022D000860100207000002041CDA8B5C0D3D0B940
:1022E000A6B5E7C1BFBCC4B4E6C6F73A256C780A08
:1022F0002000000041CDA8B5C0D3D0B9A6B5E7C134
:10230000BFBCC4B4E6C6F7B6C1C8A1B3F6B4ED0D00
:102310000A000000110000202C0000204846434F16
:102320004E5354B3A3CAFD203D203A25640A200031
:102330004846434F4E5354B3A3CAFDBCC4B4E6C68B
:10234000F7B6C1C8A1B3F6B4ED0D0A0048000020ED
:1023500000007A448C0000209000002070B503211A
:10236000242000F0FBFB0A2000F07EFC2C480078C3
:10237000FFF7D4FA2A490978491E2A4A515C884253
:1023800011D11046007800041146497800EB012075
:10239000114689780844244908600846016823A04A
:1023A000FDF742FF05E027A0FDF73EFF01202C4985
:1023B00008701D48006800F40000B0F5000F03D15C
:1023C00000202849086029E01748006801F010FA49
:1023D00004462548006801F00BFA0546214601F045
:1023E0004FFA04464FF09641204601F01FF904468B
:1023F0004FF07E51204601F019F904461B49204652
:1024000001F014F904461949204601F039FA05464D
:10241000164901F00BF904461248046070BD000033
:102420000D000020860100206400002041CDA8B5E9
:10243000C0B5E7C1F7BCC4B4E6C6F73A256C780A64
:102440002000000041CDA8B5C0B5E7C1F7BCC4B4B9
:10245000E6C6F7B6C1C8A1B3F6B4ED0D0A00000098
:1024600011000020840000203000002000007A4489
:1024700070B50221232000F071FB0A2000F0F4FB6C
:1024800016480078FFF74AFA14490978491E144A99
:10249000515C88420AD1104640781146097800EB19
:1024A000012421460FA0FDF7BFFE05E014A0FDF7B3
:1024B000BBFE01201A490870204601F099F9054633
:1024C00029464FF0824001F0DBF9064631461548B7
:1024D00001F0ACF805461448056070BD0D00002001
:1024E0008601002041CDA8B5C0CFDFD0D4C6B5C28B
:1024F000CABCC4B4E6C6F73A256C640A20000000E2
:1025000041CDA8B5C0CFDFD0D4C6B5C2CABCC4B413
:10251000E6C6F7B6C1C8A1B3F6B4ED0D0A000000D7
:1025200011000020647A5A4AAC00002070B50421E2
:102530002C2000F013FB0A2000F096FB2F480078B7
:10254000FFF7ECF92D490978491E2D4A515C884264
:1025500015D11046007800061146497800EB01407D
:102560001146897800EB01201146C97808442549B5
:1025700008600846016824A0FDF756FE05E028A083
:10258000FDF752FE01202D4908701E480068B0F189
:10259000004F07D91B480068C04301F029F90546E0
:1025A0002C4604E01748006801F022F9044624484C
:1025B000006801F01DF90646214601F061F9044664
:1025C0004FF09E41204601F031F804464FF07E5115
:1025D000204601F02BF804464FF07E51204601F0D2
:1025E00025F804461749204601F04AF906461549E0
:1025F00001F01CF804461448046070BD0D00002072
:10260000860100206C00002041CDA8B5C0B9A6C24B
:10261000CABCC4B4E6C6F73A256C780A20000000AC
:1026200041CDA8B5C0B9A6C2CABCC4B4E6C6F7B607
:10263000C1C8A1B3F6B4ED0D0A00000011000020DE
:102640003C00002000007A44880000202DE9F04181
:102650000321272000F082FA0A2000F005FB23481E
:102660000078FFF75BF921490978491E204A515C3F
:1026700088420ED11046007800041146497800EBDC
:10268000012011468978441821461AA0FDF7CCFD97
:1026900005E01FA0FDF7C8FD012025490870B4F52D
:1026A000000F0BD96FF07F41091B481C01F0A0F807
:1026B0000646204900F0BAFF054607E0204601F033
:1026C00097F806461B4900F0B1FF05461A48006816
:1026D00000F012FF06464FF03332184B00F0D2FDE7
:1026E00000D2002516480560BDE8F0810D000020ED
:1026F0008601002041CDA8B5C0B9A6C2CAD2F2CB8E
:10270000D8BCC4B4E6C6F73A256C640A20000000C1
:10271000B6C1C8A141CDA8B5C0B9A6C2CAD2F2CB34
:10272000D8BCC4B4E6C6F7B3F6B4ED0D0A00000099
:1027300011000020FEFFFF4A880000203333D33F02
:10274000940000202DE9F0410321262000F006FA34
:102750000A2000F089FA30480078FFF7DFF82E49A8
:102760000978491E2D4A515C884211D110460078E3
:1027700000041146497800EB01201146897808448D
:10278000274908600846016826A0FDF74DFD05E0D1
:102790002AA0FDF749FD01202F4908702048006854
:1027A00000F40000B0F5000F03D100202B490860B1
:1027B0002FE01B48006801F01BF804462848006819
:1027C00001F016F80546214601F05AF804464FF08C
:1027D0009541204600F02AFF0446204600F08CFE7A
:1027E0000546204A204B00F0F5FB074600F0B4FBFD
:1027F00004461E49204600F019FF04461C492046A5
:1028000001F03EF805461A4900F010FF044613484F
:102810000460BDE8F08100000D000020860100206A
:1028200068000020B5E7D1B9CDA8B5C0BCC4B4E6F6
:10283000C6F73A256C780A2000000000B5E7D1B948
:10284000CDA8B5C0BCC4B4E6C6F7B6C1C8A1B3F63E
:10285000B4ED0D0A000000001100002080000020EF
:102860003800002064CC5D4BC807DD3F0000C84243
:1028700000007A44014600200DE000BF074A12889C
:1028800002F04002002AF9D0054A125C034B1B1DDE
:102890001A80421CD0B28842EFDB704700440040EF
:1028A0007C01002030B504460025FFF70BFB1E48D5
:1028B000006840F001001C49086000BF1A48006829
:1028C00040080028FAD04FF4806017494860A01EE5
:1028D000C4B20846406840EA844048600846406800
:1028E00048601248006840F03200104908600E4805
:1028F000006840F080700C49086000BF0A4800681A
:10290000400E0028FAD00848406840F0020006490E
:10291000486005E004484068C0F3870505F00305FA
:10292000022DF7D130BD000000100240002002400F
:102930000B48008800F0010050B10A48006808B94F
:10294000012000E0002007490860012006490870C6
:102950000348008820F0010001490880704700000A
:1029600010040040A0012142B000002070B50546CF
:102970000C461048C06940F002000E49C8610E487C
:102980000580001F04800C482038008840F00100BA
:1029900009492039088008482C38008840F0010097
:1029A00005492C39088002231D2203210120FFF74D
:1029B000BDFA70BD001002402C0400401D4909887A
:1029C00001F0200111B31B49091D0988C8B21A4939
:1029D000098801F40041C9B91749098801F4804107
:1029E00061B10A2803D00021134A118020E0124966
:1029F000098841F40041104A118019E00D2806D1E0
:102A00000D49098841F480410B4A118010E00A49C0
:102A10000988C1F30D01094A505407490988491C26
:102A2000054A118011460988C72901DD002111805E
:102A3000704700000038014008000020B40000206A
:102A40001048008800F02000D0B10F4800780F49EE
:102A5000097888420FDA0B48001D00880C490A4AA1
:102A60001278885408480078401C074908700120F3
:102A70000849087004E000200749087002490870FE
:102A800070470000004400400E0000200D000020B0
:102A900086010020100000200F00002000B5042057
:102AA0000B49087000200B490870A5200A490870DE
:102AB000EA2048705A20887005480078FEF74AFFDF
:102AC0000549C87002480078FFF7D4FE00BD000039
:102AD0000C0000200D0000207C01002000B5042027
:102AE0000B49087000200B490870A5200A4908709E
:102AF000EA204870DC20887005480078FEF72AFF3D
:102B00000549C87002480078FFF7B4FE00BD000018
:102B10000C0000200D0000207C01002000B50420E6
:102B20000B49087000200B490870A5200A4908705D
:102B3000EA204870E520887005480078FEF70AFF13
:102B40000549C87002480078FFF794FE00BD0000F8
:102B50000C0000200D0000207C01002030B5044650
:102B60000D46A52008490870084644700220074910
:102B70000870681C06490870FEF7B6FE0348007826
:102B8000FFF778FE30BD00007C0100200C00002023
:102B90000D000020F8B506460C461746A52013493F
:102BA000087046F0800048700097002508E0601E1D
:102BB000401B1DF800100D4AA81C1154681CC5B21A
:102BC000A542F4DBE01C0A4908700020094908709E
:102BD00007480078FEF7BEFE05490978491E034AFA
:102BE000505403480078FFF745FEF8BD7C010020F3
:102BF0000C0000200D000020490050EAC12018BF41
:102C000004204A0D18BF40F0010040F2FF72B2EB01
:102C1000515F08BF40F00200012808BF052070473F
:102C2000014600BF704700004FF0E021096921F024
:102C300004014FF0E0221161C21700EB5272C2F39F
:102C4000C702074B1A701946097801EB4102C2EB23
:102C5000C1114FF6FF7202EAC101024A11807047AA
:102C6000000000200200002001460D4A12884A435D
:102C70004FF0E0235A6100229A6101221A6100BFDD
:102C80004FF0E022106900F001021AB100F4803226
:102C9000002AF5D000224FF0E0231A619A617047B4
:102CA0000200002000BF054A128802F04002002AFC
:102CB000F9D0C2B2014B1B1D1A8070470038014089
:102CC0000920FFF7EFFD4FF4E131242000F0C0F8B8
:102CD0004820FFF7A9FFFFF787F841F61F4140F2B0
:102CE000E730FFF743FEC820FFF79EFFC820FFF73D
:102CF0009BFFC820FFF798FFC820FFF795FFC8206B
:102D0000FFF792FFC820FFF78FFFC820FFF78CFF67
:102D1000C820FFF789FFC820FFF786FFC820FFF70C
:102D200083FF4FF41651122000F020F8FEF726FE24
:102D300000200C49087013E00A480078012804D1EB
:102D4000FEF700FB0020074908700748006808B933
:102D5000012000E0002004490860C820FFF784FF3C
:102D6000EAE70000B0000020948121422DE9F05FE5
:102D700005460E46300100F03BFD81462F4905FB1C
:102D800001F000F035FD8246494600F04FFC074651
:102D9000384600F00DFD84B2204600F029FD834640
:102DA000394600F039FE82464FF0834100F068FD5D
:102DB000814600F0FDFC80464FF6FF7000EA0414E7
:102DC00004EB080084B21E48806940F004001C49EE
:102DD00088610846C06940F40030C861194800683D
:102DE00020F47F40174908600846006840F40B4013
:102DF00008600120144908601148006940F400305F
:102E00000F4908610846006920F4003008610F4846
:102E10000480001D008843F22C4108430B49091D22
:102E200008800846008840F02000088002232622FF
:102E300003210846FFF77AF8BDE8F09F40420F00F3
:102E400000100240000801400C01214208440040EB
:102E50002DE9F05F05460E46300100F0C9FC8146C1
:102E60002E4905FB01F000F0C3FC8246494600F004
:102E7000DDFB0746384600F09BFC84B2204600F09C
:102E8000B7FC8346394600F0C7FD82464FF08341C8
:102E900000F0F6FC814600F08BFC80464FF6FF7098
:102EA00000EA041404EB080084B21D48806940F075
:102EB00004001B4988610846806940F480408861AD
:102EC0001848006820F47F601649086008460068CA
:102ED00040F40B6008601248C06840F4804010491C
:102EE000C8600846C06820F48040C8600E4804806E
:102EF000001D008842F20C0108430B49091D08809F
:102F00000846008840F02000088002232522032183
:102F10000846FFF70BF8BDE8F09F000040420F00A5
:102F200000100240040801400838014010B5002993
:102F30000AD00878002807D005487844FDF706FE37
:102F4000002801D0002010BD0248784410BD0000C8
:102F5000BE0C0000B60C000021F00042A2F160524D
:102F6000B2F5801F01F0004328BFD2F17F6C0BD96E
:102F70005FEA001C43EAC20242EB507018BF704780
:102F800028BF20F001007047B2F5801FBCBF184673
:102F900070474FEA410C1CF5001F02D2084600F0B2
:102FA00036BD70B500F054FA00000089FFF7F6BF97
:102FB0004FF00040A0F580007047491058BFC1F1A4
:102FC00040415B1058BFC3F140438B42EFF3008098
:102FD000704700002DE9C04130B4DFF8A0C23CEAE0
:102FE000111418BF3CEA131400F0EC8081EA0305C9
:102FF0001CEA111444EAD57418BF1CEA131500F03A
:10300000C780A4EB05044FF0004545EAC12145EA1D
:10301000C32341EA505143EA525304F17F74994269
:1030200004F500344FEAC0204FEAC22208BF9042A4
:1030300000F09C804FEA13650FF24016765D4FEA70
:10304000134506FB05F7C7F1807706FB07F74FEA44
:10305000D737A7FB03687642C8F58038A7FB06CEB2
:1030600038BFA8F1010807FB08E64FF0000EA6FBE9
:10307000028CE6FB03CEDCF1000CCEF1004E38BF33
:10308000AEF1010EA6FB0C584FF000074FF0000503
:10309000E6FB0E87A1FB08C6A0FB07CE16EB0E06CB
:1030A00045F10005E1FB076515F1E04E7EBFA4F593
:1030B00080345FEA46066D4116F1800745F1000550
:1030C0004FEA17274FEA066647EA0567A6F1DE468C
:1030D000B6F1805F4FEA15251FD9384624F0010C60
:1030E00005EBC471BCF1FE6F01EB0C1102D8F0BC12
:1030F000BDE8008124425CBF01F5801E9EEAC47FCA
:1031000002D4F0BCBDE80081244238D4F0BCA1F167
:10311000C041BDE8004100F0E9B94FEAD22242EADD
:1031200043524FEAD323A7FB02864FEAD02040EA5E
:10313000415007FB03661EEA0E0F4FEAD12105FB43
:10314000026658BFA6EB0056B6EB00564FEA520E89
:103150004EEAC37E18EB0E0E56EB530EBDD518EBA0
:1031600002085E417F1C55F10005B6E74FF480155B
:103170004FF000074FF000064FF00008ADE7F0BC3D
:103180004FF0000001F1C04101F00041BDE80081B5
:1031900011EA0C1F0CEA131500D00CE013EA0C1F07
:1031A00000F025804FF00000F0BC81EA030101F03F
:1031B0000041BDE80081F0BCBDE8004181EA0301A7
:1031C00000F094B9F0BCBDE8004170B500F040F9E2
:1031D000097EFC3E00F007B881EA03014FF00000D1
:1031E00001F00041704781EA030100F07FB9F0BCB3
:1031F000BDE800414FF0000021497047FFFDFBF999
:10320000F7F5F4F2F0EEEDEBE9E8E6E4E3E1E0DE19
:10321000DDDBDAD8D7D5D4D3D1D0CFCDCCCBCAC88B
:10322000C7C6C5C4C2C1C0BFBEBDBCBBBAB9B8B7B2
:10323000B6B5B4B3B2B1B0AFAEADACABAAA9A8A8A5
:10324000A7A6A5A4A3A3A2A1A09F9F9E9D9C9C9B73
:103250009A9999989797969595949393929191901E
:103260008F8F8E8E8D8C8C8B8B8A898988888787AF
:103270008685858484838382828181800000FF0724
:103280000000F87F51EA030C17D41CF5801F58BFCB
:10329000BCF5801F00F10680994218BF704708BF37
:1032A0009042704707D711F5801F58BF13F5801F54
:1032B00019D499427047894270471CF5801F08D580
:1032C000BCF5801FF7D58B4218BF704708BF8242FC
:1032D00070474FF4001C1CEB410F38BF1CEB430F31
:1032E00001D28B42704770B500F0B2F892244900C9
:1032F0004FF000514FF08053FFF75FBEDFF848C139
:1033000070B51CEA111E1EBF1CEA13159EEA0C0FB5
:1033100095EA0C0F00F06F8081EA030423EA4C1356
:103320004EEAD47E21EA4C1141F4801143F480131B
:10333000AE44A1FB024CA0FB0365AEF17F7E3619C3
:1033400055EB0C05A1FB034C4CF10003A0FB021C48
:1033500016EB0C06654153F10003094218BF46F015
:10336000010613F4007F0BD14FEA03314FEA053019
:10337000340341EA155140EA16506FF003020AE0A7
:103380004FEAC3214FEAC520F40241EA555140EA11
:1033900056506FF0020202EB2E4201EB025585EA15
:1033A000CE710AD05FEA440C18BF24F0004450F1FB
:1033B000000041F1000120EAD47040F2FE7C624539
:1033C00000D270BDA84214BF4FF080444FF040447B
:1033D000002E08BF0024BEF1806FA8BFA1F1C0413C
:1033E000BDE8704080F282804FF0000001F1C041E2
:1033F00001F0004170479EEA0C0F0CEA131518BF4C
:1034000095EA0C0F06D04FF0000081EA030E0EF093
:10341000004170BD00F01CF88900013E00F007B8C3
:1034200000F009B84FEA430C5FEA5C5C08D081EA1F
:10343000030100F05BB84FEA410C5FEA5C5CF6D137
:103440004FF00000014970470000FF070000F87FBF
:103450000EF1020E2EF0030E5EF8046B364205D418
:10346000012A43EB030515F5001F12D8012841EB93
:10347000010C1CF5001F0CD80ED14FEAD17C15F5BC
:10348000001F0CEB4C0C0CF1020C08BF4CEBD37C76
:1034900004E04FF0080C01E04FEAD37C0CEB4C0544
:1034A00026FA05F606F00706B6F1040C06D20EEB76
:1034B000860CBDE870404CF0010C6047DFE80CF072
:1034C000090B02024FF000414FF00000A1F500216E
:1034D00070BD19461046012851EB010418BFD4F500
:1034E000001484BF002001F0004170BD0808A0F561
:1034F00000114FEA3101704743004FEAD30C4FEA05
:103500003C0C43401FBF40070CF1605113F0FE4FCD
:1035100070471CF0006F03D100200CF00041704791
:103520000CF0004343EA507010B540EACC0000F0C4
:1035300028FA00BF000000924FEA0001FFF7D6BF53
:103540004FF000414FF00000A1F50021704700004E
:1035500090EA010F48BF81F0004100F16E82421AEB
:103560003CBF801A89184FEAD0524FF07F4C1CEABA
:10357000410FA2EBD15318BF9CEA026F00F03B80D1
:103580004FF0004C4CEA00204CEA012121FA03FCE8
:1035900010EB0C0C1ED202F1FF325FEA1C2040EB54
:1035A000C25038BF70471CF07F0F4FEA400C18BF65
:1035B000BCF17F4F38BF7047C3F12003994008BF6B
:1035C00020F00100BCF17F4F38BF7047A0F1C04030
:1035D00000F01DBA4FEA3C00000A40EBC25028BF81
:1035E0001CF0FF0F4FEA400CE6D018BFBCF17F4F34
:1035F00038BF7047EAE79CEA026F05D010EA5C0F1B
:1036000008BF00F00040704710B500F0BAF900BFE5
:1036100064FBBE3E401058BFC0F14040491058BF47
:10362000C1F140418142EFF3008070474FF47F0CBD
:103630001CEAD0121EBF1CEAD11392EA0C0F93EAC7
:103640000C0F00F0858090EA010F48BF42F48072B1
:1036500040F4000C41F400002CF07F4120F07F404A
:1036600000B58142A2EB03020FF2081CACEB504EF6
:10367000C0F100009EF800E04FEA4E0E00FB0EFC89
:1036800038BF49004FEA2C1C02F5FA020CFB0EF37E
:103690004FEACE1E4FEA112C4FEAC1210EEB635EBA
:1036A00042EB22420EFB0CFC4FEA1C5300FB0311C1
:1036B0004FEA112C4FEA01310EFB0CFC4FEADC4CB7
:1036C00000FB0C11C14228BF09184CEB03335DF815
:1036D00004EB10EB410143EBC250B2F57C0F38BF55
:1036E000704729D512F0F00F1CBF00F1C04000F068
:1036F00000407047008182838485868788898B8C0F
:103700008D8E8F919293959697999A9C9D9FA0A24A
:10371000A3A5A7A8AAACAEB0B2B3B5B7B9BCBEC09A
:10372000C2C5C7C9CCCED1D4D7D9DCDFE2E6E9EC3B
:10373000F0F3F7FAFE0000004FEA400C0CF1807C39
:10374000BCF17E4F28BF7047B0F1C04000F05FB9B8
:1037500090EA010F0CEAD11348BF42F4807262452F
:1037600038BF634507D213F47F0F16D080EA0100FB
:1037700000F00040704710B500F003F9097EFC3EF0
:1037800000F005B880EA010000F00040704780EAD0
:10379000010000F0004000F03AB912F47F0F04BFBE
:1037A0000248704780EA010000F031B90000C07F94
:1037B000C10DD1F19E0206DB4FEA002343F0004326
:1037C00023FA02F07047004207D54FEA4001B1F1F9
:1037D000FE4F02D24FF00000704710B500F0D1F854
:1037E00049922480002070476FEA20007047000053
:1037F000B0FA80F310FA03F2C3F19D030AD0D905A1
:1038000001EB1220530638BF704700F1010008BFDA
:1038100020F001007047000050EA010C00F1138015
:103820001CF5000F58BFBCF5000F01D4884270474B
:1038300007D710F5000F58BF11F5000F15D48842B7
:103840007047894270471CF5000F04D5BCF5000F86
:10385000F7D5814270474FF0807C1CEB400F38BF9A
:103860001CEB410F01D28142704710B500F089F87E
:10387000922449004FF000504FF08051FFF7CABE2C
:103880004FF47F0C1CEAD0121EBF1CEAD11392EA3F
:103890000C0F93EA0C0F00F0478090EA010F48BF2D
:1038A00042F480724FF0004C4CEA00204CEA0121B7
:1038B00002EB0302A0FB0113A2F50002002918BFCE
:1038C00043F001035B0028BF4FEA330342EB22427F
:1038D0005FEA132C4CEBC2502EBFBCEB436FB2F52A
:1038E0007C0F70474FEA036CBCF1004F08BF20F01B
:1038F0000100B2F57C0F38BF70470BD582F0FF0294
:1039000012F5803FC8BF704700F1C040D8BF00F03B
:103910000040704700F5000C5FEA4C0C48BF704750
:10392000B0F1C04000F073B890EA010F0CEAD11377
:1039300048BF42F48072624538BF634504D280EAD2
:10394000010000F00040704710B500F01AF800BF09
:103950008900013E00F007B800F009B85FEA410CA9
:103960005FEA1C6C08D080EA010000F050B85FEA02
:10397000400C5FEA1C6CF6D14FF00040A0F58000CF
:1039800070470EF1020E2EF0030E5EF8044B244237
:1039900004D44FEA4102B2F17F4F11D84FEA4003FD
:1039A000B3F17F4F0CD80ED14FEAD07CB2F17F4FEC
:1039B0000CEB4C0C0CF1020C08BF4CEBD17C04E07E
:1039C0004FF0080C01E04FEAD17C0CEB4C0324FAD9
:1039D00003F404F00704B4F1040C06D20EEB840CDB
:1039E000BDE810404CF0010C6047DFE80CF0070820
:1039F00002024FF00040A0F5800010BD08464200D2
:103A000018BFD2F1807288BF00F0004010BDFF21C6
:103A100041EAD050C005704780F0004090EA010FA5
:103A20007FF59DAD81F0004100F007B890EA010FED
:103A300048BF81F000413FF592AD421A04D882F0B0
:103A40000042A0EB020011444FEAD0524FF07F4CED
:103A50001CEA410FA2EBD15318BF9CEA026F4AD077
:103A60004FF0004C4CEA00204CEA012121FA03FC03
:103A7000B0EB0C0C0FD412F0FE0F36D05FEA4C0006
:103A80001DD5001240EBC25038BF70471CF03F0FED
:103A900018BF70470BE0A2F101025FEA1C2040EB67
:103AA000C25038BF70471CF07F0F18BF7047C3F17A
:103AB0002003994014BF401E20F001007047800889
:103AC0004FEA122308BF7047B0FA80FCA2EB0C0249
:103AD000CCF1280C60FA0CF093EA122F04BF00EB33
:103AE000C25070474FEAC3707047130A5FEADC1098
:103AF00008BF7047F6E79CEA026F04D010EA5C0F3B
:103B000008BF0020704710B5FFF73BFF40DFF63ECF
:103B100081F000407047FCF78BBD303132333435D3
:103B200036373839414243444546403058003031F9
:103B30003233343536373839616263646566403014
:103B40007800000002400000000000A0000000001B
:103B500005400000000000C8000000000C4000000C
:103B60000000409C00000000194000000020BCBE86
:103B70000000000034400000BFC91B8E000000049C
:103B8000B5400000504BCFD06607E2CF01000000E7
:103B90006C4100003E8251AADFEEA7340100000014
:103BA000D9420000DCB5A0E23A301F97FFFFFFFFCB
:103BB000B4450000FD25A0C8E9A3C14FFFFFFFFFEA
:103BC000FF3F00000000008000000000FF3F0000F9
:103BD0000000008000000000143C000800000020ED
:103BE000B40000006C010008C83C0008B4000020CC
:103BF0003C050000880100081C0000004300000094
:103C0000F8FFFFFF0C0000000E0000000F00000096
:103C10002E00000000000000000000000000000076
:103C20000000000000000000000000000000000094
:103C30000000000000000000000000000000000084
:103C40000000000000000000000000000000000074
:103C50000000000000000000000000000000000064
:103C60000000000000000000000000000000000054
:103C70000000000000000000000000000000000044
:103C80000000000000000000000000000000000034
:103C90000000000000000000000000000000000024
:103CA0000000000000000000000000000000000014
:103CB0000000000000000000000000000000000004
:083CC0000000000000000000FC
:0400000508000131BD
:00000001FF
