Component: ARM Compiler 5.06 update 2 (build 183) Tool: armlink [4d35b7]

==============================================================================

Section Cross References

    sys.o(i.MYRCC_DeInit) refers to sys.o(i.MY_NVIC_SetVectorTable) for MY_NVIC_SetVectorTable
    sys.o(i.MY_NVIC_Init) refers to sys.o(i.MY_NVIC_PriorityGroupConfig) for MY_NVIC_PriorityGroupConfig
    sys.o(i.Stm32_Clock_Init) refers to sys.o(i.MYRCC_DeInit) for MYRCC_DeInit
    sys.o(i.Sys_Standby) refers to sys.o(i.WFI_SET) for WFI_SET
    startup_stm32f10x_hd.o(STACK) refers (Special) to heapauxi.o(.text) for __use_two_region_memory
    startup_stm32f10x_hd.o(HEAP) refers (Special) to heapauxi.o(.text) for __use_two_region_memory
    startup_stm32f10x_hd.o(RESET) refers (Special) to heapauxi.o(.text) for __use_two_region_memory
    startup_stm32f10x_hd.o(RESET) refers to startup_stm32f10x_hd.o(STACK) for __initial_sp
    startup_stm32f10x_hd.o(RESET) refers to startup_stm32f10x_hd.o(.text) for Reset_Handler
    startup_stm32f10x_hd.o(RESET) refers to timer.o(i.TIM3_IRQHandler) for TIM3_IRQHandler
    startup_stm32f10x_hd.o(RESET) refers to usart.o(i.USART1_IRQHandler) for USART1_IRQHandler
    startup_stm32f10x_hd.o(RESET) refers to hlw8110.o(i.USART2_IRQHandler) for USART2_IRQHandler
    startup_stm32f10x_hd.o(.text) refers (Special) to heapauxi.o(.text) for __use_two_region_memory
    startup_stm32f10x_hd.o(.text) refers to __main.o(!!!main) for __main
    startup_stm32f10x_hd.o(.text) refers to startup_stm32f10x_hd.o(HEAP) for Heap_Mem
    startup_stm32f10x_hd.o(.text) refers to startup_stm32f10x_hd.o(STACK) for Stack_Mem
    test.o(i.main) refers to sys.o(i.Stm32_Clock_Init) for Stm32_Clock_Init
    test.o(i.main) refers to usart.o(i.uart_init) for uart_init
==============================================================================

Removing Unused input sections from the image.

    Removing sys.o(.emb_text), (6 bytes).
    Removing sys.o(i.Ex_NVIC_Config), (160 bytes).
    Removing sys.o(i.INTX_DISABLE), (4 bytes).
    Removing sys.o(i.INTX_ENABLE), (4 bytes).
    Removing sys.o(i.JTAG_Set), (48 bytes).
    Removing sys.o(i.Sys_Soft_Reset), (16 bytes).
    Removing sys.o(i.Sys_Standby), (76 bytes).
    Removing sys.o(i.WFI_SET), (4 bytes).
    Removing delay.o(i.delay_us), (60 bytes).
    Removing key.o(i.KEY_Init), (96 bytes).
    Removing key.o(i.KEY_Scan), (132 bytes).
    Removing key.o(.data), (1 bytes).
    Removing hlw8110.o(i.Uart_HLW8110_Reset), (64 bytes).
    Removing beep.o(i.BEEP_Init), (56 bytes).

14 unused section(s) (total 727 bytes) removed from the image.

==============================================================================

Image Symbol Table

    Local Symbols

    Symbol Name                              Value     Ov Type        Size  Object(Section)

    ../clib/angel/boardlib.s                 0x00000000   Number         0  boardshut.o ABSOLUTE
    ../clib/angel/boardlib.s                 0x00000000   Number         0  boardinit1.o ABSOLUTE
    ../clib/angel/boardlib.s                 0x00000000   Number         0  boardinit3.o ABSOLUTE
    ../clib/angel/boardlib.s                 0x00000000   Number         0  boardinit2.o ABSOLUTE
    ../clib/angel/handlers.s                 0x00000000   Number         0  __scatter_copy.o ABSOLUTE
    ../clib/angel/handlers.s                 0x00000000   Number         0  __scatter_zi.o ABSOLUTE
    ../clib/angel/kernel.s                   0x00000000   Number         0  __rtentry2.o ABSOLUTE
    ../clib/angel/kernel.s                   0x00000000   Number         0  __rtentry4.o ABSOLUTE
    ../clib/angel/kernel.s                   0x00000000   Number         0  rtexit.o ABSOLUTE
    ../clib/angel/kernel.s                   0x00000000   Number         0  __rtentry.o ABSOLUTE
    ../clib/angel/kernel.s                   0x00000000   Number         0  rtexit2.o ABSOLUTE
    ../clib/angel/rt.s                       0x00000000   Number         0  rt_locale.o ABSOLUTE
    ../clib/angel/rt.s                       0x00000000   Number         0  rt_locale_intlibspace.o ABSOLUTE
    ../clib/angel/rt.s                       0x00000000   Number         0  rt_raise.o ABSOLUTE
    ../clib/angel/scatter.s                  0x00000000   Number         0  __scatter.o ABSOLUTE
    ../clib/angel/startup.s                  0x00000000   Number         0  __main.o ABSOLUTE
    ../clib/angel/sys.s                      0x00000000   Number         0  indicate_semi.o ABSOLUTE
    ../clib/angel/sys.s                      0x00000000   Number         0  libspace.o ABSOLUTE
    ../clib/angel/sys.s                      0x00000000   Number         0  sys_stackheap_outer.o ABSOLUTE
    ../clib/angel/sys.s                      0x00000000   Number         0  use_no_semi.o ABSOLUTE
    ../clib/angel/sys.s                      0x00000000   Number         0  use_no_semi_2.o ABSOLUTE
    ../clib/angel/sysapp.c                   0x00000000   Number         0  sys_command.o ABSOLUTE
    ../clib/angel/sysapp.c                   0x00000000   Number         0  sys_wrch.o ABSOLUTE
    ../clib/armsys.c                         0x00000000   Number         0  argv_veneer.o ABSOLUTE
    ../clib/armsys.c                         0x00000000   Number         0  argv_veneer.o ABSOLUTE
    ../clib/armsys.c                         0x00000000   Number         0  _get_argv_nomalloc.o ABSOLUTE
    ../clib/armsys.c                         0x00000000   Number         0  no_argv.o ABSOLUTE
    ../clib/bigflt.c                         0x00000000   Number         0  bigflt0.o ABSOLUTE
    ../clib/btod.s                           0x00000000   Number         0  btod.o ABSOLUTE
    ../clib/heapalloc.c                      0x00000000   Number         0  hrguard.o ABSOLUTE
    ../clib/heapaux.c                        0x00000000   Number         0  heapauxi.o ABSOLUTE
    ../clib/libinit.s                        0x00000000   Number         0  libinit2.o ABSOLUTE
    ../clib/libinit.s                        0x00000000   Number         0  libinit.o ABSOLUTE
    ../clib/libinit.s                        0x00000000   Number         0  libshutdown2.o ABSOLUTE
    ../clib/libinit.s                        0x00000000   Number         0  libshutdown.o ABSOLUTE
    ../clib/locale.s                         0x00000000   Number         0  lc_numeric_c.o ABSOLUTE
    ../clib/longlong.s                       0x00000000   Number         0  lludiv10.o ABSOLUTE
    ../clib/memcpset.s                       0x00000000   Number         0  strcmpv7m.o ABSOLUTE
    ../clib/misc.s                           0x00000000   Number         0  printf_stubs.o ABSOLUTE
    ../clib/printf.c                         0x00000000   Number         0  _printf_intcommon.o ABSOLUTE
    ../clib/printf.c                         0x00000000   Number         0  _printf_fp_infnan.o ABSOLUTE
    ../clib/printf.c                         0x00000000   Number         0  _printf_fp_dec.o ABSOLUTE
    ../clib/printf.c                         0x00000000   Number         0  _printf_hex_int.o ABSOLUTE
    ../clib/printf.c                         0x00000000   Number         0  __printf_flags_ss.o ABSOLUTE
    ../clib/printf.c                         0x00000000   Number         0  _printf_char_file.o ABSOLUTE
    ../clib/printf.c                         0x00000000   Number         0  __printf_wp.o ABSOLUTE
    ../clib/printf.c                         0x00000000   Number         0  __printf_flags_wp.o ABSOLUTE
    ../clib/printf.c                         0x00000000   Number         0  __printf_ss_wp.o ABSOLUTE
    ../clib/printf.c                         0x00000000   Number         0  __printf_flags_ss_wp.o ABSOLUTE
    ../clib/printf.c                         0x00000000   Number         0  __printf_nopercent.o ABSOLUTE
    ../clib/printf.c                         0x00000000   Number         0  _printf_char_common.o ABSOLUTE
    ../clib/printf.c                         0x00000000   Number         0  __2printf.o ABSOLUTE
    ../clib/printf.c                         0x00000000   Number         0  noretval__2printf.o ABSOLUTE
    ../clib/printf.c                         0x00000000   Number         0  __printf.o ABSOLUTE
    ../clib/printf.c                         0x00000000   Number         0  _printf_dec.o ABSOLUTE
    ../clib/printf.c                         0x00000000   Number         0  _printf_hex_ll.o ABSOLUTE
    ../clib/printf.c                         0x00000000   Number         0  _printf_hex_int_ll.o ABSOLUTE
    ../clib/printf.c                         0x00000000   Number         0  _printf_hex_ptr.o ABSOLUTE
    ../clib/printf.c                         0x00000000   Number         0  _printf_hex_int_ptr.o ABSOLUTE
    ../clib/printf.c                         0x00000000   Number         0  _printf_hex_ll_ptr.o ABSOLUTE
    ../clib/printf.c                         0x00000000   Number         0  _printf_hex_int_ll_ptr.o ABSOLUTE
    ../clib/printf.c                         0x00000000   Number         0  __printf_flags.o ABSOLUTE
    ../clib/printf.c                         0x00000000   Number         0  __printf_ss.o ABSOLUTE
    ../clib/printf_percent.s                 0x00000000   Number         0  _printf_x.o ABSOLUTE
    ../clib/printf_percent.s                 0x00000000   Number         0  _printf_d.o ABSOLUTE
    ../clib/printf_percent.s                 0x00000000   Number         0  _printf_percent_end.o ABSOLUTE
    ../clib/printf_percent.s                 0x00000000   Number         0  _printf_percent.o ABSOLUTE
    ../clib/printf_percent.s                 0x00000000   Number         0  _printf_f.o ABSOLUTE
    ../clib/signal.c                         0x00000000   Number         0  defsig_rtmem_formal.o ABSOLUTE
    ../clib/signal.c                         0x00000000   Number         0  defsig_other.o ABSOLUTE
    ../clib/signal.c                         0x00000000   Number         0  defsig_segv_inner.o ABSOLUTE
    ../clib/signal.c                         0x00000000   Number         0  defsig_exit.o ABSOLUTE
    ../clib/signal.c                         0x00000000   Number         0  defsig_cppl_inner.o ABSOLUTE
    ../clib/signal.c                         0x00000000   Number         0  defsig_pvfn_inner.o ABSOLUTE
    ../clib/signal.c                         0x00000000   Number         0  defsig_stak_inner.o ABSOLUTE
    ../clib/signal.c                         0x00000000   Number         0  defsig_rtred_inner.o ABSOLUTE
    ../clib/signal.c                         0x00000000   Number         0  defsig_fpe_inner.o ABSOLUTE
    ../clib/signal.c                         0x00000000   Number         0  defsig_rtmem_inner.o ABSOLUTE
    ../clib/signal.c                         0x00000000   Number         0  __raise.o ABSOLUTE
    ../clib/signal.c                         0x00000000   Number         0  defsig_general.o ABSOLUTE
    ../clib/signal.c                         0x00000000   Number         0  defsig_rtmem_outer.o ABSOLUTE
    ../clib/signal.c                         0x00000000   Number         0  defsig_abrt_inner.o ABSOLUTE
    ../clib/signal.s                         0x00000000   Number         0  defsig.o ABSOLUTE
    ../clib/stdio.c                          0x00000000   Number         0  ferror_locked.o ABSOLUTE
    ../clib/stdio.c                          0x00000000   Number         0  ferror.o ABSOLUTE
    ../clib/stdlib.c                         0x00000000   Number         0  exit.o ABSOLUTE
    ../fplib/d2f.s                           0x00000000   Number         0  d2f.o ABSOLUTE
    ../fplib/dcmpi.s                         0x00000000   Number         0  dcmpi.o ABSOLUTE
    ../fplib/ddiv.s                          0x00000000   Number         0  ddiv.o ABSOLUTE
    ../fplib/dleqf.s                         0x00000000   Number         0  dleqf.o ABSOLUTE
    ../fplib/dmul.s                          0x00000000   Number         0  dmul.o ABSOLUTE
    ../fplib/dnaninf.s                       0x00000000   Number         0  dnaninf.o ABSOLUTE
    ../fplib/dretinf.s                       0x00000000   Number         0  dretinf.o ABSOLUTE
    ../fplib/f2d.s                           0x00000000   Number         0  f2d.o ABSOLUTE
    ../fplib/faddsub.s                       0x00000000   Number         0  faddsub_clz.o ABSOLUTE
    ../fplib/fcmpi.s                         0x00000000   Number         0  fcmpi.o ABSOLUTE
    ../fplib/fdiv.s                          0x00000000   Number         0  fdiv.o ABSOLUTE
    ../fplib/ffixu.s                         0x00000000   Number         0  ffixu.o ABSOLUTE
    ../fplib/fflt.s                          0x00000000   Number         0  fflt_clz.o ABSOLUTE
    ../fplib/fleqf.s                         0x00000000   Number         0  fleqf.o ABSOLUTE
    ../fplib/fmul.s                          0x00000000   Number         0  fmul.o ABSOLUTE
    ../fplib/fnaninf.s                       0x00000000   Number         0  fnaninf.o ABSOLUTE
    ../fplib/fpinit.s                        0x00000000   Number         0  fpinit.o ABSOLUTE
    ../fplib/fretinf.s                       0x00000000   Number         0  fretinf.o ABSOLUTE
    ../fplib/istatus.s                       0x00000000   Number         0  istatus.o ABSOLUTE
    ../fplib/printf1.s                       0x00000000   Number         0  printf1.o ABSOLUTE
    ../fplib/usenofp.s                       0x00000000   Number         0  usenofp.o ABSOLUTE
    ../mathlib/fpclassify.c                  0x00000000   Number         0  fpclassify.o ABSOLUTE
    ..\HARDWARE\BEEP\beep.c                  0x00000000   Number         0  beep.o ABSOLUTE
    ..\HARDWARE\HLW8110\HLW8110.c            0x00000000   Number         0  hlw8110.o ABSOLUTE
    ..\HARDWARE\HLW8112-SPI\HLW8112-SPI.c    0x00000000   Number         0  hlw8112-spi.o ABSOLUTE
    ..\HARDWARE\KEY\key.c                    0x00000000   Number         0  key.o ABSOLUTE
    ..\HARDWARE\LED\led.c                    0x00000000   Number         0  led.o ABSOLUTE
    ..\HARDWARE\TIMER\timer.c                0x00000000   Number         0  timer.o ABSOLUTE
    ..\SYSTEM\delay\delay.c                  0x00000000   Number         0  delay.o ABSOLUTE
    ..\SYSTEM\sys\sys.c                      0x00000000   Number         0  sys.o ABSOLUTE
    ..\SYSTEM\usart\usart.c                  0x00000000   Number         0  usart.o ABSOLUTE
    ..\\SYSTEM\\sys\\sys.c                   0x00000000   Number         0  sys.o ABSOLUTE
    dc.s                                     0x00000000   Number         0  dc.o ABSOLUTE
    startup_stm32f10x_hd.s                   0x00000000   Number         0  startup_stm32f10x_hd.o ABSOLUTE
    test.c                                   0x00000000   Number         0  test.o ABSOLUTE
    RESET                                    0x08000000   Section      304  startup_stm32f10x_hd.o(RESET)
    !!!main                                  0x08000130   Section        8  __main.o(!!!main)
    !!!scatter                               0x08000138   Section       52  __scatter.o(!!!scatter)
    !!handler_copy                           0x0800016c   Section       26  __scatter_copy.o(!!handler_copy)
    !!handler_zi                             0x08000188   Section       28  __scatter_zi.o(!!handler_zi)
    .ARM.Collect$$_printf_percent$$00000000  0x080001a4   Section        0  _printf_percent.o(.ARM.Collect$$_printf_percent$$00000000)
    .ARM.Collect$$_printf_percent$$00000003  0x080001a4   Section        6  _printf_f.o(.ARM.Collect$$_printf_percent$$00000003)
    .ARM.Collect$$_printf_percent$$00000009  0x080001aa   Section        6  _printf_d.o(.ARM.Collect$$_printf_percent$$00000009)
    .ARM.Collect$$_printf_percent$$0000000C  0x080001b0   Section        6  _printf_x.o(.ARM.Collect$$_printf_percent$$0000000C)
    .ARM.Collect$$_printf_percent$$00000017  0x080001b6   Section        4  _printf_percent_end.o(.ARM.Collect$$_printf_percent$$00000017)
    .ARM.Collect$$libinit$$00000000          0x080001ba   Section        2  libinit.o(.ARM.Collect$$libinit$$00000000)
    .ARM.Collect$$libinit$$00000002          0x080001bc   Section        0  libinit2.o(.ARM.Collect$$libinit$$00000002)
    .ARM.Collect$$libinit$$00000004          0x080001bc   Section        0  libinit2.o(.ARM.Collect$$libinit$$00000004)
    .ARM.Collect$$libinit$$0000000A          0x080001bc   Section        0  libinit2.o(.ARM.Collect$$libinit$$0000000A)
    .ARM.Collect$$libinit$$0000000C          0x080001bc   Section        0  libinit2.o(.ARM.Collect$$libinit$$0000000C)
    .ARM.Collect$$libinit$$0000000E          0x080001bc   Section        0  libinit2.o(.ARM.Collect$$libinit$$0000000E)
    .ARM.Collect$$libinit$$0000000F          0x080001bc   Section        6  libinit2.o(.ARM.Collect$$libinit$$0000000F)
    .ARM.Collect$$libinit$$00000011          0x080001c2   Section        0  libinit2.o(.ARM.Collect$$libinit$$00000011)
    .ARM.Collect$$libinit$$00000013          0x080001c2   Section        0  libinit2.o(.ARM.Collect$$libinit$$00000013)
    .ARM.Collect$$libinit$$00000015          0x080001c2   Section        0  libinit2.o(.ARM.Collect$$libinit$$00000015)
    .ARM.Collect$$libinit$$00000016          0x080001c2   Section       10  libinit2.o(.ARM.Collect$$libinit$$00000016)
    .ARM.Collect$$libinit$$00000017          0x080001cc   Section        0  libinit2.o(.ARM.Collect$$libinit$$00000017)
    .ARM.Collect$$libinit$$00000019          0x080001cc   Section        0  libinit2.o(.ARM.Collect$$libinit$$00000019)
    .ARM.Collect$$libinit$$0000001B          0x080001cc   Section        0  libinit2.o(.ARM.Collect$$libinit$$0000001B)
    .ARM.Collect$$libinit$$0000001D          0x080001cc   Section        0  libinit2.o(.ARM.Collect$$libinit$$0000001D)
    .ARM.Collect$$libinit$$0000001F          0x080001cc   Section        0  libinit2.o(.ARM.Collect$$libinit$$0000001F)
    .ARM.Collect$$libinit$$00000021          0x080001cc   Section        0  libinit2.o(.ARM.Collect$$libinit$$00000021)
    .ARM.Collect$$libinit$$00000023          0x080001cc   Section        0  libinit2.o(.ARM.Collect$$libinit$$00000023)
    .ARM.Collect$$libinit$$00000025          0x080001cc   Section        0  libinit2.o(.ARM.Collect$$libinit$$00000025)
    .ARM.Collect$$libinit$$0000002C          0x080001cc   Section        0  libinit2.o(.ARM.Collect$$libinit$$0000002C)
    .ARM.Collect$$libinit$$0000002E          0x080001cc   Section        0  libinit2.o(.ARM.Collect$$libinit$$0000002E)
    .ARM.Collect$$libinit$$00000030          0x080001cc   Section        0  libinit2.o(.ARM.Collect$$libinit$$00000030)
    .ARM.Collect$$libinit$$00000032          0x080001cc   Section        0  libinit2.o(.ARM.Collect$$libinit$$00000032)
    .ARM.Collect$$libinit$$00000033          0x080001cc   Section        2  libinit2.o(.ARM.Collect$$libinit$$00000033)
    .ARM.Collect$$libshutdown$$00000000      0x080001ce   Section        2  libshutdown.o(.ARM.Collect$$libshutdown$$00000000)
    .ARM.Collect$$libshutdown$$00000002      0x080001d0   Section        0  libshutdown2.o(.ARM.Collect$$libshutdown$$00000002)
    .ARM.Collect$$libshutdown$$00000004      0x080001d0   Section        0  libshutdown2.o(.ARM.Collect$$libshutdown$$00000004)
    .ARM.Collect$$libshutdown$$00000007      0x080001d0   Section        0  libshutdown2.o(.ARM.Collect$$libshutdown$$00000007)
    .ARM.Collect$$libshutdown$$0000000A      0x080001d0   Section        0  libshutdown2.o(.ARM.Collect$$libshutdown$$0000000A)
    .ARM.Collect$$libshutdown$$0000000C      0x080001d0   Section        0  libshutdown2.o(.ARM.Collect$$libshutdown$$0000000C)
    .ARM.Collect$$libshutdown$$0000000F      0x080001d0   Section        0  libshutdown2.o(.ARM.Collect$$libshutdown$$0000000F)
    .ARM.Collect$$libshutdown$$00000010      0x080001d0   Section        2  libshutdown2.o(.ARM.Collect$$libshutdown$$00000010)
    .ARM.Collect$$rtentry$$00000000          0x080001d2   Section        0  __rtentry.o(.ARM.Collect$$rtentry$$00000000)
    .ARM.Collect$$rtentry$$00000002          0x080001d2   Section        0  __rtentry2.o(.ARM.Collect$$rtentry$$00000002)
    .ARM.Collect$$rtentry$$00000004          0x080001d2   Section        6  __rtentry4.o(.ARM.Collect$$rtentry$$00000004)
    .ARM.Collect$$rtentry$$00000009          0x080001d8   Section        0  __rtentry2.o(.ARM.Collect$$rtentry$$00000009)
    .ARM.Collect$$rtentry$$0000000A          0x080001d8   Section        4  __rtentry2.o(.ARM.Collect$$rtentry$$0000000A)
    .ARM.Collect$$rtentry$$0000000C          0x080001dc   Section        0  __rtentry2.o(.ARM.Collect$$rtentry$$0000000C)
    .ARM.Collect$$rtentry$$0000000D          0x080001dc   Section        8  __rtentry2.o(.ARM.Collect$$rtentry$$0000000D)
    .ARM.Collect$$rtexit$$00000000           0x080001e4   Section        2  rtexit.o(.ARM.Collect$$rtexit$$00000000)
    .ARM.Collect$$rtexit$$00000002           0x080001e6   Section        0  rtexit2.o(.ARM.Collect$$rtexit$$00000002)
    .ARM.Collect$$rtexit$$00000003           0x080001e6   Section        4  rtexit2.o(.ARM.Collect$$rtexit$$00000003)
    .ARM.Collect$$rtexit$$00000004           0x080001ea   Section        6  rtexit2.o(.ARM.Collect$$rtexit$$00000004)
    .text                                    0x080001f0   Section       52  startup_stm32f10x_hd.o(.text)
    .text                                    0x08000224   Section        2  use_no_semi_2.o(.text)
    .text                                    0x08000228   Section        0  noretval__2printf.o(.text)
    .text                                    0x08000240   Section        0  _printf_dec.o(.text)
    .text                                    0x080002b8   Section        0  _printf_hex_int.o(.text)
    .text                                    0x08000310   Section        0  __printf_ss.o(.text)
    .text                                    0x080003c8   Section        0  heapauxi.o(.text)
    .text                                    0x080003ce   Section        2  use_no_semi.o(.text)
    .text                                    0x080003d0   Section        0  _printf_intcommon.o(.text)
    .text                                    0x08000482   Section        0  _printf_fp_dec.o(.text)
    _fp_digits                               0x08000485   Thumb Code   428  _printf_fp_dec.o(.text)
    .text                                    0x0800089c   Section        0  _printf_char_file.o(.text)
    .text                                    0x080008c0   Section        8  rt_locale_intlibspace.o(.text)
    .text                                    0x080008c8   Section      138  lludiv10.o(.text)
    .text                                    0x08000954   Section        0  _printf_char_common.o(.text)
    _printf_input_char                       0x08000955   Thumb Code    10  _printf_char_common.o(.text)
    .text                                    0x08000984   Section        0  _printf_fp_infnan.o(.text)
    .text                                    0x08000a04   Section        0  bigflt0.o(.text)
    .text                                    0x08000ae0   Section        0  ferror.o(.text)
    .text                                    0x08000ae8   Section        8  libspace.o(.text)
    .text                                    0x08000af0   Section       74  sys_stackheap_outer.o(.text)
    .text                                    0x08000b3a   Section        0  exit.o(.text)
    .text                                    0x08000b4c   Section      128  strcmpv7m.o(.text)
    CL$$btod_d2e                             0x08000bcc   Section       62  btod.o(CL$$btod_d2e)
    CL$$btod_d2e_denorm_low                  0x08000c0a   Section       70  btod.o(CL$$btod_d2e_denorm_low)
    CL$$btod_d2e_norm_op1                    0x08000c50   Section       96  btod.o(CL$$btod_d2e_norm_op1)
    CL$$btod_div_common                      0x08000cb0   Section      824  btod.o(CL$$btod_div_common)
    CL$$btod_e2e                             0x08000fe8   Section      198  btod.o(CL$$btod_e2e)
    CL$$btod_ediv                            0x080010ae   Section       40  btod.o(CL$$btod_ediv)
    CL$$btod_emul                            0x080010d6   Section       40  btod.o(CL$$btod_emul)
    CL$$btod_mult_common                     0x080010fe   Section      580  btod.o(CL$$btod_mult_common)
    i.Calculate_HLW8110_MeterData            0x08001344   Section        0  hlw8110.o(i.Calculate_HLW8110_MeterData)
    i.Check_WriteReg_Success                 0x08001738   Section        0  hlw8110.o(i.Check_WriteReg_Success)
    i.Clear_RxBuf                            0x080018e8   Section        0  hlw8110.o(i.Clear_RxBuf)
    i.HLW8110_checkSum_Read                  0x0800191c   Section        0  hlw8110.o(i.HLW8110_checkSum_Read)
    i.HLW8110_checkSum_Write                 0x08001954   Section        0  hlw8110.o(i.HLW8110_checkSum_Write)
    i.Init_HLW8110                           0x0800197c   Section        0  hlw8110.o(i.Init_HLW8110)
    i.Judge_CheckSum_HLW8110_Calfactor       0x08001a18   Section        0  hlw8110.o(i.Judge_CheckSum_HLW8110_Calfactor)
    i.LED_Init                               0x08001de8   Section        0  led.o(i.LED_Init)
    i.MYRCC_DeInit                           0x08001ec4   Section        0  sys.o(i.MYRCC_DeInit)
    i.MY_NVIC_Init                           0x08001f2c   Section        0  sys.o(i.MY_NVIC_Init)
    i.MY_NVIC_PriorityGroupConfig            0x08001fa4   Section        0  sys.o(i.MY_NVIC_PriorityGroupConfig)
    i.MY_NVIC_SetVectorTable                 0x08001fcc   Section        0  sys.o(i.MY_NVIC_SetVectorTable)
    i.Read_HLW8110_Angle                     0x08001fe0   Section        0  hlw8110.o(i.Read_HLW8110_Angle)
    i.Read_HLW8110_EA                        0x080021cc   Section        0  hlw8110.o(i.Read_HLW8110_EA)
    i.Read_HLW8110_IA                        0x0800235c   Section        0  hlw8110.o(i.Read_HLW8110_IA)
    i.Read_HLW8110_LineFreq                  0x08002470   Section        0  hlw8110.o(i.Read_HLW8110_LineFreq)
    i.Read_HLW8110_PA                        0x0800252c   Section        0  hlw8110.o(i.Read_HLW8110_PA)
    i.Read_HLW8110_PF                        0x0800264c   Section        0  hlw8110.o(i.Read_HLW8110_PF)
    i.Read_HLW8110_U                         0x08002744   Section        0  hlw8110.o(i.Read_HLW8110_U)
    i.Start_Send_UartData                    0x08002874   Section        0  hlw8110.o(i.Start_Send_UartData)
    i.Stm32_Clock_Init                       0x080028a4   Section        0  sys.o(i.Stm32_Clock_Init)
    i.TIM3_IRQHandler                        0x08002930   Section        0  timer.o(i.TIM3_IRQHandler)
    i.TIM3_Int_Init                          0x0800296c   Section        0  timer.o(i.TIM3_Int_Init)
    i.USART1_IRQHandler                      0x080029bc   Section        0  usart.o(i.USART1_IRQHandler)
    i.USART2_IRQHandler                      0x08002a40   Section        0  hlw8110.o(i.USART2_IRQHandler)
    i.Uart_HLW8110_Set_Channel_A             0x08002a9c   Section        0  hlw8110.o(i.Uart_HLW8110_Set_Channel_A)
    i.Uart_HLW8110_WriteREG_DIS              0x08002adc   Section        0  hlw8110.o(i.Uart_HLW8110_WriteREG_DIS)
    i.Uart_HLW8110_WriteREG_EN               0x08002b1c   Section        0  hlw8110.o(i.Uart_HLW8110_WriteREG_EN)
    i.Uart_Read_HLW8110_Reg                  0x08002b5c   Section        0  hlw8110.o(i.Uart_Read_HLW8110_Reg)
    i.Uart_Write_HLW8110_Reg                 0x08002b94   Section        0  hlw8110.o(i.Uart_Write_HLW8110_Reg)
    i.__ARM_fpclassify                       0x08002bf8   Section        0  fpclassify.o(i.__ARM_fpclassify)
    i._sys_exit                              0x08002c20   Section        0  usart.o(i._sys_exit)
    i.delay_init                             0x08002c28   Section        0  delay.o(i.delay_init)
    i.delay_ms                               0x08002c68   Section        0  delay.o(i.delay_ms)
    i.fputc                                  0x08002ca4   Section        0  usart.o(i.fputc)
    i.main                                   0x08002cc0   Section        0  test.o(i.main)
    i.uart2_init                             0x08002d6c   Section        0  usart.o(i.uart2_init)
    i.uart_init                              0x08002e50   Section        0  usart.o(i.uart_init)
    locale$$code                             0x08002f2c   Section       44  lc_numeric_c.o(locale$$code)
    x$fpl$d2f                                0x08002f58   Section       98  d2f.o(x$fpl$d2f)
    x$fpl$dcmpinf                            0x08002fba   Section       24  dcmpi.o(x$fpl$dcmpinf)
    x$fpl$ddiv                               0x08002fd4   Section      688  ddiv.o(x$fpl$ddiv)
    ddiv_entry                               0x08002fdb   Thumb Code     0  ddiv.o(x$fpl$ddiv)
    x$fpl$dleqf                              0x08003284   Section      120  dleqf.o(x$fpl$dleqf)
    x$fpl$dmul                               0x080032fc   Section      340  dmul.o(x$fpl$dmul)
    x$fpl$dnaninf                            0x08003450   Section      156  dnaninf.o(x$fpl$dnaninf)
    x$fpl$dretinf                            0x080034ec   Section       12  dretinf.o(x$fpl$dretinf)
    x$fpl$f2d                                0x080034f8   Section       86  f2d.o(x$fpl$f2d)
    x$fpl$fadd                               0x08003550   Section      196  faddsub_clz.o(x$fpl$fadd)
    _fadd1                                   0x0800355f   Thumb Code     0  faddsub_clz.o(x$fpl$fadd)
    x$fpl$fcmpinf                            0x08003614   Section       24  fcmpi.o(x$fpl$fcmpinf)
    x$fpl$fdiv                               0x0800362c   Section      388  fdiv.o(x$fpl$fdiv)
    _fdiv1                                   0x0800362d   Thumb Code     0  fdiv.o(x$fpl$fdiv)
    x$fpl$ffixu                              0x080037b0   Section       62  ffixu.o(x$fpl$ffixu)
    x$fpl$ffltu                              0x080037f0   Section       38  fflt_clz.o(x$fpl$ffltu)
    x$fpl$fleqf                              0x08003818   Section      104  fleqf.o(x$fpl$fleqf)
    x$fpl$fmul                               0x08003880   Section      258  fmul.o(x$fpl$fmul)
    x$fpl$fnaninf                            0x08003982   Section      140  fnaninf.o(x$fpl$fnaninf)
    x$fpl$fretinf                            0x08003a0e   Section       10  fretinf.o(x$fpl$fretinf)
    x$fpl$frsb                               0x08003a18   Section       20  faddsub_clz.o(x$fpl$frsb)
    x$fpl$fsub                               0x08003a2c   Section      234  faddsub_clz.o(x$fpl$fsub)
    _fsub1                                   0x08003a3b   Thumb Code     0  faddsub_clz.o(x$fpl$fsub)
    x$fpl$printf1                            0x08003b16   Section        4  printf1.o(x$fpl$printf1)
    .constdata                               0x08003b1a   Section       40  _printf_hex_int.o(.constdata)
    x$fpl$usenofp                            0x08003b1a   Section        0  usenofp.o(x$fpl$usenofp)
    uc_hextab                                0x08003b1a   Data          20  _printf_hex_int.o(.constdata)
    lc_hextab                                0x08003b2e   Data          20  _printf_hex_int.o(.constdata)
    .constdata                               0x08003b44   Section      148  bigflt0.o(.constdata)
    tenpwrs_x                                0x08003b44   Data          60  bigflt0.o(.constdata)
    tenpwrs_i                                0x08003b80   Data          64  bigflt0.o(.constdata)
    locale$$data                             0x08003bf8   Section       28  lc_numeric_c.o(locale$$data)
    __lcnum_c_name                           0x08003bfc   Data           2  lc_numeric_c.o(locale$$data)
    __lcnum_c_start                          0x08003c04   Data           0  lc_numeric_c.o(locale$$data)
    __lcnum_c_point                          0x08003c10   Data           0  lc_numeric_c.o(locale$$data)
    __lcnum_c_thousands                      0x08003c12   Data           0  lc_numeric_c.o(locale$$data)
    __lcnum_c_grouping                       0x08003c13   Data           0  lc_numeric_c.o(locale$$data)
    __lcnum_c_end                            0x08003c14   Data           0  lc_numeric_c.o(locale$$data)
    .data                                    0x20000000   Section        4  delay.o(.data)
    fac_us                                   0x20000000   Data           1  delay.o(.data)
    fac_ms                                   0x20000002   Data           2  delay.o(.data)
    .data                                    0x20000004   Section        6  usart.o(.data)
    .data                                    0x2000000c   Section      164  hlw8110.o(.data)
    .data                                    0x200000b0   Section        1  timer.o(.data)
    .bss                                     0x200000b4   Section      200  usart.o(.bss)
    .bss                                     0x2000017c   Section       20  hlw8110.o(.bss)
    .bss                                     0x20000190   Section       96  libspace.o(.bss)
    HEAP                                     0x200001f0   Section        0  startup_stm32f10x_hd.o(HEAP)
    STACK                                    0x200001f0   Section     1024  startup_stm32f10x_hd.o(STACK)
    Heap_Mem                                 0x200001f0   Data           0  startup_stm32f10x_hd.o(HEAP)
    Stack_Mem                                0x200001f0   Data        1024  startup_stm32f10x_hd.o(STACK)
    __initial_sp                             0x200005f0   Data           0  startup_stm32f10x_hd.o(STACK)

    Global Symbols

    Symbol Name                              Value     Ov Type        Size  Object(Section)

    BuildAttributes$$THM_ISAv4$P$D$K$B$S$PE$A:L22UL41UL21$X:L11$S22US41US21$IEEE1$IW$USESV6$~STKCKD$USESV7$~SHL$OTIME$ROPI$IEEEJ$EBA8$UX$STANDARDLIB$REQ8$PRES8$EABIv2 0x00000000   Number         0  anon$$obj.o ABSOLUTE
    __ARM_use_no_argv                        0x00000000   Number         0  test.o ABSOLUTE
    _printf_flags                            0x00000000   Number         0  printf_stubs.o ABSOLUTE
    _printf_return_value                     0x00000000   Number         0  printf_stubs.o ABSOLUTE
    _printf_sizespec                         0x00000000   Number         0  printf_stubs.o ABSOLUTE
    _printf_widthprec                        0x00000000   Number         0  printf_stubs.o ABSOLUTE
    __ARM_exceptions_init                     - Undefined Weak Reference
    __alloca_initialize                       - Undefined Weak Reference
    __arm_preinit_                            - Undefined Weak Reference
    __cpp_initialize__aeabi_                  - Undefined Weak Reference
    __cxa_finalize                            - Undefined Weak Reference
    __sigvec_lookup                           - Undefined Weak Reference
    _atexit_init                              - Undefined Weak Reference
    _call_atexit_fns                          - Undefined Weak Reference
    _clock_init                               - Undefined Weak Reference
    _fp_trap_init                             - Undefined Weak Reference
    _fp_trap_shutdown                         - Undefined Weak Reference
    _get_lc_collate                           - Undefined Weak Reference
    _get_lc_ctype                             - Undefined Weak Reference
    _get_lc_monetary                          - Undefined Weak Reference
    _get_lc_time                              - Undefined Weak Reference
    _getenv_init                              - Undefined Weak Reference
    _handle_redirection                       - Undefined Weak Reference
    _init_alloc                               - Undefined Weak Reference
    _init_user_alloc                          - Undefined Weak Reference
    _initio                                   - Undefined Weak Reference
    _mutex_acquire                            - Undefined Weak Reference
    _mutex_release                            - Undefined Weak Reference
    _printf_post_padding                      - Undefined Weak Reference
    _printf_pre_padding                       - Undefined Weak Reference
    _printf_truncate_signed                   - Undefined Weak Reference
    _printf_truncate_unsigned                 - Undefined Weak Reference
    _rand_init                                - Undefined Weak Reference
    _signal_finish                            - Undefined Weak Reference
    _signal_init                              - Undefined Weak Reference
    _terminate_alloc                          - Undefined Weak Reference
    _terminate_user_alloc                     - Undefined Weak Reference
    _terminateio                              - Undefined Weak Reference
    __Vectors_Size                           0x00000130   Number         0  startup_stm32f10x_hd.o ABSOLUTE
    __Vectors                                0x08000000   Data           4  startup_stm32f10x_hd.o(RESET)
    __Vectors_End                            0x08000130   Data           0  startup_stm32f10x_hd.o(RESET)
    __main                                   0x08000131   Thumb Code     8  __main.o(!!!main)
    __scatterload                            0x08000139   Thumb Code     0  __scatter.o(!!!scatter)
    __scatterload_rt2                        0x08000139   Thumb Code    44  __scatter.o(!!!scatter)
    __scatterload_rt2_thumb_only             0x08000139   Thumb Code     0  __scatter.o(!!!scatter)
    __scatterload_null                       0x08000147   Thumb Code     0  __scatter.o(!!!scatter)
    __scatterload_copy                       0x0800016d   Thumb Code    26  __scatter_copy.o(!!handler_copy)
    __scatterload_zeroinit                   0x08000189   Thumb Code    28  __scatter_zi.o(!!handler_zi)
    _printf_f                                0x080001a5   Thumb Code     0  _printf_f.o(.ARM.Collect$$_printf_percent$$00000003)
    _printf_percent                          0x080001a5   Thumb Code     0  _printf_percent.o(.ARM.Collect$$_printf_percent$$00000000)
    _printf_d                                0x080001ab   Thumb Code     0  _printf_d.o(.ARM.Collect$$_printf_percent$$00000009)
    _printf_x                                0x080001b1   Thumb Code     0  _printf_x.o(.ARM.Collect$$_printf_percent$$0000000C)
    _printf_percent_end                      0x080001b7   Thumb Code     0  _printf_percent_end.o(.ARM.Collect$$_printf_percent$$00000017)
    __rt_lib_init                            0x080001bb   Thumb Code     0  libinit.o(.ARM.Collect$$libinit$$00000000)
    __rt_lib_init_fp_1                       0x080001bd   Thumb Code     0  libinit2.o(.ARM.Collect$$libinit$$00000002)
    __rt_lib_init_heap_1                     0x080001bd   Thumb Code     0  libinit2.o(.ARM.Collect$$libinit$$0000000A)
    __rt_lib_init_lc_common                  0x080001bd   Thumb Code     0  libinit2.o(.ARM.Collect$$libinit$$0000000F)
    __rt_lib_init_preinit_1                  0x080001bd   Thumb Code     0  libinit2.o(.ARM.Collect$$libinit$$00000004)
    __rt_lib_init_rand_1                     0x080001bd   Thumb Code     0  libinit2.o(.ARM.Collect$$libinit$$0000000E)
    __rt_lib_init_user_alloc_1               0x080001bd   Thumb Code     0  libinit2.o(.ARM.Collect$$libinit$$0000000C)
    __rt_lib_init_lc_collate_1               0x080001c3   Thumb Code     0  libinit2.o(.ARM.Collect$$libinit$$00000011)
    __rt_lib_init_lc_ctype_1                 0x080001c3   Thumb Code     0  libinit2.o(.ARM.Collect$$libinit$$00000013)
    __rt_lib_init_lc_monetary_1              0x080001c3   Thumb Code     0  libinit2.o(.ARM.Collect$$libinit$$00000015)
    __rt_lib_init_lc_numeric_2               0x080001c3   Thumb Code     0  libinit2.o(.ARM.Collect$$libinit$$00000016)
    __rt_lib_init_alloca_1                   0x080001cd   Thumb Code     0  libinit2.o(.ARM.Collect$$libinit$$0000002E)
    __rt_lib_init_argv_1                     0x080001cd   Thumb Code     0  libinit2.o(.ARM.Collect$$libinit$$0000002C)
    __rt_lib_init_atexit_1                   0x080001cd   Thumb Code     0  libinit2.o(.ARM.Collect$$libinit$$0000001B)
    __rt_lib_init_clock_1                    0x080001cd   Thumb Code     0  libinit2.o(.ARM.Collect$$libinit$$00000021)
    __rt_lib_init_cpp_1                      0x080001cd   Thumb Code     0  libinit2.o(.ARM.Collect$$libinit$$00000032)
    __rt_lib_init_exceptions_1               0x080001cd   Thumb Code     0  libinit2.o(.ARM.Collect$$libinit$$00000030)
    __rt_lib_init_fp_trap_1                  0x080001cd   Thumb Code     0  libinit2.o(.ARM.Collect$$libinit$$0000001F)
    __rt_lib_init_getenv_1                   0x080001cd   Thumb Code     0  libinit2.o(.ARM.Collect$$libinit$$00000023)
    __rt_lib_init_lc_numeric_1               0x080001cd   Thumb Code     0  libinit2.o(.ARM.Collect$$libinit$$00000017)
    __rt_lib_init_lc_time_1                  0x080001cd   Thumb Code     0  libinit2.o(.ARM.Collect$$libinit$$00000019)
    __rt_lib_init_return                     0x080001cd   Thumb Code     0  libinit2.o(.ARM.Collect$$libinit$$00000033)
    __rt_lib_init_signal_1                   0x080001cd   Thumb Code     0  libinit2.o(.ARM.Collect$$libinit$$0000001D)
    __rt_lib_init_stdio_1                    0x080001cd   Thumb Code     0  libinit2.o(.ARM.Collect$$libinit$$00000025)
    __rt_lib_shutdown                        0x080001cf   Thumb Code     0  libshutdown.o(.ARM.Collect$$libshutdown$$00000000)
    __rt_lib_shutdown_cpp_1                  0x080001d1   Thumb Code     0  libshutdown2.o(.ARM.Collect$$libshutdown$$00000002)
    __rt_lib_shutdown_fp_trap_1              0x080001d1   Thumb Code     0  libshutdown2.o(.ARM.Collect$$libshutdown$$00000007)
    __rt_lib_shutdown_heap_1                 0x080001d1   Thumb Code     0  libshutdown2.o(.ARM.Collect$$libshutdown$$0000000F)
    __rt_lib_shutdown_return                 0x080001d1   Thumb Code     0  libshutdown2.o(.ARM.Collect$$libshutdown$$00000010)
    __rt_lib_shutdown_signal_1               0x080001d1   Thumb Code     0  libshutdown2.o(.ARM.Collect$$libshutdown$$0000000A)
    __rt_lib_shutdown_stdio_1                0x080001d1   Thumb Code     0  libshutdown2.o(.ARM.Collect$$libshutdown$$00000004)
    __rt_lib_shutdown_user_alloc_1           0x080001d1   Thumb Code     0  libshutdown2.o(.ARM.Collect$$libshutdown$$0000000C)
    __rt_entry                               0x080001d3   Thumb Code     0  __rtentry.o(.ARM.Collect$$rtentry$$00000000)
    __rt_entry_presh_1                       0x080001d3   Thumb Code     0  __rtentry2.o(.ARM.Collect$$rtentry$$00000002)
    __rt_entry_sh                            0x080001d3   Thumb Code     0  __rtentry4.o(.ARM.Collect$$rtentry$$00000004)
    __rt_entry_li                            0x080001d9   Thumb Code     0  __rtentry2.o(.ARM.Collect$$rtentry$$0000000A)
    __rt_entry_postsh_1                      0x080001d9   Thumb Code     0  __rtentry2.o(.ARM.Collect$$rtentry$$00000009)
    __rt_entry_main                          0x080001dd   Thumb Code     0  __rtentry2.o(.ARM.Collect$$rtentry$$0000000D)
    __rt_entry_postli_1                      0x080001dd   Thumb Code     0  __rtentry2.o(.ARM.Collect$$rtentry$$0000000C)
    __rt_exit                                0x080001e5   Thumb Code     0  rtexit.o(.ARM.Collect$$rtexit$$00000000)
    __rt_exit_ls                             0x080001e7   Thumb Code     0  rtexit2.o(.ARM.Collect$$rtexit$$00000003)
    __rt_exit_prels_1                        0x080001e7   Thumb Code     0  rtexit2.o(.ARM.Collect$$rtexit$$00000002)
    __rt_exit_exit                           0x080001eb   Thumb Code     0  rtexit2.o(.ARM.Collect$$rtexit$$00000004)
    Reset_Handler                            0x080001f1   Thumb Code     4  startup_stm32f10x_hd.o(.text)
    NMI_Handler                              0x080001f5   Thumb Code     2  startup_stm32f10x_hd.o(.text)
    HardFault_Handler                        0x080001f7   Thumb Code     2  startup_stm32f10x_hd.o(.text)
    MemManage_Handler                        0x080001f9   Thumb Code     2  startup_stm32f10x_hd.o(.text)
    BusFault_Handler                         0x080001fb   Thumb Code     2  startup_stm32f10x_hd.o(.text)
    UsageFault_Handler                       0x080001fd   Thumb Code     2  startup_stm32f10x_hd.o(.text)
    SVC_Handler                              0x080001ff   Thumb Code     2  startup_stm32f10x_hd.o(.text)
    DebugMon_Handler                         0x08000201   Thumb Code     2  startup_stm32f10x_hd.o(.text)
    PendSV_Handler                           0x08000203   Thumb Code     2  startup_stm32f10x_hd.o(.text)
    SysTick_Handler                          0x08000205   Thumb Code     2  startup_stm32f10x_hd.o(.text)
    ADC1_2_IRQHandler                        0x08000207   Thumb Code     0  startup_stm32f10x_hd.o(.text)
    ADC3_IRQHandler                          0x08000207   Thumb Code     0  startup_stm32f10x_hd.o(.text)
    CAN1_RX1_IRQHandler                      0x08000207   Thumb Code     0  startup_stm32f10x_hd.o(.text)
    CAN1_SCE_IRQHandler                      0x08000207   Thumb Code     0  startup_stm32f10x_hd.o(.text)
    DMA1_Channel1_IRQHandler                 0x08000207   Thumb Code     0  startup_stm32f10x_hd.o(.text)
    DMA1_Channel2_IRQHandler                 0x08000207   Thumb Code     0  startup_stm32f10x_hd.o(.text)
    DMA1_Channel3_IRQHandler                 0x08000207   Thumb Code     0  startup_stm32f10x_hd.o(.text)
    DMA1_Channel4_IRQHandler                 0x08000207   Thumb Code     0  startup_stm32f10x_hd.o(.text)
    DMA1_Channel5_IRQHandler                 0x08000207   Thumb Code     0  startup_stm32f10x_hd.o(.text)
    DMA1_Channel6_IRQHandler                 0x08000207   Thumb Code     0  startup_stm32f10x_hd.o(.text)
    DMA1_Channel7_IRQHandler                 0x08000207   Thumb Code     0  startup_stm32f10x_hd.o(.text)
    DMA2_Channel1_IRQHandler                 0x08000207   Thumb Code     0  startup_stm32f10x_hd.o(.text)
    DMA2_Channel2_IRQHandler                 0x08000207   Thumb Code     0  startup_stm32f10x_hd.o(.text)
    DMA2_Channel3_IRQHandler                 0x08000207   Thumb Code     0  startup_stm32f10x_hd.o(.text)
    DMA2_Channel4_5_IRQHandler               0x08000207   Thumb Code     0  startup_stm32f10x_hd.o(.text)
    EXTI0_IRQHandler                         0x08000207   Thumb Code     0  startup_stm32f10x_hd.o(.text)
    EXTI15_10_IRQHandler                     0x08000207   Thumb Code     0  startup_stm32f10x_hd.o(.text)
    EXTI1_IRQHandler                         0x08000207   Thumb Code     0  startup_stm32f10x_hd.o(.text)
    EXTI2_IRQHandler                         0x08000207   Thumb Code     0  startup_stm32f10x_hd.o(.text)
    EXTI3_IRQHandler                         0x08000207   Thumb Code     0  startup_stm32f10x_hd.o(.text)
    EXTI4_IRQHandler                         0x08000207   Thumb Code     0  startup_stm32f10x_hd.o(.text)
    EXTI9_5_IRQHandler                       0x08000207   Thumb Code     0  startup_stm32f10x_hd.o(.text)
    FLASH_IRQHandler                         0x08000207   Thumb Code     0  startup_stm32f10x_hd.o(.text)
    FSMC_IRQHandler                          0x08000207   Thumb Code     0  startup_stm32f10x_hd.o(.text)
    I2C1_ER_IRQHandler                       0x08000207   Thumb Code     0  startup_stm32f10x_hd.o(.text)
    I2C1_EV_IRQHandler                       0x08000207   Thumb Code     0  startup_stm32f10x_hd.o(.text)
    I2C2_ER_IRQHandler                       0x08000207   Thumb Code     0  startup_stm32f10x_hd.o(.text)
    I2C2_EV_IRQHandler                       0x08000207   Thumb Code     0  startup_stm32f10x_hd.o(.text)
    PVD_IRQHandler                           0x08000207   Thumb Code     0  startup_stm32f10x_hd.o(.text)
    RCC_IRQHandler                           0x08000207   Thumb Code     0  startup_stm32f10x_hd.o(.text)
    RTCAlarm_IRQHandler                      0x08000207   Thumb Code     0  startup_stm32f10x_hd.o(.text)
    RTC_IRQHandler                           0x08000207   Thumb Code     0  startup_stm32f10x_hd.o(.text)
    SDIO_IRQHandler                          0x08000207   Thumb Code     0  startup_stm32f10x_hd.o(.text)
    SPI1_IRQHandler                          0x08000207   Thumb Code     0  startup_stm32f10x_hd.o(.text)
    SPI2_IRQHandler                          0x08000207   Thumb Code     0  startup_stm32f10x_hd.o(.text)
    SPI3_IRQHandler                          0x08000207   Thumb Code     0  startup_stm32f10x_hd.o(.text)
    TAMPER_IRQHandler                        0x08000207   Thumb Code     0  startup_stm32f10x_hd.o(.text)
    TIM1_BRK_IRQHandler                      0x08000207   Thumb Code     0  startup_stm32f10x_hd.o(.text)
    TIM1_CC_IRQHandler                       0x08000207   Thumb Code     0  startup_stm32f10x_hd.o(.text)
    TIM1_TRG_COM_IRQHandler                  0x08000207   Thumb Code     0  startup_stm32f10x_hd.o(.text)
    TIM1_UP_IRQHandler                       0x08000207   Thumb Code     0  startup_stm32f10x_hd.o(.text)
    TIM2_IRQHandler                          0x08000207   Thumb Code     0  startup_stm32f10x_hd.o(.text)
    TIM4_IRQHandler                          0x08000207   Thumb Code     0  startup_stm32f10x_hd.o(.text)
    TIM5_IRQHandler                          0x08000207   Thumb Code     0  startup_stm32f10x_hd.o(.text)
    TIM6_IRQHandler                          0x08000207   Thumb Code     0  startup_stm32f10x_hd.o(.text)
    TIM7_IRQHandler                          0x08000207   Thumb Code     0  startup_stm32f10x_hd.o(.text)
    TIM8_BRK_IRQHandler                      0x08000207   Thumb Code     0  startup_stm32f10x_hd.o(.text)
    TIM8_CC_IRQHandler                       0x08000207   Thumb Code     0  startup_stm32f10x_hd.o(.text)
    TIM8_TRG_COM_IRQHandler                  0x08000207   Thumb Code     0  startup_stm32f10x_hd.o(.text)
    TIM8_UP_IRQHandler                       0x08000207   Thumb Code     0  startup_stm32f10x_hd.o(.text)
    UART4_IRQHandler                         0x08000207   Thumb Code     0  startup_stm32f10x_hd.o(.text)
    UART5_IRQHandler                         0x08000207   Thumb Code     0  startup_stm32f10x_hd.o(.text)
    USART3_IRQHandler                        0x08000207   Thumb Code     0  startup_stm32f10x_hd.o(.text)
    USBWakeUp_IRQHandler                     0x08000207   Thumb Code     0  startup_stm32f10x_hd.o(.text)
    USB_HP_CAN1_TX_IRQHandler                0x08000207   Thumb Code     0  startup_stm32f10x_hd.o(.text)
    USB_LP_CAN1_RX0_IRQHandler               0x08000207   Thumb Code     0  startup_stm32f10x_hd.o(.text)
    WWDG_IRQHandler                          0x08000207   Thumb Code     0  startup_stm32f10x_hd.o(.text)
    __user_initial_stackheap                 0x08000209   Thumb Code     0  startup_stm32f10x_hd.o(.text)
    __use_no_semihosting                     0x08000225   Thumb Code     2  use_no_semi_2.o(.text)
    __2printf                                0x08000229   Thumb Code    20  noretval__2printf.o(.text)
    _printf_int_dec                          0x08000241   Thumb Code   104  _printf_dec.o(.text)
    _printf_int_hex                          0x080002b9   Thumb Code    84  _printf_hex_int.o(.text)
    _printf_longlong_hex                     0x080002b9   Thumb Code     0  _printf_hex_int.o(.text)
    __printf                                 0x08000311   Thumb Code   184  __printf_ss.o(.text)
    __use_two_region_memory                  0x080003c9   Thumb Code     2  heapauxi.o(.text)
    __rt_heap_escrow$2region                 0x080003cb   Thumb Code     2  heapauxi.o(.text)
    __rt_heap_expand$2region                 0x080003cd   Thumb Code     2  heapauxi.o(.text)
    __I$use$semihosting                      0x080003cf   Thumb Code     0  use_no_semi.o(.text)
    __use_no_semihosting_swi                 0x080003cf   Thumb Code     2  use_no_semi.o(.text)
    _printf_int_common                       0x080003d1   Thumb Code   178  _printf_intcommon.o(.text)
    __lib_sel_fp_printf                      0x08000483   Thumb Code     2  _printf_fp_dec.o(.text)
    _printf_fp_dec_real                      0x08000631   Thumb Code   620  _printf_fp_dec.o(.text)
    _printf_char_file                        0x0800089d   Thumb Code    32  _printf_char_file.o(.text)
    __rt_locale                              0x080008c1   Thumb Code     8  rt_locale_intlibspace.o(.text)
    _ll_udiv10                               0x080008c9   Thumb Code   138  lludiv10.o(.text)
    _printf_char_common                      0x0800095f   Thumb Code    32  _printf_char_common.o(.text)
    _printf_fp_infnan                        0x08000985   Thumb Code   112  _printf_fp_infnan.o(.text)
    _btod_etento                             0x08000a05   Thumb Code   216  bigflt0.o(.text)
    ferror                                   0x08000ae1   Thumb Code     8  ferror.o(.text)
    __user_libspace                          0x08000ae9   Thumb Code     8  libspace.o(.text)
    __user_perproc_libspace                  0x08000ae9   Thumb Code     0  libspace.o(.text)
    __user_perthread_libspace                0x08000ae9   Thumb Code     0  libspace.o(.text)
    __user_setup_stackheap                   0x08000af1   Thumb Code    74  sys_stackheap_outer.o(.text)
    exit                                     0x08000b3b   Thumb Code    18  exit.o(.text)
    strcmp                                   0x08000b4d   Thumb Code   128  strcmpv7m.o(.text)
    _btod_d2e                                0x08000bcd   Thumb Code    62  btod.o(CL$$btod_d2e)
    _d2e_denorm_low                          0x08000c0b   Thumb Code    70  btod.o(CL$$btod_d2e_denorm_low)
    _d2e_norm_op1                            0x08000c51   Thumb Code    96  btod.o(CL$$btod_d2e_norm_op1)
    __btod_div_common                        0x08000cb1   Thumb Code   696  btod.o(CL$$btod_div_common)
    _e2e                                     0x08000fe9   Thumb Code   198  btod.o(CL$$btod_e2e)
    _btod_ediv                               0x080010af   Thumb Code    40  btod.o(CL$$btod_ediv)
    _btod_emul                               0x080010d7   Thumb Code    40  btod.o(CL$$btod_emul)
    __btod_mult_common                       0x080010ff   Thumb Code   580  btod.o(CL$$btod_mult_common)
    Calculate_HLW8110_MeterData              0x08001345   Thumb Code   370  hlw8110.o(i.Calculate_HLW8110_MeterData)
    Check_WriteReg_Success                   0x08001739   Thumb Code   232  hlw8110.o(i.Check_WriteReg_Success)
    Clear_RxBuf                              0x080018e9   Thumb Code    34  hlw8110.o(i.Clear_RxBuf)
    HLW8110_checkSum_Read                    0x0800191d   Thumb Code    46  hlw8110.o(i.HLW8110_checkSum_Read)
    HLW8110_checkSum_Write                   0x08001955   Thumb Code    34  hlw8110.o(i.HLW8110_checkSum_Write)
    Init_HLW8110                             0x0800197d   Thumb Code   136  hlw8110.o(i.Init_HLW8110)
    Judge_CheckSum_HLW8110_Calfactor         0x08001a19   Thumb Code   666  hlw8110.o(i.Judge_CheckSum_HLW8110_Calfactor)
    LED_Init                                 0x08001de9   Thumb Code   198  led.o(i.LED_Init)
    MYRCC_DeInit                             0x08001ec5   Thumb Code    90  sys.o(i.MYRCC_DeInit)
    MY_NVIC_Init                             0x08001f2d   Thumb Code   116  sys.o(i.MY_NVIC_Init)
    MY_NVIC_PriorityGroupConfig              0x08001fa5   Thumb Code    32  sys.o(i.MY_NVIC_PriorityGroupConfig)
    MY_NVIC_SetVectorTable                   0x08001fcd   Thumb Code    12  sys.o(i.MY_NVIC_SetVectorTable)
    Read_HLW8110_Angle                       0x08001fe1   Thumb Code   344  hlw8110.o(i.Read_HLW8110_Angle)
    Read_HLW8110_EA                          0x080021cd   Thumb Code   256  hlw8110.o(i.Read_HLW8110_EA)
    Read_HLW8110_IA                          0x0800235d   Thumb Code   194  hlw8110.o(i.Read_HLW8110_IA)
    Read_HLW8110_LineFreq                    0x08002471   Thumb Code   108  hlw8110.o(i.Read_HLW8110_LineFreq)
    Read_HLW8110_PA                          0x0800252d   Thumb Code   208  hlw8110.o(i.Read_HLW8110_PA)
    Read_HLW8110_PF                          0x0800264d   Thumb Code   160  hlw8110.o(i.Read_HLW8110_PF)
    Read_HLW8110_U                           0x08002745   Thumb Code   210  hlw8110.o(i.Read_HLW8110_U)
    Start_Send_UartData                      0x08002875   Thumb Code    40  hlw8110.o(i.Start_Send_UartData)
    Stm32_Clock_Init                         0x080028a5   Thumb Code   130  sys.o(i.Stm32_Clock_Init)
    TIM3_IRQHandler                          0x08002931   Thumb Code    46  timer.o(i.TIM3_IRQHandler)
    TIM3_Int_Init                            0x0800296d   Thumb Code    72  timer.o(i.TIM3_Int_Init)
    USART1_IRQHandler                        0x080029bd   Thumb Code   118  usart.o(i.USART1_IRQHandler)
    USART2_IRQHandler                        0x08002a41   Thumb Code    66  hlw8110.o(i.USART2_IRQHandler)
    Uart_HLW8110_Set_Channel_A               0x08002a9d   Thumb Code    50  hlw8110.o(i.Uart_HLW8110_Set_Channel_A)
    Uart_HLW8110_WriteREG_DIS                0x08002add   Thumb Code    50  hlw8110.o(i.Uart_HLW8110_WriteREG_DIS)
    Uart_HLW8110_WriteREG_EN                 0x08002b1d   Thumb Code    50  hlw8110.o(i.Uart_HLW8110_WriteREG_EN)
    Uart_Read_HLW8110_Reg                    0x08002b5d   Thumb Code    42  hlw8110.o(i.Uart_Read_HLW8110_Reg)
    Uart_Write_HLW8110_Reg                   0x08002b95   Thumb Code    88  hlw8110.o(i.Uart_Write_HLW8110_Reg)
    __ARM_fpclassify                         0x08002bf9   Thumb Code    40  fpclassify.o(i.__ARM_fpclassify)
    _sys_exit                                0x08002c21   Thumb Code     6  usart.o(i._sys_exit)
    delay_init                               0x08002c29   Thumb Code    56  delay.o(i.delay_init)
    delay_ms                                 0x08002c69   Thumb Code    56  delay.o(i.delay_ms)
    fputc                                    0x08002ca5   Thumb Code    24  usart.o(i.fputc)
    main                                     0x08002cc1   Thumb Code   162  test.o(i.main)
    uart2_init                               0x08002d6d   Thumb Code   208  usart.o(i.uart2_init)
    uart_init                                0x08002e51   Thumb Code   202  usart.o(i.uart_init)
    _get_lc_numeric                          0x08002f2d   Thumb Code    44  lc_numeric_c.o(locale$$code)
    __aeabi_d2f                              0x08002f59   Thumb Code     0  d2f.o(x$fpl$d2f)
    _d2f                                     0x08002f59   Thumb Code    98  d2f.o(x$fpl$d2f)
    __fpl_dcmp_Inf                           0x08002fbb   Thumb Code    24  dcmpi.o(x$fpl$dcmpinf)
    __aeabi_ddiv                             0x08002fd5   Thumb Code     0  ddiv.o(x$fpl$ddiv)
    _ddiv                                    0x08002fd5   Thumb Code   552  ddiv.o(x$fpl$ddiv)
    __aeabi_cdcmple                          0x08003285   Thumb Code     0  dleqf.o(x$fpl$dleqf)
    _dcmple                                  0x08003285   Thumb Code   120  dleqf.o(x$fpl$dleqf)
    __fpl_dcmple_InfNaN                      0x080032e7   Thumb Code     0  dleqf.o(x$fpl$dleqf)
    __aeabi_dmul                             0x080032fd   Thumb Code     0  dmul.o(x$fpl$dmul)
    _dmul                                    0x080032fd   Thumb Code   332  dmul.o(x$fpl$dmul)
    __fpl_dnaninf                            0x08003451   Thumb Code   156  dnaninf.o(x$fpl$dnaninf)
    __fpl_dretinf                            0x080034ed   Thumb Code    12  dretinf.o(x$fpl$dretinf)
    __aeabi_f2d                              0x080034f9   Thumb Code     0  f2d.o(x$fpl$f2d)
    _f2d                                     0x080034f9   Thumb Code    86  f2d.o(x$fpl$f2d)
    __aeabi_fadd                             0x08003551   Thumb Code     0  faddsub_clz.o(x$fpl$fadd)
    _fadd                                    0x08003551   Thumb Code   196  faddsub_clz.o(x$fpl$fadd)
    __fpl_fcmp_Inf                           0x08003615   Thumb Code    24  fcmpi.o(x$fpl$fcmpinf)
    __aeabi_fdiv                             0x0800362d   Thumb Code     0  fdiv.o(x$fpl$fdiv)
    _fdiv                                    0x0800362d   Thumb Code   384  fdiv.o(x$fpl$fdiv)
    __aeabi_f2uiz                            0x080037b1   Thumb Code     0  ffixu.o(x$fpl$ffixu)
    _ffixu                                   0x080037b1   Thumb Code    62  ffixu.o(x$fpl$ffixu)
    __aeabi_ui2f                             0x080037f1   Thumb Code     0  fflt_clz.o(x$fpl$ffltu)
    _ffltu                                   0x080037f1   Thumb Code    38  fflt_clz.o(x$fpl$ffltu)
    __aeabi_cfcmple                          0x08003819   Thumb Code     0  fleqf.o(x$fpl$fleqf)
    _fcmple                                  0x08003819   Thumb Code   104  fleqf.o(x$fpl$fleqf)
    __fpl_fcmple_InfNaN                      0x0800386b   Thumb Code     0  fleqf.o(x$fpl$fleqf)
    __aeabi_fmul                             0x08003881   Thumb Code     0  fmul.o(x$fpl$fmul)
    _fmul                                    0x08003881   Thumb Code   258  fmul.o(x$fpl$fmul)
    __fpl_fnaninf                            0x08003983   Thumb Code   140  fnaninf.o(x$fpl$fnaninf)
    __fpl_fretinf                            0x08003a0f   Thumb Code    10  fretinf.o(x$fpl$fretinf)
    __aeabi_frsub                            0x08003a19   Thumb Code     0  faddsub_clz.o(x$fpl$frsb)
    _frsb                                    0x08003a19   Thumb Code    20  faddsub_clz.o(x$fpl$frsb)
    __aeabi_fsub                             0x08003a2d   Thumb Code     0  faddsub_clz.o(x$fpl$fsub)
    _fsub                                    0x08003a2d   Thumb Code   234  faddsub_clz.o(x$fpl$fsub)
    _printf_fp_dec                           0x08003b17   Thumb Code     4  printf1.o(x$fpl$printf1)
    __I$use$fp                               0x08003b1a   Number         0  usenofp.o(x$fpl$usenofp)
    Region$$Table$$Base                      0x08003bd8   Number         0  anon$$obj.o(Region$$Table)
    Region$$Table$$Limit                     0x08003bf8   Number         0  anon$$obj.o(Region$$Table)
    __stdout                                 0x20000004   Data           4  usart.o(.data)
    USART_RX_STA                             0x20000008   Data           2  usart.o(.data)
    u8_TX_Length                             0x2000000c   Data           1  hlw8110.o(.data)
    u8_RX_Length                             0x2000000d   Data           1  hlw8110.o(.data)
    u8_RX_Index                              0x2000000e   Data           1  hlw8110.o(.data)
    B_Rx_Finish                              0x2000000f   Data           1  hlw8110.o(.data)
    B_Rx_Data_ING                            0x20000010   Data           1  hlw8110.o(.data)
    B_Read_Error                             0x20000011   Data           1  hlw8110.o(.data)
    U16_TempData                             0x20000014   Data           4  hlw8110.o(.data)
    U16_IFData                               0x20000018   Data           4  hlw8110.o(.data)
    U16_RIFData                              0x2000001c   Data           4  hlw8110.o(.data)
    U16_LineFData                            0x20000020   Data           4  hlw8110.o(.data)
    U16_AngleData                            0x20000024   Data           4  hlw8110.o(.data)
    U16_PFData                               0x20000028   Data           4  hlw8110.o(.data)
    U16_HFConst_RegData                      0x2000002c   Data           4  hlw8110.o(.data)
    U16_RMSIAC_RegData                       0x20000030   Data           4  hlw8110.o(.data)
    U16_RMSIBC_RegData                       0x20000034   Data           4  hlw8110.o(.data)
    U16_RMSUC_RegData                        0x20000038   Data           4  hlw8110.o(.data)
    U16_PowerPAC_RegData                     0x2000003c   Data           4  hlw8110.o(.data)
    U16_PowerPBC_RegData                     0x20000040   Data           4  hlw8110.o(.data)
    U16_PowerSC_RegData                      0x20000044   Data           4  hlw8110.o(.data)
    U16_EnergyAC_RegData                     0x20000048   Data           4  hlw8110.o(.data)
    U16_EnergyBC_RegData                     0x2000004c   Data           4  hlw8110.o(.data)
    U16_CheckSUM_RegData                     0x20000050   Data           4  hlw8110.o(.data)
    U16_CheckSUM_Data                        0x20000054   Data           4  hlw8110.o(.data)
    U16_Check_SysconReg_Data                 0x20000058   Data           4  hlw8110.o(.data)
    U16_Check_EmuconReg_Data                 0x2000005c   Data           4  hlw8110.o(.data)
    U16_Check_Emucon2Reg_Data                0x20000060   Data           4  hlw8110.o(.data)
    U32_RMSIA_RegData                        0x20000064   Data           4  hlw8110.o(.data)
    U32_RMSU_RegData                         0x20000068   Data           4  hlw8110.o(.data)
    U32_POWERPA_RegData                      0x2000006c   Data           4  hlw8110.o(.data)
    U32_ENERGY_PA_RegData                    0x20000070   Data           4  hlw8110.o(.data)
    U32_RMSIB_RegData                        0x20000074   Data           4  hlw8110.o(.data)
    U32_POWERPB_RegData                      0x20000078   Data           4  hlw8110.o(.data)
    U32_ENERGY_PB_RegData                    0x2000007c   Data           4  hlw8110.o(.data)
    F_AC_V                                   0x20000080   Data           4  hlw8110.o(.data)
    F_AC_I                                   0x20000084   Data           4  hlw8110.o(.data)
    F_AC_P                                   0x20000088   Data           4  hlw8110.o(.data)
    F_AC_E                                   0x2000008c   Data           4  hlw8110.o(.data)
    F_AC_BACKUP_E                            0x20000090   Data           4  hlw8110.o(.data)
    F_AC_PF                                  0x20000094   Data           4  hlw8110.o(.data)
    F_Angle                                  0x20000098   Data           4  hlw8110.o(.data)
    F_AC_I_B                                 0x2000009c   Data           4  hlw8110.o(.data)
    F_AC_P_B                                 0x200000a0   Data           4  hlw8110.o(.data)
    F_AC_E_B                                 0x200000a4   Data           4  hlw8110.o(.data)
    F_AC_BACKUP_E_B                          0x200000a8   Data           4  hlw8110.o(.data)
    F_AC_LINE_Freq                           0x200000ac   Data           4  hlw8110.o(.data)
    B_ReadData_HLW8110                       0x200000b0   Data           1  timer.o(.data)
    USART_RX_BUF                             0x200000b4   Data         200  usart.o(.bss)
    u8_TxBuf                                 0x2000017c   Data          10  hlw8110.o(.bss)
    u8_RxBuf                                 0x20000186   Data          10  hlw8110.o(.bss)
    __libspace_start                         0x20000190   Data          96  libspace.o(.bss)
    __temporary_stack_top$libspace           0x200001f0   Data           0  libspace.o(.bss)



==============================================================================

Memory Map of the image

  Image Entry point : 0x08000131

  Load Region LR_IROM1 (Base: 0x08000000, Size: 0x00003cc8, Max: 0x00040000, ABSOLUTE)

    Execution Region ER_IROM1 (Base: 0x08000000, Size: 0x00003c14, Max: 0x00040000, ABSOLUTE)

    Base Addr    Size         Type   Attr      Idx    E Section Name        Object

    0x08000000   0x00000130   Data   RO          105    RESET               startup_stm32f10x_hd.o
    0x08000130   0x00000008   Code   RO          499  * !!!main             c_w.l(__main.o)
    0x08000138   0x00000034   Code   RO          763    !!!scatter          c_w.l(__scatter.o)
    0x0800016c   0x0000001a   Code   RO          765    !!handler_copy      c_w.l(__scatter_copy.o)
    0x08000186   0x00000002   PAD
    0x08000188   0x0000001c   Code   RO          767    !!handler_zi        c_w.l(__scatter_zi.o)
    0x080001a4   0x00000000   Code   RO          496    .ARM.Collect$$_printf_percent$$00000000  c_w.l(_printf_percent.o)
    0x080001a4   0x00000006   Code   RO          495    .ARM.Collect$$_printf_percent$$00000003  c_w.l(_printf_f.o)
    0x080001aa   0x00000006   Code   RO          494    .ARM.Collect$$_printf_percent$$00000009  c_w.l(_printf_d.o)
    0x080001b0   0x00000006   Code   RO          493    .ARM.Collect$$_printf_percent$$0000000C  c_w.l(_printf_x.o)
    0x080001b6   0x00000004   Code   RO          548    .ARM.Collect$$_printf_percent$$00000017  c_w.l(_printf_percent_end.o)
    0x080001ba   0x00000002   Code   RO          640    .ARM.Collect$$libinit$$00000000  c_w.l(libinit.o)
    0x080001bc   0x00000000   Code   RO          642    .ARM.Collect$$libinit$$00000002  c_w.l(libinit2.o)
    0x080001bc   0x00000000   Code   RO          644    .ARM.Collect$$libinit$$00000004  c_w.l(libinit2.o)
    0x080001bc   0x00000000   Code   RO          647    .ARM.Collect$$libinit$$0000000A  c_w.l(libinit2.o)
    0x080001bc   0x00000000   Code   RO          649    .ARM.Collect$$libinit$$0000000C  c_w.l(libinit2.o)
    0x080001bc   0x00000000   Code   RO          651    .ARM.Collect$$libinit$$0000000E  c_w.l(libinit2.o)
    0x080001bc   0x00000006   Code   RO          652    .ARM.Collect$$libinit$$0000000F  c_w.l(libinit2.o)
    0x080001c2   0x00000000   Code   RO          654    .ARM.Collect$$libinit$$00000011  c_w.l(libinit2.o)
    0x080001c2   0x00000000   Code   RO          656    .ARM.Collect$$libinit$$00000013  c_w.l(libinit2.o)
    0x080001c2   0x00000000   Code   RO          658    .ARM.Collect$$libinit$$00000015  c_w.l(libinit2.o)
    0x080001c2   0x0000000a   Code   RO          659    .ARM.Collect$$libinit$$00000016  c_w.l(libinit2.o)
    0x080001cc   0x00000000   Code   RO          660    .ARM.Collect$$libinit$$00000017  c_w.l(libinit2.o)
    0x080001cc   0x00000000   Code   RO          662    .ARM.Collect$$libinit$$00000019  c_w.l(libinit2.o)
    0x080001cc   0x00000000   Code   RO          664    .ARM.Collect$$libinit$$0000001B  c_w.l(libinit2.o)
    0x080001cc   0x00000000   Code   RO          666    .ARM.Collect$$libinit$$0000001D  c_w.l(libinit2.o)
    0x080001cc   0x00000000   Code   RO          668    .ARM.Collect$$libinit$$0000001F  c_w.l(libinit2.o)
    0x080001cc   0x00000000   Code   RO          670    .ARM.Collect$$libinit$$00000021  c_w.l(libinit2.o)
    0x080001cc   0x00000000   Code   RO          672    .ARM.Collect$$libinit$$00000023  c_w.l(libinit2.o)
    0x080001cc   0x00000000   Code   RO          674    .ARM.Collect$$libinit$$00000025  c_w.l(libinit2.o)
    0x080001cc   0x00000000   Code   RO          678    .ARM.Collect$$libinit$$0000002C  c_w.l(libinit2.o)
    0x080001cc   0x00000000   Code   RO          680    .ARM.Collect$$libinit$$0000002E  c_w.l(libinit2.o)
    0x080001cc   0x00000000   Code   RO          682    .ARM.Collect$$libinit$$00000030  c_w.l(libinit2.o)
    0x080001cc   0x00000000   Code   RO          684    .ARM.Collect$$libinit$$00000032  c_w.l(libinit2.o)
    0x080001cc   0x00000002   Code   RO          685    .ARM.Collect$$libinit$$00000033  c_w.l(libinit2.o)
    0x080001ce   0x00000002   Code   RO          713    .ARM.Collect$$libshutdown$$00000000  c_w.l(libshutdown.o)
    0x080001d0   0x00000000   Code   RO          722    .ARM.Collect$$libshutdown$$00000002  c_w.l(libshutdown2.o)
    0x080001d0   0x00000000   Code   RO          724    .ARM.Collect$$libshutdown$$00000004  c_w.l(libshutdown2.o)
    0x080001d0   0x00000000   Code   RO          727    .ARM.Collect$$libshutdown$$00000007  c_w.l(libshutdown2.o)
    0x080001d0   0x00000000   Code   RO          730    .ARM.Collect$$libshutdown$$0000000A  c_w.l(libshutdown2.o)
    0x080001d0   0x00000000   Code   RO          732    .ARM.Collect$$libshutdown$$0000000C  c_w.l(libshutdown2.o)
    0x080001d0   0x00000000   Code   RO          735    .ARM.Collect$$libshutdown$$0000000F  c_w.l(libshutdown2.o)
    0x080001d0   0x00000002   Code   RO          736    .ARM.Collect$$libshutdown$$00000010  c_w.l(libshutdown2.o)
    0x080001d2   0x00000000   Code   RO          541    .ARM.Collect$$rtentry$$00000000  c_w.l(__rtentry.o)
    0x080001d2   0x00000000   Code   RO          563    .ARM.Collect$$rtentry$$00000002  c_w.l(__rtentry2.o)
    0x080001d2   0x00000006   Code   RO          575    .ARM.Collect$$rtentry$$00000004  c_w.l(__rtentry4.o)
    0x080001d8   0x00000000   Code   RO          565    .ARM.Collect$$rtentry$$00000009  c_w.l(__rtentry2.o)
    0x080001d8   0x00000004   Code   RO          566    .ARM.Collect$$rtentry$$0000000A  c_w.l(__rtentry2.o)
    0x080001dc   0x00000000   Code   RO          568    .ARM.Collect$$rtentry$$0000000C  c_w.l(__rtentry2.o)
    0x080001dc   0x00000008   Code   RO          569    .ARM.Collect$$rtentry$$0000000D  c_w.l(__rtentry2.o)
    0x080001e4   0x00000002   Code   RO          686    .ARM.Collect$$rtexit$$00000000  c_w.l(rtexit.o)
    0x080001e6   0x00000000   Code   RO          693    .ARM.Collect$$rtexit$$00000002  c_w.l(rtexit2.o)
    0x080001e6   0x00000004   Code   RO          694    .ARM.Collect$$rtexit$$00000003  c_w.l(rtexit2.o)
    0x080001ea   0x00000006   Code   RO          695    .ARM.Collect$$rtexit$$00000004  c_w.l(rtexit2.o)
    0x080001f0   0x00000034   Code   RO          106    .text               startup_stm32f10x_hd.o
    0x08000224   0x00000002   Code   RO          442    .text               c_w.l(use_no_semi_2.o)
    0x08000226   0x00000002   PAD
    0x08000228   0x00000018   Code   RO          446    .text               c_w.l(noretval__2printf.o)
    0x08000240   0x00000078   Code   RO          450    .text               c_w.l(_printf_dec.o)
    0x080002b8   0x00000058   Code   RO          455    .text               c_w.l(_printf_hex_int.o)
    0x08000310   0x000000b8   Code   RO          476    .text               c_w.l(__printf_ss.o)
    0x080003c8   0x00000006   Code   RO          497    .text               c_w.l(heapauxi.o)
    0x080003ce   0x00000002   Code   RO          539    .text               c_w.l(use_no_semi.o)
    0x080003d0   0x000000b2   Code   RO          542    .text               c_w.l(_printf_intcommon.o)
    0x08000482   0x0000041a   Code   RO          544    .text               c_w.l(_printf_fp_dec.o)
    0x0800089c   0x00000024   Code   RO          546    .text               c_w.l(_printf_char_file.o)
    0x080008c0   0x00000008   Code   RO          580    .text               c_w.l(rt_locale_intlibspace.o)
    0x080008c8   0x0000008a   Code   RO          582    .text               c_w.l(lludiv10.o)
    0x08000952   0x00000002   PAD
    0x08000954   0x00000030   Code   RO          584    .text               c_w.l(_printf_char_common.o)
    0x08000984   0x00000080   Code   RO          586    .text               c_w.l(_printf_fp_infnan.o)
    0x08000a04   0x000000dc   Code   RO          588    .text               c_w.l(bigflt0.o)
    0x08000ae0   0x00000008   Code   RO          613    .text               c_w.l(ferror.o)
    0x08000ae8   0x00000008   Code   RO          624    .text               c_w.l(libspace.o)
    0x08000af0   0x0000004a   Code   RO          627    .text               c_w.l(sys_stackheap_outer.o)
    0x08000b3a   0x00000012   Code   RO          631    .text               c_w.l(exit.o)
    0x08000b4c   0x00000080   Code   RO          633    .text               c_w.l(strcmpv7m.o)
    0x08000bcc   0x0000003e   Code   RO          591    CL$$btod_d2e        c_w.l(btod.o)
    0x08000c0a   0x00000046   Code   RO          593    CL$$btod_d2e_denorm_low  c_w.l(btod.o)
    0x08000c50   0x00000060   Code   RO          592    CL$$btod_d2e_norm_op1  c_w.l(btod.o)
    0x08000cb0   0x00000338   Code   RO          601    CL$$btod_div_common  c_w.l(btod.o)
    0x08000fe8   0x000000c6   Code   RO          598    CL$$btod_e2e        c_w.l(btod.o)
    0x080010ae   0x00000028   Code   RO          595    CL$$btod_ediv       c_w.l(btod.o)
    0x080010d6   0x00000028   Code   RO          594    CL$$btod_emul       c_w.l(btod.o)
    0x080010fe   0x00000244   Code   RO          600    CL$$btod_mult_common  c_w.l(btod.o)
    0x08001342   0x00000002   PAD
    0x08001344   0x000003f4   Code   RO          256    i.Calculate_HLW8110_MeterData  hlw8110.o
    0x08001738   0x000001b0   Code   RO          257    i.Check_WriteReg_Success  hlw8110.o
    0x080018e8   0x00000034   Code   RO          258    i.Clear_RxBuf       hlw8110.o
    0x0800191c   0x00000038   Code   RO          259    i.HLW8110_checkSum_Read  hlw8110.o
    0x08001954   0x00000028   Code   RO          260    i.HLW8110_checkSum_Write  hlw8110.o
    0x0800197c   0x0000009c   Code   RO          261    i.Init_HLW8110      hlw8110.o
    0x08001a18   0x000003d0   Code   RO          262    i.Judge_CheckSum_HLW8110_Calfactor  hlw8110.o
    0x08001de8   0x000000dc   Code   RO          225    i.LED_Init          led.o
    0x08001ec4   0x00000068   Code   RO            6    i.MYRCC_DeInit      sys.o
    0x08001f2c   0x00000078   Code   RO            7    i.MY_NVIC_Init      sys.o
    0x08001fa4   0x00000028   Code   RO            8    i.MY_NVIC_PriorityGroupConfig  sys.o
    0x08001fcc   0x00000014   Code   RO            9    i.MY_NVIC_SetVectorTable  sys.o
    0x08001fe0   0x000001ec   Code   RO          263    i.Read_HLW8110_Angle  hlw8110.o
    0x080021cc   0x00000190   Code   RO          264    i.Read_HLW8110_EA   hlw8110.o
    0x0800235c   0x00000114   Code   RO          265    i.Read_HLW8110_IA   hlw8110.o
    0x08002470   0x000000bc   Code   RO          266    i.Read_HLW8110_LineFreq  hlw8110.o
    0x0800252c   0x00000120   Code   RO          267    i.Read_HLW8110_PA   hlw8110.o
    0x0800264c   0x000000f8   Code   RO          268    i.Read_HLW8110_PF   hlw8110.o
    0x08002744   0x00000130   Code   RO          269    i.Read_HLW8110_U    hlw8110.o
    0x08002874   0x00000030   Code   RO          270    i.Start_Send_UartData  hlw8110.o
    0x080028a4   0x0000008c   Code   RO           10    i.Stm32_Clock_Init  sys.o
    0x08002930   0x0000003c   Code   RO          419    i.TIM3_IRQHandler   timer.o
    0x0800296c   0x00000050   Code   RO          420    i.TIM3_Int_Init     timer.o
    0x080029bc   0x00000084   Code   RO          178    i.USART1_IRQHandler  usart.o
    0x08002a40   0x0000005c   Code   RO          271    i.USART2_IRQHandler  hlw8110.o
    0x08002a9c   0x00000040   Code   RO          273    i.Uart_HLW8110_Set_Channel_A  hlw8110.o
    0x08002adc   0x00000040   Code   RO          274    i.Uart_HLW8110_WriteREG_DIS  hlw8110.o
    0x08002b1c   0x00000040   Code   RO          275    i.Uart_HLW8110_WriteREG_EN  hlw8110.o
    0x08002b5c   0x00000038   Code   RO          276    i.Uart_Read_HLW8110_Reg  hlw8110.o
    0x08002b94   0x00000064   Code   RO          277    i.Uart_Write_HLW8110_Reg  hlw8110.o
    0x08002bf8   0x00000028   Code   RO          622    i.__ARM_fpclassify  m_ws.l(fpclassify.o)
    0x08002c20   0x00000006   Code   RO          179    i._sys_exit         usart.o
    0x08002c26   0x00000002   PAD
    0x08002c28   0x00000040   Code   RO          152    i.delay_init        delay.o
    0x08002c68   0x0000003c   Code   RO          153    i.delay_ms          delay.o
    0x08002ca4   0x0000001c   Code   RO          180    i.fputc             usart.o
    0x08002cc0   0x000000ac   Code   RO          110    i.main              test.o
    0x08002d6c   0x000000e4   Code   RO          181    i.uart2_init        usart.o
    0x08002e50   0x000000dc   Code   RO          182    i.uart_init         usart.o
    0x08002f2c   0x0000002c   Code   RO          618    locale$$code        c_w.l(lc_numeric_c.o)
    0x08002f58   0x00000062   Code   RO          501    x$fpl$d2f           fz_ws.l(d2f.o)
    0x08002fba   0x00000018   Code   RO          549    x$fpl$dcmpinf       fz_ws.l(dcmpi.o)
    0x08002fd2   0x00000002   PAD
    0x08002fd4   0x000002b0   Code   RO          504    x$fpl$ddiv          fz_ws.l(ddiv.o)
    0x08003284   0x00000078   Code   RO          507    x$fpl$dleqf         fz_ws.l(dleqf.o)
    0x080032fc   0x00000154   Code   RO          509    x$fpl$dmul          fz_ws.l(dmul.o)
    0x08003450   0x0000009c   Code   RO          551    x$fpl$dnaninf       fz_ws.l(dnaninf.o)
    0x080034ec   0x0000000c   Code   RO          553    x$fpl$dretinf       fz_ws.l(dretinf.o)
    0x080034f8   0x00000056   Code   RO          511    x$fpl$f2d           fz_ws.l(f2d.o)
    0x0800354e   0x00000002   PAD
    0x08003550   0x000000c4   Code   RO          513    x$fpl$fadd          fz_ws.l(faddsub_clz.o)
    0x08003614   0x00000018   Code   RO          555    x$fpl$fcmpinf       fz_ws.l(fcmpi.o)
    0x0800362c   0x00000184   Code   RO          520    x$fpl$fdiv          fz_ws.l(fdiv.o)
    0x080037b0   0x0000003e   Code   RO          523    x$fpl$ffixu         fz_ws.l(ffixu.o)
    0x080037ee   0x00000002   PAD
    0x080037f0   0x00000026   Code   RO          527    x$fpl$ffltu         fz_ws.l(fflt_clz.o)
    0x08003816   0x00000002   PAD
    0x08003818   0x00000068   Code   RO          533    x$fpl$fleqf         fz_ws.l(fleqf.o)
    0x08003880   0x00000102   Code   RO          535    x$fpl$fmul          fz_ws.l(fmul.o)
    0x08003982   0x0000008c   Code   RO          557    x$fpl$fnaninf       fz_ws.l(fnaninf.o)
    0x08003a0e   0x0000000a   Code   RO          559    x$fpl$fretinf       fz_ws.l(fretinf.o)
    0x08003a18   0x00000014   Code   RO          514    x$fpl$frsb          fz_ws.l(faddsub_clz.o)
    0x08003a2c   0x000000ea   Code   RO          515    x$fpl$fsub          fz_ws.l(faddsub_clz.o)
    0x08003b16   0x00000004   Code   RO          537    x$fpl$printf1       fz_ws.l(printf1.o)
    0x08003b1a   0x00000000   Code   RO          561    x$fpl$usenofp       fz_ws.l(usenofp.o)
    0x08003b1a   0x00000028   Data   RO          456    .constdata          c_w.l(_printf_hex_int.o)
    0x08003b42   0x00000002   PAD
    0x08003b44   0x00000094   Data   RO          589    .constdata          c_w.l(bigflt0.o)
    0x08003bd8   0x00000020   Data   RO          761    Region$$Table       anon$$obj.o
    0x08003bf8   0x0000001c   Data   RO          617    locale$$data        c_w.l(lc_numeric_c.o)


    Execution Region RW_IRAM1 (Base: 0x20000000, Size: 0x000005f0, Max: 0x0000c000, ABSOLUTE)

    Base Addr    Size         Type   Attr      Idx    E Section Name        Object

    0x20000000   0x00000004   Data   RW          155    .data               delay.o
    0x20000004   0x00000006   Data   RW          184    .data               usart.o
    0x2000000a   0x00000002   PAD
    0x2000000c   0x000000a4   Data   RW          279    .data               hlw8110.o
    0x200000b0   0x00000001   Data   RW          421    .data               timer.o
    0x200000b1   0x00000003   PAD
    0x200000b4   0x000000c8   Zero   RW          183    .bss                usart.o
    0x2000017c   0x00000014   Zero   RW          278    .bss                hlw8110.o
    0x20000190   0x00000060   Zero   RW          625    .bss                c_w.l(libspace.o)
    0x200001f0   0x00000000   Zero   RW          104    HEAP                startup_stm32f10x_hd.o
    0x200001f0   0x00000400   Zero   RW          103    STACK               startup_stm32f10x_hd.o


==============================================================================

Image component sizes


      Code (inc. data)   RO Data    RW Data    ZI Data      Debug   Object Name

       124         12          0          4          0       1692   delay.o
      5408       2024          0        164         20      19373   hlw8110.o
       220         22          0          0          0        643   led.o
        52         18        304          0       1024        916   startup_stm32f10x_hd.o
       424         44          0          0          0     211464   sys.o
       172         10          0          0          0        675   test.o
       140         22          0          1          0       1783   timer.o
       614         56          0          6        200       5897   usart.o

    ----------------------------------------------------------------------
      7156       2208        336        180       1244     242443   Object Totals
         0          0         32          0          0          0   (incl. Generated)
         2          0          0          5          0          0   (incl. Padding)

    ----------------------------------------------------------------------

      Code (inc. data)   RO Data    RW Data    ZI Data      Debug   Library Member Name

         8          0          0          0          0         68   __main.o
       184          0          0          0          0         84   __printf_ss.o
         0          0          0          0          0          0   __rtentry.o
        12          0          0          0          0          0   __rtentry2.o
         6          0          0          0          0          0   __rtentry4.o
        52          8          0          0          0          0   __scatter.o
        26          0          0          0          0          0   __scatter_copy.o
        28          0          0          0          0          0   __scatter_zi.o
        48          6          0          0          0         96   _printf_char_common.o
        36          4          0          0          0         80   _printf_char_file.o
         6          0          0          0          0          0   _printf_d.o
       120         16          0          0          0         92   _printf_dec.o
         6          0          0          0          0          0   _printf_f.o
      1050          0          0          0          0        216   _printf_fp_dec.o
       128         16          0          0          0         84   _printf_fp_infnan.o
        88          4         40          0          0         88   _printf_hex_int.o
       178          0          0          0          0         88   _printf_intcommon.o
         0          0          0          0          0          0   _printf_percent.o
         4          0          0          0          0          0   _printf_percent_end.o
         6          0          0          0          0          0   _printf_x.o
       220          4        148          0          0         96   bigflt0.o
      1910        128          0          0          0        672   btod.o
        18          0          0          0          0         80   exit.o
         8          0          0          0          0         68   ferror.o
         6          0          0          0          0        152   heapauxi.o
        44         10         28          0          0         76   lc_numeric_c.o
         2          0          0          0          0          0   libinit.o
        18          0          0          0          0          0   libinit2.o
         2          0          0          0          0          0   libshutdown.o
         2          0          0          0          0          0   libshutdown2.o
         8          4          0          0         96         68   libspace.o
       138          0          0          0          0         80   lludiv10.o
        24          4          0          0          0         84   noretval__2printf.o
         8          4          0          0          0         68   rt_locale_intlibspace.o
         2          0          0          0          0          0   rtexit.o
        10          0          0          0          0          0   rtexit2.o
       128          0          0          0          0         68   strcmpv7m.o
        74          0          0          0          0         80   sys_stackheap_outer.o
         2          0          0          0          0         68   use_no_semi.o
         2          0          0          0          0         68   use_no_semi_2.o
        98          4          0          0          0         92   d2f.o
        24          0          0          0          0         68   dcmpi.o
       688        140          0          0          0        208   ddiv.o
       120          4          0          0          0         92   dleqf.o
       340         12          0          0          0        104   dmul.o
       156          4          0          0          0         92   dnaninf.o
        12          0          0          0          0         68   dretinf.o
        86          4          0          0          0         84   f2d.o
       450          8          0          0          0        236   faddsub_clz.o
        24          0          0          0          0         68   fcmpi.o
       388         76          0          0          0         96   fdiv.o
        62          4          0          0          0         84   ffixu.o
        38          0          0          0          0         68   fflt_clz.o
       104          4          0          0          0         84   fleqf.o
       258          4          0          0          0         84   fmul.o
       140          4          0          0          0         84   fnaninf.o
        10          0          0          0          0         68   fretinf.o
         4          0          0          0          0         68   printf1.o
         0          0          0          0          0          0   usenofp.o
        40          0          0          0          0         68   fpclassify.o

    ----------------------------------------------------------------------
      7670        476        218          0         96       4440   Library Totals
        16          0          2          0          0          0   (incl. Padding)

    ----------------------------------------------------------------------

      Code (inc. data)   RO Data    RW Data    ZI Data      Debug   Library Name

      4612        208        216          0         96       2624   c_w.l
      3002        268          0          0          0       1748   fz_ws.l
        40          0          0          0          0         68   m_ws.l

    ----------------------------------------------------------------------
      7670        476        218          0         96       4440   Library Totals

    ----------------------------------------------------------------------

==============================================================================


      Code (inc. data)   RO Data    RW Data    ZI Data      Debug   

     14826       2684        554        180       1340     242615   Grand Totals
     14826       2684        554        180       1340     242615   ELF Image Totals
     14826       2684        554        180          0          0   ROM Totals

==============================================================================

    Total RO  Size (Code + RO Data)                15380 (  15.02kB)
    Total RW  Size (RW Data + ZI Data)              1520 (   1.48kB)
    Total ROM Size (Code + RO Data + RW Data)      15560 (  15.20kB)

==============================================================================

