:020000040800F2
:10000000000002209D040008A5040008A7040008C1
:10001000A9040008AB040008AD04000800000000BB
:10002000000000000000000000000000AF04000815
:10003000B104000800000000B3040008011B000820
:10004000B7040008B7040008B7040008B7040008A4
:10005000B7040008B7040008B7040008B704000894
:10006000B7040008B7040008B7040008B704000884
:10007000B7040008B7040008B7040008B704000874
:10008000B7040008B7040008B7040008B704000864
:1000900000000000B704000800000000B7040008DA
:1000A000B7040008B7040008B7040008B704000844
:1000B000B7040008B7040008B7040008B704000834
:1000C00000000000B704000800000000B7040008AA
:1000D000B7040008B7040008B7040008B704000814
:1000E000B7040008B7040008B7040008B704000804
:1000F000B7040008B7040008B7040008B7040008F4
:1001000000000000B7040008B7040008B7040008A6
:10011000B7040008B7040008B7040008B7040008D3
:10012000B7040008B7040008B7040008B7040008C3
:10013000B7040008B7040008000000000000000039
:10014000B70400080000000000000000B704000829
:10015000000000000000000000000000B7040008DC
:10016000000000000000000000000000000000008F
:10017000000000000000000000000000000000007F
:100180000000000000000000B7040008B7040008E9
:10019000000000000000000000000000000000005F
:1001A000000000000000000000000000000000004F
:1001B000000000000000000000000000000000003F
:1001C000000000000000000000000000000000002F
:1004000000F002F800F03AF80AA090E8000C8244EC
:100410008344AAF10107DA4501D100F02FF8AFF2C9
:10042000090EBAE80F0013F0010F18BFFB1A43F0D2
:1004300001031847B8590000D8590000103A24BFEA
:1004400078C878C1FAD8520724BF30C830C144BF39
:1004500004680C607047000000230024002500267B
:10046000103A28BF78C1FBD8520728BF30C148BF17
:100470000B6070471FB51FBD10B510BDDFF80CD065
:10048000FFF7F8FF01F0DAFB00F01AF80000022095
:1004900003B4FFF7F1FF03BC00F01CF806488047E7
:1004A00006480047FEE7FEE7FEE7FEE7FEE7FEE759
:1004B000FEE7FEE7FEE7FEE7051C00080104000872
:1004C00010B50446AFF300802046BDE81040FFF7AA
:1004D000DFBF704701491820ABBEFEE726000200CF
:1004E000B0B582B000F054F90024C4F204042046F0
:1004F0004FF4005100F0E8FA04F5806528464FF407
:10050000007100F0E1FA322000F036FB28464FF48B
:10051000007100F029FB322000F02EFB20464FF442
:10052000005100F021FB322000F026FB00F0E6F93C
:10053000142000F021FB0DF10702A720012100F09B
:1005400003F802B0B0BD000070B515460C46064673
:1005500000F098F92A2000F045FA00F06BFAF0B2AA
:1005600000F040FA00F066FA00F08CF92B2000F061
:1005700039FA00F05FFA5CB1013D6442B4F1FF303A
:1005800018BF012000F0D4F9013405F8010FF5D3AC
:1005900000F098F9012070BD2DE9F04782B040F2DB
:1005A0002408C2F2000898F800108DF80700013105
:1005B000C8B288F800104CF6CD41CCF6CC4140F2E0
:1005C0001006A0FB01210A28C2F2000615D3C908B3
:1005D00001EB8101A0EB410000060ED0307C002130
:1005E000318110F0810FB1810CBF00F0E00900F003
:1005F0006009002086F8109045E00DF10702022006
:100600000121FFF7A1FF9DF807A05FEA0A6007D567
:100610000AF00E00052803D80220002100F052F84D
:100620000AF00F00411E04292CD8FF2101FA00F026
:10063000C12161EA000096F8109030743089B189C8
:1006400042F2CC450027C0F600050DF1030470818D
:10065000F18102E00137022F1BD0307CF840C00747
:10066000F8D035F8170004212246FFF76DFF9DF8FA
:1006700004009DF80610C0F1F00006EB470210815F
:100680009181E7E7002098F80010F12912D30A21A0
:100690000EE03089F02802D8B089F12806D370899D
:1006A0001AF00E0F3081F089B08106D001200021B0
:1006B00088F8001002B0BDE8F08780208DF80700B0
:1006C000012097E7B0B50C46054600F0DBF82A207C
:1006D00000F088F900F0AEF9E8B200F083F900F01C
:1006E000A9F9204600F07EF900F0A4F900F0EAF83C
:1006F0000120B0BD84B04FF6FF7A00200021F02227
:10070000F023CDF800A000F0D3FA02A840F2100BBD
:1007100042F2C84900F10208C2F2000BC0F600091B
:1007200003E000BF052000F027FADBF804100020EA
:1007300000258847474606E027F802AC0135022D20
:1007400007F10407EED09BF81000E840C007F3D093
:10075000012000F011FA0BEB45042289EF2AEDD8B5
:10076000A389EF2BEAD837F8020C504504BF27F8CD
:10077000022C3B8037F8020C398839F81560009656
:1007800000F03CFA2089A18927F8020C3980D5E7CE
:1007900070B582B00720012101F090F9042040F2E9
:1007A0000044C1F20100C4F2040401AD01902046EE
:1007B000294600F08BF92046042100F0D5F942F2D9
:1007C0000000C0F20140A4F5806601903046294641
:1007D00000F07CF930464FF4005100F0C5F90320D9
:1007E000C1F2010001902046294600F06FF9204631
:1007F000032100F0B9F902B070BD000010B540F25D
:100800000044C4F204042046012100F05DF900F028
:10081000D1F8052001F008FA2046022100F054F931
:10082000052001F001FA2046012100F09DF9052084
:1008300001F0FAF920460121BDE8104000F044B96A
:1008400010B540F20044C4F204042046012100F037
:100850003BF900F0AFF8052001F0E6F9204602214F
:1008600000F082F9052001F0DFF92046012100F0B7
:100870007BF9052001F0D8F920460121BDE81040A0
:1008800000F022B910B500F095F840F20044C4F22F
:1008900004042046022100F067F92046012100F0FF
:1008A00063F90A2001F0C0F92046022100F00CF99A
:1008B000052001F0B9F920460121BDE8104000F003
:1008C00003B9000010B500F075F840F20044C4F21E
:1008D00004042046012100F0F7F82046022100F030
:1008E000F3F8052001F0A0F92046012100F03CF9C1
:1008F00020460221BDE8104000F036B910B582B0A4
:100900000220012101F0DAF840F2002040F2004418
:10091000C0F20140C4F20404019001A9204600F095
:10092000D5F820464FF4007100F0CEF802B010BDAB
:10093000F0B581B040F200450446C4F2040500F071
:100940001FF800272846012100F0BEF8052001F01D
:100950006BF92846012100F007F92846022100F032
:10096000FDF80137082F40EA4606EBD314B1FFF734
:1009700045FF01E0FFF764FFF0B201B0F0BD0000F9
:1009800010B582B002200121022401F097F848201E
:100990008DF80700ADF8044040F20044C4F20404AE
:1009A00001A9204600F092F82046022100F08CF8C0
:1009B00002B010BD10B582B00220012101F07EF816
:1009C000022040F20044C1F20100C4F2040401908C
:1009D00001A9204600F07AF82046022100F0C4F870
:1009E00002B010BD70B540F200450446C4F20405E3
:1009F000FFF7E0FF2846012100F066F8002600BF5F
:100A0000E0B2C2092846022100F0B0F828460121D0
:100A1000640000F0A9F8052001F006F9284601213C
:100A200000F052F8052001F0FFF80136082EE7D358
:100A300070BD0000B0B540F20044C4F20404FFF7FA
:100A40009FFF2046022100F08FF82046012100F090
:100A50008BF8052001F0E8F8002500BF20460221B0
:100A600000F07CF838B1FA2D05F10105F6D3FFF757
:100A700029FF0120B0BD2046012100F025F800200B
:100A8000B0BD000080B582B00020019000F08CF86D
:100A90000090009844F6D351C1F26201A0FB01011D
:100AA000880901F017F818B14FF0FF3002B080BD8F
:100AB00001F0AAF80190019800F0EAFF01F0ACF80B
:100AC000002002B080BD000041617047F0B591F890
:100AD00003C000230CF00F0E5FEACC6244BF8A789B
:100AE0004EEA020E0A880F24002504E00135082D85
:100AF00003F104030CD022FA05F6F607F6D00668D7
:100B000004FA03F7BE430EFA03F73E430660EDE72F
:100B1000098800230A0A0F24002504E00135082D66
:100B200003F104030CD022FA05F6F607F6D0466866
:100B300004FA03F7BE430EFA03F73E434660EDE7BF
:100B4000BCF1480F05D0BCF1280F18BFF0BD143020
:100B500000E01030026811430160F0BDC068084039
:100B600018BF012070470000016170471023002A60
:100B700008BF1423C150704710B582B0044600F07E
:100B800019F8019000940098013003D000980130CA
:100B9000009000BF00F00EF80199009A401A9042B0
:100BA000F8D302B010BD000040F20C00C2F2000009
:100BB0000068704740F22800C2F2000000687047E9
:100BC000F0B581B007462A201C4615460E4600F0B7
:100BD00045FF384600F02AFF284600F027FF2B206B
:100BE00000F03CFF304600F021FF204600F01EFFE1
:100BF0002C2001B0BDE8F04000F030BF2DE9F04FEF
:100C000083B0121A0D460446002AA3EB010604DD48
:100C10000127002E0ADD01210FE0C2F1000018BFFC
:100C20004FF0FF3217460246002EF4DCC6F10000FA
:100C300018BF4FF0FF3631460646B242B346C8BF32
:100C40009346BBF1000F23D44FF0000A4FF0000988
:100C50004FF00008CDE901210C9AA0B2A9B200F032
:100C60001BF8019A0AEB060109EB0200B0EB0B0935
:100C700008F10108D4BF81463C44B1EB0B0A1FFACE
:100C800088F0D8BF8A460299C8BF0D448345E3DA8D
:100C900003B0BDE8F08F000010B5144602460B46C5
:100CA000FFF78EFF2046BDE8104000F0BFBE0000F9
:100CB0002DE9F04381B00E468146501E591E9846DC
:100CC000154682B28BB248463146FFF779FF46455A
:100CD00012D2089CA94505D30136B0B240450BD2CB
:100CE000A945F9D24F4600BF204600F09FFE0137CC
:100CF000B8B2A842F8D3EFE701B0BDE8F083000036
:100D000070B582B00620012100F0D8FE40F2004408
:100D1000FF20C4F20404C1F2010004F5806501AEB5
:100D2000019028463146FFF7D1FE2846FF21FFF704
:100D30001BFF4FF4FC70ADF8040020463146FFF76E
:100D4000C5FE20464FF4FC71FFF70EFF02B070BDE8
:100D5000B0B5FFF7D5FF40F21044C4F204040825F3
:100D600064206560FFF708FF64202560FFF704FF3B
:100D70004FF4807020606420FFF7FEFEEF2000F04B
:100D80006DFEEB2000F06AFE142000F05FFEFE20F6
:100D900000F064FEEF2000F061FEEB2000F05EFE4C
:100DA000142000F053FE842000F058FE402000F094
:100DB0004DFE852000F052FEFF2000F047FE862009
:100DC00000F04CFEFF2000F041FE872000F046FEC0
:100DD000FF2000F03BFE882000F040FE0A2000F0DB
:100DE00035FE892000F03AFE212000F02FFE8A20F7
:100DF00000F034FE002000F029FE8B2000F02EFED3
:100E0000802000F023FE8C2000F028FE012000F05E
:100E10001DFE8D2000F022FE012000F017FE8E2026
:100E200000F01CFEFF2000F011FE8F2000F016FEE7
:100E3000FF2000F00BFEB62000F010FE002000F0B6
:100E400005FE202000F002FE362000F007FE0820FC
:100E500000F0FCFD3A2000F001FE052000F0F6FD58
:100E6000902000F0FBFD082000F0F0FD082000F0CD
:100E7000EDFD082000F0EAFD082000F0E7FDBD20B0
:100E800000F0ECFD062000F0E1FDBC2000F0E6FDE6
:100E9000002000F0DBFDFF2000F0E0FD602000F00E
:100EA000D5FD012000F0D2FD042000F0CFFDC320CD
:100EB00000F0D4FD132000F0C9FDC42000F0CEFDE9
:100EC000132000F0C3FDC92000F0C8FD222000F06F
:100ED000BDFDBE2000F0C2FD112000F0B7FDE120F5
:100EE00000F0BCFD102000F0B1FD0E2000F0AEFDC2
:100EF000DF2000F0B3FD212000F0A8FD0C2000F061
:100F0000A5FD022000F0A2FDF02000F0A7FD452085
:100F100000F09CFD092000F099FD082000F096FDEE
:100F2000082000F093FD262000F090FD2A2000F01C
:100F30008DFDF12000F092FD432000F087FD702030
:100F400000F084FD722000F081FD362000F07EFD6F
:100F5000372000F07BFD6F2000F078FDF22000F0DC
:100F60007DFD452000F072FD092000F06FFD082096
:100F700000F06CFD082000F069FD262000F066FD01
:100F80002A2000F063FDF32000F068FD432000F00C
:100F90005DFD702000F05AFD722000F057FD3620F4
:100FA00000F054FD372000F051FD6F2000F04EFDA1
:100FB000ED2000F053FD1B2000F048FD0B2000F059
:100FC00045FDAE2000F04AFD772000F03FFDCD202A
:100FD00000F044FD632000F039FD702000F03EFD7C
:100FE000072000F033FD072000F030FD042000F062
:100FF0002DFD0E2000F02AFD0F2000F027FD092016
:1010000000F024FD072000F021FD082000F01EFD67
:10101000032000F01BFDE82000F020FD342000F04C
:1010200015FD622000F01AFD182000F00FFD0D20C4
:1010300000F00CFD712000F009FDED2000F006FD30
:10104000702000F003FD702000F000FD182000F07B
:10105000FDFC0F2000F0FAFC712000F0F7FCEF20FF
:1010600000F0F4FC702000F0F1FC702000F0EEFCC9
:10107000632000F0F3FC182000F0E8FC112000F0E1
:10108000E5FC712000F0E2FCF12000F0DFFC7020B4
:1010900000F0DCFC702000F0D9FC182000F0D6FC39
:1010A000132000F0D3FC712000F0D0FCF32000F0FE
:1010B000CDFC702000F0CAFC702000F0C7FC64205A
:1010C00000F0CCFC282000F0C1FC292000F0BEFC80
:1010D000F12000F0BBFC012000F0B8FCF12000F092
:1010E000B5FC002000F0B2FC072000F0AFFC662049
:1010F00000F0B4FC3C2000F0A9FC002000F0A6FCAD
:10110000CD2000F0A3FC672000F0A0FC452000F0FB
:101110009DFC452000F09AFC102000F097FC002078
:1011200000F094FC002000F091FC002000F08EFC08
:10113000672000F093FC002000F088FC3C2000F0C9
:1011400085FC002000F082FC002000F07FFC0020E5
:1011500000F07CFC012000F079FC542000F076FCCB
:10116000102000F073FC322000F070FC982000F09A
:101170006DFC742000F072FC102000F067FC8520EC
:1011800000F064FC802000F061FC002000F05EFCB8
:10119000002000F05BFC4E2000F058FC002000F026
:1011A00055FC982000F05AFC3E2000F04FFC072030
:1011B00000F04CFC352000F051FC212000F04EFCEA
:1011C000112000F04BFC7820FFF7D6FC292000F01E
:1011D00045FC1420BDE8B040FFF7CEBC2DE9F04F30
:1011E00087B0DDF8448081464FEA58074FEA18106F
:1011F0001C46924601237A0718BF03EB181000FB28
:1012000008F609EB580001EB08020138531E82B2C0
:101210009BB248460D460691FFF7D2FC002E04967D
:1012200000F08280A8F10C01CAB2920842EA811152
:10123000AAF12000CBB242F64411C2B2C0F60001BE
:1012400001EB0211019144F20411129DC0F600015C
:101250000020029201EB82114E4600224FF0000A5C
:1012600000910393052B0CD95EE04FF0000A00BFFC
:10127000059A04990132039B90B2814254D9052BFF
:1012800052D80592DFE803F0030E5010501A02996D
:1012900042F2D04201EB4101C0F6000202EB8101B3
:1012A0000DE000BF01990AE0029942F6347201EBA9
:1012B0004101C0F6000202EB011100E00099084470
:1012C00090F800B04FF0000815E000BF002810981B
:1012D00018BF204600F0AAFB0AF1010A5FFA8AF063
:1012E000B0FBF7F101FB17000028BED008F10108A0
:1012F000B8F1080FBCD0012000FA08F0002D00EA78
:101300000B00E3D028B10699B0B289B22246FFF7AC
:10131000C3FC0136B0B2A0EB0900B842E6D1069892
:101320004E4601300690A3E707B0BDE8F08F0000FD
:101330002DE9F04F83B015461278002A49D0DDE937
:101340000CA40746A4F10C008B46C1B28908DDF855
:10135000388041EA80109946C6B2052E07D938E098
:1013600015F8020F2744002833D0052E31D8DFE8C6
:1013700006F00E1930253003B8B259462A464B46BE
:10138000CDE900A4CDF8088000F0CEF9E8E7B8B2C6
:1013900059462A464B46CDE900A4CDF8088000F016
:1013A0001BF8DDE7B8B259462A464B46CDE900A402
:1013B000CDF8088000F09EF8D2E700BFB8B25946D9
:1013C0002A464B46CDE900A4CDF8088000F01EF96E
:1013D000C6E703B0BDE8F08F2DE9F04F87B0119E4E
:1013E0008246F0081C4606910123710718BF03EBE3
:1013F000D600704345F6C4030590701E4FF00009F7
:101400004FF01A0CC0F6000357464FF00008019049
:1014100002920DE0DDF80C90029A09F1010945F6FF
:10142000C403B9F1050F4FF01A0CC0F600035DD0EC
:1014300009FB0CF0185C1178CDF80C908842E9D1CA
:1014400009FB0C35517868788842E3D10199DDF8C1
:1014500018C0C819614482B28BB2B8B21FFA8CF1BD
:10146000FFF7AEFB05980028D4D000204FF000090C
:10147000049509E04FF0000809F101090599049D60
:101480005FFA89F08142C5D9284490F802B000255E
:1014900013E000BF0028109818BF204600F0C6FADD
:1014A00008F101085FFA88F0B0FBF6F101FB1600C5
:1014B0000028DFD00135082DDED001201299A84088
:1014C000002900EA0B00E5D028B10699B8B289B22C
:1014D0002246FFF7E1FB0137B8B2A0EB0A00B042A9
:1014E000E8D10698574601300690C5E707B0BDE839
:1014F000F08F00002DE9F04F87B0119E8246F00872
:101500001C4606910123710718BF03EBD6007043F8
:1015100045F646110590701E4FF00009C0F6000117
:1015200057464FF00008019002920BE0DDF80C9056
:10153000029A09F1010945F64611B9F1050FC0F605
:1015400000015FD009EB091011F810C01378CDF835
:101550000C909C45EAD101EB4005687851788842AF
:10156000E4D10199DDF818C0C819614482B28BB288
:10157000B8B21FFA8CF1FFF723FB05980028D5D0ED
:1015800000204FF0000904950AE04FF0000800BF6A
:1015900009F101090599049D5FFA89F08142C5D9D5
:1015A000284490F802B0002513E000BF00281098EE
:1015B00018BF204600F03AFA08F101085FFA88F0F7
:1015C000B0FBF6F101FB16000028DED00135082D36
:1015D000DED001201299A840002900EA0B00E5D0D6
:1015E00028B10699B8B289B22246FFF755FB0137F8
:1015F000B8B2A0EB0A00B042E8D1069857460130D5
:101600000690C5E707B0BDE8F08F00002DE9F04F68
:1016100087B0119E8246F0081C460691012371078F
:1016200018BF03EBD600704345F6F0130590701E0B
:101630004FF000094FF04A0CC0F6000357464FF038
:101640000008019002920DE0DDF80C90029A09F179
:10165000010945F6F013B9F1050F4FF04A0CC0F639
:1016600000035DD009FB0CF0185C1178CDF80C90EC
:101670008842E9D109FB0C35517868788842E3D17A
:101680000199DDF818C0C819614482B28BB2B8B2B2
:101690001FFA8CF1FFF794FA05980028D4D00020A7
:1016A0004FF00009049509E04FF0000809F1010925
:1016B0000599049D5FFA89F08142C5D9284490F8C4
:1016C00002B0002513E000BF0028109818BF204684
:1016D00000F0ACF908F101085FFA88F0B0FBF6F110
:1016E00001FB16000028DFD00135082DDED00120D7
:1016F0001299A840002900EA0B00E5D028B106990C
:10170000B8B289B22246FFF7C7FA0137B8B2A0EBE8
:101710000A00B042E8D10698574601300690C5E766
:1017200007B0BDE8F08F00002DE9F04F87B0119EA3
:101730008246F0081C4606910123710718BF03EB8F
:10174000D600704345F662310590701E4FF00009D7
:10175000C0F6000157464FF00008019002920BE0DE
:10176000DDF80C90029A09F1010945F66231B9F1F0
:10177000050FC0F600015FD009EB891011F810C009
:101780001378CDF80C909C45EAD101EB40056878C0
:1017900051788842E4D10199DDF818C0C819614434
:1017A00082B28BB2B8B21FFA8CF1FFF709FA059832
:1017B0000028D5D000204FF0000904950AE04FF032
:1017C000000800BF09F101090599049D5FFA89F03D
:1017D0008142C5D9284490F802B0002513E000BF2B
:1017E0000028109818BF204600F020F908F10108E1
:1017F0005FFA88F0B0FBF6F101FB16000028DED09E
:101800000135082DDED001201299A840002900EAF8
:101810000B00E5D028B10699B8B289B22246FFF78D
:101820003BFA0137B8B2A0EB0A00B042E8D1069803
:10183000574601300690C5E707B0BDE8F08F0000BD
:101840002DE9F04F87B0002B069067D08846DDF871
:1018500048A00021C4F2C82110461D464FEA5A068E
:1018600000F066FD00F048FD4FF000090590CDF84E
:1018700010802CE000FB04B0CDE9007ADDF8108088
:10188000109F264680B2414693462E223B460024B6
:101890000294FFF7A3FC5A4609F1010901350699A4
:1018A0005FFA89F000FB061042F03001119A80B215
:1018B000CDE9002ACAB241463B460294FFF78EFCAE
:1018C00009F101095FFA89F0E9B2814226D96FEA8C
:1018D00009002844119FDDF818B0C1B20A2034462F
:1018E0005FFA85F85FFA89F600F024FA0599B1FBF2
:1018F000F0F14CF6CD40CCF6CC40A1FB0002D00874
:1019000000EB8002A8F10200B042A1EB4202B1D08C
:10191000DDF81080109F26460024C0E707B0BDE820
:10192000F08F00002DE9F04F87B0002BCDE90512B4
:1019300055D0074612981C464508581E4FF000091E
:101940004FF000084FF0000A4FF0000B0026049003
:1019500018E000BF4FF0010B40F03002119809EB86
:10196000070100901298109B019088B20599D2B29D
:101970000296FFF733FC08F101080AF1010A444519
:10198000A9442CD06FEA0A002044C1B20A2000F01A
:10199000D1F90699BBF1000FB1FBF0F04CF6CD4147
:1019A000CCF6CC41A0FB01124FEAD20101EB810140
:1019B000A0EB4100D0D104994145CDDD0104C9D14E
:1019C000119909EB0700009112994FF0000B01915A
:1019D0000599109B80B22022CDF808B0C9E707B066
:1019E000BDE8F08F2DE9F04F83B09B461378CBB163
:1019F000DDE90C9ADDF838800D4606464FEA5A07B5
:101A0000541E00BFB0B2DAB229465B46CDE9009A57
:101A1000CDF80880FFF7E2FBA3783E44002B04F1E9
:101A20000104EFD103B0BDE8F08F000010B504460B
:101A300040F21040C4F2040020210160200A00F0AE
:101A400019F8E0B2BDE8104000F014B840F21041BF
:101A5000C4F2040120220A6000F00CB8B0B540F2D4
:101A60001044C4F204042025656000F003F82560EA
:101A7000B0BD000040F21041C4F2040110224A60DF
:101A8000C1F8FC034020486008600A60704700000D
:101A900000F0070080F00701032928BF03214FF061
:101AA000FF32043802FA01F14FF00F0238BF002074
:101AB00022EA010101FA00F070470000002941F21A
:101AC0002801C4F202010A680CBF22EA0000104398
:101AD0000860704770B501380024B4EB106F02D075
:101AE0000124204670BD4EF21005CEF2000568605C
:101AF0000720072600F090F82046AC602E6070BDED
:101B000040F22800C2F20000016801310160704714
:101B100080B541F20400C4F20200416A41F4005170
:101B2000416242F20001C4F202010A6842F004027A
:101B30000A60C16A41F08051C16247F20001C4F2FB
:101B400000010A6822F400420A600A6842F4004276
:101B50000A6050F8041C4FF6FF72CFF6FE62114087
:101B600040F8041C50F8041C41F4803140F8041C77
:101B700050F8041C8903FBD5416C41F0010141641C
:101B8000416C21F002014164416C21F4FE01416489
:101B9000416C41F40C114164416C21F4E0614164F9
:101BA000416C41F4A061416450F8041C41F0807123
:101BB00040F8041C50F8041C8901FBD50168016041
:101BC000016841F480610160016841F400510160E5
:101BD000016841F400010160016841F0E0610160C9
:101BE000016841F00201016001680907FCD500F0BD
:101BF00007F900F0ABF800F0C7F8BDE8804000F04E
:101C0000E1B80000704700004EF60C50CEF2000024
:101C10000068C0F3022070474EF623514001CEF217
:101C20000001087070470000002808BF704700BF1F
:101C30000138010400BFFBD17047000084B04FF6AB
:101C4000FF76FFF765FFFEF71DFFFFF781F8002025
:101C50000021F022F02300960027FFF729F8FEF775
:101C60003FFC45F6294B42F6F5044FF478484FF017
:101C700010090FF2AC0ACCF28F2BC3F6BC7400250E
:101C8000202001901E2028211DA24FF478430096A9
:101C90000297FFF74DFB202050211DA24FF47843FF
:101CA000CDE900690297FFF79DFE86205021F022C2
:101CB0000323CDE90086CDF80890FFF733FE2020FE
:101CC000642152464FF47843CDE900690297FFF74B
:101CD00089FEA02064212A460423CDE90086CDF8A0
:101CE0000890FFF7ADFD284600F0DAFA5A46234681
:101CF00000F0F0F800F0BCF80546FEF7FBFCBFE78B
:101D0000E4B8ADE699AFE59BADE794B5E5AD9000DD
:101D10004C43445F4469616D657465723A0000002C
:101D2000496E637265617365696E67204E756E3AC0
:101D300000000000002904BF012070470246012076
:101D400001390B0602FB00F0FAD1704741F20400A2
:101D5000C4F202000068010605D440F20C00C2F291
:101D60000000006809E040F20C01C2F20001C0F37B
:101D700002100968013021FA00F040F20001C2F2BD
:101D8000000108607047000041F20400C4F2020044
:101D90000068410505D440F20000C2F2000000686E
:101DA00009E040F20001C2F20001C0F3012009681D
:101DB000013021FA00F040F20401C2F20001086093
:101DC0007047000041F20400C4F202000068810480
:101DD00005D440F20000C2F20000006809E040F2C1
:101DE0000001C2F20001C0F3C1200968013021FAEC
:101DF00000F040F20801C2F20001086070470000E4
:101E000041F24801C4F2020151F8442C41F2002091
:101E1000C2F38102C0F27A00DFE802F02302072158
:101E200041F60030C0F2B7001BE00A68D2070AD0C2
:101E30000868800748F68050C0F25B005CBF41F63E
:101E40000030C0F2B7000A68C2F302220968C1F389
:101E5000064101314843511CB0FBF1F001E049F665
:101E6000404040F20C01C2F20001086070470000DF
:101E700021F0004201F00043A2F16052B2F5801F50
:101E800028BFD2F17F6C0BD95FEA001C43EAC20283
:101E900042EB507018BF704728BF20F00100704718
:101EA000B2F5801FBCBF184670474FEA410C1CF5C5
:101EB000001F02D2084600F002BB70B500F0B2F875
:101EC00000000089FFF7F6BF4FF00040A0F580004A
:101ED0007047000010B591EA030F48BF83F000433C
:101EE00000F1FC80841A71EB030C05D2121943EB4C
:101EF0000C03001B61EB0C014FEA1154A4EB135CC3
:101F0000DFF81CE11EEA430F18BF9EEA445F73D05E
:101F100021EA045123EA0E0343F48013DCF1200E7E
:101F200032D322FA0CFE10EB0E0023FA0CFE41EB2A
:101F30000E01CCF1200E03FA0EFE10EB0E00CCF1D8
:101F4000200E51F10001B1F5801F32D201EB045196
:101F500012FA0EF2BDE8104058BF7047401C38BF5F
:101F60005FEA420218BF7047002814BF20F001004A
:101F700041F100014FEA410313F5001F38BF7047DC
:101F8000A1F1C04100F09CB8012A43EB0302ACF17F
:101F9000200CDCF11F0E32BF4FF0000E23FA0CF3C1
:101FA00010EB030041EB0451B4EB115FD0D0A1EB77
:101FB000045101F58011490801EB04515FEA30003A
:101FC0000ED350F1000038BF12FA0EFE08D1BDE862
:101FD0001040C9E7401C38BF5FEA4202CAD1C3E7DC
:101FE000BDE810404FEA410313F5001F38BF7047AA
:101FF000A1F1C04100F064B89EEA445F08D011EA44
:102000005E0FBDE8104004BF01F0004100207047A2
:10201000BDE8104070B500F005F800BF64FBBE3E9F
:102020000000E0FF0EF1020E2EF0030E5EF8046BCE
:10203000364205D4012A43EB030515F5001F12D8DB
:10204000012841EB010C1CF5001F0CD80ED14FEA02
:10205000D17C0CEB4C0C0CF1020C15F5001F08BFE9
:102060004CEBD37C04E04FF0080C01E04FEAD37C4A
:102070000CEB4C0526FA05F606F00706B6F1040C43
:1020800006D20EEB860CBDE870404CF0010C6047A8
:10209000DFE80CF0090B02024FF00041A1F500212E
:1020A0004FF0000070BD19461046012851EB0104A5
:1020B00018BFD4F5001484BF002001F0004170BDAA
:1020C0000808A0F500114FEA3101704710B591EAF8
:1020D000030F48BF83F000433FF504AF841A71EB50
:1020E000030C07D28CF0004C121943EB0C03001BBD
:1020F00061EB0C014FEA1154A4EB135CDFF89CE197
:102100001EEA430F18BF9EEA445F00F0B08021EA48
:10211000045123EA6E035242C3EB6E0338BF5B1EC9
:10212000DCF1200E25D322FA0CFE10EB0E0043FA50
:102130000CFE41EB0E01CCF1200E03FA0EFE10EB6B
:102140000E00CCF1200E51F1000129D401EB045115
:1021500012FA0EF2BDE8104058BF7047401C1CBF79
:10216000B2F1004F704700280CBF491C20F001005D
:10217000704712EB020E43EB030218BF4FF0010E43
:102180004EEA4202ACF1200CDCF11E0E54D943FAA7
:102190000CFE10EB0E00CCF11E0E51F1FF31D5D527
:1021A0000EF1010E12FA0EFE404141EB010101EB6E
:1021B000445C5FEA5C5C10D901EB045110EBDE700B
:1021C00038BFBEF1004FBDE8104018BF704700286F
:1021D0000CBF491C20F00100704730D24FEAD42CCC
:1021E00024F4006411F500111BD0B1FA81F20B3A0E
:1021F000A41AA41ED2F12003914030FA03F319432C
:10220000904001EBCC7101EB0451002CBDE8104073
:10221000A8BF704701F1C04101F000414FF000003C
:102220007047B0FA80F310FA03F100D110BDE41A40
:10223000173C4805C90AE4E701EB045110BD4910F9
:102240004FEA300001EB0451BDE8104002E04FF0CE
:10225000000170474A0008BF0042F8D0B2F5001FE5
:1022600028BF704701F000414FF0000070479EEA20
:10227000445F07D011EA5E0FBDE8104004BF0021A3
:1022800000207047BDE8104070B5FFF7CBFE00BFDF
:1022900040DFF63E104683F0004170470000E0FF4B
:1022A00043004FEAD30C4FEA3C0C43401FBF4007AA
:1022B0000CF1605113F0FE4F70471CF0006F03D11A
:1022C0000CF00041002070470CF0004343EA5070CE
:1022D00040EACC0010B500F0ACF800BF000000925E
:1022E0004FEA0001FFF7ECBE4FF00041A1F50021DD
:1022F0004FF000007047000041000B0ED3F19E022A
:1023000008D950F400034FEA032323FA02F048BF30
:102310004042704710B500F08CF800BF499224800D
:10232000002070476FF0004282EA200070470000F2
:102330004FF47F0C1CEAD0121EBF1CEAD11392EAA4
:102340000C0F93EA0C0F00F0478090EA010F48BF92
:1023500042F480724FF0004C4CEA00204CEA01211C
:1023600002EB0302A0FB0113A2F50002002918BF33
:1023700043F001035B0028BF4FEA330342EB2242E4
:102380005FEA132C4CEBC2502EBFBCEB436FB2F58F
:102390007C0F70474FEA036CBCF1004F08BF20F080
:1023A0000100B2F57C0F38BF70470BD582F0FF02F9
:1023B00012F5803FC8BF704700F1C040D8BF00F0A1
:1023C0000040704700F5000C5FEA4C0C48BF7047B6
:1023D000B0F1C04000F073B80CEAD11390EA010FDD
:1023E00048BF42F48072624538BF634504D280EA38
:1023F000010000F00040704710B500F01AF800BF6F
:102400008900013E00F007B800F009B85FEA410C0E
:102410005FEA1C6C08D080EA010000F050B85FEA67
:10242000400C5FEA1C6CF6D14FF00040A0F5800034
:1024300070470EF1020E2EF0030E5EF8044B24429C
:1024400004D44FEA4102B2F17F4F11D84FEA400362
:10245000B3F17F4F0CD80ED14FEAD07C0CEB4C0C73
:102460000CF1020CB2F17F4F08BF4CEBD17C04E0C1
:102470004FF0080C01E04FEAD17C0CEB4C0324FA3E
:1024800003F404F00704B4F1040C06D20EEB840C40
:10249000BDE810404CF0010C6047DFE80CF0070885
:1024A00002024FF00040A0F5800010BD0846420037
:1024B00018BFD2F1807288BF00F0004010BDFF212C
:1024C00041EAD050C005704700F8E007030009005A
:1024D00000000000000000000000000000000404F4
:1024E000040404000004000014140A0000000000AA
:1024F0000000000000000A0A1F0A0A1F0A0A000062
:1025000000040E1505060C14150E0400000012152B
:102510000D152E2C2A1200000000040A0A3615158B
:102520002916000002020100000000000000000067
:102530001008080404040404080810000204040835
:10254000080808080404020000000004150E0E1517
:102550000400000000000008083E08080000000019
:102560000000000000000000020201000000000066
:10257000003F00000000000000000000000000001C
:1025800000020000002010100808040402020100EC
:1025900000000E1111111111110E000000000406AF
:1025A00004040404040E000000000E1111080402CB
:1025B000011F000000000E11100C1010110E000081
:1025C0000000080C0C0A091F081C000000001F0175
:1025D000010F1110110E000000000C12010D13115B
:1025E000110E000000001E1008080404040400007E
:1025F00000000E11110E1111110E000000000E113D
:102600001119161009060000000000000400000067
:1026100000040000000000000004000000040400AA
:10262000000010080402020408100000000000006E
:102630003F003F00000000000000020408101008E6
:102640000402000000000E11110804040004000040
:1026500000001C22292D2D1D221C00000000040456
:102660000C0A0A1E1233000000000F12120E121282
:10267000120F000000001E1101010101110E0000E7
:1026800000000F1212121212120F000000001F128F
:102690000A0E0A02121F000000001F120A0E0A0290
:1026A0000207000000001C1201013911120C000089
:1026B00000003312121E12121233000000001F0419
:1026C00004040404041F000000003E080808080871
:1026D00008080907000037120A060A12123700001C
:1026E0000000070202020202223F000000003B1B22
:1026F0001B1B15151535000000003B1216161A1A83
:102700001217000000000E1111111111110E00001E
:1027100000000F12120E02020207000000000E114C
:1027200011111117190E180000000F12120E0A12C3
:102730001237000000001E1101060810110F0000E2
:1027400000001F1504040404040E000000003312EE
:1027500012121212120C000000003312120A0A0C9C
:10276000040400000000151515150E0A0A0A0000E1
:1027700000001B0A0A04040A0A1B000000001B0ACE
:102780000A0A0404040E000000001F0908040402E1
:10279000121F00001C0404040404040404041C00AC
:1027A0000002020404040808081010000E080808BB
:1027B0000808080808080E00040A000000000000CD
:1027C0000000000000000000000000000000003FCA
:1027D00002040000000000000000000000000000F3
:1027E000000C121C123C000000030202020E121226
:1027F000120E000000000000001C1202120C00006B
:1028000000181010101C1212123C000000000000F2
:10281000000C121E021C000000182404041E0404F4
:10282000041E000000000000003C120C021C221CD0
:1028300000030202020E121212370000000404000C
:1028400000060404040E000000080800000C08083C
:102850000808080700030202021A0A060A13000009
:102860000007040404040404041F00000000000026
:10287000000F15151515000000000000000F1212C2
:102880001237000000000000000C1212120C0000B1
:1028900000000000000F1212120E020700000000DC
:1028A000001C1212121C103800000000001B06024F
:1028B0000207000000000000001E020C101E0000B5
:1028C00000000004041E0404041C000000000000BA
:1028D000001B1212123C000000000000001B0A0A3C
:1028E00004040000000000000015150E0A0A000094
:1028F00000000000001B0A040A1B0000000000008A
:10290000003312120C08040300000000001E08042B
:10291000041E000018080808080C08080808180019
:102920000808080808080808080808080604040435
:102930000408040404040600160900000000000056
:102940000000000000000000000000000000000087
:10295000000000000000000808080808080800003F
:102960001818000000486C2412000000000000004D
:10297000000000000000002424247F1212127F12A5
:10298000121200000000081C2A2A0A0C1828282A03
:102990002A1C080800000022251515152A58545431
:1029A000542200000000000C1212120A7625291190
:1029B000916E000000060604030000000000000005
:1029C0000000000000402010100808080808081047
:1029D0001020400000020408081010101010100809
:1029E000080402000000000008086B1C1C6B0808AB
:1029F0000000000000000000080808087F08080820
:102A000008000000000000000000000000000000BE
:102A1000060604030000000000000000FE000000A5
:102A200000000000000000000000000000000000A6
:102A30000606000000008040402020101008080416
:102A40000402020000000018244242424242424274
:102A500024180000000000080E08080808080808EC
:102A6000083E00000000003C4242422020100804C2
:102A7000427E00000000003C4242201820404042BC
:102A8000221C0000000000203028242422227E2066
:102A9000207800000000007E0202021A2640404218
:102AA000221C0000000000382402021A2642424282
:102AB000241800000000007E2222101008080808D8
:102AC000080800000000003C424242241824424210
:102AD000423C00000000001824424242645840403A
:102AE000241C000000000000000018180000000076
:102AF000181800000000000000000008000000009E
:102B00000008080400000040201008040204081017
:102B1000204000000000000000007F0000007F0057
:102B200000000000000000020408102040201008EF
:102B3000040200000000003C424246402010100009
:102B4000181800000000001C225A555555552D42FA
:102B5000221C00000000000808181414243C224223
:102B600042E700000000001F2222221E22424242B1
:102B7000221F00000000007C4242010101010142CD
:102B8000221C00000000001F2242424242424242F8
:102B9000221F00000000003F4212121E12120242C9
:102BA000423F00000000003F4212121E12120202B9
:102BB000020700000000003C2222010101712122D5
:102BC000221C0000000000E7424242427E42424294
:102BD00042E700000000003E08080808080808084E
:102BE000083E00000000007C1010101010101010A3
:102BF0001010110F0000007722120A0E0A12122282
:102C00002277000000000007020202020202020214
:102C1000427F000000000077363636362A2A2A2AFC
:102C20002A6B0000000000E346464A4A52525262B4
:102C3000624700000000001C2241414141414141E6
:102C4000221C00000000003F424242423E020202BB
:102C5000020700000000001C2241414141414D5348
:102C6000321C60000000003F4242423E121222220B
:102C700042C700000000007C42420204182040428B
:102C8000423E00000000007F4908080808080808C4
:102C9000081C0000000000E7424242424242424219
:102CA000423C0000000000E7424222242414141891
:102CB000080800000000006B494949495555362273
:102CC00022220000000000E74224241818182424BF
:102CD00042E70000000000772222141408080808C8
:102CE000081C00000000007E21201010080404428F
:102CF000423F00000078080808080808080808088B
:102D000008087800000002020404080808101020D7
:102D100020204040001E1010101010101010101035
:102D200010101E00003844000000000000000000E9
:102D30000000000000000000000000000000000093
:102D4000000000FF00060800000000000000000076
:102D500000000000000000000000003C42784442F7
:102D600042FC0000000000030202021A2642424216
:102D7000261A000000000000000000384402020291
:102D80004438000000000060404040784442424225
:102D900064D80000000000000000003C427E0202F7
:102DA000423C0000000000F08808087E080808087F
:102DB000083E0000000000000000007C22221C02EF
:102DC0003C42423C000000030202023A46424242B8
:102DD00042E700000000000C0C00000E0808080884
:102DE000083E000000000030300000382020202085
:102DF0002020221E0000000302020272120A161294
:102E0000227700000000000E0808080808080808DB
:102E1000083E0000000000000000007F92929292A5
:102E200092B70000000000000000003B4642424212
:102E300042E70000000000000000003C4242424225
:102E4000423C0000000000000000001B26424242FD
:102E5000221E0207000000000000007844424242A7
:102E6000447840E000000000000000774C040404B7
:102E7000041F0000000000000000007C42023C40F3
:102E8000423E0000000000000008083E0808080854
:102E9000083000000000000000000063424242428F
:102EA00062DC000000000000000000E7422424145F
:102EB0000808000000000000000000EB49495555DB
:102EC00022220000000000000000007624181818DC
:102ED000246E000000000000000000E742242414DB
:102EE00018080807000000000000007E22100808F3
:102EF000447E000000C02020202020102020202020
:102F00002020C00010101010101010101010101001
:102F10001010101000060808080808100808080813
:102F2000080806000C32C20000000000000000008B
:102F30000000000000000000000000000000000091
:102F40000000000000000000000000000000000081
:102F50000000000000000000000000000000000071
:102F600000000000000000000000000060006000A1
:102F700060006000600060006000400020002000F1
:102F80002000000000000000600060006000000001
:102F90000000000000000000600660063003980199
:102FA0008800440000000000000000000000000055
:102FB0000000000000000000000000000000000011
:102FC00000000000000000000000000010021002DD
:102FD00010021002FE07FE0708020801080108019E
:102FE0000801FE07FE0704010401040104010000BA
:102FF0000000000000000000000040004000F00160
:1030000058034C03CC034C0058007000E000C00192
:10301000C00140034C035C034C034801F000400036
:103020004000000000000000000000000E010A0146
:10303000910091009100510051003A00AE03A002AE
:1030400050045004480448044804840284030000E7
:1030500000000000000000000000000038006C00CC
:103060006C006C006C006C002C0098071C011A01AD
:10307000330133016301E300C308C6093C070000C4
:1030800000000000000000000C001C0010001000F8
:103090000800040000000000000000000000000024
:1030A0000000000000000000000000000000000020
:1030B0000000000000000000000400020001800089
:1030C0008000400040002000200020002000200060
:1030D000200020004000400080008000000100022D
:1030E00000040000000000000200040008001000BE
:1030F0001000200020004000400040004000400040
:1031000040004000200020001000100008000400D3
:1031100002000000000000000000000000000000AD
:103120004000C0004000460C4E0FD001F0015E0F81
:10313000460C40004000400000000000000000007D
:10314000000000000000000000000000000000007F
:10315000000040004000400040004000FE0F4000E2
:10316000400040004000400000000000000000005F
:10317000000000000000000000000000000000004F
:10318000000000000000000000000000000000003F
:1031900000000000000000000C001C0010001000E7
:1031A0000800040000000000000000000000000013
:1031B000000000000000000000000000FE0700000A
:1031C00000000000000000000000000000000000FF
:1031D00000000000000000000000000000000000EF
:1031E00000000000000000000000000000000000DF
:1031F00000000000000000001C001C001C0000007B
:1032000000000000000000000004000600020003AF
:1032100000010001800080004000400060002000AC
:10322000200010001000080008000C000400060038
:103230000200000000000000000000000000F0009C
:1032400098010C030C03060606060606060606068B
:103250000606060606060C030C039801F0000000A3
:10326000000000000000000000000000000040001E
:103270007C00600060006000600060006000600032
:10328000600060006000600060006000FC030000FF
:103290000000000000000000000000000000F80036
:1032A0008401020306030603000300018001C0003D
:1032B000600020001000080204020602FE03000065
:1032C0000000000000000000000000000000780086
:1032D000C6008601860180018001C0007000800167
:1032E000000100030003060306038601F800000046
:1032F000000000000000000000000000000080014D
:103300008001C001A001A001900188018801840111
:103310008201FE0F8001800180018001E007000032
:103320000000000000000000000000000000FC039E
:1033300004000400040004000400F4008C010403F1
:10334000000300030603060382018401F800000065
:103350000000000000000000000000000000E0018C
:1033600018030C030C0004000600E60116030E0609
:1033700006060606060604060C021803F000000006
:103380000000000000000000000000000000F8073E
:103390000C060402040100010001800080004000CE
:1033A00040004000600060006000600060000000BD
:1033B0000000000000000000000000000000F80114
:1033C0000C030606060606060C021C03F000C801E4
:1033D0000C0306060606060606060C03F0010000AE
:1033E0000000000000000000000000000000F000ED
:1033F0000C010C03060206060606060606078C06E6
:1034000078060006000300030C018C017800000020
:1034100000000000000000000000000000000000AC
:103420000000000000000000E000E000E0000000FC
:103430000000000000000000E000E000E0000000EC
:10344000000000000000000000000000000000007C
:1034500000000000000000006000600000000000AC
:10346000000000000000000000006000600040005C
:103470002000200000000000000000000004000206
:103480000001800040002000100008000400080037
:103490001000200040008000000100020004000035
:1034A000000000000000000000000000000000001C
:1034B0000000000000000000FE0700000000000007
:1034C000FE070000000000000000000000000000F7
:1034D00000000000000000000000000004000800E0
:1034E00010002000400080000001000200040002E3
:1034F00000018000400020001000080004000000CF
:103500000000000000000000000000000000E003D8
:103510001806040C040C0C0C0C0C00078001400075
:103520004000400000000000E000E000E00000007B
:10353000000000000000000000000000E000180390
:103540000C02CC0564056605A605B604B604B604EF
:10355000B604B602E4010C040C021803F0000000EB
:1035600000000000000000000000000000006000FB
:1035700060005000D0009000900088008801080191
:10358000F801040304030402020202060F0F000004
:103590000000000000000000000000000000FE002D
:1035A0008C030C030C030C030C038C01FC000C03B8
:1035B0000C020C060C060C060C060C03FE010000A7
:1035C0000000000000000000000000000000E00318
:1035D00018030C060C04040406000600060006008E
:1035E0000600060006040C040C021803F00000009C
:1035F00000000000000000000000000000007F004C
:103600008C010C030C030C060C060C060C060C06B5
:103610000C060C060C060C030C038C017F0000004A
:103620000000000000000000000000000000FF0398
:10363000060306040604060086008600FE008600D7
:10364000860086000600060406040602FF0300004A
:103650000000000000000000000000000000FF0368
:10366000060306040604060086008600FE008600A7
:103670008600860006000600060006001F00000007
:103680000000000000000000000000000000F0004A
:1036900018010C020C0204020600060006000600D7
:1036A000C60F060306030C030C031803F00000000A
:1036B00000000000000000000000000000000F0FEC
:1036C000060606060606060606060606FE070606A1
:1036D0000606060606060606060606060F0F000084
:1036E0000000000000000000000000000000FC03DB
:1036F00060006000600060006000600060006000CA
:10370000600060006000600060006000FC0300007A
:103710000000000000000000000000000000F807AA
:10372000C000C000C000C000C000C000C000C00099
:10373000C000C000C000C000C000C000C000C60083
:1037400066003C0000000000000000000000CF0305
:103750008601C60046002600160036002E006E00C8
:103760004600C60086008601060106038F0700009A
:1037700000000000000000000000000000001F002A
:103780000600060006000600060006000600060009
:10379000060006000600060406040602FF030000F9
:1037A000000000000000000000000000000007070B
:1037B000860386038E038E034E034E034A035A0389
:1037C0005A033A033203320332031203870700001D
:1037D00000000000000000000000000000008E0F4C
:1037E0000C021C021C023402340264026402440211
:1037F000C402840284038403040304031F02000040
:103800000000000000000000000000000000F000C8
:1038100098010C030C0206060606060606060606B6
:103820000606060606060C020C039801F0000000CE
:103830000000000000000000000000000000FF0089
:103840000603060606060606060606068603FE00AC
:103850000600060006000600060006001F00000025
:103860000000000000000000000000000000F00068
:1038700098010C030C020606060606060606060656
:103880000606060676064C02CC039801F000800777
:103890000003000000000000000000000000FF0125
:1038A000060306060606060606060603FE00460092
:1038B000C600860086010603060306060F0E0000FA
:1038C0000000000000000000000000000000F802FE
:1038D0000C030602060206000E003C00F800E0039E
:1038E000800300070206020606060C03F001000032
:1038F0000000000000000000000000000000FE07C3
:10390000620461086108600060006000600060009F
:10391000600060006000600060006000F80100006E
:1039200000000000000000000000000000001E0772
:103930000C020C020C020C020C020C020C020C0217
:103940000C020C020C020C020C021801F000000028
:1039500000000000000000000000000000000F0751
:103960000602040104010C010C0188008800980083
:10397000980050005000700030002000200000002F
:103980000000000000000000000000000000F70E32
:10399000620442044604460464026402E402E4024F
:1039A0009C029C0198019801880188008800000011
:1039B00000000000000000000000000000009E0762
:1039C0000C01080118019000B000600020006000A8
:1039D0006000D00090008801080104038E070000F9
:1039E00000000000000000000000000000000F0FB9
:1039F000060404020C0208011801B800B0007000AF
:103A0000600060006000600060006000F80100007D
:103A10000000000000000000000000000000FC07A3
:103A20000C020603020180018000400040002000DB
:103A300020001000180008040C040402FE0300001B
:103A40000000000000000000E00320002000200033
:103A50002000200020002000200020002000200066
:103A60002000200020002000200020002000200056
:103A7000E00300000000000000000000040004005B
:103A80000800080010001000100020002000400076
:103A90004000C00080008000000100010002000220
:103AA00000020004000000007C00400040004000D4
:103AB0004000400040004000400040004000400006
:103AC00040004000400040004000400040004000F6
:103AD0007C00000000006000900008010000000071
:103AE00000000000000000000000000000000000D6
:103AF00000000000000000000000000000000000C6
:103B000000000000000000000000000000000000B5
:103B100000000000000000000000000000000000A5
:103B20000000000000000000000000000000000095
:103B30000000FF0F000000001800600000000000FF
:103B40000000000000000000000000000000000075
:103B50000000000000000000000000000000000065
:103B60000000000000000000000000000000000055
:103B70000000000000000000F0010C030C03000333
:103B8000E0031C030E03060306038E0B7C0E0000ED
:103B900000000000000000000000000008000E000F
:103BA0000C000C000C000C00CC013C031C060C06A5
:103BB0000C060C060C060C060C021C03E4010000AB
:103BC00000000000000000000000000000000000F5
:103BD0000000000000000000F0008C018C01860154
:103BE00006000600060006020C020C01F0000000B0
:103BF0000000000000000000000000000002C00300
:103C0000000300030003000378038C030C03060386
:103C1000060306030603060304038C07780100006D
:103C20000000000000000000000000000000000094
:103C30000000000000000000E001180308020C066C
:103C40000C06FC070C000C0018041802E001000030
:103C50000000000000000000000000000000C003A1
:103C60006006300630003000FE01300030003000C9
:103C7000300030003000300030003000FC01000027
:103C80000000000000000000000000000000000034
:103C90000000000000000000F007D8068C018C0135
:103CA0008C019801F8000C00FC00CC03060306030D
:103CB0008E03F800000000000000000008000E0065
:103CC0000C000C000C000C00EC011C030C030C039A
:103CD0000C030C030C030C030C030C039E070000E5
:103CE0000000000000000000000000000000600074
:103CF00060000000000040007C0060006000600088
:103D0000600060006000600060006000FC03000074
:103D10000000000000000000000000000000C001E2
:103D2000C001000000000001F0018001800180015D
:103D3000800180018001800180018001800180017B
:103D4000CC007C00000000000000000008000E0015
:103D50000C000C000C000C008C038C008C004C0040
:103D60006C005C008C008C010C010C039E070000B1
:103D700000000000000000000000000040007C0087
:103D80006000600060006000600060006000600033
:103D9000600060006000600060006000FC030000E4
:103DA0000000000000000000000000000000000013
:103DB00000000000000000003707EE0666066606F9
:103DC000660666066606660666066606FF0F00005D
:103DD00000000000000000000000000000000000E3
:103DE0000000000000000000EE011C030C030C03A7
:103DF0000C030C030C030C030C030C039E070000C4
:103E000000000000000000000000000000000000B2
:103E10000000000000000000F00098010C030606FE
:103E200006060606060606060C030C03F000000054
:103E30000000000000000000000000000000000082
:103E40000000000000000000EE011C030C060C0640
:103E50000C060C060C060C060C031C03EC010C00F3
:103E60000C003E0000000000000000000000000008
:103E7000000000000000000078028C030C03060321
:103E8000060306030603060304038C0378030003FA
:103E90000003C00700000000000000000000000058
:103EA00000000000000000009F03580638061800BC
:103EB000180018001800180018001800FF00000073
:103EC00000000000000000000000000000000000F2
:103ED0000000000000000000F0031C030C020C02B4
:103EE0003800F000C003040304038C03FC0100004D
:103EF00000000000000000000000000000000000C2
:103F00002000200030003000FE0130003000300082
:103F1000300030003000300030023002E00100009C
:103F20000000000000000000000000000000000091
:103F300000000000000008028E030C030C030C03B9
:103F40000C030C030C030C030C039C07780100000A
:103F50000000000000000000000000000000000061
:103F600000000000000000001E070C02080108010C
:103F700018019000B000B000600060002000000058
:103F80000000000000000000000000000000000031
:103F90000000000000000000F70E62044604640206
:103FA0006402EC029C01980198019801080000004D
:103FB0000000000000000000000000000000000001
:103FC0000000000000000000BC0718011001B00054
:103FD00060006000E0009000080108039E070000F8
:103FE00000000000000000000000000000000000D1
:103FF00000000000000000009E0708010801080101
:1040000090009000B0006000600060002000200080
:1040100024001C0000000000000000000000000060
:104020000000000000000000FC018401C400440006
:10403000600020003000180208020C03FC010000A0
:1040400000000000000000000003800080008000ED
:104050008000800080008000800040002000400040
:104060008000800080008000800080008000800050
:1040700000030000400040004000400040004000BD
:104080004000400040004000400040004000400030
:104090004000400040004000400040004000400020
:1040A00040004000000000000C0010001000100054
:1040B0001000100010001000100020004000200030
:1040C0001000100010001000100010001000100070
:1040D0000C00000000001C002204C2048003000049
:1040E00000000000000000000000000000000000D0
:1040F00000000000000000000000000000000000C0
:1041000000000000000000000000000000000000AF
:10411000000000000000000000000000000000009F
:10412000000000000000000000000000000000008F
:10413000000000000000000000000000000000007F
:104140000000000000000000000000000000C001AE
:10415000C001C001C001C001C001C00180008000D9
:1041600080008000800080008000000000000000CF
:1041700000008001C003C0038001000000000000B7
:1041800000000000000000000000E01CE01CF01E29
:10419000700E3807180308018400000000000000BA
:1041A000000000000000000000000000000000000F
:1041B00000000000000000000000000000000000FF
:1041C00000000000000000000000000000000000EF
:1041D00020102010201020102010FE7FFE7F1008DD
:1041E000100810081008100810081008FE7FFE7F45
:1041F0000804080408040804080400000000000083
:1042000000000000000000000000000000010001AC
:10421000C007601910311831183918393801700188
:10422000E001C0038007000F001D003900311C3180
:104230001C310C310C11180DE007000100010001C8
:10424000000000000000000000000000000000006E
:104250001C1036186308630C630463046302630272
:104260006301361D9C378022806340634063206376
:104270002063306310221836081C00000000000084
:10428000000000000000000000000000000000002E
:10429000F00098018C018C018C018C018C00CC0009
:1042A0007800183E1C083608320863046304C3040F
:1042B000C303834306438E26781C000000000000E1
:1042C000000000000000000000001C003C003C005A
:1042D0003000300010000C0006000000000000005C
:1042E00000000000000000000000000000000000CE
:1042F00000000000000000000000000000000000BE
:10430000000000000000000000000040002000103D
:104310000008000C000400060003000300038001F5
:104320008001800180018001800180018001000303
:104330000003000300060006000C00080010002027
:10434000004000000000000000000200040008001F
:104350001000300020006000C000C000C0008001DC
:104360008001800180018001800180018001C00006
:10437000C000C000600060003000100008000400B1
:10438000020000000000000000000000000000002B
:104390000000000000018003800300011C713C79D3
:1043A000783DC0070001C007783D3C791C710001D1
:1043B0008003800380010000000000000000000076
:1043C00000000000000000000000000000000000ED
:1043D00000000000000000010001000100010001D8
:1043E00000010001FC7F000100010001000100014B
:1043F00000010001000000000000000000000000BB
:1044000000000000000000000000000000000000AC
:10441000000000000000000000000000000000009C
:10442000000000000000000000000000000000008C
:10443000000000001C003C003C0030003000100078
:104440000C0006000000000000000000000000005A
:10445000000000000000000000000000000000005C
:1044600000000000FE7F00000000000000000000CF
:10447000000000000000000000000000000000003C
:10448000000000000000000000000000000000002C
:10449000000000000000000000000000000000001C
:1044A000000000000000000000000000000000000C
:1044B000000018003C003C00180000000000000054
:1044C000000000000000000000000040006000202C
:1044D0000030001000180008000C00040006000264
:1044E0000003000180018000C00040006000200047
:1044F00030001000180008000C0004000600020044
:1045000000000000000000000000000000000000AB
:10451000C007600C30181830183018200C600C6080
:104520000C600C600C600C600C600C600C6018205F
:10453000183018303018600CC00700000000000070
:10454000000000000000000000000000000000006B
:1045500000018001F801800180018001800180015B
:104560008001800180018001800180018001800143
:10457000800180018001C003F81F000000000000DE
:10458000000000000000000000000000000000002B
:10459000E007101C0818043004300C300C300030D8
:1045A00000180008000400020001800040002020E4
:1045B000102008200430FC1FFC1F00000000000039
:1045C00000000000000000000000000000000000EB
:1045D000E003180E0C0C0C180C180C180018000C2A
:1045E0000006C003000E00180010003000300C3030
:1045F0000C300C100C18180CE00300000000000038
:1046000000000000000000000000000000000000AA
:10461000000C000E000E000F800E800E400E600E8B
:10462000200E100E100E080E040E040EFE7F000E5B
:10463000000E000E000E000E000EC07F00000000F5
:10464000000000000000000000000000000000006A
:10465000F03FF03F10001000100008000800C807ED
:10466000280C1818081000300030003000300C30D2
:104670000C3004180418080CF003000000000000BF
:10468000000000000000000000000000000000002A
:10469000800FC010203010301800180008000C00E7
:1046A0008C0F6C183C301C600C600C600C600C6053
:1046B0001860182030306018C007000000000000AB
:1046C00000000000000000000000000000000000EA
:1046D000F83FF83F1C100C08040804040004000212
:1046E0000002000100010001800080008000C00085
:1046F000C000C000C000C000C000000000000000FA
:1047000000000000000000000000000000000000A9
:10471000E007300C18180C300C300C301C303818F6
:104720007008E007B007180E0C1C0638063006307B
:10473000063006300C18180CE003000000000000E2
:104740000000000000000000000000000000000069
:10475000E00318040C080C1806100630063006306A
:10476000063006380C3C1836F031003000180018BE
:1047700000180C0C0C060C03F001000000000000F7
:104780000000000000000000000000000000000029
:104790000000000000000000000000000000800198
:1047A000C003C00380010000000000000000000002
:1047B00000008001C003C003800100000000000071
:1047C00000000000000000000000000000000000E9
:1047D0000000000000000000000000000000C00019
:1047E000C000000000000000000000000000000009
:1047F000000000000000C000C000800080004000F9
:104800004000000000000000000000000000002048
:10481000001000080004000600038001C0006000D2
:10482000300018000C00180030006000C00080014B
:104830000003000600040008001000200000000033
:104840000000000000000000000000000000000068
:104850000000000000000000000000000000FE7FDB
:1048600000000000000000000000FE7F00000000CB
:104870000000000000000000000000000000000038
:104880000000000000000000000000000000040024
:104890000800100020006000C00080010003000636
:1048A000000C001800300018000C00060003800106
:1048B000C00060002000100008000400000000009C
:1048C0000000000000000000000000000000C00721
:1048D0003018083008600C601C601C601C600030E0
:1048E000001C0006000180008000800080000000A5
:1048F00000008001C003C003800100000000000030
:1049000000000000000000000000000000000000A7
:10491000C0076018103018200C2F8C4D864CC64CE8
:10492000C64C664C66446644662666266615CC1CF4
:104930000C40082018303018C007000000000000AC
:104940000000000000000000000000000000000166
:10495000C001C001C0014001600320032003200307
:104960003006100610061006F80F080C080C080C8C
:104970000C0C0418041806181F7C0000000000002E
:104980000000000000000000000000000000000027
:10499000FE07181C1838183018301830183018183E
:1049A000180CF807181818301820186018601860CC
:1049B0001860186018301818FE0F00000000000082
:1049C00000000000000000000000000000000000E7
:1049D000C0276038103018200C400C40040006003E
:1049E00006000600060006000600060006000C4051
:1049F0000C400C2018303018C007000000000000E8
:104A000000000000000000000000000000000000A6
:104A1000FE03180E18181830183018301860186077
:104A200018601860186018601860186018601830F6
:104A3000183018101818180EFE03000000000000AF
:104A40000000000000000000000000000000000066
:104A5000FE3F183018201860184018001808180871
:104A6000180CF80F180C180818081800180018006F
:104A70001840184018201830FE3F000000000000C9
:104A80000000000000000000000000000000000026
:104A9000FE7F1870184018C01880180018101810E1
:104AA0001818F81F181818101810180018001800F7
:104AB00018001800180018007E0000000000000018
:104AC00000000000000000000000000000000000E6
:104AD000C013701C101018100C200C2004000600CD
:104AE000060006000600060006FC063006300C3004
:104AF0000C30183018303008C007000000000000EB
:104B000000000000000000000000000000000000A5
:104B10003F7E0C180C180C180C180C180C180C18DC
:104B20000C180C18FC1F0C180C180C180C180C186E
:104B30000C180C180C180C183F7E00000000000028
:104B40000000000000000000000000000000000065
:104B5000F81F8001800180018001800180018001B7
:104B6000800180018001800180018001800180013D
:104B70008001800180018001F81F0000000000001A
:104B80000000000000000000000000000000000025
:104B9000E07F00060006000600060006000600068C
:104BA00000060006000600060006000600060006D5
:104BB0000006000600060006000600060E060E03AC
:104BC0008E01FC000000000000000000000000005A
:104BD0007E7C181818081804180618021801980185
:104BE0009801D801B803380318071806180E180CD6
:104BF000181C1818183018307EFC00000000000047
:104C000000000000000000000000000000000000A4
:104C10007E0018001800180018001800180018006E
:104C200018001800180018001800180018001800C4
:104C30001840184018201830FE3F00000000000007
:104C40000000000000000000000000000000000064
:104C50001FF81C381C381C381C3C343434343434B1
:104C6000343674326432643264326431C431C431F3
:104C7000C431C430C43084309FFC00000000000008
:104C80000000000000000000000000000000000024
:104C90001F7C1C103C103410341074106410E4108D
:104CA000C410C41184118413041304170416041EC1
:104CB000041C041C041C04181F1800000000000041
:104CC00000000000000000000000000000000000E4
:104CD000C003300C181808100C300C300660066049
:104CE00006600660066006600660066006600C20CE
:104CF0000C3008101818300CC00300000000000031
:104D000000000000000000000000000000000000A3
:104D1000FE0F1818183018601860186018601860B6
:104D200018301818F80F180018001800180018008C
:104D300018001800180018007E0000000000000095
:104D40000000000000000000000000000000000063
:104D5000C003300C18180C100C300C2006600660D4
:104D60000660066006600660066006600660E46134
:104D70002C331C321816300EC007004C007C003853
:104D80000000000000000000000000000000000023
:104D9000FE07181C1838183018301830183018183A
:104DA000180CF80798031803180718061806180EA9
:104DB000180C180C181C18187E7800000000000051
:104DC00000000000000000000000000000000000E3
:104DD000E027303818300C200C200C000C00180094
:104DE0007800E003800F001E00380070006004604F
:104DF0000460086018303818C80F00000000000078
:104E000000000000000000000000000000000000A2
:104E1000FC3F8C21846182418241800180018001BC
:104E2000800180018001800180018001800180017A
:104E30008001800180018001E00700000000000087
:104E40000000000000000000000000000000000062
:104E50003F7C0C100C100C100C100C100C100C10D3
:104E60000C100C100C100C100C100C100C100C1062
:104E70000C100C1008083804E003000000000000CB
:104E80000000000000000000000000000000000022
:104E90003EF8182018201820301030103010301034
:104EA000600860086008E00CC004C004C00480030F
:104EB0008003800380030001000100000000000067
:104EC00000000000000000000000000000000000E2
:104ED000DFF38661862186218C210C218C238C13A3
:104EE0008C138C134C1358125816580E380E380E5B
:104EF000380E300C100410041004000000000000F4
:104F000000000000000000000000000000000000A1
:104F10007E3E180838083004300470026002E00158
:104F2000C001C00180018003400340072006200625
:104F3000100C100C081808183E7C0000000000003F
:104F40000000000000000000000000000000000061
:104F50007E7C1C10181018083008300C7004600497
:104F60006002C002C002C001800180018001800196
:104F70008001800180018001E00700000000000046
:104F80000000000000000000000000000000000021
:104F9000F83F18180818040C040E00060007000358
:104FA00080038001C001C000E0006000700030009C
:104FB000382018201C100C18FE1F000000000000F4
:104FC00000000000000000000000C03F4000400062
:104FD00040004000400040004000400040004000D1
:104FE00040004000400040004000400040004000C1
:104FF0004000400040004000400040004000C03FF2
:105000000000000000000000000000000000080098
:105010001800180010003000200060006000400000
:10502000C000800080018001000100030002000632
:1050300000060004000C00080018001800100030E2
:1050400000200000000000000000FC03000200023D
:105050000002000200020002000200020002000240
:105060000002000200020002000200020002000230
:105070000002000200020002000200020002FC0323
:10508000000000000000000000008007C0062008AB
:1050900010100000000000000000000000000000F0
:1050A0000000000000000000000000000000000000
:1050B00000000000000000000000000000000000F0
:1050C00000000000000000000000000000000000E0
:1050D00000000000000000000000000000000000D0
:1050E00000000000000000000000000000000000C0
:1050F00000000000000000000000000000000000B0
:105100000000FFFF0000000000007800C000000168
:10511000000000000000000000000000000000008F
:10512000000000000000000000000000000000007F
:10513000000000000000000000000000000000006F
:10514000000000000000000000000000000000005F
:105150000000000000000000000000000000F0035C
:1051600018060C0C0C0C000C800F700C1C0C0C0C9A
:10517000060C060C064C0C4FF8380000000000002E
:10518000000000000000000000000000000010000F
:105190001E00180018001800180018001800180F3A
:1051A000D8183830386018601860186018601860B7
:1051B0001860182038307818C80700000000000078
:1051C00000000000000000000000000000000000DF
:1051D0000000000000000000000000000000C00708
:1051E000700C181818180C180C000C000C000C008F
:1051F0000C20182018103008C00700000000000024
:10520000000000000000000000000000000000108E
:10521000001E001800180018001800180018E01BE5
:10522000301C181818180C180C180C180C180C181E
:105230000C180818181C307AE00900000000000063
:10524000000000000000000000000000000000005E
:105250000000000000000000000000000000C00787
:10526000300C181808100C300C30FC3F0C000C00EF
:105270000C00182018107018C00700000000000073
:10528000000000000000000000000000000000001E
:10529000003E80C380C0C0C0C000C000C000FC1F72
:1052A000C000C000C000C000C000C000C000C000FE
:1052B000C000C000C000C000F80F000000000000E7
:1052C00000000000000000000000000000000000DE
:1052D0000000000000000000000000000000C07797
:1052E000306C10181818181818181018300CF0070F
:1052F00018001800F00FF03F08700C600C600C6094
:105300003838E00F0000000000000000000010002E
:105310001E00180018001800180018001800980F38
:10532000D818383018301830183018301830183075
:1053300018301830183018307EFC000000000000D3
:10534000000000000000000000000000000000005D
:105350008003800380030000000000000001F801CA
:105360008001800180018001800180018001800135
:105370008001800180018001F81F00000000000012
:10538000000000000000000000000000000000001D
:105390000038003800380000000000000010801FB6
:1053A000001800180018001800180018001800183D
:1053B0000018001800180018001800180018180C21
:1053C0001806F003000000000000000000001000BC
:1053D0001E00180018001800180018001800183EC9
:1053E000180C1806180318019801D801380318077B
:1053F0001806180C181C18187E7C0000000000000D
:10540000000000000000000000000000000000019B
:10541000F80180018001800180018001800180010C
:105420008001800180018001800180018001800174
:105430008001800180018001F81F00000000000051
:10544000000000000000000000000000000000005C
:105450000000000000000000000000000800EE1C3A
:105460009C338C318C318C318C318C318C318C3142
:105470008C318C318C318C31DE7B000000000000DF
:10548000000000000000000000000000000000001C
:1054900000000000000000000000000010001E0FCF
:1054A000D8183830183018301830183018301830F4
:1054B00018301830183018307EFC00000000000052
:1054C00000000000000000000000000000000000DC
:1054D0000000000000000000000000000000C00705
:1054E000701C103018300C600C600C600C600C608C
:1054F0000C60183018303018C007000000000000A1
:10550000000000000000000000000000000000009B
:1055100000000000000000000000000010009E0FCE
:105520005818383018201860186018601860186013
:1055300018601830383078189807180018001800CC
:1055400018007E00000000000000000000000000C5
:105550000000000000000000000000000000C02368
:10556000303C183818300C300C300C300C300C300B
:105570000C3008301838303CE03300300030003058
:10558000003000FC000000000000000000000000EF
:1055900000000000000000000000000060007E3CF1
:1055A00060666061E000E000600060006000600034
:1055B0006000600060006000FE0700000000000066
:1055C00000000000000000000000000000000000DB
:1055D0000000000000000000000000000000E027C4
:1055E00030381830182018007000E003800F001CBD
:1055F000043004300C301C18EC0F000000000000D8
:10560000000000000000000000000000000000009A
:1056100000000000800080008000C000E000FC1F4F
:10562000C000C000C000C000C000C000C000C0007A
:10563000C000C020C0208011000F0000000000004A
:10564000000000000000000000000000000000005A
:1056500000000000000000000000000010201E3CC0
:1056600018301830183018301830183018301830FA
:1056700018301830183830F4E01300000000000033
:10568000000000000000000000000000000000001A
:1056900000000000000000000000000000007E3C50
:1056A00018181808380830043004700260026002CC
:1056B000E001C001C001C000800000000000000047
:1056C00000000000000000000000000000000000DA
:1056D0000000000000000000000000000000DFF7F4
:1056E0008E630C238C238C2398139813581658160A
:1056F000700E700E700E20042004000000000000E8
:105700000000000000000000000000000000000099
:105710000000000000000000000000000000FC3E4F
:1057200070087004E004C002C001800380034007D9
:105730006006200C100C18183E7E000000000000CF
:105740000000000000000000000000000000000059
:1057500000000000000000000000000000007E7C4F
:105760001818180830083008300460046004C002BB
:10577000C002C002800180018001800080008000A2
:105780004C003C0000000000000000000000000091
:105790000000000000000000000000000000FC1FEE
:1057A0000C0C040E0406000380038001C000E0001E
:1057B0007020302038301C18FC1F00000000000052
:1057C000000000000000000000000030000800049D
:1057D00000040004000400040004000400040004A9
:1057E0000004000280010002000400040004000420
:1057F0000004000400040004000400040004000885
:105800000030000000010001000100010001000162
:105810000001000100010001000100010001000180
:105820000001000100010001000100010001000170
:105830000001000100010001000100010001000160
:10584000000100010000000000000C00100020001A
:105850002000200020002000200020002000200048
:105860002000400080014000200020002000200097
:105870002000200020002000200020002000100038
:105880000C00000000003800C400864002610022C5
:10589000001C0000000000000000000000000000EC
:1058A00000000000000000000000000000000000F8
:1058B00000000000000000000000000000000000E8
:1058C00000000000D6D0200020002000FE032202AD
:1058D00022022202FE032202200020002000BEB08D
:1058E000FC010401FC010401FC012000FF0704018C
:1058F000FC01200024013202D4B0FE070204FA04A5
:1059000002040204FE05520452044A0586050204FC
:10591000FE07B5E710001000FF0111011101FF01A2
:1059200011011101FF0111041004E007D7D3000099
:10593000FC018000400020002000FF072000200024
:10594000200020003800D6D0800080008000800039
:10595000FC1F84108410841084108410FC1F841099
:105960008000800080008000BEB0F80F0808F80FAB
:105970000808F80F8000FF7F0000F80F08080808EB
:10598000F80F80008410A2204000D4B00000FE3F39
:105990000220F22702200220FA2F22212221222196
:1059A000122912290A2E0220FE3F0220B5E78000AC
:1059B00080008000FC1F841084108410FC1F841061
:1059C00084108410FC1F845080408040007FD7D317
:1059D0000000FE1F00080004000280018000FF7F1D
:1059E000800080008000800080008000A0004000D7
:1059F000D6D00000000000000018000008000008D9
:105A000000000800080818F8FF1F180818180818E0
:105A1000180818180818180818180818F8FF1F0888
:105A2000080800080000080000080000080000182E
:105A300000001800001800000000BEB000000000C8
:105A40000000400006C0FF07400006C0FF074000FE
:105A500006C0FF07400802003000FEFF3F000000C4
:105A6000C0FF07C00002C00002C00002C0FF0380E8
:105A7000100080110160100E3010180C1E30001C38
:105A800000000000D4B0000000000000080030F862
:105A9000FF1F08001008C010083F10080010080081
:105AA00010080013C8FF1008221008221008221046
:105AB00008221008211208211488601648C01328F3
:105AC0000010080010F8FF1F080010000000B5E7E4
:105AD000000000000000001800000800000800009E
:105AE0000800F0FF0F100804100804100804100844
:105AF00004F0FF071008041008041008041008043C
:105B0000F0FF07100800000810000810000820002F
:105B1000183000F01F000000D7D300000000000084
:105B2000000004F0FF0F00000600000100C00000AC
:105B30002800001800001800001830FEFF7F001831
:105B400000001800001800001800001800001800DD
:105B5000001800001800001800001F00000C0000D2
:105B60000000D6D00000000000000000008000000F
:105B70000080010000800100008001000080010021
:105B8000008001001080010CF0FFFF0F3080010445
:105B90003080010430800104308001043080010431
:105BA000308001043080010430800104F0FFFF07E1
:105BB0003080010430800104008001000080010079
:105BC00000800100008001000080010000800100D1
:105BD00000800100008001000080010000800000C2
:105BE00000000000BEB00000000000000000000047
:105BF00000000001800100FFFF010003800100039D
:105C0000800100FFFF01000380010003800100FF0D
:105C1000FF0100818100000003000000031CFCFF65
:105C2000FF3F000040000003C00100FFFF01000330
:105C3000C0000003C0000003C00000FFFF0000011F
:105C4000410000040100000E710000078101800185
:105C500001076000010E1898011C04E0011800C043
:105C6000000000000000D4B00000000000000000B0
:105C700000000008F0FFFF1F3000000C3000000C97
:105C80003000100C30FE3F0C3004000C3000000CD3
:105C90003000000C3000000C3000C00CF0FFFF0D95
:105CA0003030060E3030060C3010060C3010060C6A
:105CB0003010060C3018860C3018860C3008060D93
:105CC000300C860D3006EE0F3002FC0D3001000C5A
:105CD000F000000C3000000CF0FFFF0F3000000C53
:105CE0001000000400000000B5E700000000000004
:105CF000000000C0000000C0010000C0000000C0A3
:105D0000000000C0000000C00000E0FFFF0360C012
:105D1000000360C0000360C0000360C0000360C0F7
:105D2000000360C00003E0FFFF0360C0000360C029
:105D3000000360C0000360C0000360C00003E0FF18
:105D4000FF0360C0000160C0000000C0000800C088
:105D5000001000C0001000C0001800C00138008012
:105D6000FF1F0000000000000000D7D3000000006B
:105D7000000000000000000000000003C0FFFF075B
:105D8000000080070000C000000060000000180054
:105D900000000C0000800300008003000080010070
:105DA000008001080080011CFCFFFF3F0080010013
:105DB00000800100008001000080010000800100DF
:105DC00000800100008001000080010000800100CF
:105DD00000800100008001000080010000FC010043
:105DE00000E0000000400000000000000C5E000821
:105DF00000000020240000003C040008305E000881
:105E000024000020080000005804000800127A0056
:105E100000127A0000127A0000127A00E1040008F1
:105E200099050008000000000000000000000000CC
:0400000508000401EA
:00000001FF
