:020000040800F2
:100000000009002045010008DB13000879110008F1
:10001000D9130008B101000895180008000000007D
:100020000000000000000000000000007116000841
:10003000B301000800000000A114000873160008B6
:100040005F0100085F0100085F0100085F01000810
:100050005F0100085F0100085F0100085F01000800
:100060005F0100085F0100085F0100085F010008F0
:100070005F0100085F0100085F0100085F010008E0
:100080005F0100085F0100085F0100085F010008D0
:100090005F0100085F0100085F0100085F010008C0
:1000A0005F0100085F0100085F0100085F010008B0
:1000B0005F010008D91600085F0100085F01000811
:1000C0005F0100085F0100085F0100085F01000890
:1000D0005F0100085F0100085F0100085F01000880
:1000E0005F0100085F0100085F0100085F01000870
:1000F0005F0100085F0100085F0100085F01000860
:100100005F0100085F0100085F0100085F0100084F
:100110005F0100085F0100085F0100085F0100083F
:100120005F0100085F0100085F0100085F0100082F
:10013000DFF80CD000F02AF800480047D518000876
:10014000000900200648804706480047FEE7FEE712
:10015000FEE7FEE7FEE7FEE7FEE7FEE7FEE7FEE777
:10016000D516000831010008D2B201E000F8012BD9
:10017000491EFBD270470022F6E710B513460A4627
:1001800004461946FFF7F0FF204610BD064C074D08
:1001900006E0E06840F0010394E807009847103457
:1001A000AC42F6D3FFF7C8FF5019000870190008D9
:1001B000FEE7704772B6FEE770B5044600F018F926
:1001C0000546601C02D004480078044400F010F991
:1001D000401BA042FAD370BD000000202DE9F84F6B
:1001E000DFF8C8910024A9F1040B23460F2709F179
:1001F000040AABF1040ED1E00125A54006EA050290
:10020000AA4276D1DFF8A8C14E68A6EB0C08664575
:100210002BD00DDC032E34D005DC36B3012E19D0E3
:10022000022E2FD11BE0112E16D0122E2AD119E04A
:10023000B8F5881F19D006DCB8F5803F15D0B8F5A1
:10024000801F1FD111E0B8F5001F0ED0B8F5041FB4
:1002500018D10AE0CB6815E0CB681B1D12E0CB6813
:1002600008330FE0CB680C330CE08B682BB1012B0B
:100270004FF0080303D0456104E0042302E0056168
:1002800000E00023FF2A01D8064601E000F1040641
:100290004FEA840501D9A5F12005D6F8008007FAB8
:1002A00005FC28EA0C0803FA05F548EA0508C6F833
:1002B00000804D68ED0070D53E4DAE6946F00106F8
:1002C000AE61AD6924F0030605F0010500953A4DD5
:1002D00006EB050CDCF80850A607360F07FA06F8FF
:1002E00025EA0805DFF8D480404503D14FF0000827
:1002F00025E052E0DFF8C880404502D14FF0010808
:100300001DE0DFF8C080404502D14FF0020816E042
:10031000DFF8B480404502D14FF003080FE0DFF86A
:10032000AC80404502D14FF0040808E0DFF8A0801F
:10033000404502D14FF0050801E04FF0060808FAE9
:1003400006F848EA0508CCF808804D68D9F800603E
:10035000ED024D4601D5164300E096432E604D68F0
:10036000DAF80060AD02554601D5164300E0964329
:100370002E604D68DBF80060AD035D4601D5164385
:1003800000E096432E604D68DEF80060ED03754690
:1003900001D5164300E096432E60641C0A68164699
:1003A000E2407FF429AFBDE8F88F00000804014067
:1003B0000000111000100240000001400008014040
:1003C000000C0140001001400014014000180140E1
:1003D000001C0140C26821EA02030A4043EA0241CC
:1003E000016170470AB1016170470904FBE7000031
:1003F00001488068704700000000002002488168C2
:10040000027811448160704700000020074810B551
:10041000016841F010010160032000F075F80F2021
:1004200000F006F800F024F8002010BD0020024083
:1004300070B50D4D04464FF47A712878B1FBF0F099
:100440000A490968B1FBF0F000F065FC48B9102CCE
:1004500007D200222146501E00F036F800206C60C2
:1004600070BD012070BD0000000000200C000020C5
:100470000C4808B5816941F001018161816901F091
:1004800001010091C16941F08051C161C06900F072
:10049000805000900448416821F0E06141F0007113
:1004A000416008BD0010024000000140002809DB47
:1004B00000F01F02012191404009800000F1E0207E
:1004C000C0F8001170470000F0B40E4B1B680C46DA
:1004D000C3F30223C3F10705042D00D90425191D18
:1004E000072901D2002300E0DB1E012606FA05F1F0
:1004F000491E214099409E40761E16403143F0BC73
:1005000001F0C9B90CED00E0064900F007020868E7
:100510004FF6FF03184040EA0220034A10430860E8
:10052000704700000CED00E00000FA052DE9F047EF
:100530000F46050061D0434E306800F00700B84216
:1005400009D2306820F0070038433060306800F08E
:100550000700B84251D128683B4C810712D54007AB
:1005600003D5606840F4E06060602878000703D538
:10057000606840F4605060606068A96820F0F00036
:10058000084360602878C00728D06868012810D028
:100590002168022810D0890700292EDA616821F02D
:1005A000030101436160FFF723FF804641F2883970
:1005B0000DE021688903EFE78901EDE7FFF718FFF8
:1005C000A0EB0801494502D90320BDE8F087606827
:1005D000696800F00C00B0EB810FEFD1306800F0DB
:1005E0000700B8420BD9306820F00700384330606C
:1005F000306800F00700B84201D00120E5E7287814
:10060000400705D56068E96820F4E0600843606051
:100610002878000706D56068296920F4605040EA10
:10062000C100606000F038F86168084AC1F3031146
:10063000515CC8400649086006480068FFF7F8FEAC
:100640000020C2E7002002400010024036190008D6
:100650000C00002004000020044805490068496897
:10066000044AC1F30221515CC84070470C000020CD
:10067000001002404619000804480549006849680E
:10068000044AC1F3C221515CC84070470C000020ED
:1006900000100240461900080E4A51680E4801F049
:1006A0000C03042B11D0082B0FD10C48C1F383434A
:1006B000C903C05C0AD55168084AC1F34041921E83
:1006C000515C054A5043B0FBF1F070470449484380
:1006D000704700000010024000127A00261900083E
:1006E00000093D002DE9F84F040070D02078C04D7E
:1006F000C00749D06868C0F38100012807D0686846
:10070000C0F38100022809D16868C00306D52868B3
:10071000800339D560680028E7D035E06068B0F51F
:10072000803F0BD010B1B0F5A02F11D0286820F475
:1007300080302860286820F4802002E0286840F497
:1007400080302860606890B1FFF752FE06460AE0EC
:10075000286840F480202860F0E700BFFFF748FEDB
:10076000801B642873D828688003F7D50CE0FFF756
:100770003FFE064605E000BFFFF73AFE801B6428F7
:10078000F0D828688003F7D420789A4E80074FF07D
:1007900001094FF0000839D5686810F00C0F07D038
:1007A0006868C0F38100022809D16868C00306D4D4
:1007B0002868800714D52069012808D110E0206935
:1007C000B0B1C6F80090FFF713FE074605E00AE156
:1007D000FFF70EFEC01B0228C4D828688007F7D593
:1007E0002868616920F0F80040EAC10028600DE047
:1007F000C6F80080FFF7FCFD074604E0FFF7F8FDB0
:10080000C01B022823D828688007F7D42078000767
:100810002CD57948A169D9B1C0F80090FFF7E8FD5F
:10082000074604E0FFF7E4FDC01B02280FD8686A02
:100830008007F7D571484FF4FA510068B0FBF1F02A
:10084000009000BF0098411E0091FAD20EE080E0B7
:10085000C0F80080FFF7CCFD074604E0FFF7C8FDB5
:10086000C01B022875D8686A8007F7D42078400733
:1008700060D5E8690027C00008D4E86940F08050DE
:10088000E861E869012700F0805000905C48016849
:10089000C90513D40168834641F480710160FFF7F4
:1008A000A7FD824606E000BFFFF7A2FDA0EB0A000D
:1008B00064284ED8DBF80000C005F5D5E0680128B3
:1008C0000AD008B1052813D0286A20F00100286258
:1008D000286A20F0040002E0286A40F00100286243
:1008E000E06841F2883B98B1FFF782FD82460BE059
:1008F000286A40F004002862EEE700BFFFF778FDA9
:10090000A0EB0A0159455AD8286A8007F6D50CE0B1
:10091000FFF76EFD824605E0FFF76AFDA0EB0A01D6
:1009200059454CD8286A8007F6D41FB1E86920F0F1
:100930008050E861E06988B36968C1F381010229E8
:1009400044D00228C6F8608004D0FFF751FD044669
:1009500038E034E0FFF74CFD074604E0FFF748FDC0
:10096000C01B02282BD828688001F7D4206AB0F574
:10097000803F05D16868A16820F4003008436860B2
:10098000D4E908010843696821F4741108436860D8
:10099000C6F86090FFF72CFD044606E025E000BF96
:1009A000FFF726FD001B022809D828688001F7D52B
:1009B0001BE000BFFFF71CFD001B022802D903202B
:1009C000BDE8F88F28688001F4D40EE00128F7D044
:1009D0006868226A00F48031914204D1616A00F4AF
:1009E0007010884201D00120EAE70020E8E700000B
:1009F0000010024000004242800442420C000020ED
:100A00000070004070B5040009D0606A002540B154
:100A100025616561A56294F8510040B10CE00120A8
:100A200070BD6068B0F5827FF4D0E561F2E784F8CC
:100A30005050204600F040F8022084F85100206811
:100A4000016821F040010160A088218900F48270D2
:100A500001F404410843A18901F400610843217CA9
:100A600001F002010843217D01F001010843218BBF
:100A700001F400710843217F01F03801084394F824
:100A8000201001F080010843218D01F4005108433A
:100A900021680860A069042101EA104021684860CB
:100AA0002068C16921F40061C1616565012084F895
:100AB0005100002070BD000030B585B000240094C6
:100AC00001940294039400681449884223D1144885
:100AD000816941F480518161816901F480510491FF
:100AE000816941F00401816180690E4D00F00400CC
:100AF0000490A020009002200190032003906946FA
:100B00002846FFF76BFB4020CDE9000469462846E4
:100B10000294FFF763FB05B030BD000000300140D8
:100B200000100240000801402DE9FF4F81B004464B
:100B300090F8500000260E9F1D4693464FF0010985
:100B400001280FD04FF0010A84F850A0FFF750FCA5
:100B5000804694F85100616801280DD0B1F5827F7C
:100B600008D103E0022005B0BDE8F08FA16809B903
:100B7000042801D00226C9E00298002865D0BBF104
:100B8000000FFBD0002DF9D094F85100042802D0BA
:100B9000052084F8510000206065C4F838B0E5876E
:100BA000A58702992163E586A58620646064206894
:100BB0000168490603D4016841F040010160E06822
:100BC000B0F5006F606803D0F0B3012D47D081E02D
:100BD00008B1012D3CD1206B21680088C860206BD2
:100BE000801C2063E08E401EE08631E02068816832
:100BF00089070FD5E18E69B1B9F1010F0AD1216BD7
:100C00000988C160206B801C2063E08E401EE08656
:100C10004FF0000920688168C9070CD0E18F51B1FD
:100C2000C068A16B0880A06B801CA063E08F401E91
:100C3000E0874FF00109FFF7DBFBA0EB0800B842AB
:100C400006D3781C04D001E009E05BE003265BE0FA
:100C5000E08E0028CAD1E08F0028C7D140E0206B89
:100C6000216800780873206B401C2063E08E401ED2
:100C7000E0862FE02068816889070FD5E18E69B191
:100C8000B9F1010F0AD1216B09780173206B401C67
:100C90002063E08E401EE0864FF0000920688168E6
:100CA000C9070CD0E18F51B1C068A16B0870A06B6F
:100CB000401CA063E08F401EE0874FF00109FFF762
:100CC00097FBA0EB0800B84202D3781C02D0BAE729
:100CD000002FB8D0E08E0028CCD1E08F0028C9D1F9
:100CE00042463946204600F045FC18B10126202036
:100CF00060650BE0A06818B92068C1688068009042
:100D0000606D08B1012601E084F851A0002084F84C
:100D10005000304627E710B5401EB0F1807F01D368
:100D2000012010BD4FF0E02460610F21601700F03A
:100D3000B2FD0020A06107202061002010BD704797
:100D40007047000070B590F83C20012A2CD0012497
:100D500080F83C40022280F83D2003685A689D6874
:100D600022F070060A6832435A60104B02689A42B9
:100D70000ED00F4B9A420BD0B2F1804F08D00D4BE2
:100D80009A4205D00C4B9A4202D00C4B9A4204D1A5
:100D9000496825F080031943916080F83D400021A7
:100DA00080F83C10084670BD022070BD002C014048
:100DB000003401400004004000080040000C0040E6
:100DC00010B5040003D094F83D0010B107E00120F5
:100DD00010BD002084F83C00204600F01FF80220DF
:100DE00084F83D00211D206800F07CFC012084F87F
:100DF000460084F83E0084F83F0084F8400084F800
:100E0000410084F8420084F8430084F8440084F8E8
:100E1000450084F83D00002010BD000008B50068C2
:100E20000B49884212D10B48C16941F00201C161EE
:100E3000C069002200F00200009011461D20FFF75B
:100E400043FBBDE808401D20FFF730BB08BD000094
:100E5000000400400010024070B5044690F83C00C9
:100E60000025012817D0012684F83C60022084F870
:100E70003D002068826822F0770222F47F4282607F
:100E80000868502838D00DDC20284FD005DC90B3FE
:100E9000102811D14AE0022070BD302846D04028E9
:100EA0000AD13BE060282FD070280DD0B0F5805FCC
:100EB00003D0B0F5005F12D0012584F83D6000201A
:100EC00084F83C00284670BDCB68D1E90121206838
:100ED00000F04EFC2068816841F0770109E0CB68A2
:100EE000D1E90121206800F043FC2068816841F4C9
:100EF00080418160E1E719E0CA684968206800F034
:100F000049FC5021206806E0CA684968206800F062
:100F100052FC6021206800F035FCCEE7CA684968C1
:100F2000206800F037FC40212068F4E72268014681
:100F30001046F0E7704770B50446006801694FF04D
:100F40000005C943890715D4C168C943890711D46D
:100F5000E91E016101202077206880698007204612
:100F600002D0FFF7E7FF04E000F098F8204600F019
:100F700096F8257720680169C943490717D4C168E5
:100F8000C943490713D46FF004010161022020779F
:100F90002068806910F4407F204602D0FFF7CAFF26
:100FA00004E000F07BF8204600F079F8257720680F
:100FB0000169C943090716D4C168C943090712D496
:100FC0006FF008010161042020772068C069800764
:100FD000204602D0FFF7AEFF04E000F05FF82046A5
:100FE00000F05DF8257720680169C943C90617D468
:100FF000C168C943C90613D46FF01001016108200C
:1010000020772068C06910F4407F204602D0FFF7A7
:1010100091FF04E000F042F8204600F040F8257708
:1010200020680169C943C90708D1C168C943C90714
:1010300004D1891E0161204600F032F82068016960
:10104000C943090609D4C168C943090605D46FF02C
:10105000800101612046FFF772FE20680169C943E3
:10106000490609D4C168C943490605D46FF0400157
:101070000161204600F015F820680169C94389061E
:101080000BD4C168C943890607D46FF02001016100
:101090002046BDE87040FFF753BE70BD70477047F3
:1010A0007047704770B5040004D094F841000025E3
:1010B00010B106E0012070BD84F84050204600F0D9
:1010C00023F8242084F841002068C16821F40051ED
:1010D000C160204600F082FB2068016921F4904144
:1010E00001612068416921F02A0141612068C168DD
:1010F00041F40051C1606564202084F8410084F807
:1011000042006563002070BD30B585B000240094B6
:1011100001940294039400681449884224D114482D
:10112000816941F480418161816901F480410491C8
:10113000816941F00401816180690E4D00F0040075
:1011400004904FF40070009002200190032003905F
:1011500069462846FFF742F82815CDE9000469469C
:1011600028460294FFF73AF805B030BD0038014038
:101170000010024000080140FEE770B50C4605462D
:1011800000F018F820EA04012846BDE8704000F09D
:1011900039B8000010B5064C012210212046FFF797
:1011A00021F920460122BDE810402021FFF71AB99D
:1011B0000010014070B57E2101EA40000A4D40F068
:1011C0008004002210212846FFF70CF9204600F089
:1011D000E1F9002000F0DEF9044601221021284642
:1011E000FFF700F9204670BD0010014070B50C46B5
:1011F0000546FFF7DFFF40EA04012846BDE87040DE
:10120000AFF3008070B50E467E2101EA4004094D1F
:10121000002210212846FFF7E5F8204600F0BAF931
:10122000304600F0B7F92846BDE870400122102191
:10123000FFF7D8B8001001402DE9F04186B0002436
:1012400029480094019402940394816941F01001AB
:101250008161816901F010010491816941F02001EF
:101260008161816901F020010491816941F00401EB
:101270008161816901F004010491816941F00801F3
:1012800081618069194F00F008004FF403650490F4
:10129000002229463846FFF7A5F8DFF854800022DF
:1012A00088214046FFF79EF8009502260125039607
:1012B000CDE9015469463846FEF790FF4FF4A0503F
:1012C000CDE90004694638460294FEF787FF88207E
:1012D000CDE90005CDE9024669464046FEF77EFFAE
:1012E00006B0BDE8F081000000100240001001408F
:1012F000000C0140104810B50E4901604FF4827196
:10130000416000218160C1604FF400720161C0E959
:1013100005122022C0E90721416281620A21C162CF
:10132000FFF770FB002803D0BDE81040FEF742BF76
:1013300010BD0000003001401400002010B586B040
:1013400000241648009401940294039404941249D2
:101350000594C0E900144FF6FF71C0E90241046131
:101360008461FFF72DFD08B1FEF724FF4FF4805094
:10137000009069460948FFF76FFD08B1FEF71AFFB4
:10138000049404A905480594FFF7DCFC002801D06B
:10139000FEF710FF06B010BD000400406C000020F6
:1013A0000C4810B50A4901604FF4E1314160002159
:1013B00081600C22C160C0E904128161C161FFF744
:1013C00071FE002803D0BDE81040FEF7F3BE10BD4B
:1013D00000380140B4000020FEE7FEE7032114209E
:1013E000FFF7CBBE10B51420FFF7E4FE800705D150
:1013F0000321BDE810401420FFF7F8BE10BD10B562
:10140000FFF7C8FE00F008F8FFF7E8FFFFF7EAFF74
:10141000BDE81040AFF3008010B5204C0122202120
:101420002046FEF7DFFF0220FEF7C6FE0022202145
:101430002046FEF7D7FF0220FEF7BEFE0122202144
:101440002046FEF7CFFF0220FEF7B6FE0F21012057
:10145000FFF7D8FE0220FEF7AFFE3D211120FFF777
:10146000D1FE1E212D20FFF7CDFE00212C20FFF7FD
:10147000C9FE8D212A20FFF7C5FE3E212B20FFF754
:10148000C1FE40211520FFF7BDFEFFF7A7FF022098
:10149000FEF792FEBDE81040FFF7A4BF0010014028
:1014A000704710B5002400221146FF2000F042F8DA
:1014B000641CE4B21E2CF6D310BD000010B500224F
:1014C0004FF400610348FEF78DFFBDE81040012096
:1014D000FEF772BE0010014070B50122084DD40223
:1014E00021462846FEF77EFF0022521C282AFCDBFC
:1014F00021462846BDE870400022FEF773BF000079
:101500000010014070B50122094DD4022146284641
:10151000FEF768FF0122521C502AFCDB0022214604
:101520002846FEF75FFF0220401C2828FCDB70BD28
:101530000010014070B514460D4600F00AF8284628
:1015400000F007F8204600F004F8BDE87040FFF70F
:10155000B5BF70B504460025200602D5FFF7D2FFBF
:1015600001E0FFF7B9FF60066D1C040EEDB2082D17
:10157000F2D370BD38B50B4600920446002280219C
:1015800000F01AF8002804D0606D40F0200060657B
:10159000032038BD01B582B00A2000900123044A1F
:1015A00002A90448FFF7C0FA014800780EBD000008
:1015B00010000020140000202DE9F8431E4691463B
:1015C00088460446089DFEF713FF401B351AFEF7B8
:1015D0000FFF074625480068C0F3CB30684338E06A
:1015E000701C37D0FEF704FFC01BA84203D215B110
:1015F000009860B32CE02068416821F0E001416070
:101600006068B0F5827F0BD1A068B0F5004F02D0C2
:10161000B0F5806F04D12068016821F040010160BD
:10162000A06AB0F5005F09D12068016821F400517B
:1016300001602068016841F400510160012084F8D4
:101640005100002084F850000320BDE8F8830025F5
:10165000401E00902068816838EA010004D0002113
:101660004945BDD10020F0E70121F9E70C00002039
:101670007047FEF7C3BE30B58FB028216846FEF72D
:101680007AFD14210AA8FEF776FD01210804CDE9B0
:1016900000100024029402250491CDE907504FF474
:1016A000E01009906846FFF71DF808B172B6FEE732
:1016B0000F20CDE90A054FF48060CDE90C400221EE
:1016C0000AA80E94FEF732FF002801D072B6FEE79A
:1016D0000FB030BD704700000148FFF72CBC000080
:1016E0006C000020F0B502681C4B1D4D1D4E1E4FB6
:1016F0001E4C4FF0804C984209D0A04207D0604564
:1017000005D0A84203D0B04201D0B84204D122F0A3
:10171000700E4A6842EA0E02984209D0A04207D0F1
:10172000604505D0A84203D0B04201D0B84203D1F1
:1017300022F44075CA682A434D6922F080022A4388
:1017400002608A68C2620A688262984201D0A0423E
:1017500001D10969016301214161F0BD002C014003
:101760000004004000080040000C0040003401402C
:1017700010B5846842EA032224F47F440A432243DA
:10178000826010BD826822F070020A4342F00701B5
:101790008160704710B5036A046A24F00104046292
:1017A000846924F0F00444EA021423F00A020A4394
:1017B0008461026210BD10B5036A046A24F010044B
:1017C0000462846923F0A00324F4704444EA0232E2
:1017D00043EA01118261016210BD000070B5044648
:1017E00000680169E26821F44051114301612169F7
:1017F000A0680843616908432168CA6841F20C6324
:101800009A430243CA6020684169A26921F4407189
:10181000114341611E492068884202D1FEF72CFF26
:1018200001E0FEF719FF00EBC00101EB0012606858
:1018300064218000B2FBF0F3B3FBF1F36FF0180604
:101840007343B2FBF0F5B2FBF0F605EB83053223F0
:1018500003EB0515B5FBF1F5B6FBF1F605F0F00568
:1018600005EB0615B2FBF0F6B2FBF0F0B0FBF1F0C1
:101870006FF01802504306EB800003EB0010B0FB42
:10188000F1F0216800F00F002844886070BD00006E
:1018900000380140FEE70907090E002804DB00F1CB
:1018A000E02080F80014704700F00F0000F1E02005
:1018B00080F8141D704702E008C8121F08C1002AF2
:1018C000FAD170477047002001E001C1121F002AC1
:1018D000FBD17047FEF79AFDFFF7CDFEFFF7ACFC9A
:1018E000FFF708FDFFF72AFDFFF75AFD0C4D012217
:1018F00080212846FEF776FDFFF781FD0DE000BF51
:10190000FFF7CFFDFFF7DAFD2046641CA4B20A28DA
:10191000F6D308212846FEF75DFD0024F0E700001D
:10192000000C0140010202030405060708090A0B26
:101930000C0D0E0F1010000000000000000001024E
:101940000304060708090000000001020304000068
:10195000701900080000002014000000B6180008EC
:101960008419000814000020EC080000C6180008C4
:101970000100000010000000000000000024F4003E
:041980000000000063
:0400000508000131BD
:00000001FF
