Component: ARM Compiler 5.05 update 2 (build 169) Tool: armlink [4d0f33]

==============================================================================

Section Cross References

    sys.o(i.MYRCC_DeInit) refers to sys.o(i.MY_NVIC_SetVectorTable) for MY_NVIC_SetVectorTable
    sys.o(i.MY_NVIC_Init) refers to sys.o(i.MY_NVIC_PriorityGroupConfig) for MY_NVIC_PriorityGroupConfig
    sys.o(i.Stm32_Clock_Init) refers to sys.o(i.MYRCC_DeInit) for MYRCC_DeInit
    sys.o(i.Sys_Standby) refers to sys.o(i.WFI_SET) for WFI_SET
    startup_stm32f10x_hd.o(STACK) refers (Special) to heapauxi.o(.text) for __use_two_region_memory
    startup_stm32f10x_hd.o(HEAP) refers (Special) to heapauxi.o(.text) for __use_two_region_memory
    startup_stm32f10x_hd.o(RESET) refers (Special) to heapauxi.o(.text) for __use_two_region_memory
    startup_stm32f10x_hd.o(RESET) refers to startup_stm32f10x_hd.o(STACK) for __initial_sp
    startup_stm32f10x_hd.o(RESET) refers to startup_stm32f10x_hd.o(.text) for Reset_Handler
    startup_stm32f10x_hd.o(RESET) refers to timer.o(i.TIM3_IRQHandler) for TIM3_IRQHandler
    startup_stm32f10x_hd.o(RESET) refers to usart.o(i.USART1_IRQHandler) for USART1_IRQHandler
    startup_stm32f10x_hd.o(.text) refers (Special) to heapauxi.o(.text) for __use_two_region_memory
    startup_stm32f10x_hd.o(.text) refers to __main.o(!!!main) for __main
    startup_stm32f10x_hd.o(.text) refers to startup_stm32f10x_hd.o(HEAP) for Heap_Mem
    startup_stm32f10x_hd.o(.text) refers to startup_stm32f10x_hd.o(STACK) for Stack_Mem
    test.o(i.main) refers to sys.o(i.Stm32_Clock_Init) for Stm32_Clock_Init
    test.o(i.main) refers to usart.o(i.uart_init) for uart_init
    test.o(i.main) refers to delay.o(i.delay_init) for delay_init
==============================================================================

Removing Unused input sections from the image.

    Removing sys.o(.emb_text), (6 bytes).
    Removing sys.o(i.Ex_NVIC_Config), (160 bytes).
    Removing sys.o(i.INTX_DISABLE), (4 bytes).
    Removing sys.o(i.INTX_ENABLE), (4 bytes).
    Removing sys.o(i.JTAG_Set), (48 bytes).
    Removing sys.o(i.Sys_Soft_Reset), (16 bytes).
    Removing sys.o(i.Sys_Standby), (76 bytes).
    Removing sys.o(i.WFI_SET), (4 bytes).
    Removing usart.o(i.uart2_init), (228 bytes).
    Removing key.o(i.KEY_Init), (96 bytes).
    Removing key.o(i.KEY_Scan), (132 bytes).
    Removing key.o(.data), (1 bytes).
    Removing hlw8112-spi.o(i.Set_Leakage), (204 bytes).
    Removing hlw8112-spi.o(i.Set_OVLVL), (160 bytes).
    Removing hlw8112-spi.o(i.Set_V_Zero), (196 bytes).
    Removing hlw8112-spi.o(i.Write_HLW8112_RegData), (66 bytes).
    Removing beep.o(i.BEEP_Init), (56 bytes).

==============================================================================

Image Symbol Table

    Local Symbols

    Symbol Name                              Value     Ov Type        Size  Object(Section)

    ../clib/angel/boardlib.s                 0x00000000   Number         0  boardinit2.o ABSOLUTE
    ../clib/angel/boardlib.s                 0x00000000   Number         0  boardinit1.o ABSOLUTE
    ../clib/angel/boardlib.s                 0x00000000   Number         0  boardinit3.o ABSOLUTE
    ../clib/angel/boardlib.s                 0x00000000   Number         0  boardshut.o ABSOLUTE
    ../clib/angel/handlers.s                 0x00000000   Number         0  __scatter_copy.o ABSOLUTE
    ../clib/angel/handlers.s                 0x00000000   Number         0  __scatter_zi.o ABSOLUTE
    ../clib/angel/kernel.s                   0x00000000   Number         0  __rtentry.o ABSOLUTE
    ../clib/angel/kernel.s                   0x00000000   Number         0  rtexit.o ABSOLUTE
    ../clib/angel/kernel.s                   0x00000000   Number         0  rtexit2.o ABSOLUTE
    ../clib/angel/kernel.s                   0x00000000   Number         0  __rtentry2.o ABSOLUTE
    ../clib/angel/kernel.s                   0x00000000   Number         0  __rtentry4.o ABSOLUTE
    ../clib/angel/rt.s                       0x00000000   Number         0  rt_locale.o ABSOLUTE
    ../clib/angel/rt.s                       0x00000000   Number         0  rt_locale_intlibspace.o ABSOLUTE
    ../clib/angel/rt.s                       0x00000000   Number         0  rt_raise.o ABSOLUTE
    ../clib/angel/scatter.s                  0x00000000   Number         0  __scatter.o ABSOLUTE
    ../clib/angel/startup.s                  0x00000000   Number         0  __main.o ABSOLUTE
    ../clib/angel/sys.s                      0x00000000   Number         0  indicate_semi.o ABSOLUTE
    ../clib/angel/sys.s                      0x00000000   Number         0  libspace.o ABSOLUTE
    ../clib/angel/sys.s                      0x00000000   Number         0  use_no_semi.o ABSOLUTE
    ../clib/angel/sys.s                      0x00000000   Number         0  use_no_semi_2.o ABSOLUTE
    ../clib/angel/sys.s                      0x00000000   Number         0  sys_stackheap_outer.o ABSOLUTE
    ../clib/angel/sysapp.c                   0x00000000   Number         0  sys_wrch.o ABSOLUTE
    ../clib/angel/sysapp.c                   0x00000000   Number         0  sys_command.o ABSOLUTE
    ../clib/armsys.c                         0x00000000   Number         0  argv_veneer.o ABSOLUTE
    ../clib/armsys.c                         0x00000000   Number         0  _get_argv_nomalloc.o ABSOLUTE
    ../clib/armsys.c                         0x00000000   Number         0  no_argv.o ABSOLUTE
    ../clib/armsys.c                         0x00000000   Number         0  argv_veneer.o ABSOLUTE
    ../clib/bigflt.c                         0x00000000   Number         0  bigflt0.o ABSOLUTE
    ../clib/btod.s                           0x00000000   Number         0  btod.o ABSOLUTE
    ../clib/heapalloc.c                      0x00000000   Number         0  hrguard.o ABSOLUTE
    ../clib/heapaux.c                        0x00000000   Number         0  heapauxi.o ABSOLUTE
    ../clib/libinit.s                        0x00000000   Number         0  libinit2.o ABSOLUTE
    ../clib/libinit.s                        0x00000000   Number         0  libshutdown.o ABSOLUTE
    ../clib/libinit.s                        0x00000000   Number         0  libshutdown2.o ABSOLUTE
    ../clib/libinit.s                        0x00000000   Number         0  libinit.o ABSOLUTE
    ../clib/locale.s                         0x00000000   Number         0  lc_numeric_c.o ABSOLUTE
    ../clib/longlong.s                       0x00000000   Number         0  lludiv10.o ABSOLUTE
    ../clib/memcpset.s                       0x00000000   Number         0  strcmpv7m.o ABSOLUTE
    ../clib/printf.c                         0x00000000   Number         0  _printf_hex_ll_ptr.o ABSOLUTE
    ../clib/printf.c                         0x00000000   Number         0  _printf_hex_int_ptr.o ABSOLUTE
    ../clib/printf.c                         0x00000000   Number         0  _printf_hex_ptr.o ABSOLUTE
    ../clib/printf.c                         0x00000000   Number         0  _printf_hex_int_ll.o ABSOLUTE
    ../clib/printf.c                         0x00000000   Number         0  __printf_ss_wp.o ABSOLUTE
    ../clib/printf.c                         0x00000000   Number         0  __printf_flags_ss_wp.o ABSOLUTE
    ../clib/printf.c                         0x00000000   Number         0  _printf_hex_int.o ABSOLUTE
    ../clib/printf.c                         0x00000000   Number         0  __printf_nopercent.o ABSOLUTE
    ../clib/printf.c                         0x00000000   Number         0  _printf_hex_ll.o ABSOLUTE
    ../clib/printf.c                         0x00000000   Number         0  _printf_char_file.o ABSOLUTE
    ../clib/printf.c                         0x00000000   Number         0  _printf_char_common.o ABSOLUTE
    ../clib/printf.c                         0x00000000   Number         0  _printf_fp_dec.o ABSOLUTE
    ../clib/printf.c                         0x00000000   Number         0  noretval__2printf.o ABSOLUTE
    ../clib/printf.c                         0x00000000   Number         0  __2printf.o ABSOLUTE
    ../clib/printf.c                         0x00000000   Number         0  _printf_fp_infnan.o ABSOLUTE
    ../clib/printf.c                         0x00000000   Number         0  _printf_intcommon.o ABSOLUTE
    ../clib/printf.c                         0x00000000   Number         0  __printf_wp.o ABSOLUTE
    ../clib/printf.c                         0x00000000   Number         0  __printf_flags_ss.o ABSOLUTE
    ../clib/printf.c                         0x00000000   Number         0  __printf_flags_wp.o ABSOLUTE
    ../clib/printf.c                         0x00000000   Number         0  __printf_ss.o ABSOLUTE
    ../clib/printf.c                         0x00000000   Number         0  __printf_flags.o ABSOLUTE
    ../clib/printf.c                         0x00000000   Number         0  _printf_hex_int_ll_ptr.o ABSOLUTE
    ../clib/printf.c                         0x00000000   Number         0  __printf.o ABSOLUTE
    ../clib/printf_percent.s                 0x00000000   Number         0  _printf_percent_end.o ABSOLUTE
    ../clib/printf_percent.s                 0x00000000   Number         0  _printf_f.o ABSOLUTE
    ../clib/printf_percent.s                 0x00000000   Number         0  _printf_x.o ABSOLUTE
    ../clib/printf_percent.s                 0x00000000   Number         0  _printf_percent.o ABSOLUTE
    ../clib/signal.c                         0x00000000   Number         0  __raise.o ABSOLUTE
    ../clib/signal.c                         0x00000000   Number         0  defsig_general.o ABSOLUTE
    ../clib/signal.c                         0x00000000   Number         0  defsig_abrt_inner.o ABSOLUTE
    ../clib/signal.c                         0x00000000   Number         0  defsig_rtmem_formal.o ABSOLUTE
    ../clib/signal.c                         0x00000000   Number         0  defsig_fpe_inner.o ABSOLUTE
    ../clib/signal.c                         0x00000000   Number         0  defsig_rtmem_outer.o ABSOLUTE
    ../clib/signal.c                         0x00000000   Number         0  defsig_rtred_inner.o ABSOLUTE
    ../clib/signal.c                         0x00000000   Number         0  defsig_stak_inner.o ABSOLUTE
    ../clib/signal.c                         0x00000000   Number         0  defsig_pvfn_inner.o ABSOLUTE
    ../clib/signal.c                         0x00000000   Number         0  defsig_cppl_inner.o ABSOLUTE
    ../clib/signal.c                         0x00000000   Number         0  defsig_segv_inner.o ABSOLUTE
    ../clib/signal.c                         0x00000000   Number         0  defsig_other.o ABSOLUTE
    ../clib/signal.c                         0x00000000   Number         0  defsig_rtmem_inner.o ABSOLUTE
    ../clib/signal.c                         0x00000000   Number         0  defsig_exit.o ABSOLUTE
    ../clib/signal.s                         0x00000000   Number         0  defsig.o ABSOLUTE
    ../clib/stdio.c                          0x00000000   Number         0  ferror_locked.o ABSOLUTE
    ../clib/stdio.c                          0x00000000   Number         0  ferror.o ABSOLUTE
    ../clib/stdlib.c                         0x00000000   Number         0  exit.o ABSOLUTE
    ../fplib/dretinf.s                       0x00000000   Number         0  dretinf.o ABSOLUTE
    ../fplib/f2d.s                           0x00000000   Number         0  f2d.o ABSOLUTE
    ../fplib/faddsub.s                       0x00000000   Number         0  faddsub_clz.o ABSOLUTE
    ../fplib/fcmpi.s                         0x00000000   Number         0  fcmpi.o ABSOLUTE
    ../fplib/fdiv.s                          0x00000000   Number         0  fdiv.o ABSOLUTE
    ../fplib/ffixu.s                         0x00000000   Number         0  ffixu.o ABSOLUTE
    ../fplib/fflt.s                          0x00000000   Number         0  fflt_clz.o ABSOLUTE
    ../fplib/fleqf.s                         0x00000000   Number         0  fleqf.o ABSOLUTE
    ../fplib/fmul.s                          0x00000000   Number         0  fmul.o ABSOLUTE
    ../fplib/fnaninf.s                       0x00000000   Number         0  fnaninf.o ABSOLUTE
    ../fplib/fpinit.s                        0x00000000   Number         0  fpinit.o ABSOLUTE
    ../fplib/fretinf.s                       0x00000000   Number         0  fretinf.o ABSOLUTE
    ../fplib/frleqf.s                        0x00000000   Number         0  frleqf.o ABSOLUTE
    ../fplib/istatus.s                       0x00000000   Number         0  istatus.o ABSOLUTE
    ../fplib/printf1.s                       0x00000000   Number         0  printf1.o ABSOLUTE
    ../fplib/usenofp.s                       0x00000000   Number         0  usenofp.o ABSOLUTE
    ../mathlib/fpclassify.c                  0x00000000   Number         0  fpclassify.o ABSOLUTE
    ..\HARDWARE\BEEP\beep.c                  0x00000000   Number         0  beep.o ABSOLUTE
    ..\HARDWARE\HLW8110\HLW8110.c            0x00000000   Number         0  hlw8110.o ABSOLUTE
    ..\HARDWARE\HLW8112-SPI\HLW8112-SPI.c    0x00000000   Number         0  hlw8112-spi.o ABSOLUTE
    ..\HARDWARE\KEY\key.c                    0x00000000   Number         0  key.o ABSOLUTE
    ..\HARDWARE\LED\led.c                    0x00000000   Number         0  led.o ABSOLUTE
    ..\HARDWARE\TIMER\timer.c                0x00000000   Number         0  timer.o ABSOLUTE
    ..\SYSTEM\delay\delay.c                  0x00000000   Number         0  delay.o ABSOLUTE
    ..\SYSTEM\sys\sys.c                      0x00000000   Number         0  sys.o ABSOLUTE
    ..\SYSTEM\usart\usart.c                  0x00000000   Number         0  usart.o ABSOLUTE
    ..\\SYSTEM\\sys\\sys.c                   0x00000000   Number         0  sys.o ABSOLUTE
    dc.s                                     0x00000000   Number         0  dc.o ABSOLUTE
    startup_stm32f10x_hd.s                   0x00000000   Number         0  startup_stm32f10x_hd.o ABSOLUTE
    test.c                                   0x00000000   Number         0  test.o ABSOLUTE
    RESET                                    0x08000000   Section      304  startup_stm32f10x_hd.o(RESET)
    !!!main                                  0x08000130   Section        8  __main.o(!!!main)
    !!!scatter                               0x08000138   Section       52  __scatter.o(!!!scatter)
    !!handler_copy                           0x0800016c   Section       26  __scatter_copy.o(!!handler_copy)
    !!handler_zi                             0x08000188   Section       28  __scatter_zi.o(!!handler_zi)
    .ARM.Collect$$_printf_percent$$00000000  0x080001a4   Section        0  _printf_percent.o(.ARM.Collect$$_printf_percent$$00000000)
    .ARM.Collect$$_printf_percent$$00000003  0x080001a4   Section        6  _printf_f.o(.ARM.Collect$$_printf_percent$$00000003)
    .ARM.Collect$$_printf_percent$$0000000C  0x080001aa   Section        6  _printf_x.o(.ARM.Collect$$_printf_percent$$0000000C)
    .ARM.Collect$$_printf_percent$$00000017  0x080001b0   Section        4  _printf_percent_end.o(.ARM.Collect$$_printf_percent$$00000017)
    .ARM.Collect$$libinit$$00000000          0x080001b4   Section        2  libinit.o(.ARM.Collect$$libinit$$00000000)
    .ARM.Collect$$libinit$$00000002          0x080001b6   Section        0  libinit2.o(.ARM.Collect$$libinit$$00000002)
    .ARM.Collect$$libinit$$00000004          0x080001b6   Section        0  libinit2.o(.ARM.Collect$$libinit$$00000004)
    .ARM.Collect$$libinit$$0000000A          0x080001b6   Section        0  libinit2.o(.ARM.Collect$$libinit$$0000000A)
    .ARM.Collect$$libinit$$0000000C          0x080001b6   Section        0  libinit2.o(.ARM.Collect$$libinit$$0000000C)
    .ARM.Collect$$libinit$$0000000E          0x080001b6   Section        0  libinit2.o(.ARM.Collect$$libinit$$0000000E)
    .ARM.Collect$$libinit$$0000000F          0x080001b6   Section        6  libinit2.o(.ARM.Collect$$libinit$$0000000F)
    .ARM.Collect$$libinit$$00000011          0x080001bc   Section        0  libinit2.o(.ARM.Collect$$libinit$$00000011)
    .ARM.Collect$$libinit$$00000013          0x080001bc   Section        0  libinit2.o(.ARM.Collect$$libinit$$00000013)
    .ARM.Collect$$libinit$$00000015          0x080001bc   Section        0  libinit2.o(.ARM.Collect$$libinit$$00000015)
    .ARM.Collect$$libinit$$00000016          0x080001bc   Section       10  libinit2.o(.ARM.Collect$$libinit$$00000016)
    .ARM.Collect$$libinit$$00000017          0x080001c6   Section        0  libinit2.o(.ARM.Collect$$libinit$$00000017)
    .ARM.Collect$$libinit$$00000019          0x080001c6   Section        0  libinit2.o(.ARM.Collect$$libinit$$00000019)
    .ARM.Collect$$libinit$$0000001B          0x080001c6   Section        0  libinit2.o(.ARM.Collect$$libinit$$0000001B)
    .ARM.Collect$$libinit$$0000001D          0x080001c6   Section        0  libinit2.o(.ARM.Collect$$libinit$$0000001D)
    .ARM.Collect$$libinit$$0000001F          0x080001c6   Section        0  libinit2.o(.ARM.Collect$$libinit$$0000001F)
    .ARM.Collect$$libinit$$00000021          0x080001c6   Section        0  libinit2.o(.ARM.Collect$$libinit$$00000021)
    .ARM.Collect$$libinit$$00000023          0x080001c6   Section        0  libinit2.o(.ARM.Collect$$libinit$$00000023)
    .ARM.Collect$$libinit$$00000025          0x080001c6   Section        0  libinit2.o(.ARM.Collect$$libinit$$00000025)
    .ARM.Collect$$libinit$$0000002C          0x080001c6   Section        0  libinit2.o(.ARM.Collect$$libinit$$0000002C)
    .ARM.Collect$$libinit$$0000002E          0x080001c6   Section        0  libinit2.o(.ARM.Collect$$libinit$$0000002E)
    .ARM.Collect$$libinit$$00000030          0x080001c6   Section        0  libinit2.o(.ARM.Collect$$libinit$$00000030)
    .ARM.Collect$$libinit$$00000032          0x080001c6   Section        0  libinit2.o(.ARM.Collect$$libinit$$00000032)
    .ARM.Collect$$libinit$$00000033          0x080001c6   Section        2  libinit2.o(.ARM.Collect$$libinit$$00000033)
    .ARM.Collect$$libshutdown$$00000000      0x080001c8   Section        2  libshutdown.o(.ARM.Collect$$libshutdown$$00000000)
    .ARM.Collect$$libshutdown$$00000003      0x080001ca   Section        0  libshutdown2.o(.ARM.Collect$$libshutdown$$00000003)
    .ARM.Collect$$libshutdown$$00000006      0x080001ca   Section        0  libshutdown2.o(.ARM.Collect$$libshutdown$$00000006)
    .ARM.Collect$$libshutdown$$00000009      0x080001ca   Section        0  libshutdown2.o(.ARM.Collect$$libshutdown$$00000009)
    .ARM.Collect$$libshutdown$$0000000B      0x080001ca   Section        0  libshutdown2.o(.ARM.Collect$$libshutdown$$0000000B)
    .ARM.Collect$$libshutdown$$0000000E      0x080001ca   Section        0  libshutdown2.o(.ARM.Collect$$libshutdown$$0000000E)
    .ARM.Collect$$libshutdown$$0000000F      0x080001ca   Section        2  libshutdown2.o(.ARM.Collect$$libshutdown$$0000000F)
    .ARM.Collect$$rtentry$$00000000          0x080001cc   Section        0  __rtentry.o(.ARM.Collect$$rtentry$$00000000)
    .ARM.Collect$$rtentry$$00000002          0x080001cc   Section        0  __rtentry2.o(.ARM.Collect$$rtentry$$00000002)
    .ARM.Collect$$rtentry$$00000004          0x080001cc   Section        6  __rtentry4.o(.ARM.Collect$$rtentry$$00000004)
    .ARM.Collect$$rtentry$$00000009          0x080001d2   Section        0  __rtentry2.o(.ARM.Collect$$rtentry$$00000009)
    .ARM.Collect$$rtentry$$0000000A          0x080001d2   Section        4  __rtentry2.o(.ARM.Collect$$rtentry$$0000000A)
    .ARM.Collect$$rtentry$$0000000C          0x080001d6   Section        0  __rtentry2.o(.ARM.Collect$$rtentry$$0000000C)
    .ARM.Collect$$rtentry$$0000000D          0x080001d6   Section        8  __rtentry2.o(.ARM.Collect$$rtentry$$0000000D)
    .ARM.Collect$$rtexit$$00000000           0x080001de   Section        2  rtexit.o(.ARM.Collect$$rtexit$$00000000)
    .ARM.Collect$$rtexit$$00000002           0x080001e0   Section        0  rtexit2.o(.ARM.Collect$$rtexit$$00000002)
    .ARM.Collect$$rtexit$$00000003           0x080001e0   Section        4  rtexit2.o(.ARM.Collect$$rtexit$$00000003)
    .ARM.Collect$$rtexit$$00000004           0x080001e4   Section        6  rtexit2.o(.ARM.Collect$$rtexit$$00000004)
    .text                                    0x080001ec   Section       52  startup_stm32f10x_hd.o(.text)
    .text                                    0x08000220   Section        2  use_no_semi_2.o(.text)
    .text                                    0x08000224   Section        0  noretval__2printf.o(.text)
    .text                                    0x0800023c   Section        0  __printf.o(.text)
    .text                                    0x080002a4   Section        0  _printf_hex_int.o(.text)
    .text                                    0x080002fc   Section        0  heapauxi.o(.text)
    .text                                    0x08000302   Section        2  use_no_semi.o(.text)
    .text                                    0x08000304   Section        0  _printf_intcommon.o(.text)
    .text                                    0x080003b6   Section        0  _printf_fp_dec.o(.text)
    _fp_digits                               0x080003b9   Thumb Code   428  _printf_fp_dec.o(.text)
    .text                                    0x080007d0   Section        0  _printf_char_file.o(.text)
    .text                                    0x080007f4   Section        8  rt_locale_intlibspace.o(.text)
    .text                                    0x080007fc   Section      138  lludiv10.o(.text)
    .text                                    0x08000888   Section        0  _printf_char_common.o(.text)
    _printf_input_char                       0x08000889   Thumb Code    10  _printf_char_common.o(.text)
    .text                                    0x080008b8   Section        0  _printf_fp_infnan.o(.text)
    .text                                    0x08000938   Section        0  bigflt0.o(.text)
    .text                                    0x08000a14   Section        0  ferror.o(.text)
    .text                                    0x08000a1c   Section        8  libspace.o(.text)
    .text                                    0x08000a24   Section       74  sys_stackheap_outer.o(.text)
    .text                                    0x08000a6e   Section        0  exit.o(.text)
    .text                                    0x08000a7c   Section      128  strcmpv7m.o(.text)
    CL$$btod_d2e                             0x08000afc   Section       62  btod.o(CL$$btod_d2e)
    CL$$btod_d2e_denorm_low                  0x08000b3a   Section       70  btod.o(CL$$btod_d2e_denorm_low)
    CL$$btod_d2e_norm_op1                    0x08000b80   Section       96  btod.o(CL$$btod_d2e_norm_op1)
    CL$$btod_div_common                      0x08000be0   Section      824  btod.o(CL$$btod_div_common)
    CL$$btod_e2e                             0x08000f18   Section      198  btod.o(CL$$btod_e2e)
    CL$$btod_ediv                            0x08000fde   Section       40  btod.o(CL$$btod_ediv)
    CL$$btod_emul                            0x08001006   Section       40  btod.o(CL$$btod_emul)
    CL$$btod_mult_common                     0x0800102e   Section      580  btod.o(CL$$btod_mult_common)
    i.HLW8112_Measure                        0x08001274   Section        0  hlw8112-spi.o(i.HLW8112_Measure)
    i.HLW8112_SPI_ReadByte                   0x080015c4   Section        0  hlw8112-spi.o(i.HLW8112_SPI_ReadByte)
    i.HLW8112_SPI_ReadReg                    0x0800160c   Section        0  hlw8112-spi.o(i.HLW8112_SPI_ReadReg)
    i.HLW8112_SPI_WriteByte                  0x08001618   Section        0  hlw8112-spi.o(i.HLW8112_SPI_WriteByte)
    i.HLW8112_SPI_WriteReg                   0x08001668   Section        0  hlw8112-spi.o(i.HLW8112_SPI_WriteReg)
    i.HLW8112_WriteREG_DIS                   0x08001678   Section        0  hlw8112-spi.o(i.HLW8112_WriteREG_DIS)
    i.HLW8112_WriteREG_EN                    0x080016a0   Section        0  hlw8112-spi.o(i.HLW8112_WriteREG_EN)
    i.Init_HLW8112                           0x080016c8   Section        0  hlw8112-spi.o(i.Init_HLW8112)
    i.Judge_CheckSum_HLW8112_Calfactor       0x08001a48   Section        0  hlw8112-spi.o(i.Judge_CheckSum_HLW8112_Calfactor)
    i.LED_Init                               0x08001b20   Section        0  led.o(i.LED_Init)
    i.MYRCC_DeInit                           0x08001bfc   Section        0  sys.o(i.MYRCC_DeInit)
    i.MY_NVIC_Init                           0x08001c64   Section        0  sys.o(i.MY_NVIC_Init)
    i.MY_NVIC_PriorityGroupConfig            0x08001cdc   Section        0  sys.o(i.MY_NVIC_PriorityGroupConfig)
    i.MY_NVIC_SetVectorTable                 0x08001d04   Section        0  sys.o(i.MY_NVIC_SetVectorTable)
    i.Read_HLW8112_DC_Offset                 0x08001d18   Section        0  hlw8112-spi.o(i.Read_HLW8112_DC_Offset)
    i.Read_HLW8112_EA                        0x08001d5c   Section        0  hlw8112-spi.o(i.Read_HLW8112_EA)
    i.Read_HLW8112_EB                        0x08001e60   Section        0  hlw8112-spi.o(i.Read_HLW8112_EB)
    i.Read_HLW8112_PA                        0x08001f64   Section        0  hlw8112-spi.o(i.Read_HLW8112_PA)
    i.Read_HLW8112_PA_I                      0x08001ff4   Section        0  hlw8112-spi.o(i.Read_HLW8112_PA_I)
    i.Read_HLW8112_PB                        0x08002084   Section        0  hlw8112-spi.o(i.Read_HLW8112_PB)
    i.Read_HLW8112_PB_I                      0x08002114   Section        0  hlw8112-spi.o(i.Read_HLW8112_PB_I)
    i.Read_HLW8112_RegData                   0x080021a4   Section        0  hlw8112-spi.o(i.Read_HLW8112_RegData)
    i.Read_HLW8112_U                         0x080021e0   Section        0  hlw8112-spi.o(i.Read_HLW8112_U)
    i.Stm32_Clock_Init                       0x08002274   Section        0  sys.o(i.Stm32_Clock_Init)
    i.TIM3_IRQHandler                        0x08002300   Section        0  timer.o(i.TIM3_IRQHandler)
    i.TIM3_Int_Init                          0x0800233c   Section        0  timer.o(i.TIM3_Int_Init)
    i.USART1_IRQHandler                      0x0800238c   Section        0  usart.o(i.USART1_IRQHandler)
    i.__ARM_fpclassify                       0x08002410   Section        0  fpclassify.o(i.__ARM_fpclassify)
    i._sys_exit                              0x08002438   Section        0  usart.o(i._sys_exit)
    i.delay_init                             0x08002440   Section        0  delay.o(i.delay_init)
    i.delay_ms                               0x08002480   Section        0  delay.o(i.delay_ms)
    i.delay_us                               0x080024bc   Section        0  delay.o(i.delay_us)
    i.fputc                                  0x080024f8   Section        0  usart.o(i.fputc)
    i.main                                   0x08002514   Section        0  test.o(i.main)
    i.uart_init                              0x08002560   Section        0  usart.o(i.uart_init)
    locale$$code                             0x0800263c   Section       44  lc_numeric_c.o(locale$$code)
    x$fpl$dretinf                            0x08002668   Section       12  dretinf.o(x$fpl$dretinf)
    x$fpl$f2d                                0x08002674   Section       86  f2d.o(x$fpl$f2d)
    x$fpl$fadd                               0x080026cc   Section      196  faddsub_clz.o(x$fpl$fadd)
    _fadd1                                   0x080026db   Thumb Code     0  faddsub_clz.o(x$fpl$fadd)
    x$fpl$fcmpinf                            0x08002790   Section       24  fcmpi.o(x$fpl$fcmpinf)
    x$fpl$fdiv                               0x080027a8   Section      388  fdiv.o(x$fpl$fdiv)
    _fdiv1                                   0x080027a9   Thumb Code     0  fdiv.o(x$fpl$fdiv)
    x$fpl$ffixu                              0x0800292c   Section       62  ffixu.o(x$fpl$ffixu)
    x$fpl$ffltu                              0x0800296c   Section       38  fflt_clz.o(x$fpl$ffltu)
    x$fpl$fleqf                              0x08002994   Section      104  fleqf.o(x$fpl$fleqf)
    x$fpl$fmul                               0x080029fc   Section      258  fmul.o(x$fpl$fmul)
    x$fpl$fnaninf                            0x08002afe   Section      140  fnaninf.o(x$fpl$fnaninf)
    x$fpl$fretinf                            0x08002b8a   Section       10  fretinf.o(x$fpl$fretinf)
    x$fpl$frleqf                             0x08002b94   Section       98  frleqf.o(x$fpl$frleqf)
    x$fpl$frsb                               0x08002bf6   Section       20  faddsub_clz.o(x$fpl$frsb)
    x$fpl$fsub                               0x08002c0c   Section      234  faddsub_clz.o(x$fpl$fsub)
    _fsub1                                   0x08002c1b   Thumb Code     0  faddsub_clz.o(x$fpl$fsub)
    x$fpl$printf1                            0x08002cf6   Section        4  printf1.o(x$fpl$printf1)
    .constdata                               0x08002cfa   Section       40  _printf_hex_int.o(.constdata)
    x$fpl$usenofp                            0x08002cfa   Section        0  usenofp.o(x$fpl$usenofp)
    uc_hextab                                0x08002cfa   Data          20  _printf_hex_int.o(.constdata)
    lc_hextab                                0x08002d0e   Data          20  _printf_hex_int.o(.constdata)
    .constdata                               0x08002d24   Section      148  bigflt0.o(.constdata)
    tenpwrs_x                                0x08002d24   Data          60  bigflt0.o(.constdata)
    tenpwrs_i                                0x08002d60   Data          64  bigflt0.o(.constdata)
    locale$$data                             0x08002dd8   Section       28  lc_numeric_c.o(locale$$data)
    __lcnum_c_name                           0x08002ddc   Data           2  lc_numeric_c.o(locale$$data)
    __lcnum_c_start                          0x08002de4   Data           0  lc_numeric_c.o(locale$$data)
    __lcnum_c_point                          0x08002df0   Data           0  lc_numeric_c.o(locale$$data)
    __lcnum_c_thousands                      0x08002df2   Data           0  lc_numeric_c.o(locale$$data)
    __lcnum_c_grouping                       0x08002df3   Data           0  lc_numeric_c.o(locale$$data)
    __lcnum_c_end                            0x08002df4   Data           0  lc_numeric_c.o(locale$$data)
    .data                                    0x20000000   Section        4  delay.o(.data)
    fac_us                                   0x20000000   Data           1  delay.o(.data)
    fac_ms                                   0x20000002   Data           2  delay.o(.data)
    .data                                    0x20000004   Section        6  usart.o(.data)
    .data                                    0x2000000c   Section      148  hlw8112-spi.o(.data)
    .data                                    0x200000a0   Section        1  timer.o(.data)
    .bss                                     0x200000a4   Section      200  usart.o(.bss)
    .bss                                     0x2000016c   Section       96  libspace.o(.bss)
    HEAP                                     0x200001d0   Section        0  startup_stm32f10x_hd.o(HEAP)
    STACK                                    0x200001d0   Section     1024  startup_stm32f10x_hd.o(STACK)
    Heap_Mem                                 0x200001d0   Data           0  startup_stm32f10x_hd.o(HEAP)
    Stack_Mem                                0x200001d0   Data        1024  startup_stm32f10x_hd.o(STACK)
    __initial_sp                             0x200005d0   Data           0  startup_stm32f10x_hd.o(STACK)

    Global Symbols

    Symbol Name                              Value     Ov Type        Size  Object(Section)

    BuildAttributes$$THM_ISAv4$P$D$K$B$S$PE$A:L22UL41UL21$X:L11$S22US41US21$IEEE1$IW$USESV6$~STKCKD$USESV7$~SHL$OTIME$ROPI$IEEEJ$EBA8$UX$STANDARDLIB$REQ8$PRES8$EABIv2 0x00000000   Number         0  anon$$obj.o ABSOLUTE
    __ARM_use_no_argv                        0x00000000   Number         0  test.o ABSOLUTE
    __ARM_exceptions_init                     - Undefined Weak Reference
    __alloca_initialize                       - Undefined Weak Reference
    __arm_preinit_                            - Undefined Weak Reference
    __cpp_initialize__aeabi_                  - Undefined Weak Reference
    __cxa_finalize                            - Undefined Weak Reference
    __sigvec_lookup                           - Undefined Weak Reference
    _atexit_init                              - Undefined Weak Reference
    _call_atexit_fns                          - Undefined Weak Reference
    _clock_init                               - Undefined Weak Reference
    _fp_trap_init                             - Undefined Weak Reference
    _fp_trap_shutdown                         - Undefined Weak Reference
    _get_lc_collate                           - Undefined Weak Reference
    _get_lc_ctype                             - Undefined Weak Reference
    _get_lc_monetary                          - Undefined Weak Reference
    _get_lc_time                              - Undefined Weak Reference
    _getenv_init                              - Undefined Weak Reference
    _handle_redirection                       - Undefined Weak Reference
    _init_alloc                               - Undefined Weak Reference
    _init_user_alloc                          - Undefined Weak Reference
    _initio                                   - Undefined Weak Reference
    _mutex_acquire                            - Undefined Weak Reference
    _mutex_release                            - Undefined Weak Reference
    _printf_post_padding                      - Undefined Weak Reference
    _printf_pre_padding                       - Undefined Weak Reference
    _printf_truncate_unsigned                 - Undefined Weak Reference
    _rand_init                                - Undefined Weak Reference
    _signal_finish                            - Undefined Weak Reference
    _signal_init                              - Undefined Weak Reference
    _terminate_alloc                          - Undefined Weak Reference
    _terminate_user_alloc                     - Undefined Weak Reference
    _terminateio                              - Undefined Weak Reference
    __Vectors_Size                           0x00000130   Number         0  startup_stm32f10x_hd.o ABSOLUTE
    __Vectors                                0x08000000   Data           4  startup_stm32f10x_hd.o(RESET)
    __Vectors_End                            0x08000130   Data           0  startup_stm32f10x_hd.o(RESET)
    __main                                   0x08000131   Thumb Code     8  __main.o(!!!main)
    __scatterload                            0x08000139   Thumb Code     0  __scatter.o(!!!scatter)
    __scatterload_rt2                        0x08000139   Thumb Code    44  __scatter.o(!!!scatter)
    __scatterload_rt2_thumb_only             0x08000139   Thumb Code     0  __scatter.o(!!!scatter)
    __scatterload_null                       0x08000147   Thumb Code     0  __scatter.o(!!!scatter)
    __scatterload_copy                       0x0800016d   Thumb Code    26  __scatter_copy.o(!!handler_copy)
    __scatterload_zeroinit                   0x08000189   Thumb Code    28  __scatter_zi.o(!!handler_zi)
    _printf_f                                0x080001a5   Thumb Code     0  _printf_f.o(.ARM.Collect$$_printf_percent$$00000003)
    _printf_percent                          0x080001a5   Thumb Code     0  _printf_percent.o(.ARM.Collect$$_printf_percent$$00000000)
    _printf_x                                0x080001ab   Thumb Code     0  _printf_x.o(.ARM.Collect$$_printf_percent$$0000000C)
    _printf_percent_end                      0x080001b1   Thumb Code     0  _printf_percent_end.o(.ARM.Collect$$_printf_percent$$00000017)
    __rt_lib_init                            0x080001b5   Thumb Code     0  libinit.o(.ARM.Collect$$libinit$$00000000)
    __rt_lib_init_fp_1                       0x080001b7   Thumb Code     0  libinit2.o(.ARM.Collect$$libinit$$00000002)
    __rt_lib_init_heap_1                     0x080001b7   Thumb Code     0  libinit2.o(.ARM.Collect$$libinit$$0000000A)
    __rt_lib_init_lc_common                  0x080001b7   Thumb Code     0  libinit2.o(.ARM.Collect$$libinit$$0000000F)
    __rt_lib_init_preinit_1                  0x080001b7   Thumb Code     0  libinit2.o(.ARM.Collect$$libinit$$00000004)
    __rt_lib_init_rand_1                     0x080001b7   Thumb Code     0  libinit2.o(.ARM.Collect$$libinit$$0000000E)
    __rt_lib_init_user_alloc_1               0x080001b7   Thumb Code     0  libinit2.o(.ARM.Collect$$libinit$$0000000C)
    __rt_lib_init_lc_collate_1               0x080001bd   Thumb Code     0  libinit2.o(.ARM.Collect$$libinit$$00000011)
    __rt_lib_init_lc_ctype_1                 0x080001bd   Thumb Code     0  libinit2.o(.ARM.Collect$$libinit$$00000013)
    __rt_lib_init_lc_monetary_1              0x080001bd   Thumb Code     0  libinit2.o(.ARM.Collect$$libinit$$00000015)
    __rt_lib_init_lc_numeric_2               0x080001bd   Thumb Code     0  libinit2.o(.ARM.Collect$$libinit$$00000016)
    __rt_lib_init_alloca_1                   0x080001c7   Thumb Code     0  libinit2.o(.ARM.Collect$$libinit$$0000002E)
    __rt_lib_init_argv_1                     0x080001c7   Thumb Code     0  libinit2.o(.ARM.Collect$$libinit$$0000002C)
    __rt_lib_init_atexit_1                   0x080001c7   Thumb Code     0  libinit2.o(.ARM.Collect$$libinit$$0000001B)
    __rt_lib_init_clock_1                    0x080001c7   Thumb Code     0  libinit2.o(.ARM.Collect$$libinit$$00000021)
    __rt_lib_init_cpp_1                      0x080001c7   Thumb Code     0  libinit2.o(.ARM.Collect$$libinit$$00000032)
    __rt_lib_init_exceptions_1               0x080001c7   Thumb Code     0  libinit2.o(.ARM.Collect$$libinit$$00000030)
    __rt_lib_init_fp_trap_1                  0x080001c7   Thumb Code     0  libinit2.o(.ARM.Collect$$libinit$$0000001F)
    __rt_lib_init_getenv_1                   0x080001c7   Thumb Code     0  libinit2.o(.ARM.Collect$$libinit$$00000023)
    __rt_lib_init_lc_numeric_1               0x080001c7   Thumb Code     0  libinit2.o(.ARM.Collect$$libinit$$00000017)
    __rt_lib_init_lc_time_1                  0x080001c7   Thumb Code     0  libinit2.o(.ARM.Collect$$libinit$$00000019)
    __rt_lib_init_return                     0x080001c7   Thumb Code     0  libinit2.o(.ARM.Collect$$libinit$$00000033)
    __rt_lib_init_signal_1                   0x080001c7   Thumb Code     0  libinit2.o(.ARM.Collect$$libinit$$0000001D)
    __rt_lib_init_stdio_1                    0x080001c7   Thumb Code     0  libinit2.o(.ARM.Collect$$libinit$$00000025)
    __rt_lib_shutdown                        0x080001c9   Thumb Code     0  libshutdown.o(.ARM.Collect$$libshutdown$$00000000)
    __rt_lib_shutdown_fp_trap_1              0x080001cb   Thumb Code     0  libshutdown2.o(.ARM.Collect$$libshutdown$$00000006)
    __rt_lib_shutdown_heap_1                 0x080001cb   Thumb Code     0  libshutdown2.o(.ARM.Collect$$libshutdown$$0000000E)
    __rt_lib_shutdown_return                 0x080001cb   Thumb Code     0  libshutdown2.o(.ARM.Collect$$libshutdown$$0000000F)
    __rt_lib_shutdown_signal_1               0x080001cb   Thumb Code     0  libshutdown2.o(.ARM.Collect$$libshutdown$$00000009)
    __rt_lib_shutdown_stdio_1                0x080001cb   Thumb Code     0  libshutdown2.o(.ARM.Collect$$libshutdown$$00000003)
    __rt_lib_shutdown_user_alloc_1           0x080001cb   Thumb Code     0  libshutdown2.o(.ARM.Collect$$libshutdown$$0000000B)
    __rt_entry                               0x080001cd   Thumb Code     0  __rtentry.o(.ARM.Collect$$rtentry$$00000000)
    __rt_entry_presh_1                       0x080001cd   Thumb Code     0  __rtentry2.o(.ARM.Collect$$rtentry$$00000002)
    __rt_entry_sh                            0x080001cd   Thumb Code     0  __rtentry4.o(.ARM.Collect$$rtentry$$00000004)
    __rt_entry_li                            0x080001d3   Thumb Code     0  __rtentry2.o(.ARM.Collect$$rtentry$$0000000A)
    __rt_entry_postsh_1                      0x080001d3   Thumb Code     0  __rtentry2.o(.ARM.Collect$$rtentry$$00000009)
    __rt_entry_main                          0x080001d7   Thumb Code     0  __rtentry2.o(.ARM.Collect$$rtentry$$0000000D)
    __rt_entry_postli_1                      0x080001d7   Thumb Code     0  __rtentry2.o(.ARM.Collect$$rtentry$$0000000C)
    __rt_exit                                0x080001df   Thumb Code     0  rtexit.o(.ARM.Collect$$rtexit$$00000000)
    __rt_exit_ls                             0x080001e1   Thumb Code     0  rtexit2.o(.ARM.Collect$$rtexit$$00000003)
    __rt_exit_prels_1                        0x080001e1   Thumb Code     0  rtexit2.o(.ARM.Collect$$rtexit$$00000002)
    __rt_exit_exit                           0x080001e5   Thumb Code     0  rtexit2.o(.ARM.Collect$$rtexit$$00000004)
    Reset_Handler                            0x080001ed   Thumb Code     4  startup_stm32f10x_hd.o(.text)
    NMI_Handler                              0x080001f1   Thumb Code     2  startup_stm32f10x_hd.o(.text)
    HardFault_Handler                        0x080001f3   Thumb Code     2  startup_stm32f10x_hd.o(.text)
    MemManage_Handler                        0x080001f5   Thumb Code     2  startup_stm32f10x_hd.o(.text)
    BusFault_Handler                         0x080001f7   Thumb Code     2  startup_stm32f10x_hd.o(.text)
    UsageFault_Handler                       0x080001f9   Thumb Code     2  startup_stm32f10x_hd.o(.text)
    SVC_Handler                              0x080001fb   Thumb Code     2  startup_stm32f10x_hd.o(.text)
    DebugMon_Handler                         0x080001fd   Thumb Code     2  startup_stm32f10x_hd.o(.text)
    PendSV_Handler                           0x080001ff   Thumb Code     2  startup_stm32f10x_hd.o(.text)
    SysTick_Handler                          0x08000201   Thumb Code     2  startup_stm32f10x_hd.o(.text)
    ADC1_2_IRQHandler                        0x08000203   Thumb Code     0  startup_stm32f10x_hd.o(.text)
    ADC3_IRQHandler                          0x08000203   Thumb Code     0  startup_stm32f10x_hd.o(.text)
    CAN1_RX1_IRQHandler                      0x08000203   Thumb Code     0  startup_stm32f10x_hd.o(.text)
    CAN1_SCE_IRQHandler                      0x08000203   Thumb Code     0  startup_stm32f10x_hd.o(.text)
    DMA1_Channel1_IRQHandler                 0x08000203   Thumb Code     0  startup_stm32f10x_hd.o(.text)
    DMA1_Channel2_IRQHandler                 0x08000203   Thumb Code     0  startup_stm32f10x_hd.o(.text)
    DMA1_Channel3_IRQHandler                 0x08000203   Thumb Code     0  startup_stm32f10x_hd.o(.text)
    DMA1_Channel4_IRQHandler                 0x08000203   Thumb Code     0  startup_stm32f10x_hd.o(.text)
    DMA1_Channel5_IRQHandler                 0x08000203   Thumb Code     0  startup_stm32f10x_hd.o(.text)
    DMA1_Channel6_IRQHandler                 0x08000203   Thumb Code     0  startup_stm32f10x_hd.o(.text)
    DMA1_Channel7_IRQHandler                 0x08000203   Thumb Code     0  startup_stm32f10x_hd.o(.text)
    DMA2_Channel1_IRQHandler                 0x08000203   Thumb Code     0  startup_stm32f10x_hd.o(.text)
    DMA2_Channel2_IRQHandler                 0x08000203   Thumb Code     0  startup_stm32f10x_hd.o(.text)
    DMA2_Channel3_IRQHandler                 0x08000203   Thumb Code     0  startup_stm32f10x_hd.o(.text)
    DMA2_Channel4_5_IRQHandler               0x08000203   Thumb Code     0  startup_stm32f10x_hd.o(.text)
    EXTI0_IRQHandler                         0x08000203   Thumb Code     0  startup_stm32f10x_hd.o(.text)
    EXTI15_10_IRQHandler                     0x08000203   Thumb Code     0  startup_stm32f10x_hd.o(.text)
    EXTI1_IRQHandler                         0x08000203   Thumb Code     0  startup_stm32f10x_hd.o(.text)
    EXTI2_IRQHandler                         0x08000203   Thumb Code     0  startup_stm32f10x_hd.o(.text)
    EXTI3_IRQHandler                         0x08000203   Thumb Code     0  startup_stm32f10x_hd.o(.text)
    EXTI4_IRQHandler                         0x08000203   Thumb Code     0  startup_stm32f10x_hd.o(.text)
    EXTI9_5_IRQHandler                       0x08000203   Thumb Code     0  startup_stm32f10x_hd.o(.text)
    FLASH_IRQHandler                         0x08000203   Thumb Code     0  startup_stm32f10x_hd.o(.text)
    FSMC_IRQHandler                          0x08000203   Thumb Code     0  startup_stm32f10x_hd.o(.text)
    I2C1_ER_IRQHandler                       0x08000203   Thumb Code     0  startup_stm32f10x_hd.o(.text)
    I2C1_EV_IRQHandler                       0x08000203   Thumb Code     0  startup_stm32f10x_hd.o(.text)
    I2C2_ER_IRQHandler                       0x08000203   Thumb Code     0  startup_stm32f10x_hd.o(.text)
    I2C2_EV_IRQHandler                       0x08000203   Thumb Code     0  startup_stm32f10x_hd.o(.text)
    PVD_IRQHandler                           0x08000203   Thumb Code     0  startup_stm32f10x_hd.o(.text)
    RCC_IRQHandler                           0x08000203   Thumb Code     0  startup_stm32f10x_hd.o(.text)
    RTCAlarm_IRQHandler                      0x08000203   Thumb Code     0  startup_stm32f10x_hd.o(.text)
    RTC_IRQHandler                           0x08000203   Thumb Code     0  startup_stm32f10x_hd.o(.text)
    SDIO_IRQHandler                          0x08000203   Thumb Code     0  startup_stm32f10x_hd.o(.text)
    SPI1_IRQHandler                          0x08000203   Thumb Code     0  startup_stm32f10x_hd.o(.text)
    SPI2_IRQHandler                          0x08000203   Thumb Code     0  startup_stm32f10x_hd.o(.text)
    SPI3_IRQHandler                          0x08000203   Thumb Code     0  startup_stm32f10x_hd.o(.text)
    TAMPER_IRQHandler                        0x08000203   Thumb Code     0  startup_stm32f10x_hd.o(.text)
    TIM1_BRK_IRQHandler                      0x08000203   Thumb Code     0  startup_stm32f10x_hd.o(.text)
    TIM1_CC_IRQHandler                       0x08000203   Thumb Code     0  startup_stm32f10x_hd.o(.text)
    TIM1_TRG_COM_IRQHandler                  0x08000203   Thumb Code     0  startup_stm32f10x_hd.o(.text)
    TIM1_UP_IRQHandler                       0x08000203   Thumb Code     0  startup_stm32f10x_hd.o(.text)
    TIM2_IRQHandler                          0x08000203   Thumb Code     0  startup_stm32f10x_hd.o(.text)
    TIM4_IRQHandler                          0x08000203   Thumb Code     0  startup_stm32f10x_hd.o(.text)
    TIM5_IRQHandler                          0x08000203   Thumb Code     0  startup_stm32f10x_hd.o(.text)
    TIM6_IRQHandler                          0x08000203   Thumb Code     0  startup_stm32f10x_hd.o(.text)
    TIM7_IRQHandler                          0x08000203   Thumb Code     0  startup_stm32f10x_hd.o(.text)
    TIM8_BRK_IRQHandler                      0x08000203   Thumb Code     0  startup_stm32f10x_hd.o(.text)
    TIM8_CC_IRQHandler                       0x08000203   Thumb Code     0  startup_stm32f10x_hd.o(.text)
    TIM8_TRG_COM_IRQHandler                  0x08000203   Thumb Code     0  startup_stm32f10x_hd.o(.text)
    TIM8_UP_IRQHandler                       0x08000203   Thumb Code     0  startup_stm32f10x_hd.o(.text)
    UART4_IRQHandler                         0x08000203   Thumb Code     0  startup_stm32f10x_hd.o(.text)
    UART5_IRQHandler                         0x08000203   Thumb Code     0  startup_stm32f10x_hd.o(.text)
    USART2_IRQHandler                        0x08000203   Thumb Code     0  startup_stm32f10x_hd.o(.text)
    USART3_IRQHandler                        0x08000203   Thumb Code     0  startup_stm32f10x_hd.o(.text)
    USBWakeUp_IRQHandler                     0x08000203   Thumb Code     0  startup_stm32f10x_hd.o(.text)
    USB_HP_CAN1_TX_IRQHandler                0x08000203   Thumb Code     0  startup_stm32f10x_hd.o(.text)
    USB_LP_CAN1_RX0_IRQHandler               0x08000203   Thumb Code     0  startup_stm32f10x_hd.o(.text)
    WWDG_IRQHandler                          0x08000203   Thumb Code     0  startup_stm32f10x_hd.o(.text)
    __user_initial_stackheap                 0x08000205   Thumb Code     0  startup_stm32f10x_hd.o(.text)
    __use_no_semihosting                     0x08000221   Thumb Code     2  use_no_semi_2.o(.text)
    __2printf                                0x08000225   Thumb Code    20  noretval__2printf.o(.text)
    __printf                                 0x0800023d   Thumb Code   104  __printf.o(.text)
    _printf_int_hex                          0x080002a5   Thumb Code    84  _printf_hex_int.o(.text)
    _printf_longlong_hex                     0x080002a5   Thumb Code     0  _printf_hex_int.o(.text)
    __use_two_region_memory                  0x080002fd   Thumb Code     2  heapauxi.o(.text)
    __rt_heap_escrow$2region                 0x080002ff   Thumb Code     2  heapauxi.o(.text)
    __rt_heap_expand$2region                 0x08000301   Thumb Code     2  heapauxi.o(.text)
    __I$use$semihosting                      0x08000303   Thumb Code     0  use_no_semi.o(.text)
    __use_no_semihosting_swi                 0x08000303   Thumb Code     2  use_no_semi.o(.text)
    _printf_int_common                       0x08000305   Thumb Code   178  _printf_intcommon.o(.text)
    __lib_sel_fp_printf                      0x080003b7   Thumb Code     2  _printf_fp_dec.o(.text)
    _printf_fp_dec_real                      0x08000565   Thumb Code   620  _printf_fp_dec.o(.text)
    _printf_char_file                        0x080007d1   Thumb Code    32  _printf_char_file.o(.text)
    __rt_locale                              0x080007f5   Thumb Code     8  rt_locale_intlibspace.o(.text)
    _ll_udiv10                               0x080007fd   Thumb Code   138  lludiv10.o(.text)
    _printf_char_common                      0x08000893   Thumb Code    32  _printf_char_common.o(.text)
    _printf_fp_infnan                        0x080008b9   Thumb Code   112  _printf_fp_infnan.o(.text)
    _btod_etento                             0x08000939   Thumb Code   216  bigflt0.o(.text)
    ferror                                   0x08000a15   Thumb Code     8  ferror.o(.text)
    __user_libspace                          0x08000a1d   Thumb Code     8  libspace.o(.text)
    __user_perproc_libspace                  0x08000a1d   Thumb Code     0  libspace.o(.text)
    __user_perthread_libspace                0x08000a1d   Thumb Code     0  libspace.o(.text)
    __user_setup_stackheap                   0x08000a25   Thumb Code    74  sys_stackheap_outer.o(.text)
    exit                                     0x08000a6f   Thumb Code    12  exit.o(.text)
    strcmp                                   0x08000a7d   Thumb Code   128  strcmpv7m.o(.text)
    _btod_d2e                                0x08000afd   Thumb Code    62  btod.o(CL$$btod_d2e)
    _d2e_denorm_low                          0x08000b3b   Thumb Code    70  btod.o(CL$$btod_d2e_denorm_low)
    _d2e_norm_op1                            0x08000b81   Thumb Code    96  btod.o(CL$$btod_d2e_norm_op1)
    __btod_div_common                        0x08000be1   Thumb Code   696  btod.o(CL$$btod_div_common)
    _e2e                                     0x08000f19   Thumb Code   198  btod.o(CL$$btod_e2e)
    _btod_ediv                               0x08000fdf   Thumb Code    40  btod.o(CL$$btod_ediv)
    _btod_emul                               0x08001007   Thumb Code    40  btod.o(CL$$btod_emul)
    __btod_mult_common                       0x0800102f   Thumb Code   580  btod.o(CL$$btod_mult_common)
    HLW8112_Measure                          0x08001275   Thumb Code   322  hlw8112-spi.o(i.HLW8112_Measure)
    HLW8112_SPI_ReadByte                     0x080015c5   Thumb Code    64  hlw8112-spi.o(i.HLW8112_SPI_ReadByte)
    HLW8112_SPI_ReadReg                      0x0800160d   Thumb Code    12  hlw8112-spi.o(i.HLW8112_SPI_ReadReg)
    HLW8112_SPI_WriteByte                    0x08001619   Thumb Code    70  hlw8112-spi.o(i.HLW8112_SPI_WriteByte)
    HLW8112_SPI_WriteReg                     0x08001669   Thumb Code    16  hlw8112-spi.o(i.HLW8112_SPI_WriteReg)
    HLW8112_WriteREG_DIS                     0x08001679   Thumb Code    30  hlw8112-spi.o(i.HLW8112_WriteREG_DIS)
    HLW8112_WriteREG_EN                      0x080016a1   Thumb Code    30  hlw8112-spi.o(i.HLW8112_WriteREG_EN)
    Init_HLW8112                             0x080016c9   Thumb Code   530  hlw8112-spi.o(i.Init_HLW8112)
    Judge_CheckSum_HLW8112_Calfactor         0x08001a49   Thumb Code   184  hlw8112-spi.o(i.Judge_CheckSum_HLW8112_Calfactor)
    LED_Init                                 0x08001b21   Thumb Code   198  led.o(i.LED_Init)
    MYRCC_DeInit                             0x08001bfd   Thumb Code    90  sys.o(i.MYRCC_DeInit)
    MY_NVIC_Init                             0x08001c65   Thumb Code   116  sys.o(i.MY_NVIC_Init)
    MY_NVIC_PriorityGroupConfig              0x08001cdd   Thumb Code    32  sys.o(i.MY_NVIC_PriorityGroupConfig)
    MY_NVIC_SetVectorTable                   0x08001d05   Thumb Code    12  sys.o(i.MY_NVIC_SetVectorTable)
    Read_HLW8112_DC_Offset                   0x08001d19   Thumb Code    52  hlw8112-spi.o(i.Read_HLW8112_DC_Offset)
    Read_HLW8112_EA                          0x08001d5d   Thumb Code   230  hlw8112-spi.o(i.Read_HLW8112_EA)
    Read_HLW8112_EB                          0x08001e61   Thumb Code   230  hlw8112-spi.o(i.Read_HLW8112_EB)
    Read_HLW8112_PA                          0x08001f65   Thumb Code   128  hlw8112-spi.o(i.Read_HLW8112_PA)
    Read_HLW8112_PA_I                        0x08001ff5   Thumb Code   126  hlw8112-spi.o(i.Read_HLW8112_PA_I)
    Read_HLW8112_PB                          0x08002085   Thumb Code   128  hlw8112-spi.o(i.Read_HLW8112_PB)
    Read_HLW8112_PB_I                        0x08002115   Thumb Code   126  hlw8112-spi.o(i.Read_HLW8112_PB_I)
    Read_HLW8112_RegData                     0x080021a5   Thumb Code    54  hlw8112-spi.o(i.Read_HLW8112_RegData)
    Read_HLW8112_U                           0x080021e1   Thumb Code   126  hlw8112-spi.o(i.Read_HLW8112_U)
    Stm32_Clock_Init                         0x08002275   Thumb Code   130  sys.o(i.Stm32_Clock_Init)
    TIM3_IRQHandler                          0x08002301   Thumb Code    46  timer.o(i.TIM3_IRQHandler)
    TIM3_Int_Init                            0x0800233d   Thumb Code    72  timer.o(i.TIM3_Int_Init)
    USART1_IRQHandler                        0x0800238d   Thumb Code   118  usart.o(i.USART1_IRQHandler)
    __ARM_fpclassify                         0x08002411   Thumb Code    40  fpclassify.o(i.__ARM_fpclassify)
    _sys_exit                                0x08002439   Thumb Code     6  usart.o(i._sys_exit)
    delay_init                               0x08002441   Thumb Code    56  delay.o(i.delay_init)
    delay_ms                                 0x08002481   Thumb Code    56  delay.o(i.delay_ms)
    delay_us                                 0x080024bd   Thumb Code    56  delay.o(i.delay_us)
    fputc                                    0x080024f9   Thumb Code    24  usart.o(i.fputc)
    main                                     0x08002515   Thumb Code    70  test.o(i.main)
    uart_init                                0x08002561   Thumb Code   202  usart.o(i.uart_init)
    _get_lc_numeric                          0x0800263d   Thumb Code    44  lc_numeric_c.o(locale$$code)
    __fpl_dretinf                            0x08002669   Thumb Code    12  dretinf.o(x$fpl$dretinf)
    __aeabi_f2d                              0x08002675   Thumb Code     0  f2d.o(x$fpl$f2d)
    _f2d                                     0x08002675   Thumb Code    86  f2d.o(x$fpl$f2d)
    __aeabi_fadd                             0x080026cd   Thumb Code     0  faddsub_clz.o(x$fpl$fadd)
    _fadd                                    0x080026cd   Thumb Code   196  faddsub_clz.o(x$fpl$fadd)
    __fpl_fcmp_Inf                           0x08002791   Thumb Code    24  fcmpi.o(x$fpl$fcmpinf)
    __aeabi_fdiv                             0x080027a9   Thumb Code     0  fdiv.o(x$fpl$fdiv)
    _fdiv                                    0x080027a9   Thumb Code   384  fdiv.o(x$fpl$fdiv)
    __aeabi_f2uiz                            0x0800292d   Thumb Code     0  ffixu.o(x$fpl$ffixu)
    _ffixu                                   0x0800292d   Thumb Code    62  ffixu.o(x$fpl$ffixu)
    __aeabi_ui2f                             0x0800296d   Thumb Code     0  fflt_clz.o(x$fpl$ffltu)
    _ffltu                                   0x0800296d   Thumb Code    38  fflt_clz.o(x$fpl$ffltu)
    __aeabi_cfcmple                          0x08002995   Thumb Code     0  fleqf.o(x$fpl$fleqf)
    _fcmple                                  0x08002995   Thumb Code   104  fleqf.o(x$fpl$fleqf)
    __fpl_fcmple_InfNaN                      0x080029e7   Thumb Code     0  fleqf.o(x$fpl$fleqf)
    __aeabi_fmul                             0x080029fd   Thumb Code     0  fmul.o(x$fpl$fmul)
    _fmul                                    0x080029fd   Thumb Code   258  fmul.o(x$fpl$fmul)
    __fpl_fnaninf                            0x08002aff   Thumb Code   140  fnaninf.o(x$fpl$fnaninf)
    __fpl_fretinf                            0x08002b8b   Thumb Code    10  fretinf.o(x$fpl$fretinf)
    __aeabi_cfrcmple                         0x08002b95   Thumb Code     0  frleqf.o(x$fpl$frleqf)
    _frcmple                                 0x08002b95   Thumb Code    98  frleqf.o(x$fpl$frleqf)
    __aeabi_frsub                            0x08002bf7   Thumb Code     0  faddsub_clz.o(x$fpl$frsb)
    _frsb                                    0x08002bf7   Thumb Code    20  faddsub_clz.o(x$fpl$frsb)
    __aeabi_fsub                             0x08002c0d   Thumb Code     0  faddsub_clz.o(x$fpl$fsub)
    _fsub                                    0x08002c0d   Thumb Code   234  faddsub_clz.o(x$fpl$fsub)
    _printf_fp_dec                           0x08002cf7   Thumb Code     4  printf1.o(x$fpl$printf1)
    __I$use$fp                               0x08002cfa   Number         0  usenofp.o(x$fpl$usenofp)
    Region$$Table$$Base                      0x08002db8   Number         0  anon$$obj.o(Region$$Table)
    Region$$Table$$Limit                     0x08002dd8   Number         0  anon$$obj.o(Region$$Table)
    __stdout                                 0x20000004   Data           4  usart.o(.data)
    USART_RX_STA                             0x20000008   Data           2  usart.o(.data)
    U32_ChipID                               0x2000000c   Data           4  hlw8112-spi.o(.data)
    U16_TempData                             0x20000010   Data           4  hlw8112-spi.o(.data)
    U16_IFData                               0x20000014   Data           4  hlw8112-spi.o(.data)
    U16_RIFData                              0x20000018   Data           4  hlw8112-spi.o(.data)
    U16_RMSIAC_RegData                       0x2000001c   Data           4  hlw8112-spi.o(.data)
    U16_RMSIBC_RegData                       0x20000020   Data           4  hlw8112-spi.o(.data)
    U16_RMSUC_RegData                        0x20000024   Data           4  hlw8112-spi.o(.data)
    U16_PowerPAC_RegData                     0x20000028   Data           4  hlw8112-spi.o(.data)
    U16_PowerPBC_RegData                     0x2000002c   Data           4  hlw8112-spi.o(.data)
    U16_PowerSC_RegData                      0x20000030   Data           4  hlw8112-spi.o(.data)
    U16_EnergyAC_RegData                     0x20000034   Data           4  hlw8112-spi.o(.data)
    U16_EnergyBC_RegData                     0x20000038   Data           4  hlw8112-spi.o(.data)
    U16_HFconst_RegData                      0x2000003c   Data           4  hlw8112-spi.o(.data)
    U16_RMSIA_Offset                         0x20000040   Data           4  hlw8112-spi.o(.data)
    U16_RMSIB_Offset                         0x20000044   Data           4  hlw8112-spi.o(.data)
    U16_PAOS_Offset                          0x20000048   Data           4  hlw8112-spi.o(.data)
    U16_PBOS_Offset                          0x2000004c   Data           4  hlw8112-spi.o(.data)
    U32_RMSIA_RegData                        0x20000050   Data           4  hlw8112-spi.o(.data)
    U32_RMSU_RegData                         0x20000054   Data           4  hlw8112-spi.o(.data)
    U32_POWERPA_RegData                      0x20000058   Data           4  hlw8112-spi.o(.data)
    U32_ENERGY_PA_RegData                    0x2000005c   Data           4  hlw8112-spi.o(.data)
    U32_RMSIB_RegData                        0x20000060   Data           4  hlw8112-spi.o(.data)
    U32_POWERPB_RegData                      0x20000064   Data           4  hlw8112-spi.o(.data)
    U32_ENERGY_PB_RegData                    0x20000068   Data           4  hlw8112-spi.o(.data)
    U32_AC_V                                 0x2000006c   Data           4  hlw8112-spi.o(.data)
    U32_AC_I                                 0x20000070   Data           4  hlw8112-spi.o(.data)
    U32_AC_P                                 0x20000074   Data           4  hlw8112-spi.o(.data)
    U32_AC_E                                 0x20000078   Data           4  hlw8112-spi.o(.data)
    U32_AC_BACKUP_E                          0x2000007c   Data           4  hlw8112-spi.o(.data)
    U8_AC_PF                                 0x20000080   Data           4  hlw8112-spi.o(.data)
    U8_Angle                                 0x20000084   Data           4  hlw8112-spi.o(.data)
    U32_AC_I_B                               0x20000088   Data           4  hlw8112-spi.o(.data)
    U32_AC_P_B                               0x2000008c   Data           4  hlw8112-spi.o(.data)
    U32_AC_E_B                               0x20000090   Data           4  hlw8112-spi.o(.data)
    U32_AC_BACKUP_E_B                        0x20000094   Data           4  hlw8112-spi.o(.data)
    U16_AC_LINE_Freq                         0x20000098   Data           4  hlw8112-spi.o(.data)
    U16_IF_RegData                           0x2000009c   Data           4  hlw8112-spi.o(.data)
    B_ReadData_HLW8110                       0x200000a0   Data           1  timer.o(.data)
    USART_RX_BUF                             0x200000a4   Data         200  usart.o(.bss)
    __libspace_start                         0x2000016c   Data          96  libspace.o(.bss)
    __temporary_stack_top$libspace           0x200001cc   Data           0  libspace.o(.bss)



==============================================================================

Memory Map of the image

  Image Entry point : 0x08000131

  Load Region LR_IROM1 (Base: 0x08000000, Size: 0x00002e98, Max: 0x00040000, ABSOLUTE)

    Execution Region ER_IROM1 (Base: 0x08000000, Size: 0x00002df4, Max: 0x00040000, ABSOLUTE)

    Base Addr    Size         Type   Attr      Idx    E Section Name        Object

    0x08000000   0x00000130   Data   RO          105    RESET               startup_stm32f10x_hd.o
    0x08000130   0x00000008   Code   RO          495  * !!!main             c_w.l(__main.o)
    0x08000138   0x00000034   Code   RO          746    !!!scatter          c_w.l(__scatter.o)
    0x0800016c   0x0000001a   Code   RO          748    !!handler_copy      c_w.l(__scatter_copy.o)
    0x08000186   0x00000002   PAD
    0x08000188   0x0000001c   Code   RO          750    !!handler_zi        c_w.l(__scatter_zi.o)
    0x080001a4   0x00000000   Code   RO          492    .ARM.Collect$$_printf_percent$$00000000  c_w.l(_printf_percent.o)
    0x080001a4   0x00000006   Code   RO          491    .ARM.Collect$$_printf_percent$$00000003  c_w.l(_printf_f.o)
    0x080001aa   0x00000006   Code   RO          490    .ARM.Collect$$_printf_percent$$0000000C  c_w.l(_printf_x.o)
    0x080001b0   0x00000004   Code   RO          534    .ARM.Collect$$_printf_percent$$00000017  c_w.l(_printf_percent_end.o)
    0x080001b4   0x00000002   Code   RO          624    .ARM.Collect$$libinit$$00000000  c_w.l(libinit.o)
    0x080001b6   0x00000000   Code   RO          626    .ARM.Collect$$libinit$$00000002  c_w.l(libinit2.o)
    0x080001b6   0x00000000   Code   RO          628    .ARM.Collect$$libinit$$00000004  c_w.l(libinit2.o)
    0x080001b6   0x00000000   Code   RO          631    .ARM.Collect$$libinit$$0000000A  c_w.l(libinit2.o)
    0x080001b6   0x00000000   Code   RO          633    .ARM.Collect$$libinit$$0000000C  c_w.l(libinit2.o)
    0x080001b6   0x00000000   Code   RO          635    .ARM.Collect$$libinit$$0000000E  c_w.l(libinit2.o)
    0x080001b6   0x00000006   Code   RO          636    .ARM.Collect$$libinit$$0000000F  c_w.l(libinit2.o)
    0x080001bc   0x00000000   Code   RO          638    .ARM.Collect$$libinit$$00000011  c_w.l(libinit2.o)
    0x080001bc   0x00000000   Code   RO          640    .ARM.Collect$$libinit$$00000013  c_w.l(libinit2.o)
    0x080001bc   0x00000000   Code   RO          642    .ARM.Collect$$libinit$$00000015  c_w.l(libinit2.o)
    0x080001bc   0x0000000a   Code   RO          643    .ARM.Collect$$libinit$$00000016  c_w.l(libinit2.o)
    0x080001c6   0x00000000   Code   RO          644    .ARM.Collect$$libinit$$00000017  c_w.l(libinit2.o)
    0x080001c6   0x00000000   Code   RO          646    .ARM.Collect$$libinit$$00000019  c_w.l(libinit2.o)
    0x080001c6   0x00000000   Code   RO          648    .ARM.Collect$$libinit$$0000001B  c_w.l(libinit2.o)
    0x080001c6   0x00000000   Code   RO          650    .ARM.Collect$$libinit$$0000001D  c_w.l(libinit2.o)
    0x080001c6   0x00000000   Code   RO          652    .ARM.Collect$$libinit$$0000001F  c_w.l(libinit2.o)
    0x080001c6   0x00000000   Code   RO          654    .ARM.Collect$$libinit$$00000021  c_w.l(libinit2.o)
    0x080001c6   0x00000000   Code   RO          656    .ARM.Collect$$libinit$$00000023  c_w.l(libinit2.o)
    0x080001c6   0x00000000   Code   RO          658    .ARM.Collect$$libinit$$00000025  c_w.l(libinit2.o)
    0x080001c6   0x00000000   Code   RO          662    .ARM.Collect$$libinit$$0000002C  c_w.l(libinit2.o)
    0x080001c6   0x00000000   Code   RO          664    .ARM.Collect$$libinit$$0000002E  c_w.l(libinit2.o)
    0x080001c6   0x00000000   Code   RO          666    .ARM.Collect$$libinit$$00000030  c_w.l(libinit2.o)
    0x080001c6   0x00000000   Code   RO          668    .ARM.Collect$$libinit$$00000032  c_w.l(libinit2.o)
    0x080001c6   0x00000002   Code   RO          669    .ARM.Collect$$libinit$$00000033  c_w.l(libinit2.o)
    0x080001c8   0x00000002   Code   RO          697    .ARM.Collect$$libshutdown$$00000000  c_w.l(libshutdown.o)
    0x080001ca   0x00000000   Code   RO          707    .ARM.Collect$$libshutdown$$00000003  c_w.l(libshutdown2.o)
    0x080001ca   0x00000000   Code   RO          710    .ARM.Collect$$libshutdown$$00000006  c_w.l(libshutdown2.o)
    0x080001ca   0x00000000   Code   RO          713    .ARM.Collect$$libshutdown$$00000009  c_w.l(libshutdown2.o)
    0x080001ca   0x00000000   Code   RO          715    .ARM.Collect$$libshutdown$$0000000B  c_w.l(libshutdown2.o)
    0x080001ca   0x00000000   Code   RO          718    .ARM.Collect$$libshutdown$$0000000E  c_w.l(libshutdown2.o)
    0x080001ca   0x00000002   Code   RO          719    .ARM.Collect$$libshutdown$$0000000F  c_w.l(libshutdown2.o)
    0x080001cc   0x00000000   Code   RO          527    .ARM.Collect$$rtentry$$00000000  c_w.l(__rtentry.o)
    0x080001cc   0x00000000   Code   RO          545    .ARM.Collect$$rtentry$$00000002  c_w.l(__rtentry2.o)
    0x080001cc   0x00000006   Code   RO          557    .ARM.Collect$$rtentry$$00000004  c_w.l(__rtentry4.o)
    0x080001d2   0x00000000   Code   RO          547    .ARM.Collect$$rtentry$$00000009  c_w.l(__rtentry2.o)
    0x080001d2   0x00000004   Code   RO          548    .ARM.Collect$$rtentry$$0000000A  c_w.l(__rtentry2.o)
    0x080001d6   0x00000000   Code   RO          550    .ARM.Collect$$rtentry$$0000000C  c_w.l(__rtentry2.o)
    0x080001d6   0x00000008   Code   RO          551    .ARM.Collect$$rtentry$$0000000D  c_w.l(__rtentry2.o)
    0x080001de   0x00000002   Code   RO          670    .ARM.Collect$$rtexit$$00000000  c_w.l(rtexit.o)
    0x080001e0   0x00000000   Code   RO          677    .ARM.Collect$$rtexit$$00000002  c_w.l(rtexit2.o)
    0x080001e0   0x00000004   Code   RO          678    .ARM.Collect$$rtexit$$00000003  c_w.l(rtexit2.o)
    0x080001e4   0x00000006   Code   RO          679    .ARM.Collect$$rtexit$$00000004  c_w.l(rtexit2.o)
    0x080001ea   0x00000002   PAD
    0x080001ec   0x00000034   Code   RO          106    .text               startup_stm32f10x_hd.o
    0x08000220   0x00000002   Code   RO          441    .text               c_w.l(use_no_semi_2.o)
    0x08000222   0x00000002   PAD
    0x08000224   0x00000018   Code   RO          445    .text               c_w.l(noretval__2printf.o)
    0x0800023c   0x00000068   Code   RO          447    .text               c_w.l(__printf.o)
    0x080002a4   0x00000058   Code   RO          452    .text               c_w.l(_printf_hex_int.o)
    0x080002fc   0x00000006   Code   RO          493    .text               c_w.l(heapauxi.o)
    0x08000302   0x00000002   Code   RO          525    .text               c_w.l(use_no_semi.o)
    0x08000304   0x000000b2   Code   RO          528    .text               c_w.l(_printf_intcommon.o)
    0x080003b6   0x0000041a   Code   RO          530    .text               c_w.l(_printf_fp_dec.o)
    0x080007d0   0x00000024   Code   RO          532    .text               c_w.l(_printf_char_file.o)
    0x080007f4   0x00000008   Code   RO          562    .text               c_w.l(rt_locale_intlibspace.o)
    0x080007fc   0x0000008a   Code   RO          564    .text               c_w.l(lludiv10.o)
    0x08000886   0x00000002   PAD
    0x08000888   0x00000030   Code   RO          566    .text               c_w.l(_printf_char_common.o)
    0x080008b8   0x00000080   Code   RO          568    .text               c_w.l(_printf_fp_infnan.o)
    0x08000938   0x000000dc   Code   RO          570    .text               c_w.l(bigflt0.o)
    0x08000a14   0x00000008   Code   RO          595    .text               c_w.l(ferror.o)
    0x08000a1c   0x00000008   Code   RO          608    .text               c_w.l(libspace.o)
    0x08000a24   0x0000004a   Code   RO          611    .text               c_w.l(sys_stackheap_outer.o)
    0x08000a6e   0x0000000c   Code   RO          615    .text               c_w.l(exit.o)
    0x08000a7a   0x00000002   PAD
    0x08000a7c   0x00000080   Code   RO          617    .text               c_w.l(strcmpv7m.o)
    0x08000afc   0x0000003e   Code   RO          573    CL$$btod_d2e        c_w.l(btod.o)
    0x08000b3a   0x00000046   Code   RO          575    CL$$btod_d2e_denorm_low  c_w.l(btod.o)
    0x08000b80   0x00000060   Code   RO          574    CL$$btod_d2e_norm_op1  c_w.l(btod.o)
    0x08000be0   0x00000338   Code   RO          583    CL$$btod_div_common  c_w.l(btod.o)
    0x08000f18   0x000000c6   Code   RO          580    CL$$btod_e2e        c_w.l(btod.o)
    0x08000fde   0x00000028   Code   RO          577    CL$$btod_ediv       c_w.l(btod.o)
    0x08001006   0x00000028   Code   RO          576    CL$$btod_emul       c_w.l(btod.o)
    0x0800102e   0x00000244   Code   RO          582    CL$$btod_mult_common  c_w.l(btod.o)
    0x08001272   0x00000002   PAD
    0x08001274   0x00000350   Code   RO          265    i.HLW8112_Measure   hlw8112-spi.o
    0x080015c4   0x00000048   Code   RO          266    i.HLW8112_SPI_ReadByte  hlw8112-spi.o
    0x0800160c   0x0000000c   Code   RO          267    i.HLW8112_SPI_ReadReg  hlw8112-spi.o
    0x08001618   0x00000050   Code   RO          268    i.HLW8112_SPI_WriteByte  hlw8112-spi.o
    0x08001668   0x00000010   Code   RO          269    i.HLW8112_SPI_WriteReg  hlw8112-spi.o
    0x08001678   0x00000028   Code   RO          270    i.HLW8112_WriteREG_DIS  hlw8112-spi.o
    0x080016a0   0x00000028   Code   RO          271    i.HLW8112_WriteREG_EN  hlw8112-spi.o
    0x080016c8   0x00000380   Code   RO          272    i.Init_HLW8112      hlw8112-spi.o
    0x08001a48   0x000000d8   Code   RO          273    i.Judge_CheckSum_HLW8112_Calfactor  hlw8112-spi.o
    0x08001b20   0x000000dc   Code   RO          225    i.LED_Init          led.o
    0x08001bfc   0x00000068   Code   RO            6    i.MYRCC_DeInit      sys.o
    0x08001c64   0x00000078   Code   RO            7    i.MY_NVIC_Init      sys.o
    0x08001cdc   0x00000028   Code   RO            8    i.MY_NVIC_PriorityGroupConfig  sys.o
    0x08001d04   0x00000014   Code   RO            9    i.MY_NVIC_SetVectorTable  sys.o
    0x08001d18   0x00000044   Code   RO          274    i.Read_HLW8112_DC_Offset  hlw8112-spi.o
    0x08001d5c   0x00000104   Code   RO          275    i.Read_HLW8112_EA   hlw8112-spi.o
    0x08001e60   0x00000104   Code   RO          276    i.Read_HLW8112_EB   hlw8112-spi.o
    0x08001f64   0x00000090   Code   RO          277    i.Read_HLW8112_PA   hlw8112-spi.o
    0x08001ff4   0x00000090   Code   RO          278    i.Read_HLW8112_PA_I  hlw8112-spi.o
    0x08002084   0x00000090   Code   RO          279    i.Read_HLW8112_PB   hlw8112-spi.o
    0x08002114   0x00000090   Code   RO          280    i.Read_HLW8112_PB_I  hlw8112-spi.o
    0x080021a4   0x0000003c   Code   RO          281    i.Read_HLW8112_RegData  hlw8112-spi.o
    0x080021e0   0x00000094   Code   RO          282    i.Read_HLW8112_U    hlw8112-spi.o
    0x08002274   0x0000008c   Code   RO           10    i.Stm32_Clock_Init  sys.o
    0x08002300   0x0000003c   Code   RO          418    i.TIM3_IRQHandler   timer.o
    0x0800233c   0x00000050   Code   RO          419    i.TIM3_Int_Init     timer.o
    0x0800238c   0x00000084   Code   RO          178    i.USART1_IRQHandler  usart.o
    0x08002410   0x00000028   Code   RO          606    i.__ARM_fpclassify  m_ws.l(fpclassify.o)
    0x08002438   0x00000006   Code   RO          179    i._sys_exit         usart.o
    0x0800243e   0x00000002   PAD
    0x08002440   0x00000040   Code   RO          152    i.delay_init        delay.o
    0x08002480   0x0000003c   Code   RO          153    i.delay_ms          delay.o
    0x080024bc   0x0000003c   Code   RO          154    i.delay_us          delay.o
    0x080024f8   0x0000001c   Code   RO          180    i.fputc             usart.o
    0x08002514   0x0000004c   Code   RO          110    i.main              test.o
    0x08002560   0x000000dc   Code   RO          182    i.uart_init         usart.o
    0x0800263c   0x0000002c   Code   RO          600    locale$$code        c_w.l(lc_numeric_c.o)
    0x08002668   0x0000000c   Code   RO          535    x$fpl$dretinf       fz_ws.l(dretinf.o)
    0x08002674   0x00000056   Code   RO          497    x$fpl$f2d           fz_ws.l(f2d.o)
    0x080026ca   0x00000002   PAD
    0x080026cc   0x000000c4   Code   RO          499    x$fpl$fadd          fz_ws.l(faddsub_clz.o)
    0x08002790   0x00000018   Code   RO          602    x$fpl$fcmpinf       fz_ws.l(fcmpi.o)
    0x080027a8   0x00000184   Code   RO          506    x$fpl$fdiv          fz_ws.l(fdiv.o)
    0x0800292c   0x0000003e   Code   RO          509    x$fpl$ffixu         fz_ws.l(ffixu.o)
    0x0800296a   0x00000002   PAD
    0x0800296c   0x00000026   Code   RO          513    x$fpl$ffltu         fz_ws.l(fflt_clz.o)
    0x08002992   0x00000002   PAD
    0x08002994   0x00000068   Code   RO          537    x$fpl$fleqf         fz_ws.l(fleqf.o)
    0x080029fc   0x00000102   Code   RO          519    x$fpl$fmul          fz_ws.l(fmul.o)
    0x08002afe   0x0000008c   Code   RO          539    x$fpl$fnaninf       fz_ws.l(fnaninf.o)
    0x08002b8a   0x0000000a   Code   RO          541    x$fpl$fretinf       fz_ws.l(fretinf.o)
    0x08002b94   0x00000062   Code   RO          521    x$fpl$frleqf        fz_ws.l(frleqf.o)
    0x08002bf6   0x00000014   Code   RO          500    x$fpl$frsb          fz_ws.l(faddsub_clz.o)
    0x08002c0a   0x00000002   PAD
    0x08002c0c   0x000000ea   Code   RO          501    x$fpl$fsub          fz_ws.l(faddsub_clz.o)
    0x08002cf6   0x00000004   Code   RO          523    x$fpl$printf1       fz_ws.l(printf1.o)
    0x08002cfa   0x00000000   Code   RO          543    x$fpl$usenofp       fz_ws.l(usenofp.o)
    0x08002cfa   0x00000028   Data   RO          453    .constdata          c_w.l(_printf_hex_int.o)
    0x08002d22   0x00000002   PAD
    0x08002d24   0x00000094   Data   RO          571    .constdata          c_w.l(bigflt0.o)
    0x08002db8   0x00000020   Data   RO          744    Region$$Table       anon$$obj.o
    0x08002dd8   0x0000001c   Data   RO          599    locale$$data        c_w.l(lc_numeric_c.o)


    Execution Region RW_IRAM1 (Base: 0x20000000, Size: 0x000005d0, Max: 0x0000c000, ABSOLUTE)

    Base Addr    Size         Type   Attr      Idx    E Section Name        Object

    0x20000000   0x00000004   Data   RW          155    .data               delay.o
    0x20000004   0x00000006   Data   RW          184    .data               usart.o
    0x2000000a   0x00000002   PAD
    0x2000000c   0x00000094   Data   RW          287    .data               hlw8112-spi.o
    0x200000a0   0x00000001   Data   RW          420    .data               timer.o
    0x200000a1   0x00000003   PAD
    0x200000a4   0x000000c8   Zero   RW          183    .bss                usart.o
    0x2000016c   0x00000060   Zero   RW          609    .bss                c_w.l(libspace.o)
    0x200001cc   0x00000004   PAD
    0x200001d0   0x00000000   Zero   RW          104    HEAP                startup_stm32f10x_hd.o
    0x200001d0   0x00000400   Zero   RW          103    STACK               startup_stm32f10x_hd.o


==============================================================================

Image component sizes


      Code (inc. data)   RO Data    RW Data    ZI Data      Debug   Object Name

       184         16          0          4          0       1863   delay.o
      3592       1134          0        148          0      14287   hlw8112-spi.o
       220         22          0          0          0        519   led.o
        52         18        304          0       1024        824   startup_stm32f10x_hd.o
       424         44          0          0          0     210660   sys.o
        76          6          0          0          0        495   test.o
       140         22          0          1          0       1399   timer.o
       386         36          0          6        200       4280   usart.o

    ----------------------------------------------------------------------
      5076       1298        336        164       1224     234327   Object Totals
         0          0         32          0          0          0   (incl. Generated)
         2          0          0          5          0          0   (incl. Padding)

    ----------------------------------------------------------------------

      Code (inc. data)   RO Data    RW Data    ZI Data      Debug   Library Member Name

         8          0          0          0          0         68   __main.o
       104          0          0          0          0         84   __printf.o
         0          0          0          0          0          0   __rtentry.o
        12          0          0          0          0          0   __rtentry2.o
         6          0          0          0          0          0   __rtentry4.o
        52          8          0          0          0          0   __scatter.o
        26          0          0          0          0          0   __scatter_copy.o
        28          0          0          0          0          0   __scatter_zi.o
        48          6          0          0          0         96   _printf_char_common.o
        36          4          0          0          0         80   _printf_char_file.o
         6          0          0          0          0          0   _printf_f.o
      1050          0          0          0          0        216   _printf_fp_dec.o
       128         16          0          0          0         84   _printf_fp_infnan.o
        88          4         40          0          0         88   _printf_hex_int.o
       178          0          0          0          0         88   _printf_intcommon.o
         0          0          0          0          0          0   _printf_percent.o
         4          0          0          0          0          0   _printf_percent_end.o
         6          0          0          0          0          0   _printf_x.o
       220          4        148          0          0         96   bigflt0.o
      1910        128          0          0          0        672   btod.o
        12          0          0          0          0         72   exit.o
         8          0          0          0          0         68   ferror.o
         6          0          0          0          0        152   heapauxi.o
        44         10         28          0          0         76   lc_numeric_c.o
         2          0          0          0          0          0   libinit.o
        18          0          0          0          0          0   libinit2.o
         2          0          0          0          0          0   libshutdown.o
         2          0          0          0          0          0   libshutdown2.o
         8          4          0          0         96         68   libspace.o
       138          0          0          0          0         80   lludiv10.o
        24          4          0          0          0         84   noretval__2printf.o
         8          4          0          0          0         68   rt_locale_intlibspace.o
         2          0          0          0          0          0   rtexit.o
        10          0          0          0          0          0   rtexit2.o
       128          0          0          0          0         68   strcmpv7m.o
        74          0          0          0          0         80   sys_stackheap_outer.o
         2          0          0          0          0         68   use_no_semi.o
         2          0          0          0          0         68   use_no_semi_2.o
        12          0          0          0          0         68   dretinf.o
        86          4          0          0          0         84   f2d.o
       450          8          0          0          0        236   faddsub_clz.o
        24          0          0          0          0         68   fcmpi.o
       388         76          0          0          0         96   fdiv.o
        62          4          0          0          0         84   ffixu.o
        38          0          0          0          0         68   fflt_clz.o
       104          4          0          0          0         84   fleqf.o
       258          4          0          0          0         84   fmul.o
       140          4          0          0          0         84   fnaninf.o
        10          0          0          0          0         68   fretinf.o
        98          0          0          0          0         68   frleqf.o
         4          0          0          0          0         68   printf1.o
         0          0          0          0          0          0   usenofp.o
        40          0          0          0          0         68   fpclassify.o

    ----------------------------------------------------------------------
      6134        296        218          0        100       3752   Library Totals
        20          0          2          0          4          0   (incl. Padding)

    ----------------------------------------------------------------------

      Code (inc. data)   RO Data    RW Data    ZI Data      Debug   Library Name

      4400        192        216          0         96       2524   c_w.l
      1674        104          0          0          0       1160   fz_ws.l
        40          0          0          0          0         68   m_ws.l

    ----------------------------------------------------------------------
      6134        296        218          0        100       3752   Library Totals

    ----------------------------------------------------------------------

==============================================================================


      Code (inc. data)   RO Data    RW Data    ZI Data      Debug   

     11210       1594        554        164       1324     234279   Grand Totals
     11210       1594        554        164       1324     234279   ELF Image Totals
     11210       1594        554        164          0          0   ROM Totals

==============================================================================

    Total RO  Size (Code + RO Data)                11764 (  11.49kB)
    Total RW  Size (RW Data + ZI Data)              1488 (   1.45kB)
    Total ROM Size (Code + RO Data + RW Data)      11928 (  11.65kB)

==============================================================================

