:020000040800F2
:10000000D0050020ED010008F1010008F30100080F
:10001000F5010008F7010008F901000800000000E0
:10002000000000000000000000000000FB010008CC
:10003000FD01000800000000FF01000801020008A7
:10004000030200080302000803020008030200087C
:10005000030200080302000803020008030200086C
:10006000030200080302000803020008030200085C
:10007000030200080302000803020008030200084C
:10008000030200080302000803020008030200083C
:10009000030200080302000803020008030200082C
:1000A000030200080302000803020008030200081C
:1000B00003020008012300080302000803020008ED
:1000C00003020008030200080302000803020008FC
:1000D000030200088D230008030200080302000841
:1000E00003020008030200080302000803020008DC
:1000F00003020008030200080302000803020008CC
:1001000003020008030200080302000803020008BB
:1001100003020008030200080302000803020008AB
:10012000030200080302000803020008030200089B
:1001300000F002F800F04AF80AA090E8000C8244AF
:100140008344AAF10107DA4501D100F03FF8AFF28C
:10015000090EBAE80F0013F0010F18BFFB1A43F0A5
:1001600001031847542C0000742C0000103A24BFDF
:1001700078C878C1FAD8520724BF30C830C144BF0C
:1001800004680C607047000000230024002500264E
:10019000103A28BF78C1FBD8520728BF30C148BFEA
:1001A0000B607047662902F0A685782900F07A80F6
:1001B000002070471FB500F01DFB04000020002147
:1001C00002F03CFAE0601FBD10B510BD00F02AFC43
:1001D0001146FFF7EFFF02F09DF900F048FC03B471
:1001E000FFF7F2FF03BC02F027F9000008480047C0
:1001F000FEE7FEE7FEE7FEE7FEE7FEE7FEE7FEE7D7
:10020000FEE7FEE703480449024A044B704700003A
:1002100031010008D0010020D0050020D0010020CD
:10022000704700000FB4044910B503AA029800F00B
:10023000CFFA10BC5DF814FB040000202DE9F0415A
:100240000E460446002020622046E168884730B30D
:10025000252805D0D4E901219047206A401CF2E707
:10026000E168204600278847050018D0A5F1410025
:10027000192802D820354FF4006732462946204617
:100280002760FFF78FFF40B1012804D0F61D26F04C
:1002900007060836D8E7361DD6E72846DAE7206A8B
:1002A000BDE8F08170B504460D4621461068AFF3F5
:1002B00000802188090502D50F4A7A4402E00E4ADF
:1002C0007A440E32002104F1240305E000F00F0609
:1002D0000009965D5E54491C0028F7D12078002360
:1002E000000704D5702D02D009B102231132204637
:1002F000BDE8704000F006B83C2A00007047704727
:10030000704770472DE9F0470D46994692460446DE
:1003100000F124080168880604D5E06921F0100185
:10032000216000E00120A84201DD471B00E000271A
:10033000A1697A1902EB0900081AA0612078C006A9
:1003400002D42046AFF30080002608E0D4E9012162
:100350001AF806009047206A401C761C20624E4521
:10036000F4DB2078C0060AD52046AFF3008006E013
:10037000D4E9012130209047206A401C2062381EB9
:10038000A7F10107F4DC07E0D4E9012118F8050022
:100390009047206A401C2062281EA5F10105F3DC6D
:1003A0002046AFF300802078000602D50220BDE889
:1003B000F0870120FBE770472DE9FF4F0C461E46F2
:1003C0004FF0FF378BB0D2E90001DDF860800A9072
:1003D0008A46C1F30A5505B93D46002108464FF04B
:1003E0000000BAF1000F00F4400005DA00EB8000D5
:1003F0004FF4400101EA50004FEA9059B9F1010F62
:1004000000DDB9460A9850EA4A000ED044F6105072
:10041000A5F2FF3545432F14B8F1000F1ED07542E9
:10042000291E1EDDC9F100021CE0B8F1010F4FF0DA
:10043000000001D0302103E0F24305E02154401CCC
:10044000B042FBDB30460022002121540B99C1F859
:100450000880C1E900200FB0BDE8F08FBD1B6D1C06
:10046000DEE74A4600DA694206A800F065FA06AB04
:1004700093E8070003AB83E8070050460A9900F0B1
:100480003DFB8DE80700A0F500501F380090039851
:10049000002D09DD42F21F014A46084403A90390DA
:1004A000684600F09CFD08E0A0F500504A461F3861
:1004B00003A90390684600F0A6FD8DE8070000043C
:1004C000000C03D04FF0FF30410800E01046B8F1B7
:1004D000000F03D00022009215461EE0751E05D4C1
:1004E00000F08CF9303262556D1EF9D5B346012209
:1004F000084302D000227F1C04E02078302801D17C
:1005000000227F1E002A099786D01DE0112D07DAF0
:1005100000F074F9303262556D1C50EA0102F5D1D9
:10052000084302D00098C8B10EE00021681E05E023
:10053000235C625C63542254401E491C8142F7DBF9
:10054000AB46A81B401E0990002004F80B000B9836
:10055000099AC0F80880C0E9002B7CE711264FF00B
:10056000000859E72DE9F04F88460446D21D22F0D5
:10057000070191B0D1E90001CDE90A0101F048FF7E
:1005800002460B98C00F01D02D2007E0206881079C
:1005900001D52B2002E0202101EAC000032A0990A6
:1005A00001D0072A05DB03464146204600F084F9C6
:1005B0000BE12078800601D5E06900E00620B8F163
:1005C000650F814606D0B8F1660F18D0B8F1670FF5
:1005D00070D131E00020B9F1110F009001DB11233F
:1005E00001E009F101030AAA01A90CA8FFF7E4FE42
:1005F000DDE90C70002609F10105834647E0012082
:100600004B4600904FF000470AAA01A90CA8FFF73B
:10061000D3FEDDE90DB00C995D46002610B909F155
:1006200001000D18B9EB050003D4C0F1FF3609F144
:100630000105A5EB09002BE0B9F1010F01DA4FF03C
:1006400001090020B9F1110F0090484601DD112386
:1006500000E003460AAA01A90CA8FFF7ADFEDDE9F8
:100660000C704D4600268346207800070AD4AB451F
:1006700000DA5D4601A8012D04DD411911F8011CC5
:10068000302907D04F4502DA17F1040F04DA0120B0
:1006900082460FE06D1EEEE7002F02DCED1B3E44AC
:1006A00003E0781CA84200DD7D1CB81B00F1010AA4
:1006B0004FF000472078000703D4AA4501DB4FF034
:1006C000FF3A0021B7F1004F0DF143088DF84310B8
:1006D00024D002202B23002F01DA7F422D230A2170
:1006E000021EA0F1010000DC5FB197FBF1FC97FB5B
:1006F000F1F201FB1C7C17460CF1300C08F801CD1F
:10070000EEE7A8F1010003702188090501D5452114
:1007100000E06521A0F1010800F8011C09980FA96B
:10072000A1EB0807FF1D00B10120411901EBEA70A0
:10073000A1693844081A401EA0612078C00602D47E
:100740002046AFF30080099828B1D4E901219047F1
:10075000206A401C20622078C00622D52046AFF3D4
:1007600000801EE0002E04DBB34502DD01A8805DA1
:1007700000E03020D4E901219047206A401C20622B
:10078000761CAAF101005FEA000A0AD100F032F8F3
:10079000C0680168405CD4E901219047206A401C90
:1007A0002062281EA5F10105DCDC07E0D4E9012167
:1007B00018F8010B9047206A401C2062381EA7F1F0
:1007C0000107F3DC2046AFF30080032011B043E6BD
:1007D000074B70B50D467B4400F05BF80446284695
:1007E00000F018F910B14FF0FF3070BD204670BD19
:1007F0001F1D0000004870478C01002030B5B0F18B
:100800000A024FEA900E71F100034EEA817EB0EBCE
:100810000E0061EB91014FEA101E4EEA017E10EBD3
:100820000E0041EB11114FEA102E4EEA016E10EB53
:100830000E0041EB11214FEA104E4EEA014E10EB33
:100840000E0041EB1141401841F100014FEAD00088
:1008500040EA41704FEAD10110EB80054FEA810474
:1008600044EA907444EB01046D1944EB0404521BF8
:10087000A3414FF0000348BF0A3200D530BD401CF1
:1008800041F1000130BD000001694A1C0261087895
:10089000704700B58FB0CDE90131002105910549C0
:1008A0007944CDE9031011466846FFF7C7FC0FB045
:1008B00000BD0000E5FFFFFF2DE9F0411F460446A3
:1008C00003260168072A01F4006004DB08B116A5BD
:1008D00005E016A503E008B115A500E015A521F077
:1008E00010002060A069C01EA0610FB1401EA06171
:1008F0002046AFF300804FB1D4E90121384690473C
:10090000206A401C2062C01C206206E0206AFAE7D0
:10091000D4E9012115F8010B9047761EF8D2204644
:10092000AFF30080BDE8F0814E414E006E616E0075
:10093000494E4600696E66002DE9F047814616462D
:100940008AB0334878440DC88DE80D0030487844AB
:10095000801C03AC0DC884E80D0041F69B300844B0
:10096000372190FBF1F290FBF1F5A5F1800501FB39
:1009700012041B3C02D56442012000E00020DFF895
:1009800090A080460027FA44AAF1BE0A0DE0E007D5
:1009900009D03246684607EB47010AEB810100F0B7
:1009A00032FB8DE8070064107F1C002CEFD1184F3C
:1009B0007F44AC3F18E0E80714D007EB04100DF1BA
:1009C000180A90E80E008AE80E00C068F04201D1D3
:1009D00098190890324606A903A800F014FB03AB4F
:1009E00083E807006D10641C002DE4D1324669468F
:1009F000B8F1000F03A802D000F0F1FA01E000F016
:100A000002FBC9E90001C9F808200AB0BDE8F08777
:100A100058240000007B00F08000704700487047B9
:100A20006C0100207546FFF7F9FFAE4605006946E8
:100A3000534620F00700854618B020B5FFF7E2FBCB
:100A4000BDE820404FF000064FF000074FF00008CF
:100A50004FF0000B21F00701AC46ACE8C009ACE850
:100A6000C009ACE8C009ACE8C0098D46704704462F
:100A7000AFF300802046FFF7B2FB00004FF0013CCF
:100A800050F8042B51F8043B9A4221D1A2EB0C03FD
:100A9000934313EACC1317D150F8042B51F8043BBD
:100AA0009A4215D1A2EB0C03934313EACC130BD15A
:100AB00050F8042B51F8043B9A4209D1A2EB0C03E5
:100AC000934313EACC13DBD04FF00000704700BF14
:100AD000D01A01BAB1FA81F101F0180122FA01F03D
:100AE000CB40C1F12001DBB2C0B2C01A2CFA01F335
:100AF000D11A914311EAC311E6D170475FEA400C65
:100B000008BF91F0000F4FEA8C234FEAC12243EA5D
:100B100051514FEA1C5018BF00F5F0404FEA300029
:100B200018BF41F000415FEA6C5C00F02980BCF125
:100B3000FF3F08BF40F080407047130C06BF12040F
:100B40004FF0100C4FF0000C130E04BF12020CF10A
:100B5000080C130F04BF12010CF1040C930F04BF17
:100B600092000CF1020CD30F04BF52000CF1010CE7
:100B700011464FF00002A0F11F00A0EB0C007047DF
:100B800011F0004F08BF704731F000413FF4D5AF7E
:100B90000B0C06BF09044FF0100C4FF0000C0B0EAD
:100BA00004BF09020CF1080C0B0F04BF09010CF182
:100BB000040C8B0F04BF89000CF1020CCB0F04BF97
:100BC00049000CF1010CCCF12003A0EB0C0022FA3F
:100BD00003F302FA0CF241EA030100F1010070474D
:100BE00020F07F4C80EA030023F07F47ACEB070343
:100BF00003F57C5300F0004003F1FF032DE9804929
:100C00004FEA154B09B44FEA144325EA0B4E24EA88
:100C100003480FF2042606EB132749083E785FEAE3
:100C2000320203FB0667C7F5000707FB06F64FEA2B
:100C300054374FEAD64606F1020607FB066CCCF1A4
:100C4000005C4FEA1C472CEA074C07FB06F40CFB40
:100C500006F504EB15464FEA961634BF00204FF018
:100C600000404FEAD13706FB07FC4FEA1C4C0CFB57
:100C70000BF7D21B03FB0CF761EB07010CFB0EF724
:100C8000B0EB074072EB17420CFB08F734BFA2EB46
:100C90000742B2EB074261EB17414FEA0C444FEABF
:100CA000910706FB07FC4FEA1C4C0CFB0BF7B0EB63
:100CB000C74072EB573203FB0CF734BFA2EBC742BD
:100CC000B2EBC74261EB57310CFB0EF7B0EBC7003C
:100CD00072EB57720CFB08F734BFA2EBC702B2EB02
:100CE000C70261EB5771039F4FEA816141EA92119C
:100CF00004EBCC044FEAD1374FEA826206FB07FCD3
:100D000042EA90124FEA80604FEA1C4C0CFB0BF752
:100D1000D21B03FB0CF761EB07010CFB0EF7B0EBEA
:100D2000074072EB17420CFB08F734BFA2EB0742F7
:100D3000B2EB074261EB17414FEA8C554FEA91073E
:100D400004EB9C2406FB07FC4FEA1C4C0CFB0BF746
:100D5000B0EBC74072EB573203FB0CF734BFA2EB8A
:100D6000C742B2EBC74261EB57310CFB0EF7B0EB59
:100D7000C70072EB57720CFB08F734BFA2EBC70237
:100D8000B2EBC70261EB577115EB4C254FEA81615D
:100D900041EA92114FEA82624FEAD13742EA901259
:100DA00006FB07FC44F100044FEA80604FEA1C4C4C
:100DB0000CFB0BF7D21B03FB0CF761EB07010CFBE1
:100DC0000EF7B0EB074072EB17420CFB08F734BF8D
:100DD000A2EB0742B2EB074261EB174115EB1C1582
:100DE0004FEA813141EA92414FEA823242EA90422F
:100DF0004FEA80304FEA0C7644F1000448EA03439E
:100E00004EEA0B484FF0000EB2EB080C71EB0307F3
:100E100024BF624639464EEB0E0E4FF0000B001811
:100E2000524149414BEB0B0BB2EB080C71EB030742
:100E30007BF1000B24BF624639464EEB0E0E4FF09D
:100E4000000B0018524149414BEB0B0BB2EB080C65
:100E500071EB03077BF1000B24BF624639464EEB72
:100E60000E0E51EA020718BF46F0010616EB0E7689
:100E700055F1000254F1000103D5BDE88901BDE838
:100E80000088BDE88901BDE80048B619524141EB30
:100E90000101A3F10103704780807F7E7D7C7B7A16
:100EA0007978777676757473727171706F6E6E6D16
:100EB0006C6C6B6A6A6968686766666564646363BC
:100EC00062616160605F5F5E5E5D5D5C5C5B5B5A42
:100ED0005A595958585757565655555554545353AF
:100EE00052525251515050504F4F4F4E4E4D4D4D0A
:100EF0004C4C4C4B4B4B4A4A4A4949494848484755
:100F00004747474646464545454444444443434392
:100F10004342424242414141002B26D4770021D036
:100F20001CB54FEA370703B44FF010004FF0100123
:100F30004FF000000FBCBDE810400BF1010BBBF1FE
:100F4000010F08BF5FEA170722BF12F1010211F17A
:100F500001014FF0004143F1000300F0004043EA7B
:100F600000007047F9D35708DAE746EA064613F15E
:100F7000400F4FEA16461FDD13F1200FDFBF164367
:100F80000A46002120335B42C8D0C3F1200746EA5D
:100F9000064602FA07F74FEA164646EA0706C3F185
:100FA000200722FA03F201FA07F721FA03F14FF0C2
:100FB000000342EA0702B1E746EA020646EA0646AD
:100FC0004FEA164646EA0106BCBF46EA0646360C1C
:100FD0004FF000034FF000024FF000019EE72DE9B3
:100FE000C048934630B491E8380007C831EA400C55
:100FF00048BF34EA430C03D5FFF7F2FDFFF78CFF3F
:10100000F0BCBDE800882DE9C048934630B491E8B3
:10101000380007C810F0804F08BF13F0804F03D18D
:1010200000F005F8FFF778FFF0BCBDE8008820F07D
:101030007F4780EA030023F07F4C07EB0C03A3F506
:101040007C5300F00040A3F1FE0392F0000F00F08B
:10105000B38095F0000F00F077802DE901494FEA49
:1010600011404FEA144621EA004800FB06FC24EA3E
:10107000064708FB06F607FB08F800FB07F718EB26
:1010800006484CEB164C4FEA124B18EB07484FEA58
:1010900015464CEB174022EA0B4E0BFB06FC25EAEB
:1010A00006470EFB06F607FB0EFE0BFB07F71EEBD3
:1010B000064E4CEB164C4FF000061EEB074E4CEB69
:1010C000174B18EB0B0840F1000018EB0E0B58EB18
:1010D000000840F100008F1A4FF000013CBFC943E7
:1010E000661B14BFB5EB040C00213CBFC943F61BC3
:1010F0004FEA17444EEA8E0E27EA04454FEA1C4792
:1011000004FB07622CEA074C05FB07F70CFB05F60E
:1011100004FB0CFC16EB074642EB174216EB0C46A1
:1011200042EB1C421BEB060658EB0202414146EA29
:101130009E0601D5BDE80189B619524141EB010176
:10114000A3F10103BDE801894FEA14454FEA1147B5
:1011500024EA054621EA074C05FB07F406FB07F7DE
:101160000CFB06F105FB0CFC11EB074144EB1744AB
:101170004FEA124711EB0C4144EB1C4422EA074CA6
:1011800005FB07F206FB07F70CFB06F605FB0CFC5C
:1011900016EB074642EB174216EB0C4642EB1C459A
:1011A0006A1854F1000148BF7047B619524141EB2B
:1011B0000101A3F10103704795F0000F37D04FEA0A
:1011C00011424FEA144721EA024624EA074C02FB87
:1011D00007F106FB07F70CFB06F402FB0CFC14EB13
:1011E000074441EB17414FEA154714EB0C4441EB20
:1011F0001C4125EA074C02FB07F506FB07F70CFB31
:1012000006F602FB0CFC16EB074645EB174516EB02
:101210000C4645EB1C42121951F1000148BF7047C2
:10122000B619524141EB0101A3F1010370474FEAA6
:1012300014454FEA114724EA054621EA074C05FB0D
:1012400007F106FB07F70CFB06F24FF0000605FB63
:101250000CFC12EB074241EB174112EB0C4251EB35
:101260001C4148BF7047921841EB0101A3F10103F3
:101270007047000070B500F0BDFE00F0B1FF00F057
:1012800071FE00F06BFD00F045FF00F0FBFE00F08A
:10129000E7FD00F041FD48A0FEF7C4FF4BA0FEF7BC
:1012A000C1FF4E48006801F0E5F9044622460B46AE
:1012B0004BA0FEF7B7FF4F48006801F0DBF904468A
:1012C00022460B464CA0FEF7ADFF5048006801F0E7
:1012D000D1F9044622460B464DA0FEF7A3FF514824
:1012E000006801F0C7F9044622460B464EA0FEF7FF
:1012F00099FF52A0FEF796FF3848006801F0BAF94E
:10130000044622460B4636A0FEF78CFF4F48006885
:1013100001F0B0F9044622460B464DA0FEF782FFCD
:101320005048006801F0A6F9044622460B464EA03C
:10133000FEF778FF5148006801F09CF90446224608
:101340000B464FA0FEF76EFF52A0FEF76BFF53A0B7
:10135000FEF768FF5548016855A0FEF763FF5B483C
:1013600001685BA0FEF75EFF6048016860A0FEF7C1
:1013700059FF6548016865A0FEF754FF6948016898
:1013800069A0FEF74FFF6F4801686FA0FEF74AFFA4
:101390007448016874A0FEF745FF7A4801687AA096
:1013A000FEF740FF7F4801687FA0FEF73BFF39A0B2
:1013B000FEF738FF70BD0000D6B1C1F7B2CECAFD4E
:1013C000B2E2C1BF2D5350490D0A000041CDA8B56E
:1013D000C0B5E7C4DCB2CECAFD0D0A006C00002027
:1013E0005533325F41435F56203D2025660D0A206C
:1013F00000000000700000205533325F41435F4918
:10140000203D2025660D0A20000000007400002009
:101410005533325F41435F50203D2025660D0A2041
:1014200000000000780000205533325F41435F45E3
:10143000203D2025660D0A200000000042CDA8B501
:10144000C0B5E7C4DCB2CECAFD0D0A00880000209A
:101450005533325F41435F495F42203D2025660D91
:101460000A2000008C0000205533325F41435F505A
:101470005F42203D2025660D0A20000090000020DC
:101480005533325F41435F455F42203D2025660D65
:101490000A2000000D0A0D0A00000000BCC4B4E6DA
:1014A000C6F7CAFDD6B50D0A0000000040000020B6
:1014B0005531365F524D5349415F4F6666736574CF
:1014C000203D2025780D0A20000000004400002067
:1014D0005531365F524D5349425F4F6666736574AE
:1014E000203D2025780D0A20000000004800002043
:1014F0005531365F50414F535F4F666673657420B8
:101500003D2025780D0A20004C0000205531365F23
:1015100050424F535F4F6666736574203D202578B7
:101520000D0A2000500000205533325F524D5349C0
:10153000415F52656744617461203D2025780D0A42
:1015400020000000600000205533325F524D5349A7
:10155000425F52656744617461203D2025780D0A21
:1015600020000000540000205533325F524D535587
:101570005F52656744617461203D2025780D0A2023
:1015800000000000580000205533325F504F57458F
:101590005250415F52656744617461203D20257857
:1015A0000D0A2000640000205533325F504F57452C
:1015B0005250425F52656744617461203D20257836
:1015C0000D0A200070B50024002517E06006040E07
:1015D00001200C4908600A2000F070FF00200A4931
:1015E000C1F89C010A2000F069FF064890380068A5
:1015F000012801D144F00104681CC5B2082DE5DBC7
:10160000204670BD9C0121420000214210B50446D5
:10161000204600F001F810BD70B505462E460024A6
:101620001AE080202041304018B101200C490860A8
:1016300002E000200A4908600120094914310860CD
:101640000A2000F03BFF00200649C1F89C010A2057
:1016500000F034FF601CC4B2082CE2DB70BD000057
:10166000880121420000214270B5044644F0800503
:101670002846FFF7D1FF70BD10B50020064908606D
:10168000EA20FFF7C9FFDC20FFF7C6FF012003496E
:10169000C1F8980110BD00009801214200002142CC
:1016A00010B5002006490860EA20FFF7B5FFE520E5
:1016B000FFF7B2FF01200349C1F8980110BD0000F7
:1016C000980121420000214210B5642000F0D8FEAC
:1016D0008248806940F0040080498861084680693A
:1016E00040F4A07088617E4800687E4908407C49CB
:1016F0000860084600687C49084379490860012071
:101700007A4908600A2000F0BBFE01207849C1F840
:101710009801022000F0D2FE022000F0CFFE00204F
:10172000724908310860022000F0C8FE00207049AC
:10173000C1F88801FFF7B4FF00206C49091D08605B
:10174000EA20FFF769FF5A20FFF766FF012067498B
:10175000091D086000200860FFF786FF0F20FFF7D3
:101760005BFF0420FFF758FF01206049091D086056
:10177000002008600120FFF777FF1120FFF74CFFE2
:101780007320FFF749FF01205849091D0860002018
:1017900008601320FFF768FF0F20FFF73DFFFF20D1
:1017A000FFF73AFF01205149091D08600020504908
:1017B000C1F898014020FFF757FF0020FFF72CFFEA
:1017C0000020FFF729FF01204849091D0860FFF7A5
:1017D00053FF0221002000F0E5FC46490860022189
:1017E000132000F0DFFC4449086044A0FEF71AFD16
:1017F0004048016845A0FEF715FD3F4801684AA032
:10180000FEF710FD4FA0FEF70DFD0221702000F045
:10181000C9FC384908600221712000F0C3FC364938
:1018200008600221722000F0BDFC484908600221D6
:10183000732000F0B7FC464908600221742000F0D4
:10184000B1FC444908600221752000F0ABFC42491C
:1018500008600221762000F0A5FC404908600221C2
:10186000772000F09FFC3E4908603EA0FEF7DAFCBE
:101870002048016825A0FEF7D5FC1F4801682AA072
:10188000FEF7D0FC314801683AA0FEF7CBFC3048A7
:1018900001683FA0FEF7C6FC2E48016843A0FEF792
:1018A000C1FC2D48016848A0FEF7BCFC2B4801682C
:1018B0004CA0FEF7B7FC2A48016851A0FEF7B2FC25
:1018C00000F0C2F80446012C03D154A0FEF7AAFC94
:1018D00002E057A0FEF7A6FC10BD00000010024079
:1018E00000080140FF000F000083303394012142C3
:1018F000000021421C00002020000020B2E2CAD4D7
:10190000BCC4B4E6C6F70D0A000000005531365FCE
:10191000524D534941435F52656744617461203DB4
:101920002025780A200000005531365F524D53497A
:1019300042435F52656744617461203D2025780A07
:10194000200000000D0A0D0A000000002400002005
:10195000280000202C00002030000020340000204F
:1019600038000020CFB5CAFDBCC4B4E6C6F70D0AE6
:10197000000000005531365F524D5355435F5265AC
:101980006744617461203D2025780A200000000032
:101990005531365F506F7765725041435F526567CE
:1019A00044617461203D2025780A20005531365F5E
:1019B000506F7765725042435F526567446174614E
:1019C000203D2025780A20005531365F506F77651D
:1019D0007253435F52656744617461203D202578EE
:1019E0000A2000005531365F456E657267794143C4
:1019F0005F52656744617461203D2025780A2000AC
:101A00005531365F456E6572677942435F5265674F
:101A100044617461203D2025780A2000CFB5CAFDBD
:101A2000BCC4B4E6C6F7D0A3D1E96F6B0D0A0000C1
:101A3000CFB5CAFDBCC4B4E6C6F7D0A3D1E9666190
:101A4000696C0D0A000000002DE9F04102217020B0
:101A500000F0A8FB2A4908600221712000F0A2FBD7
:101A6000284908600221722000F09CFB264908608A
:101A70000221732000F096FB2449086002217420A3
:101A800000F090FB224908600221752000F08AFBDB
:101A9000204908600221762000F084FB1E4908607E
:101AA0000221772000F07EFB1C49086002216F2094
:101AB00000F078FB06460025114800684FF6FF71DC
:101AC00008441049096808440F49096808440F4947
:101AD000096808440E49096808440E490968084421
:101AE0000D49096808440D4909680844C543AFB267
:101AF000B74201D1012400E000242046BDE8F08176
:101B00001C000020200000202400002028000020CD
:101B10002C0000203000002034000020380000207D
:101B20003148806940F008002F4988610846806983
:101B300040F0400088612D48006820F470002B4977
:101B400008600846006840F44010086027480C30E0
:101B5000006840F0200025490C31086024480068E6
:101B600020F47000224908600846006840F44010E4
:101B700008601F480C30006840F020001C490C3100
:101B800008601C48006820F47F201A490860084655
:101B9000006840F40820086016480C30006840F4E3
:101BA000006014490C3108600846006840F4805019
:101BB00008600D48806940F004000B4988610E48B8
:101BC000006820F00F000C4908600846006840F0EB
:101BD0000300086008480830006840F48070064937
:101BE000083108607047000000100240000C0140FE
:101BF00000180140001401400408014000B5002015
:101C000015490861C8601420486100208861C861D6
:101C10000846006840F001000860084640680F4927
:101C200008400D494860084600680D4908400A49C7
:101C300008600846006820F4802008600846406874
:101C400020F4FE0048600020886000214FF0006012
:101C500000F058F800BD0000001002400000FFF83E
:101C6000FFFFF6FE2DE9F0410746884614461D4663
:101C7000284600F033F8C5F1040007FA00F60F20FB
:101C8000284100EA0800064306F00F06E21704EBBD
:101C9000D2625211920002F1E022D2F800212146D4
:101CA000E31704EBD3635B11A4EB431C012303FA9A
:101CB0000CF31A432046E31704EBD3635B119B003C
:101CC00003F1E023C3F800210348005D40EA061059
:101CD00001490855BDE8F08100E400E00146072312
:101CE00023EA01021202054B18684FF6FF03184061
:101CF000034B18431043014B186070470CED00E094
:101D00000000FA05024A0A400243024B1A6070477B
:101D100080FFFF1F08ED00E010B502210E2000F04B
:101D200041FA0A49086002210F2000F03BFA0849F5
:101D3000086002210A2000F035FA064908600221F5
:101D40000B2000F02FFA0449086010BD400000206D
:101D500044000020480000204C00002070B5032102
:101D6000282000F01FFA374908600846006800F094
:101D7000FDFD04463448006800F0F8FD05462146A4
:101D800000F03CFE04464FF09C41204600F00CFD64
:101D900004464FF07E51204600F006FD04464FF009
:101DA0007E51204600F000FD04462849204600F000
:101DB00025FE0546254900F0F7FC0446244804604A
:101DC0004FF07E51006800F0E5FE39D820480168E8
:101DD0002048006800F07AFC1E490860FFF760FCAC
:101DE00000201D4908601320FFF73EFC0320FFF789
:101DF00013FCFF20FFF710FC01201849C1F89801DF
:101E00000321282000F0CEF90E4908600321282084
:101E100000F0C8F90B49086000200D4908600E4920
:101E200008601320FFF720FC0B20FFF7F5FBFF20D5
:101E3000FFF7F2FB01200949C1F89801FFF71CFCEC
:101E400070BD00005C0000203400002000007A44D7
:101E5000780000207C0000209801214200002142EF
:101E600070B50321292000F09DF937490860084624
:101E7000006800F07BFD04463448006800F076FD01
:101E80000546214600F0BAFD04464FF09C4120462D
:101E900000F08AFC04464FF07E51204600F084FC9E
:101EA00004464FF07E51204600F07EFC044628494F
:101EB000204600F0A3FD0546254900F075FC0446C8
:101EC000244804604FF07E51006800F063FE39D86A
:101ED000204801682048006800F0F8FB1E490860AF
:101EE000FFF7DEFB00201D4908601320FFF7BCFB55
:101EF0000720FFF791FBFF20FFF78EFB0120184919
:101F0000C1F898010321292000F04CF90E4908601E
:101F10000321292000F046F90B49086000200D49F3
:101F200008600E4908601320FFF79EFB0F20FFF7A3
:101F300073FBFF20FFF770FB01200949C1F89801EE
:101F4000FFF79AFB70BD00006800002038000020F9
:101F500000007A4490000020940000209801214263
:101F60000000214270B504212C2000F01BF91D490E
:101F7000086008460068B0F1004F07D908460068BD
:101F8000C543284600F0F2FC044604E0154800680A
:101F900000F0ECFC04461448006800F0E7FC06463C
:101FA000214600F02BFD04464FF07E51204600F004
:101FB000FBFB04464FF07E51204600F0F5FB044643
:101FC0004FF09E41204600F0EFFB044607492046B3
:101FD00000F014FD0646054900F0E6FB04460448FF
:101FE000046070BD580000202800002000007A44E2
:101FF0007400002070B50321242000F0D3F81D499F
:10200000086008460068B0F5000F07D90846006868
:10201000C543284600F0AAFC044604E015480068C1
:1020200000F0A4FC04461448006800F09FFC06463B
:10203000214600F0E3FC04464FF09641204600F0B4
:10204000B3FB04464FF07E51204600F0ADFB044642
:102050000A49204600F0A8FB04460849204600F043
:10206000CDFC0646054900F09FFB04460448046089
:1020700070BD0000500000201C00002000007A44C9
:102080007000002070B504212D2000F08BF81D4950
:10209000086008460068B0F1004F07D9084600689C
:1020A000C543284600F062FC044604E01548006879
:1020B00000F05CFC04461448006800F057FC06463B
:1020C000214600F09BFC04464FF07E51204600F074
:1020D0006BFB04464FF07E51204600F065FB044642
:1020E0004FF09E41204600F05FFB04460749204622
:1020F00000F084FC0646054900F056FB04460448FF
:10210000046070BD640000202C00002000007A44B0
:102110008C00002070B50321252000F043F81D49F4
:10212000086008460068B0F5000F07D90846006847
:10213000C543284600F01AFC044604E01548006830
:1021400000F014FC04461448006800F00FFC06463A
:10215000214600F053FC04464FF09641204600F023
:1021600023FB04464FF07E51204600F01DFB044641
:102170000A49204600F018FB04460849204600F0B2
:102180003DFC0646054900F00FFB04460448046088
:1021900070BD0000600000202000002000007A4494
:1021A00088000020F8B506460C4600200B49086060
:1021B00000903046FFF72AFA002507E0FFF702FA01
:1021C000611E491B0DF80100681CC5B2A542F5DB74
:1021D0000120024908600098F8BD000098012142E2
:1021E00070B503212620FFF7DDFF1D490860084672
:1021F0000068B0F5000F07D908460068C5432846B7
:1022000000F0B4FB044604E01548006800F0AEFBA3
:1022100004461448006800F0A9FB0646214600F079
:10222000EDFB04464FF09541204600F0BDFA044610
:102230004FF07E51204600F0B7FA04460A49204686
:1022400000F0B2FA04460949204600F0D7FB0646E2
:10225000064900F0A9FA04460548046070BD000074
:1022600054000020240000200000C84200007A44EE
:102270006C00002030B504460025FFF7BFFC1E4867
:10228000006840F001001C49086000BF1A4800685F
:1022900040080028FAD04FF4806017494860A01E1B
:1022A000C4B20846406840EA844048600846406836
:1022B00048601248006840F03200104908600E483B
:1022C000006840F080700C49086000BF0A48006850
:1022D000400E0028FAD00848406840F00200064945
:1022E000486005E004484068C0F3870505F0030531
:1022F000022DF7D130BD0000001002400020024046
:102300000B48008800F0010050B10A48006808B985
:10231000012000E0002007490860012006490870FC
:102320000348008820F00100014908807047000040
:1023300010040040A0012142A000002070B5054615
:102340000C461048C06940F002000E49C8610E48B2
:102350000580001F04800C482038008840F00100F0
:1023600009492039088008482C38008840F00100CD
:1023700005492C39088002231D2203210120FFF783
:1023800071FC70BD001002402C0400401D490988FA
:1023900001F0200111B31B49091D0988C8B21A496F
:1023A000098801F40041C9B91749098801F480413D
:1023B00061B10A2803D00021134A118020E012499C
:1023C000098841F40041104A118019E00D2806D116
:1023D0000D49098841F480410B4A118010E00A49F7
:1023E0000988C1F30D01094A505407490988491C5D
:1023F000054A118011460988C72901DD0021118095
:10240000704700000038014008000020A4000020B0
:10241000490050EAC12018BF04204A0D18BF40F0FF
:10242000010040F2FF72B2EB515F08BF40F00200C2
:10243000012808BF05207047014600BF7047000013
:102440004FF0E021096921F004014FF0E022116111
:10245000C21700EB5272C2F3C702074B1A7019463B
:10246000097801EB4102C2EBC1114FF6FF7202EA9B
:10247000C101024A118070470000002002000020C4
:1024800001460D4A12884A434FF0E0235A61002268
:102490009A6101221A6100BF4FF0E022106900F03A
:1024A00001021AB100F48032002AF5D000224FF068
:1024B000E0231A619A6170470200002001460D4A2C
:1024C00012784A434FF0E0235A6100229A610122B8
:1024D0001A6100BF4FF0E022106900F001021AB14A
:1024E00000F48032002AF5D000224FF0E0231A6178
:1024F0009A6170470000002000BF054A128802F070
:102500004002002AF9D0C2B2014B1B1D1A8070474D
:10251000003801400920FFF7ADFE4FF4E1312420DF
:1025200000F01EF84820FFF78BFFFFF7F9FA41F69D
:102530001F4141F28730FFF701FFFFF7C5F8002088
:102540000649087008E005480078012804D10020F9
:1025500002490870FEF78EFEF5E70000A00000209B
:102560002DE9F05F05460E46300100F0FFF9814687
:102570002E4905FB01F000F0F9F98246494600F0CA
:1025800013F90746384600F0D1F984B2204600F02E
:10259000EDF98346394600F02EFB82464FF0834129
:1025A00000F02CFA814600F0C1F980464FF6FF702A
:1025B00000EA041404EB080084B21D48806940F06E
:1025C00004001B4988610846806940F480408861A6
:1025D0001848006820F47F601649086008460068C3
:1025E00040F40B6008601248C06840F48040104915
:1025F000C8600846C06820F48040C8600E48048067
:10260000001D008842F20C0108430B49091D088097
:102610000846008840F0200008800223252203217C
:102620000846FFF71FFBBDE8F09F000040420F0087
:1026300000100240040801400838014010B500298C
:102640000AD00878002807D005487844FEF716FA23
:10265000002801D0002010BD0248784410BD0000C1
:102660008E070000860700000808A0F500114FEA59
:102670003101704743004FEAD30C4FEA3C0C434012
:102680001FBF40070CF1605113F0FE4F70471CF064
:10269000006F03D100200CF0004170470CF00043A4
:1026A00043EA507010B540EACC0000F028FA00BFB1
:1026B000000000924FEA0001FFF7D6BF4FF0004143
:1026C0004FF00000A1F500217047000090EA010FD3
:1026D00048BF81F0004100F1A082421A3CBF801A3D
:1026E00089184FEAD0524FF07F4C1CEA410FA2EB01
:1026F000D15318BF9CEA026F00F03B804FF0004CB2
:102700004CEA00204CEA012121FA03FC10EB0C0CEE
:102710001ED202F1FF325FEA1C2040EBC25038BFEC
:1027200070471CF07F0F4FEA400C18BFBCF17F4F81
:1027300038BF7047C3F12003994008BF20F0010063
:10274000BCF17F4F38BF7047A0F1C04000F01DBA08
:102750004FEA3C00000A40EBC25028BF1CF0FF0FBC
:102760004FEA400CE6D018BFBCF17F4F38BF70472E
:10277000EAE79CEA026F05D010EA5C0F08BF00F0A0
:102780000040704710B500F0BAF900BF64FBBE3ED0
:10279000401058BFC0F14040491058BFC1F14041FE
:1027A0008142EFF3008070474FF47F0C1CEAD01297
:1027B0001EBF1CEAD11392EA0C0F93EA0C0F00F033
:1027C000858090EA010F48BF42F4807240F4000C0B
:1027D00041F400002CF07F4120F07F4000B58142A1
:1027E000A2EB03020FF2081CACEB504EC0F100004C
:1027F0009EF800E04FEA4E0E00FB0EFC38BF490089
:102800004FEA2C1C02F5FA020CFB0EF34FEACE1E27
:102810004FEA112C4FEAC1210EEB635E42EB2242DC
:102820000EFB0CFC4FEA1C5300FB03114FEA112C6A
:102830004FEA01310EFB0CFC4FEADC4C00FB0C11A3
:10284000C14228BF09184CEB03335DF804EB10EBD1
:10285000410143EBC250B2F57C0F38BF704729D518
:1028600012F0F00F1CBF00F1C04000F000407047B4
:10287000008182838485868788898B8C8D8E8F9159
:102880009293959697999A9C9D9FA0A2A3A5A7A87D
:10289000AAACAEB0B2B3B5B7B9BCBEC0C2C5C7C9A9
:1028A000CCCED1D4D7D9DCDFE2E6E9ECF0F3F7FA0D
:1028B000FE0000004FEA400C0CF1807CBCF17E4F22
:1028C00028BF7047B0F1C04000F05FB990EA010F37
:1028D0000CEAD11348BF42F48072624538BF6345A9
:1028E00007D213F47F0F16D080EA010000F00040F9
:1028F000704710B500F003F9097EFC3E00F005B802
:1029000080EA010000F00040704780EA010000F01A
:10291000004000F03AB912F47F0F04BF024870473C
:1029200080EA010000F031B90000C07FC10DD1F193
:102930009E0206DB4FEA002343F0004323FA02F035
:102940007047004207D54FEA4001B1F1FE4F02D275
:102950004FF00000704710B500F0D1F84992248084
:10296000002070476FEA200070470000B0FA80F343
:1029700010FA03F2C3F19D030AD0D90501EB12202E
:10298000530638BF704700F1010008BF20F0010076
:102990007047000050EA010C00F113801CF5000F95
:1029A00058BFBCF5000F01D48842704707D710F517
:1029B000000F58BF11F5000F15D4884270478942A7
:1029C00070471CF5000F04D5BCF5000FF7D5814208
:1029D00070474FF0807C1CEB400F38BF1CEB410F61
:1029E00001D28142704710B500F089F89224490065
:1029F0004FF000504FF08051FFF7CABE4FF47F0CEC
:102A00001CEAD0121EBF1CEAD11392EA0C0F93EA03
:102A10000C0F00F0478090EA010F48BF42F480722B
:102A20004FF0004C4CEA00204CEA012102EB03027B
:102A3000A0FB0113A2F50002002918BF43F0010317
:102A40005B0028BF4FEA330342EB22425FEA132CBC
:102A50004CEBC2502EBFBCEB436FB2F57C0F7047FE
:102A60004FEA036CBCF1004F08BF20F00100B2F543
:102A70007C0F38BF70470BD582F0FF0212F5803F04
:102A8000C8BF704700F1C040D8BF00F00040704799
:102A900000F5000C5FEA4C0C48BF7047B0F1C04035
:102AA00000F073B890EA010F0CEAD11348BF42F46A
:102AB0008072624538BF634504D280EA010000F0AD
:102AC0000040704710B500F01AF800BF8900013EC1
:102AD00000F007B800F009B85FEA410C5FEA1C6C2F
:102AE00008D080EA010000F050B85FEA400C5FEACD
:102AF0001C6CF6D14FF00040A0F5800070470EF13D
:102B0000020E2EF0030E5EF8044B244204D44FEA6A
:102B10004102B2F17F4F11D84FEA4003B3F17F4F2A
:102B20000CD80ED14FEAD07CB2F17F4F0CEB4C0C9D
:102B30000CF1020C08BF4CEBD17C04E04FF0080C08
:102B400001E04FEAD17C0CEB4C0324FA03F404F0CF
:102B50000704B4F1040C06D20EEB840CBDE810405F
:102B60004CF0010C6047DFE80CF0070802024FF060
:102B70000040A0F5800010BD0846420018BFD2F109
:102B8000807288BF00F0004010BDFF2141EAD050A4
:102B9000C005704751EA000C00F113801CF5000FCE
:102BA00058BFBCF5000F01D48142704707D711F51B
:102BB000000F58BF10F5000F15D4814270478942AD
:102BC00070471CF5000F04D5BCF5000FF7D58842FF
:102BD00070474FF0807C1CEB410F38BF1CEB400F5F
:102BE00001D28842704780EA010081EA000180EA50
:102BF0000100FFF7F8BE80F0004090EA010F7FF57A
:102C00006CAD81F0004100F008B8000090EA010FBF
:102C100048BF81F000413FF560AD421A04D882F010
:102C20000042A0EB020011444FEAD0524FF07F4C1B
:102C30001CEA410FA2EBD15318BF9CEA026F4AD0A5
:102C40004FF0004C4CEA00204CEA012121FA03FC31
:102C5000B0EB0C0C0FD412F0FE0F36D05FEA4C0034
:102C60001DD5001240EBC25038BF70471CF03F0F1B
:102C700018BF70470BE0A2F101025FEA1C2040EB95
:102C8000C25038BF70471CF07F0F18BF7047C3F1A8
:102C90002003994014BF401E20F0010070478008B7
:102CA0004FEA122308BF7047B0FA80FCA2EB0C0277
:102CB000CCF1280C60FA0CF093EA122F04BF00EB61
:102CC000C25070474FEAC3707047130A5FEADC10C6
:102CD00008BF7047F6E79CEA026F04D010EA5C0F69
:102CE00008BF0020704710B5FFF709FF40DFF63E30
:102CF00081F000407047FDF735BC30313233343558
:102D00003637383941424344454640305800303127
:102D10003233343536373839616263646566403042
:102D20007800000002400000000000A00000000049
:102D300005400000000000C8000000000C4000003A
:102D40000000409C00000000194000000020BCBEB4
:102D50000000000034400000BFC91B8E00000004CA
:102D6000B5400000504BCFD06607E2CF0100000015
:102D70006C4100003E8251AADFEEA7340100000042
:102D8000D9420000DCB5A0E23A301F97FFFFFFFFF9
:102D9000B4450000FD25A0C8E9A3C14FFFFFFFFF18
:102DA000FF3F00000000008000000000FF3F000027
:102DB0000000008000000000F42D0008000000204A
:102DC000A40000006C010008982E0008A400002058
:102DD0002C050000880100081C00000043000000D2
:102DE000F8FFFFFF0C0000000E0000000F000000C5
:102DF0002E000000000000000000000000000000A5
:102E000000000000000000000000000000000000C2
:102E100000000000000000000000000000000000B2
:102E200000000000000000000000000000000000A2
:102E30000000000000000000000000000000000092
:102E40000000000000000000000000000000000082
:102E50000000000000000000000000000000000072
:102E60000000000000000000000000000000000062
:102E70000000000000000000000000000000000052
:102E80000000000000000000000000000000000042
:082E900000000000000000003A
:0400000508000131BD
:00000001FF
