:020000040800F2
:10000000481100204D01000815080008D10400081F
:1000100013080008D90100089D0D00080000000029
:10002000000000000000000000000000730900084C
:10003000050200080000000017080008290C00084D
:1000400067010008670100086701000867010008F0
:1000500067010008670100086701000867010008E0
:1000600067010008670100086701000867010008D0
:1000700067010008670100086701000867010008C0
:1000800067010008670100086701000867010008B0
:1000900067010008670100086701000867010008A0
:1000A0006701000867010008670100086701000890
:1000B0006701000867010008670100086701000880
:1000C0006701000867010008670100086701000870
:1000D00067010008D10C0008290D0008670100081D
:1000E0006701000867010008670100086701000850
:1000F0006701000867010008670100086701000840
:10010000670100086701000867010008670100082F
:10011000670100086701000867010008670100081F
:10012000670100086701000867010008670100080F
:10013000DFF80CD000F03EF80048004781120008BC
:100140004811002080F30888704700000648804767
:1001500006480047FEE7FEE7FEE7FEE7FEE7FEE7AC
:10016000FEE7FEE7FEE7FEE7CD0C000831010008E0
:10017000202A04DB203A21FA02F00021704721FAFC
:1001800002F3D040C2F12002914008431946704763
:10019000D2B201E000F8012B491EFBD270470022C9
:1001A000F6E710B513460A4604461946FFF7F0FF76
:1001B000204610BD064C074D06E0E06840F0010304
:1001C00094E8070098471034AC42F6D3FFF7B4FF29
:1001D0006013000880130008FEE7000030B50446F5
:1001E0000020651804E000BF14F8011B00F0C6FDF4
:1001F000AC42F9D3002100F0C1FDBDE83040002140
:1002000000F0BCBD7047000006490020C8610648E8
:10021000016941F004010161016941F0400101619E
:10022000704700001800002000200240064A00210C
:10023000D16106490A6942F002020A61486108690F
:1002400040F0400008617047180000200020024084
:10025000044B0022DA61044A136943F0010313617D
:10026000018070471800002000200240144800223E
:10027000C168CB06134904D5CA6942F00202CA61BB
:100280001022C3685B0705D5CB6943F00103CB613E
:1002900042F00402C369DB0707D0CB6943F00403D3
:1002A000CB61C16921F00101C161A2F58071013901
:1002B00001D0C2607047C16921F00101C16170477E
:1002C000002002401800002070B5054600F0E0F85C
:1002D0000646114C09E0681C07D025B100F0D8F89B
:1002E000801BA84201D9032070BDE068C007F2D18D
:1002F000E068800601D52020E060E068C00605D4F3
:10030000E069C00702D1E068400703D5FFF7AEFF00
:10031000012070BD002070BD002002404FF0E020A1
:10032000016921F002010161704700002DE9F047E9
:10033000054626480F460126017E01290FD00121DE
:10034000814601762868DFF888804CF25034022814
:1003500008D0A2462046FFF7B7FFA8B131E002203F
:10036000BDE8F0872046FFF7AFFF08BB0120FFF78D
:100370004BFF2046FFF7A8FFD8F81010064621F0E3
:100380000401C8F810101CE04FF0FF303860AC6872
:1003900011E02046FFF74AFF5046FFF795FFD8F8D7
:1003A0001010060021F00201C8F8101001D03C60C6
:1003B00007E004F50064D5E9020100EBC120A0428A
:1003C000E7D8002189F818103046C9E71800002046
:1003D000002002400348016941F0800101610020D2
:1003E00070470000002002402DE9F05F07461C48DE
:1003F00088460024017E15461E46012909D00121A8
:10040000814601764CF2503A5046FFF75DFF18B135
:1004100022E00220BDE8F09F012F02D0022F00D081
:100420000427D346DFF83CA0220128463146FFF7D7
:100430009FFE81B208EB4400FFF70AFF5846FFF722
:1004400043FFDAF8102022F00102CAF8102018B990
:10045000641CE4B2BC42E7D3002289F81820D9E733
:100460001800002000200240064900200A691206F8
:1004700007D5054A4A60054A4A600969090600D558
:10048000012070470020024023016745AB89EFCD72
:100490000148006870470000000000200248016821
:1004A000491C0160704700000000002007484FF41D
:1004B0007A71B0FBF1F14FF0E020491E416100215B
:1004C0008161052101610721016170470024F40069
:1004D000FEE70000F0B500220D4B154614460A2732
:1004E000B1FBF3F630368654B1FBF3F603FB16117D
:1004F000B3FBF7F3521C861816F8016C302E00D1AE
:1005000025B16D1C641C0A2CEAD3F0BD0022F9E76A
:1005100000CA9A3B02490A6902430A617047000017
:100520000010024002490A6982430A6170470000D4
:1005300000100240044908B58A6902438A6189694A
:100540000140009108BD000000100240F0B50A68AB
:10055000C2F30F2595FAA5F2B2FA82F369E00122FF
:100560009A402A4264D0082B03D240F201129A40EA
:1005700006E0A3F108024FF00114944044F08062B9
:100580004C68082C0BD10C69C668170A97FAA7F7B4
:10059000B7FA87F726EA1226BC402643C66092FACD
:1005A000A2F700EB1264B7FA87F74FEA870C0F2720
:1005B000266807FA0CF7BE4392FAA2F7D1F804E0D6
:1005C000B7FA87F7BF000EFA07FE46EA0E06266066
:1005D0004F68012F01D0092F2AD192FAA2F7B7FA5A
:1005E00087F74FEA870C032707FA0CF7BE4392FA06
:1005F000A2F7B7FA87F7D1F808E0BF000EFA07FEB6
:1006000092FAA2FC46EA0E06BCFA8CFC4FEA8C0E6B
:100610004FF0040C26600CFA0EFC92FAA2F2B2FA29
:1006200082F2CF68920026EA0C0697403E4326608D
:100630005B1C35FA03F292D10020F0BD4FF47A71C1
:10064000B0FBF1F14FF0E020491E416100218161D2
:1006500005210161704700B5034600F007F91860F5
:1006600000F0DAF8586000F0E5F89860586800F09B
:10067000EFF8D86000BD0000014908607047000035
:100680000400002070B517490024884209D116489B
:10069000C16841F48041C160C16821F48041C160FA
:1006A0001EE01249884202D14FF4003510E0104993
:1006B000884202D14FF480250AE00E49884202D1D7
:1006C0004FF4002504E00C49884208D14FF480150E
:1006D0002846FFF71FFF2846FFF724FF00E001240C
:1006E000204670BD00380140001002400044004028
:1006F00000480040004C0040005000402DE9FF4100
:100700000446C0680D460126C0F34030002861D180
:10071000E9686868E2680843296941F20C639A4312
:1007200011430843E060A868216921F44051014366
:1007300021616869616921F4407101436161684622
:10074000FFF789FF2548844201D103980CE0244833
:10075000844208D02348844205D02348844202D0F2
:100760002248844236D10298A0B32A6892B300EBA3
:10077000C00101EB00119200B1FBF2F36420B3FB66
:10078000F0F36FF018077B43B1FBF2F5B1FBF2F722
:1007900005EB8305322303EB0515B5FBF0F5B7FB3D
:1007A000F0F705F0F00505EB0715B1FBF2F7B1FB2B
:1007B000F2F1B1FBF0F100266FF01802514307EBA4
:1007C000810103EB0111B1FBF0F000F00F002844B0
:1007D00080B2A06004B03046BDE8F081003801402E
:1007E0000044004000480040004C004000500040E1
:1007F00008B54FF0E0210A690092421C00D0401C6D
:100800000A69D20300D5401E0028F9D108BD00F0C6
:10081000B1B8FEE7FEE7704704494968044A01F0B1
:10082000F0010909515CC840704700000010024007
:10083000F412000804494968044A01F4E06102EB3B
:1008400011210978C84070470010024004130008C5
:1008500004494968044A01F4605102EBD121097846
:10086000C840704700100240041300080648406862
:1008700010F00C01054805D0042903D0082901D146
:1008800000F006B8704700000010024000127A0025
:100890000B48416811F480320A4909D0B2F5803F13
:1008A00006D14168084AC1F34041491CB2FBF1F14D
:1008B0004068022200F4701002EB904048437047F9
:1008C0000010024000093D0000127A002DE9F843B3
:1008D00000240F4606460C6090460121684600F051
:1008E000D9FC054601281BD19DF8000018281BD013
:1008F00005DC012806D0022806D0042800D00025F7
:1009000030700DE0802401E04FF480643070211DD0
:100910004246B01C00F0BEFC0546012815D000245C
:1009200028463C60BDE8F88342460121684600F055
:10093000B1FC012803D19DF80000182803D0002540
:100940009DF80000DCE70224DAE7F178B07881F066
:10095000FF0188420AD130190179407900EB012862
:100960002146301DFFF73AFC4045D9D000242546EA
:10097000D6E7704700B593B000200F90109011900B
:1009800012903C216846FFF70AFC1FA320A223A176
:10099000684600F0B7FA684600F0E0F829A000F0D9
:1009A000DDF812A800F0FCF938B1052823D004289E
:1009B00023D0022825D032A020E0394800F0CEF81C
:1009C000384800F0CBF80FA81299FFF783FD36A046
:1009D00000F0C4F80FA800F0C1F836A000F0BEF88F
:1009E00037A000F0BBF800F056FB72B63A4800F0B2
:1009F00031FC13B000BD39A000E048A000F0AEF813
:100A0000F7E74DA0FAE70000312E302E300000004D
:100A100053544D3332463130335645006465766960
:100A200063655F747970653D25732C20736F667400
:100A3000776172655F76657273696F6E3D25730DC0
:100A40000A00000057616974696E6720666F722042
:100A50007468652066696C6520746F206265207318
:100A6000656E74202E2E2E202870726573732027D9
:100A7000612720746F2061626F7274290A0D000073
:100A80000A0D4661696C656420746F207265636548
:100A9000697665207468652066696C65210A0D00B9
:100AA0000C130008020900200A0D2053697A653AE8
:100AB000200000002042797465730D0A00000000D8
:100AC0002D2D2D2D2D2D2D2D2D2D2D2D2D2D2D2D56
:100AD0002D2D2D0A00000000002800080A0A0D54E0
:100AE000686520696D6167652073697A652069733F
:100AF00020686967686572207468616E2074686533
:100B000020616C6C6F776564207370616365206D24
:100B1000656D6F7279210A0D000000000A0A0D56FA
:100B20006572696669636174696F6E206661696C7C
:100B30006564210A0D0000000D0A0A41626F72749B
:100B4000656420627920757365722E0A0D000000BD
:100B500001B50121684600F0CBFB08BD002101E092
:100B6000491C89B2425C002AFAD100F0C1BB0000E6
:100B7000F0B5054600242A7820462346302A2ED197
:100B80006A78782A01D0582A29D102241CE000BFB3
:100B9000A2F14106052E07D9A2F16107052F03D95D
:100BA0001136092E04D913E0A2F13007092F01D81C
:100BB000303A04E0052E01D8373A00E0573A641C79
:100BC00002EB03130B2C04D22A5D002AE0D103E0D0
:100BD00000202A5D002A01D101200B60F0BD2A5DB2
:100BE00062B16B2A01D04B2A02D10CB19B0205E005
:100BF0006D2A01D04D2A04D11CB11B0501200B60C8
:100C00000AE0A2F13006092E0CD803EB83036FF043
:100C10002F0606EB43031344641C0B2CDED2012881
:100C2000DDD1F0BD0020F0BDFFF738BC244810B581
:100C3000016821F007010160016811F0070FFBD185
:100C40002048016821F0F80141F08001016001684D
:100C500041F0010101600168C1F340010029FAD0AF
:100C6000416821F47C1141F400214160016841F0A8
:100C7000807101600168C1F340610029FAD04168C8
:100C800021F0F0014160416821F4E0614160416878
:100C900021F460514160416821F0030141F00201FB
:100CA0004160416801F00C010829FAD1064C204648
:100CB000FFF7C4FC2046BDE81040FFF7DDBC000094
:100CC00000200240001002400024F40070470000A1
:100CD00038B5124C2068C0F3401090B1E068C0F302
:100CE000401070B160680F490D4B0A889854521C2F
:100CF00090B240F698020880904201D3002008800C
:100D000038BD252000F012F9206800904007F7D583
:100D1000206800906068009038BD000000380140F5
:100D2000380000200800002038B5114C2068C0F3BE
:100D3000401080B1E068C0F3401060B160680E49B7
:100D40000C4B4A889854521C90B24880322801D3E8
:100D50000020488038BD262000F0E8F82068009088
:100D60004007F7D5206800906068009038BD00000B
:100D700000440040D00800200800002041F48071A9
:100D800041F2210240004900CB0500D5401CC303BD
:100D900000D55040CB03F5D580B27047FEE7000088
:100DA0002DE9F14F0027DFF850A188B0DFF844B1FA
:100DB0003D46B8463C46CAF800B093E04FF0000903
:100DC0004E468BE040F6B83204A94C48FFF77EFD52
:100DD00001280AD0B8F1000F00D06D1C052D7AD97A
:100DE0001820FFF7B5FE182076E0049A002572B1AE
:100DF000022A07D0414909F0FF008B7883420BD0CB
:100E0000152069E00620FFF7A3FE022466E0062015
:100E1000FFF79EFE012661E0B9F1000F0CD0DAF871
:100E20000000091D00F012F9DAF8000004990144ED
:100E3000CAF8001006203EE00879E8B30020304BE5
:100E4000091D02E01A54401C491C0A780AB14028C6
:100E5000F8D34FF0000C03F800C060466B4601E089
:100E60001A54401C11F8012F202A01D01028F7D362
:100E700003F800C006A91846FFF77AFE08986FF439
:100E8000FB210068C8420BD918208DF814000121FD
:100E900005A800F02DFA012105A800F029FA052483
:100EA000FB21584600F0FEF80898069901600620DC
:100EB000FFF74EFE432001E007E00CE0FFF748FE9D
:100EC00009F101094FF0010808E00620FFF740FE94
:100ED0000126374602E04320FFF73AFE56EA0400B7
:100EE0003FF470AF57EA04003FF468AF09B0204602
:100EF000BDE8F08F00280008100000204209002003
:100F0000020900200FB4084B10B504A902AA0398E7
:100F100000F02CF8044602A9002000F092F82046C8
:100F200010BC5DF814FB00004310000800280DDB26
:100F300000F01F02012191404009800000F1E020F3
:100F4000C0F88011BFF34F8FBFF36F8F704702E07F
:100F500008C8121F08C1002AFAD170477047002044
:100F600001E001C1121F002AFBD170472DE9F84FA3
:100F70009946924688460546002706E025280AD06D
:100F800051464A4690476D1C7F1C28780028F5D1B1
:100F90003846BDE8F88F002315F8011F18462E29A2
:100FA00015D115F8011F04232A290DD06FF02F0247
:100FB0002978A1F13004092C09D800EB800002EB5C
:100FC000400008446D1CF3E758F8040B6D1C2A78A8
:100FD000002ADDD0632A07D0732A0FD0104651466D
:100FE0004A4690477F1C2AE018F8042B8DF8002011
:100FF00000218DF801106E46012103E058F8046BC2
:101000004FF0FF315A074FF0000401D409E0641C8F
:1010100084420BDA8C42FADB325D002AF7D105E01C
:10102000641C8C42FCDB305D0028F9D1274404E0CD
:1010300016F8010B51464A469047641EF8D26D1CC3
:10104000A3E70A68531C0B60107070472DE9F0414C
:1010500014000F464FF0000506461AD0A00715D021
:1010600022F00304241D11E007EB850017F825107A
:10107000427841EA02218278C07841EA024141EA9D
:101080000061304600F027F86D1C361DB5EB940F5B
:10109000EAD3BDE8F08110B500F068F8BDE8104073
:1010A000FFF73CB970B586B000260C46054604969D
:1010B000FFF7DAF9CDE9025404A968460096FFF774
:1010C00035F920B1FFF786F9002006B070BDFFF7B3
:1010D00081F90120F9E770B50C460546FFF7C4F920
:1010E0002246002329460220FFF77EF918B1FFF7B8
:1010F00071F9002070BDFFF76DF9012070BD00008F
:10110000164808B5816941F001018161816901F0EA
:1011100001010091C16941F08051C161C06910496C
:1011200000F08050009008684FF6FF0210400D4A12
:1011300040F44070104308600B48416821F0E061C2
:101140004160416841F000714160FFF76FFDFFF7BA
:10115000ADF9BDE8084000F015B8000000100240ED
:101160000CED00E00000FA050000014010B525205C
:10117000FFF7DCFEBDE810400148FFF783BA00002E
:101180000038014030B58DB01C216846FFF707F8E4
:10119000142107A8FFF703F84FF48040FFF7CAF9BE
:1011A0000420FFF7C7F91B48079009200890032087
:1011B0000024CDE90904184D07A92846FFF7C6F910
:1011C000164807900420089007A92846FFF7BEF9A3
:1011D0004FF4E130CDE900040C200294CDE9034046
:1011E000059406940E4C69462046FFF787FA20695D
:1011F00020F490402061606920F02A006061E0687E
:1012000040F40050E06020680C9060680C900DB0D5
:1012100030BD000002000204000801400400040484
:101220000038014010B50022094B09E01C68C4F3E6
:10123000C014002CFAD010F8014B5C60521C92B222
:101240008A42F3D31868C0F380100028FAD010BD8A
:101250000038014010B50168074A1140B1F1005F44
:1012600009D14168054C21600068FEF76BFF2068DA
:10127000BDE81040004710BD0000FE2F0C0000200C
:10128000FFF73EFFFFF7C3FA4FF47A742046FFF7EB
:10129000AFFAFBE72DE9F84316460F468146FFF704
:1012A000F7F880460025114C1BE02EB1FFF7F0F84F
:1012B000A0EB0800B04202D90020BDE8F883206806
:1012C0000090000703D520680090606800902068B7
:1012D000C0F340100028E8D0606809F805006D1CD4
:1012E000ADB2BD42F3D30120E7E700000038014072
:1012F000FFF798BF00000000000000000102030497
:101300000607080900000000010203040A0A0D2074
:1013100050726F6772616D6D696E6720436F6D709B
:101320006C65746564205375636365737366756C6F
:101330006C79210A0D2D2D2D2D2D2D2D2D2D2D2DA1
:101340002D2D2D2D2D2D2D2D2D2D2D2D2D2D2D2DCD
:101350002D2D2D2D2D0D0A204E616D653A2000009A
:101360008013000800000020140000004E0F000849
:101370009413000814000020341100005E0F0008D0
:10138000000000000024F400000000000000000045
:041390000000000059
:0400000508000131BD
:00000001FF
