:020000040800F2
:100000002806002001010008E32E0008152400083E
:10001000E12E0008290C0008BD3200080000000095
:10002000000000000000000000000000E72E0008B3
:100030002B0C000800000000E52E0008AD30000881
:100040001B0100081B0100081B0100081B01000820
:100050001B0100081B0100081B0100081B01000810
:100060001B0100081B0100081B0100081B01000800
:100070001B0100081B0100081B0100081B010008F0
:100080001B0100081B0100081B0100081B010008E0
:100090001B0100081B0100081B0100081B010008D0
:1000A0001B0100081B0100081B0100081B010008C0
:1000B0001B0100081B0100081B0100081B010008B0
:1000C0001B0100081B0100081B0100081B010008A0
:1000D0001B010008B13200081B0100081B010008C9
:1000E0001B0100081B0100081B010008DFF80CD0F1
:1000F00000F024FC00480047F53E000828060020D8
:100100000648804706480047FEE7FEE7FEE7FEE7B1
:10011000FEE7FEE7FEE7FEE7FEE7FEE7FF3000084A
:10012000ED000008202A04DB203A21FA02F0002129
:10013000704721FA02F3D040C2F1200291400843F7
:1001400019467047D2B201E000F8012B491EFBD2DC
:1001500070470022F6E710B513460A4604461946D2
:10016000FFF7F0FF204610BDF0B480EA0102D40F83
:100170004200B2EB410F02D20246084611464A0045
:1001800042D0C30DDDB2C1F3C752AD1A202D35DA0E
:10019000C1F3160141F4000204B15242C5F1200638
:1001A00002FA06F12A411044B3EBD05F23D0C4B168
:1001B000012DA0EBC35009DCF0BC4FF0004202EA75
:1001C000C352DBB200F5000000F03EBA400000F17F
:1001D000807000EBC350A0F1807040EAD1704900FC
:1001E00009E0490841EAC071A0EBC35000F50000E6
:1001F000400800EBC350F0BC00F01DBA6142012280
:1002000002EB4101001BF6E7F0BC704781F00041B2
:10021000AAE780F00040A7E780EA010210B502F0EB
:100220000043400022D04A001FD0010E01EB1261B2
:10023000C0F35600C2F3560240F4000042F400023C
:10024000A0FB022000047F39140400D0401C50EAB7
:10025000124001D44000491EC2B20C0604EBD0107B
:10026000401C4008802A02D003E0002010BD20F08E
:100270000100002900DA0020184310BD30B480EAE4
:10028000010202F0004530F0004221F0004013D09E
:1002900090B1C30DD40DC2F31601C0F31600E41AD9
:1002A00041F4000140F400027D34914201D3641C0A
:1002B00000E04900002C02DA30BC002070474FF407
:1002C00000000023914201D3891A034340084FEAFA
:1002D0004101F7D151B1914202D14FF0004105E007
:1002E00002D24FF0010101E06FF0010103EBC450B5
:1002F000284430BC00F09FB9420005D0C0F3C7527B
:100300005242914201DC0020704700EBC15070471F
:100310002DE9FE4F81EA030404F0004421F000417E
:1003200000944FF0000B23F0004350EA01045ED02C
:1003300052EA03045BD0C3F30A54C1F30A552C44B8
:10034000A4F2F3340194A0FB0254C1F3130141F46D
:100350008011C3F3130343F4801301FB024400FB39
:10036000034E840A970A44EA815447EA8357A4FB60
:10037000076802958D0A05FB07854FEA932C04FB5D
:100380000C542705029D4FEA065847EA1637B5EB8D
:1003900008056EEB070C870E920E47EA811742EABA
:1003A0008312A7FB0201B6EB0B0164EB00042B0DDB
:1003B00043EA0C335E1844EB1C50DA465146E7FB27
:1003C0000201C5F313044FEA0B3343EA14534FEA17
:1003D0000432019C43EA0603A4F10C040294009C3D
:1003E000CDE900B400F06DF903B0BDE8F08F002056
:1003F0000146F9E72DE9F04D81EA030404F0004BD2
:1004000021F0004514464FF0000A23F0004150EA65
:10041000050220D054EA01021DD0C5F30A57024656
:10042000C5F31303C1F31300C1F30A5640F480155A
:1004300043F48013A7EB0608101BD64608F2FD38DC
:1004400073EB050002D308F1010801E092185B414B
:10045000B8F1000F03DA00200146BDE8F08D00205E
:100460004FF48011064684460EE0171B73EB050718
:1004700005D3121B63EB050306434CEA010C490844
:100480004FEA300092185B4150EA0107EDD152EA81
:10049000030012D082EA040083EA0501084305D074
:1004A000101BAB4106D20122002306E000224FF0D0
:1004B000004302E06FF0010253101AEB06004CEB10
:1004C000085110EB0A0041EB0B01BDE8F04D00F0C4
:1004D000E9B8C10F80EAE0700844CA0796230021FA
:1004E00000F0B2B896230022114600F0ADB800F03B
:1004F000004220F00040C10DC0F3160040F400009F
:100500007F2901DA00207047962903DCC1F19601AA
:10051000C84001E096398840002AF4D04042704734
:1005200000F0004230F000400AD0C10D01F56071CA
:10053000C0F3160042EA0151C20840071143704758
:1005400000200146704701F0004330B421F0004123
:1005500050EA010206D00A0DA2F56072C1F3130140
:10056000002A02DC30BC00207047440F44EAC1047A
:10057000C100E01830BC00EBC25000F05CB80000D5
:10058000002801DBC0F10040002901DBC1F100417E
:1005900081427047002801DBC0F10040002901DBE7
:1005A000C1F100418842704730B50B46014600203A
:1005B0002022012409E021FA02F59D4205D303FA25
:1005C00002F5491B04FA02F52844151EA2F10102A6
:1005D000F1DC30BD2DE9F05F0546002092469B46D8
:1005E00088460646814640241BE028464146474649
:1005F0002246FFF797FD53465A46C01A914110D341
:1006000011461846224600F0ABF92D1A67EB010897
:100610004F4622460120002100F0A2F917EB000905
:100620004E41201EA4F10104DFDC484631462A4633
:100630004346BDE8F09F0029A8BF7047401C490011
:1006400008BF20F00100704710B4B0FA80FC00FA37
:100650000CF050EA010404BF10BC704749B1CCF162
:10066000200421FA04F411FA0CF118BF01212143EE
:100670000843A3EB0C01CB1D4FEA00614FEA1020A9
:1006800042BF002010BC704700EBC350104400294B
:10069000A4BF10BC7047401C490008BF20F00100F7
:1006A00010BC704710B5141E73F1000408DA401C2A
:1006B00041F1000192185B411A4301D120F0010081
:1006C00010BD2DE9F04D92469B4611B1B1FA81F271
:1006D00002E0B0FA80F22032904600F041F9044680
:1006E0000F4640EA0A0041EA0B0153465A460843C6
:1006F00013D0114653EA010019D0C8F14002504608
:10070000FFF710FD05460E4650465946424600F09A
:1007100027F9084305D0012004E020463946BDE80A
:10072000F08D0020054346EAE0762C4337430A98D3
:100730006305E40AA0EB08000022FD0A44EA4754DE
:100740000A3002D500200146E9E701051019694188
:10075000DDE9084500196941BDE8F04DA2E72DE942
:10076000FE4F804681EA0300C00F0C46009021F046
:10077000004123F00045B8EB0200A94105D24046F4
:10078000214690461C460B46024623F0004010438B
:1007900047D0270DC7F30A00C3F30A510290401A4D
:1007A000019040286BDAC3F3130040F4801B0098DB
:1007B000924620B10023D2EB030A63EB0B0B0198A6
:1007C0005946C0F14002504600F0CAF806460D46B0
:1007D00050465946019A00F0D2F810EB08006141EA
:1007E000002487EA115284EAE7731A4340D0009A42
:1007F00062B3019A012A4FEA075215DC001B61EB34
:1008000002014FF0004202EA0752CDE90042001C0B
:1008100041F5801132462B46FFF753FF03B0BDE888
:10082000F08F40462146F9E7001B61EB0201001CF6
:1008300041F5801300185B412018A2F5001747EB23
:10084000030140EAD570B6196D4111E06D084FEA19
:10085000360645EAC0754FEA0752001B61EB0201FC
:10086000001C41F5801149084FEA30000019514140
:1008700032462B4603B0BDE8F04FFFF713BF009898
:10088000012240000023D0EB020263EBE0730098EA
:1008900021464FEAE074B8EB000061EB0401E9E7A0
:1008A00083F000435BE781F0004158E770B521F029
:1008B000004303430CD0C1F30A550024D5EB0405D3
:1008C00064EB0403D617AD1AB34102DB00200146E6
:1008D00070BD201841EB025170BDC1F30A52C1F343
:1008E000130140F2FF3341F480119A4202DA0020F2
:1008F0000146704740F233439A42A2F2334202DC8F
:100900005242FFF70FBC00F02BB8000030B5041EB8
:1009100071F1000404DB4FF00044404264EB01013C
:10092000141E73F1000405DB1C464FF000435242D5
:1009300063EB0403994208BF904230BD064C074D5B
:1009400006E0E06840F0010394E80700984710349F
:10095000AC42F6D3FFF7CEFBA0400008C040000831
:10096000202A04DB203A00FA02F10020704791406F
:10097000C2F1200320FA03F3194390407047202A64
:1009800006DBCB17203A41FA02F043EAE07306E0B7
:1009900041FA02F3D040C2F12002914008431946C7
:1009A000704700002DE9F84F02F09CF902F0BEF903
:1009B0009248934C06682663456865638768A76319
:1009C000C168E1638B4601692164406960648146C6
:1009D0008A463046FFF78BFD60802846FFF787FD8B
:1009E000A0803846FFF783FDE0805846FFF77FFD83
:1009F00020815046FFF77BFD60814846FFF777FD79
:100A0000DFF80082A081464505DA6FF00D0130461F
:100A1000FFF772FC0BE07C493046FFF7F7FB6FF005
:100A20000D01FFF769FC4FF07E51FFF7F2FB0090DC
:100A3000454505DA6FF00D012846FFF75DFC0BE038
:100A400071492846FFF7E2FB6FF00D01FFF754FCF8
:100A50004FF07E51FFF7DDFB04466A48874203DA18
:100A60006FF00D01384605E067493846FFF7CEFBC9
:100A70006FF00D01FFF740FC074601462046FFF7E7
:100A8000FDFBFFF74DFD03F019F900225F4BFFF767
:100A90003FFC4FF0C0425E4BFFF7ACFCFFF753FD4D
:100AA000574C80463946A0640098FFF7E7FBFFF7F4
:100AB00037FD03F003F90022544BFFF729FC4FF0F8
:100AC000C042534BFFF796FCFFF73DFD4D49E064F4
:100AD0008E4202DD80F00040E0648D4202DD88F04D
:100AE0000040A0644FF08E474A4D5846BB4503DA9C
:100AF0002946FFF7C3FBE063E16BDFF81C81DFF8F9
:100B00001CB1B94206DD4046FFF780FB5946FFF7AE
:100B1000B5FBE0635046BA4503DA2946FFF7AEFB62
:100B20002064216CB94206DD4046FFF76FFB594651
:100B3000FFF7A4FB20644846B94503DA2946FFF7CE
:100B40009DFB6064616C364D364EB94206DD404611
:100B5000FFF75CFB5946FFF791FB6064E16BA06C0B
:100B600001F004FF216CE06C01F0B2FF2946206D1A
:100B7000FFF752FB07462946A06AFFF74DFB3146B7
:100B8000FFF7F2FA3946FFF7FBFC0FD32946206D39
:100B9000FFF742FB07462946A06AFFF73DFB3146B7
:100BA000FFF734FB3946FFF7F5FC02D2206DA06257
:100BB00020612946606DFFF72FFB07462946E06A52
:100BC000FFF72AFB3146FFF7CFFA3946FFF7D8FC8B
:100BD0000FD32946606DFFF71FFB07462946E06AE1
:100BE000FFF71AFB3146FFF711FB3946FFF7D2FC3E
:100BF00002D2606DE0626061BDE8F88FFC01002008
:100C00001C00002000F8FF460000404700806640BE
:100C1000B81E0940333383C100FF7F47333383411C
:100C20000000C8420000C040FEE77047704710B5A2
:100C300090F821100022022905D00421816380F858
:100C40002020012010BD01680B6823F00E030B600B
:100C500001680B6823F001030B6090F84030C46B0F
:100C6000012101FA03F3636080F8211080F820204D
:100C7000104610BD10B590F821100024022903D0B1
:100C80000421816301243DE001680A6822F00E021C
:100C90000A6001680A6822F001020A601A4A0168C3
:100CA000914201D1012121E0174A1432914201D130
:100CB00010211BE0144A2832914201D1891515E018
:100CC000114A3C32914201D189140FE00E4A503250
:100CD000914202D14FF4803108E00B4A64329142D4
:100CE00002D14FF4801101E04FF08071064A083ABA
:100CF0005160012180F82110002180F82010416B03
:100D000001B18847204610BD0800024070B5044676
:100D100000F008F90546601C02D00448007804443D
:100D200000F000F9401BA042FAD370BDA8000020DB
:100D30002DE9F84FDFF8B891002409F1040A0AF10F
:100D4000040B23460F270BF1040EC9E00125A54033
:100D50002A40AA427DD1674ED1F804C0ACEB060808
:100D6000B44532D014DCBCF1030F3AD009DCBCF13D
:100D7000000F2AD0BCF1010F1CD0BCF1020F31D101
:100D80001DE0BCF1110F17D0BCF1120F2AD119E0F0
:100D9000B8F5881F19D006DCB8F5803F15D0B8F536
:100DA000801F1FD111E0B8F5001F0ED0B8F5041F49
:100DB00018D10AE0CB6815E0CB681B1D12E0CB68A8
:100DC00008330FE0CB680C330CE08B682BB1012BA0
:100DD0004FF0080303D0456104E0042302E00561FD
:100DE00000E00023FF2A01D8064601E000F10406D6
:100DF0004FEA840501D9A5F12005D6F8008007FA4D
:100E000005FC28EA0C0803FA05F548EA0508C6F8C7
:100E100000804D68ED0062D5374DAE6946F00106A1
:100E2000AE61AD6924F0030605F001050095334D70
:100E300006EB050CDCF80850A607360F07FA06F893
:100E400025EA0805DFF8B880404503D14FF00008D7
:100E500017E044E0DFF8AC80404502D14FF00108D4
:100E60000FE0DFF8A480404502D14FF0020808E00F
:100E7000DFF89880404502D14FF0030801E04FF0C1
:100E8000040808FA06F848EA0508CCF808804D6816
:100E9000D9F80060ED034D4601D5164300E09643B6
:100EA0002E604D68DAF80060AD03554601D5164353
:100EB00000E096432E604D68DBF80060ED025D4671
:100EC00001D5164300E096432E604D68DEF80060C1
:100ED000AD02754601D5164300E096432E60641CB2
:100EE0000D682A46E5407FF431AFBDE8F88F000079
:100EF00000040140000011100010024000000140F9
:100F000000080140000C01400010014000140140A5
:100F10008068084000D0012070470AB10161704725
:100F20000904FBE70148806870470000A800002022
:100F300070B5040025D094F83D00002520B984F850
:100F40003C50204600F0E6FC242084F83D00206858
:100F5000016821F0010101602068016841F400414D
:100F600001602068016821F40041016000F04CFE3E
:100F70004D4A6168914201D84C4900E04C49884291
:100F800001D2012070BD4B492368B0FBF1F15E68CE
:100F900026F03F060E435E606368934206D94FF425
:100FA000967359434FF47A73B1FBF3F12368491CEC
:100FB0001E6A26F03F06314319626168914210D8DB
:100FC0004900401EB0FBF1F2521CC2F30B02042A8E
:100FD00001D2042022E0B0FBF1F0401CC0F30B0072
:100FE0001CE0A268F2B301EBC10303EB0116431E40
:100FF000B3FBF6F35B1C43F480431B0549D092B36B
:1010000001EBC10202EB0111401EB0FBF1F0401CEC
:10101000C0F30B0040F4804040F400402168CA69EE
:101020004CF6FF739A431043C861D4E9071001439B
:101030002068026822F0C00211430160D4E9030174
:1010400001432068826848F2FF339A43114381606C
:10105000D4E9050108432168CA6822F0FF02104361
:10106000C86001E00EE016E02068016841F001016F
:1010700001602564202084F83D00256384F83E50FB
:10108000002070BD01EB4106431EB3FBF6F35B1C71
:10109000B3E70120C2E701EB4101401EB0FBF1F0D4
:1010A000401CC0F30B00B7E7A086010080841E003F
:1010B00000093D0040420F002DE9FF4F81B08946F5
:1010C0000446FFF72FFF054694F83D004FF0010856
:1010D00020287DD11923012250492046009501F096
:1010E0006DFB002874D194F83C00012870D00120D9
:1010F00084F83C0020680168C90703D1016841F009
:10110000010101602068016821F400610160242070
:1011100084F83D00002626644148E0624FF0011B40
:1011200020272068016841F4807101600095002249
:1011300059462046049B01F041FB50B120680068ED
:10114000C00502D54FF400702064032005B0BDE84F
:10115000F08F216809F0FE000861FFF7E3FE2168C7
:10116000054648694969C0F34000C1F380214FF04A
:10117000A00A0FE0FFF7D6FE411B0498814200D879
:1011800008B984F83DA0216848694969C0F3400066
:10119000C1F3802194F83D20A02A02D008B900298B
:1011A000E8D084F83D7020684169C943890716D4A6
:1011B000016841F400710160206841698069192368
:1011C000012216492046009501F0F8FAB8B900E06E
:1011D00021E084F83D7084F83C600020B6E70168A7
:1011E00041F40071016021686FF480604861192347
:1011F00001220A492046009501F0E0FA08B10120D9
:10120000A4E7039808F1010880458AD384F83D706B
:1012100084F83C60F3E7022098E700000200100029
:101220000000FFFF2DE9F84F0025DDF828909846D3
:1012300017468A4604460095FFF774FE064694F862
:101240003D0020287AD119230122834920460096A7
:1012500001F0B4FA0028F5D194F83C0001286DD0D3
:10126000012084F83C0020680168C90703D10168A7
:1012700041F0010101602068016821F40061016012
:10128000222084F83D00102084F83E002564676227
:10129000A4F82A80608D20857048E06233464A4673
:1012A0005146204601F0CEF800287DD1208DDFF890
:1012B000B081202768B1012814D002282068016875
:1012C0001ED041F48061016020684169806900900E
:1012D000B5E02068416981690091016841F40071BD
:1012E0000160ACE02068016821F48061016072B6A1
:1012F0002068416981690091016841F400710AE048
:1013000041F40061016072B6206841698169009111
:10131000016821F48061016062B690E0032868D81A
:1013200001280CD002284B464FF0000241462046CF
:1013300000960FD001F042FAB0BB10E08AE03246CE
:101340004946204601F0B9FA70BB20680069616A1D
:1013500008706BE001F032FA30BB72B634E02068FE
:10136000016821F48061016072B620680069616AD9
:101370000870606A401C6062208D401E2085608D70
:10138000401E6085374846F2A8110068B0FBF1F0B6
:10139000C0EBC00000EB80000090401E009008D021
:1013A00020684069C04300E029E040070CD5009860
:1013B000F3E744F8305F6773A573206940F02000BD
:1013C000206162B625731AE02068016841F400715B
:1013D000016020680069616A0870606A401C606290
:1013E000218D491E2185618D491E618562B6216866
:1013F0001AE032464946204601F05FFA10B101205A
:10140000BDE8F88F20680069616A0870606A401C56
:101410006062218D491E2185618D491E618521688B
:101420004A69D24352070AD409690170606A401CB4
:101430006062208D401E2085608D401E6085208D5D
:1014400000287FF46BAF84F83D7084F83E5084F838
:101450003C50D5E70220D3E7020010000000FFFF58
:1014600004000100B40000202DE9F84F1F4690460B
:101470008A460446DDF82890FFF754FD054694F8A7
:101480003D0020287FD119230122404920460095A4
:1014900001F094F9002876D194F83C00012872D02C
:1014A000012084F83C0020680168C90703D1016865
:1014B00041F0010101602068016821F400610160D0
:1014C000212084F83D00102084F83E000026266488
:1014D000C4F824806785608D20852D48E0622B4606
:1014E0004A465146204601F023F890B920684169E8
:1014F0008069009036E02A464946204601F010FAFD
:1015000050B1206C042804D12068016841F40071B6
:1015100001600120BDE8F88F606A216800780861E9
:10152000606A401C6062618D491E6185218D491E83
:1015300089B2218522685369DB435B070BD451B123
:1015400000781061606A401C6062608D401E60859A
:10155000208D401E20852A464946204601F008F984
:101560000028CED1208D0028C5D154F83D0B01684C
:1015700041F400710160202004F81E09E6776677C7
:101580000020C7E7FFE70220C4E7000002001000C8
:101590000000FFFF2DE9FF4F83B00025DDE9107942
:1015A0009A4693460446DDF848800095FFF7BAFC5A
:1015B000064694F83D0020287CD119230122854954
:1015C0002046009601F0FAF80028F5D194F83C0086
:1015D00001286FD0012084F83C0020680168C90709
:1015E00003D1016841F0010101602068016821F424
:1015F00000610160222084F83D00402084F83E0014
:1016000025646762A4F82A90608D20857248E062A4
:10161000CDE9008653465A462046049900F0D6FF8D
:1016200000287DD1208DDFF8B491202768B10128F2
:1016300014D00228206801681ED041F48061016046
:101640002068416980690090B6E02068416981693D
:101650000091016841F400710160ADE0206801680B
:1016600021F48061016072B620684169816900914E
:10167000016841F400710AE041F40061016072B652
:101680002068416981690091016821F480610160ED
:1016900062B691E0032868D801280CD0022843469E
:1016A0004FF000024946204600960FD001F086F820
:1016B000B0BB10E08BE032464146204601F0FDF819
:1016C00070BB20680069616A08706CE001F076F810
:1016D00030BB72B634E02068016821F4806101609B
:1016E00072B620680069616A0870606A401C6062B6
:1016F000208D401E2085608D401E6085384846F252
:10170000A8110068B0FBF1F0C0EBC00000EB800056
:101710000090401E009008D020684069C04300E05F
:1017200029E040070CD50098F3E744F8305F677371
:10173000A573206940F02000206162B625731AE08D
:101740002068016841F40071016020680069616AE5
:101750000870606A401C6062218D491E2185618D80
:10176000491E618562B621681BE03246414620462B
:1017700001F0A3F818B1012007B0BDE8F08F206890
:101780000069616A0870606A401C6062218D491EB0
:101790002185618D491E618521684A69D2435207BE
:1017A0000AD409690170606A401C6062208D401E85
:1017B0002085608D401E6085208D00287FF46AAFF3
:1017C00084F83D7084F83E5084F83C50D4E7022001
:1017D000D2E70000020010000000FFFF040001003B
:1017E000B40000202DE9FF4F83B09A46DDE9119740
:1017F00093460446DDF84080FFF794FB054694F8D5
:101800003D0020287FD11923012240492046009520
:1018100000F0D4FF002876D194F83C00012872D063
:10182000012084F83C0020680168C90703D10168E1
:1018300041F0010101602068016821F4006101604C
:10184000212084F83D00402084F83E0000262664D4
:10185000C4F82480A4F82A90608D20852C48E0628A
:10186000CDE9007553465A462046049900F02CFFF6
:1018700070B930E02A463946204601F051F858B197
:10188000206C042804D12068016841F400710160D3
:10189000012007B0BDE8F08F606A21680078086118
:1018A000606A401C6062218D491E89B22185628D6B
:1018B000521E628522685369DB435B070BD469B112
:1018C00000781061606A401C6062208D401E208597
:1018D000608D401E6085208D0028CBD12A46394678
:1018E000204600F045FF0028CAD154F83D0B01689E
:1018F00041F400710160202004F81E09E677667744
:101900000020C6E7FFE70220C3E700000200100046
:101910000000FFFF30B585B00021009101910291D8
:1019200003911E4D03681E4C122103221D48AB4239
:1019300018D1E36943F40013E361E36903F400138E
:101940000493A36943F00803A361A369039203F01E
:1019500008030493C023CDE900316946FFF7E8F995
:1019600005B030BD104DAB42FAD1A36943F0080376
:10197000A361A369039203F0080304934FF4406347
:10198000CDE900316946FFF7D3F9E06940F4800002
:10199000E061E06900F480000490E1E70054004059
:1019A00000100240000C01400058004002488168CD
:1019B0000278114481607047A8000020074810B5E4
:1019C000016841F010010160032000F075F800206B
:1019D00000F006F800F024F8002010BD00200240BE
:1019E00070B50D4D04464FF47A712878B1FBF0F0D4
:1019F0000A490968B1FBF0F000F07CFB48B9102CF3
:101A000007D200222146501E00F036F800206C60FC
:101A100070BD012070BD0000A8000020B4000020AF
:101A20000C4808B5816941F001018161816901F0CB
:101A300001010091C16941F08051C161C06900F0AC
:101A4000805000900448416821F0E06141F000714D
:101A5000416008BD0010024000000140002809DB81
:101A600000F01F02012191404009800000F1E020B8
:101A7000C0F8001170470000F0B40E4B1B680C4614
:101A8000C3F30223C3F10705042D00D90425191D52
:101A9000072901D2002300E0DB1E012606FA05F12A
:101AA000491E214099409E40761E16403143F0BCAD
:101AB00001F02ABC0CED00E0064900F007020868BE
:101AC0004FF6FF03184040EA0220034A1043086023
:101AD000704700000CED00E00000FA052DE9F0472A
:101AE0000F46050061D0434E306800F00700B84251
:101AF00009D2306820F0070038433060306800F0C9
:101B00000700B84251D128683B4C810712D54007E5
:101B100003D5606840F4E06060602878000703D572
:101B2000606840F4605060606068A96820F0F00070
:101B3000084360602878C00728D06868012810D062
:101B40002168022810D0890700292EDA616821F067
:101B5000030101436160FFF7E5F9804641F28839EE
:101B60000DE021688903EFE78901EDE7FFF7DAF976
:101B7000A0EB0801494502D90320BDE8F087606861
:101B8000696800F00C00B0EB810FEFD1306800F015
:101B90000700B8420BD9306820F0070038433060A6
:101BA000306800F00700B84201D00120E5E728784E
:101BB000400705D56068E96820F4E060084360608C
:101BC0002878000706D56068296920F4605040EA4B
:101BD000C100606000F038F86168084AC1F3031181
:101BE000515CC8400649086006480068FFF7F8FEE7
:101BF0000020C2E70020024000100240EC3F000835
:101C0000B4000020AC000020044805490068496881
:101C1000044AC1F30221515CC8407047B40000205F
:101C200000100240FC3F000804480549006849686C
:101C3000044AC1F3C221515CC8407047B40000207F
:101C400000100240FC3F000812A185B00FC98DE8CA
:101C50000F0014A0144A006804905168134801F062
:101C60000C03042B10D0082B0ED1C1F38343C903FE
:101C70001DF803000AD5516804AAC1F34041515C24
:101C80000A4A5043B0FBF1F005B070470849484399
:101C9000FAE7000002030405060708090A0B0C0D09
:101CA0000E0F1010010200000010024000127A0016
:101CB00000093D002DE9F84F040070D02078C04D98
:101CC000C00749D06868C0F38100012807D0686860
:101CD000C0F38100022809D16868C00306D52868CE
:101CE000800339D560680028E7D035E06068B0F53A
:101CF000803F0BD010B1B0F5A02F11D0286820F490
:101D000080302860286820F4802002E0286840F4B1
:101D100080302860606890B1FFF704F906460AE059
:101D2000286840F480202860F0E700BFFFF7FAF849
:101D3000801B642873D828688003F7D50CE0FFF770
:101D4000F1F8064605E000BFFFF7ECF8801B6428B9
:101D5000F0D828688003F7D420789A4E80074FF097
:101D600001094FF0000839D5686810F00C0F07D052
:101D70006868C0F38100022809D16868C00306D4EE
:101D80002868800714D52069012808D110E020694F
:101D9000B0B1C6F80090FFF7C5F8074605E00AE1C4
:101DA000FFF7C0F8C01B0228C4D828688007F7D501
:101DB0002868616920F0F80040EAC10028600DE061
:101DC000C6F80080FFF7AEF8074604E0FFF7AAF870
:101DD000C01B022823D828688007F7D42078000782
:101DE0002CD57948A169D9B1C0F80090FFF79AF8CD
:101DF000074604E0FFF796F8C01B02280FD8686A70
:101E00008007F7D571484FF4FA510068B0FBF1F044
:101E1000009000BF0098411E0091FAD20EE080E0D1
:101E2000C0F80080FFF77EF8074604E0FFF77AF875
:101E3000C01B022875D8686A8007F7D4207840074D
:101E400060D5E8690027C00008D4E86940F08050F8
:101E5000E861E869012700F0805000905C48016863
:101E6000C90513D40168834641F480710160FFF70E
:101E700059F8824606E000BFFFF754F8A0EB0A00CD
:101E800064284ED8DBF80000C005F5D5E0680128CD
:101E90000AD008B1052813D0286A20F00100286272
:101EA000286A20F0040002E0286A40F0010028625D
:101EB000E06841F2883B98B1FFF734F882460BE0C6
:101EC000286A40F004002862EEE700BFFFF72AF816
:101ED000A0EB0A0159455AD8286A8007F6D50CE0CC
:101EE000FFF720F8824605E0FFF71CF8A0EB0A0197
:101EF00059454CD8286A8007F6D41FB1E86920F00C
:101F00008050E861E06988B36968C1F38101022902
:101F100044D00228C6F8608004D0FFF703F80446D6
:101F200038E034E0FEF7FEFF074604E0FEF7FAFF74
:101F3000C01B02282BD828688001F7D4206AB0F58E
:101F4000803F05D16868A16820F4003008436860CC
:101F5000D4E908010843696821F4741108436860F2
:101F6000C6F86090FEF7DEFF044606E025E000BFFD
:101F7000FEF7D8FF001B022809D828688001F7D592
:101F80001BE000BFFEF7CEFF001B022802D9032092
:101F9000BDE8F88F28688001F4D40EE00128F7D05E
:101FA0006868226A00F48031914204D1616A00F4C9
:101FB0007010884201D00120EAE70020E8E7000025
:101FC000001002400000424280044242B40000205F
:101FD0000070004070B5040009D0606A002540B16F
:101FE00025616561A56294F8510040B10CE00120C3
:101FF00070BD6068B0F5827FF4D0E561F2E784F8E7
:102000005050204600F040F8022084F8510020682B
:10201000016821F040010160A088218900F48270EC
:1020200001F404410843A18901F400610843217CC3
:1020300001F002010843217D01F001010843218BD9
:1020400001F400710843217F01F03801084394F83E
:10205000201001F080010843218D01F40051084354
:1020600021680860A069042101EA104021684860E5
:102070002068C16921F40061C1616565012084F8AF
:102080005100002070BD000010B586B00021009105
:1020900001910291039100681349884221D11348AC
:1020A000816941F480518161816901F48051049119
:1020B000816941F00401816180690D4C00F00400E8
:1020C00004905020009069462046FEF731FEA02083
:1020D0000090022001900320039069462046FEF7FD
:1020E00027FE06B010BD0000003001400010024085
:1020F0000008014010B5401EB0F1807F01D30120DF
:1021000010BD4FF0E02460610F21601701F0FCF872
:102110000020A06107202061002010BD704770479B
:10212000F8B5026804461068D168536910F00F0FC3
:102130004FF0000553D003F0010601F490773743C8
:102140005FD0C20705D0CA0503D5226C42F0010258
:102150002264420705D5DA0703D0226C42F002025E
:102160002264820705D5DA0703D0226C42F004020C
:102170002264020707D501F02002324303D0226C0B
:1021800042F008022264226C002A34D0800604D572
:10219000880602D5204600F0D3FF20684069216CF4
:1021A000C0F38010090700D430B3204600F0B0FF20
:1021B0002068416949061BD5416921F04001416110
:1021C000A06BA8B158494163A06BFEF753FD0028EE
:1021D00011D0A06B416B01B0BDE8F0400847830609
:1021E0000FD58B060DD52046BDE8F84000F0A8BFFE
:1021F0002046FFF794FFF8BD2046FFF790FF2564C7
:10220000F8BD266B2023012E52D1C60650D5CE062E
:102210004ED5106850680090506940062AD5A16BD1
:10222000086840680004000CEAD0A68D8642E7D911
:10223000E0858869202818D0D06820F48070D060AC
:102240002068416921F0010141612068416921F064
:102250004001416184F83E3025632068C16821F067
:102260001001C160A06BFEF7E2FCA08DE18D401A69
:1022700081B219E0A08DE18D401A81B2E08D002875
:10228000BED00029BCD0D06820F49070D060206807
:10229000426922F00102426184F83E3025632068E1
:1022A000C26822F01002C2602046FFF737FFF8BD77
:1022B00005062BD50D0629D594F83D002128F6D129
:1022C000A068B0F5805F01D12069B0B1206A411CDF
:1022D0002162216800784860E08C401E0004000CF8
:1022E000E084E4D12068C16821F08001C1602068E9
:1022F000C16841F04001C160F8BD206A0088C0F3A8
:1023000008005060206A801C2062E5E74006F3D593
:102310004806F1D5D168204621F04001D16084F80B
:102320003D3000F076F8F8BD0131000870B50400CA
:1023300004D094F83D00002510B106E0012070BDE6
:1023400084F83C50204600F023F8242084F83D0017
:102350002068C16821F40051C160204600F04CFFA4
:102360002068016921F4904101612068416921F0F0
:102370002A0141612068C16841F40051C1602564AF
:10238000202084F83D0084F83E00002070BD00004D
:1023900030B585B000240094019402940394006841
:1023A000184988422CD11848816941F480418161E3
:1023B000816901F480410491816941F004018161E6
:1023C0008069124D00F0040004904FF400700090FA
:1023D000022001900320039069462846FEF7A8FCDE
:1023E0002815CDE90004694628460294FEF7A0FCB2
:1023F000002211462520FFF73FFB2520FFF72EFB8B
:1024000005B030BD00380140001002400008014016
:1024100070477047FEE701684A69D24352050FD4FE
:102420006FF480624A61002140F8301F202242731D
:102430008173026942F00402026101730120704756
:10244000002070472DE9F84F0446C06A1E469346A7
:102450000D4621680A6842F480620A60082807D0A5
:10246000012805D010F5803F02D0206B112804D13F
:102470002068016841F4807101604FF001195B46EA
:10248000002249462046009600F098F94FF4007863
:1024900040B120680068C00501D5C4F84080032021
:1024A000BDE8F88F2069DFF884A0B0F5804F0FD029
:1024B0000620216800EAD51747F0F000086133468E
:1024C0005A460AF10601204600F0ACF958BB03E079
:1024D000E8B240F001001CE02168E8B20861334630
:1024E0005A465146204600F09DF9E0B920684169FE
:1024F00081690091016841F4807101605B460022AE
:1025000049462046009600F059F90028C1D147F00D
:10251000F1002168086133465A465146204600F0D2
:1025200081F90028BCD00120BAE7000002000100B8
:10253000F8B50446C06A1E460D461746082807D05F
:10254000012805D010F5803F02D0206B122804D15D
:102550002068016841F480710160134600224FF049
:1025600001112046009600F029F940B1206800686A
:10257000C00502D54FF4007020640320F8BD206927
:10258000B0F5804F0ED00620216800EAD51040F04B
:10259000F000086133463A460B49204600F042F904
:1025A00078B902E005F0FE0000E0E8B221680861B9
:1025B000054933463A46891F204600F033F9002882
:1025C000DCD00120F8BD0000080001002DE9F84F23
:1025D0000446006889460B9D01689846174641F4F9
:1025E000806101602068016841F48071016000959C
:1025F0004FF0011B0022594620460A9B00F0DEF8EE
:102600004FF4007A40B120680068C00501D5C4F8D5
:1026100040A00320BDE8F88F216809F0FE000861A2
:102620002B46284920460A9A00F0FCF8F0BB2068A7
:102630004169806900902A4620460A9900F070F9A5
:1026400040B1206C04283AD12068016841F400713F
:10265000016034E0FEB2B8F1010F09D02168380AF8
:1026600008612A4620460A9900F05AF90028E8D164
:10267000206806612A4620460A9900F051F9002890
:10268000DFD12068016841F480710160009500226B
:10269000594620460A9B00F091F80028B3D12168E2
:1026A00009F0FF0040F00100086100E007E02B4660
:1026B000044920460A9A00F0B5F80028AAD0012063
:1026C000A8E70000020001002DE9F8430446006875
:1026D0000D46DDE9089701689846164641F4807179
:1026E00001604B4600224FF001112046009700F098
:1026F00065F848B120680068C00502D54FF4007045
:1027000020640320BDE8F883216805F0FE0008611D
:102710003B464A461549204600F084F888B92068AF
:102720004169806900903A464946204600F0F8F831
:1027300048B1206C042804D12068016841F400717C
:1027400001600120DEE7F5B2B8F1010F09D0216880
:10275000300A08613A464946204600F0E1F8002870
:10276000E7D1206805610020CCE7000002000100ED
:1027700070B516460D4604460DE02046FFF74BFEA9
:1027800008B1012070BD681C05D0FEF7CBFB801B93
:10279000A84207D835B120684069C0434007ECD44F
:1027A000002070BD002044F8300F20216173A07319
:1027B000216941F0200121612073E2E72DE9F04712
:1027C0001E4690460D460446C1F30747DDF82090AB
:1027D00008E0701C06D0FEF7A5FBA0EB0900B04294
:1027E0000FD876B12068012F18D0806925EA000043
:1027F0000004000C14D000214145EAD00020BDE8BF
:10280000F087002044F8300F20216173A073216904
:1028100041F02001216120730120F0E74069E5E7E4
:102820000121E9E72DE9F0479A4691460E46044614
:1028300000254FF02008C1F3074725E020684069D4
:10284000C043400514D42068016841F40071016060
:1028500021686FF480604861256384F83D8084F8C6
:102860003E50206C40F00400206484F83C501FE08F
:10287000B9F1FF3F08D0FEF755FBA0EB0A0149452F
:102880000CD8B9F1000F09D02068012F13D080694E
:1028900026EA00000004000C0BD0CFE744F8305FBC
:1028A00084F80D80A573206940F020002061257315
:1028B0000120BDE8F0874069EAE72DE9F0410025F5
:1028C00090460E460446202717E04069C043C006E4
:1028D0000CD454F8301B6FF01000486144F81059C4
:1028E0006777A577206A2062257717E0FEF71AFB45
:1028F000A0EB0800B04208D83EB120684169C94346
:102900004906E2D40020BDE8F08144F8305F6773E7
:10291000A573206940F02000206125730120F2E7B3
:1029200070B516460D4604460DE02046FFF773FDD0
:1029300008B1012070BD681C05D0FEF7F3FA801BBA
:10294000A84207D835B120684069C0430006ECD4DE
:10295000002070BD002044F8300F20216173A07367
:10296000216941F0200121612073E2E72DE9F34F55
:10297000554C87B0A16D04910898FDF747FC616A3A
:102980000091FDF749FC216DFDF7EEFB04F17C059C
:102990000390D5F804A0A0695146FDF737FCD5F89F
:1029A00008904946FDF732FC48490860EA6882F021
:1029B00000464E608E60E769CF6090460099FDF753
:1029C0002BFC2968FDF7D0FB834630460099FDF7C4
:1029D00023FC06465146FDF7C7FB029030464946A8
:1029E000FDF7C2FB824638460099FDF715FC4146CB
:1029F000FDF7BAFB814603990798FDF707FC80466F
:102A0000E0652078FDF76EFD59460190FDF704FC66
:102A10000646206651460198FDF7FEFB606605906C
:102A200031460198FDF7F8FB216AFDF79DFB07464B
:102A3000A06639463046FDF721FCE0660090394635
:102A40000598FDF71BFCC4E91C060746DDE90101FA
:102A5000FDF7E2FBA067019031460098FDF7DCFB33
:102A60005946FDF7D6FB2860DDE90001FDF7D4FBF0
:102A70000299FDF7CEFB686031463846FDF7CCFB86
:102A80005146FDF7C6FBA86038460199FDF7C4FB27
:102A90004946FDF7BEFBE86041460098FDF7BCFBE8
:102AA0000399FDF761FB206541463846FDF7B4FB0D
:102AB0000499FDF759FB0146A0650898FDF7A6FBB0
:102AC000E06309B0BDE8F08F1C0000201802002070
:102AD0002DE9F34F554C87B0A16D04910898FDF78F
:102AE00095FB616A0091FDF797FB616DFDF73CFB7B
:102AF00004F17C050390D5F804A0A0695146FDF7C8
:102B000085FBD5F808904946FDF780FB48490860E9
:102B1000EA6882F000464E608E60E769CF609046BA
:102B20000099FDF779FB2968FDF71EFB83463046C7
:102B30000099FDF771FB06465146FDF715FB029023
:102B400030464946FDF710FB824638460099FDF7AE
:102B500063FB4146FDF708FB814603990798FDF7A3
:102B600055FB8046E0652078FDF7BCFC5946019096
:102B7000FDF752FB0646206651460198FDF74CFBD7
:102B80006066059031460198FDF746FB216AFDF726
:102B9000EBFA0746A06639463046FDF76FFBE06664
:102BA000009039460598FDF769FBC4E91C06074605
:102BB000DDE90101FDF730FBA06701903146009887
:102BC000FDF72AFB5946FDF724FB2860DDE90001EB
:102BD000FDF722FB0299FDF71CFB68603146384681
:102BE000FDF71AFB5146FDF714FBA8603846019922
:102BF000FDF712FB4946FDF70CFBE86041460098E3
:102C0000FDF70AFB0399FDF7AFFA606541463846C8
:102C1000FDF702FB0499FDF7A7FA0146A0650898A5
:102C2000FDF7F4FA206409B0BDE8F08F1C00002025
:102C3000180200207FB50446012003A9CDE9001049
:102C40004FF47A7503460295A1B275222448FEF727
:102C5000A1FC9DF80C00982803D04FF0FF3004B081
:102C600070BD80208DF80C00A0B2012303AA6B2157
:102C700000F080F93220FEF749F800208DF80C00B2
:102C8000A0B2012303AA6B2100F074F93220B5FB36
:102C9000F0F0401E8DF80C00A0B2012303AA192108
:102CA00000F068F904208DF80C00A0B2012303AAFB
:102CB0001A2100F05FF908208DF80C00A0B2012362
:102CC00003AA1C2100F056F918208DF80C00A0B2C0
:102CD000012303AA1B2100F04DF90020BFE70000EB
:102CE0000C0100201CB50F4806236A4600883B21D2
:102CF00080B200F015F9BDF8000040BA00B2FDF74F
:102D0000E8FB094C2060BDF8020040BA00B2FDF7B4
:102D1000E0FB6060BDF8040040BA00B2FDF7D9FBEB
:102D2000A0601CBD04000020FC0100201CB50F4861
:102D300006236A460088432180B200F0F1F8BDF80E
:102D4000000040BA00B2FDF7C4FB094CE060BDF8DA
:102D5000020040BA00B2FDF7BCFB2061BDF80400E0
:102D600040BA00B2FDF7B5FB60611CBD0400002055
:102D7000FC01002030B585B000241848009401946F
:102D800002940394816941F020018161816901F01D
:102D900020010491816941F004018161816901F0A0
:102DA00004010491816941F00801816180690C4D41
:102DB00000F008000490002220212846FEF7ADF81C
:102DC000202000900120CDE90104022003906946F3
:102DD0002846FDF7ADFF05B030BD000000100240F1
:102DE000000C01400D4810B50B4901600C494160D1
:102DF00000214FF480428160C0E90312416181618A
:102E0000C1610162FEF794F8002803D0BDE81040CC
:102E1000FDF70CBF10BD000000540040B8000020BA
:102E2000A08601000D4810B50B4901600C494160B6
:102E300000214FF480428160C0E903124161816149
:102E4000C1610162FEF774F8002803D0BDE81040AC
:102E5000FDF7ECBE10BD0000005800400C01002042
:102E6000A08601000F4810B50D4901604FF4827132
:102E7000416000218160C160016108224161C0E9B7
:102E800006120162416281620A21C162FFF7A2F863
:102E9000002803D0BDE81040FDF7C8BE10BD0000FB
:102EA00000300140600100200C4810B50A49016063
:102EB0004FF4E1314160002181600C22C160C0E922
:102EC00004128161C161FFF731FA002803D0BDE827
:102ED0001040FDF7ABBE10BD00380140B801002026
:102EE000FEE770477047704708B54FF47A73009358
:102EF00013460A4601460248FEF794F940B208BD5F
:102F0000B800002008B54FF47A73009313460A46C0
:102F100001460248FEF7A8FA40B208BDB8000020FA
:102F20003EB54FF47A748DE81C000A460146012331
:102F30000248FEF72FFB40B23EBD00000C0100200E
:102F400070B501244FF47A752B46012221460748BB
:102F5000FEF7B2F828B1641CE4B2FF2CF4D3D12000
:102F600070BD03480480204670BD00000C010020A5
:102F7000040000203EB54FF47A748DE81C000A4628
:102F8000014601230248FEF72DFC40B23EBD000081
:102F90000C0100202DE9FC5FDFF8F8A024208DF85B
:102FA0000000AAF10C040B208DF801002088DFF846
:102FB000E0B0DFF8E49080B202226946FFF7A2FF9A
:102FC0002088062280B26946FFF78EFFBDF8000018
:102FD00040BAFDF787FA0546BDF8030040BAFDF791
:102FE00081FA2E4F804639462846FDF747F92C498D
:102FF000FDF712F92B49FDF709F906464D464946FA
:103000004046FDF709F93946FDF738F907462946E4
:103010003046FDF701F9804629466068FDF7FCF867
:10302000D9465946FDF7A0F84146FDF7A9FA0AD35B
:1030300029466068FDF7F0F84946FDF7E7F8414694
:10304000FDF7A8FA02D26660CAF800602946384641
:10305000FDF7E2F806462946A068FDF7DDF8DFF83F
:1030600048804146FDF780F83146FDF789FA0AD3DA
:103070002946A068FDF7D0F84146FDF7C7F831466C
:10308000FDF788FA02D2A760CAF80470BDE8FC9F79
:103090000000C040140000200000C84200FF7F472D
:1030A00000002F430000344200002041FEF77EBCA8
:1030B00030B58FB028216846FDF74BF814210AA8D7
:1030C000FDF747F801210804CDE90010002402941F
:1030D00002250491CDE907504FF4E01009906846AD
:1030E000FEF7E8FD0F20CDE90A056802CDE90C40A6
:1030F00002210AA80E94FEF7F1FC0FB030BD704714
:1031000010B5406A0021C185C184FFF708F810BDE1
:103110000168CA6822F49072CA6001684A6922F0A4
:1031200001024A61016B012904D10168CA6822F0D9
:103130001002CA60202180F83E1000210163704710
:1031400008B590F83E10222901D0022008BD8268FF
:103150004FF480539A4201D1016921B1816A9A42A8
:103160001BD04AB10AE00268816A5268C2F30802C1
:103170000A80816A891C08E0026972B1026852689B
:1031800002F07F020A70816A491C8162C18D491E6A
:103190000904090CC18503D019E002685268F1E7FF
:1031A0000168CA6822F02002CA600168CA6822F475
:1031B0008072CA6001684A6922F001024A612021D6
:1031C00080F83E10016B012903D0FFF721F90020A0
:1031D00008BD002101630168CA6822F01002CA60BC
:1031E00001680A68D20602D50A6849680091818D93
:1031F000FEF794FFEBE7000070B504460068016934
:10320000E26821F44051114301612169A06808433B
:10321000616908432168CA6841F20C639A4302431A
:10322000CA6020684169A26921F44071114341617B
:103230001E492068884202D1FEF7F6FC01E0FEF745
:10324000E3FC00EBC00101EB001260686421800028
:10325000B2FBF0F3B3FBF1F36FF018067343B2FB6C
:10326000F0F5B2FBF0F605EB8305322303EB051511
:10327000B5FBF1F5B6FBF1F605F0F00505EB06152B
:10328000B2FBF0F6B2FBF0F0B0FBF1F06FF0180219
:10329000504306EB800003EB0010B0FBF1F0216817
:1032A00000F00F002844886070BD00000038014025
:1032B0000148FEF735BF0000B8010020FEE700001E
:1032C0000FB4054B10B503A9044A029800F05EF94B
:1032D00010BC5DF814FB0000DD3E0008000000207B
:1032E000490050EAC12018BF04204A0D18BF40F021
:1032F000010040F2FF72B2EB515F08BF40F00200E4
:10330000012808BF052070470907090E002804DBC3
:1033100000F1E02080F80014704700F00F0000F189
:10332000E02080F8141D70472DE9F0414F1E00EB9E
:10333000C7010446D1E9000115461E4637F00602D2
:103340000DD02A463346FCF7E3FF7F1E04EBC7038C
:10335000D3E90023FDF703FA37F00602F1D1022F7B
:1033600025D0042F13D0062F18BFBDE8F0812A46C0
:103370003346FCF7CDFFD4E90A23FDF7F0F92A46DE
:103380003346FCF7C5FFD4E90823FDF7E8F92A46E0
:103390003346FCF7BDFFD4E90623FDF7E0F92A46E2
:1033A0003346FCF7B5FFD4E90423FDF7D8F92A46E4
:1033B0003346FCF7ADFFD4E90223FDF7D0F92A46E6
:1033C0003346FCF7A5FFD4E90023BDE8F041FDF743
:1033D000C6B90122FDF76ABA024A00201107FDF7BB
:1033E00065BA000001FDFFFF02E008C8121F08C116
:1033F000002AFAD170477047002001E001C1121F76
:10340000002AFBD1704700002DE9FF5F82B0002148
:10341000DDE90430020DDDF840B0034318D044F676
:103420001050A2F2FF3242431514119801281FD008
:10343000A5EB0B00401C5FEA000A4FF000064E4F60
:10344000DFF83891B046504615D5CAF1000413E0B4
:10345000119801244AA3012801D16FEA0B010298B7
:10346000119AC0E90031C0E9024206B0BDE8F09F00
:10347000CBF10000DFE704460021404A491842EB47
:103480000450CDE9001012E0E00707D032463B4679
:1034900040464946FCF73CFF8046894632463B465B
:1034A00010461946FCF734FF06460F466410002C00
:1034B000EAD1DDE90401DDE90023BAF1000F06DA03
:1034C000FCF726FF42464B46FCF722FF05E0FCF7DF
:1034D00091FF42464B46FCF78DFF04460E46002204
:1034E000284BFDF713FA03D84FF0FF30014607E0F1
:1034F0000022254B20463146FDF731F9FDF7EDF965
:10350000102409E0002C0ADB0A220023FDF762F8F0
:10351000039B30321A55641E50EA0102F2D1641C3A
:10352000039AC4F111031444119A012A03D0012211
:1035300008430DD10AE0084304D000204FF0110BDE
:10354000119072E7A3EB0B056D1E0DE05B4504DDEA
:103550004FF0000205F1010504E003DA4FF000022C
:10356000A5F10105002AECD002981199C0E90231B9
:10357000C0E9004579E70000000014400000F03F7A
:10358000300000000000F0430000E03F2DE9FF4F55
:1035900095B09B468946064600250FE2252877D13F
:1035A00000242746F84A0121059400E0044316F858
:1035B000013F203B01FA03F01042F7D130782A286E
:1035C00011D06FF02F033078A0F13002092A16D8FD
:1035D000059A44F0020402EB820203EB420210441B
:1035E000761C0590EFE759F8042B0592002A03DAC0
:1035F000504244F40054059044F00204761C3078A4
:103600002E2816D116F8010F44F004042A280DD0F4
:103610006FF02F023078A0F13003092B09D807EBA7
:10362000870302EB4303C718761CF3E759F8047BC2
:10363000761C30786C280FD006DC4C2817D0682810
:103640000DD06A2814D104E0742810D07A280FD144
:103650000DE044F400140AE044F4801401E044F462
:1036600040147278824202D104F58014761C761CD4
:10367000307866280BD013DC582877D009DC002876
:1036800075D04528F6D04628F4D047281AD19DE1B8
:1036900018E0632835D0642879D0652812D195E1E7
:1036A000702873D008DC6728F1D069286FD06E28A5
:1036B0000DD06F2806D1B5E073282CD0752875D0B1
:1036C000782874D05A46179990476D1C75E1C4F359
:1036D0000250022809D003280DD0D9F80010042880
:1036E0000DD00D6009F1040967E1D9F80010EA175F
:1036F000C1E90052F6E7D9F800100D80F2E70D702D
:10370000F0E719F8041B8DF8001000208DF8010077
:10371000EA46012003E059F804AB4FF0FF3061079F
:103720004FF0000102D40DE008F101018846B942D2
:103730000FDA8045F8DB1AF808100029F4D108E008
:1037400008F1010188468142FADB1AF808100029C5
:10375000F6D105985B46A0EB080721463846179A34
:1037600000F094FA284400EB080507E04DE029E159
:103770000DE01AF8010B5A4617999047B8F1010865
:10378000F7D25B4621463846179A13E142E00A22F7
:103790000092C4F302524FF0000A022A08D059F8EE
:1037A00004CB032A4FEAEC710AD00DE029E02AE0AD
:1037B00009F1070121F00702F2E802C1914609E090
:1037C0000FFA8CFC4FEAEC71042A03D14FFA8CFCFF
:1037D0004FEAEC71002907DA0A460021DCF1000CFF
:1037E00061EB02012D2202E0220504D52B228DF887
:1037F0000420012203E0E20701D02022F7E79046EF
:1038000059E00A2102E010220DE010214FF0000AD9
:1038100000910BE010224FF0000A44F00404082746
:10382000009203E008224FF0000A0092C4F3025213
:10383000022A05D059F804CB0021032A08D009E058
:1038400009F1070121F00702F2E802C1914605E003
:103850001FFA8CFC042A01D10CF0FF0C4FF0000879
:10386000220728D5702806D0009B83F0100353EA66
:103870000A0305D00EE040228DF80420012208E062
:103880005CEA010206D030228DF804208DF8050094
:1038900002229046009B83F0080353EA0A030AD1F0
:1038A0005CEA010201D1620705D530228DF80420BF
:1038B0004FF001087F1E582804D034A003900EA8B2
:1038C00002900DE036A0F9E753466046009AFCF7F7
:1038D00081FE84460398825C0298401E029002702A
:1038E0005CEA0100F0D1029806A9081A00F1200A4A
:1038F000600702D524F4803400E00127574502DD3B
:10390000A7EB0A0000E0002000EB0A0100900598F8
:103910004144401A0590E00306D45B462146179ABD
:10392000059800F0B3F90544002706E001A85A46BF
:10393000C05D179990476D1C7F1C4745F6DBE0037F
:103940000CD55B462146179A059800F09FF905446F
:1039500004E030205A46179990476D1C0099481E84
:1039600000900029F5DC08E0029802995A46007898
:10397000491C0291179990476D1CBAF10001AAF1F8
:10398000010AF1DC65E10000092801003031323321
:10399000343536373839616263646566000000008B
:1039A0003031323334353637383941424344454675
:1039B0000000000000F058F90544761C307800281B
:1039C0007FF4ECAD19B02846BDE8F08F620700D453
:1039D000062709F1070222F0070CFCE80223E14662
:1039E00003F000485FEA080C02D00FF2702C0DE0E3
:1039F0005FEA045C02D50FF2682C07E05FEAC47C42
:103A000002D00FF2602C01E0AFF2700C4FF0FF38E3
:103A100023F00043CDF850C065280CD006DC4528C3
:103A200009D046281DD047283DD13DE0662818D052
:103A300067287ED138E00021112F01DB112000E042
:103A4000781CCDE9000106A90EA8FFF7DDFCDDE931
:103A50000F010E9A03910021009207F1010A0491CF
:103A60004DE04FF000400097CDE9011006A90EA8E7
:103A7000FFF7CAFCDDE90F0203920E9B11990022A9
:103A8000DDF80CA00093049211B9791C00EB010A37
:103A9000B7EB0A0004D4C0F1FF3007F1010A04902B
:103AA000AAEB0700019044E0012F00DA0127002172
:103AB000112F01DD112000E03846CDE9000106A9F3
:103AC0000EA8FFF7A1FCDDE90F010E9A039100217A
:103AD00004910092BA4621070CD40399514500DAAB
:103AE0008A46BAF1010F05DD009AAAF10101515C85
:103AF000302908D0B84202DA10F1040F06DA0121A9
:103B0000CDE9011015E0AAF10101E9E7002805DC83
:103B1000049901440491AAEB000102E0411C5145C3
:103B200000DD8A460499401A401C01904FF0004085
:103B30000290200704D40198504501DBCDF80480A1
:103B400000208DF84F0002980DF14F07B0F1004FA3
:103B500025D02B200E9002984FF0020800280CDA96
:103B6000404202902D200E9007E00A210298FCF7B7
:103B70001BFD3031029007F8011DB8F10001A8F1DA
:103B80000108F2DC02980028EFD1791E0E98087027
:103B9000307800F0200040F0450007F8020D12A830
:103BA000C01B00F107081498007800B1012000EB59
:103BB0000A01019801EBE07105984144401A401E4A
:103BC0000590E00306D45B462146179A059800F05D
:103BD0005DF805441498007818B15A461799904733
:103BE0006D1CE00324D55B462146179A059800F02A
:103BF0004DF805441CE00498002807DBDDE90301CB
:103C0000884203DD0098405C179901E01799302045
:103C10005A469047049805F10105401C049001980C
:103C2000401E019004D12E205A46179990476D1CD2
:103C3000BAF10001AAF1010ADDDC05E017F8010B79
:103C40005A46179990476D1CB8F10001A8F1010878
:103C5000F4DC5B462146179A0598ABE62D00000080
:103C60002B000000200000002DE9F0410446002553
:103C70001E461746880404D405E039462020B04784
:103C80006D1C641EF9D52846BDE8F0812DE9F04190
:103C9000044600251E469046C80301D5302700E0A3
:103CA0002027880404D505E041463846B0476D1CFE
:103CB000641EF9D52846BDE8F08100002DE9F84FD3
:103CC00004460D4621F0004000917349814211DC09
:103CD0007249884201DC06D12CB120462946BDE854
:103CE000F84FFFF776BB6E48002DCCBF6D496E498B
:103CF000BDE8F88F6D49814211DD6D498142D8BF21
:103D00004FF0FF366DDD20462946FFF7E9FA04281B
:103D100008BFFFF761FB20462946BDE8F88F6549DB
:103D2000654F25F00045814233DD6449814219DD4C
:103D3000002632464FF0804320462946FCF70FFD0F
:103D400080468A46012220462946FCF7AFFD002224
:103D50003B46FCF7A5FD42465346FCF74BFB0446A9
:103D60000D463EE001260022BA463B462046294643
:103D7000FCF7F5FC80460F460022534620462946B4
:103D8000FCF78EFD42463B46FCF734FB04460D46ED
:103D900027E04B4981421BDDDFF828A102260022E3
:103DA000534620462946FCF7B3FA00223B46FCF76F
:103DB000D6FC80460F460022534620462946FCF793
:103DC0006FFD42463B46FCF715FB04460D4608E0F6
:103DD000032622462B4600203B49FCF70BFB0446FA
:103DE0000D4622462B4610461946FCF791FA8B46A3
:103DF000824602460B46FCF78BFA074602463348DA
:103E000088460B4606217844FFF78EFA52465B46F9
:103E1000FCF77EFA82462E488B463A4643460521F9
:103E20007844FFF781FA3A464346FCF771FA0246B6
:103E30000B46002E504659460CDAFCF790FC224601
:103E40002B46FCF765FA01B022462B46BDE8F04F41
:103E5000FCF729BDFCF783FC22462B46FCF758FAF9
:103E60001C4A7A4402EBC603D3E90023FCF718FD91
:103E700022462B46FCF714FD174A7A4402EBC60390
:103E8000D3E90023FCF70FFD009A002AB8BF81F0A8
:103E90000041BDE8F88F0000000010440000F07FF2
:103EA000182D4454FB21F93FFB21F9BF0000DC3FF2
:103EB0000000203E0000F33F0000F03F0000E63F1E
:103EC000008003400000F83F0000F0BF66020000E1
:103ED00024020000C20100008A01000004490A68AF
:103EE0005206FCD5024AC1B2121D11607047000093
:103EF000003801401CB5FDF761FDFFF7D9F8FEF76A
:103F000039FFFEF76FFFFEF78DFFFEF7ABFFFEF701
:103F1000CBFFFFF715F8FEF78DFEC820FCF7F6FE85
:103F20001D4FDFF87880DFF878901E4E202138464C
:103F3000FCF7EEFF00282CD0002220213846FCF7A9
:103F4000ECFFFCF72FFDFFF725F83220FCF7DEFE33
:103F5000D8F80000FCF7E4FA04460D46D9F8000052
:103F6000FCF7DEFA02460B460FA0CDE90045FFF74D
:103F7000A7F97068FCF7D4FA04460D463068FCF7E0
:103F8000CFFA02460B4610A0CDE90045FFF798F99D
:103F9000CCE70122D1E70000000C014030000020F6
:103FA0002C000020140000205B4D50553630353079
:103FB0005D78203D20252E32662079203D20252E5B
:103FC00032660D0A000000005B53485433585D749C
:103FD000656D70203D20252E32662068756D692044
:103FE0003D20252E32660D0A000000000000000072
:103FF0000000000001020304060708090000000099
:1040000001020304000000004FBB610567ACDD3F07
:10401000182D4454FB21E93F9BF681D20B73EF3FEF
:10402000182D4454FB21F93FE2652F227F2B7A3C67
:10403000075C143326A6813CBDCBF07A8807703C20
:10404000075C143326A6913CC4EB98999999C9BF93
:10405000711623FEC671BCBF6D9A74AFF2B0B3BFC8
:104060009AFDDE522DDEADBF2F6C6A2C44B4A2BF88
:104070000D5555555555D53FFF8300922449C23FF4
:104080006E204CC5CD45B73F513DD0A0660DB13F28
:10409000EB0D76244B7BA93F11DA22E33AAD903F3A
:1040A000C040000800000020B8000000E83300080D
:1040B00078410008B800002070050000F8330008BF
:1040C00000000000D0000000880000000000000098
:1040D00000000000000000000000000001000000DF
:1040E00000000000000000000000000000000000D0
:1040F000000000006F12833AA69B443B0000003F83
:104100000AD7A33D000000000000000000000000EE
:10411000000000000000000000000000000000009F
:10412000000000000000000000000000000000008F
:10413000000000000000000000000000000000007F
:10414000000000000000000000000000000000006F
:1041500000000000000000000000803F00000000A0
:10416000000000000000803F01000000100000007F
:08417000000000000024F4002F
:04000005080000ED02
:00000001FF
