Component: ARM Compiler 5.06 update 6 (build 750) Tool: armlink [4d35ed]

==============================================================================

Section Cross References

    startup_stm32f103xb.o(RESET) refers to startup_stm32f103xb.o(STACK) for __initial_sp
    startup_stm32f103xb.o(RESET) refers to startup_stm32f103xb.o(.text) for Reset_Handler
    startup_stm32f103xb.o(RESET) refers to stm32f1xx_it.o(i.NMI_Handler) for NMI_Handler
    startup_stm32f103xb.o(RESET) refers to stm32f1xx_it.o(i.HardFault_Handler) for HardFault_Handler
    startup_stm32f103xb.o(RESET) refers to stm32f1xx_it.o(i.MemManage_Handler) for MemManage_Handler
    startup_stm32f103xb.o(RESET) refers to stm32f1xx_it.o(i.BusFault_Handler) for BusFault_Handler
    startup_stm32f103xb.o(RESET) refers to stm32f1xx_it.o(i.UsageFault_Handler) for UsageFault_Handler
    startup_stm32f103xb.o(RESET) refers to stm32f1xx_it.o(i.SVC_Handler) for SVC_Handler
    startup_stm32f103xb.o(RESET) refers to stm32f1xx_it.o(i.DebugMon_Handler) for DebugMon_Handler
    startup_stm32f103xb.o(RESET) refers to stm32f1xx_it.o(i.PendSV_Handler) for PendSV_Handler
    startup_stm32f103xb.o(RESET) refers to stm32f1xx_it.o(i.SysTick_Handler) for SysTick_Handler
    startup_stm32f103xb.o(RESET) refers to stm32f1xx_it.o(i.USART1_IRQHandler) for USART1_IRQHandler
    startup_stm32f103xb.o(.text) refers to system_stm32f1xx.o(i.SystemInit) for SystemInit
    startup_stm32f103xb.o(.text) refers to entry.o(.ARM.Collect$$$$00000000) for __main
    main.o(i.SystemClock_Config) refers to memseta.o(.text) for __aeabi_memclr4
    main.o(i.SystemClock_Config) refers to stm32f1xx_hal_rcc.o(i.HAL_RCC_OscConfig) for HAL_RCC_OscConfig
    main.o(i.SystemClock_Config) refers to stm32f1xx_hal_rcc.o(i.HAL_RCC_ClockConfig) for HAL_RCC_ClockConfig
    main.o(i.main) refers to stm32f1xx_hal.o(i.HAL_Init) for HAL_Init
==============================================================================

Removing Unused input sections from the image.

    Removing startup_stm32f103xb.o(HEAP), (512 bytes).
    Removing main.o(.rev16_text), (4 bytes).
    Removing main.o(.revsh_text), (4 bytes).
    Removing main.o(.rrx_text), (6 bytes).
    Removing main.o(i._sys_exit), (2 bytes).
    Removing gpio.o(.rev16_text), (4 bytes).
    Removing gpio.o(.revsh_text), (4 bytes).
    Removing gpio.o(.rrx_text), (6 bytes).
    Removing i2c.o(.rev16_text), (4 bytes).
    Removing i2c.o(.revsh_text), (4 bytes).
    Removing i2c.o(.rrx_text), (6 bytes).
    Removing i2c.o(i.HAL_I2C_MspDeInit), (88 bytes).
    Removing spi.o(.rev16_text), (4 bytes).
    Removing spi.o(.revsh_text), (4 bytes).
    Removing spi.o(.rrx_text), (6 bytes).
    Removing spi.o(i.HAL_SPI_MspDeInit), (40 bytes).
    Removing usart.o(.rev16_text), (4 bytes).
    Removing usart.o(.revsh_text), (4 bytes).
==============================================================================

Image Symbol Table

    Local Symbols

    Symbol Name                              Value     Ov Type        Size  Object(Section)

    ../Core/Src/gpio.c                       0x00000000   Number         0  gpio.o ABSOLUTE
    ../Core/Src/i2c.c                        0x00000000   Number         0  i2c.o ABSOLUTE
    ../Core/Src/main.c                       0x00000000   Number         0  main.o ABSOLUTE
    ../Core/Src/spi.c                        0x00000000   Number         0  spi.o ABSOLUTE
    ../Core/Src/stm32f1xx_hal_msp.c          0x00000000   Number         0  stm32f1xx_hal_msp.o ABSOLUTE
    ../Core/Src/stm32f1xx_it.c               0x00000000   Number         0  stm32f1xx_it.o ABSOLUTE
    ../Core/Src/system_stm32f1xx.c           0x00000000   Number         0  system_stm32f1xx.o ABSOLUTE
    ../Core/Src/usart.c                      0x00000000   Number         0  usart.o ABSOLUTE
    ../Drivers/STM32F1xx_HAL_Driver/Src/stm32f1xx_hal.c 0x00000000   Number         0  stm32f1xx_hal.o ABSOLUTE
    ../Drivers/STM32F1xx_HAL_Driver/Src/stm32f1xx_hal_cortex.c 0x00000000   Number         0  stm32f1xx_hal_cortex.o ABSOLUTE
    ../Drivers/STM32F1xx_HAL_Driver/Src/stm32f1xx_hal_dma.c 0x00000000   Number         0  stm32f1xx_hal_dma.o ABSOLUTE
    ../Drivers/STM32F1xx_HAL_Driver/Src/stm32f1xx_hal_exti.c 0x00000000   Number         0  stm32f1xx_hal_exti.o ABSOLUTE
    ../Drivers/STM32F1xx_HAL_Driver/Src/stm32f1xx_hal_flash.c 0x00000000   Number         0  stm32f1xx_hal_flash.o ABSOLUTE
    ../Drivers/STM32F1xx_HAL_Driver/Src/stm32f1xx_hal_flash_ex.c 0x00000000   Number         0  stm32f1xx_hal_flash_ex.o ABSOLUTE
    ../Drivers/STM32F1xx_HAL_Driver/Src/stm32f1xx_hal_gpio.c 0x00000000   Number         0  stm32f1xx_hal_gpio.o ABSOLUTE
    ../Drivers/STM32F1xx_HAL_Driver/Src/stm32f1xx_hal_gpio_ex.c 0x00000000   Number         0  stm32f1xx_hal_gpio_ex.o ABSOLUTE
    ../Drivers/STM32F1xx_HAL_Driver/Src/stm32f1xx_hal_i2c.c 0x00000000   Number         0  stm32f1xx_hal_i2c.o ABSOLUTE
    ../Drivers/STM32F1xx_HAL_Driver/Src/stm32f1xx_hal_pwr.c 0x00000000   Number         0  stm32f1xx_hal_pwr.o ABSOLUTE
    ../Drivers/STM32F1xx_HAL_Driver/Src/stm32f1xx_hal_rcc.c 0x00000000   Number         0  stm32f1xx_hal_rcc.o ABSOLUTE
    ../Drivers/STM32F1xx_HAL_Driver/Src/stm32f1xx_hal_rcc_ex.c 0x00000000   Number         0  stm32f1xx_hal_rcc_ex.o ABSOLUTE
    ../Drivers/STM32F1xx_HAL_Driver/Src/stm32f1xx_hal_spi.c 0x00000000   Number         0  stm32f1xx_hal_spi.o ABSOLUTE
    ../Drivers/STM32F1xx_HAL_Driver/Src/stm32f1xx_hal_tim.c 0x00000000   Number         0  stm32f1xx_hal_tim.o ABSOLUTE
    ../Drivers/STM32F1xx_HAL_Driver/Src/stm32f1xx_hal_tim_ex.c 0x00000000   Number         0  stm32f1xx_hal_tim_ex.o ABSOLUTE
    ../Drivers/STM32F1xx_HAL_Driver/Src/stm32f1xx_hal_uart.c 0x00000000   Number         0  stm32f1xx_hal_uart.o ABSOLUTE
    ../clib/microlib/division.c              0x00000000   Number         0  uldiv.o ABSOLUTE
    ../clib/microlib/division.c              0x00000000   Number         0  uidiv.o ABSOLUTE
    ../clib/microlib/init/entry.s            0x00000000   Number         0  entry2.o ABSOLUTE
    ../clib/microlib/init/entry.s            0x00000000   Number         0  entry.o ABSOLUTE
    ../clib/microlib/init/entry.s            0x00000000   Number         0  entry11b.o ABSOLUTE
    ../clib/microlib/init/entry.s            0x00000000   Number         0  entry5.o ABSOLUTE
    ../clib/microlib/init/entry.s            0x00000000   Number         0  entry10b.o ABSOLUTE
    ../clib/microlib/init/entry.s            0x00000000   Number         0  entry10a.o ABSOLUTE
    ../clib/microlib/init/entry.s            0x00000000   Number         0  entry9b.o ABSOLUTE
    ../clib/microlib/init/entry.s            0x00000000   Number         0  entry9a.o ABSOLUTE
    ../clib/microlib/init/entry.s            0x00000000   Number         0  entry11a.o ABSOLUTE
    ../clib/microlib/init/entry.s            0x00000000   Number         0  entry8a.o ABSOLUTE
    ../clib/microlib/init/entry.s            0x00000000   Number         0  entry7b.o ABSOLUTE
    ../clib/microlib/init/entry.s            0x00000000   Number         0  entry7a.o ABSOLUTE
    ../clib/microlib/init/entry.s            0x00000000   Number         0  entry8b.o ABSOLUTE
    ../clib/microlib/longlong.c              0x00000000   Number         0  llushr.o ABSOLUTE
    ../clib/microlib/longlong.c              0x00000000   Number         0  llshl.o ABSOLUTE
    ../clib/microlib/longlong.c              0x00000000   Number         0  llsshr.o ABSOLUTE
    ../clib/microlib/printf/printf.c         0x00000000   Number         0  printf5.o ABSOLUTE
    ../clib/microlib/printf/printf.c         0x00000000   Number         0  printf6.o ABSOLUTE
    ../clib/microlib/printf/printf.c         0x00000000   Number         0  printfb.o ABSOLUTE
    ../clib/microlib/printf/printf.c         0x00000000   Number         0  printf8.o ABSOLUTE
    ../clib/microlib/printf/printf.c         0x00000000   Number         0  printf7.o ABSOLUTE
    ../clib/microlib/printf/printf.c         0x00000000   Number         0  printf0.o ABSOLUTE
    ../clib/microlib/printf/printf.c         0x00000000   Number         0  printfa.o ABSOLUTE
    ../clib/microlib/printf/printf.c         0x00000000   Number         0  printf1.o ABSOLUTE
    ../clib/microlib/printf/printf.c         0x00000000   Number         0  printf2.o ABSOLUTE
    ../clib/microlib/printf/printf.c         0x00000000   Number         0  printf3.o ABSOLUTE
    ../clib/microlib/printf/printf.c         0x00000000   Number         0  printf4.o ABSOLUTE
    ../clib/microlib/printf/stubs.s          0x00000000   Number         0  stubs.o ABSOLUTE
    ../clib/microlib/string/memset.c         0x00000000   Number         0  memseta.o ABSOLUTE
    ../clib/microlib/stubs.s                 0x00000000   Number         0  useno.o ABSOLUTE
    ../clib/microlib/stubs.s                 0x00000000   Number         0  iusefp.o ABSOLUTE
    ../fplib/microlib/d2f.c                  0x00000000   Number         0  d2f.o ABSOLUTE
    ../fplib/microlib/f2d.c                  0x00000000   Number         0  f2d.o ABSOLUTE
    ../fplib/microlib/fpadd.c                0x00000000   Number         0  dadd.o ABSOLUTE
    ../fplib/microlib/fpadd.c                0x00000000   Number         0  fadd.o ABSOLUTE
    ../fplib/microlib/fpdiv.c                0x00000000   Number         0  ddiv.o ABSOLUTE
    ../fplib/microlib/fpdiv.c                0x00000000   Number         0  fdiv.o ABSOLUTE
    ../fplib/microlib/fpepilogue.c           0x00000000   Number         0  depilogue.o ABSOLUTE
    ../fplib/microlib/fpepilogue.c           0x00000000   Number         0  fepilogue.o ABSOLUTE
    ../fplib/microlib/fpfix.c                0x00000000   Number         0  dfixul.o ABSOLUTE
    ../fplib/microlib/fpfix.c                0x00000000   Number         0  ffixi.o ABSOLUTE
    ../fplib/microlib/fpflt.c                0x00000000   Number         0  ffltui.o ABSOLUTE
    ../fplib/microlib/fpflt.c                0x00000000   Number         0  fflti.o ABSOLUTE
    ../fplib/microlib/fpmul.c                0x00000000   Number         0  fmul.o ABSOLUTE
    ../fplib/microlib/fpmul.c                0x00000000   Number         0  dmul.o ABSOLUTE
    ../fplib/microlib/fpscalb.c              0x00000000   Number         0  fscalb.o ABSOLUTE
    ../fplib/microlib/fpscalb.c              0x00000000   Number         0  dscalb.o ABSOLUTE
    ../mathlib/atan.c                        0x00000000   Number         0  atan.o ABSOLUTE
    ../mathlib/atan.c                        0x00000000   Number         0  atan_x.o ABSOLUTE
    ../mathlib/dunder.c                      0x00000000   Number         0  dunder.o ABSOLUTE
    ../mathlib/fpclassify.c                  0x00000000   Number         0  fpclassify.o ABSOLUTE
    ../mathlib/poly.c                        0x00000000   Number         0  poly.o ABSOLUTE
    ..\Core\Src\gpio.c                       0x00000000   Number         0  gpio.o ABSOLUTE
    ..\Core\Src\i2c.c                        0x00000000   Number         0  i2c.o ABSOLUTE
    ..\Core\Src\main.c                       0x00000000   Number         0  main.o ABSOLUTE
    ..\Core\Src\spi.c                        0x00000000   Number         0  spi.o ABSOLUTE
    ..\Core\Src\stm32f1xx_hal_msp.c          0x00000000   Number         0  stm32f1xx_hal_msp.o ABSOLUTE
    ..\Core\Src\stm32f1xx_it.c               0x00000000   Number         0  stm32f1xx_it.o ABSOLUTE
    ..\Core\Src\system_stm32f1xx.c           0x00000000   Number         0  system_stm32f1xx.o ABSOLUTE
    ..\Core\Src\usart.c                      0x00000000   Number         0  usart.o ABSOLUTE
    ..\Drivers\STM32F1xx_HAL_Driver\Src\stm32f1xx_hal.c 0x00000000   Number         0  stm32f1xx_hal.o ABSOLUTE
    ..\Drivers\STM32F1xx_HAL_Driver\Src\stm32f1xx_hal_cortex.c 0x00000000   Number         0  stm32f1xx_hal_cortex.o ABSOLUTE
    ..\Drivers\STM32F1xx_HAL_Driver\Src\stm32f1xx_hal_dma.c 0x00000000   Number         0  stm32f1xx_hal_dma.o ABSOLUTE
    ..\Drivers\STM32F1xx_HAL_Driver\Src\stm32f1xx_hal_exti.c 0x00000000   Number         0  stm32f1xx_hal_exti.o ABSOLUTE
    ..\Drivers\STM32F1xx_HAL_Driver\Src\stm32f1xx_hal_flash.c 0x00000000   Number         0  stm32f1xx_hal_flash.o ABSOLUTE
    ..\Drivers\STM32F1xx_HAL_Driver\Src\stm32f1xx_hal_flash_ex.c 0x00000000   Number         0  stm32f1xx_hal_flash_ex.o ABSOLUTE
    ..\Drivers\STM32F1xx_HAL_Driver\Src\stm32f1xx_hal_gpio.c 0x00000000   Number         0  stm32f1xx_hal_gpio.o ABSOLUTE
    ..\Drivers\STM32F1xx_HAL_Driver\Src\stm32f1xx_hal_gpio_ex.c 0x00000000   Number         0  stm32f1xx_hal_gpio_ex.o ABSOLUTE
    ..\Drivers\STM32F1xx_HAL_Driver\Src\stm32f1xx_hal_i2c.c 0x00000000   Number         0  stm32f1xx_hal_i2c.o ABSOLUTE
    ..\Drivers\STM32F1xx_HAL_Driver\Src\stm32f1xx_hal_pwr.c 0x00000000   Number         0  stm32f1xx_hal_pwr.o ABSOLUTE
    ..\Drivers\STM32F1xx_HAL_Driver\Src\stm32f1xx_hal_rcc.c 0x00000000   Number         0  stm32f1xx_hal_rcc.o ABSOLUTE
    ..\Drivers\STM32F1xx_HAL_Driver\Src\stm32f1xx_hal_rcc_ex.c 0x00000000   Number         0  stm32f1xx_hal_rcc_ex.o ABSOLUTE
    ..\Drivers\STM32F1xx_HAL_Driver\Src\stm32f1xx_hal_spi.c 0x00000000   Number         0  stm32f1xx_hal_spi.o ABSOLUTE
    ..\Drivers\STM32F1xx_HAL_Driver\Src\stm32f1xx_hal_tim.c 0x00000000   Number         0  stm32f1xx_hal_tim.o ABSOLUTE
    ..\Drivers\STM32F1xx_HAL_Driver\Src\stm32f1xx_hal_tim_ex.c 0x00000000   Number         0  stm32f1xx_hal_tim_ex.o ABSOLUTE
    ..\Drivers\STM32F1xx_HAL_Driver\Src\stm32f1xx_hal_uart.c 0x00000000   Number         0  stm32f1xx_hal_uart.o ABSOLUTE
    SENSOR\\kalman.c                         0x00000000   Number         0  kalman.o ABSOLUTE
    SENSOR\\mpu6050.c                        0x00000000   Number         0  mpu6050.o ABSOLUTE
    SENSOR\\sht3x.c                          0x00000000   Number         0  sht3x.o ABSOLUTE
    SENSOR\kalman.c                          0x00000000   Number         0  kalman.o ABSOLUTE
    SENSOR\mpu6050.c                         0x00000000   Number         0  mpu6050.o ABSOLUTE
    SENSOR\sht3x.c                           0x00000000   Number         0  sht3x.o ABSOLUTE
    cdrcmple.s                               0x00000000   Number         0  cdrcmple.o ABSOLUTE
    cfcmple.s                                0x00000000   Number         0  cfcmple.o ABSOLUTE
    cfrcmple.s                               0x00000000   Number         0  cfrcmple.o ABSOLUTE
    dc.s                                     0x00000000   Number         0  dc.o ABSOLUTE
    handlers.s                               0x00000000   Number         0  handlers.o ABSOLUTE
    init.s                                   0x00000000   Number         0  init.o ABSOLUTE
    startup_stm32f103xb.s                    0x00000000   Number         0  startup_stm32f103xb.o ABSOLUTE
    RESET                                    0x08000000   Section      236  startup_stm32f103xb.o(RESET)
    .ARM.Collect$$$$00000000                 0x080000ec   Section        0  entry.o(.ARM.Collect$$$$00000000)
    .ARM.Collect$$$$00000001                 0x080000ec   Section        4  entry2.o(.ARM.Collect$$$$00000001)
    .ARM.Collect$$$$00000004                 0x080000f0   Section        4  entry5.o(.ARM.Collect$$$$00000004)
    .ARM.Collect$$$$00000008                 0x080000f4   Section        0  entry7b.o(.ARM.Collect$$$$00000008)
    .ARM.Collect$$$$0000000A                 0x080000f4   Section        0  entry8b.o(.ARM.Collect$$$$0000000A)
    .ARM.Collect$$$$0000000B                 0x080000f4   Section        8  entry9a.o(.ARM.Collect$$$$0000000B)
    .ARM.Collect$$$$0000000D                 0x080000fc   Section        0  entry10a.o(.ARM.Collect$$$$0000000D)
    .ARM.Collect$$$$0000000F                 0x080000fc   Section        0  entry11a.o(.ARM.Collect$$$$0000000F)
    .ARM.Collect$$$$00002712                 0x080000fc   Section        4  entry2.o(.ARM.Collect$$$$00002712)
    __lit__00000000                          0x080000fc   Data           4  entry2.o(.ARM.Collect$$$$00002712)
    .text                                    0x08000100   Section       36  startup_stm32f103xb.o(.text)
    .text                                    0x08000124   Section        0  llushr.o(.text)
    .text                                    0x08000144   Section        0  memseta.o(.text)
    .text                                    0x08000168   Section        0  fadd.o(.text)
    .text                                    0x08000218   Section        0  fmul.o(.text)
    .text                                    0x0800027c   Section        0  fdiv.o(.text)
    .text                                    0x080002f8   Section        0  fscalb.o(.text)
    .text                                    0x08000310   Section        0  dmul.o(.text)
    .text                                    0x080003f4   Section        0  ddiv.o(.text)
    .text                                    0x080004d2   Section        0  fflti.o(.text)
    .text                                    0x080004e4   Section        0  ffltui.o(.text)
    .text                                    0x080004ee   Section        0  ffixi.o(.text)
    .text                                    0x08000520   Section        0  f2d.o(.text)
    .text                                    0x08000546   Section        0  d2f.o(.text)
    .text                                    0x08000580   Section       20  cfcmple.o(.text)
    .text                                    0x08000594   Section       20  cfrcmple.o(.text)
    .text                                    0x080005a8   Section        0  uidiv.o(.text)
    .text                                    0x080005d4   Section        0  uldiv.o(.text)
    .text                                    0x08000636   Section        0  iusefp.o(.text)
    .text                                    0x08000636   Section        0  fepilogue.o(.text)
    .text                                    0x080006a4   Section        0  depilogue.o(.text)
    .text                                    0x0800075e   Section        0  dadd.o(.text)
    .text                                    0x080008ac   Section        0  dscalb.o(.text)
    .text                                    0x080008da   Section        0  dfixul.o(.text)
    .text                                    0x0800090c   Section       48  cdrcmple.o(.text)
    .text                                    0x0800093c   Section       36  init.o(.text)
    .text                                    0x08000960   Section        0  llshl.o(.text)
    .text                                    0x0800097e   Section        0  llsshr.o(.text)
    i.Angle_Calcu                            0x080009a4   Section        0  kalman.o(i.Angle_Calcu)
    i.BusFault_Handler                       0x08000c28   Section        0  stm32f1xx_it.o(i.BusFault_Handler)
    i.DebugMon_Handler                       0x08000c2a   Section        0  stm32f1xx_it.o(i.DebugMon_Handler)
    i.Error_Handler                          0x08000c2c   Section        0  main.o(i.Error_Handler)
    i.HAL_DMA_Abort                          0x08000c2e   Section        0  stm32f1xx_hal_dma.o(i.HAL_DMA_Abort)
    i.HAL_DMA_Abort_IT                       0x08000c74   Section        0  stm32f1xx_hal_dma.o(i.HAL_DMA_Abort_IT)
    i.HAL_Delay                              0x08000d0c   Section        0  stm32f1xx_hal.o(i.HAL_Delay)
    i.HAL_GPIO_Init                          0x08000d30   Section        0  stm32f1xx_hal_gpio.o(i.HAL_GPIO_Init)
    i.HAL_GPIO_ReadPin                       0x08000f10   Section        0  stm32f1xx_hal_gpio.o(i.HAL_GPIO_ReadPin)
    i.HAL_GPIO_WritePin                      0x08000f1a   Section        0  stm32f1xx_hal_gpio.o(i.HAL_GPIO_WritePin)
    i.HAL_GetTick                            0x08000f24   Section        0  stm32f1xx_hal.o(i.HAL_GetTick)
    i.HAL_I2C_Init                           0x08000f30   Section        0  stm32f1xx_hal_i2c.o(i.HAL_I2C_Init)
    i.HAL_I2C_IsDeviceReady                  0x080010b8   Section        0  stm32f1xx_hal_i2c.o(i.HAL_I2C_IsDeviceReady)
    i.HAL_I2C_Master_Receive                 0x08001224   Section        0  stm32f1xx_hal_i2c.o(i.HAL_I2C_Master_Receive)
    i.HAL_I2C_Master_Transmit                0x08001468   Section        0  stm32f1xx_hal_i2c.o(i.HAL_I2C_Master_Transmit)
    i.HAL_I2C_Mem_Read                       0x08001594   Section        0  stm32f1xx_hal_i2c.o(i.HAL_I2C_Mem_Read)
    i.HAL_I2C_Mem_Write                      0x080017e4   Section        0  stm32f1xx_hal_i2c.o(i.HAL_I2C_Mem_Write)
    i.HAL_I2C_MspInit                        0x08001914   Section        0  i2c.o(i.HAL_I2C_MspInit)
    i.HAL_IncTick                            0x080019ac   Section        0  stm32f1xx_hal.o(i.HAL_IncTick)
    i.HAL_Init                               0x080019bc   Section        0  stm32f1xx_hal.o(i.HAL_Init)
    i.HAL_InitTick                           0x080019e0   Section        0  stm32f1xx_hal.o(i.HAL_InitTick)
    i.HAL_MspInit                            0x08001a20   Section        0  stm32f1xx_hal_msp.o(i.HAL_MspInit)
    i.HAL_NVIC_EnableIRQ                     0x08001a5c   Section        0  stm32f1xx_hal_cortex.o(i.HAL_NVIC_EnableIRQ)
    i.HAL_NVIC_SetPriority                   0x08001a78   Section        0  stm32f1xx_hal_cortex.o(i.HAL_NVIC_SetPriority)
    i.HAL_NVIC_SetPriorityGrouping           0x08001ab8   Section        0  stm32f1xx_hal_cortex.o(i.HAL_NVIC_SetPriorityGrouping)
    i.HAL_RCC_ClockConfig                    0x08001adc   Section        0  stm32f1xx_hal_rcc.o(i.HAL_RCC_ClockConfig)
    i.HAL_RCC_GetPCLK1Freq                   0x08001c08   Section        0  stm32f1xx_hal_rcc.o(i.HAL_RCC_GetPCLK1Freq)
    i.HAL_RCC_GetPCLK2Freq                   0x08001c28   Section        0  stm32f1xx_hal_rcc.o(i.HAL_RCC_GetPCLK2Freq)
    i.HAL_RCC_GetSysClockFreq                0x08001c48   Section        0  stm32f1xx_hal_rcc.o(i.HAL_RCC_GetSysClockFreq)
    i.HAL_RCC_OscConfig                      0x08001cb4   Section        0  stm32f1xx_hal_rcc.o(i.HAL_RCC_OscConfig)
    i.HAL_SPI_Init                           0x08001fd4   Section        0  stm32f1xx_hal_spi.o(i.HAL_SPI_Init)
    i.HAL_SPI_MspInit                        0x08002088   Section        0  spi.o(i.HAL_SPI_MspInit)
    i.HAL_SYSTICK_Config                     0x080020f4   Section        0  stm32f1xx_hal_cortex.o(i.HAL_SYSTICK_Config)
    i.HAL_UARTEx_RxEventCallback             0x0800211c   Section        0  stm32f1xx_hal_uart.o(i.HAL_UARTEx_RxEventCallback)
    i.HAL_UART_ErrorCallback                 0x0800211e   Section        0  stm32f1xx_hal_uart.o(i.HAL_UART_ErrorCallback)
    i.HAL_UART_IRQHandler                    0x08002120   Section        0  stm32f1xx_hal_uart.o(i.HAL_UART_IRQHandler)
    i.HAL_UART_Init                          0x0800232c   Section        0  stm32f1xx_hal_uart.o(i.HAL_UART_Init)
    i.HAL_UART_MspInit                       0x08002390   Section        0  usart.o(i.HAL_UART_MspInit)
    i.HAL_UART_RxCpltCallback                0x08002410   Section        0  stm32f1xx_hal_uart.o(i.HAL_UART_RxCpltCallback)
    i.HAL_UART_TxCpltCallback                0x08002412   Section        0  stm32f1xx_hal_uart.o(i.HAL_UART_TxCpltCallback)
    i.HardFault_Handler                      0x08002414   Section        0  stm32f1xx_it.o(i.HardFault_Handler)
    i.I2C_IsAcknowledgeFailed                0x08002416   Section        0  stm32f1xx_hal_i2c.o(i.I2C_IsAcknowledgeFailed)
    I2C_IsAcknowledgeFailed                  0x08002417   Thumb Code    46  stm32f1xx_hal_i2c.o(i.I2C_IsAcknowledgeFailed)
    i.I2C_MasterRequestRead                  0x08002444   Section        0  stm32f1xx_hal_i2c.o(i.I2C_MasterRequestRead)
    I2C_MasterRequestRead                    0x08002445   Thumb Code   230  stm32f1xx_hal_i2c.o(i.I2C_MasterRequestRead)
    i.I2C_MasterRequestWrite                 0x08002530   Section        0  stm32f1xx_hal_i2c.o(i.I2C_MasterRequestWrite)
    I2C_MasterRequestWrite                   0x08002531   Thumb Code   150  stm32f1xx_hal_i2c.o(i.I2C_MasterRequestWrite)
    i.I2C_RequestMemoryRead                  0x080025cc   Section        0  stm32f1xx_hal_i2c.o(i.I2C_RequestMemoryRead)
    I2C_RequestMemoryRead                    0x080025cd   Thumb Code   246  stm32f1xx_hal_i2c.o(i.I2C_RequestMemoryRead)
    i.I2C_RequestMemoryWrite                 0x080026c8   Section        0  stm32f1xx_hal_i2c.o(i.I2C_RequestMemoryWrite)
    I2C_RequestMemoryWrite                   0x080026c9   Thumb Code   162  stm32f1xx_hal_i2c.o(i.I2C_RequestMemoryWrite)
    i.I2C_WaitOnBTFFlagUntilTimeout          0x08002770   Section        0  stm32f1xx_hal_i2c.o(i.I2C_WaitOnBTFFlagUntilTimeout)
    I2C_WaitOnBTFFlagUntilTimeout            0x08002771   Thumb Code    76  stm32f1xx_hal_i2c.o(i.I2C_WaitOnBTFFlagUntilTimeout)
    i.I2C_WaitOnFlagUntilTimeout             0x080027bc   Section        0  stm32f1xx_hal_i2c.o(i.I2C_WaitOnFlagUntilTimeout)
    I2C_WaitOnFlagUntilTimeout               0x080027bd   Thumb Code   104  stm32f1xx_hal_i2c.o(i.I2C_WaitOnFlagUntilTimeout)
    i.I2C_WaitOnMasterAddressFlagUntilTimeout 0x08002824   Section        0  stm32f1xx_hal_i2c.o(i.I2C_WaitOnMasterAddressFlagUntilTimeout)
    I2C_WaitOnMasterAddressFlagUntilTimeout  0x08002825   Thumb Code   150  stm32f1xx_hal_i2c.o(i.I2C_WaitOnMasterAddressFlagUntilTimeout)
    i.I2C_WaitOnRXNEFlagUntilTimeout         0x080028ba   Section        0  stm32f1xx_hal_i2c.o(i.I2C_WaitOnRXNEFlagUntilTimeout)
    I2C_WaitOnRXNEFlagUntilTimeout           0x080028bb   Thumb Code   102  stm32f1xx_hal_i2c.o(i.I2C_WaitOnRXNEFlagUntilTimeout)
    i.I2C_WaitOnTXEFlagUntilTimeout          0x08002920   Section        0  stm32f1xx_hal_i2c.o(i.I2C_WaitOnTXEFlagUntilTimeout)
    I2C_WaitOnTXEFlagUntilTimeout            0x08002921   Thumb Code    76  stm32f1xx_hal_i2c.o(i.I2C_WaitOnTXEFlagUntilTimeout)
    i.Kalman_Filter_X                        0x0800296c   Section        0  kalman.o(i.Kalman_Filter_X)
    i.Kalman_Filter_Y                        0x08002ad0   Section        0  kalman.o(i.Kalman_Filter_Y)
    i.MPU6050_Init                           0x08002c34   Section        0  mpu6050.o(i.MPU6050_Init)
    i.MPU6050_Read_Accel                     0x08002ce4   Section        0  mpu6050.o(i.MPU6050_Read_Accel)
    i.MPU6050_Read_Gyro                      0x08002d2c   Section        0  mpu6050.o(i.MPU6050_Read_Gyro)
    i.MX_GPIO_Init                           0x08002d74   Section        0  gpio.o(i.MX_GPIO_Init)
    i.MX_I2C1_Init                           0x08002de4   Section        0  i2c.o(i.MX_I2C1_Init)
    i.MX_I2C2_Init                           0x08002e24   Section        0  i2c.o(i.MX_I2C2_Init)
    i.MX_SPI1_Init                           0x08002e64   Section        0  spi.o(i.MX_SPI1_Init)
    i.MX_USART1_UART_Init                    0x08002ea8   Section        0  usart.o(i.MX_USART1_UART_Init)
    i.MemManage_Handler                      0x08002ee0   Section        0  stm32f1xx_it.o(i.MemManage_Handler)
    i.NMI_Handler                            0x08002ee2   Section        0  stm32f1xx_it.o(i.NMI_Handler)
    i.PendSV_Handler                         0x08002ee4   Section        0  stm32f1xx_it.o(i.PendSV_Handler)
    i.SVC_Handler                            0x08002ee6   Section        0  stm32f1xx_it.o(i.SVC_Handler)
    i.Sensor_I2C1_Read                       0x08002ee8   Section        0  sht3x.o(i.Sensor_I2C1_Read)
    i.Sensor_I2C1_Write                      0x08002f04   Section        0  sht3x.o(i.Sensor_I2C1_Write)
    i.Sensor_I2C2_Read                       0x08002f20   Section        0  mpu6050.o(i.Sensor_I2C2_Read)
    i.Sensor_I2C2_Serch                      0x08002f40   Section        0  mpu6050.o(i.Sensor_I2C2_Serch)
    i.Sensor_I2C2_Write                      0x08002f74   Section        0  mpu6050.o(i.Sensor_I2C2_Write)
    i.Sht3x_Read_Data                        0x08002f94   Section        0  sht3x.o(i.Sht3x_Read_Data)
    i.SysTick_Handler                        0x080030ac   Section        0  stm32f1xx_it.o(i.SysTick_Handler)
    i.SystemClock_Config                     0x080030b0   Section        0  main.o(i.SystemClock_Config)
    i.SystemInit                             0x080030fe   Section        0  system_stm32f1xx.o(i.SystemInit)
    i.UART_DMAAbortOnError                   0x08003100   Section        0  stm32f1xx_hal_uart.o(i.UART_DMAAbortOnError)
    UART_DMAAbortOnError                     0x08003101   Thumb Code    16  stm32f1xx_hal_uart.o(i.UART_DMAAbortOnError)
    i.UART_EndRxTransfer                     0x08003110   Section        0  stm32f1xx_hal_uart.o(i.UART_EndRxTransfer)
    UART_EndRxTransfer                       0x08003111   Thumb Code    48  stm32f1xx_hal_uart.o(i.UART_EndRxTransfer)
    i.UART_Receive_IT                        0x08003140   Section        0  stm32f1xx_hal_uart.o(i.UART_Receive_IT)
    UART_Receive_IT                          0x08003141   Thumb Code   182  stm32f1xx_hal_uart.o(i.UART_Receive_IT)
    i.UART_SetConfig                         0x080031f8   Section        0  stm32f1xx_hal_uart.o(i.UART_SetConfig)
    UART_SetConfig                           0x080031f9   Thumb Code   178  stm32f1xx_hal_uart.o(i.UART_SetConfig)
    i.USART1_IRQHandler                      0x080032b0   Section        0  stm32f1xx_it.o(i.USART1_IRQHandler)
    i.UsageFault_Handler                     0x080032bc   Section        0  stm32f1xx_it.o(i.UsageFault_Handler)
    i.__0printf                              0x080032c0   Section        0  printfa.o(i.__0printf)
    i.__ARM_fpclassify                       0x080032e0   Section        0  fpclassify.o(i.__ARM_fpclassify)
    i.__NVIC_SetPriority                     0x08003308   Section        0  stm32f1xx_hal_cortex.o(i.__NVIC_SetPriority)
    __NVIC_SetPriority                       0x08003309   Thumb Code    32  stm32f1xx_hal_cortex.o(i.__NVIC_SetPriority)
    i.__kernel_poly                          0x08003328   Section        0  poly.o(i.__kernel_poly)
    i.__mathlib_dbl_infnan                   0x080033d2   Section        0  dunder.o(i.__mathlib_dbl_infnan)
    i.__mathlib_dbl_underflow                0x080033d8   Section        0  dunder.o(i.__mathlib_dbl_underflow)
    i.__scatterload_copy                     0x080033e8   Section       14  handlers.o(i.__scatterload_copy)
    i.__scatterload_null                     0x080033f6   Section        2  handlers.o(i.__scatterload_null)
    i.__scatterload_zeroinit                 0x080033f8   Section       14  handlers.o(i.__scatterload_zeroinit)
    i._fp_digits                             0x08003408   Section        0  printfa.o(i._fp_digits)
    _fp_digits                               0x08003409   Thumb Code   366  printfa.o(i._fp_digits)
    i._printf_core                           0x0800358c   Section        0  printfa.o(i._printf_core)
    _printf_core                             0x0800358d   Thumb Code  1744  printfa.o(i._printf_core)
    i._printf_post_padding                   0x08003c68   Section        0  printfa.o(i._printf_post_padding)
    _printf_post_padding                     0x08003c69   Thumb Code    36  printfa.o(i._printf_post_padding)
    i._printf_pre_padding                    0x08003c8c   Section        0  printfa.o(i._printf_pre_padding)
    _printf_pre_padding                      0x08003c8d   Thumb Code    46  printfa.o(i._printf_pre_padding)
    i.atan                                   0x08003cbc   Section        0  atan.o(i.atan)
    i.fputc                                  0x08003edc   Section        0  main.o(i.fputc)
    i.main                                   0x08003ef4   Section        0  main.o(i.main)
    .constdata                               0x08003fec   Section       16  system_stm32f1xx.o(.constdata)
    .constdata                               0x08003ffc   Section        8  system_stm32f1xx.o(.constdata)
    .constdata                               0x08004008   Section      152  atan.o(.constdata)
    atanhi                                   0x08004008   Data          32  atan.o(.constdata)
    atanlo                                   0x08004028   Data          32  atan.o(.constdata)
    aTodd                                    0x08004048   Data          40  atan.o(.constdata)
    aTeven                                   0x08004070   Data          48  atan.o(.constdata)
    .data                                    0x20000000   Section        4  main.o(.data)
    .data                                    0x20000004   Section        2  mpu6050.o(.data)
    Mpu6050Addr                              0x20000004   Data           2  mpu6050.o(.data)
    .data                                    0x20000008   Section       20  sht3x.o(.data)
    Sht3xAddr                                0x20000008   Data           2  sht3x.o(.data)
    Temp_His                                 0x2000000c   Data           4  sht3x.o(.data)
    Humi_His                                 0x20000010   Data           4  sht3x.o(.data)
    .data                                    0x2000001c   Section      140  kalman.o(.data)
    Angle_X_Final_His                        0x20000044   Data           4  kalman.o(.data)
    Angle_Y_Final_His                        0x20000048   Data           4  kalman.o(.data)
    .data                                    0x200000a8   Section       12  stm32f1xx_hal.o(.data)
    .data                                    0x200000b4   Section        4  system_stm32f1xx.o(.data)
    .bss                                     0x200000b8   Section      168  i2c.o(.bss)
    .bss                                     0x20000160   Section       88  spi.o(.bss)
    .bss                                     0x200001b8   Section       68  usart.o(.bss)
    .bss                                     0x200001fc   Section       28  mpu6050.o(.bss)
    .bss                                     0x20000218   Section       16  kalman.o(.bss)
    STACK                                    0x20000228   Section     1024  startup_stm32f103xb.o(STACK)

    Global Symbols

    Symbol Name                              Value     Ov Type        Size  Object(Section)

    BuildAttributes$$THM_ISAv4$P$D$K$B$S$PE$A:L22UL41UL21$X:L11$S22US41US21$IEEE1$IW$USESV6$~STKCKD$USESV7$~SHL$OTIME$ROPI$IEEEX$EBA8$MICROLIB$REQ8$PRES8$EABIv2 0x00000000   Number         0  anon$$obj.o ABSOLUTE
    __ARM_use_no_argv                        0x00000000   Number         0  main.o ABSOLUTE
    __use_no_errno                           0x00000000   Number         0  useno.o ABSOLUTE
    __use_no_exception_handling              0x00000000   Number         0  useno.o ABSOLUTE
    __use_no_fp                              0x00000000   Number         0  useno.o ABSOLUTE
    __use_no_heap                            0x00000000   Number         0  useno.o ABSOLUTE
    __use_no_heap_region                     0x00000000   Number         0  useno.o ABSOLUTE
    __use_no_semihosting                     0x00000000   Number         0  useno.o ABSOLUTE
    __use_no_semihosting_swi                 0x00000000   Number         0  useno.o ABSOLUTE
    __use_no_signal_handling                 0x00000000   Number         0  useno.o ABSOLUTE
    _printf_a                                0x00000000   Number         0  stubs.o ABSOLUTE
    _printf_c                                0x00000000   Number         0  stubs.o ABSOLUTE
    _printf_charcount                        0x00000000   Number         0  stubs.o ABSOLUTE
    _printf_d                                0x00000000   Number         0  stubs.o ABSOLUTE
    _printf_e                                0x00000000   Number         0  stubs.o ABSOLUTE
    _printf_f                                0x00000000   Number         0  stubs.o ABSOLUTE
    _printf_flags                            0x00000000   Number         0  stubs.o ABSOLUTE
    _printf_fp_dec                           0x00000000   Number         0  stubs.o ABSOLUTE
    _printf_fp_hex                           0x00000000   Number         0  stubs.o ABSOLUTE
    _printf_g                                0x00000000   Number         0  stubs.o ABSOLUTE
    _printf_i                                0x00000000   Number         0  stubs.o ABSOLUTE
    _printf_int_dec                          0x00000000   Number         0  stubs.o ABSOLUTE
    _printf_l                                0x00000000   Number         0  stubs.o ABSOLUTE
    _printf_lc                               0x00000000   Number         0  stubs.o ABSOLUTE
    _printf_ll                               0x00000000   Number         0  stubs.o ABSOLUTE
    _printf_lld                              0x00000000   Number         0  stubs.o ABSOLUTE
    _printf_lli                              0x00000000   Number         0  stubs.o ABSOLUTE
    _printf_llo                              0x00000000   Number         0  stubs.o ABSOLUTE
    _printf_llu                              0x00000000   Number         0  stubs.o ABSOLUTE
    _printf_llx                              0x00000000   Number         0  stubs.o ABSOLUTE
    _printf_longlong_dec                     0x00000000   Number         0  stubs.o ABSOLUTE
    _printf_longlong_hex                     0x00000000   Number         0  stubs.o ABSOLUTE
    _printf_longlong_oct                     0x00000000   Number         0  stubs.o ABSOLUTE
    _printf_ls                               0x00000000   Number         0  stubs.o ABSOLUTE
    _printf_mbtowc                           0x00000000   Number         0  stubs.o ABSOLUTE
    _printf_n                                0x00000000   Number         0  stubs.o ABSOLUTE
    _printf_o                                0x00000000   Number         0  stubs.o ABSOLUTE
    _printf_p                                0x00000000   Number         0  stubs.o ABSOLUTE
    _printf_percent                          0x00000000   Number         0  stubs.o ABSOLUTE
    _printf_pre_padding                      0x00000000   Number         0  stubs.o ABSOLUTE
    _printf_return_value                     0x00000000   Number         0  stubs.o ABSOLUTE
    _printf_s                                0x00000000   Number         0  stubs.o ABSOLUTE
    _printf_sizespec                         0x00000000   Number         0  stubs.o ABSOLUTE
    _printf_str                              0x00000000   Number         0  stubs.o ABSOLUTE
    _printf_truncate_signed                  0x00000000   Number         0  stubs.o ABSOLUTE
    _printf_truncate_unsigned                0x00000000   Number         0  stubs.o ABSOLUTE
    _printf_u                                0x00000000   Number         0  stubs.o ABSOLUTE
    _printf_wc                               0x00000000   Number         0  stubs.o ABSOLUTE
    _printf_wctomb                           0x00000000   Number         0  stubs.o ABSOLUTE
    _printf_widthprec                        0x00000000   Number         0  stubs.o ABSOLUTE
    _printf_x                                0x00000000   Number         0  stubs.o ABSOLUTE
    __cpp_initialize__aeabi_                  - Undefined Weak Reference
    __cxa_finalize                            - Undefined Weak Reference
    __decompress                              - Undefined Weak Reference
    _clock_init                               - Undefined Weak Reference
    _microlib_exit                            - Undefined Weak Reference
    __Vectors_Size                           0x000000ec   Number         0  startup_stm32f103xb.o ABSOLUTE
    __Vectors                                0x08000000   Data           4  startup_stm32f103xb.o(RESET)
    __Vectors_End                            0x080000ec   Data           0  startup_stm32f103xb.o(RESET)
    __main                                   0x080000ed   Thumb Code     0  entry.o(.ARM.Collect$$$$00000000)
    _main_stk                                0x080000ed   Thumb Code     0  entry2.o(.ARM.Collect$$$$00000001)
    _main_scatterload                        0x080000f1   Thumb Code     0  entry5.o(.ARM.Collect$$$$00000004)
    __main_after_scatterload                 0x080000f5   Thumb Code     0  entry5.o(.ARM.Collect$$$$00000004)
    _main_clock                              0x080000f5   Thumb Code     0  entry7b.o(.ARM.Collect$$$$00000008)
    _main_cpp_init                           0x080000f5   Thumb Code     0  entry8b.o(.ARM.Collect$$$$0000000A)
    _main_init                               0x080000f5   Thumb Code     0  entry9a.o(.ARM.Collect$$$$0000000B)
    __rt_final_cpp                           0x080000fd   Thumb Code     0  entry10a.o(.ARM.Collect$$$$0000000D)
    __rt_final_exit                          0x080000fd   Thumb Code     0  entry11a.o(.ARM.Collect$$$$0000000F)
    Reset_Handler                            0x08000101   Thumb Code     8  startup_stm32f103xb.o(.text)
    ADC1_2_IRQHandler                        0x0800011b   Thumb Code     0  startup_stm32f103xb.o(.text)
    CAN1_RX1_IRQHandler                      0x0800011b   Thumb Code     0  startup_stm32f103xb.o(.text)
    CAN1_SCE_IRQHandler                      0x0800011b   Thumb Code     0  startup_stm32f103xb.o(.text)
    DMA1_Channel1_IRQHandler                 0x0800011b   Thumb Code     0  startup_stm32f103xb.o(.text)
    DMA1_Channel2_IRQHandler                 0x0800011b   Thumb Code     0  startup_stm32f103xb.o(.text)
    DMA1_Channel3_IRQHandler                 0x0800011b   Thumb Code     0  startup_stm32f103xb.o(.text)
    DMA1_Channel4_IRQHandler                 0x0800011b   Thumb Code     0  startup_stm32f103xb.o(.text)
    DMA1_Channel5_IRQHandler                 0x0800011b   Thumb Code     0  startup_stm32f103xb.o(.text)
    DMA1_Channel6_IRQHandler                 0x0800011b   Thumb Code     0  startup_stm32f103xb.o(.text)
    DMA1_Channel7_IRQHandler                 0x0800011b   Thumb Code     0  startup_stm32f103xb.o(.text)
    EXTI0_IRQHandler                         0x0800011b   Thumb Code     0  startup_stm32f103xb.o(.text)
    EXTI15_10_IRQHandler                     0x0800011b   Thumb Code     0  startup_stm32f103xb.o(.text)
    EXTI1_IRQHandler                         0x0800011b   Thumb Code     0  startup_stm32f103xb.o(.text)
    EXTI2_IRQHandler                         0x0800011b   Thumb Code     0  startup_stm32f103xb.o(.text)
    EXTI3_IRQHandler                         0x0800011b   Thumb Code     0  startup_stm32f103xb.o(.text)
    EXTI4_IRQHandler                         0x0800011b   Thumb Code     0  startup_stm32f103xb.o(.text)
    EXTI9_5_IRQHandler                       0x0800011b   Thumb Code     0  startup_stm32f103xb.o(.text)
    FLASH_IRQHandler                         0x0800011b   Thumb Code     0  startup_stm32f103xb.o(.text)
    I2C1_ER_IRQHandler                       0x0800011b   Thumb Code     0  startup_stm32f103xb.o(.text)
    I2C1_EV_IRQHandler                       0x0800011b   Thumb Code     0  startup_stm32f103xb.o(.text)
    I2C2_ER_IRQHandler                       0x0800011b   Thumb Code     0  startup_stm32f103xb.o(.text)
    I2C2_EV_IRQHandler                       0x0800011b   Thumb Code     0  startup_stm32f103xb.o(.text)
    PVD_IRQHandler                           0x0800011b   Thumb Code     0  startup_stm32f103xb.o(.text)
    RCC_IRQHandler                           0x0800011b   Thumb Code     0  startup_stm32f103xb.o(.text)
    RTC_Alarm_IRQHandler                     0x0800011b   Thumb Code     0  startup_stm32f103xb.o(.text)
    RTC_IRQHandler                           0x0800011b   Thumb Code     0  startup_stm32f103xb.o(.text)
    SPI1_IRQHandler                          0x0800011b   Thumb Code     0  startup_stm32f103xb.o(.text)
    SPI2_IRQHandler                          0x0800011b   Thumb Code     0  startup_stm32f103xb.o(.text)
    TAMPER_IRQHandler                        0x0800011b   Thumb Code     0  startup_stm32f103xb.o(.text)
    TIM1_BRK_IRQHandler                      0x0800011b   Thumb Code     0  startup_stm32f103xb.o(.text)
    TIM1_CC_IRQHandler                       0x0800011b   Thumb Code     0  startup_stm32f103xb.o(.text)
    TIM1_TRG_COM_IRQHandler                  0x0800011b   Thumb Code     0  startup_stm32f103xb.o(.text)
    TIM1_UP_IRQHandler                       0x0800011b   Thumb Code     0  startup_stm32f103xb.o(.text)
    TIM2_IRQHandler                          0x0800011b   Thumb Code     0  startup_stm32f103xb.o(.text)
    TIM3_IRQHandler                          0x0800011b   Thumb Code     0  startup_stm32f103xb.o(.text)
    TIM4_IRQHandler                          0x0800011b   Thumb Code     0  startup_stm32f103xb.o(.text)
    USART2_IRQHandler                        0x0800011b   Thumb Code     0  startup_stm32f103xb.o(.text)
    USART3_IRQHandler                        0x0800011b   Thumb Code     0  startup_stm32f103xb.o(.text)
    USBWakeUp_IRQHandler                     0x0800011b   Thumb Code     0  startup_stm32f103xb.o(.text)
    USB_HP_CAN1_TX_IRQHandler                0x0800011b   Thumb Code     0  startup_stm32f103xb.o(.text)
    USB_LP_CAN1_RX0_IRQHandler               0x0800011b   Thumb Code     0  startup_stm32f103xb.o(.text)
    WWDG_IRQHandler                          0x0800011b   Thumb Code     0  startup_stm32f103xb.o(.text)
    __aeabi_llsr                             0x08000125   Thumb Code    32  llushr.o(.text)
    _ll_ushift_r                             0x08000125   Thumb Code     0  llushr.o(.text)
    __aeabi_memset                           0x08000145   Thumb Code    14  memseta.o(.text)
    __aeabi_memset4                          0x08000145   Thumb Code     0  memseta.o(.text)
    __aeabi_memset8                          0x08000145   Thumb Code     0  memseta.o(.text)
    __aeabi_memclr                           0x08000153   Thumb Code     4  memseta.o(.text)
    __aeabi_memclr4                          0x08000153   Thumb Code     0  memseta.o(.text)
    __aeabi_memclr8                          0x08000153   Thumb Code     0  memseta.o(.text)
    _memset$wrapper                          0x08000157   Thumb Code    18  memseta.o(.text)
    __aeabi_fadd                             0x08000169   Thumb Code   164  fadd.o(.text)
    __aeabi_fsub                             0x0800020d   Thumb Code     6  fadd.o(.text)
    __aeabi_frsub                            0x08000213   Thumb Code     6  fadd.o(.text)
    __aeabi_fmul                             0x08000219   Thumb Code   100  fmul.o(.text)
    __aeabi_fdiv                             0x0800027d   Thumb Code   124  fdiv.o(.text)
    __ARM_scalbnf                            0x080002f9   Thumb Code    24  fscalb.o(.text)
    scalbnf                                  0x080002f9   Thumb Code     0  fscalb.o(.text)
    __aeabi_dmul                             0x08000311   Thumb Code   228  dmul.o(.text)
    __aeabi_ddiv                             0x080003f5   Thumb Code   222  ddiv.o(.text)
    __aeabi_i2f                              0x080004d3   Thumb Code    18  fflti.o(.text)
    __aeabi_ui2f                             0x080004e5   Thumb Code    10  ffltui.o(.text)
    __aeabi_f2iz                             0x080004ef   Thumb Code    50  ffixi.o(.text)
    __aeabi_f2d                              0x08000521   Thumb Code    38  f2d.o(.text)
    __aeabi_d2f                              0x08000547   Thumb Code    56  d2f.o(.text)
    __aeabi_cfcmpeq                          0x08000581   Thumb Code     0  cfcmple.o(.text)
    __aeabi_cfcmple                          0x08000581   Thumb Code    20  cfcmple.o(.text)
    __aeabi_cfrcmple                         0x08000595   Thumb Code    20  cfrcmple.o(.text)
    __aeabi_uidiv                            0x080005a9   Thumb Code     0  uidiv.o(.text)
    __aeabi_uidivmod                         0x080005a9   Thumb Code    44  uidiv.o(.text)
    __aeabi_uldivmod                         0x080005d5   Thumb Code    98  uldiv.o(.text)
    __I$use$fp                               0x08000637   Thumb Code     0  iusefp.o(.text)
    _float_round                             0x08000637   Thumb Code    18  fepilogue.o(.text)
    _float_epilogue                          0x08000649   Thumb Code    92  fepilogue.o(.text)
    _double_round                            0x080006a5   Thumb Code    30  depilogue.o(.text)
    _double_epilogue                         0x080006c3   Thumb Code   156  depilogue.o(.text)
    __aeabi_dadd                             0x0800075f   Thumb Code   322  dadd.o(.text)
    __aeabi_dsub                             0x080008a1   Thumb Code     6  dadd.o(.text)
    __aeabi_drsub                            0x080008a7   Thumb Code     6  dadd.o(.text)
    __ARM_scalbn                             0x080008ad   Thumb Code    46  dscalb.o(.text)
    scalbn                                   0x080008ad   Thumb Code     0  dscalb.o(.text)
    __aeabi_d2ulz                            0x080008db   Thumb Code    48  dfixul.o(.text)
    __aeabi_cdrcmple                         0x0800090d   Thumb Code    48  cdrcmple.o(.text)
    __scatterload                            0x0800093d   Thumb Code    28  init.o(.text)
    __scatterload_rt2                        0x0800093d   Thumb Code     0  init.o(.text)
    __aeabi_llsl                             0x08000961   Thumb Code    30  llshl.o(.text)
    _ll_shift_l                              0x08000961   Thumb Code     0  llshl.o(.text)
    __aeabi_lasr                             0x0800097f   Thumb Code    36  llsshr.o(.text)
    _ll_sshift_r                             0x0800097f   Thumb Code     0  llsshr.o(.text)
    Angle_Calcu                              0x080009a5   Thumb Code   600  kalman.o(i.Angle_Calcu)
    BusFault_Handler                         0x08000c29   Thumb Code     2  stm32f1xx_it.o(i.BusFault_Handler)
    DebugMon_Handler                         0x08000c2b   Thumb Code     2  stm32f1xx_it.o(i.DebugMon_Handler)
    Error_Handler                            0x08000c2d   Thumb Code     2  main.o(i.Error_Handler)
    HAL_DMA_Abort                            0x08000c2f   Thumb Code    70  stm32f1xx_hal_dma.o(i.HAL_DMA_Abort)
    HAL_DMA_Abort_IT                         0x08000c75   Thumb Code   148  stm32f1xx_hal_dma.o(i.HAL_DMA_Abort_IT)
    HAL_Delay                                0x08000d0d   Thumb Code    32  stm32f1xx_hal.o(i.HAL_Delay)
    HAL_GPIO_Init                            0x08000d31   Thumb Code   446  stm32f1xx_hal_gpio.o(i.HAL_GPIO_Init)
    HAL_GPIO_ReadPin                         0x08000f11   Thumb Code    10  stm32f1xx_hal_gpio.o(i.HAL_GPIO_ReadPin)
    HAL_GPIO_WritePin                        0x08000f1b   Thumb Code    10  stm32f1xx_hal_gpio.o(i.HAL_GPIO_WritePin)
    HAL_GetTick                              0x08000f25   Thumb Code     6  stm32f1xx_hal.o(i.HAL_GetTick)
    HAL_I2C_Init                             0x08000f31   Thumb Code   376  stm32f1xx_hal_i2c.o(i.HAL_I2C_Init)
    HAL_I2C_IsDeviceReady                    0x080010b9   Thumb Code   354  stm32f1xx_hal_i2c.o(i.HAL_I2C_IsDeviceReady)
    HAL_I2C_Master_Receive                   0x08001225   Thumb Code   564  stm32f1xx_hal_i2c.o(i.HAL_I2C_Master_Receive)
    HAL_I2C_Master_Transmit                  0x08001469   Thumb Code   290  stm32f1xx_hal_i2c.o(i.HAL_I2C_Master_Transmit)
    HAL_I2C_Mem_Read                         0x08001595   Thumb Code   574  stm32f1xx_hal_i2c.o(i.HAL_I2C_Mem_Read)
    HAL_I2C_Mem_Write                        0x080017e5   Thumb Code   294  stm32f1xx_hal_i2c.o(i.HAL_I2C_Mem_Write)
    HAL_I2C_MspInit                          0x08001915   Thumb Code   136  i2c.o(i.HAL_I2C_MspInit)
    HAL_IncTick                              0x080019ad   Thumb Code    12  stm32f1xx_hal.o(i.HAL_IncTick)
    HAL_Init                                 0x080019bd   Thumb Code    32  stm32f1xx_hal.o(i.HAL_Init)
    HAL_InitTick                             0x080019e1   Thumb Code    54  stm32f1xx_hal.o(i.HAL_InitTick)
    HAL_MspInit                              0x08001a21   Thumb Code    52  stm32f1xx_hal_msp.o(i.HAL_MspInit)
    HAL_NVIC_EnableIRQ                       0x08001a5d   Thumb Code    26  stm32f1xx_hal_cortex.o(i.HAL_NVIC_EnableIRQ)
    HAL_NVIC_SetPriority                     0x08001a79   Thumb Code    60  stm32f1xx_hal_cortex.o(i.HAL_NVIC_SetPriority)
    HAL_NVIC_SetPriorityGrouping             0x08001ab9   Thumb Code    26  stm32f1xx_hal_cortex.o(i.HAL_NVIC_SetPriorityGrouping)
    HAL_RCC_ClockConfig                      0x08001add   Thumb Code   280  stm32f1xx_hal_rcc.o(i.HAL_RCC_ClockConfig)
    HAL_RCC_GetPCLK1Freq                     0x08001c09   Thumb Code    20  stm32f1xx_hal_rcc.o(i.HAL_RCC_GetPCLK1Freq)
    HAL_RCC_GetPCLK2Freq                     0x08001c29   Thumb Code    20  stm32f1xx_hal_rcc.o(i.HAL_RCC_GetPCLK2Freq)
    HAL_RCC_GetSysClockFreq                  0x08001c49   Thumb Code    74  stm32f1xx_hal_rcc.o(i.HAL_RCC_GetSysClockFreq)
    HAL_RCC_OscConfig                        0x08001cb5   Thumb Code   778  stm32f1xx_hal_rcc.o(i.HAL_RCC_OscConfig)
    HAL_SPI_Init                             0x08001fd5   Thumb Code   178  stm32f1xx_hal_spi.o(i.HAL_SPI_Init)
    HAL_SPI_MspInit                          0x08002089   Thumb Code    94  spi.o(i.HAL_SPI_MspInit)
    HAL_SYSTICK_Config                       0x080020f5   Thumb Code    40  stm32f1xx_hal_cortex.o(i.HAL_SYSTICK_Config)
    HAL_UARTEx_RxEventCallback               0x0800211d   Thumb Code     2  stm32f1xx_hal_uart.o(i.HAL_UARTEx_RxEventCallback)
    HAL_UART_ErrorCallback                   0x0800211f   Thumb Code     2  stm32f1xx_hal_uart.o(i.HAL_UART_ErrorCallback)
    HAL_UART_IRQHandler                      0x08002121   Thumb Code   520  stm32f1xx_hal_uart.o(i.HAL_UART_IRQHandler)
    HAL_UART_Init                            0x0800232d   Thumb Code    98  stm32f1xx_hal_uart.o(i.HAL_UART_Init)
    HAL_UART_MspInit                         0x08002391   Thumb Code   116  usart.o(i.HAL_UART_MspInit)
    HAL_UART_RxCpltCallback                  0x08002411   Thumb Code     2  stm32f1xx_hal_uart.o(i.HAL_UART_RxCpltCallback)
    HAL_UART_TxCpltCallback                  0x08002413   Thumb Code     2  stm32f1xx_hal_uart.o(i.HAL_UART_TxCpltCallback)
    HardFault_Handler                        0x08002415   Thumb Code     2  stm32f1xx_it.o(i.HardFault_Handler)
    Kalman_Filter_X                          0x0800296d   Thumb Code   348  kalman.o(i.Kalman_Filter_X)
    Kalman_Filter_Y                          0x08002ad1   Thumb Code   348  kalman.o(i.Kalman_Filter_Y)
    MPU6050_Init                             0x08002c35   Thumb Code   170  mpu6050.o(i.MPU6050_Init)
    MPU6050_Read_Accel                       0x08002ce5   Thumb Code    64  mpu6050.o(i.MPU6050_Read_Accel)
    MPU6050_Read_Gyro                        0x08002d2d   Thumb Code    64  mpu6050.o(i.MPU6050_Read_Gyro)
    MX_GPIO_Init                             0x08002d75   Thumb Code   102  gpio.o(i.MX_GPIO_Init)
    MX_I2C1_Init                             0x08002de5   Thumb Code    50  i2c.o(i.MX_I2C1_Init)
    MX_I2C2_Init                             0x08002e25   Thumb Code    50  i2c.o(i.MX_I2C2_Init)
    MX_SPI1_Init                             0x08002e65   Thumb Code    58  spi.o(i.MX_SPI1_Init)
    MX_USART1_UART_Init                      0x08002ea9   Thumb Code    48  usart.o(i.MX_USART1_UART_Init)
    MemManage_Handler                        0x08002ee1   Thumb Code     2  stm32f1xx_it.o(i.MemManage_Handler)
    NMI_Handler                              0x08002ee3   Thumb Code     2  stm32f1xx_it.o(i.NMI_Handler)
    PendSV_Handler                           0x08002ee5   Thumb Code     2  stm32f1xx_it.o(i.PendSV_Handler)
    SVC_Handler                              0x08002ee7   Thumb Code     2  stm32f1xx_it.o(i.SVC_Handler)
    Sensor_I2C1_Read                         0x08002ee9   Thumb Code    24  sht3x.o(i.Sensor_I2C1_Read)
    Sensor_I2C1_Write                        0x08002f05   Thumb Code    24  sht3x.o(i.Sensor_I2C1_Write)
    Sensor_I2C2_Read                         0x08002f21   Thumb Code    26  mpu6050.o(i.Sensor_I2C2_Read)
    Sensor_I2C2_Serch                        0x08002f41   Thumb Code    42  mpu6050.o(i.Sensor_I2C2_Serch)
    Sensor_I2C2_Write                        0x08002f75   Thumb Code    26  mpu6050.o(i.Sensor_I2C2_Write)
    Sht3x_Read_Data                          0x08002f95   Thumb Code   252  sht3x.o(i.Sht3x_Read_Data)
    SysTick_Handler                          0x080030ad   Thumb Code     4  stm32f1xx_it.o(i.SysTick_Handler)
    SystemClock_Config                       0x080030b1   Thumb Code    78  main.o(i.SystemClock_Config)
    SystemInit                               0x080030ff   Thumb Code     2  system_stm32f1xx.o(i.SystemInit)
    USART1_IRQHandler                        0x080032b1   Thumb Code     6  stm32f1xx_it.o(i.USART1_IRQHandler)
    UsageFault_Handler                       0x080032bd   Thumb Code     2  stm32f1xx_it.o(i.UsageFault_Handler)
    __0printf                                0x080032c1   Thumb Code    22  printfa.o(i.__0printf)
    __1printf                                0x080032c1   Thumb Code     0  printfa.o(i.__0printf)
    __2printf                                0x080032c1   Thumb Code     0  printfa.o(i.__0printf)
    __c89printf                              0x080032c1   Thumb Code     0  printfa.o(i.__0printf)
    printf                                   0x080032c1   Thumb Code     0  printfa.o(i.__0printf)
    __ARM_fpclassify                         0x080032e1   Thumb Code    40  fpclassify.o(i.__ARM_fpclassify)
    __kernel_poly                            0x08003329   Thumb Code   170  poly.o(i.__kernel_poly)
    __mathlib_dbl_infnan                     0x080033d3   Thumb Code     6  dunder.o(i.__mathlib_dbl_infnan)
    __mathlib_dbl_underflow                  0x080033d9   Thumb Code    10  dunder.o(i.__mathlib_dbl_underflow)
    __scatterload_copy                       0x080033e9   Thumb Code    14  handlers.o(i.__scatterload_copy)
    __scatterload_null                       0x080033f7   Thumb Code     2  handlers.o(i.__scatterload_null)
    __scatterload_zeroinit                   0x080033f9   Thumb Code    14  handlers.o(i.__scatterload_zeroinit)
    atan                                     0x08003cbd   Thumb Code   474  atan.o(i.atan)
    fputc                                    0x08003edd   Thumb Code    18  main.o(i.fputc)
    main                                     0x08003ef5   Thumb Code   162  main.o(i.main)
    AHBPrescTable                            0x08003fec   Data          16  system_stm32f1xx.o(.constdata)
    APBPrescTable                            0x08003ffc   Data           8  system_stm32f1xx.o(.constdata)
    Region$$Table$$Base                      0x080040a0   Number         0  anon$$obj.o(Region$$Table)
    Region$$Table$$Limit                     0x080040c0   Number         0  anon$$obj.o(Region$$Table)
    __stdout                                 0x20000000   Data           4  main.o(.data)
    Sht3x_Data                               0x20000014   Data           8  sht3x.o(.data)
    C_0                                      0x2000001c   Data           1  kalman.o(.data)
    aacx                                     0x2000001e   Data           2  kalman.o(.data)
    aacy                                     0x20000020   Data           2  kalman.o(.data)
    aacz                                     0x20000022   Data           2  kalman.o(.data)
    gyrox                                    0x20000024   Data           2  kalman.o(.data)
    gyroy                                    0x20000026   Data           2  kalman.o(.data)
    gyroz                                    0x20000028   Data           2  kalman.o(.data)
    Angle_X                                  0x2000002c   Data           4  kalman.o(.data)
    Angle_Y                                  0x20000030   Data           4  kalman.o(.data)
    Q_angle                                  0x20000034   Data           4  kalman.o(.data)
    Q_gyro                                   0x20000038   Data           4  kalman.o(.data)
    R_angle                                  0x2000003c   Data           4  kalman.o(.data)
    dt                                       0x20000040   Data           4  kalman.o(.data)
    Accel_x                                  0x2000004c   Data           4  kalman.o(.data)
    Accel_y                                  0x20000050   Data           4  kalman.o(.data)
    Accel_z                                  0x20000054   Data           4  kalman.o(.data)
    Gyro_x                                   0x20000058   Data           4  kalman.o(.data)
    Gyro_y                                   0x2000005c   Data           4  kalman.o(.data)
    Gyro_z                                   0x20000060   Data           4  kalman.o(.data)
    Angle_x_temp                             0x20000064   Data           4  kalman.o(.data)
    Angle_y_temp                             0x20000068   Data           4  kalman.o(.data)
    Angle_X_Final                            0x2000006c   Data           4  kalman.o(.data)
    Angle_Y_Final                            0x20000070   Data           4  kalman.o(.data)
    Q_bias                                   0x20000074   Data           4  kalman.o(.data)
    Angle_err                                0x20000078   Data           4  kalman.o(.data)
    PCt_0                                    0x2000007c   Data           4  kalman.o(.data)
    PCt_1                                    0x20000080   Data           4  kalman.o(.data)
    E                                        0x20000084   Data           4  kalman.o(.data)
    K_0                                      0x20000088   Data           4  kalman.o(.data)
    K_1                                      0x2000008c   Data           4  kalman.o(.data)
    t_0                                      0x20000090   Data           4  kalman.o(.data)
    t_1                                      0x20000094   Data           4  kalman.o(.data)
    PP                                       0x20000098   Data          16  kalman.o(.data)
    uwTickFreq                               0x200000a8   Data           1  stm32f1xx_hal.o(.data)
    uwTickPrio                               0x200000ac   Data           4  stm32f1xx_hal.o(.data)
    uwTick                                   0x200000b0   Data           4  stm32f1xx_hal.o(.data)
    SystemCoreClock                          0x200000b4   Data           4  system_stm32f1xx.o(.data)
    hi2c1                                    0x200000b8   Data          84  i2c.o(.bss)
    hi2c2                                    0x2000010c   Data          84  i2c.o(.bss)
    hspi1                                    0x20000160   Data          88  spi.o(.bss)
    huart1                                   0x200001b8   Data          68  usart.o(.bss)
    Mpu6050_Data                             0x200001fc   Data          28  mpu6050.o(.bss)
    P                                        0x20000218   Data          16  kalman.o(.bss)
    __initial_sp                             0x20000628   Data           0  startup_stm32f103xb.o(STACK)



==============================================================================

Memory Map of the image

  Image Entry point : 0x080000ed

  Load Region LR_IROM1 (Base: 0x08000000, Size: 0x00004178, Max: 0x00010000, ABSOLUTE)

    Execution Region ER_IROM1 (Exec base: 0x08000000, Load base: 0x08000000, Size: 0x000040c0, Max: 0x00010000, ABSOLUTE)

    Exec Addr    Load Addr    Size         Type   Attr      Idx    E Section Name        Object

    0x08000000   0x08000000   0x000000ec   Data   RO            3    RESET               startup_stm32f103xb.o
    0x080000ec   0x080000ec   0x00000000   Code   RO         2813  * .ARM.Collect$$$$00000000  mc_w.l(entry.o)
    0x080000ec   0x080000ec   0x00000004   Code   RO         3125    .ARM.Collect$$$$00000001  mc_w.l(entry2.o)
    0x080000f0   0x080000f0   0x00000004   Code   RO         3128    .ARM.Collect$$$$00000004  mc_w.l(entry5.o)
    0x080000f4   0x080000f4   0x00000000   Code   RO         3130    .ARM.Collect$$$$00000008  mc_w.l(entry7b.o)
    0x080000f4   0x080000f4   0x00000000   Code   RO         3132    .ARM.Collect$$$$0000000A  mc_w.l(entry8b.o)
    0x080000f4   0x080000f4   0x00000008   Code   RO         3133    .ARM.Collect$$$$0000000B  mc_w.l(entry9a.o)
    0x080000fc   0x080000fc   0x00000000   Code   RO         3135    .ARM.Collect$$$$0000000D  mc_w.l(entry10a.o)
    0x080000fc   0x080000fc   0x00000000   Code   RO         3137    .ARM.Collect$$$$0000000F  mc_w.l(entry11a.o)
    0x080000fc   0x080000fc   0x00000004   Code   RO         3126    .ARM.Collect$$$$00002712  mc_w.l(entry2.o)
    0x08000100   0x08000100   0x00000024   Code   RO            4    .text               startup_stm32f103xb.o
    0x08000124   0x08000124   0x00000020   Code   RO         2816    .text               mc_w.l(llushr.o)
    0x08000144   0x08000144   0x00000024   Code   RO         2818    .text               mc_w.l(memseta.o)
    0x08000168   0x08000168   0x000000b0   Code   RO         3081    .text               mf_w.l(fadd.o)
    0x08000218   0x08000218   0x00000064   Code   RO         3083    .text               mf_w.l(fmul.o)
    0x0800027c   0x0800027c   0x0000007c   Code   RO         3085    .text               mf_w.l(fdiv.o)
    0x080002f8   0x080002f8   0x00000018   Code   RO         3087    .text               mf_w.l(fscalb.o)
    0x08000310   0x08000310   0x000000e4   Code   RO         3089    .text               mf_w.l(dmul.o)
    0x080003f4   0x080003f4   0x000000de   Code   RO         3091    .text               mf_w.l(ddiv.o)
    0x080004d2   0x080004d2   0x00000012   Code   RO         3093    .text               mf_w.l(fflti.o)
    0x080004e4   0x080004e4   0x0000000a   Code   RO         3095    .text               mf_w.l(ffltui.o)
    0x080004ee   0x080004ee   0x00000032   Code   RO         3097    .text               mf_w.l(ffixi.o)
    0x08000520   0x08000520   0x00000026   Code   RO         3099    .text               mf_w.l(f2d.o)
    0x08000546   0x08000546   0x00000038   Code   RO         3101    .text               mf_w.l(d2f.o)
    0x0800057e   0x0800057e   0x00000002   PAD
    0x08000580   0x08000580   0x00000014   Code   RO         3103    .text               mf_w.l(cfcmple.o)
    0x08000594   0x08000594   0x00000014   Code   RO         3105    .text               mf_w.l(cfrcmple.o)
    0x080005a8   0x080005a8   0x0000002c   Code   RO         3139    .text               mc_w.l(uidiv.o)
    0x080005d4   0x080005d4   0x00000062   Code   RO         3141    .text               mc_w.l(uldiv.o)
    0x08000636   0x08000636   0x00000000   Code   RO         3143    .text               mc_w.l(iusefp.o)
    0x08000636   0x08000636   0x0000006e   Code   RO         3144    .text               mf_w.l(fepilogue.o)
    0x080006a4   0x080006a4   0x000000ba   Code   RO         3146    .text               mf_w.l(depilogue.o)
    0x0800075e   0x0800075e   0x0000014e   Code   RO         3148    .text               mf_w.l(dadd.o)
    0x080008ac   0x080008ac   0x0000002e   Code   RO         3150    .text               mf_w.l(dscalb.o)
    0x080008da   0x080008da   0x00000030   Code   RO         3152    .text               mf_w.l(dfixul.o)
    0x0800090a   0x0800090a   0x00000002   PAD
    0x0800090c   0x0800090c   0x00000030   Code   RO         3154    .text               mf_w.l(cdrcmple.o)
    0x0800093c   0x0800093c   0x00000024   Code   RO         3156    .text               mc_w.l(init.o)
    0x08000960   0x08000960   0x0000001e   Code   RO         3158    .text               mc_w.l(llshl.o)
    0x0800097e   0x0800097e   0x00000024   Code   RO         3160    .text               mc_w.l(llsshr.o)
    0x080009a2   0x080009a2   0x00000002   PAD
    0x080009a4   0x080009a4   0x00000284   Code   RO          558    i.Angle_Calcu       kalman.o
    0x08000c28   0x08000c28   0x00000002   Code   RO          343    i.BusFault_Handler  stm32f1xx_it.o
    0x08000c2a   0x08000c2a   0x00000002   Code   RO          344    i.DebugMon_Handler  stm32f1xx_it.o
    0x08000c2c   0x08000c2c   0x00000002   Code   RO           13    i.Error_Handler     main.o
    0x08000c2e   0x08000c2e   0x00000046   Code   RO         1457    i.HAL_DMA_Abort     stm32f1xx_hal_dma.o
    0x08000c74   0x08000c74   0x00000098   Code   RO         1458    i.HAL_DMA_Abort_IT  stm32f1xx_hal_dma.o
    0x08000d0c   0x08000d0c   0x00000024   Code   RO         1085    i.HAL_Delay         stm32f1xx_hal.o
    0x08000d30   0x08000d30   0x000001e0   Code   RO         1393    i.HAL_GPIO_Init     stm32f1xx_hal_gpio.o
    0x08000f10   0x08000f10   0x0000000a   Code   RO         1395    i.HAL_GPIO_ReadPin  stm32f1xx_hal_gpio.o
    0x08000f1a   0x08000f1a   0x0000000a   Code   RO         1397    i.HAL_GPIO_WritePin  stm32f1xx_hal_gpio.o
    0x08000f24   0x08000f24   0x0000000c   Code   RO         1089    i.HAL_GetTick       stm32f1xx_hal.o
    0x08000f30   0x08000f30   0x00000188   Code   RO          657    i.HAL_I2C_Init      stm32f1xx_hal_i2c.o
    0x080010b8   0x080010b8   0x0000016c   Code   RO          658    i.HAL_I2C_IsDeviceReady  stm32f1xx_hal_i2c.o
    0x08001224   0x08001224   0x00000244   Code   RO          663    i.HAL_I2C_Master_Receive  stm32f1xx_hal_i2c.o
    0x08001468   0x08001468   0x0000012c   Code   RO          670    i.HAL_I2C_Master_Transmit  stm32f1xx_hal_i2c.o
    0x08001594   0x08001594   0x00000250   Code   RO          675    i.HAL_I2C_Mem_Read  stm32f1xx_hal_i2c.o
    0x080017e4   0x080017e4   0x00000130   Code   RO          678    i.HAL_I2C_Mem_Write  stm32f1xx_hal_i2c.o
    0x08001914   0x08001914   0x00000098   Code   RO          212    i.HAL_I2C_MspInit   i2c.o
    0x080019ac   0x080019ac   0x00000010   Code   RO         1095    i.HAL_IncTick       stm32f1xx_hal.o
    0x080019bc   0x080019bc   0x00000024   Code   RO         1096    i.HAL_Init          stm32f1xx_hal.o
    0x080019e0   0x080019e0   0x00000040   Code   RO         1097    i.HAL_InitTick      stm32f1xx_hal.o
    0x08001a20   0x08001a20   0x0000003c   Code   RO          425    i.HAL_MspInit       stm32f1xx_hal_msp.o
    0x08001a5c   0x08001a5c   0x0000001a   Code   RO         1553    i.HAL_NVIC_EnableIRQ  stm32f1xx_hal_cortex.o
    0x08001a76   0x08001a76   0x00000002   PAD
    0x08001a78   0x08001a78   0x00000040   Code   RO         1559    i.HAL_NVIC_SetPriority  stm32f1xx_hal_cortex.o
    0x08001ab8   0x08001ab8   0x00000024   Code   RO         1560    i.HAL_NVIC_SetPriorityGrouping  stm32f1xx_hal_cortex.o
    0x08001adc   0x08001adc   0x0000012c   Code   RO         1253    i.HAL_RCC_ClockConfig  stm32f1xx_hal_rcc.o
    0x08001c08   0x08001c08   0x00000020   Code   RO         1260    i.HAL_RCC_GetPCLK1Freq  stm32f1xx_hal_rcc.o
    0x08001c28   0x08001c28   0x00000020   Code   RO         1261    i.HAL_RCC_GetPCLK2Freq  stm32f1xx_hal_rcc.o
    0x08001c48   0x08001c48   0x0000006c   Code   RO         1262    i.HAL_RCC_GetSysClockFreq  stm32f1xx_hal_rcc.o
    0x08001cb4   0x08001cb4   0x00000320   Code   RO         1265    i.HAL_RCC_OscConfig  stm32f1xx_hal_rcc.o
    0x08001fd4   0x08001fd4   0x000000b2   Code   RO         2064    i.HAL_SPI_Init      stm32f1xx_hal_spi.o
    0x08002086   0x08002086   0x00000002   PAD
    0x08002088   0x08002088   0x0000006c   Code   RO          260    i.HAL_SPI_MspInit   spi.o
    0x080020f4   0x080020f4   0x00000028   Code   RO         1564    i.HAL_SYSTICK_Config  stm32f1xx_hal_cortex.o
    0x0800211c   0x0800211c   0x00000002   Code   RO         2422    i.HAL_UARTEx_RxEventCallback  stm32f1xx_hal_uart.o
    0x0800211e   0x0800211e   0x00000002   Code   RO         2436    i.HAL_UART_ErrorCallback  stm32f1xx_hal_uart.o
    0x08002120   0x08002120   0x0000020c   Code   RO         2439    i.HAL_UART_IRQHandler  stm32f1xx_hal_uart.o
    0x0800232c   0x0800232c   0x00000062   Code   RO         2440    i.HAL_UART_Init     stm32f1xx_hal_uart.o
    0x0800238e   0x0800238e   0x00000002   PAD
    0x08002390   0x08002390   0x00000080   Code   RO          302    i.HAL_UART_MspInit  usart.o
    0x08002410   0x08002410   0x00000002   Code   RO         2446    i.HAL_UART_RxCpltCallback  stm32f1xx_hal_uart.o
    0x08002412   0x08002412   0x00000002   Code   RO         2451    i.HAL_UART_TxCpltCallback  stm32f1xx_hal_uart.o
    0x08002414   0x08002414   0x00000002   Code   RO          345    i.HardFault_Handler  stm32f1xx_it.o
    0x08002416   0x08002416   0x0000002e   Code   RO          699    i.I2C_IsAcknowledgeFailed  stm32f1xx_hal_i2c.o
    0x08002444   0x08002444   0x000000ec   Code   RO          702    i.I2C_MasterRequestRead  stm32f1xx_hal_i2c.o
    0x08002530   0x08002530   0x0000009c   Code   RO          703    i.I2C_MasterRequestWrite  stm32f1xx_hal_i2c.o
    0x080025cc   0x080025cc   0x000000fc   Code   RO          709    i.I2C_RequestMemoryRead  stm32f1xx_hal_i2c.o
    0x080026c8   0x080026c8   0x000000a8   Code   RO          710    i.I2C_RequestMemoryWrite  stm32f1xx_hal_i2c.o
    0x08002770   0x08002770   0x0000004c   Code   RO          714    i.I2C_WaitOnBTFFlagUntilTimeout  stm32f1xx_hal_i2c.o
    0x080027bc   0x080027bc   0x00000068   Code   RO          715    i.I2C_WaitOnFlagUntilTimeout  stm32f1xx_hal_i2c.o
    0x08002824   0x08002824   0x00000096   Code   RO          716    i.I2C_WaitOnMasterAddressFlagUntilTimeout  stm32f1xx_hal_i2c.o
    0x080028ba   0x080028ba   0x00000066   Code   RO          717    i.I2C_WaitOnRXNEFlagUntilTimeout  stm32f1xx_hal_i2c.o
    0x08002920   0x08002920   0x0000004c   Code   RO          718    i.I2C_WaitOnTXEFlagUntilTimeout  stm32f1xx_hal_i2c.o
    0x0800296c   0x0800296c   0x00000164   Code   RO          559    i.Kalman_Filter_X   kalman.o
    0x08002ad0   0x08002ad0   0x00000164   Code   RO          560    i.Kalman_Filter_Y   kalman.o
    0x08002c34   0x08002c34   0x000000b0   Code   RO          449    i.MPU6050_Init      mpu6050.o
    0x08002ce4   0x08002ce4   0x00000048   Code   RO          450    i.MPU6050_Read_Accel  mpu6050.o
    0x08002d2c   0x08002d2c   0x00000048   Code   RO          451    i.MPU6050_Read_Gyro  mpu6050.o
    0x08002d74   0x08002d74   0x00000070   Code   RO          183    i.MX_GPIO_Init      gpio.o
    0x08002de4   0x08002de4   0x00000040   Code   RO          213    i.MX_I2C1_Init      i2c.o
    0x08002e24   0x08002e24   0x00000040   Code   RO          214    i.MX_I2C2_Init      i2c.o
    0x08002e64   0x08002e64   0x00000044   Code   RO          261    i.MX_SPI1_Init      spi.o
    0x08002ea8   0x08002ea8   0x00000038   Code   RO          303    i.MX_USART1_UART_Init  usart.o
    0x08002ee0   0x08002ee0   0x00000002   Code   RO          346    i.MemManage_Handler  stm32f1xx_it.o
    0x08002ee2   0x08002ee2   0x00000002   Code   RO          347    i.NMI_Handler       stm32f1xx_it.o
    0x08002ee4   0x08002ee4   0x00000002   Code   RO          348    i.PendSV_Handler    stm32f1xx_it.o
    0x08002ee6   0x08002ee6   0x00000002   Code   RO          349    i.SVC_Handler       stm32f1xx_it.o
    0x08002ee8   0x08002ee8   0x0000001c   Code   RO          516    i.Sensor_I2C1_Read  sht3x.o
    0x08002f04   0x08002f04   0x0000001c   Code   RO          517    i.Sensor_I2C1_Write  sht3x.o
    0x08002f20   0x08002f20   0x00000020   Code   RO          453    i.Sensor_I2C2_Read  mpu6050.o
    0x08002f40   0x08002f40   0x00000034   Code   RO          454    i.Sensor_I2C2_Serch  mpu6050.o
    0x08002f74   0x08002f74   0x00000020   Code   RO          455    i.Sensor_I2C2_Write  mpu6050.o
    0x08002f94   0x08002f94   0x00000118   Code   RO          518    i.Sht3x_Read_Data   sht3x.o
    0x080030ac   0x080030ac   0x00000004   Code   RO          350    i.SysTick_Handler   stm32f1xx_it.o
    0x080030b0   0x080030b0   0x0000004e   Code   RO           14    i.SystemClock_Config  main.o
    0x080030fe   0x080030fe   0x00000002   Code   RO         2769    i.SystemInit        system_stm32f1xx.o
    0x08003100   0x08003100   0x00000010   Code   RO         2453    i.UART_DMAAbortOnError  stm32f1xx_hal_uart.o
    0x08003110   0x08003110   0x00000030   Code   RO         2463    i.UART_EndRxTransfer  stm32f1xx_hal_uart.o
    0x08003140   0x08003140   0x000000b6   Code   RO         2465    i.UART_Receive_IT   stm32f1xx_hal_uart.o
    0x080031f6   0x080031f6   0x00000002   PAD
    0x080031f8   0x080031f8   0x000000b8   Code   RO         2466    i.UART_SetConfig    stm32f1xx_hal_uart.o
    0x080032b0   0x080032b0   0x0000000c   Code   RO          351    i.USART1_IRQHandler  stm32f1xx_it.o
    0x080032bc   0x080032bc   0x00000002   Code   RO          352    i.UsageFault_Handler  stm32f1xx_it.o
    0x080032be   0x080032be   0x00000002   PAD
    0x080032c0   0x080032c0   0x00000020   Code   RO         3053    i.__0printf         mc_w.l(printfa.o)
    0x080032e0   0x080032e0   0x00000028   Code   RO         3121    i.__ARM_fpclassify  m_ws.l(fpclassify.o)
    0x08003308   0x08003308   0x00000020   Code   RO         1566    i.__NVIC_SetPriority  stm32f1xx_hal_cortex.o
    0x08003328   0x08003328   0x000000aa   Code   RO         3123    i.__kernel_poly     m_ws.l(poly.o)
    0x080033d2   0x080033d2   0x00000006   Code   RO         3108    i.__mathlib_dbl_infnan  m_ws.l(dunder.o)
    0x080033d8   0x080033d8   0x00000010   Code   RO         3113    i.__mathlib_dbl_underflow  m_ws.l(dunder.o)
    0x080033e8   0x080033e8   0x0000000e   Code   RO         3164    i.__scatterload_copy  mc_w.l(handlers.o)
    0x080033f6   0x080033f6   0x00000002   Code   RO         3165    i.__scatterload_null  mc_w.l(handlers.o)
    0x080033f8   0x080033f8   0x0000000e   Code   RO         3166    i.__scatterload_zeroinit  mc_w.l(handlers.o)
    0x08003406   0x08003406   0x00000002   PAD
    0x08003408   0x08003408   0x00000184   Code   RO         3060    i._fp_digits        mc_w.l(printfa.o)
    0x0800358c   0x0800358c   0x000006dc   Code   RO         3061    i._printf_core      mc_w.l(printfa.o)
    0x08003c68   0x08003c68   0x00000024   Code   RO         3062    i._printf_post_padding  mc_w.l(printfa.o)
    0x08003c8c   0x08003c8c   0x0000002e   Code   RO         3063    i._printf_pre_padding  mc_w.l(printfa.o)
    0x08003cba   0x08003cba   0x00000002   PAD
    0x08003cbc   0x08003cbc   0x00000220   Code   RO         2804    i.atan              m_ws.l(atan.o)
    0x08003edc   0x08003edc   0x00000018   Code   RO           16    i.fputc             main.o
    0x08003ef4   0x08003ef4   0x000000f8   Code   RO           17    i.main              main.o
    0x08003fec   0x08003fec   0x00000010   Data   RO         2770    .constdata          system_stm32f1xx.o
    0x08003ffc   0x08003ffc   0x00000008   Data   RO         2771    .constdata          system_stm32f1xx.o
    0x08004004   0x08004004   0x00000004   PAD
    0x08004008   0x08004008   0x00000098   Data   RO         2805    .constdata          m_ws.l(atan.o)
    0x080040a0   0x080040a0   0x00000020   Data   RO         3162    Region$$Table       anon$$obj.o


    Execution Region RW_IRAM1 (Exec base: 0x20000000, Load base: 0x080040c0, Size: 0x00000628, Max: 0x00005000, ABSOLUTE)

    Exec Addr    Load Addr    Size         Type   Attr      Idx    E Section Name        Object

    0x20000000   0x080040c0   0x00000004   Data   RW           18    .data               main.o
    0x20000004   0x080040c4   0x00000002   Data   RW          457    .data               mpu6050.o
    0x20000006   0x080040c6   0x00000002   PAD
    0x20000008   0x080040c8   0x00000014   Data   RW          519    .data               sht3x.o
    0x2000001c   0x080040dc   0x0000008c   Data   RW          562    .data               kalman.o
    0x200000a8   0x08004168   0x0000000c   Data   RW         1103    .data               stm32f1xx_hal.o
    0x200000b4   0x08004174   0x00000004   Data   RW         2772    .data               system_stm32f1xx.o
    0x200000b8        -       0x000000a8   Zero   RW          215    .bss                i2c.o
    0x20000160        -       0x00000058   Zero   RW          262    .bss                spi.o
    0x200001b8        -       0x00000044   Zero   RW          304    .bss                usart.o
    0x200001fc        -       0x0000001c   Zero   RW          456    .bss                mpu6050.o
    0x20000218        -       0x00000010   Zero   RW          561    .bss                kalman.o
    0x20000228        -       0x00000400   Zero   RW            1    STACK               startup_stm32f103xb.o


==============================================================================

Image component sizes


      Code (inc. data)   RO Data    RW Data    ZI Data      Debug   Object Name

       112         10          0          0          0        891   gpio.o
       280         44          0          0        168       2246   i2c.o
      1356         60          0        140         16       3774   kalman.o
       352         92          0          4          0     411378   main.o
       436         44          0          2         28       4822   mpu6050.o
       336         36          0         20          0       2660   sht3x.o
       176         24          0          0         88       1613   spi.o
        36          8        236          0       1024        792   startup_stm32f103xb.o
       164         28          0         12          0       5825   stm32f1xx_hal.o
       198         14          0          0          0      28895   stm32f1xx_hal_cortex.o
       222          4          0          0          0       1743   stm32f1xx_hal_dma.o
       500         34          0          0          0       3479   stm32f1xx_hal_gpio.o
      3898        104          0          0          0      18637   stm32f1xx_hal_i2c.o
        60          8          0          0          0        850   stm32f1xx_hal_msp.o
      1272        100          0          0          0       5140   stm32f1xx_hal_rcc.o
       178          0          0          0          0       1211   stm32f1xx_hal_spi.o
      1060         10          0          0          0       7500   stm32f1xx_hal_uart.o
        32          6          0          0          0       4218   stm32f1xx_it.o
         2          0         24          4          0       1091   system_stm32f1xx.o
       184         20          0          0         68       1650   usart.o

    ----------------------------------------------------------------------
     10864        646        296        184       1392     508415   Object Totals
         0          0         32          0          0          0   (incl. Generated)
        10          0          4          2          0          0   (incl. Padding)

    ----------------------------------------------------------------------

      Code (inc. data)   RO Data    RW Data    ZI Data      Debug   Library Member Name

       544         70        152          0          0        124   atan.o
        22          6          0          0          0        136   dunder.o
        40          0          0          0          0         68   fpclassify.o
       170          0          0          0          0         96   poly.o
         0          0          0          0          0          0   entry.o
         0          0          0          0          0          0   entry10a.o
         0          0          0          0          0          0   entry11a.o
         8          4          0          0          0          0   entry2.o
         4          0          0          0          0          0   entry5.o
         0          0          0          0          0          0   entry7b.o
         0          0          0          0          0          0   entry8b.o
         8          4          0          0          0          0   entry9a.o
        30          0          0          0          0          0   handlers.o
        36          8          0          0          0         68   init.o
         0          0          0          0          0          0   iusefp.o
        30          0          0          0          0         68   llshl.o
        36          0          0          0          0         68   llsshr.o
        32          0          0          0          0         68   llushr.o
        36          0          0          0          0        108   memseta.o
      2258         90          0          0          0        452   printfa.o
        44          0          0          0          0         80   uidiv.o
        98          0          0          0          0         92   uldiv.o
        48          0          0          0          0         68   cdrcmple.o
        20          0          0          0          0         68   cfcmple.o
        20          0          0          0          0         68   cfrcmple.o
        56          0          0          0          0         88   d2f.o
       334          0          0          0          0        148   dadd.o
       222          0          0          0          0        100   ddiv.o
       186          0          0          0          0        176   depilogue.o
        48          0          0          0          0         68   dfixul.o
       228          0          0          0          0         96   dmul.o
        46          0          0          0          0         80   dscalb.o
        38          0          0          0          0         68   f2d.o
       176          0          0          0          0        140   fadd.o
       124          0          0          0          0         88   fdiv.o
       110          0          0          0          0        168   fepilogue.o
        50          0          0          0          0         68   ffixi.o
        18          0          0          0          0         68   fflti.o
        10          0          0          0          0         68   ffltui.o
       100          0          0          0          0         76   fmul.o
        24          0          0          0          0         68   fscalb.o

    ----------------------------------------------------------------------
      5264        182        152          0          0       3200   Library Totals
        10          0          0          0          0          0   (incl. Padding)

    ----------------------------------------------------------------------

      Code (inc. data)   RO Data    RW Data    ZI Data      Debug   Library Name

       776         76        152          0          0        424   m_ws.l
      2620        106          0          0          0       1004   mc_w.l
      1858          0          0          0          0       1772   mf_w.l

    ----------------------------------------------------------------------
      5264        182        152          0          0       3200   Library Totals

    ----------------------------------------------------------------------

==============================================================================


      Code (inc. data)   RO Data    RW Data    ZI Data      Debug   

     16128        828        448        184       1392     505839   Grand Totals
     16128        828        448        184       1392     505839   ELF Image Totals
     16128        828        448        184          0          0   ROM Totals

==============================================================================

    Total RO  Size (Code + RO Data)                16576 (  16.19kB)
    Total RW  Size (RW Data + ZI Data)              1576 (   1.54kB)
    Total ROM Size (Code + RO Data + RW Data)      16760 (  16.37kB)

==============================================================================

