:020000040800F2
:10000000A00E0020850A0008850300088703000869
:100010008B0300088F030008930300080000000012
:10002000000000000000000000000000970300082E
:1000300099030008000000009B0300089D030008CE
:100040009F0A00089F0A00089F0A00089F0A0008EC
:100050009F0A00089F0A00089F0A00089F0A0008DC
:100060009F0A00089F0A00089F0A00089F0A0008CC
:100070009F0A00089F0A00089F0A00089F0A0008BC
:100080009F0A00089F0A00089F0A00089F0A0008AC
:100090009F0A00089F0A00089F0A00089F0A00089C
:1000A0009F0A00089F0A00089F0A00089F0A00088C
:1000B0009F0A00089F0A00089F0A00089F0A00087C
:1000C0009F0A00089F0A00089F0A00089F0A00086C
:1000D0009F0A0008630900089F0A00089F0A000899
:1000E0009F0A00089F0A00089F0A00089F0A00084C
:1000F0009F0A00089F0A00089F0A00089F0A00083C
:100100009F0A00089F0A00089F0A00089F0A00082B
:100110009F0A00089F0A00089F0A00089F0A00081B
:100120009F0A00089F0A00089F0A00089F0A00080B
:1001300000F002F800F03AF80AA090E8000C8244BF
:100140008344AAF10107DA4501D100F02FF8AFF29C
:10015000090EBAE80F0013F0010F18BFFB1A43F0A5
:10016000010318470C1C00002C1C0000103A24BF8F
:1001700078C878C1FAD8520724BF30C830C144BF0C
:1001800004680C607047000000230024002500264E
:10019000103A28BF78C1FBD8520728BF30C148BFEA
:1001A0000B6070471FB51FBD10B510BD01F09AFD63
:1001B0001146FFF7F7FF00F00DF801F0CCFD03B496
:1001C000FFF7F2FF03BC00F071FB000080F308882A
:1001D0007047000000250024002600F0FDFA4FF4CF
:1001E000A06001F0F3F94FF4E13000F06EFB00F095
:1001F000C7F97BE03E4800F003FA3E49098888428F
:1002000002D107203C4908704FF480713B4800F050
:100210004CFD40B900203849087001223549891C3D
:10022000334800F014FA142000F013FB344800881F
:1002300080B13148007802280CD1314800888642CC
:1002400006D130A001F010FD03202B49087001E019
:100250002B480688641C102C06D100242D48006809
:10026000C0432D49C1F8880123480078052826D1CC
:100270002348058800202249088028A001F0F4FCCA
:100280002B48406800F07F40B0F1006F11D12A4642
:1002900028491748203000F055FA27A001F0E4FC67
:1002A00001221449124800F0D2F9062012490870C0
:1002B00005E026A001F0D8FC00200F4908700E4888
:1002C0000078072812D10A482030406800F07F40AB
:1002D000B0F1006F07D121A001F0C6FC0448203026
:1002E00000F061FA02E022A001F0BEFC82E700000B
:1002F000E04F000818000020260000200008014000
:1003000024000020B3CCD0F2BDD3CAD5CDEAB3C906
:100310000D0A00008881224200802242D3C3BBA77D
:10032000B3CCD0F2BFAACABCC9FDBCB6210D0A002D
:100330000010002000100020D3C3BBA7B3CCD0F224
:10034000C9FDBCB6CDEAB3C90D0A0000B3CCD0F2EA
:10035000C9FDBCB6CAA7B0DC0D0A0000D3C3BBA759
:10036000B3CCD0F2BFAACABCCCF8D7AA0D0A000001
:10037000466C617368B5D8D6B7B7C7B7A8A3A10D47
:100380000A000000704700BFFEE700BFFEE700BFA5
:10039000FEE700BFFEE770477047704770470000F8
:1003A0000CB50020019000906C48006840F480304B
:1003B0006A49086000BF6948006800F40030009096
:1003C0000198401C0190009818B90198B0F5A06FF1
:1003D000F1D16248006800F4003010B101200090B3
:1003E00001E0002000900098012843D15C4800689B
:1003F00040F010005A4908600846006820F00300E9
:1004000008600846006840F00200086053484068F1
:10041000524948600846406848600846406840F4D1
:10042000806048600846406820F47C1048600846B8
:10043000406840F4E81048600846006840F080706A
:10044000086000BF4548006800F000700028F9D03F
:100450004248406820F00300404948600846406830
:1004600040F00200486000BF3C48406800F00C00CB
:100470000828F9D10CBD10B5FFF792FF10BD10B5DB
:100480003648006840F0010034490860084640687A
:1004900034490840314948600846006832490840FC
:1004A0002E4908600846006820F48020086008464D
:1004B000406820F4FE0048604FF41F008860FFF79A
:1004C000DAFF4FF000602949086010BD10B5002127
:1004D00000200022214B5B6803F00C0121B10429AC
:1004E00006D0082928D107E0214B224C236027E0C1
:1004F0001F4B204C236023E0184B5B6803F4701003
:10050000164B5B6803F48032022303EB904022B960
:10051000194B4343174C23600DE0104B5B6803F409
:10052000003323B1144B4343124C236003E0104BC0
:100530004343104C236003E00D4B0E4C236000BF7F
:1005400000BF064B5B68C3F303130C4CE15C094B23
:100550001B68CB40074C236010BD00000010024018
:10056000002002400000FFF8FFFFF6FE08ED00E06B
:1005700000127A000000002000093D000400002065
:1005800008B50121242000F0B9FD4FF48070ADF8CA
:10059000000010208DF8030003208DF8020069464A
:1005A000154800F0EFFA4FF48071134800F097FB04
:1005B0000420ADF800006946104800F0E3FA042179
:1005C0000E4800F08CFB08BD08B50121042000F0A6
:1005D00095FD0120ADF8000010208DF803000320E8
:1005E0008DF802006946044800F0CCFA0121024867
:1005F00000F077FB08BD0000000801400014014036
:100600000146088870472DE9F04105460E46174619
:10061000002407E036F81410284601F0ACF9AD1CB0
:10062000601C84B2BC42F5DBBDE8F08130B5034606
:100630000C461546002207E01846FFF7E1FF24F8B4
:1006400012009B1C501C82B2AA42F5DB30BD2DE982
:10065000F05F80468A461746B8F1006F02D33748EC
:10066000804501D3BDE8F09F01F03DF8A8F1006B93
:100670004FEADB25CBF34909C9F58064A74200DCCA
:100680003C464DE04FF0006101EBC5204A142C4977
:10069000FFF7CCFF00260BE009EB0600284931F8F4
:1006A00010004FF6FF71884200D003E0701C86B244
:1006B000A642F1DB00BFA6421BDA4FF0006101EB5E
:1006C000C52001F055F8002608E03AF8160006EBC0
:1006D00009011B4A22F81100701C86B2A642F4DB05
:1006E0004FF0006101EBC5204A141549FFF78BFF5D
:1006F00004E0224651464046FFF785FFA74200D15D
:100700000FE06D1C4FF000090AEB440AA044381BAF
:1007100087B2B7F5806F02DD4FF4806400E03C469D
:10072000B0E700BF00F0EBFF00BF9BE713B5044646
:10073000012201A92046FFF78AFF1CBD0000040822
:100740003C0000202DE9F05F06460F46904600244D
:10075000B3463D46A1461CE068784FEA002A287857
:1007600050441FFA80FAAD1C2046611C8CB2174918
:1007700021F810A0B4F5806F07D100244FF48062F7
:100780005846FFF764FF0BF5006B09F102001FFAF2
:1007900080F9C145E0D324B122460C495846FFF701
:1007A00056FFBDE8F09F10B5044620680849084090
:1007B000B0F1005F08D16068064908602068FFF763
:1007C00005FD04480068804710BD000000B400200B
:1007D0000000FE2F1400002010B56FF0040000F0A0
:1007E00044FF2E4800682E49B0FBF1F02D490870F7
:1007F0000846007800EB4001C1EBC0104FF6FF71D6
:1008000001EAC0002849088010BD0146254A127837
:100810004A434FF0E0235A6100229A611A46126956
:1008200042F001021A6100BF4FF0E022106900F0AF
:1008300001021AB100F48032002AF5D04FF0E02214
:10084000126922F001024FF0E0231A6100229A613E
:1008500070470146144A12884A434FF0E0235A6118
:1008600000229A611A46126942F001021A6100BF21
:100870004FF0E022106900F001021AB100F480325A
:10088000002AF5D04FF0E022126922F001024FF069
:10089000E0231A6100229A617047000000000020E6
:1008A00000127A001C0000201E000020014600BF3C
:1008B000704700BF654A128802F04002002AF9D052
:1008C000C2B2624B1B1D1A80704710B586B0044639
:1008D000012144F2040000F011FC4FF40070ADF867
:1008E000140003208DF8160018208DF8170005A9B4
:1008F000574800F047F94FF48060ADF81400042029
:100900008DF8170005A9524800F03CF925208DF814
:10091000000000208DF8010001208DF802008DF804
:100920000300684600F057FE01940020ADF808006F
:10093000ADF80A00ADF80C00ADF810000C20ADF8D1
:100940000E0001A9414800F080FC012240F225512F
:100950003E4800F012FD01213C4800F002FD06B0C7
:1009600010BD10B540F22551384800F0EBFD0028CD
:100970006BD0364800F066FDC4B2364800780228D5
:1009800010D135480088B0F5244F08DA3248018884
:100990000088401C304A10803048445402E030A0A7
:1009A00001F062F92B480078012808D16B2C06D1A0
:1009B0000220284908702DA001F056F90BE02548C7
:1009C0000078012807D16B2C05D02AA001F04CF942
:1009D0000020204908701F48007828B96F2C03D1E7
:1009E00001201C49087007E01A48007820B96F2CD4
:1009F00002D020A001F038F916480078042805D16B
:100A00002B2C03D10520134908700BE01148007806
:100A1000042807D12B2C05D003200E49087015A0FF
:100A200001F022F90B480078032805D12B2C03D1C3
:100A300004200849087008E006480078032804D11B
:100A40002B2C02D00DA001F00FF910BD0038014091
:100A50000008014026000020240000200010002093
:100A6000536176655F4572720D0A00006F6B0D0A67
:100A7000000000004572720D0A0000004572726F9E
:100A8000720D0A000948804709480047FEE7FEE763
:100A9000FEE7FEE7FEE7FEE7FEE7FEE7FEE7FEE72E
:100AA00004480549054A064B704700007F040008CA
:100AB00031010008A0080020A00E0020A00A00209C
:100AC000A00A002010B50446CC48844208D1012178
:100AD000042000F02DFB0021042000F029FB46E05B
:100AE000C748844208D10121082000F021FB0021E1
:100AF000082000F01DFB3AE0C248844208D10121E1
:100B0000102000F015FB0021102000F011FB2EE05A
:100B1000BD48844208D10121202000F009FB0021BA
:100B2000202000F005FB22E0B848844208D10121D2
:100B3000402000F0FDFA0021402000F0F9FA16E014
:100B4000B348844208D10121802000F0F1FA00214D
:100B5000802000F0EDFA0AE0AE48844207D101217E
:100B6000801500F0E5FA0021A01500F0E1FA10BDB3
:100B700010B50121084600F0DBFA0021012000F049
:100B8000D7FA10BD2DE9F0410246002500260020CD
:100B900000230024002791F803C00CF00F0591F802
:100BA00003C00CF0100CBCF1000F03D091F802C090
:100BB0004CEA050591F800C0BCF1000F31D0146873
:100BC00000202BE04FF0010C0CFA00F3B1F800C04C
:100BD0000CEA03069E4220D183004FF00F0C0CFA62
:100BE00003F7BC4305FA03FC4CEA040491F803C084
:100BF000BCF1280F06D14FF0010C0CFA00FCC2F832
:100C000014C00AE091F803C0BCF1480F05D14FF0C1
:100C1000010C0CFA00FCC2F810C0401C0828D1D30B
:100C20001460B1F800C0BCF1FF0F34DD546800203F
:100C30002EE000F1080C4FF0010808FA0CF3B1F8AF
:100C400000C00CEA03069E4221D183004FF00F0C36
:100C50000CFA03F7BC4305FA03FC4CEA040491F8D0
:100C600003C0BCF1280F05D100F1080C08FA0CF8FC
:100C7000C2F8148091F803C0BCF1480F07D100F10D
:100C8000080C4FF0010808FA0CF8C2F81080401C5C
:100C90000828CED35460BDE8F0814FF6FF71018083
:100CA000022181700421C1707047024600209368C0
:100CB0000B400BB1012000E000207047014688681E
:100CC00080B2704702460020D3680B400BB1012070
:100CD00000E0002070470146C86880B2704701619B
:100CE0007047416170470AB1016100E0416170479E
:100CF000C16070474FF480320A4382618161826132
:100D000082698269704702460020434B18684FF69B
:100D10008073184040EA021008433F4B1860704748
:100D20003E49C8617047F0B50A46002300240021FF
:100D3000002500F00046B6F1004F02D1364EF169B1
:100D400001E0354E7168C0F3034583B200F44016EC
:100D5000B6F5401F08D121F070612F4E766826F05D
:100D600070662D4F7E6012E000F48016B6F5801F8D
:100D700006D1032606FA05F4A14341F0706106E0AE
:100D8000460D360103FA06F6B14341F0706122B117
:100D9000460D360103FA06F6314300F00046B6F17F
:100DA000004F02D11C4EF16101E01B4E7160F0BD9D
:100DB00030B500228B071C0F0F2303FA04F2164BE9
:100DC00008338C1053F824309343134C08348D109F
:100DD00044F8253023468C1053F824308C07240F18
:100DE00000FA04F423430C4C08348D1044F82530E9
:100DF00030BD0A49DC31086070470000000801403E
:100E0000000C014000100140001401400018014096
:100E1000001C014000200140000001400000204271
:100E2000DF48006840F00100DD490860084640687E
:100E3000DC490840DA49486008460068DA49084059
:100E4000D74908600846006820F4802008600846FA
:100E5000406820F4FE0048604FF41F00886070472F
:100E6000CF49096821F48031CD4A116011460968E3
:100E700021F480211160B0F5803F03D0B0F5802FC0
:100E80000ED106E0C649096841F48031C44A1160B8
:100E900007E0C349096841F4A021C14A116000E09C
:100EA00000BF00BF704710B501460022002300209C
:100EB0004A11012A02D1BA4C236806E0022A02D163
:100EC000B74C236A01E0B64C636A01F01F020124AB
:100ED00094401C400CB1012000E0002010BD38B54A
:100EE000002000900024002500BF3120FFF7DBFF29
:100EF00005460098401C00900098B0F5A06F01D006
:100F0000002DF2D03120FFF7CEFF08B1012400E020
:100F10000024204638BD01460020A14A106820F078
:100F2000F80040EAC10010607047A04908607047AF
:100F3000024600209A4B586820F47C1042EA0103D4
:100F40001843974B586070479849086670470146A8
:100F50000020934A506820F0030008435060704717
:100F60008F48406800F00C007047014600208C4A12
:100F7000506820F0F00008435060704701460020A0
:100F8000874A506820F4E06008435060704701468B
:100F90000020834A506820F4605040EAC10050604D
:100FA000704729B17E4A527A02437D4B5A7204E05F
:100FB0007B4A527A82437A4B5A7270477B49D831C6
:100FC0000860704701460020754A506820F4404090
:100FD0000843506070470021714A20321170704AF6
:100FE00082F82010012802D004280AD104E001214F
:100FF0006B4A2032117005E00521694A20321170D8
:1010000000E000BF00BF704769490860704764494D
:10101000096A0143624A11627047654944390860B0
:10102000704730B500210022002400235C4D6D681C
:1010300005F00C0121B1042905D0082923D105E0D0
:101040005C4D056022E05B4D05601FE0544D6D680E
:1010500005F47012524D6D6805F48034022505EBDD
:1010600092421CB9544D554305600BE04C4D6D68E0
:1010700005F400351DB1504D5543056002E04D4D5E
:101080005543056002E04B4D056000BF00BF444D75
:101090006D6805F0F0010909484D6B5C0568DD409D
:1010A00045603F4D6D6805F4E061090A434D6B5C96
:1010B0004568DD4085603A4D6D6805F46051C90AA8
:1010C0003E4D6B5C4568DD40C560354D6D6805F48F
:1010D0004041890B3A4D6B5CC568B5FBF3F5056182
:1010E00030BD29B12E4A526902432D4B5A6104E0AA
:1010F0002B4A526982432A4B5A61704729B1284AC8
:1011000092690243264B9A6104E0254A9269824320
:10111000234B9A61704729B1214AD2690243204B7F
:10112000DA6104E01E4AD26982431D4BDA617047DE
:1011300029B11B4AD2680243194BDA6004E0184A0D
:10114000D2688243164BDA60704729B1144A12699B
:101150000243134B1A6104E0114A12698243104B97
:101160001A61704712494039086070470F49C864D6
:1011700070470B49C87170470948406A40F0807059
:1011800007494862704701460020054A92680A40B4
:101190000AB1012000E000207047014988727047C1
:1011A000001002400000FFF8FFFFF6FE0000424280
:1011B0008004424200127A0000093D00270000200E
:1011C0003700002010B50446FB48844209D10121B4
:1011D0008803FFF7ADFF00214FF48040FFF7A8FF21
:1011E00032E0F648844209D101214804FFF7ADFFFF
:1011F00000214FF40030FFF7A8FF25E0F0488442BB
:1012000009D101218804FFF7A0FF00214FF48020BD
:10121000FFF79BFF18E0EB48844209D10121C80485
:10122000FFF793FF00214FF40020FFF78EFF0BE044
:10123000E548844208D101210805FFF786FF002117
:101240004FF48010FFF781FF10BD2DE9F04786B005
:1012500005460E460024A24600BFA1460027B089DD
:1012600000B100BF2F462C8A4CF6FF700440F08876
:1012700004432C82AC894EF6F3100440B0883189C7
:101280000843718908430443AC81AC8A4FF6FF40A0
:101290000440B0890443AC8201A8FFF7C2FEC648EF
:1012A000874202D1DDF810A001E0DDF80CA0A8898A
:1012B00000F4004040B10AEBCA0000EB0A103168AC
:1012C0004900B0FBF1F807E00AEBCA0000EB0A1096
:1012D00031688900B0FBF1F86420B8FBF0F004013C
:1012E0002009642101FB1089A88900F4004040B165
:1012F000322000EBC900B0FBF1F000F0070004431E
:1013000008E0322000EB09106421B0FBF1F000F09E
:101310000F0004432C8106B0BDE8F0874FF416514E
:10132000016000218180C18001810C214181002167
:101330008181704710B502460020108A4FF2FF03EA
:1013400018400B884C8823438C882343CC88234344
:101350001843108210BD0021018041808180C1802E
:10136000704721B1828942F40052828104E082896F
:101370004DF6FF731A4082817047F0B50346002492
:1013800000260025002040F66A17B94200D100BFB0
:101390001846C1F3421401F01F06012707FA06F5AB
:1013A000012C01D10C3004E0022C01D1103000E0FE
:1013B00014301AB107682F43076002E00768AF4393
:1013C0000760F0BD1AB1838A0B43838202E0838AEF
:1013D0008B4383827047028A4FF6F0731A40028271
:1013E000028A0A430282704782894FF2FF731A40D1
:1013F000828182890A438281704721B1828942F0C9
:101400000202828104E082894FF6FD731A408281D4
:101410007047028A4FF6DF731A400282028A0A433B
:101420000282704721B1028A42F48042028204E0C3
:10143000028A4BF6FF731A4002827047C1F308021A
:101440008280704701468888C0F308007047818910
:1014500041F0010181817047028BD2B20283028B7D
:1014600042EA012202837047028B02F47F42028328
:10147000028B0A430283704721B1828A42F0200224
:10148000828204E0828A4FF6DF731A4082827047BC
:1014900021B1828A42F01002828204E0828A4FF6F1
:1014A000EF731A408282704721B1828A42F00802AB
:1014B000828204E0828A4FF6F7731A408282704774
:1014C00021B1828942F40042828103E08289C2F321
:1014D0000E028281704721B1828A42F400628282C8
:1014E00004E0828A4FF2FF731A4082827047828A38
:1014F0004FF6FB731A408282828A0A4382827047C7
:1015000021B1828A42F00202828204E0828A4FF68E
:10151000FD731A408282704702460020B1F5007FB9
:1015200000D100BF13880B400BB1012000E0002068
:10153000704701F40072B2F5007F00D100BFCA43CA
:101540000280704770B50246002400230025002069
:1015500040F66A16B14200D100BFC1F3421501F056
:101560001F03012606FA03F3012D02D196893340A9
:1015700006E0022D02D1168A334001E0968A3340FC
:101580000C12012606FA04F41688344013B10CB18B
:10159000012000E0002070BD10B50022002340F6BD
:1015A0006A14A14200D100BF0A1201249440A3B2E0
:1015B000DC43048010BD00000038014000440040BE
:1015C00000480040004C00400050004031490143B9
:1015D000314A1160704770B5002100230F22C47892
:1015E00004B32D4C246804F4E064C4F5E064210ADB
:1015F000C1F10403CA40447804FA03F1847814402A
:1016000021430901254C0678A155047804F01F05F3
:101610000124AC4005786D11AD0005F1E025C5F859
:10162000004109E0047804F01F050124AC401C4D82
:101630000678761145F8264070BD1A4A0A400243E2
:10164000154B1B1F1A60704739B1134A121D1268DF
:101650000243114B1B1D1A6006E00F4A121D12684F
:1016600082430D4B1B1D1A607047042808D14FF0B0
:10167000E021096941F004014FF0E022116107E027
:101680004FF0E021096921F004014FF0E0221161DF
:10169000704700000000FA050CED00E000E400E0F7
:1016A00080E100E080FFFF1F01460020FE4A106835
:1016B00000F03800084310607047FB49096821F0CA
:1016C0000801F94A11601146096801431160704729
:1016D000F549096821F01001F34A116011460968C3
:1016E000014311607047F148EF494860F048486095
:1016F0007047EE48EC494860ED4848607047EA485A
:10170000006940F08000E84908617047E6480069D8
:1017100040F08000E449086170470420E249C9684C
:1017200001F0010109B101200EE0DF49C96801F0B3
:10173000040109B1022007E0DB49C96801F010018A
:1017400009B1032000E00420704700B502460423DD
:10175000FFF7E3FF034603E0FFF7DFFF0346521EF8
:10176000012B01D1002AF7D102B90523184600BD8B
:1017700030B5044604254FF43020FFF7E6FF054658
:10178000042D17D1C848006940F00200C64908611D
:1017900008464461006940F0400008614FF4302081
:1017A000FFF7D3FF0546C048006941F6FD710840C8
:1017B000BD490861284630BD10B504244FF43020DF
:1017C000FFF7C3FF0446042C16D1B748006940F068
:1017D0000400B54908610846006940F0400008610E
:1017E0004FF43020FFF7B1FF0446AF48006941F6DF
:1017F000FB710840AC490861204610BD00B50246A7
:101800000423FFF78AFF034603E0FFF786FF034642
:10181000521E012B01D1002AF7D102B90523184627
:1018200000BD10B504244FF43020FFF7E7FF044655
:10183000042C16D19C48006940F004009A490861C4
:101840000846006940F0400008614FF43020FFF77F
:10185000D5FF04469448006941F6FB71084092495F
:101860000861204610BD00208F49C96901F00201BE
:1018700009B1012000E00020704730B5A5250424FF
:10188000FFF7F1FF00B100254FF43020FFF75DFFB7
:101890000446042C3AD1854883498860844888608E
:1018A0000846006940F0200008610846006940F0E1
:1018B000400008614FF43020FFF747FF0446042C36
:1018C0001BD17948006941F6DF710840764908610B
:1018D0000846006940F01000086176480580E00283
:1018E000FFF733FF0446052C10D06F48006941F61E
:1018F000EF7108406C49086108E0052C06D06A4881
:10190000006941F6EF71084067490861204630BD23
:1019100078B506460C46042500200090E802FFF743
:1019200014FF0546042D24D15F48006940F00100F2
:101930005D4908613480E802FFF707FF0546042D82
:1019400010D1B01C0090200C00990880E802FFF72D
:10195000FCFE05465448006941F6FE7108405249B4
:10196000086106E05048006941F6FE7108404E49A2
:101970000861284678BD70B504460D460426F0027D
:10198000FFF7E3FE0646042E11D14748006940F0F8
:101990000100454908612580F002FFF7D6FE0646A2
:1019A0004148006941F6FE7108403F4908613046F0
:1019B00070BD70B505460E460424E002FFF7C5FE73
:1019C0000446042C17D13948374988603848886064
:1019D0000846006940F0100008612E80E002FFF721
:1019E000B4FE0446052C06D02F48006941F6EF717D
:1019F00008402D490861204670BD2DE9F04304469A
:101A00004FF6FF763746B046B1460425E443E6B2CA
:101A1000C4F30727C4F307484FEA1469E802FFF745
:101A200094FE0546042D49D120481F49886020486E
:101A300088600846006940F010000861FF2E06D05B
:101A40001C4808300680E802FFF77FFE0546042D9B
:101A500008D1FF2F06D017480A300780E802FFF7A9
:101A600074FE0546042D0AD1B8F1FF0F07D01148C6
:101A70000C30A0F80080E802FFF767FE0546042D51
:101A80000AD1B9F1FF0F07D00A480E30A0F8009034
:101A9000E802FFF75AFE0546052D0FD002480069FF
:101AA00041F6EF71084007E000200240230167453E
:101AB000AB89EFCD00F8FF1F664908612846BDE8F5
:101AC000F08330B5054604244FF43020FFF73DFE87
:101AD0000446042C41D160485E4988605F488860B4
:101AE0000846006940F0200008610846006940F09F
:101AF000400008614FF43020FFF727FE0446042C15
:101B000022D15448006941F6DF710840514908610B
:101B10000846006940F0100008611DB100205049DE
:101B2000088002E0A5204E4908804FF43020FFF7DE
:101B30000CFE0446052C10D04648006941F6EF71B2
:101B400008404449086108E0052C06D04148006976
:101B500041F6DF7108403F490861204630BDF0B5CD
:101B600005460E46174604243B483A4988603B48E0
:101B70008860E002FFF7E9FD0446042C19D13548DE
:101B8000006940F010003349086147F0F800304325
:101B900028433349891C0880E002FFF7D6FD04463C
:101BA000052C06D02B48006941F6EF710840294901
:101BB00008612046F0BD2748C06980087047254865
:101BC000006A704700202349096801F0200109B12B
:101BD000012000E00020704729B11E4A126902432B
:101BE0001C4B1A6104E01B4A12698243194B1A61AB
:101BF000704701460020012908D1164AD26902F037
:101C000001020AB1012008E0002006E0114AD26872
:101C10000A400AB1012000E0002070470D49C86069
:101C2000704704200B49C96801F0010109B1012086
:101C30000EE00849C96801F0040109B1022007E07B
:101C40000449C96801F0100109B1032000E0042033
:101C5000704700000020024023016745AB89EFCDAB
:101C600000F8FF1F704700000FB4044910B503AA25
:101C7000029800F009F810BC5DF814FB2000002069
:101C80007047704770477047074B70B50D467B44EF
:101C900000F011F80446284600F020F810B14FF08B
:101CA000FF3070BD204670BD21ECFFFF01694A1C6A
:101CB00002610878704700B58FB0CDE9013100218D
:101CC000059105497944CDE903101146684600F0B5
:101CD0002EF80FB000BD0000E5FFFFFF007B00F015
:101CE00080007047754600F03FF8AE460500694633
:101CF000534620F00700854618B020B5FEF7D0FE09
:101D0000BDE820404FF000064FF000074FF00008FC
:101D10004FF0000B21F00701AC46ACE8C009ACE87D
:101D2000C009ACE8C009ACE8C0098D4670472DE990
:101D3000F04106460024D6E90170F5688046304639
:101D400003E04146B847641C3046A8470028F8D154
:101D50002046BDE8F08110B50446AFF30080204670
:101D6000BDE81040FEF72BBA004870473C08002041
:101D7000901D0008000000203C0000006C010008DD
:101D8000CC1D00083C000020C4BB000088010008F6
:101D900000A24A0400000000000000000102030449
:101DA0000607080900000000040008000000000009
:101DB0000000000000000000000000010203040118
:0C1DC000020304060708090204060800DC
:0400000508000131BD
:00000001FF
