:020000040800F2
:10000000000002209D040008A5040008A7040008C1
:10001000A9040008AB040008AD04000800000000BB
:10002000000000000000000000000000AF04000815
:10003000B104000800000000B30400081D1000080F
:10004000B7040008B7040008B7040008B7040008A4
:10005000B7040008B7040008B7040008B704000894
:10006000B7040008B7040008B7040008B704000884
:10007000B7040008B7040008B7040008B704000874
:10008000B7040008B7040008B7040008B704000864
:1000900000000000B704000800000000B7040008DA
:1000A000B7040008B7040008B7040008B704000844
:1000B000B7040008B7040008B7040008B704000834
:1000C00000000000B704000800000000B7040008AA
:1000D000B7040008B7040008B7040008B704000814
:1000E000B7040008B7040008B7040008B704000804
:1000F000B7040008B7040008B7040008B7040008F4
:1001000000000000B7040008B7040008B7040008A6
:10011000B7040008B7040008B7040008B7040008D3
:10012000B7040008B7040008B7040008B7040008C3
:10013000B7040008B7040008000000000000000039
:10014000B70400080000000000000000B704000829
:10015000000000000000000000000000B7040008DC
:10016000000000000000000000000000000000008F
:10017000000000000000000000000000000000007F
:100180000000000000000000B7040008B7040008E9
:10019000000000000000000000000000000000005F
:1001A000000000000000000000000000000000004F
:1001B000000000000000000000000000000000003F
:1001C000000000000000000000000000000000002F
:1004000000F002F800F03AF80AA090E8000C8244EC
:100410008344AAF10107DA4501D100F02FF8AFF2C9
:10042000090EBAE80F0013F0010F18BFFB1A43F0D2
:10043000010318473858000058580000103A24BFEC
:1004400078C878C1FAD8520724BF30C830C144BF39
:1004500004680C607047000000230024002500267B
:10046000103A28BF78C1FBD8520728BF30C148BF17
:100470000B6070471FB51FBD10B510BDDFF80CD065
:10048000FFF7F8FF00F05EFE00F01AF8000002200F
:1004900003B4FFF7F1FF03BC00F01CF806488047E7
:1004A00006480047FEE7FEE7FEE7FEE7FEE7FEE759
:1004B000FEE7FEE7FEE7FEE7211100080104000861
:1004C00010B50446AFF300802046BDE81040FFF7AA
:1004D000DFBF704701491820ABBEFEE726000200CF
:1004E00080B582B00020019000F080F80090009864
:1004F00044F6D351C1F26201A0FB0101880900F06A
:1005000077FD18B14FF0FF3002B080BD00F00AFE59
:100510000190019800F04AFD00F00CFE002002B0AE
:1005200080BD000041617047F0B591F803C0002321
:100530000CF00F0E5FEACC6244BF8A784EEA020EDE
:100540000A880F24002504E00135082D03F1040377
:100550000CD022FA05F6F607F6D0066804FA03F77F
:10056000BE430EFA03F73E430660EDE70988002319
:100570000A0A0F24002504E00135082D03F10403C5
:100580000CD022FA05F6F607F6D0466804FA03F70F
:10059000BE430EFA03F73E434660EDE7BCF1480F59
:1005A00005D0BCF1280F18BFF0BD143000E01030AA
:1005B000026811430160F0BD0161704710B582B05F
:1005C000044600F019F8019000940098013003D01F
:1005D00000980130009000BF00F00EF80199009AD9
:1005E000401A9042F8D302B010BD000040F20C0057
:1005F000C2F200000068704740F21000C2F2000032
:1006000000687047F0B581B007462A201C461546A1
:100610000E4600F08BFC384600F07CFC284600F0CB
:1006200079FC2B2000F082FC304600F073FC204661
:1006300000F070FC2C2001B0BDE8F04000F076BC6A
:1006400010B5144602460B46FFF7DCFF2046BDE816
:10065000104000F05FBC00002DE9F04381B00E4671
:100660008146501E591E9846154682B28BB24846A6
:100670003146FFF7C7FF464512D2089CA94505D36E
:100680000136B0B240450BD2A945F9D24F4600BF62
:10069000204600F03FFC0137B8B2A842F8D3EFE79C
:1006A00001B0BDE8F083000080B582B004200121D4
:1006B00000F092FC1F20C1F20100019040F6000002
:1006C000C4F2040001A9FFF72FFF02B080BD0000B3
:1006D00010B5FFF7E9FF40F60004C4F20404204619
:1006E0000421FFF71FFF6420FFF768FF2046042165
:1006F000FFF762FF6420FFF761FF20462021FFF72C
:100700005BFF6420FFF75AFFEF2000F00FFCEB20A7
:1007100000F00CFC142000F007FCFE2000F006FCAA
:10072000EF2000F003FCEB2000F000FC142000F0B0
:10073000FBFB842000F0FAFB402000F0F5FB852055
:1007400000F0F4FBFF2000F0EFFB862000F0EEFB52
:10075000FF2000F0E9FB872000F0E8FBFF2000F01D
:10076000E3FB882000F0E2FB0A2000F0DDFB89209B
:1007700000F0DCFB212000F0D7FB8A2000F0D6FB44
:10078000002000F0D1FB8B2000F0D0FB802000F097
:10079000CBFB8C2000F0CAFB012000F0C5FB8D20B4
:1007A00000F0C4FB012000F0BFFB8E2000F0BEFB78
:1007B000FF2000F0B9FB8F2000F0B8FBFF2000F015
:1007C000B3FBB62000F0B2FB002000F0ADFB202010
:1007D00000F0AAFB362000F0A9FB082000F0A4FBE3
:1007E0003A2000F0A3FB052000F09EFB902000F0D3
:1007F0009DFB082000F098FB082000F095FB0820E6
:1008000000F092FB082000F08FFBBD2000F08EFB73
:10081000062000F089FBBC2000F088FB002000F0DF
:1008200083FBFF2000F082FB602000F07DFB0120B5
:1008300000F07AFB042000F077FBC32000F076FB89
:10084000132000F071FBC42000F070FB132000F0B7
:100850006BFBC92000F06AFB222000F065FBBE2084
:1008600000F064FB112000F05FFBE12000F05EFB74
:10087000102000F059FB0E2000F056FBDF2000F0A6
:1008800055FB212000F050FB0C2000F04DFB022016
:1008900000F04AFBF02000F049FB452000F044FB4B
:1008A000092000F041FB082000F03EFB082000F08A
:1008B0003BFB262000F038FB2A2000F035FBF1201E
:1008C00000F034FB432000F02FFB702000F02CFBE5
:1008D000722000F029FB362000F026FB372000F0C4
:1008E00023FB6F2000F020FBF22000F01FFB4520CF
:1008F00000F01AFB092000F017FB082000F014FBA1
:10090000082000F011FB262000F00EFB2A2000F04A
:100910000BFBF32000F00AFB432000F005FB7020E6
:1009200000F002FB722000F0FFFA362000F0FCFA23
:10093000372000F0F9FA6F2000F0F6FAED2000F011
:10094000F5FA1B2000F0F0FA0B2000F0EDFAAE20D3
:1009500000F0ECFA772000F0E7FACD2000F0E6FA9C
:10096000632000F0E1FA702000F0E0FA072000F0C8
:10097000DBFA072000F0D8FA042000F0D5FA0E20A8
:1009800000F0D2FA0F2000F0CFFA092000F0CCFAE4
:10099000072000F0C9FA082000F0C6FA032000F092
:1009A000C3FAE82000F0C2FA342000F0BDFA622059
:1009B00000F0BCFA182000F0B7FA0D2000F0B4FAED
:1009C000712000F0B1FAED2000F0AEFA702000F0D6
:1009D000ABFA702000F0A8FA182000F0A5FA0F205A
:1009E00000F0A2FA712000F09FFAEF2000F09CFACC
:1009F000702000F099FA702000F096FA632000F061
:100A000095FA182000F090FA112000F08DFA71206C
:100A100000F08AFAF12000F087FA702000F084FAE2
:100A2000702000F081FA182000F07EFA132000F008
:100A30007BFA712000F078FAF32000F075FA70204C
:100A400000F072FA702000F06FFA642000F06EFA85
:100A5000282000F069FA292000F066FAF12000F061
:100A600063FA012000F060FAF12000F05DFA002046
:100A700000F05AFA072000F057FA662000F056FA04
:100A80003C2000F051FA002000F04EFACD2000F09A
:100A90004BFA672000F048FA452000F045FA45205F
:100AA00000F042FA102000F03FFA002000F03CFA7B
:100AB000002000F039FA002000F036FA672000F03C
:100AC00035FA002000F030FA3C2000F02DFA00202A
:100AD00000F02AFA002000F027FA002000F024FAA3
:100AE000012000F021FA542000F01EFA102000F03E
:100AF0001BFA322000F018FA982000F015FA742042
:100B000000F014FA102000F00FFA852000F00CFA23
:100B1000802000F009FA002000F006FA002000F022
:100B200003FA4E2000F000FA002000F0FDF99820B2
:100B300000F0FCF93E2000F0F7F9072000F0F4F98E
:100B4000352000F0F3F9212000F0F0F9112000F039
:100B5000EDF97820FFF732FD292000F0E7F91420A5
:100B6000BDE81040FFF72ABD2DE9F04F87B0DDF852
:100B7000448081464FEA58074FEA18101C469246B7
:100B800001237A0718BF03EB181000FB08F609EBE6
:100B9000580001EB08020138531E82B29BB248464E
:100BA0000D460691FFF72EFD002E049600F0828080
:100BB000A8F10C01CAB2920842EA8111AAF1200000
:100BC000CBB242F26A01C2B2C0F6000101EB0211DF
:100BD000019143F62A01129DC0F600010020029205
:100BE00001EB82114E4600224FF0000A0091039360
:100BF000052B0CD95EE04FF0000A00BF059A04995E
:100C00000132039B90B2814254D9052B52D80592F0
:100C1000DFE803F0030E5010501A029941F6F63245
:100C200001EB4101C0F6000202EB81010DE000BFC3
:100C300001990AE0029942F25A6201EB4101C0F6C1
:100C4000000202EB011100E00099084490F800B0A6
:100C50004FF0000815E000BF0028109818BF20468C
:100C600000F058F90AF1010A5FFA8AF0B0FBF7F1D7
:100C700001FB17000028BED008F10108B8F1080FE9
:100C8000BCD0012000FA08F0002D00EA0B00E3D0F0
:100C900028B10699B0B289B22246FFF7D1FC0136DD
:100CA000B0B2A0EB0900B842E6D106984E4601303A
:100CB0000690A3E707B0BDE8F08F00002DE9F04FE4
:100CC00087B0002B069067D08846DDF848A0002149
:100CD000C4F2C82110461D464FEA5A0600F04AFEEB
:100CE00000F014FE4FF000090590CDF810802CE0C4
:100CF00000FB04B0CDE9007ADDF81080109F264695
:100D000080B2414693462E223B4600240294FFF7D0
:100D10002BFF5A4609F10109013506995FFA89F05E
:100D200000FB061042F03001119A80B2CDE9002A92
:100D3000CAB241463B460294FFF716FF09F101098A
:100D40005FFA89F0E9B2814226D96FEA09002844A6
:100D5000119FDDF818B0C1B20A2034465FFA85F859
:100D60005FFA89F600F08EFA0599B1FBF0F14CF6C6
:100D7000CD40CCF6CC40A1FB0002D00800EB8002B5
:100D8000A8F10200B042A1EB4202B1D0DDF8108020
:100D9000109F26460024C0E707B0BDE8F08F000092
:100DA0002DE9F04F87B0002BCDE9051255D007464D
:100DB00012981C464508581E4FF000094FF00008D5
:100DC0004FF0000A4FF0000B0026049018E000BF1F
:100DD0004FF0010B40F03002119809EB0701009031
:100DE0001298109B019088B20599D2B20296FFF733
:100DF000BBFE08F101080AF1010A4445A9442CD0C0
:100E00006FEA0A002044C1B20A2000F03BFA0699BA
:100E1000BBF1000FB1FBF0F04CF6CD41CCF6CC416C
:100E2000A0FB01124FEAD20101EB8101A0EB4100CE
:100E3000D0D104994145CDDD0104C9D1119909EB07
:100E40000700009112994FF0000B01910599109B3A
:100E500080B22022CDF808B0C9E707B0BDE8F08F16
:100E60002DE9F0479946904602440B44013A013B74
:100E700092B29BB2FFF7C6FBB8F1000F08BFBDE806
:100E8000F087089E00274FF0000AB9F1000F08D143
:100E90000AF1010A1FFA8AF0404514D2B9F1000F95
:100EA000F6D007EB090400BF16F8170006EB47055C
:100EB00000F03AF8687800F037F80137B8B2A1B21C
:100EC0008142F1D1E4E7BDE8F08700002DE9F04F61
:100ED00083B09B461378CBB1DDE90C9ADDF83880FE
:100EE0000D4606464FEA5A07541E00BFB0B2DAB2AA
:100EF00029465B46CDE9009ACDF80880FFF734FE1D
:100F0000A3783E44002B04F10104EFD103B0BDE807
:100F1000F08F000010B50446000A00F01BF8E0B2A4
:100F2000BDE8104000F016B800F014B8B0B540F6B7
:100F30000005C4F20405044628460821FFF7F2FA2A
:100F4000204600F007F828460821BDE8B040FFF72A
:100F500033BB000070B540F60004C4F2040405463B
:100F600020461021FFF7DEFA00260CE02046022181
:100F7000FFF7D8FA20460121FFF71EFB0136082EA5
:100F80004FEA45050CD220460121FFF7CBFA68B2A3
:100F9000B0F1FF3FEADC20460221FFF70DFBE9E755
:100FA00020461021BDE87040FFF706BB00F00700A7
:100FB00080F00701032928BF03214FF0FF320438D6
:100FC00002FA01F14FF00F0238BF002022EA0101BE
:100FD00001FA00F070470000002941F22801C4F234
:100FE00002010A680CBF22EA000010430860704743
:100FF00070B501380024B4EB106F02D001242046F4
:1010000070BD4EF21005CEF200056860072007267D
:1010100000F090F82046AC602E6070BD40F21000E9
:10102000C2F20000016801310160704780B541F2F1
:101030000400C4F20200416A41F40051416242F2EC
:101040000001C4F202010A6842F004020A60C16AA7
:1010500041F08051C16247F20001C4F200010A6808
:1010600022F400420A600A6842F400420A6050F822
:10107000041C4FF6FF72CFF6FE62114040F8041CCC
:1010800050F8041C41F4803140F8041C50F8041C52
:101090008903FBD5416C41F001014164416C21F0B1
:1010A00002014164416C21F4FE014164416C41F450
:1010B00098114164416C21F4E0614164416C41F458
:1010C0008071416450F8041C41F0807140F8041CA8
:1010D00050F8041C8901FBD501680160016841F4E6
:1010E00080610160016841F400510160016841F4D0
:1010F00000010160016841F0E0610160016841F0B8
:101100000201016001680907FCD500F021F900F037
:10111000C5F800F0E1F8BDE8804000F0FBB8000041
:10112000704700004EF60C50CEF200000068C0F38D
:10113000022070474EF623514001CEF200010870A4
:101140007047000084B04FF6FF74FFF76FFFFFF7A2
:10115000C7F9FFF7BDFA00200021F022F023009428
:10116000FFF77AFA0024002544F6EA7BC4F2202433
:10117000C4F2F025C0F6000B002600BF4FF6FF7743
:101180004FF010092020502135A24FF478434FF042
:1011900000080097CDF80490CDF80880FFF796FE80
:1011A0004FF4784A86205021F0220323CDE900A78E
:1011B000CDF80890FFF7F4FD202064212CA24FF415
:1011C0007843CDE90079CDF80880FFF77FFEA020B5
:1011D000642132460423CDE900A7CDF80890FFF73B
:1011E0006DFD304600F004FB45F6294242F6F5035A
:1011F000CCF28F22C3F6BC7300F014F906460F46FA
:101200004FF00008404600F09DFB214600F0B2FB85
:10121000294600F019FB00F079FB81464FF0000AE7
:10122000504600F08FFB214600F0A4FB00F06EFB5F
:10123000494628222823CDF800B0FFF711FE0AF115
:10124000010ABAF1060FEBD108F10108B8F1030F5A
:10125000D8D13046394600F0B3F806468EE700BFD5
:101260004C43445F4469616D657465723A000000E7
:10127000496E637265617365696E67204E756E3A7B
:1012800000000000002904BF012070470246012031
:1012900001390B0602FB00F0FAD1704741F204005D
:1012A000C4F202000068010605D440F20C00C2F24C
:1012B0000000006809E040F20C01C2F20001C0F336
:1012C00002100968013021FA00F040F20001C2F278
:1012D000000108607047000041F20400C4F20200FF
:1012E0000068410505D440F20000C2F20000006829
:1012F00009E040F20001C2F20001C0F301200968D8
:10130000013021FA00F040F20401C2F2000108604D
:101310007047000041F20400C4F20200006881043A
:1013200005D440F20000C2F20000006809E040F27B
:101330000001C2F20001C0F3C1200968013021FAA6
:1013400000F040F20801C2F200010860704700009E
:1013500041F24801C4F2020151F8442C41F200204C
:10136000C2F38102C0F27A00DFE802F02302072113
:1013700041F60030C0F2B7001BE00A68D2070AD07D
:101380000868800748F68050C0F25B005CBF41F6F9
:101390000030C0F2B7000A68C2F302220968C1F344
:1013A000064101314843511CB0FBF1F001E049F620
:1013B000404040F20C01C2F200010860704700009A
:1013C00021F0004201F00043A2F16052B2F5801F0B
:1013D00028BFD2F17F6C0BD95FEA001C43EAC2023E
:1013E00042EB507018BF704728BF20F001007047D3
:1013F000B2F5801FBCBF184670474FEA410C1CF580
:10140000001F02D2084600F07CBB70B500F0B2F8B5
:1014100000000089FFF7F6BF4FF00040A0F5800004
:101420007047000010B591EA030F48BF83F00043F6
:1014300000F1FC80841A71EB030C05D2121943EB06
:101440000C03001B61EB0C014FEA1154A4EB135C7D
:10145000DFF81CE11EEA430F18BF9EEA445F73D019
:1014600021EA045123EA0E0343F48013DCF1200E39
:1014700032D322FA0CFE10EB0E0023FA0CFE41EBE5
:101480000E01CCF1200E03FA0EFE10EB0E00CCF193
:10149000200E51F10001B1F5801F32D201EB045151
:1014A00012FA0EF2BDE8104058BF7047401C38BF1A
:1014B0005FEA420218BF7047002814BF20F0010005
:1014C00041F100014FEA410313F5001F38BF704797
:1014D000A1F1C04100F09CB8012A43EB0302ACF13A
:1014E000200CDCF11F0E32BF4FF0000E23FA0CF37C
:1014F00010EB030041EB0451B4EB115FD0D0A1EB32
:10150000045101F58011490801EB04515FEA3000F4
:101510000ED350F1000038BF12FA0EFE08D1BDE81C
:101520001040C9E7401C38BF5FEA4202CAD1C3E796
:10153000BDE810404FEA410313F5001F38BF704764
:10154000A1F1C04100F064B89EEA445F08D011EAFE
:101550005E0FBDE8104004BF01F00041002070475D
:10156000BDE8104070B500F005F800BF64FBBE3E5A
:101570000000E0FF0EF1020E2EF0030E5EF8046B89
:10158000364205D4012A43EB030515F5001F12D896
:10159000012841EB010C1CF5001F0CD80ED14FEABD
:1015A000D17C0CEB4C0C0CF1020C15F5001F08BFA4
:1015B0004CEBD37C04E04FF0080C01E04FEAD37C05
:1015C0000CEB4C0526FA05F606F00706B6F1040CFE
:1015D00006D20EEB860CBDE870404CF0010C604763
:1015E000DFE80CF0090B02024FF00041A1F50021E9
:1015F0004FF0000070BD19461046012851EB010460
:1016000018BFD4F5001484BF002001F0004170BD64
:101610000808A0F500114FEA3101704710B591EAB2
:10162000030F48BF83F000433FF504AF841A71EB0A
:10163000030C07D28CF0004C121943EB0C03001B77
:1016400061EB0C014FEA1154A4EB135CDFF89CE151
:101650001EEA430F18BF9EEA445F00F0B08021EA03
:10166000045123EA6E035242C3EB6E0338BF5B1E84
:10167000DCF1200E25D322FA0CFE10EB0E0043FA0B
:101680000CFE41EB0E01CCF1200E03FA0EFE10EB26
:101690000E00CCF1200E51F1000129D401EB0451D0
:1016A00012FA0EF2BDE8104058BF7047401C1CBF34
:1016B000B2F1004F704700280CBF491C20F0010018
:1016C000704712EB020E43EB030218BF4FF0010EFE
:1016D0004EEA4202ACF1200CDCF11E0E54D943FA62
:1016E0000CFE10EB0E00CCF11E0E51F1FF31D5D5E2
:1016F0000EF1010E12FA0EFE404141EB010101EB29
:10170000445C5FEA5C5C10D901EB045110EBDE70C5
:1017100038BFBEF1004FBDE8104018BF7047002829
:101720000CBF491C20F00100704730D24FEAD42C86
:1017300024F4006411F500111BD0B1FA81F20B3AC8
:10174000A41AA41ED2F12003914030FA03F31943E6
:10175000904001EBCC7101EB0451002CBDE810402E
:10176000A8BF704701F1C04101F000414FF00000F7
:101770007047B0FA80F310FA03F100D110BDE41AFB
:10178000173C4805C90AE4E701EB045110BD4910B4
:101790004FEA300001EB0451BDE8104002E04FF089
:1017A000000170474A0008BF0042F8D0B2F5001FA0
:1017B00028BF704701F000414FF0000070479EEADB
:1017C000445F07D011EA5E0FBDE8104004BF00215E
:1017D00000207047BDE8104070B5FFF7CBFE00BF9A
:1017E00040DFF63E104683F0004170470000E0FF06
:1017F00043004FEAD30C4FEA3C0C43401FBF400765
:101800000CF1605113F0FE4F70471CF0006F03D1D4
:101810000CF00041002070470CF0004343EA507088
:1018200040EACC0010B500F026F900BF000000929D
:101830004FEA0001FFF7ECBE4FF00041A1F5002197
:101840004FF000007047000090EA010F48BF81F0A0
:10185000004100F16281421A3CBF801A89184FEAA8
:10186000D052A2EBD1534FF07F4C1CEA410F18BF6E
:101870009CEA026F00F03B804FF0004C4CEA0020E5
:101880004CEA012121FA03FC10EB0C0C1ED202F1F0
:10189000FF325FEA1C2040EBC25038BF70471CF09B
:1018A0007F0F4FEA400C18BFBCF17F4F38BF704725
:1018B000C3F12003994008BF20F00100BCF17F4F25
:1018C00038BF7047A0F1C04000F01BB94FEA3C00A0
:1018D000000A40EBC25028BF1CF0FF0F4FEA400C3B
:1018E000E6D018BFBCF17F4F38BF7047EAE79CEAEB
:1018F000026F05D010EA5C0F08BF00F0004070478F
:1019000010B500F0B8F800BF64FBBE3E41000B0EFE
:10191000D3F19E0208D950F400034FEA032323FABF
:1019200002F048BF4042704710B500F0A4F800BF75
:1019300049922480002070476FF0004282EA200024
:101940007047000010F0004148BF4042B0FA80F3F9
:1019500010FA03F2C3F19D030BD051EAC35101EB1E
:101960001220530638BF704700F1010008BF20F075
:10197000010070474FF47F0C1CEAD0121EBF1CEA16
:10198000D11392EA0C0F93EA0C0F00F0478090EA13
:10199000010F48BF42F480724FF0004C4CEA002027
:1019A0004CEA012102EB0302A0FB0113A2F50002A5
:1019B000002918BF43F001035B0028BF4FEA33033F
:1019C00042EB22425FEA132C4CEBC2502EBFBCEB21
:1019D000436FB2F57C0F70474FEA036CBCF1004FC8
:1019E00008BF20F00100B2F57C0F38BF70470BD55F
:1019F00082F0FF0212F5803FC8BF704700F1C0407F
:101A0000D8BF00F00040704700F5000C5FEA4C0CB6
:101A100048BF7047B0F1C04000F073B80CEAD11372
:101A200090EA010F48BF42F48072624538BF6345B7
:101A300004D280EA010000F00040704710B500F0C9
:101A40001AF800BF8900013E00F007B800F009B89D
:101A50005FEA410C5FEA1C6C08D080EA010000F0EC
:101A600050B85FEA400C5FEA1C6CF6D14FF00040C2
:101A7000A0F5800070470EF1020E2EF0030E5EF806
:101A8000044B244204D44FEA4102B2F17F4F11D8F3
:101A90004FEA4003B3F17F4F0CD80ED14FEAD07C10
:101AA0000CEB4C0C0CF1020CB2F17F4F08BF4CEB6D
:101AB000D17C04E04FF0080C01E04FEAD17C0CEB44
:101AC0004C0324FA03F404F00704B4F1040C06D226
:101AD0000EEB840CBDE810404CF0010C6047DFE8D1
:101AE0000CF0070802024FF00040A0F5800010BD86
:101AF0000846420018BFD2F1807288BF00F0004053
:101B000010BDFF2141EAD050C005704790EA010F97
:101B100048BF81F000413FF59EAE421A04D882F0E2
:101B20000042A0EB020011444FEAD052A2EBD15385
:101B30004FF07F4C1CEA410F18BF9CEA026F4AD05D
:101B40004FF0004C4CEA00204CEA012121FA03FC42
:101B5000B0EB0C0C0FD412F0FE0F36D05FEA4C0045
:101B60001DD5001240EBC25038BF70471CF03F0F2C
:101B700018BF70470BE05FEA1C20A2F1010240EBA6
:101B8000C25038BF70471CF07F0F18BF7047C3F1B9
:101B90002003994014BF401E20F0010070474FEA17
:101BA0001223800808BF7047B0FA80FCA2EB0C0239
:101BB000CCF1280C60FA0CF093EA122F04BF00EB72
:101BC000C25070474FEAC3707047130A5FEADC10D7
:101BD00008BF7047F6E79CEA026F04D010EA5C0F7A
:101BE00008BF0020704710B5FFF745FF40DFF63E05
:101BF00081F000407047000000000000000000007D
:101C00000000000004040404040000040000141494
:101C10000A00000000000000000000000A0A1F0A7D
:101C20000A1F0A0A000000040E1505060C14150E02
:101C30000400000012150D152E2C2A1200000000C1
:101C4000040A0A36151529160000020201000000D8
:101C50000000000000001008080404040404080840
:101C60001000020404080808080804040200000028
:101C70000004150E0E150400000000000008083EC8
:101C80000808000000000000000000000000020240
:101C9000010000000000003F000000000000000004
:101CA00000000000000000020000002010100808E2
:101CB00004040202010000000E1111111111110E95
:101CC00000000000040604040404040E00000000E8
:101CD0000E1111080402011F000000000E11100C6B
:101CE0001010110E00000000080C0C0A091F081C3F
:101CF000000000001F01010F1110110E0000000074
:101D00000C12010D1311110E000000001E10080826
:101D100004040404000000000E11110E1111110E34
:101D2000000000000E111119161009060000000035
:101D30000000040000000004000000000000000497
:101D4000000000040400000010080402020408104F
:101D50000000000000003F003F0000000000000005
:101D60000204081010080402000000000E111108FF
:101D700004040004000000001C22292D2D1D221C3B
:101D80000000000004040C0A0A1E123300000000C8
:101D90000F12120E1212120F000000001E1101018C
:101DA0000101110E000000000F1212121212120F88
:101DB000000000001F120A0E0A02121F000000009D
:101DC0001F120A0E0A020207000000001C12010185
:101DD0003911120C000000003312121E12121233BD
:101DE000000000001F0404040404041F000000009D
:101DF0003E080808080808080907000037120A0604
:101E00000A12123700000000070202020202223FFB
:101E1000000000003B1B1B1B1515153500000000C2
:101E20003B1216161A1A1217000000000E1111119B
:101E30001111110E000000000F12120E0202020713
:101E4000000000000E1111111117190E18000000EA
:101E50000F12120E0A121237000000001E110106A6
:101E60000810110F000000001F1504040404040EE4
:101E700000000000331212121212120C00000000B7
:101E80003312120A0A0C040400000000151515157F
:101E90000E0A0A0A000000001B0A0A04040A0A1BB0
:101EA000000000001B0A0A0A0404040E00000000DF
:101EB0001F0908040402121F00001C040404040487
:101EC000040404041C0000020204040408080810AE
:101ED00010000E0808080808080808080E00040A80
:101EE00000000000000000000000000000000000F2
:101EF00000000000003F020400000000000000009D
:101F0000000000000000000C121C123C0000000346
:101F10000202020E1212120E000000000000001C4D
:101F20001202120C000000181010101C1212123CA9
:101F3000000000000000000C121E021C000000182F
:101F40002404041E0404041E000000000000003CE1
:101F5000120C021C221C00030202020E1212123783
:101F600000000004040000060404040E0000000841
:101F70000800000C08080808080700030202021AFB
:101F80000A060A1300000007040404040404041FE2
:101F9000000000000000000F1515151500000000DE
:101FA0000000000F12121237000000000000000CA9
:101FB0001212120C000000000000000F1212120E8C
:101FC000020700000000001C1212121C1038000052
:101FD0000000001B06020207000000000000001EB7
:101FE000020C101E000000000004041E0404041C67
:101FF000000000000000001B1212123C0000000054
:102000000000001B0A0A0404000000000000001584
:10201000150E0A0A000000000000001B0A040A1B3B
:10202000000000000000003312120C08040300003E
:102030000000001E0804041E000018080808080C10
:102040000808080818000808080808080808080808
:10205000080806040404040804040404060016091D
:102060000000000000000000000000000000000070
:102070000000000000000000000000000008080848
:102080000808080800001818000000486C24120016
:1020900000000000000000000000000000242424D4
:1020A0007F1212127F12121200000000081C2A2A4E
:1020B0000A0C1828282A2A1C0808000000222515C6
:1020C00015152A585454542200000000000C121216
:1020D000120A76252911916E0000000606040300FD
:1020E0000000000000000000000000402010100868
:1020F0000808080808101020400000020408081012
:102100001010101010080804020000000000080859
:102110006B1C1C6B08080000000000000000080891
:1021200008087F0808080800000000000000000000
:10213000000000000000060604030000000000008C
:102140000000FE0000000000000000000000000091
:102150000000000000000606000000008040402053
:102160002010100808040402020000000018244295
:1021700042424242424224180000000000080E0879
:10218000080808080808083E00000000003C424219
:10219000422020100804427E00000000003C424221
:1021A000201820404042221C00000000002030285F
:1021B000242422227E20207800000000007E0202DB
:1021C000021A26404042221C00000000003824026F
:1021D000021A26424242241800000000007E2222F9
:1021E000101008080808080800000000003C4242DF
:1021F000422418244242423C0000000000182442BD
:10220000424264584040241C0000000000000000CE
:10221000181800000000181800000000000000005E
:102220000008000000000008080400000040201022
:102230000804020408102040000000000000000014
:102240007F0000007F000000000000000002040882
:10225000102040201008040200000000003C424210
:10226000464020101000181800000000001C225AE0
:10227000555555552D42221C000000000008081835
:102280001414243C224242E700000000001F2222D6
:10229000221E22424242221F00000000007C4242D5
:1022A000010101010142221C00000000001F224226
:1022B000424242424242221F00000000003F4212BE
:1022C000121E12120242423F00000000003F421262
:1022D000121E12120202020700000000003C22221D
:1022E000010101712122221C0000000000E742428E
:1022F00042427E42424242E700000000003E08089F
:10230000080808080808083E00000000007C1010BB
:102310001010101010101010110F00000077221272
:102320000A0E0A12122222770000000000070202A1
:10233000020202020202427F0000000000773636ED
:1023400036362A2A2A2A2A6B0000000000E3464675
:102350004A4A52525262624700000000001C224169
:10236000414141414141221C00000000003F4242E6
:1023700042423E020202020700000000001C22410D
:10238000414141414D53321C60000000003F424238
:10239000423E1212222242C700000000007C42424C
:1023A000020418204042423E00000000007F49081D
:1023B000080808080808081C0000000000E742425E
:1023C000424242424242423C0000000000E7424298
:1023D000222424141418080800000000006B494946
:1023E00049495555362222220000000000E74224C8
:1023F00024181818242442E7000000000077222245
:10240000141408080808081C00000000007E2120A1
:10241000101008040442423F000000780808080831
:1024200008080808080808087800000002020404E8
:1024300008080810102020204040001E1010101026
:1024400010101010101010101E0000384400000072
:10245000000000000000000000000000000000007C
:10246000000000000000000000FF0006080000005F
:10247000000000000000000000000000000000005C
:10248000003C4278444242FC00000000000302028B
:10249000021A26424242261A0000000000000000F4
:1024A000003844020202443800000000006040404E
:1024B00040784442424264D800000000000000001E
:1024C000003C427E0202423C0000000000F088080E
:1024D000087E08080808083E000000000000000010
:1024E000007C22221C023C42423C0000000302020B
:1024F000023A4642424242E700000000000C0C0053
:10250000000E08080808083E0000000000303000F7
:102510000038202020202020221E0000000302027C
:102520000272120A1612227700000000000E08083C
:10253000080808080808083E000000000000000025
:10254000007F9292929292B700000000000000007B
:10255000003B4642424242E700000000000000000B
:10256000003C42424242423C0000000000000000A9
:10257000001B26424242221E02070000000000000B
:10258000007844424242447840E0000000000000ED
:1025900000774C040404041F000000000000000049
:1025A000007C42023C40423E000000000000000867
:1025B000083E08080808083000000000000000007D
:1025C00000634242424262DC000000000000000062
:1025D00000E7422424140808000000000000000066
:1025E00000EB494955552222000000000000000080
:1025F000007624181818246E000000000000000067
:1026000000E7422424141808080700000000000016
:10261000007E22100808447E000000C020202020F8
:102620002010202020202020C0001010101010109A
:1026300010101010101010101010000608080808D4
:10264000081008080808080806000C32C20000003C
:10265000000000000000000000000000000000007A
:10266000000000000000000000000000000000006A
:10267000000000000000000000000000000000005A
:10268000000000000000000000000000000000004A
:10269000000060006000600060006000600060009A
:1026A000400020002000200000000000000060002A
:1026B00060006000000000000000000000006006F4
:1026C000600630039801880044000000000000000C
:1026D00000000000000000000000000000000000FA
:1026E00000000000000000000000000000000000EA
:1026F00000001002100210021002FE07FE0708027E
:102700000801080108010801FE07FE070401040191
:1027100004010401000000000000000000000000AF
:1027200040004000F00158034C03CC034C0058001B
:102730007000E000C001C00140034C035C034C0387
:102740004801F000400040000000000000000000D0
:1027500000000E010A01910091009100510051000A
:102760003A00AE03A0025004500448044804480450
:10277000840284030000000000000000000000004C
:10278000000038006C006C006C006C006C002C00C9
:1027900098071C011A01330133016301E300C308E8
:1027A000C6093C07000000000000000000000C000B
:1027B0001C001000100008000400000000000000D1
:1027C0000000000000000000000000000000000009
:1027D00000000000000000000000000000000004F5
:1027E0000002000180008000400040002000200026
:1027F0002000200020002000200040004000800039
:10280000800000010002000400000000000002003F
:1028100004000800100010002000200040004000CC
:102820004000400040004000400020002000100018
:10283000100008000400020000000000000000007A
:102840000000000000004000C0004000460C4E0F99
:10285000D001F0015E0F460C400040004000000037
:102860000000000000000000000000000000000068
:102870000000000000000000400040004000400058
:102880004000FE0F400040004000400040000000BB
:102890000000000000000000000000000000000038
:1028A0000000000000000000000000000000000028
:1028B00000000000000000000000000000000C000C
:1028C0001C001000100008000400000000000000C0
:1028D00000000000000000000000000000000000F8
:1028E0000000FE07000000000000000000000000E3
:1028F00000000000000000000000000000000000D8
:1029000000000000000000000000000000000000C7
:1029100000000000000000000000000000001C009B
:102920001C001C000000000000000000000000046B
:10293000000600020003000100018000800040004A
:102940004000600020002000100010000800080077
:102950000C0004000600020000000000000000005F
:1029600000000000F00098010C030C0306060606A8
:102970000606060606060606060606060C030C03F1
:102980009801F000000000000000000000000000BE
:102990000000000040007C006000600060006000FB
:1029A0006000600060006000600060006000600027
:1029B0006000FC03000000000000000000000000B8
:1029C00000000000F8008401020306030603000370
:1029D00000018001C0006000200010000802040215
:1029E0000602FE03000000000000000000000000DE
:1029F000000000007800C600860186018001800189
:102A0000C0007000800100010003000306030603FC
:102A10008601F80000000000000000000000000037
:102A20000000000080018001C001A001A001900110
:102A30008801880184018201FE0F800180018001EC
:102A40008001E0070000000000000000000000001E
:102A500000000000FC030400040004000400040063
:102A6000F4008C0104030003000306030603820143
:102A70008401F800000000000000000000000000D9
:102A800000000000E00118030C030C000400060025
:102A9000E60116030E0606060606060604060C02E6
:102AA0001803F0000000000000000000000000001B
:102AB00000000000F8070C060402040100010001F8
:102AC0008000800040004000400060006000600026
:102AD0006000600000000000000000000000000036
:102AE00000000000F8010C030606060606060C02AC
:102AF0001C03F000C8010C030606060606060606BF
:102B00000C03F001000000000000000000000000C5
:102B100000000000F0000C010C0306020606060689
:102B2000060606078C0678060006000300030C0163
:102B30008C01780000000000000000000000000090
:102B40000000000000000000000000000000E000A5
:102B5000E000E00000000000000000000000E000D5
:102B6000E000E000000000000000000000000000A5
:102B700000000000000000000000000000006000F5
:102B800060000000000000000000000000000000E5
:102B900060006000400020002000000000000000F5
:102BA000000000040002000180004000200010002E
:102BB0000800040008001000200040008000000110
:102BC00000020004000000000000000000000000FF
:102BD0000000000000000000000000000000FE07F0
:102BE000000000000000FE070000000000000000E0
:102BF00000000000000000000000000000000000D5
:102C000000000400080010002000400080000001C7
:102C100000020004000200018000400020001000BB
:102C20000800040000000000000000000000000098
:102C300000000000E0031806040C040C0C0C0C0C43
:102C40000007800140004000400000000000E0005C
:102C5000E000E000000000000000000000000000B4
:102C60000000E00018030C02CC0564056605A6050B
:102C7000B604B604B604B604B602E4010C040C02B1
:102C80001803F00000000000000000000000000039
:102C900000000000600060005000D0009000900034
:102CA000880088010801F8010403040304020202F9
:102CB00002060F0F000000000000000000000000EE
:102CC00000000000FE008C030C030C030C030C033B
:102CD0008C01FC000C030C020C060C060C060C0606
:102CE0000C03FE01000000000000000000000000D6
:102CF00000000000E00318030C060C0404040600A6
:102D00000600060006000600060006040C040C027D
:102D10001803F000000000000000000000000000A8
:102D2000000000007F008C010C030C030C060C0655
:102D30000C060C060C060C060C060C060C030C0309
:102D40008C017F0000000000000000000000000077
:102D500000000000FF0306030604060406008600C8
:102D60008600FE0086008600860006000604060433
:102D70000602FF0300000000000000000000000049
:102D800000000000FF030603060406040600860098
:102D90008600FE008600860086000600060006000B
:102DA00006001F00000000000000000000000000FE
:102DB00000000000F00018010C020C0204020600E2
:102DC000060006000600C60F060306030C030C03EC
:102DD0001803F000000000000000000000000000E8
:102DE000000000000F0F0606060606060606060689
:102DF0000606FE070606060606060606060606067A
:102E000006060F0F00000000000000000000000098
:102E100000000000FC0360006000600060006000D3
:102E200060006000600060006000600060006000A2
:102E30006000FC0300000000000000000000000033
:102E400000000000F807C000C000C000C000C000C3
:102E5000C000C000C000C000C000C000C000C00072
:102E6000C000C000C60066003C000000000000007A
:102E700000000000CF038601C600460026001600B1
:102E800036002E006E004600C60086008601060150
:102E900006038F0700000000000000000000000093
:102EA000000000001F0006000600060006000600E5
:102EB00006000600060006000600060006040604DA
:102EC0000602FF03000000000000000000000000F8
:102ED000000000000707860386038E038E034E035F
:102EE0004E034A035A035A033A03320332033203AE
:102EF000120387070000000000000000000000002F
:102F0000000000008E0F0C021C021C02340234026E
:102F1000640264024402C40284028403840304033E
:102F200004031F0200000000000000000000000079
:102F300000000000F00098010C030C0206060606D3
:102F40000606060606060606060606060C020C031C
:102F50009801F000000000000000000000000000E8
:102F600000000000FF000603060606060606060629
:102F700006068603FE0006000600060006000600A0
:102F800006001F000000000000000000000000001C
:102F900000000000F00098010C030C020606060673
:102FA0000606060606060606060676064C02CC034C
:102FB0009801F000800700030000000000000000FE
:102FC00000000000FF0106030606060606060606C8
:102FD0000603FE004600C6008600860106030603BF
:102FE00006060F0E000000000000000000000000B8
:102FF00000000000F8020C030602060206000E00A4
:103000003C00F800E0038003000702060206060603
:103010000C03F001000000000000000000000000B0
:1030200000000000FE0762046108610860006000A3
:103030006000600060006000600060006000600090
:103040006000F80100000000000000000000000027
:10305000000000001E070C020C020C020C020C0205
:103060000C020C020C020C020C020C020C020C02F0
:103070001801F00000000000000000000000000047
:10308000000000000F070602040104010C010C01FE
:1030900088008800980098005000500070003000B0
:1030A00020002000000000000000000000000000E0
:1030B00000000000F70E6204420446044604640265
:1030C0006402E402E4029C029C01980198018801D8
:1030D00088008800000000000000000000000000E0
:1030E000000000009E070C01080118019000B000CC
:1030F0006000200060006000D0009000880108019E
:1031000004038E0700000000000000000000000023
:10311000000000000F0F060404020C020801180151
:10312000B800B000700060006000600060006000E7
:103130006000F80100000000000000000000000036
:1031400000000000FC070C02060302018001800061
:1031500040004000200020001000180008040C046B
:103160000402FE0300000000000000000000E00375
:10317000200020002000200020002000200020004F
:10318000200020002000200020002000200020003F
:10319000200020002000E0030000000000000000EC
:1031A00000000400040008000800100010001000D7
:1031B0002000200040004000C0008000800000018E
:1031C00000010002000200020004000000007C0078
:1031D00040004000400040004000400040004000EF
:1031E00040004000400040004000400040004000DF
:1031F0004000400040007C000000000060009000A3
:1032000008010000000000000000000000000000B5
:1032100000000000000000000000000000000000AE
:10322000000000000000000000000000000000009E
:10323000000000000000000000000000000000008E
:10324000000000000000000000000000000000007E
:103250000000000000000000FF0F00000000180048
:1032600060000000000000000000000000000000FE
:10327000000000000000000000000000000000004E
:10328000000000000000000000000000000000003E
:103290000000000000000000000000000000F0013D
:1032A0000C030C030003E0031C030E0306030603D8
:1032B0008E0B7C0E000000000000000000000000EB
:1032C000000008000E000C000C000C000C00CC01EB
:1032D0003C031C060C060C060C060C060C060C0225
:1032E0001C03E401000000000000000000000000DA
:1032F0000000000000000000000000000000F000DE
:103300008C018C01860106000600060006020C02F4
:103310000C01F000000000000000000000000000B0
:1033200000000002C0030003000300030003780351
:103330008C030C03060306030603060306030403BB
:103340008C07780100000000000000000000000071
:103350000000000000000000000000000000E0018C
:10336000180308020C060C06FC070C000C001804DD
:103370001802E00100000000000000000000000052
:1033800000000000C0036006300630003000FE017F
:1033900030003000300030003000300030003000AD
:1033A0003000FC01000000000000000000000000F0
:1033B0000000000000000000000000000000F00716
:1033C000D8068C018C018C019801F8000C00FC00DF
:1033D000CC03060306038E03F80000000000000083
:1033E000000008000E000C000C000C000C00EC01AA
:1033F0001C030C030C030C030C030C030C030C0345
:103400000C039E0700000000000000000000000008
:1034100000000000600060000000000040007C0030
:10342000600060006000600060006000600060009C
:103430006000FC030000000000000000000000002D
:1034400000000000C001C001000000000001F00108
:103450008001800180018001800180018001800164
:10346000800180018001CC007C0000000000000091
:10347000000008000E000C000C000C000C008C0377
:103480008C008C004C006C005C008C008C010C01EA
:103490000C039E0700000000000000000000000078
:1034A000000040007C006000600060006000600080
:1034B000600060006000600060006000600060000C
:1034C0006000FC030000000000000000000000009D
:1034D00000000000000000000000000000003707AE
:1034E000EE066606660666066606660666066606F4
:1034F0006606FF0F00000000000000000000000052
:103500000000000000000000000000000000EE01CC
:103510001C030C030C030C030C030C030C030C0323
:103520000C039E07000000000000000000000000E7
:103530000000000000000000000000000000F0009B
:1035400098010C03060606060606060606060C0388
:103550000C03F0000000000000000000000000006C
:103560000000000000000000000000000000EE016C
:103570001C030C060C060C060C060C060C060C03B1
:103580001C03EC010C000C003E00000000000000D9
:1035900000000000000000000000000000007802B1
:1035A0008C030C0306030603060306030603040349
:1035B0008C03780300030003C00700000000000034
:1035C00000000000000000000000000000009F0359
:1035D00058063806180018001800180018001800BF
:1035E0001800FF00000000000000000000000000C4
:1035F0000000000000000000000000000000F003D8
:103600001C030C020C023800F000C0030403040386
:103610008C03FC010000000000000000000000001E
:103620000000000000002000200030003000FE01FB
:103630003000300030003000300030003000300208
:103640003002E00100000000000000000000000067
:1036500000000000000000000000000008028E03CF
:103660000C030C030C030C030C030C030C030C03E2
:103670009C0778010000000000000000000000002E
:1036800000000000000000000000000000001E0715
:103690000C020801080118019000B000B0006000A1
:1036A000600020000000000000000000000000009A
:1036B0000000000000000000000000000000F70E05
:1036C0006204460464026402EC029C0198019801C1
:1036D0009801080000000000000000000000000049
:1036E0000000000000000000000000000000BC0717
:1036F00018011001B00060006000E00090000801B7
:1037000008039E0700000000000000000000000009
:1037100000000000000000000000000000009E0704
:1037200008010801080190009000B00060006000EE
:1037300060002000200024001C00000000000000A9
:103740000000000000000000000000000000FC017C
:103750008401C40044006000200030001802080208
:103760000C03FC010000000000000000000000034A
:103770008000800080008000800080008000800049
:103780004000200040008000800080008000800019
:1037900080008000800000030000400040004000E6
:1037A0004000400040004000400040004000400019
:1037B0004000400040004000400040004000400009
:1037C00040004000400040004000000000000C00AD
:1037D0001000100010001000100010001000100069
:1037E0002000400020001000100010001000100009
:1037F0001000100010000C00000000001C0022044B
:10380000C20480030000000000000000000000006F
:1038100000000000000000000000000000000000A8
:103820000000000000000000000000000000000098
:103830000000000000000000000000000000000088
:103840000000000000000000000000000000000078
:103850000000000000000000000000000000000068
:103860000000000000000000000000000000000058
:1038700000000000C001C001C001C001C001C001C2
:10388000C0018000800080008000800080008000F7
:1038900000000000000000008001C003C0038001A0
:1038A0000000000000000000000000000000000018
:1038B000E01CE01CF01E700E38071803080184009D
:1038C00000000000000000000000000000000000F8
:1038D00000000000000000000000000000000000E8
:1038E00000000000000000000000000000000000D8
:1038F00000000000000020102010201020102010D8
:10390000FE7FFE7F1008100810081008100810082D
:103910001008FE7FFE7F0804080408040804080459
:103920000000000000000000000000000000000097
:10393000000000010001C00760191031183118396A
:10394000183938017001E001C0038007000F001D25
:10395000003900311C311C310C310C11180DE007FD
:103960000001000100010000000000000000000054
:103970000000000000001C1036186308630C63048C
:103980006304630263026301361D9C3780228063F7
:103990004063406320632063306310221836081CA4
:1039A0000000000000000000000000000000000017
:1039B000000000000000F00098018C018C018C01D7
:1039C0008C018C00CC007800183E1C0836083208A8
:1039D00063046304C304C303834306438E26781C35
:1039E00000000000000000000000000000000000D7
:1039F0001C003C003C003000300010000C000600B1
:103A000000000000000000000000000000000000B6
:103A100000000000000000000000000000000000A6
:103A20000000000000000000000000000000000096
:103A30000040002000100008000C000400060003F5
:103A4000000300038001800180018001800180016A
:103A50008001800100030003000300060006000C43
:103A600000080010002000400000000000000000DE
:103A70000200040008001000300020006000C000B8
:103A8000C000C000800180018001800180018001B0
:103A900080018001C000C000C000600060003000F4
:103AA00010000800040002000000000000000000F8
:103AB00000000000000000000000000180038003FF
:103AC00000011C713C79783DC0070001C007783DBA
:103AD0003C791C710001800380038001000000001C
:103AE00000000000000000000000000000000000D6
:103AF00000000000000000000000000000010001C4
:103B000000010001000100010001FC7F0001000133
:103B100000010001000100010001000000000000A0
:103B20000000000000000000000000000000000095
:103B30000000000000000000000000000000000085
:103B40000000000000000000000000000000000075
:103B5000000000000000000000001C003C003C00D1
:103B60003000300010000C000600000000000000D3
:103B70000000000000000000000000000000000045
:103B800000000000000000000000FE7F00000000B8
:103B90000000000000000000000000000000000025
:103BA0000000000000000000000000000000000015
:103BB0000000000000000000000000000000000005
:103BC00000000000000000000000000000000000F5
:103BD000000000000000000018003C003C0018003D
:103BE00000000000000000000000000000000000D5
:103BF0000040006000200030001000180008000C99
:103C00000004000600020003000180018000C000E3
:103C100040006000200030001000180008000C0078
:103C20000400060002000000000000000000000088
:103C3000000000000000C007600C30181830183079
:103C400018200C600C600C600C600C600C600C6048
:103C50000C600C601820183018303018600CC00749
:103C60000000000000000000000000000000000054
:103C700000000000000000018001F80180018001C7
:103C8000800180018001800180018001800180012C
:103C9000800180018001800180018001C003F81F44
:103CA0000000000000000000000000000000000014
:103CB000000000000000E007101C08180430043069
:103CC0000C300C3000300018000800040002000125
:103CD000800040002020102008200430FC1FFC1F22
:103CE00000000000000000000000000000000000D4
:103CF000000000000000E003180E0C0C0C180C185B
:103D00000C180018000C0006C003000E001800106C
:103D1000003000300C300C300C100C18180CE00384
:103D20000000000000000000000000000000000093
:103D3000000000000000000C000E000E000F800EBE
:103D4000800E400E600E200E100E100E080E040E97
:103D5000040EFE7F000E000E000E000E000E000E80
:103D6000C07F000000000000000000000000000014
:103D7000000000000000F03FF03F100010001000B5
:103D800008000800C807280C181808100030003078
:103D9000003000300C300C3004180418080CF0030C
:103DA0000000000000000000000000000000000013
:103DB000000000000000800FC010203010301800FC
:103DC000180008000C008C0F6C183C301C600C6054
:103DD0000C600C600C601860182030306018C00750
:103DE00000000000000000000000000000000000D3
:103DF000000000000000F83FF83F1C100C08040809
:103E0000040400040002000200010001000180001F
:103E100080008000C000C000C000C000C000C00022
:103E20000000000000000000000000000000000092
:103E3000000000000000E007300C18180C300C30B7
:103E40000C301C3038187008E007B007180E0C1C36
:103E5000063806300630063006300C18180CE00321
:103E60000000000000000000000000000000000052
:103E7000000000000000E00318040C080C180610F5
:103E8000063006300630063006380C3C1836F03165
:103E900000300018001800180C0C0C060C03F00180
:103EA0000000000000000000000000000000000012
:103EB0000000000000000000000000000000000002
:103EC000000000008001C003C0038001000000006A
:103ED00000000000000000008001C003C00380015A
:103EE00000000000000000000000000000000000D2
:103EF00000000000000000000000000000000000C2
:103F000000000000C000C000000000000000000031
:103F1000000000000000000000000000C000C00021
:103F20008000800040004000000000000000000011
:103F3000000000000020001000080004000600033C
:103F40008001C0006000300018000C001800300034
:103F50006000C0008001000300060004000800109B
:103F60000020000000000000000000000000000031
:103F70000000000000000000000000000000000041
:103F800000000000FE7F00000000000000000000B4
:103F9000FE7F0000000000000000000000000000A4
:103FA0000000000000000000000000000000000011
:103FB0000000000004000800100020006000C000A5
:103FC000800100030006000C001800300018000CEF
:103FD000000600038001C0006000200010000800FF
:103FE00004000000000000000000000000000000CD
:103FF00000000000C0073018083008600C601C602A
:104000001C601C600030001C000600018000800065
:1040100080008000000000008001C003C003800118
:104020000000000000000000000000000000000090
:10403000000000000000C0076018103018200C2F8E
:104040008C4D864CC64CC64C664C6644664466260F
:1040500066266615CC1C0C40082018303018C007A6
:104060000000000000000000000000000000000050
:10407000000000000001C001C001C0014001600358
:104080002003200320033006100610061006F80F48
:10409000080C080C080C0C0C0418041806181F7CDB
:1040A0000000000000000000000000000000000010
:1040B000000000000000FE07181C183818301830E7
:1040C000183018301818180CF8071818183018205D
:1040D0001860186018601860186018301818FE0F03
:1040E00000000000000000000000000000000000D0
:1040F000000000000000C0276038103018200C407D
:104100000C4004000600060006000600060006003B
:10411000060006000C400C400C2018303018C00778
:10412000000000000000000000000000000000008F
:10413000000000000000FE03180E18181830183098
:1041400018301860186018601860186018601860DF
:10415000186018601830183018101818180EFE0360
:10416000000000000000000000000000000000004F
:10417000000000000000FE3F1830182018601840B2
:10418000180018081808180CF80F180C1808180848
:104190001800180018001840184018201830FE3F6A
:1041A000000000000000000000000000000000000F
:1041B000000000000000FE7F1870184018C0188032
:1041C0001800181018101818F81F181818101810C0
:1041D00018001800180018001800180018007E00B9
:1041E00000000000000000000000000000000000CF
:1041F000000000000000C013701C101018100C20EC
:104200000C2004000600060006000600060006FC5E
:10421000063006300C300C30183018303008C0072B
:10422000000000000000000000000000000000008E
:104230000000000000003F7E0C180C180C180C1831
:104240000C180C180C180C180C18FC1F0C180C1857
:104250000C180C180C180C180C180C180C183F7EA5
:10426000000000000000000000000000000000004E
:10427000000000000000F81F800180018001800123
:104280008001800180018001800180018001800126
:104290008001800180018001800180018001F81F80
:1042A000000000000000000000000000000000000E
:1042B000000000000000E07F000600060006000687
:1042C00000060006000600060006000600060006BE
:1042D00000060006000600060006000600060006AE
:1042E00000060E060E038E01FC0000000000000018
:1042F0000000000000007E7C18181808180418063A
:104300001802180198019801D801B803380318075A
:104310001806180E180C181C1818183018307EFCC7
:10432000000000000000000000000000000000008D
:104330000000000000007E0018001800180018009F
:1043400018001800180018001800180018001800AD
:104350001800180018001840184018201830FE3FA8
:10436000000000000000000000000000000000004D
:104370000000000000001FF81C381C381C381C3CD2
:104380003434343434343436743264326432643223
:104390006431C431C431C431C430C43084309FFC72
:1043A000000000000000000000000000000000000D
:1043B0000000000000001F7C1C103C103410341062
:1043C00074106410E410C410C41184118413041315
:1043D00004170416041E041C041C041C04181F18D3
:1043E00000000000000000000000000000000000CD
:1043F000000000000000C003300C181808100C303A
:104400000C300660066006600660066006600660A6
:10441000066006600C200C3008101818300CC00321
:10442000000000000000000000000000000000008C
:10443000000000000000FE0F181818301860186007
:1044400018601860186018301818F80F1800180055
:1044500018001800180018001800180018007E0036
:10446000000000000000000000000000000000004C
:10447000000000000000C003300C18180C100C30B5
:104480000C20066006600660066006600660066036
:1044900006600660E4612C331C321816300EC0072B
:1044A000004C007C0038000000000000000000000C
:1044B000000000000000FE07181C183818301830E3
:1044C000183018301818180CF80798031803180734
:1044D00018061806180E180C180C181C18187E78D8
:1044E00000000000000000000000000000000000CC
:1044F000000000000000E027303818300C200C20AD
:104500000C000C0018007800E003800F001E00383B
:104510000070006004600460086018303818C80F2C
:10452000000000000000000000000000000000008B
:10453000000000000000FC3F8C2184618241824128
:104540008001800180018001800180018001800163
:104550008001800180018001800180018001E007ED
:10456000000000000000000000000000000000004B
:104570000000000000003F7C0C100C100C100C1010
:104580000C100C100C100C100C100C100C100C104B
:104590000C100C100C100C100C1008083804E00360
:1045A000000000000000000000000000000000000B
:1045B0000000000000003EF81820182018203010DD
:1045C000301030103010600860086008E00CC00443
:1045D000C004C00480038003800380030001000145
:1045E00000000000000000000000000000000000CB
:1045F000000000000000DFF38661862186218C2107
:104600000C218C238C138C138C134C1358125816BA
:10461000580E380E380E380E300C100410041004EA
:10462000000000000000000000000000000000008A
:104630000000000000007E3E1808380830043004F6
:1046400070026002E001C001C001800180034003EC
:10465000400720062006100C100C081808183E7C95
:10466000000000000000000000000000000000004A
:104670000000000000007E7C1C1018101808300894
:10468000300C700460046002C002C002C0018001EE
:104690008001800180018001800180018001E007AC
:1046A000000000000000000000000000000000000A
:1046B000000000000000F83F18180818040C040E51
:1046C00000060007000380038001C001C000E00075
:1046D000600070003000382018201C100C18FE1FDD
:1046E00000000000000000000000000000000000CA
:1046F000C03F4000400040004000400040004000FB
:1047000040004000400040004000400040004000A9
:104710004000400040004000400040004000400099
:1047200040004000C03F000000000000000000000A
:1047300000000000080018001800100030002000E1
:10474000600060004000C000800080018001000126
:1047500000030002000600060004000C0008001818
:1047600000180010003000200000000000000000D1
:10477000FC0300020002000200020002000200022C
:104780000002000200020002000200020002000219
:104790000002000200020002000200020002000209
:1047A00000020002FC030000000000000000000006
:1047B0008007C00620081010000000000000000064
:1047C00000000000000000000000000000000000E9
:1047D00000000000000000000000000000000000D9
:1047E00000000000000000000000000000000000C9
:1047F00000000000000000000000000000000000B9
:1048000000000000000000000000000000000000A8
:104810000000000000000000000000000000000098
:104820000000000000000000FFFF0000000000008A
:104830007800C0000001000000000000000000003F
:104840000000000000000000000000000000000068
:104850000000000000000000000000000000000058
:104860000000000000000000000000000000000048
:104870000000000000000000000000000000000038
:1048800000000000F00318060C0C0C0C000C800F4C
:10489000700C1C0C0C0C060C060C064C0C4FF8385B
:1048A0000000000000000000000000000000000008
:1048B0000000000010001E0018001800180018006A
:1048C00018001800180FD8183830386018601860B1
:1048D0001860186018601860182038307818C807F9
:1048E00000000000000000000000000000000000C8
:1048F00000000000000000000000000000000000B8
:1049000000000000C007700C181818180C180C00D4
:104910000C000C000C000C20182018103008C007E8
:104920000000000000000000000000000000000087
:10493000000000000010001E0018001800180018E9
:1049400000180018E01B301C181818180C180C1848
:104950000C180C180C180C180818181C307AE009E0
:104960000000000000000000000000000000000047
:104970000000000000000000000000000000000037
:1049800000000000C007300C181808100C300C3064
:10499000FC3F0C000C000C00182018107018C00709
:1049A0000000000000000000000000000000000007
:1049B000000000000000003E80C380C0C0C0C000F6
:1049C000C000C000FC1FC000C000C000C000C0008C
:1049D000C000C000C000C000C000C000C000F80F90
:1049E00000000000000000000000000000000000C7
:1049F00000000000000000000000000000000000B7
:104A000000000000C077306C10181818181818181B
:104A10001018300CF00718001800F00FF03F087065
:104A20000C600C600C603838E00F000000000000E3
:104A30000000000010001E001800180018001800E8
:104A400018001800980FD81838301830183018305F
:104A500018301830183018301830183018307EFCE4
:104A60000000000000000000000000000000000046
:104A700000000000000080038003800300000000AD
:104A800000000001F80180018001800180018001A7
:104A90008001800180018001800180018001F81F78
:104AA0000000000000000000000000000000000006
:104AB000000000000000003800380038000000004E
:104AC00000000010801F00180018001800180018BF
:104AD0000018001800180018001800180018001816
:104AE00000180018180C1806F00300000000000061
:104AF0000000000010001E00180018001800180028
:104B000018001800183E180C180618031801980110
:104B1000D801380318071806180C181C18187E7CC2
:104B20000000000000000000000000000000000085
:104B3000000000000001F801800180018001800177
:104B4000800180018001800180018001800180015D
:104B50008001800180018001800180018001F81FB7
:104B60000000000000000000000000000000000045
:104B70000000000000000000000000000000000035
:104B800000000800EE1C9C338C318C318C318C3150
:104B90008C318C318C318C318C318C318C31DE7B91
:104BA0000000000000000000000000000000000005
:104BB00000000000000000000000000000000000F5
:104BC000000010001E0FD818383018301830183078
:104BD00018301830183018301830183018307EFC63
:104BE00000000000000000000000000000000000C5
:104BF00000000000000000000000000000000000B5
:104C000000000000C007701C103018300C600C60F1
:104C10000C600C600C600C60183018303018C00745
:104C20000000000000000000000000000000000084
:104C30000000000000000000000000000000000074
:104C4000000010009E0F58183830182018601860A7
:104C50001860186018601860183038307818980795
:104C600018001800180018007E0000000000000066
:104C70000000000000000000000000000000000034
:104C800000000000C023303C183818300C300C30C5
:104C90000C300C300C300C3008301838303CE0331D
:104CA000003000300030003000FC00000000000048
:104CB00000000000000000000000000000000000F4
:104CC000000060007E3C60666061E000E000600023
:104CD0006000600060006000600060006000FE072F
:104CE00000000000000000000000000000000000C4
:104CF00000000000000000000000000000000000B4
:104D000000000000E027303818301820180070002C
:104D1000E003800F001C043004300C301C18EC0F32
:104D20000000000000000000000000000000000083
:104D300000000000000000000000800080008000F3
:104D4000C000E000FC1FC000C000C000C000C000E8
:104D5000C000C000C000C000C020C0208011000FF3
:104D60000000000000000000000000000000000043
:104D70000000000000000000000000000000000033
:104D8000000010201E3C1830183018301830183031
:104D900018301830183018301830183830F4E01344
:104DA0000000000000000000000000000000000003
:104DB00000000000000000000000000000000000F3
:104DC000000000007E3C1818180838083004300431
:104DD000700260026002E001C001C001C0008000FA
:104DE00000000000000000000000000000000000C3
:104DF00000000000000000000000000000000000B3
:104E000000000000DFF78E630C238C238C239813A3
:104E1000981358165816700E700E700E2004200449
:104E20000000000000000000000000000000000082
:104E30000000000000000000000000000000000072
:104E400000000000FC3E70087004E004C002C001D5
:104E50008003800340076006200C100C18183E7E6B
:104E60000000000000000000000000000000000042
:104E70000000000000000000000000000000000032
:104E8000000000007E7C1818180830083008300434
:104E900060046004C002C002C00280018001800181
:104EA0008000800080004C003C00000000000000FA
:104EB00000000000000000000000000000000000F2
:104EC00000000000FC1F0C0C040E0406000380030D
:104ED0008001C000E0007020302038301C18FC1F1A
:104EE00000000000000000000000000000000000C2
:104EF0000030000800040004000400040004000462
:104F00000004000400040004000280010002000408
:104F10000004000400040004000400040004000471
:104F2000000400040008003000000001000100013E
:104F30000001000100010001000100010001000169
:104F40000001000100010001000100010001000159
:104F50000001000100010001000100010001000149
:104F6000000100010001000100010000000000003C
:104F70000C00100020002000200020002000200055
:104F80002000200020002000400080014000200080
:104F90002000200020002000200020002000200011
:104FA0002000200010000C00000000003800C400A9
:104FB000864002610022001C00000000000000008A
:104FC00000000000000000000000000000000000E1
:104FD00000000000000000000000000000000000D1
:104FE00000000000000000000000FFFFFFFFFFFFC7
:104FF000FFFFFFFFFFFFFFFFFFFFFFFFFFFFFFFFC1
:10500000FFFFFFFFFFFFFFFFF7BEFFFFFFDEC6381A
:105010008C926B8E6B6E7C10AD96E73CFFFFFFFFB2
:10502000FFFFFFFFFFFFFFFFFFFFFFFFFFFFFFFF90
:10503000FFFFFFFFFFFFFFFFFFFFFFFFFFFFFFFF80
:10504000FFFFFFFFFFFFFFFFFFFFFFFFFFFFFFFF70
:10505000FFFFFFFFFFFFFFFFEF5D9D15634F426CFA
:10506000320A298819461925214531E86B8EC63840
:10507000FFFFFFFFFFFFFFFFFFFFFFFFFFFFFFFF40
:10508000FFFFFFFFFFFFFFFFFFFFFFFFFFFFFFFF30
:10509000FFFFFFFFFFFFFFFFFFFFFFFFFFFFFFFF20
:1050A000FFFFFFFFFFFFA53653104B1053514B0F6F
:1050B0003A6C31E92167192510E408A300620883DE
:1050C00052CBD69AFFFFFFFFFFFFFFFFFFFFFFFF5F
:1050D000FFFFFFFFFFFFFFFFFFFFFFFFFFFFFFFFE0
:1050E000FFFFFFFFFFFFFFFFFFFFFFFFFFFFFFFFD0
:1050F000FFFFE73C637063B37CB863F54311324D47
:1051000029EA21881926190519051104110410E44A
:10511000008308A38C72FFFFFFFFFFFFFFFFFFFF6D
:10512000FFFFFFFFFFFFFFFFFFFFFFFFFFFFFFFF8F
:10513000FFFFFFFFFFFFFFFFFFFFFFFFFFFFFFFF7F
:10514000DEDB3A4B42F06C354B5432B12A2E21EB68
:1051500021A919671905110411041104110411047E
:10516000190510E4004273AFFFFFFFFFFFFFFFFFD1
:10517000FFFFFFFFFFFFFFFFFFFFFFFFFFFFFFFF3F
:10518000FFFFFFFFFFFFFFFFFFFFFFFFFFFFEF5DE1
:105190003209324C4B10328F2A4F2A2E19CC1989E2
:1051A0002189194719051104110410C410C41104F0
:1051B0001104110410E400428431FFFFFFFFFFFFE0
:1051C000FFFFFFFFFFFFFFFFFFFFFFFFFFFFFFFFEF
:1051D000FFFFFFFFFFFFFFFFFFFFFFFFFFFF52EC9F
:1051E0001947324C2A0B21EC21EC220C5B914AEE40
:1051F00011061926190410E410E429A7216608A352
:1052000019051104110410E40082BDF7FFFFFFFF30
:10521000FFFFFFFFFFFFFFFFFFFFFFFFFFFFFFFF9E
:10522000FFFFFFFFFFFFFFFFFFFFFFFFA535088325
:1052300021882188218921AA218A426B8C71FFFF54
:105240008C720883110408C44229DEFBEF5D5AEC1E
:105250000883110411041104088331E8FFDFFFFF04
:10526000FFFFFFFFFFFFFFFFFFFFFFFFFFFFFFFF4E
:10527000FFFFFFFFFFFFFFFFFFFFF7BE31C710C4B7
:10528000192519261947194729A8528A4A28AD55C0
:10529000FFFF31E808A319056B4D6B4DFFFFEF7D54
:1052A000214510C41104110411040062AD76FFFF02
:1052B000FFFFFFFFFFFFFFFFFFFFFFFFFFFFFFFFFE
:1052C000FFFFFFFFFFFFFFFFFFFFB5960062110426
:1052D00019041105190508C44A8BB5B6EF5DBDF771
:1052E000FFFF6B8E006242295AAA4208FFFFFFFFB0
:1052F00052CC088311041104110408A352ADFFFF1E
:10530000FFFFFFFFFFFFFFFFFFFFFFFFFFFFFFFFAD
:10531000E71CFFFFFFFFFFFFFFFF634E006211046A
:105320001104110410E40062638EFFFFFFFFFFFF12
:10533000FFFF73CF00019CF3632CB596FFFFFFFFC7
:105340005B2D008311041104110410E42167EF3D6B
:10535000FFFFFFFFFFFFFFFFFFFFBDF8B5B7EF9EA9
:1053600052CB94B3FFFFFFFFFFDF31E808A3110426
:1053700011041104110408A34249F7FFF7FFFFFFCE
:10538000FFFF4A6A00018472FFFFFFFFF7FFEFDFB4
:105390003A0908A311041104110411041105BE18DF
:1053A000FFFFFFFFFFFFFFFFFFFF7BF0006231E821
:1053B00031C70041A535FFFFEF5D214610C4110440
:1053C00011041104110410E408A39D76F7FFFFFFF8
:1053D000ADB708A308A331C7E79EF7FFF7FFA5768F
:1053E00008A310E411041104110411051105A535D9
:1053F000FFFFFFFFFFFFFFFFFFFFDEDB29A70083AB
:1054000010C410C410C4E71CEF9E110510E4110471
:10541000110411041104190408C410E56BD16BD1F7
:1054200008C5006408A50043322B9D7784B3192575
:1054300010C41104110411041104192509269D3505
:10544000FFFFFFFFFFFFFFFFFFFFFFFF73AF0062E4
:105450001904190500825B0D9B8E10621105110461
:105460001104190410E40085110539C45A817B40E8
:105470009C22AC43A4039B837282498218C200A47D
:1054800000C510E4190411041905194711675AECF5
:10549000FFBEFFFFFFFFFFFFFFFFFFDFDEDB10C4EC
:1054A00010E41104110518A4C001888300E4190553
:1054B000190408C521448343D523FE42FEE4FF2797
:1054C000FF07FEA4FE64FE03FDA3FCE2EC42B383EF
:1054D000622410E508C41904192619A82187900030
:1054E000BCD3FFFFFFFFFFFFFFFFFFDFFFFF7C10CD
:1054F0000042190511052883D001F84448A300E4AF
:1055000008C55A44ED02FDE2FE02FE66FF74FFB8D4
:10551000FF73F6E7F6A6F645F5A4FCC3FC62FCC2F1
:10552000FCC2CBE349C411061988018790A4F80195
:105530009AECFFFFFFFFFFFFFFFFFFFFFFFFF7BE3C
:1055400031E8008309054082C001F823F08548A3B3
:1055500000A45A44FD02CC23DCC2FE04FE28F64817
:10556000F646F624F5E4FD64FCE3FC62FCC2E402CA
:10557000DC02FCE27AA40148016778C4F824F8024E
:10558000B084E77DFFFFFFFFFFFFFFFFFFFFFFFF8F
:10559000DEDB192500A338C4E002D822F844F8A6BF
:1055A00078A400632143728339839B82F521FD61D6
:1055B000FD22FCE2FCA2FC42FC42FC42AB22418305
:1055C00092C352040126192598A4F844F823F8023E
:1055D000D0A4EF9EFFFFFFFFFFFFFFFFFFFFFFFFD6
:1055E000FFFFD69A298700A5B843F822E023F86583
:1055F000F8E8C9074883004200A3008429637AA21F
:10560000B362CBA2D362BB028A82398300A400E5D5
:1056100000E508E560C4D864F844F824F823F802EB
:105620008883C6DBFFFFFFFFFFFFFFFFFFFFFFFFDA
:10563000FFFFFFFFE73D5B503108E823F843F044EC
:10564000F865F909F9ABD189890648A31842000227
:1056500000420061008200620062008320A350C407
:1056600088A5D885F865F844F844F823F823D003D2
:10567000108229C7EF5DFFFFFFFFFFFFFFFFFFFF66
:10568000FFFFFFFFFFFFFFFF326C38A5D802F823B2
:10569000F865F866F8A7F94AFA0CFA4DEA4CD20B0D
:1056A000B9A9B168A947B127B907D107E8E7F8C791
:1056B000F8A7F865F865F844F823F803D00228A3A2
:1056C000090508C45AECFFFFFFFFFFFFFFFFFFFFC4
:1056D000FFFFFFFFFFFFDEFB190500C441A7C0E687
:1056E000F803F886F8A7F887F886F8C7F929F98A41
:1056F000F9ABF9ABF98BF96AF929F908F8C7F8A6FB
:10570000F886F865F864F823F002B106292500E46C
:1057100010E4192519259D14FFFFFFFFFFFFFFFF70
:10572000FFFFFFFFFFFFAD96006208829535CEBAFE
:10573000A28BD044F825F887F8A7F8C7F8A7F88710
:10574000F886F886F886F887F8A7F8A7F8A6F88507
:10575000F865F864F024B864930DB6BB63CF088392
:10576000110410E421663A49EF5DFFFFFFFFFFFFE0
:10577000FFFFFFFFFFFF94D3004210E4CEBBFFFF0B
:10578000E7BEB576AACCC107E045F845F846F8660D
:10579000F886F886F886F886F865F845F865E865CD
:1057A000D044A84388019082D73CEFFF95550883E9
:1057B000110411041905194694B3FFFFFFFFFFFF01
:1057C000FFFFFFFFFFFF94B300412186DF5DFFFF76
:1057D000FFFFFFFFE7DFC67AB4D3B34EC22AD1681A
:1057E000E0E6E8A6E8A5E8A5D8E6C988A906A822C3
:1057F000A802A000C800D800E5F7E7FFADF810C484
:1058000010E4110410E411054A8BFFFFFFFFFFFFB6
:10581000FFFFFFFFFFFFA555004129A7DF5DF7FF51
:10582000FFFFFFFFFFFFFFFFFFFFEFFFDF7DCEDB8F
:10583000CE59CDF8CDD7C5F7CE79BEFBA2ABF003DC
:10584000F845D042E843F000D472DFFFAE3910E4EF
:1058500010E4110410E411052987FFFFFFFFFFFF8B
:10586000FFFFFFFFFFFFCE5908832146D71CF7FF3C
:10587000FFFFFFFFFFFFFFFFFFFFFFFFFFFFFFFF38
:10588000FFFFFFFFFFFFFFFFFFFFEFFFBA8BF804F3
:10589000F845E062F044F800DB8EDFFFA5F810C4A5
:1058A00010E410E4110410E41925FFFFFFFFFFFFCF
:1058B000FFFFFFFFFFFFF7BE29870883B639F7FF19
:1058C000F7DFFFFFFFFFFFFFFFFFFFFFFFFFFFFF10
:1058D000FFFFFFFFFFFFFFFFFFFFE7BEBA4AF8032E
:1058E000F845F864F844F800E36ED7FF8CF40883B9
:1058F000110410E410E410E41905FFFFFFFFFFFF9F
:10590000FFFFFFFFFFFFFFFF73EF00008472EFFF59
:10591000EFBEFFDFFFFFFFFFFFFFFFFFFFFFFFFF08
:10592000FFFFFFFFFFFFFFFFFFFFE7DFBA8BF8037B
:10593000F845F845F823F800D4D3D7FF5B4E002193
:105940003A29A555088310C41925FFFFFFFFFFFF63
:10595000FFFFFFFFFFFFFFFFDEFB08A331E8DF9E35
:10596000E79EEFBFFFFFFFFFFFFFFFFFFFFFFFFF10
:10597000FFFFFFFFFFFFFFFFFFFFF7FFBC51E0024C
:10598000F803F003E043C2ECCF7EBEFC21460021C9
:1059900094D3FFFF845100002987FFFFFFFFFFFF23
:1059A000FFFFFFFFFFFFFFFFFFFF845100008CF4AC
:1059B000EFFFE79EEFBFFFDFFFFFFFFFFFFFFFFFF0
:1059C000FFFFFFFFFFFFFFFFFFFFFFFFDF3DBD55B5
:1059D000BC52BC72B5B7C75DDFFF6BF000003A097F
:1059E000F7BFFFFFFFFF9D14A555FFFFFFFFFFFF60
:1059F000FFFFFFFFFFFFFFFFFFFFFFFF4AAC08A411
:105A0000BEBBE7DFE77EEFBEF7DFFFDFFFFFFFFF95
:105A1000FFFFFFFFFFFFFFFFFFFFFFDFF7DFEFFFEE
:105A2000DFDFD7BFD79EDFDFA5D808831126D6DBFF
:105A3000FFFFFFFFFFFFFFFFFFFFFFFFFFFFFFFF76
:105A4000FFFFFFFFFFFFFFFFFFFFEE79DC8B312140
:105A500021A9CF3DDFBFDF7EE79EEFBEEFBFF7DFBF
:105A6000F7DFF7DFF7DFF7DFEFBFEFBEE79EDF7EA1
:105A7000D75ED75EDFDFB69A19260842A3EDFFBFD7
:105A8000FFFFFFFFFFFFFFFFFFFFFFFFFFFFFFFF26
:105A9000FFFFFFFFFFFFFFFFDD74DBC0FE00EE42F4
:105AA00042022189B67BDFDFD77EDF7EDF7EE79E85
:105AB000E79EE79EE79EE79EDF7EDF7ED75DD75DB0
:105AC000DF9EE7FFA5F8110718E3C502FD60D3E6E6
:105AD000EEDBFFFFFFFFFFFFFFFFFFFFFFFFFFFF0B
:105AE000FFFFFFFFFFFFF79EBA84FCC1FE42FE826C
:105AF000FEA2838121457474C75EDFDFD77ED75E47
:105B0000D75DD75ED75ED75DD75DD75EDF9EE7FFF7
:105B1000C73D63F108845242E626FF29FE86F3E082
:105B2000C36AFFFFFFFFFFFFFFFFFFFFFFFFFFFF56
:105B3000FFFFFFFFFFFFDE18D2C1FDA2FE22FE42E3
:105B4000FE42FE62D4E26A4142497453A63BC73E1C
:105B5000D7BFD7BFD7BFDFBFD7BFC73EA61A63F235
:105B600029A74182B422FE62FE83FEAAFF0FFD67D1
:105B7000BA63EF3CFFFFFFFFFFFFFFFFFFFFFFFFE9
:105B8000FFFFFFFFFFFFE69AD280FD21FDC2F5E295
:105B9000F5C2F582FD82FD62DC619B216A846AE9BF
:105BA000632C63AF7411636E632C5A8952047A813B
:105BB000CBC2FCE2FD62FD82FDC2FDC2FDE4FD241C
:105BC000CA62E71CFFFFFFFFFFFFFFFFFFFFFFFFB2
:105BD000FFFFFFFFFFFFFFFFCCB1D281F3C0FCC18D
:105BE000FD02FD02FCE2FCC2FCC2FC81FB80C9C0DC
:105BF00081A4AD35CE599C718121DA00FBA1FC82D4
:105C0000FCA2FC82FCA2FD02FD22FCE2FC00DA60A8
:105C1000CC90FFFFFFFFFFFFFFFFFFFFFFFFFFFF36
:105C2000FFFFFFFFFFFFFFFFFFFFDE59C40DCB06A5
:105C3000D2E4DB03DB03DAE3D2C3C2A4B309BCD2F0
:105C4000F79EFFFFFFFFFFFFE6FBB40EBAA6D2836D
:105C5000E2E3EB02EB22E322DB03D2E4C36AD5B634
:105C6000FFFFFFFFFFFFFFFFFFFF00008C5C00084E
:105C700000000020100000003C0400089C5C0008AC
:105C800010000020040000005804000800127A00F0
:0C5C900000127A0000127A0000127A0064
:0400000508000401EA
:00000001FF
