:020000040800F2
:100000000024002049010008AF1D0008191700084E
:10001000AD1D000813020008A52000080000000024
:10002000000000000000000000000000B31D0008F8
:100030001502000800000000B11D0008B51D0008F1
:100040006301000863010008630100086301000800
:1000500063010008630100086301000863010008F0
:1000600063010008630100086301000863010008E0
:1000700063010008630100086301000863010008D0
:1000800063010008630100086301000863010008C0
:1000900039200008630100086301000863010008BB
:1000A00063010008630100086301000863010008A0
:1000B0006301000863010008630100086301000890
:1000C0006301000863010008630100086301000880
:1000D000630100082D200008630100086301000887
:1000E0006301000863010008630100086301000860
:1000F0006301000863010008630100086301000850
:10010000630100086301000863010008630100083F
:10011000630100086301000863010008630100082F
:10012000630100086301000863010008630100081F
:10013000DFF810D000F02CF8004800473921000803
:10014000AFF300800024002006488047064800479F
:10015000FEE7FEE7FEE7FEE7FEE7FEE7FEE7FEE777
:10016000FEE7FEE7171E000831010008D2B201E0E9
:1001700000F8012B491EFBD270470022F6E710B5AC
:1001800013460A4604461946FFF7F0FF204610BD05
:10019000064C074D06E0E06840F0010394E80700D4
:1001A00098471034AC42F6D3FFF7C6FF98340008E6
:1001B000B834000870B58D1810F8014B14F0030224
:1001C00001D110F8012B231106D110F8013B03E0F7
:1001D00010F8016B01F8016B521EF9D1ABB110F8A8
:1001E000012B04F00C048A1A0C2C03D0A2EB84120D
:1001F0009B1C08E010F8014BA2EB0422F8E712F870
:10020000014B01F8014B5B1EF9D5A942D4D3002064
:1002100070BDFEE77047000001A001F045BF00007F
:100220006572726F725F68616E646C6572210D0A2F
:100230000000000090F82020012A07D0022A05D0F3
:10024000416A41F48021416201207047006842699F
:100250000A43426100207047F0B590F820500468CE
:10026000A468012D05D0022D03D0416A41F48021FC
:100270005DE014F0406F01D1E50055D5C4F3016491
:10028000022C03D9416A41F4000150E00125A54048
:100290001D608D684FF4C0739DB1CE6835434E68C4
:1002A00045EAC605066803EB0417F5514FF4C2751D
:1002B000076805EB04150E697E51097D012905D0FB
:1002C00009E00E88CD6845EA4655EBE701684E59CE
:1002D00046F480764E511179D579567941EA056117
:1002E00095792D0445EA062529434FF4C67605681D
:1002F00006EB0416A9511178D57841EA0561957885
:1003000052782D0445EA022211434FF4C475026865
:1003100005EB04155151006803EB0411425842F0FB
:10032000010242500020F0BD416A41F400114162D7
:100330000120F0BD10B590F820300268012B07D0E5
:10034000022B05D0416A41F480214162012010BD99
:10035000D2F8000240F00100C2F80002087D00F06F
:100360001F0301209840D2F81C328343C2F81C328C
:10037000CB69B3B9D2F80C328343C2F80C328C8902
:100380004B6864F31F434C6902EBC404C4F8403269
:100390000C890B6864F31F434C6902EBC404C4F876
:1003A0004432CB69012B16D1D2F80C320343C2F888
:1003B0000C320C884B6864F31F434C6902EBC40495
:1003C000C4F840320C89CB6864F31F434C6902EBDC
:1003D000C404C4F844328B69002BD2F804320FD025
:1003E00053EA0003C2F804320B69002BD2F814322E
:1003F00008D00343C2F81432096A012904D008E086
:100400008343EFE78343F5E7D2F81C120143C2F8B8
:100410001C12D2F8000220F00100C2F800020020F5
:1004200010BD704730B590F82040012C05D0022C4B
:1004300003D0416A41F480215DE00468002955D071
:100440002469A40754D04FF4D874056804EB011450
:100450002D5915F00405956005682D594ED0ED080D
:10046000556005682C5904F00204D4604FF4DA7426
:10047000056804EB01142D5905F00F051561056899
:100480002D59C5F30725956105682C59240C546135
:100490004FF4DC72046802EB0112A4581C7004686B
:1004A000A458240A5C700468A458240C9C70046846
:1004B000A258120EDA704FF4DE72046802EB0112D9
:1004C000A4581C710468A458240A5C710468A458D8
:1004D000240C9C710468A258120EDA71006881B174
:1004E000016941F020010161002030BDE468A8E706
:1004F000416A41F400114162012030BD6D0D15606B
:10050000AFE7C16841F02001C160EDE72DE9F05F80
:100510000546006800244669D0F804908768D0F842
:100520000CB0D0F810A0D0F81880F10748D0F90727
:1005300014D001218160B80703D5284600F007FADE
:100540000CE0780702D54FF4006407E0380702D5C5
:100550004FF4805402E0284600F0F8F9F80516D56B
:1005600029684FF480708860B80503D5284600F0EC
:10057000F0F90CE0780502D544F4005407E03805A2
:1005800002D544F4804402E0284600F0E1F9F80383
:1005900016D529684FF480308860B80303D5284603
:1005A00000F0D9F90CE0780302D544F4004407E0E8
:1005B000380302D544F4803402E0284600F0CAF93A
:1005C000300707D55FEACB6004D52968102044F4D2
:1005D0000074C86070074FF0080707D55FEA0B701A
:1005E00004D52868C760284600F05CF9B00706D536
:1005F0002868C068800702D0284600F055F97006C8
:1006000007D55FEACA6004D52968102044F48064E5
:100610000861B00607D55FEA0A7004D5286807614B
:10062000284600F063F9F00606D5286800698007BF
:1006300002D0284600F05BF9B00308D55FEAC96034
:1006400005D5296810204860284600F051F9F003CC
:1006500007D55FEA097004D528684760284600F08E
:100660007BF9300446D55FEA497040D5F00504D5E2
:100670005FEAC87001D044F00104B00504D55FEA18
:10068000887001D544F00204700504D55FEA487013
:1006900001D544F00404300529D518F0700F26D098
:1006A00008F07000402815D006DC102809D020285A
:1006B0000AD0302816D10AE050280ED0602811D177
:1006C0000EE044F008040DE044F010040AE044F0A9
:1006D000200407E044F0400404E044F0800401E01A
:1006E00044F480742868816921F07001816129686F
:1006F00004204860002C05D0686A204368622846C0
:10070000FFF78FFEBDE8F09F70B5040003D094F8AA
:10071000200010B104E0012070BD204600F082F8F6
:100720002068016841F00101016000F0F1FA05461E
:10073000052604E000F0ECFA401B0A2811D82068D6
:100740004068C007F6D02068016821F0020101600E
:1007500000F0DEFA05460BE000F0DAFA401B0A284A
:1007600006D9606A40F40030606284F82060D2E705
:10077000206840688007EFD4207E01282068016847
:100780003DD021F080010160607E01282068016871
:1007900038D021F040010160A07E01282068016866
:1007A00033D021F020010160E07E0128206801683B
:1007B0002ED041F010010160207F012820680168DF
:1007C00029D021F008010160607F012820680168BC
:1007D00024D021F004010160D4E902010843D4E9E6
:1007E0000412114308436168491E08432168C86127
:1007F00000206062012084F82000002070BD41F0DC
:100800008001C0E741F04001C5E741F02001CAE79F
:1008100021F01001CFE741F00801D4E741F00401D5
:10082000D9E7000010B586B0002100910191029136
:1008300003910068184988422CD11848C16941F0D9
:100840000071C161C16901F000710491816941F0D9
:10085000040181618069124C00F0040004904FF49F
:1008600000600090012002906946204600F042F9A5
:10087000A0140090022001900320039069462046B6
:1008800000F038F900221146142000F0ADFA1420CF
:1008900000F09CFA06B010BD006400400010024059
:1008A000000801407047000010B50D4A01689142F0
:1008B00014D10C4B0C4A0021FFF7B4FD08B1FFF72F
:1008C000ABFC47F67C51402000F05EFF064805492E
:1008D000027CBDE81040402001F001B810BD0000CE
:1008E00000640040401300207413002070477047DC
:1008F0007047000070B5044690F82000012804D02D
:10090000606A40F40020606218E0022084F8200051
:100910002068016821F00101016000F0F9F9054645
:100920000EE000BF00F0F4F9401B0A2808D9606A05
:1009300040F400306062052084F82000012070BD82
:1009400020684068C007EDD1606270BD7047704795
:100950007047704770477047704710B590F8211086
:100960000022022905D00421816380F82020012083
:1009700010BD01680B6823F00E030B6001680B6863
:1009800023F001030B6090F84030C46B012101FAA1
:1009900003F3636080F8211080F82020104610BD1A
:1009A0002DE9F05F90F821100024022903D00421E2
:1009B0008163012485E001680A6822F00E020A6062
:1009C00001680A6822F001020A603F4E3E4FB215EC
:1009D000DFF8F4C0DFF8F090DFF8ECA0DFF8E8B063
:1009E000DFF8E4E00168783F13011502ACF1640C14
:1009F000A9F15009AAF13C0AABF1280BAEF1140E93
:100A00004FF48018B14227D9B9420ED0614512D0B7
:100A100049451DD0514518D0594518D0714501D1CF
:100A2000424615E0294EB14201D1012210E0274E85
:100A30001436B14201D110220AE0244E2836B142C8
:100A400006D0224A3C32914201D11A4600E02A46A1
:100A50001E49091F0A602BE0B94213D0614517D027
:100A6000494522D051451DD059451DD0714501D170
:100A700042461AE0B14202D14FF0807215E0134EA7
:100A8000B14201D1012210E0104E1436B14201D121
:100A900010220AE00D4E2836B14206D00B4A3C32F5
:100AA000914201D11A4600E02A46074980394A603E
:100AB000012180F82110002180F82010416B01B144
:100AC00088472046BDE8F09F8000024008040240AD
:100AD00070B5044600F01CF90546601C02D00448BD
:100AE0000078044400F014F9401BA042FAD370BD12
:100AF000481300202DE9F84FDFF8C891002409F1D0
:100B0000040A0AF1040B23460F270BF1040ED1E06F
:100B10000125A54006EA0502AA4276D1DFF8A8C160
:100B20004E68A6EB0C0866452BD00DDC032E34D0A6
:100B300005DC36B3012E19D0022E2FD11BE0112E69
:100B400016D0122E2AD119E0B8F5881F19D006DC6C
:100B5000B8F5803F15D0B8F5801F1FD111E0B8F56A
:100B6000001F0ED0B8F5041F18D10AE0CB6815E0BD
:100B7000CB681B1D12E0CB6808330FE0CB680C3349
:100B80000CE08B682BB1012B4FF0080303D04561BB
:100B900004E0042302E0056100E00023FF2A01D8FD
:100BA000064601E000F104064FEA840501D9A5F1EB
:100BB0002005D6F8008007FA05FC28EA0C0803FA9D
:100BC00005F548EA0508C6F800804D68ED0070D5C7
:100BD0003E4DAE6946F00106AE61AD6924F00306F4
:100BE00005F0010500953A4D06EB050CDCF80850C0
:100BF000A607360F07FA06F825EA0805DFF8D480BD
:100C0000404503D14FF0000825E052E0DFF8C880EE
:100C1000404502D14FF001081DE0DFF8C08040459B
:100C200002D14FF0020816E0DFF8B480404502D14F
:100C30004FF003080FE0DFF8AC80404502D14FF0E1
:100C4000040808E0DFF8A080404502D14FF0050815
:100C500001E04FF0060808FA06F848EA0508CCF863
:100C600008804D68D9F80060ED034D4601D5164364
:100C700000E096432E604D68DAF80060AD035546FB
:100C800001D5164300E096432E604D68DBF8006006
:100C9000ED025D4601D5164300E096432E604D6897
:100CA000DEF80060AD02754601D5164300E09643BC
:100CB0002E60641C0A681646E2407FF429AFBDE846
:100CC000F88F0000000401400000111000100240E5
:100CD0000000014000080140000C014000100140EC
:100CE0000014014000180140001C014080680840C9
:100CF00000D001207047C26821EA02030A4043EA9B
:100D00000241016170470AB1016170470904FBE7C4
:100D1000014880687047000048130020024881683D
:100D2000027811448160704748130020074810B5CD
:100D3000016841F010010160032000F075F8002007
:100D400000F006F800F024F8002010BD002002405A
:100D500070B50D4D04464FF47A712878B1FBF0F070
:100D60000A490968B1FBF0F000F0ECFA48B9102C20
:100D700007D200222146501E00F036F800206C6099
:100D800070BD012070BD00004813002054130020E6
:100D90000C4808B5816941F001018161816901F068
:100DA00001010091C16941F08051C161C06900F049
:100DB000805000900448416821F0E06141F080716A
:100DC000416008BD0010024000000140002809DB1E
:100DD00000F01F02012191404009800000F1E02055
:100DE000C0F8001170470000F0B40E4B1B680C46B1
:100DF000C3F30223C3F10705042D00D90425191DEF
:100E0000072901D2002300E0DB1E012606FA05F1C6
:100E1000491E214099409E40761E16403143F0BC49
:100E200001F04AB90CED00E0064900F0070208683D
:100E30004FF6FF03184040EA0220034A10430860BF
:100E4000704700000CED00E00000FA052DE9F047C6
:100E50000F46050061D0434E306800F00700B842ED
:100E600009D2306820F0070038433060306800F065
:100E70000700B84251D128683B4C810712D5400782
:100E800003D5606840F4E06060602878000703D50F
:100E9000606840F4605060606068A96820F0F0000D
:100EA000084360602878C00728D06868012810D0FF
:100EB0002168022810D0890700292EDA616821F004
:100EC000030101436160FFF723FF804641F2883947
:100ED0000DE021688903EFE78901EDE7FFF718FFCF
:100EE000A0EB0801494502D90320BDE8F0876068FE
:100EF000696800F00C00B0EB810FEFD1306800F0B2
:100F00000700B8420BD9306820F007003843306042
:100F1000306800F00700B84201D00120E5E72878EA
:100F2000400705D56068E96820F4E0600843606028
:100F30002878000706D56068296920F4605040EAE7
:100F4000C100606000F038F86168084AC1F303111D
:100F5000515CC8400649086006480068FFF7F8FE83
:100F60000020C2E700200240001002408034000848
:100F7000541300204C1300200448054900684968B8
:100F8000044AC1F30221515CC84070475413002049
:100F90000010024090340008044805490068496880
:100FA000044AC1F3C221515CC84070475413002069
:100FB000001002409034000812A185B00FC98DE8DE
:100FC0000F0014A0144A006804905168134801F0FF
:100FD0000C03042B10D0082B0ED1C1F38343C9039B
:100FE0001DF803000AD5516804AAC1F34041515CC1
:100FF0000A4A5043B0FBF1F005B070470849484336
:10100000FAE7000002030405060708090A0B0C0DA5
:101010000E0F1010010200000010024000127A00B2
:1010200000093D002DE9F84F040070D02078C04D34
:10103000C00749D06868C0F38100012807D06868FC
:10104000C0F38100022809D16868C00306D528686A
:10105000800339D560680028E7D035E06068B0F5D6
:10106000803F0BD010B1B0F5A02F11D0286820F42C
:1010700080302860286820F4802002E0286840F44E
:1010800080302860606890B1FFF742FE06460AE0B3
:10109000286840F480202860F0E700BFFFF738FEA2
:1010A000801B642873D828688003F7D50CE0FFF70D
:1010B0002FFE064605E000BFFFF72AFE801B6428CE
:1010C000F0D828688003F7D420789A4E80074FF034
:1010D00001094FF0000839D5686810F00C0F07D0EF
:1010E0006868C0F38100022809D16868C00306D48B
:1010F0002868800714D52069012808D110E02069EC
:10110000B0B1C6F80090FFF703FE074605E00AE11C
:10111000FFF7FEFDC01B0228C4D828688007F7D55A
:101120002868616920F0F80040EAC10028600DE0FD
:10113000C6F80080FFF7ECFD074604E0FFF7E8FD86
:10114000C01B022823D828688007F7D4207800071E
:101150002CD57948A169D9B1C0F80090FFF7D8FD26
:10116000074604E0FFF7D4FDC01B02280FD8686AC9
:101170008007F7D571484FF4FA510068B0FBF1F0E1
:10118000009000BF0098411E0091FAD20EE080E06E
:10119000C0F80080FFF7BCFD074604E0FFF7B8FD8C
:1011A000C01B022875D8686A8007F7D420784007EA
:1011B00060D5E8690027C00008D4E86940F0805095
:1011C000E861E869012700F0805000905C48016800
:1011D000C90513D40168834641F480710160FFF7AB
:1011E00097FD824606E000BFFFF792FDA0EB0A00E4
:1011F00064284ED8DBF80000C005F5D5E06801286A
:101200000AD008B1052813D0286A20F0010028620E
:10121000286A20F0040002E0286A40F001002862F9
:10122000E06841F2883B98B1FFF772FD82460BE01F
:10123000286A40F004002862EEE700BFFFF768FD6F
:10124000A0EB0A0159455AD8286A8007F6D50CE068
:10125000FFF75EFD824605E0FFF75AFDA0EB0A01AD
:1012600059454CD8286A8007F6D41FB1E86920F0A8
:101270008050E861E06988B36968C1F3810102299F
:1012800044D00228C6F8608004D0FFF741FD044630
:1012900038E034E0FFF73CFD074604E0FFF738FD97
:1012A000C01B02282BD828688001F7D4206AB0F52B
:1012B000803F05D16868A16820F400300843686069
:1012C000D4E908010843696821F47411084368608F
:1012D000C6F86090FFF71CFD044606E025E000BF5D
:1012E000FFF716FD001B022809D828688001F7D5F2
:1012F0001BE000BFFFF70CFD001B022802D90320F2
:10130000BDE8F88F28688001F4D40EE00128F7D0FA
:101310006868226A00F48031914204D1616A00F465
:101320007010884201D00120EAE70020E8E70000C1
:101330000010024000004242800442425413002048
:101340000070004010B5401EB0F1807F01D3012035
:1013500010BD4FF0E02460610F21601700F0ACFE7B
:101360000020A06107202061002010BD7047704759
:10137000F8B5026804461068D168536910F00F0F81
:101380004FF0000553D003F0010601F49077374386
:101390005FD0C20705D0CA0503D5226C42F0010216
:1013A0002264420705D5DA0703D0226C42F002021C
:1013B0002264820705D5DA0703D0226C42F00402CA
:1013C0002264020707D501F02002324303D0226CC9
:1013D00042F008022264226C002A34D0800604D530
:1013E000880602D5204600F037FD20684069216C50
:1013F000C0F38010090700D430B3204600F014FD7C
:101400002068416949061BD5416921F040014161CD
:10141000A06BA8B158494163A06BFFF7C1FA00283F
:1014200011D0A06B416B01B0BDE8F04008478306C6
:101430000FD58B060DD52046BDE8F84000F00CBD59
:101440002046FFF794FFF8BD2046FFF790FF256484
:10145000F8BD266B2023012E52D1C60650D5CE06EC
:101460004ED5106850680090506940062AD5A16B8F
:10147000086840680004000CEAD0A68D8642E7D9CF
:10148000E0858869202818D0D06820F48070D0606A
:101490002068416921F0010141612068416921F022
:1014A0004001416184F83E3025632068C16821F025
:1014B0001001C160A06BFFF750FAA08DE18D401ABA
:1014C00081B219E0A08DE18D401A81B2E08D002833
:1014D000BED00029BCD0D06820F49070D0602068C5
:1014E000426922F00102426184F83E30256320689F
:1014F000C26822F01002C2602046FFF737FFF8BD35
:1015000005062BD50D0629D594F83D002128F6D1E6
:10151000A068B0F5805F01D12069B0B1206A411C9C
:101520002162216800784860E08C401E0004000CB5
:10153000E084E4D12068C16821F08001C1602068A6
:10154000C16841F04001C160F8BD206A0088C0F365
:1015500008005060206A801C2062E5E74006F3D551
:101560004806F1D5D168204621F04001D16084F8C9
:101570003D3000F0D0F8F8BD191E000870B5040029
:1015800004D094F83D00002510B106E0012070BDA4
:1015900084F83C50204600F023F8242084F83D00D5
:1015A0002068C16821F40051C160204600F0B0FC01
:1015B0002068016921F4904101612068416921F0AE
:1015C0002A0141612068C16841F40051C16025646D
:1015D000202084F83D0084F83E00002070BD00000B
:1015E00030B585B0002400940194029403940068FF
:1015F000184988422CD11848816941F480418161A1
:10160000816901F480410491816941F004018161A3
:101610008069124D00F0040004904FF400700090B7
:10162000022001900320039069462846FFF762FAE2
:101630002815CDE90004694628460294FFF75AFAB6
:10164000002211462520FFF7CFFB2520FFF7BEFB28
:1016500005B030BD003801400010024000080140D4
:10166000704700002DE9F843044690F83D001F46FE
:1016700016460D4620284CD1C5B1BEB194F83C00A9
:10168000012846D0012084F83C004FF00008C4F83F
:101690004080212084F83D00FFF73AFBA684814674
:1016A000E684A068B0F5805F03D004E00120BDE8C7
:1016B000F883206928B12E465FF0000584F83C804D
:1016C0000EE00026FAE78021204600F07DFCA0B95C
:1016D000AEB116F8010B21684860E08C401EE08432
:1016E000E08C4B464FF0000200970028EBD14FF002
:1016F0004001204600F068FC30B10320D7E735F800
:10170000020BC0F30800E6E7202084F83D0000202B
:10171000CDE70220CBE77047FEE72DE9F041044614
:101720001D4616460F462A2000F03AF9204600F0E2
:1017300017F9304600F014F92B2000F031F9384643
:1017400000F00EF9284600F00BF9BDE8F0412C201E
:1017500000F026B92DE9F04107460021EF2340F2C1
:101760003F120846FFF7D9FF00254FF4A07600246A
:10177000384600F0F5F8641CF02CF9D36D1CB54226
:10178000F5D3BDE8F0810000F8B5064607A00D4688
:10179000006800240090E0002B466A46314600F0C5
:1017A000B9F8641C282CF6DBF8BD0000200000000E
:1017B00010B514460B460246FFF7AFFF2046BDE8C2
:1017C000104000F0CDB800002DE9F05F1C468846BF
:1017D0008146B0F5987F2BD80846B8F1E00F27D89E
:1017E000203AD6B200F10F0309F1070241464846FC
:1017F000FFF793FF1D48002C4FF000041AD08346DA
:1018000004EB061100251BF8017008EB040AF80729
:1018100005D0514609EB05000A9AFFF7C9FF6D1C78
:101820007F08EDB2082DF2D3641CE4B2102CE7D38C
:10183000BDE8F09FDFF838804FEA000904EB06119D
:10184000002519F80170F80701D00A9801E0D8F8CE
:10185000000000F085F86D1C7F08EDB2082DF2D372
:10186000641CE4B2102CE9D3E2E700001022000867
:10187000000000202DE9F84F00261D4691468A46BB
:1018800007463446DDF8288025E0281B401EC1B2FB
:101890000A2000F0B5FCB9FBF0F00A21B0FBF1F230
:1018A00001FB120026B9691E8C4201DA40B1012603
:1018B0003030C2B207EBC4000023CDF8008005E051
:1018C000002307EBC4002022CDF800805146FFF72B
:1018D0007BFF641CE4B2AC42D7D3BDE8F88F2DE99E
:1018E000F84300241546884681464FF478461C2765
:1018F0000AE0009618F8042007EB4410022349463A
:10190000603AFFF7B7FF641CAC4201DA082CF0DB49
:10191000BDE8F8832DE9F843984616460D4604467F
:101920004FF498774FF4784914E0BC4201D9002471
:101930001035E02D04D9002425464846FFF70AFF5C
:10194000CDF800803278002329462046FFF73CFF7F
:101950000834761C30780028E7D1BDE8F883000011
:1019600010B50446012208210548FFF7CCF9C4F35D
:10197000072000F023F8E0B2BDE8104000F01EB8E8
:101980000008014010B50446012208210348FFF772
:10199000BAF92046BDE8104000F010B80008014038
:1019A00010B50446002208210348FFF7ACF9204691
:1019B000BDE8104000F002B80008014070B5144EB8
:1019C0000546002240213046FFF79DF90024002201
:1019D00001213046FFF797F9280601D5012200E0E2
:1019E000002202213046FFF78EF9012211463046CF
:1019F000FFF789F96806641C050EE4B2082CE6D3EB
:101A00003046BDE8704001224021FFF77CB900005C
:101A10000008014010B5874C002204212046FFF742
:101A200072F91420FFF754F8012204212046FFF731
:101A30006AF91420FFF74CF8012210212046FFF725
:101A400062F9CF20FFF7ACFF0020FFF79BFFD92002
:101A5000FFF798FF3020FFF795FFED20FFF7A0FF7D
:101A60006420FFF78FFF0320FFF78CFF1220FFF7A2
:101A700089FF8120FFF786FFE820FFF791FF85208F
:101A8000FFF780FF1020FFF77DFF7820FFF77AFF38
:101A9000CB20FFF785FF3920FFF774FF2C20FFF7DD
:101AA00071FF0020FFF76EFF3420FFF76BFF02206D
:101AB000FFF768FFF720FFF773FF2020FFF762FFB3
:101AC000EA20FFF76DFF0020FFF75CFF0020FFF723
:101AD00059FFC020FFF764FF2120FFF753FFC1200B
:101AE000FFF75EFF1220FFF74DFFC520FFF758FFFD
:101AF0003220FFF747FF3C20FFF744FFC720FFF7E6
:101B00004FFFC120FFF73EFF3620FFF749FF782047
:101B1000FFF738FF3A20FFF743FF5520FFF732FF6A
:101B2000B120FFF73DFF0020FFF72CFF1820FFF743
:101B300029FFB620FFF734FF0A20FFF723FFA2207A
:101B4000FFF720FFF220FFF72BFF0020FFF71AFF1F
:101B50002620FFF725FF0120FFF714FFE020FFF705
:101B60001FFF0F20FFF70EFF2020FFF70BFF1E20A7
:101B7000FFF708FF0920FFF705FF1220FFF702FF1C
:101B80000B20FFF7FFFE5020FFF7FCFEBA20FFF707
:101B9000F9FE4420FFF7F6FE0920FFF7F3FE1420BC
:101BA000FFF7F0FE0520FFF7EDFE2320FFF7EAFE2A
:101BB0002120FFF7E7FE0020FFF7E4FEE120FFF71A
:101BC000EFFE0020FFF7DEFE1920FFF7DBFE1920F5
:101BD000FFF7D8FE0020FFF7D5FE1220FFF7D2FE58
:101BE0000720FFF7CFFE2D20FFF7CCFE2820FFF7C0
:101BF000C9FE3F20FFF7C6FE0220FFF7C3FE0A2002
:101C0000FFF7C0FE0820FFF7BDFE2520FFF7BAFE54
:101C10002D20FFF7B7FE0F20FFF7B4FE1120FFF7CE
:101C2000BFFE7820FEF754FFBDE810402920FFF7E3
:101C3000B7BE00000008014030B51F488BB01D49F9
:101C4000016004210024C0E901144904C0E90341F2
:101C50004FF4E00141610476447601258576C4762F
:101C600004774577FEF750FD08B1FEF7D5FA0394E7
:101C70000E200494CDE90850CDE906450594009462
:101C80000194029469460C48FEF754FB08B1FEF734
:101C9000C3FA0948FEF72EFE08B1FEF7BDFA02218D
:101CA0000548FEF7C7FA002801D0FEF7B5FA0BB0D9
:101CB00030BD000000640040901300202DE9F04387
:101CC00085B000242848009401940294039481690B
:101CD00041F020018161816901F020010491816955
:101CE00041F004018161816901F00401049181697D
:101CF00041F0080181618069DFF8708000F0080020
:101D000004900122DF214046FEF7FDFFDFF86090DE
:101D1000002220214846FEF7F6FFDF200125CDE90D
:101D200000050320CDE9024069464046FEF7E2FE89
:101D30002026CDE900640227694640460297FEF757
:101D4000D9FE03970096CDE9015469464846FEF74F
:101D5000D1FE40208DE8310069464846FEF7CAFEB4
:101D600005B0BDE8F083000000100240000801400B
:101D7000000C01400C4810B50A4901604FF4E131F4
:101D80004160002181600C22C160C0E904128161C0
:101D9000C161FFF7F3FB002803D0BDE81040FEF758
:101DA0003BBA10BD00380140B8130020FEE7704771
:101DB00070477047FEF7B2BF30B58FB02821684634
:101DC000FEF7DBF914210AA8FEF7D7F90121080470
:101DD000CDE900100024029402250491CDE90750BA
:101DE0004FF4E01009906846FFF71CF908B1FEF7C0
:101DF00013FA0F20CDE90A054FF48060CDE90C40BD
:101E000002210AA80E94FFF721F8002801D0FEF75E
:101E100003FA0FB030BD704710B5406A0021C1858C
:101E2000C184FFF7A4FA10BD0168CA6822F4907259
:101E3000CA6001684A6922F001024A61016B012906
:101E400004D10168CA6822F01002CA60202180F81B
:101E50003E1000210163704708B590F83E1022291A
:101E600001D0022008BD82684FF480539A4201D10C
:101E7000016921B1816A9A421BD04AB10AE0026825
:101E8000816A5268C2F308020A80816A891C08E0EC
:101E9000026972B10268526802F07F020A70816AB8
:101EA000491C8162C18D491E0904090CC18503D0FA
:101EB00019E002685268F1E70168CA6822F020025E
:101EC000CA600168CA6822F48072CA6001684A69FF
:101ED00022F001024A61202180F83E10016B0129A5
:101EE00003D0FFF7BDFB002008BD0021016301689E
:101EF000CA6822F01002CA6001680A68D20602D5D8
:101F00000A6849680091818DFFF730FAEBE700001D
:101F100070B5044600680169E26821F4405111433C
:101F200001612169A0680843616908432168CA68A2
:101F300041F20C639A430243CA6020684169A26976
:101F400021F44071114341611E492068884202D149
:101F5000FFF722F801E0FFF70FF800EBC00101EBFB
:101F60000012606864218000B2FBF0F3B3FBF1F370
:101F70006FF018067343B2FBF0F5B2FBF0F605EB19
:101F80008305322303EB0515B5FBF1F5B6FBF1F63E
:101F900005F0F00505EB0615B2FBF0F6B2FBF0F02C
:101FA000B0FBF1F06FF01802504306EB800003EB3A
:101FB0000010B0FBF1F0216800F00F0028448860A9
:101FC00070BD0000003801402DE9F04198461746E9
:101FD0000E460446069D1DE0681C1BD02DB1FEF781
:101FE00097FEA0EB0800A84214D92068C16821F42C
:101FF000D071C1602068416921F001014161202058
:1020000084F83D0084F83E00002084F83C00032062
:10201000BDE8F0812068006836EA000004D00020A6
:10202000B842D9D00020F3E70120F9E70148FFF7D3
:102030009FB90000B81300200148FEF767BA0000FE
:102040009013002070B5144C144B0022C4E90023F7
:102050000423A360C4E903212275114B02E0855CCF
:102060009D54521C8A42FADB0D4B0B491B1F1A1D53
:1020700001F13400FEF7F0F808B1FEF7CDF847F6AD
:102080007C512020FFF780FB227CBDE87040044992
:102090002020FFF724BC00005C1300200050341205
:1020A00038130020FEE70000014A024900F023B87F
:1020B00019210008581300200907090E002804DB25
:1020C00000F1E02080F80014704700F00F0000F1EC
:1020D000E02080F8141D704702E008C8121F08C1F4
:1020E000002AFAD170477047002001E001C1121F99
:1020F000002AFBD170472DE9F04116460F460446F1
:10210000002503E03946B047641C6D1C2078002888
:10211000F8D12846BDE8F08138B504468DF80000B6
:102120004FF47A73012269460248FFF79BFA204672
:1021300038BD0000B81300201CB5FEF7F7FDFFF70F
:102140003BFEFFF7BBFDFFF715FEFFF775FDFFF741
:1021500061FC47F67C542046FFF7FCFA1E481F231B
:102160001EA2046010211E20FFF7D4FB1F231DA216
:1021700030211E20FFF7CEFB1CA11E4DD1E900012E
:1021800000244FF4FA76CDE9000140212846FEF7FD
:10219000ADFDA0B90A20FEF79BFC40212846FEF7C2
:1021A000A5FD30B914A0FFF77FFF08216846FFF7AF
:1021B00049FF40212846FEF799FD0028F9D001206B
:1021C000FEF786FC641CB442DFD120212846FEF7CE
:1021D00092FD0024D9E700000000002053656E64E2
:1021E0003A000000526576633A0000000B172D207C
:1021F0003620202B000C014068656C6C6F0D0A00C6
:102200000246012000E05043491EC9B2FBD270478C
:1022100000000000000000000000000000000000BE
:102220000000000808080808080800001818000046
:1022300000486C24120000000000000000000000B4
:102240000000002424247F1212127F1212120000B8
:102250000000081C2A2A0A0C1828282A2A1C080808
:1022600000000022251515152A5854545422000048
:102270000000000C1212120A76252911916E00003E
:10228000000606040300000000000000000000003B
:10229000004020101008080808080810102040000E
:1022A00000020408081010101010100808040200A2
:1022B0000000000008086B1C1C6B080800000000F0
:1022C00000000000080808087F080808080000004F
:1022D00000000000000000000000000006060403EB
:1022E0000000000000000000FE00000000000000F0
:1022F00000000000000000000000000006060000D2
:102300000000804040202010100808040402020051
:102310000000001824424242424242422418000077
:10232000000000080E08080808080808083E000019
:102330000000003C4242422020100804427E00007F
:102340000000003C4242201820404042221C000075
:10235000000000203028242422227E202078000043
:102360000000007E0202021A26404042221C0000A9
:10237000000000382402021A2642424224180000BB
:102380000000007E2222101008080808080800003B
:102390000000003C4242422418244242423C0000D9
:1023A000000000182442424264584040241C0000AF
:1023B00000000000000018180000000018180000BD
:1023C00000000000000000080000000000080804F1
:1023D0000000004020100804020408102040000003
:1023E0000000000000007F0000007F0000000000EF
:1023F0000000000204081020402010080402000021
:102400000000003C42424640201010001818000016
:102410000000001C225A555555552D42221C000023
:102420000000000808181414243C224242E700006F
:102430000000001F2222221E22424242221F0000D0
:102440000000007C4242010101010142221C000007
:102450000000001F2242424242424242221F00002C
:102460000000003F4212121E12120242423F0000C0
:102470000000003F4212121E121202020207000068
:102480000000003C2222010101712122221C0000D7
:10249000000000E7424242427E42424242E70000E0
:1024A0000000003E0808080808080808083E000068
:1024B0000000007C10101010101010101010110FE0
:1024C0000000007722120A0E0A1212222277000060
:1024D000000000070202020202020202427F000024
:1024E00000000077363636362A2A2A2A2A6B000060
:1024F000000000E346464A4A5252526262470000D8
:102500000000001C2241414141414141221C000088
:102510000000003F424242423E0202020207000027
:102520000000001C2241414141414D53321C6000DA
:102530000000003F4242423E1212222242C70000E7
:102540000000007C4242020418204042423E00004B
:102550000000007F4908080808080808081C000057
:10256000000000E74242424242424242423C0000F6
:10257000000000E742422224241414180808000036
:102580000000006B49494949555536222222000076
:10259000000000E7422424181818242442E7000011
:1025A000000000772222141408080808081C000004
:1025B0000000007E2120101008040442423F000069
:1025C00000780808080808080808080808087800BB
:1025D00000000202040408080810102020204040D7
:1025E000001E1010101010101010101010101E00EF
:1025F000003844000000000000000000000000005F
:10260000000000000000000000000000000000FFCB
:1026100000060800000000000000000000000000AC
:10262000000000000000003C4278444242FC0000F0
:10263000000000030202021A26424242261A00004B
:10264000000000000000003844020202443800008C
:1026500000000060404040784442424264D800009C
:10266000000000000000003C427E0202423C0000EC
:10267000000000F08808087E08080808083E0000EE
:10268000000000000000007C22221C023C42423C70
:10269000000000030202023A4642424242E70000C2
:1026A0000000000C0C00000E08080808083E00009E
:1026B0000000003030000038202020202020221E82
:1026C0000000000302020272120A161222770000B2
:1026D0000000000E0808080808080808083E000066
:1026E000000000000000007F9292929292B70000DA
:1026F000000000000000003B4642424242E700006A
:10270000000000000000003C42424242423C000007
:10271000000000000000001B26424242221E020769
:10272000000000000000007844424242447840E04B
:1027300000000000000000774C040404041F0000A7
:10274000000000000000007C42023C40423E0000CD
:10275000000000000008083E0808080808300000D3
:1027600000000000000000634242424262DC0000C0
:1027700000000000000000E74224241408080000C4
:1027800000000000000000EB4949555522220000DE
:10279000000000000000007624181818246E0000C5
:1027A00000000000000000E7422424141808080775
:1027B000000000000000007E22100808447E000097
:1027C00000C0202020202010202020202020C00019
:1027D00010101010101010101010101010101010F9
:1027E0000006080808080810080808080808060075
:1027F0000C32C200000000000000000000000000D9
:10280000FFFFFFFFFFFFFFFFFFFFFFFFFFFFFFFFD8
:10281000FFFFFFFFFFFFFFFFFFFFFFFFBEF77DEFA3
:10282000BAD6B6B5F39CB294B39CB29434A5F7BDB6
:10283000FBDE7DEFFFFFFFFFFFFFFFFFFFFFFFFF5F
:10284000FFFFFFFFFFFFFFFFFFFFFFFFFFFFFFFF98
:10285000FFFFFFFFFFFFFFFFFFFFFFFFFFFFFFFF88
:10286000FFFFFFFFFFFFFFFFBEF7FBDEF39CCB5A2E
:10287000C7390421821042104210410883184529AB
:10288000C7390C6375AD3CE7BEF7FFFFFFFFFFFFE5
:10289000FFFFFFFFFFFFFFFFFFFFFFFFFFFFFFFF48
:1028A000FFFFFFFFFFFFFFFFFFFFFFFFFFFFFFFF38
:1028B000FFFFFFFFFFFF3CE7B2940842C3188210FE
:1028C0000421452986318631863186314529042106
:1028D00082104108C3180842F39C3CE7FFFFFFFF4A
:1028E000FFFFFFFFFFFFFFFFFFFFFFFFFFFFFFFFF8
:1028F000FFFFFFFFFFFFFFFFFFFFFFFFFFFFFFFFE8
:10290000FFFFFFFFFBDE0C63C318C3184529C7395F
:10291000084208420842084208420842C739C739FB
:1029200086318631042141088210CB5ABAD6FFFF86
:10293000FFFFFFFFFFFFFFFFFFFFFFFFFFFFFFFFA7
:10294000FFFFFFFFFFFFFFFFFFFFFFFFFFFFFFFF97
:10295000FFFFFBDECB5A82104529C73908420842E7
:10296000094A494A494A494A494A494A0842C739EB
:10297000C739C7398631452983180000C84138C690
:10298000FFFFFFFFFFFFFFFFFFFFFFFFFFFFFFFF57
:10299000FFFFFFFFFFFFFFFFFFFFFFFFFFFFFFFF47
:1029A0007DEF8E7382104529C7390842094A8A5241
:1029B0003084CF7B8A52494A4A52494ACB5ACF7B0C
:1029C0000C630842C73986314529C3180000494ABB
:1029D000BAD6FFFFFFFFFFFFFFFFFFFFFFFFFFFF75
:1029E000FFFFFFFFFFFFFFFFFFFFFFFFFFFFFFFFF7
:1029F000F39CC3180421C7390842494A494A7294D2
:102A00007DEF7DEFB2944A52494A8A5275ADBEF7C6
:102A1000BAD64D6BC739C73986314529C318410825
:102A2000CF7B7CE7FFFFFFFFFFFFFFFFFFFFFFFF05
:102A3000FFFFFFFFFFFFFFFFFFFFFFFFFFFFBAD614
:102A400008428210C7390842494A494A8E73FBDE60
:102A5000FFFFBEF7BAD68E73084230843CE77DEFA5
:102A6000FFFFB6B5494AC7398631452904214108D7
:102A70004529B6B5FFFFFFFFFFFFFFFFFFFFFFFF89
:102A8000FFFFFFFFFFFFFFFFFFFFFFFFBEF7718CA0
:102A9000410845290842494A494A4A52B294BEF778
:102AA000BEF7B294CF7BCF7B494AB6B5F39C0C639B
:102AB00038C6BAD60C638739C73986314529C31859
:102AC000410830847DEFFFFFFFFFFFFFFFFFFFFFA7
:102AD000FFFFFFFFFFFFFFFFFFFFFFFF3CE7CB5ABA
:102AE0004108C7390842494A4A528A52F39CFFFFBB
:102AF0007DEFC739C3180C63CB5AB6B5B294CB5A25
:102B000075ADFAD64D6B8739C73986314529042111
:102B100041088A5279CEFFFFFFFFFFFFFFFFFFFF53
:102B2000FFFFFFFFFFFFFFFFFFFFFFFF38C68631FC
:102B30000421C841494A494A4A52494AB18CBEF720
:102B4000BEF7B294CF7BCF7B494A74A57DEF7CE77B
:102B5000BEF779CE0C63C739C739863145290421C0
:102B60008210452975ADBEF7FFFFFFFFFFFFFFFF96
:102B7000FFFFFFFFFFFFFFFFFFFFFFFF34A58210F6
:102B800086310842494A494A8A52494A4D6BBAD667
:102B9000FFFFFFFF79CE0D63C739CF7B7DEFFFFFCE
:102BA000FFFF75AD08428631C73986314529452971
:102BB000C318C318B2947DEFFFFFFFFFFFFFFFFFB5
:102BC000FFFFFFFFFFFFFFFFFFFFBEF7B28C4108D3
:102BD000C7390842494A494A8A528A524A4AD07BEE
:102BE0007AC67BBE906BC9398831C939B384BBC6FC
:102BF000F8B5CC5A8631C739C739863145294529B8
:102C0000C420410830843CE7FFFFFFFFFFFFFFFFC8
:102C1000FFFFFFFFFFFFFFFFFFFF3CE78A4AC310F4
:102C2000C7390842494A494A4A4A4A42093A084A7F
:102C3000096B497BC67A05834683C57AC672097BD0
:102C4000485A873188218829863186314529452986
:102C5000042141084A4ABAD6FFFFFFFFFFFFFFFFEA
:102C6000FFFFFFFFFFFFFFFFFFFFF7C5825005419A
:102C7000C7290842494A4A42494A097B889BC6B348
:102C800021D4A0DCE1E461ED61ED21EDA0E420DCE4
:102C900080CB43ABC482065A4721462945290429E3
:102CA000041982108218F39C7DEFFFFFFFFFFFFFE6
:102CB000FFFFFFFFFFFFFFFF7DEF4D9300A082B8F6
:102CC000C7310932494A867A43C36BEDF4F6EBFD0E
:102CD00020FD20FD60FDA0FDA0FD60FD60FD20FD4C
:102CE000E0FCA0FC60F4C1DB839AC54945290419C6
:102CF000C42082380050CB6ABAD6FFFFFFFFFFFF27
:102D0000FFFFFFFFFFFFFFFFFBEE04A100C000F08D
:102D1000C3A0C8414942059B20FCA4FC69FDE8FD15
:102D200063FD20FD60FD60FD60FD20FD20FDE0FCF9
:102D3000E0FCA0FC60FC20FC41D3C5494519C43827
:102D4000826841880070495A79CEFFFFFFFFFFFF7C
:102D5000FFFFFFFFFFFFFFFFFBF682C000D086C131
:102D600046F141C8457989528862866AC67AC4BBF1
:102D7000E1FC60FD60FDA0FDA0FD60FD60FDE0FCEC
:102D800060E403938472446AC5414529C35841A84D
:102D9000409800B000600C6B79CEFFFFFFFFFFFF93
:102DA000FFFFFFFFFFFF7DEFCE83828800F8C4D8CE
:102DB0000CF38AFA82E882B04569C7510842083AA2
:102DC000865A839BA2BC22CD21CDA1C422B4C47A51
:102DD000063A862945290531C450419000C000A813
:102DE00000A000A800304A4ABAD6FFFFFFFFFFFF4D
:102DF000FFFFFFFF7DEF8E73C318053982A800F82F
:102E0000C3F84DFB4DFBC7F9C3F082D8C3B00481B2
:102E100045614651864986494641454145414541BE
:102E200005490461829041B000D000C800A800A804
:102E300000B8415882108210B294BEF7FFFFFFFF26
:102E4000FFFFBEF7CF7B82100421862986410499BB
:102E500040E841F886F9CBFA49FA82F800F800F028
:102E600000E841D841D041C041C041C041C041C843
:102E700000D000E000E000D800D000B800A84188F1
:102E80008248821082100000452979CEFFFFFFFFA3
:102E9000BEF7F39C8210C31845298631C731307CB8
:102EA000F3DC86E100F000F841F841F800F800F8A2
:102EB00000F800F800F800F800F800F800F800F852
:102EC00000E800E000E000D800C841A08A9A0C6346
:102ED000041182108210410800004D6B7DEFFFFF4E
:102EE000FBDE08424210452986318631494A38BE08
:102EF000FFFF38D686A900C800E000F000F800F80F
:102F000000F800F800F800F800F800F800F000F011
:102F100000E800E000D0C3988A8AB2A4BAC6F7B528
:102F2000084241088210410800004529F7BDFFFF13
:102F3000718C410804214529863186310C633CE7B8
:102F4000FFFF79D646B900E042C882A882B041D8D6
:102F500082E882F041E841E841E841F041E841D8A7
:102F600004C108924D8B34A5FBC6FBD6BACE3CE714
:102F70003084C3184108410800004108CF7B7DEF31
:102F8000494A000004214529463186313084FFFF3B
:102F9000FFF7F7DD09DA83F801F042C08298499A19
:102FA000F3B4F3CC71BC8EBB8EBB30BC71BCF3BC34
:102FB000B6BDFBCEBEE77DE73BDFBAD679CEFBDE02
:102FC00075AD86314108410800000000494AFBDE2A
:102FD000042141080421452945298739B294FFFF7E
:102FE000BEF734DD0CEB09FA00F001D800D88BD223
:102FF0007DE7FFFFFFFFFFFFFFFFFFFFFFFFFFFF7B
:10300000FFFFBEFF7DEFFBDEFBDEBAD679CEBAD680
:1030100078C6C7390000410800000000C73979CEE2
:1030200000008210C318042105298631B39CFFFFDC
:10303000FFF775DDC7E9C7F901F801F000E849E2DB
:10304000FBEEFFFFFFFFFFFFFFFFFFFFFFFFFFFFA5
:10305000FFFFBEF77DEFFBDEFBDEBAD679CEBAD638
:10306000B9CE08420000000000000000C73938C691
:103070000000821082100421042145293084FFFFC2
:10308000FFFF38DEC4D000F001F800F800F008D2ED
:10309000FBE6FFFFFFFFFFFFFFFFFFFFFFFFFFFF5D
:1030A000FFFFBEF77DEFFBDEBAD679CE79CEBAD67A
:1030B00079CEC7394108000000000000863138C6CB
:1030C00000000000C318CB5A8631C318CB5A7DEFDD
:1030D000FFFF7DEFCFBBC3B041D041D082B84DB32D
:1030E0007DE7FFFFFFFFFFFFFFFFFFFFFFFFFFFF8A
:1030F000BEF7BEF73DEFFBDEBAD679CE79CEFAD673
:10310000F7BD04218631042100000000863138C655
:103110008631C318CB5A75ADCF7B41088631F7BDD8
:10312000FFFFFFFFBEEF74B5309C309C72A4BBD68E
:10313000FFFFFFFFFFFFFFFFFFFFFFFFFFFFFFFF9F
:10314000BEF77DEF3CE7FBDEBAD679CE79CE3CE721
:10315000718C81080C63CF7B821000008A5238C6C4
:1031600075AD718CB6B53CE7FBDEC7390000CF7397
:10317000FFFFFFFFFFFFFFFFFFFFFFFFFFFFFFFF5F
:10318000FFFFFFFFFFFFFFFFFFFFFFFFFFFFBEF798
:103190007DEF7DEF3BDFFAD679CE79CEFBDEB9CE7F
:1031A000C739C420718CBAD6718CCB5AB294BAD6B6
:1031B000FFFF7DEF7DEFFFFFFFFFB6B54629051945
:1031C00075A5FFFFFFFFFFFFFFFFFFFFFFFFFFFFF3
:1031D000FFFFFFFFFFFFFFFFFFFFFFFFFFFFBEF748
:1031E0007DEF3CE7FBDEBAD679CEBAD6FCDE4E6385
:1031F00042080C63F7BDBEF7FFFFFBDEFBDEBEF748
:10320000FFFFFFFFFFFFFFFFFFFFFFFFF49C042115
:103210000521B6A5FFFFFFFFFFFFFFFFFFFFFFFF39
:10322000FFFFFFFFFFFFFFFFFFFFBEF7BEF77DEFD2
:103230003CE7FBDEBAD679CEFBDEBBD6D173831872
:103240008639349DBDEFFFFFFFFFFFFFFFFFFFFF4C
:10325000FFFFFFFFFFFFFFFFBEFF35D6EBCC43B301
:1032600040510519F58CBEEFFFFFFFFFFFFFFFFF89
:10327000FFFFFFFFFFFFBEF7BEF77DEF7DEF3CE7EF
:10328000FBDEBADEBAD63CDF3ABE4F63824940A3CA
:1032900023B4CC833ABEFFFFFFFFFFFFFFFFFFFF1A
:1032A000FFFFFFFFFFFFBFF7B5BD829220F4A0FC38
:1032B00060E4408284418F6B77AD3DE7FFFFFFFF05
:1032C000FEFFBEF7BEF7BEF77DEF7DEF3CE7FBDE0E
:1032D000FBDE3DE7BBCE369D0B6B416A60C420FE32
:1032E00060F5008BC76A38C6BEF7FFFFFFFFFFFF20
:1032F000FFFFFFFFFFFF7DEF4B7B80B2A0FCA0FC38
:10330000E0FCE0FCC0CBC18A45624D6BB394F7BDD5
:103310003DDFFFF7FFFFBEF77DEF7DEF7DE73DDF90
:10332000BAC675A58D7B847A40B3E0ECE0FDE0FD84
:1033300060F520E5A0D40A6BFBDEFFFFFFFFFFFF77
:10334000FFFFFFFFFFFF7DEFCC9340EB60FCA0FC95
:10335000E0FC20FD60FD20F5A0D4C0BB429B458B66
:103360006B9CAE9C718CB394339D34A5F2A4F0B4E5
:10337000CA9B049B40BB20E420FDA0FDA0FDE0FD16
:10338000E0FDE0FD20C4885A38BEFFFFFFFFFFFFCD
:10339000FFFFFFFFFFFFFFFF78D646AB40DB20F4C7
:1033A00060FCA0FCE0FC60FDA0FD60FD20F5A0DC61
:1033B000C0B3C05186290D638F7B0D5BC74101826D
:1033C00000C3C0E360FCA0FCE0FCE0FC60F560F53D
:1033D00020E5809B8662308479CEFFFFFFFFFFFFF0
:1033E000FFFFFFFFFFFFFFFFFFFF38C62D9C059388
:1033F00043A382B3C2BBC2BB22B482A34293C37AAB
:1034000085620B637184B6B579CE79C6B5AD70941B
:103410004A8B06830493049B439B439B43930483FF
:1034200008738D73B39479CE7DEFFFFFFFFFFFFF2D
:10343000FFFFFFFFFFFFFFFFFFFFFFFF3CDF38BE87
:1034400075B533A533A5F39CF39CF39CF394F39CDF
:1034500035A5F8BDFBDEBEF7FFFFFFFFFFFF7EEFE8
:10346000BBD6F8BDB6AD75AD34A5339D349D35A53D
:10347000B7AD79C63CE7BEF7FFFFFFFFFFFFFFFFD9
:103480000000000000000000010203040607080914
:103490000000000001020304B8340008000000200E
:1034A0005C130000B4010008503F00085C130020CA
:1034B000A4100000E8200008B20001100808001065
:1034C0000018006004100AE0001808C0F8FF1FC0D0
:1034D0001010090000180600E0FF0F081300401C40
:1034E000100AFE001818C0FCFF3FC01A1104700A31
:1034F00002C0C0FF07C04000060421101248081295
:10350000440C12C20C12430C5005410006E024107A
:10351000080040F00300408004A300017E124080B8
:103520001004C0013854121C8420302C006008465E
:1035300000FE1FC600200083013080810390C0C2BE
:103540000E9063FD7D98310018882908008CE51FD6
:1035500018FC7F8C0884618C08800443E18F08216B
:103560000C111812FC10628C103104520C04E00C87
:103570008C0F80610E0E802104040001120C891250
:103580003CD94260DD2300800442010453C003049F
:10359000120220520604114343300C0416182C1357
:1035A0000C3804100530000006411303E0371013F7
:1035B000C001800080034000000F2000003E10008A
:1035C000001C2A0004110802000192406C200880AF
:1035D0000108F0FFFF1F30100B1860200418C070A6
:1035E0000200CC5C301F8C1C00800C0E01400C03D0
:1035F0000660CC210C70EC201C303C2008000E60D2
:1036000000C0F97FBB61B45005C080010304B20162
:103610000427FFFF786104C1841408180004FCFF2C
:10362000FF0FD8420604400806024000030260046F
:1036300013032004200730040303F00F08101401C3
:1036400003380401113884FF3F34040110340400AE
:10365000103204200D300400183004801930E4FFCB
:103660001B0C23F00710111414070C000830002065
:103670001E1AC04C1300070405130701320112E0A3
:103680000452F004021DE020021A6049140B40822B
:1036900001E0FFC201006064D81011140460300C16
:1036A0000EC019080680091801800D62140C066C02
:1036B0000000FBDF018001800720240B3E20014039
:1036C0001C18FFFF0004E2A10443FF7F102D5703E5
:1036D0004B04301429201408380800001004186422
:1036E0000A123F01159C59099104214C8110413C5B
:1036F00015E01640E4181C808003038083830700D4
:1037000087C501008765000086190000C209000016
:10371000B0112C1C0C310000876100C081C1017800
:103720004003340D3C80011F1884013E08F8010C51
:1037300011FA40FE2D10031B0EF8785E00DD032108
:103740007F1B8020C2193419CC720004C381C104CC
:103750000310C1C0041E402C031407601C0000703D
:10376000704C140FE00100188007000E000F0003DA
:10377000000EB00F100C1C02031D1F03330038E0B5
:1037800056C0B52D88031D39031C051020000410F8
:1037900003B0060F30100C0404F004F00F04140101
:1037A0001918114447073092DB0410244D37031ECB
:1037B00018840411041019400C08E0FFFC1F2002BB
:1037C00042003006C10018C4800104848100102129
:1037D0001D9803373F10CE2C09400C1CFFFF04003E
:1037E00003EC03510435F82110154E1203522D6CD1
:1037F000031E034E03A10425E431140D150404E057
:103800000ACCFF1FFCDF300C80C00473FF0F0C805C
:1038100004CC300C245118134030C451041230240D
:103820001ECEC00510050330007814121C041208C7
:103830000419D50804121000FC7C550212FEB08E4B
:1038400006FE03710443FEFF144DB9041A03101A57
:1038500007832004038081041984C381010463C1A8
:1038600000041D4C032D20051D3C031E3841051A84
:103870001C041102190EEA040015E71E049C041A28
:103880000FD8021606041120E2071452600412E059
:103890009492601052200412300C5210041C09083B
:1038A0008071070880C107B605EF030200056D802F
:1038B0000545BD2D9F041602C01A07B00217060465
:1038C0008120AC04020001BF0549505D430369C774
:1038D00039E15E186706ED04061620BAAC06C08012
:1038E000FF01C05C0315411700808032C0041C0832
:1038F0003F8060803FFC239403140611000180ED9B
:10390000842580230181044201041005C200802126
:10391000041C0F11640080097C00800538008007BA
:10392000188206110C1F01E631041FC307DD071CB6
:10393000043F0038EA06F6078025441E0FF404A26F
:10394000060435582DB8071DB30719612E068803E4
:103950002DF907228094A9E079D8011110C11C0823
:10396000041618FEFF840D1112042D90071E1EE18F
:10397000051804FFFF03004C0903F0C1010030C02B
:10398000019404210412C3D71114153B19DB1C0B3D
:10399000FF7FFEC3FF7F0EC0013EC903F200040F8C
:1039A0003080015D062D16052D18031FFEFFBA0499
:1039B0001179520C0432FC718110211C41281C0425
:1039C00001000FF8071C0907C001F803C001FE043D
:1039D0000872FC810D35E1062F076084054554C34C
:1039E0000770044F1F7C78042104E11C2120611C16
:1039F0000F3902205E074009E0011806E001FC0FC4
:103A000004100718EEFF7F18F6041C0537E03DF898
:103A1000CE0313F8C7142009C6E3011886E701187E
:103A20001051041F1804F8051E40FC032E80D80610
:103A300002357FFD1D70091E187F0A18120E3C000A
:103A4000C007F800FE03E003FE00C07F3C08C8107A
:103A500006FE011E00FEE013C071041261A71D8462
:103A600005127004163C181E1E08051C090F3800AC
:103A7000FEE31F00FC73082D7F060133FF240A308C
:103A80007000C87F7000F83F50137706041C240FA5
:103A90001807770EFC7F731C1C8773388087716052
:103AA000C08F7000E05F700C783F700C3E67700E46
:103AB0001C07F6081E07F0041C0A07F00100077E29
:103AC0000000E73F0B0F14E700F405059E805E063B
:103AD000AE091E8E7C051C04D8FF0FBC072207040C
:103AE000100CC0181807C0FC3F07C01C380C11048C
:103AF0002005F81F07E0041118210412700C1C06A1
:103B000078F83F073EFC0A21041DFA08520F4E05C3
:103B10002C801E0E49051E9CEC041E9C980A154E16
:103B20001C05C0810107C3051E0603091018068085
:103B3000FDFF06808D030680913B0680F93F0680DD
:103B4000B13306C091040C1734993307E09833075A
:103B5000F09C3307788833073C80030F1C80037484
:103B60000A1E0254031F037044052C077000C01F77
:103B70007000980B201778C0FF1F7EC07118FEDF01
:103B80007118E0C3711C00C3FF1FF8BF041004705C
:103B900000082C13002330193012803013C00F049A
:103BA00021405F007006060529FB9D780C2D000959
:103BB00021041F70C04E0A1C12D3310C309B390CEB
:103BC000A01BDC0D8039CE0080E17D081C11E00FC8
:103BD0003C007CFF3FE08FFD1FFEC3E10F3C28054A
:103BE0001F00C3140621045D3C050E1280F40B0176
:103BF0001F841C07800110C0FF01180A3F01F864F0
:103C0000061E83020A41041C17E0808301F0998399
:103C100001F89F8339DE88FF3FCE88013CC008EA67
:103C2000071C04EFFF394C061E39D5062DE7071D8A
:103C3000050A4C04E01F00F80B0D30FF035E018005
:103C40000A4303E004310C4EC0FC052D14051FC3CC
:103C5000031C051DB30A11A01EE0080616F02C2E49
:103C600090180646C13C1DD00A2E7F18061D8A0AF0
:103C70005E3F83070D2C7F031EC3BF041C12E3307D
:103C80000CF0FFFB1FF8FF3B1E00C3101C00FFCE13
:103C90000C1006F3F00F00C304210C22C3042F788C
:103CA0000E3C0D1C19FEFF1F0C0640180C00E31CF7
:103CB0001C80C30E1CC0810F1CE0E0071CB4065E14
:103CC0001CFB07D96020130202E43F0402C01F005E
:103CD00002E77F0400C41F4410041C2AD41F4C10A8
:103CE000441440080402040584085F10A46F020015
:103CF000CA23492A5F2AC82B582A4F2ACA2B48228E
:103D0000482A481320380C328002234001021C103C
:103D1000200220021004100408080408021001BB4D
:103D2000071E80230520130240412490021411D263
:103D3000283808E70F80008410022FFC1F6207104C
:103D400018801F3F100810081104113C11267F260F
:103D50004025402440A45F3C0607120428303E0C56
:103D6000270F41061D490B400802FC7E1209A110D5
:103D700066100CF9270804F8070800F80F0801215D
:103D800006194110083FBF248824883F04100424EA
:103D9000BE3F97130488063C0638040704C2930408
:103DA000612C10050000FC1FB9319A1C0A841040D8
:103DB00003200C181007370F63FC1FAEC108400723
:103DC000821082140108FE13F81FC23102310A1D4D
:103DD000CC101E08B9073E04B10A1425840F8808C8
:103DE0008808800840702F00C81F881088080809BC
:103DF000280518020805C0183060FE3F2222FE3F49
:103E000024110421B6A1043D7B0D100B1000103EBF
:103E1000102210A27F2206110A1004112212023170
:103E200014140A001400080400C83F08753004E2A6
:103E30002322018108158916288B100D00E83F0008
:103E40002042208220FA2F82061005F227922402B7
:103E500010042592220E1120251024083C0404048D
:103E6000823FBD263724BF2A100608042804181AEA
:103E7000073E0004C0251EA00BFE3FA00290048C4C
:103E8000188360E25D5B0E131FFE221C04FC1F40C2
:103E900045081E200212300CF80F1408F20F11080A
:103EA000F00F1004013EC01D1A0B1015023F3E0812
:103EB000218810447F3C492649267F2549244924EE
:103EC0000C100CA448845040200002040208022177
:103ED00028220F0A220502200BA808980848102063
:103EE0002010401C10190802C87F18012A090A096D
:103EF0008A48894A882A48094814281408225626DC
:103F000040EC5408F83F0400FA0F09B81C092000DF
:103F1000F00F180426024E121E0E0109180D047F20
:103F20001449246B245D04C97F7F7C1104000E1E9C
:103F30000A780A070A401155119520414080ED404A
:103F4000030D13A304AD59043F24F4D7100000005F
:0400000508000131BD
:00000001FF
