Component: ARM Compiler 6.13.1 Tool: armlink [5d895400]

==============================================================================

Section Cross References

    main.o(.text.main) refers to drv_sysclk.o(.text.SystemClockConfig) for SystemClockConfig
    main.o(.text.main) refers to drv_systick.o(.text.Drv_SysTick_Config) for Drv_SysTick_Config
    main.o(.text.main) refers to drv_lcd_init.o(.text.LCD_Init) for LCD_Init
    main.o(.text.main) refers to drv_lcd.o(.text.LCD_Fill) for LCD_Fill
    main.o(.text.main) refers to drv_cst816s.o(.text.CST816S_Init) for CST816S_Init
    main.o(.text.main) refers to drv_lcd.o(.text.LCD_ShowChinese) for LCD_ShowChinese
    main.o(.text.main) refers to drv_lcd.o(.text.LCD_ShowString) for LCD_ShowString
    main.o(.text.main) refers to drv_lcd.o(.text.LCD_ShowIntNum) for LCD_ShowIntNum
    main.o(.text.main) refers to drv_lcd.o(.text.LCD_ShowFloatNum1) for LCD_ShowFloatNum1
    main.o(.text.main) refers to f2d.o(x$fpl$f2d) for __aeabi_f2d
    main.o(.text.main) refers to daddsub_clz.o(x$fpl$dadd) for __aeabi_dadd
    main.o(.text.main) refers to d2f.o(x$fpl$d2f) for __aeabi_d2f
    main.o(.text.main) refers to drv_cst816s.o(.text.CST816S_test) for CST816S_test
    main.o(.ARM.exidx.text.main) refers to main.o(.text.main) for [Anonymous Symbol]
    drv_led.o(.text.Drv_LED_Init) refers to hal_rcc.o(.text.RCC_EnableAHB1Periphs) for RCC_EnableAHB1Periphs
    drv_led.o(.text.Drv_LED_Init) refers to hal_gpio.o(.text.GPIO_Init) for GPIO_Init
    drv_led.o(.text.Drv_LED_Init) refers to hal_gpio.o(.text.GPIO_WriteBit) for GPIO_WriteBit
    drv_led.o(.ARM.exidx.text.Drv_LED_Init) refers to drv_led.o(.text.Drv_LED_Init) for [Anonymous Symbol]
==============================================================================

Removing Unused input sections from the image.

    Removing main.o(.text), (0 bytes).
    Removing main.o(.ARM.exidx.text.main), (8 bytes).
    Removing main.o(.ARM.use_no_argv), (4 bytes).
    Removing drv_led.o(.text), (0 bytes).
    Removing drv_led.o(.text.Drv_LED_Init), (48 bytes).
    Removing drv_led.o(.ARM.exidx.text.Drv_LED_Init), (8 bytes).
    Removing drv_led.o(.text.Drv_LED_Write), (20 bytes).
    Removing drv_led.o(.ARM.exidx.text.Drv_LED_Write), (8 bytes).
    Removing drv_sysclk.o(.text), (0 bytes).
    Removing drv_sysclk.o(.ARM.exidx.text.SystemClockConfig), (8 bytes).
    Removing drv_sysclk.o(.ARM.exidx.text.update_systemclock), (8 bytes).
    Removing drv_sysclk.o(.ARM.exidx.text.update_ahb_clock), (8 bytes).
    Removing drv_sysclk.o(.ARM.exidx.text.update_apb1_clock), (8 bytes).
    Removing drv_sysclk.o(.ARM.exidx.text.update_apb2_clock), (8 bytes).
    Removing drv_sysclk.o(.ARM.exidx.text.HAL_GetSysClockFreq), (8 bytes).
    Removing drv_sysclk.o(.text.HAL_Get_AHB_Clock), (12 bytes).
    Removing drv_sysclk.o(.ARM.exidx.text.HAL_Get_AHB_Clock), (8 bytes).
    Removing drv_sysclk.o(.text.HAL_Get_APB1_Clock), (12 bytes).
==============================================================================

Image Symbol Table

    Local Symbols

    Symbol Name                              Value     Ov Type        Size  Object(Section)

    ../clib/angel/boardlib.s                 0x00000000   Number         0  boardinit1.o ABSOLUTE
    ../clib/angel/boardlib.s                 0x00000000   Number         0  boardinit2.o ABSOLUTE
    ../clib/angel/boardlib.s                 0x00000000   Number         0  boardinit3.o ABSOLUTE
    ../clib/angel/boardlib.s                 0x00000000   Number         0  boardshut.o ABSOLUTE
    ../clib/angel/handlers.s                 0x00000000   Number         0  __scatter_copy.o ABSOLUTE
    ../clib/angel/handlers.s                 0x00000000   Number         0  __scatter_zi.o ABSOLUTE
    ../clib/angel/kernel.s                   0x00000000   Number         0  __rtentry.o ABSOLUTE
    ../clib/angel/kernel.s                   0x00000000   Number         0  __rtentry2.o ABSOLUTE
    ../clib/angel/kernel.s                   0x00000000   Number         0  __rtentry4.o ABSOLUTE
    ../clib/angel/kernel.s                   0x00000000   Number         0  __rtentry7.o ABSOLUTE
    ../clib/angel/kernel.s                   0x00000000   Number         0  rtexit.o ABSOLUTE
    ../clib/angel/kernel.s                   0x00000000   Number         0  rtexit2.o ABSOLUTE
    ../clib/angel/rt.s                       0x00000000   Number         0  rt_raise.o ABSOLUTE
    ../clib/angel/scatter.s                  0x00000000   Number         0  __scatter.o ABSOLUTE
    ../clib/angel/startup.s                  0x00000000   Number         0  __main.o ABSOLUTE
    ../clib/angel/sys.s                      0x00000000   Number         0  sys_stackheap_outer.o ABSOLUTE
    ../clib/angel/sys.s                      0x00000000   Number         0  libspace.o ABSOLUTE
    ../clib/angel/sys.s                      0x00000000   Number         0  sys_stackheap.o ABSOLUTE
    ../clib/angel/sys.s                      0x00000000   Number         0  sys_stackheap_hlt.o ABSOLUTE
    ../clib/angel/sys.s                      0x00000000   Number         0  use_no_semi.o ABSOLUTE
    ../clib/angel/sys.s                      0x00000000   Number         0  indicate_semi.o ABSOLUTE
    ../clib/angel/sysapp.c                   0x00000000   Number         0  sys_exit.o ABSOLUTE
    ../clib/angel/sysapp.c                   0x00000000   Number         0  sys_exit_hlt.o ABSOLUTE
    ../clib/angel/sysapp.c                   0x00000000   Number         0  sys_command.o ABSOLUTE
    ../clib/angel/sysapp.c                   0x00000000   Number         0  sys_command_hlt.o ABSOLUTE
    ../clib/angel/sysapp.c                   0x00000000   Number         0  sys_wrch.o ABSOLUTE
    ../clib/angel/sysapp.c                   0x00000000   Number         0  sys_wrch_hlt.o ABSOLUTE
    ../clib/armsys.c                         0x00000000   Number         0  argv_veneer.o ABSOLUTE
    ../clib/armsys.c                         0x00000000   Number         0  argv_veneer.o ABSOLUTE
    ../clib/armsys.c                         0x00000000   Number         0  _get_argv_nomalloc.o ABSOLUTE
    ../clib/armsys.c                         0x00000000   Number         0  no_argv.o ABSOLUTE
    ../clib/heapalloc.c                      0x00000000   Number         0  hrguard.o ABSOLUTE
    ../clib/libinit.s                        0x00000000   Number         0  libinit.o ABSOLUTE
    ../clib/libinit.s                        0x00000000   Number         0  libinit2.o ABSOLUTE
    ../clib/libinit.s                        0x00000000   Number         0  libinit5.o ABSOLUTE
    ../clib/libinit.s                        0x00000000   Number         0  libshutdown.o ABSOLUTE
    ../clib/libinit.s                        0x00000000   Number         0  libshutdown2.o ABSOLUTE
    ../clib/signal.c                         0x00000000   Number         0  defsig_rtmem_outer.o ABSOLUTE
    ../clib/signal.c                         0x00000000   Number         0  defsig_rtmem_formal.o ABSOLUTE
    ../clib/signal.c                         0x00000000   Number         0  defsig_exit.o ABSOLUTE
    ../clib/signal.c                         0x00000000   Number         0  defsig_rtmem_inner.o ABSOLUTE
    ../clib/signal.c                         0x00000000   Number         0  __raise.o ABSOLUTE
    ../clib/signal.c                         0x00000000   Number         0  defsig_general.o ABSOLUTE
    ../clib/signal.c                         0x00000000   Number         0  defsig_abrt_inner.o ABSOLUTE
    ../clib/signal.c                         0x00000000   Number         0  defsig_fpe_inner.o ABSOLUTE
    ../clib/signal.c                         0x00000000   Number         0  defsig_rtred_inner.o ABSOLUTE
    ../clib/signal.c                         0x00000000   Number         0  defsig_stak_inner.o ABSOLUTE
    ../clib/signal.c                         0x00000000   Number         0  defsig_pvfn_inner.o ABSOLUTE
    ../clib/signal.c                         0x00000000   Number         0  defsig_cppl_inner.o ABSOLUTE
    ../clib/signal.c                         0x00000000   Number         0  defsig_segv_inner.o ABSOLUTE
    ../clib/signal.c                         0x00000000   Number         0  defsig_other.o ABSOLUTE
    ../clib/signal.s                         0x00000000   Number         0  defsig.o ABSOLUTE
    ../clib/stdlib.c                         0x00000000   Number         0  exit.o ABSOLUTE
    ../fplib/d2f.s                           0x00000000   Number         0  d2f.o ABSOLUTE
    ../fplib/daddsub.s                       0x00000000   Number         0  daddsub_clz.o ABSOLUTE
    ../fplib/dnaninf.s                       0x00000000   Number         0  dnaninf.o ABSOLUTE
    ../fplib/dretinf.s                       0x00000000   Number         0  dretinf.o ABSOLUTE
    ../fplib/f2d.s                           0x00000000   Number         0  f2d.o ABSOLUTE
    ../fplib/ffix.s                          0x00000000   Number         0  ffix.o ABSOLUTE
    ../fplib/fmul.s                          0x00000000   Number         0  fmul.o ABSOLUTE
    ../fplib/fnaninf.s                       0x00000000   Number         0  fnaninf.o ABSOLUTE
    ../fplib/fpinit.s                        0x00000000   Number         0  fpinit.o ABSOLUTE
    ../fplib/fpinit_empty.s                  0x00000000   Number         0  fpinit_empty.o ABSOLUTE
    ../fplib/fretinf.s                       0x00000000   Number         0  fretinf.o ABSOLUTE
    ../fplib/usenofp.s                       0x00000000   Number         0  usenofp.o ABSOLUTE
    ..\3_MM32F327x\mdk\startup_mm32f3277g.s  0x00000000   Number         0  startup_mm32f3277g.o ABSOLUTE
    dc.s                                     0x00000000   Number         0  dc.o ABSOLUTE
    drv_cst816s.c                            0x00000000   Number         0  drv_cst816s.o ABSOLUTE
    drv_ctiic.c                              0x00000000   Number         0  drv_ctiic.o ABSOLUTE
    drv_lcd.c                                0x00000000   Number         0  drv_lcd.o ABSOLUTE
    drv_lcd_init.c                           0x00000000   Number         0  drv_lcd_init.o ABSOLUTE
    drv_led.c                                0x00000000   Number         0  drv_led.o ABSOLUTE
    drv_sysclk.c                             0x00000000   Number         0  drv_sysclk.o ABSOLUTE
    drv_systick.c                            0x00000000   Number         0  drv_systick.o ABSOLUTE
    drv_uart.c                               0x00000000   Number         0  drv_uart.o ABSOLUTE
    hal_adc.c                                0x00000000   Number         0  hal_adc.o ABSOLUTE
    hal_comp.c                               0x00000000   Number         0  hal_comp.o ABSOLUTE
    hal_dac.c                                0x00000000   Number         0  hal_dac.o ABSOLUTE
    hal_dma.c                                0x00000000   Number         0  hal_dma.o ABSOLUTE
    hal_exti.c                               0x00000000   Number         0  hal_exti.o ABSOLUTE
    hal_fsmc.c                               0x00000000   Number         0  hal_fsmc.o ABSOLUTE
    hal_gpio.c                               0x00000000   Number         0  hal_gpio.o ABSOLUTE
    hal_i2c.c                                0x00000000   Number         0  hal_i2c.o ABSOLUTE
    hal_iwdg.c                               0x00000000   Number         0  hal_iwdg.o ABSOLUTE
    hal_rcc.c                                0x00000000   Number         0  hal_rcc.o ABSOLUTE
    hal_rtc.c                                0x00000000   Number         0  hal_rtc.o ABSOLUTE
    hal_sdio.c                               0x00000000   Number         0  hal_sdio.o ABSOLUTE
    hal_spi.c                                0x00000000   Number         0  hal_spi.o ABSOLUTE
    hal_syscfg.c                             0x00000000   Number         0  hal_syscfg.o ABSOLUTE
    hal_tim_16b.c                            0x00000000   Number         0  hal_tim_16b.o ABSOLUTE
    hal_tim_32b.c                            0x00000000   Number         0  hal_tim_32b.o ABSOLUTE
    hal_tim_adv.c                            0x00000000   Number         0  hal_tim_adv.o ABSOLUTE
    hal_tim_basic.c                          0x00000000   Number         0  hal_tim_basic.o ABSOLUTE
    hal_uart.c                               0x00000000   Number         0  hal_uart.o ABSOLUTE
    hal_usb.c                                0x00000000   Number         0  hal_usb.o ABSOLUTE
    hal_wwdg.c                               0x00000000   Number         0  hal_wwdg.o ABSOLUTE
    main.c                                   0x00000000   Number         0  main.o ABSOLUTE
    system_mm32f3277g.c                      0x00000000   Number         0  system_mm32f3277g.o ABSOLUTE
    RESET                                    0x08000000   Section      400  startup_mm32f3277g.o(RESET)
    !!!main                                  0x08000400   Section        8  __main.o(!!!main)
    !!!scatter                               0x08000408   Section       52  __scatter.o(!!!scatter)
    !!handler_copy                           0x0800043c   Section       26  __scatter_copy.o(!!handler_copy)
    !!handler_zi                             0x08000458   Section       28  __scatter_zi.o(!!handler_zi)
    .ARM.Collect$$libinit$$00000000          0x08000474   Section        2  libinit.o(.ARM.Collect$$libinit$$00000000)
    .ARM.Collect$$libinit$$00000002          0x08000476   Section        0  libinit2.o(.ARM.Collect$$libinit$$00000002)
    .ARM.Collect$$libinit$$00000004          0x08000476   Section        0  libinit2.o(.ARM.Collect$$libinit$$00000004)
    .ARM.Collect$$libinit$$0000000A          0x08000476   Section        0  libinit2.o(.ARM.Collect$$libinit$$0000000A)
    .ARM.Collect$$libinit$$0000000C          0x08000476   Section        0  libinit2.o(.ARM.Collect$$libinit$$0000000C)
    .ARM.Collect$$libinit$$0000000E          0x08000476   Section        0  libinit2.o(.ARM.Collect$$libinit$$0000000E)
    .ARM.Collect$$libinit$$00000011          0x08000476   Section        0  libinit2.o(.ARM.Collect$$libinit$$00000011)
    .ARM.Collect$$libinit$$00000013          0x08000476   Section        0  libinit2.o(.ARM.Collect$$libinit$$00000013)
    .ARM.Collect$$libinit$$00000015          0x08000476   Section        0  libinit2.o(.ARM.Collect$$libinit$$00000015)
    .ARM.Collect$$libinit$$00000017          0x08000476   Section        0  libinit2.o(.ARM.Collect$$libinit$$00000017)
    .ARM.Collect$$libinit$$00000019          0x08000476   Section        0  libinit2.o(.ARM.Collect$$libinit$$00000019)
    .ARM.Collect$$libinit$$0000001B          0x08000476   Section        0  libinit2.o(.ARM.Collect$$libinit$$0000001B)
    .ARM.Collect$$libinit$$0000001D          0x08000476   Section        0  libinit2.o(.ARM.Collect$$libinit$$0000001D)
    .ARM.Collect$$libinit$$0000001F          0x08000476   Section        0  libinit2.o(.ARM.Collect$$libinit$$0000001F)
    .ARM.Collect$$libinit$$00000021          0x08000476   Section        0  libinit2.o(.ARM.Collect$$libinit$$00000021)
    .ARM.Collect$$libinit$$00000023          0x08000476   Section        0  libinit2.o(.ARM.Collect$$libinit$$00000023)
    .ARM.Collect$$libinit$$00000025          0x08000476   Section        0  libinit2.o(.ARM.Collect$$libinit$$00000025)
    .ARM.Collect$$libinit$$0000002C          0x08000476   Section        0  libinit2.o(.ARM.Collect$$libinit$$0000002C)
    .ARM.Collect$$libinit$$0000002E          0x08000476   Section        0  libinit2.o(.ARM.Collect$$libinit$$0000002E)
    .ARM.Collect$$libinit$$00000030          0x08000476   Section        0  libinit2.o(.ARM.Collect$$libinit$$00000030)
    .ARM.Collect$$libinit$$00000032          0x08000476   Section        0  libinit2.o(.ARM.Collect$$libinit$$00000032)
    .ARM.Collect$$libinit$$00000033          0x08000476   Section        2  libinit2.o(.ARM.Collect$$libinit$$00000033)
    .ARM.Collect$$libshutdown$$00000000      0x08000478   Section        2  libshutdown.o(.ARM.Collect$$libshutdown$$00000000)
    .ARM.Collect$$libshutdown$$00000002      0x0800047a   Section        0  libshutdown2.o(.ARM.Collect$$libshutdown$$00000002)
    .ARM.Collect$$libshutdown$$00000004      0x0800047a   Section        0  libshutdown2.o(.ARM.Collect$$libshutdown$$00000004)
    .ARM.Collect$$libshutdown$$00000007      0x0800047a   Section        0  libshutdown2.o(.ARM.Collect$$libshutdown$$00000007)
    .ARM.Collect$$libshutdown$$0000000A      0x0800047a   Section        0  libshutdown2.o(.ARM.Collect$$libshutdown$$0000000A)
    .ARM.Collect$$libshutdown$$0000000C      0x0800047a   Section        0  libshutdown2.o(.ARM.Collect$$libshutdown$$0000000C)
    .ARM.Collect$$libshutdown$$0000000F      0x0800047a   Section        0  libshutdown2.o(.ARM.Collect$$libshutdown$$0000000F)
    .ARM.Collect$$libshutdown$$00000010      0x0800047a   Section        2  libshutdown2.o(.ARM.Collect$$libshutdown$$00000010)
    .ARM.Collect$$rtentry$$00000000          0x0800047c   Section        0  __rtentry.o(.ARM.Collect$$rtentry$$00000000)
    .ARM.Collect$$rtentry$$00000002          0x0800047c   Section        0  __rtentry2.o(.ARM.Collect$$rtentry$$00000002)
    .ARM.Collect$$rtentry$$00000007          0x0800047c   Section        4  __rtentry7.o(.ARM.Collect$$rtentry$$00000007)
    .ARM.Collect$$rtentry$$00000009          0x08000480   Section        0  __rtentry2.o(.ARM.Collect$$rtentry$$00000009)
    .ARM.Collect$$rtentry$$0000000A          0x08000480   Section        4  __rtentry2.o(.ARM.Collect$$rtentry$$0000000A)
    .ARM.Collect$$rtentry$$0000000C          0x08000484   Section        0  __rtentry2.o(.ARM.Collect$$rtentry$$0000000C)
    .ARM.Collect$$rtentry$$0000000D          0x08000484   Section        8  __rtentry2.o(.ARM.Collect$$rtentry$$0000000D)
    __lit__00000000                          0x0800048c   Data           4  __rtentry7.o(.ARM.Collect$$rtentry$$00002718)
    .ARM.Collect$$rtentry$$00002718          0x0800048c   Section        4  __rtentry7.o(.ARM.Collect$$rtentry$$00002718)
    .ARM.Collect$$rtexit$$00000000           0x08000490   Section        2  rtexit.o(.ARM.Collect$$rtexit$$00000000)
    .ARM.Collect$$rtexit$$00000002           0x08000492   Section        0  rtexit2.o(.ARM.Collect$$rtexit$$00000002)
    .ARM.Collect$$rtexit$$00000003           0x08000492   Section        4  rtexit2.o(.ARM.Collect$$rtexit$$00000003)
    .ARM.Collect$$rtexit$$00000004           0x08000496   Section        6  rtexit2.o(.ARM.Collect$$rtexit$$00000004)
    .text                                    0x0800049c   Section       36  startup_mm32f3277g.o(.text)
    .text                                    0x080004c0   Section        0  exit.o(.text)
    .text                                    0x080004d2   Section        2  use_no_semi.o(.text)
    .text                                    0x080004d4   Section        0  indicate_semi.o(.text)
    .text                                    0x080004d4   Section        0  sys_exit.o(.text)
    [Anonymous Symbol]                       0x080004e0   Section        0  drv_cst816s.o(.text.CST816S_Init)
    [Anonymous Symbol]                       0x08000548   Section        0  drv_cst816s.o(.text.CST816S_RD_DATA)
    [Anonymous Symbol]                       0x08000598   Section        0  drv_cst816s.o(.text.CST816S_Scan)
    [Anonymous Symbol]                       0x080006c4   Section        0  drv_cst816s.o(.text.CST816S_WR_DATA)
    [Anonymous Symbol]                       0x080006f4   Section        0  drv_cst816s.o(.text.CST816S_test)
    [Anonymous Symbol]                       0x08000790   Section        0  drv_ctiic.o(.text.CTP_GPIOInit)
    [Anonymous Symbol]                       0x080007fc   Section        0  drv_ctiic.o(.text.CTP_IICAck)
    [Anonymous Symbol]                       0x08000840   Section        0  drv_ctiic.o(.text.CTP_IICNack)
    [Anonymous Symbol]                       0x08000884   Section        0  drv_ctiic.o(.text.CTP_IIC_Start)
    [Anonymous Symbol]                       0x080008c4   Section        0  drv_ctiic.o(.text.CTP_IIC_Stop)
    [Anonymous Symbol]                       0x080008fc   Section        0  drv_ctiic.o(.text.CTP_INT_IN)
    [Anonymous Symbol]                       0x08000930   Section        0  drv_ctiic.o(.text.CTP_ReadByte)
    [Anonymous Symbol]                       0x08000980   Section        0  drv_ctiic.o(.text.CTP_SDA_IN)
    [Anonymous Symbol]                       0x080009b4   Section        0  drv_ctiic.o(.text.CTP_SDA_OUT)
    [Anonymous Symbol]                       0x080009e4   Section        0  drv_ctiic.o(.text.CTP_SendByte)
    [Anonymous Symbol]                       0x08000a34   Section        0  drv_ctiic.o(.text.CTP_WaitAck)
    [Anonymous Symbol]                       0x08000a84   Section        0  drv_systick.o(.text.Drv_SysTick_Config)
    [Anonymous Symbol]                       0x08000ac8   Section        0  hal_gpio.o(.text.GPIO_ClearBits)
    [Anonymous Symbol]                       0x08000acc   Section        0  hal_gpio.o(.text.GPIO_Init)
    [Anonymous Symbol]                       0x08000b5c   Section        0  hal_gpio.o(.text.GPIO_ReadOutDataBit)
    [Anonymous Symbol]                       0x08000b68   Section        0  hal_gpio.o(.text.GPIO_SetBits)
    [Anonymous Symbol]                       0x08000b6c   Section        0  hal_gpio.o(.text.GPIO_WriteBit)
    [Anonymous Symbol]                       0x08000b78   Section        0  drv_systick.o(.text.HAL_Delay)
    [Anonymous Symbol]                       0x08000ba8   Section        0  drv_sysclk.o(.text.HAL_GetSysClockFreq)
    [Anonymous Symbol]                       0x08000bb4   Section        0  drv_systick.o(.text.HAL_GetTick)
    [Anonymous Symbol]                       0x08000bc0   Section        0  drv_lcd_init.o(.text.LCD_Address_Set)
    [Anonymous Symbol]                       0x08000bfc   Section        0  drv_lcd.o(.text.LCD_DrawLine)
    [Anonymous Symbol]                       0x08000c98   Section        0  drv_lcd.o(.text.LCD_DrawPoint)
    [Anonymous Symbol]                       0x08000cb0   Section        0  drv_lcd.o(.text.LCD_Fill)
    [Anonymous Symbol]                       0x08000d00   Section        0  drv_lcd_init.o(.text.LCD_GPIO_Init)
    [Anonymous Symbol]                       0x08000d50   Section        0  drv_lcd_init.o(.text.LCD_Init)
    [Anonymous Symbol]                       0x080011dc   Section        0  drv_lcd.o(.text.LCD_ShowChar)
    [Anonymous Symbol]                       0x08001330   Section        0  drv_lcd.o(.text.LCD_ShowChinese)
    [Anonymous Symbol]                       0x080013d8   Section        0  drv_lcd.o(.text.LCD_ShowChinese12x12)
    [Anonymous Symbol]                       0x080014f4   Section        0  drv_lcd.o(.text.LCD_ShowChinese16x16)
    [Anonymous Symbol]                       0x0800160c   Section        0  drv_lcd.o(.text.LCD_ShowChinese24x24)
    [Anonymous Symbol]                       0x08001728   Section        0  drv_lcd.o(.text.LCD_ShowChinese32x32)
    [Anonymous Symbol]                       0x08001840   Section        0  drv_lcd.o(.text.LCD_ShowFloatNum1)
    [Anonymous Symbol]                       0x08001924   Section        0  drv_lcd.o(.text.LCD_ShowIntNum)
    [Anonymous Symbol]                       0x080019e4   Section        0  drv_lcd.o(.text.LCD_ShowString)
    [Anonymous Symbol]                       0x08001a2c   Section        0  drv_lcd_init.o(.text.LCD_WR_DATA)
    [Anonymous Symbol]                       0x08001a4c   Section        0  drv_lcd_init.o(.text.LCD_WR_DATA8)
    [Anonymous Symbol]                       0x08001a5c   Section        0  drv_lcd_init.o(.text.LCD_WR_REG)
    [Anonymous Symbol]                       0x08001a74   Section        0  drv_lcd_init.o(.text.LCD_Writ_Bus)
    NVIC_EncodePriority                      0x08001a91   Thumb Code    42  drv_systick.o(.text.NVIC_EncodePriority)
    [Anonymous Symbol]                       0x08001a90   Section        0  drv_systick.o(.text.NVIC_EncodePriority)
    [Anonymous Symbol]                       0x08001abc   Section        0  hal_rcc.o(.text.RCC_EnableAHB1Periphs)
    SysTick_Config                           0x08001ad5   Thumb Code    44  drv_systick.o(.text.SysTick_Config)
    [Anonymous Symbol]                       0x08001ad4   Section        0  drv_systick.o(.text.SysTick_Config)
    [Anonymous Symbol]                       0x08001b00   Section        0  drv_systick.o(.text.SysTick_Handler)
    [Anonymous Symbol]                       0x08001b10   Section        0  drv_sysclk.o(.text.SystemClockConfig)
    [Anonymous Symbol]                       0x08001c04   Section        0  system_mm32f3277g.o(.text.SystemInit)
    __NVIC_GetPriorityGrouping               0x08001c09   Thumb Code    16  drv_systick.o(.text.__NVIC_GetPriorityGrouping)
    [Anonymous Symbol]                       0x08001c08   Section        0  drv_systick.o(.text.__NVIC_GetPriorityGrouping)
    __NVIC_SetPriority                       0x08001c19   Thumb Code    14  drv_systick.o(.text.__NVIC_SetPriority)
    [Anonymous Symbol]                       0x08001c18   Section        0  drv_systick.o(.text.__NVIC_SetPriority)
    [Anonymous Symbol]                       0x08001c28   Section        0  drv_ctiic.o(.text.delay_us)
    [Anonymous Symbol]                       0x08001c3c   Section        0  main.o(.text.main)
    [Anonymous Symbol]                       0x08001d34   Section        0  drv_lcd.o(.text.mypow)
    update_ahb_clock                         0x08001d4d   Thumb Code    58  drv_sysclk.o(.text.update_ahb_clock)
    [Anonymous Symbol]                       0x08001d4c   Section        0  drv_sysclk.o(.text.update_ahb_clock)
    update_apb1_clock                        0x08001d89   Thumb Code    58  drv_sysclk.o(.text.update_apb1_clock)
    [Anonymous Symbol]                       0x08001d88   Section        0  drv_sysclk.o(.text.update_apb1_clock)
    update_apb2_clock                        0x08001dc5   Thumb Code    58  drv_sysclk.o(.text.update_apb2_clock)
    [Anonymous Symbol]                       0x08001dc4   Section        0  drv_sysclk.o(.text.update_apb2_clock)
    update_systemclock                       0x08001e01   Thumb Code   110  drv_sysclk.o(.text.update_systemclock)
    [Anonymous Symbol]                       0x08001e00   Section        0  drv_sysclk.o(.text.update_systemclock)
    x$fpl$d2f                                0x08001e70   Section       98  d2f.o(x$fpl$d2f)
    x$fpl$dadd                               0x08001ed4   Section      336  daddsub_clz.o(x$fpl$dadd)
    _dadd1                                   0x08001ee5   Thumb Code     0  daddsub_clz.o(x$fpl$dadd)
    x$fpl$dnaninf                            0x08002024   Section      156  dnaninf.o(x$fpl$dnaninf)
    x$fpl$dretinf                            0x080020c0   Section       12  dretinf.o(x$fpl$dretinf)
    x$fpl$dsub                               0x080020cc   Section      468  daddsub_clz.o(x$fpl$dsub)
    _dsub1                                   0x080020dd   Thumb Code     0  daddsub_clz.o(x$fpl$dsub)
    x$fpl$f2d                                0x080022a0   Section       86  f2d.o(x$fpl$f2d)
    x$fpl$ffix                               0x080022f8   Section       54  ffix.o(x$fpl$ffix)
    x$fpl$fmul                               0x08002330   Section      258  fmul.o(x$fpl$fmul)
    x$fpl$fnaninf                            0x08002432   Section      140  fnaninf.o(x$fpl$fnaninf)
    x$fpl$fretinf                            0x080024be   Section       10  fretinf.o(x$fpl$fretinf)
    x$fpl$usenofp                            0x080024c8   Section        0  usenofp.o(x$fpl$usenofp)
    AHBClockFreq                             0x20000000   Data           4  drv_sysclk.o(.data.AHBClockFreq)
    [Anonymous Symbol]                       0x20000000   Section        0  drv_sysclk.o(.data.AHBClockFreq)
    APB1ClockFreq                            0x20000004   Data           4  drv_sysclk.o(.data.APB1ClockFreq)
    [Anonymous Symbol]                       0x20000004   Section        0  drv_sysclk.o(.data.APB1ClockFreq)
    APB2ClockFreq                            0x20000008   Data           4  drv_sysclk.o(.data.APB2ClockFreq)
    [Anonymous Symbol]                       0x20000008   Section        0  drv_sysclk.o(.data.APB2ClockFreq)
    SystemClockFreq                          0x2000000c   Data           4  drv_sysclk.o(.data.SystemClockFreq)
    [Anonymous Symbol]                       0x2000000c   Section        0  drv_sysclk.o(.data.SystemClockFreq)
    CST816S_Scan.t                           0x20000024   Data           1  drv_cst816s.o(.bss.CST816S_Scan.t)
    [Anonymous Symbol]                       0x20000024   Section        0  drv_cst816s.o(.bss.CST816S_Scan.t)
    uwTick                                   0x20000028   Data           4  drv_systick.o(.bss.uwTick)
    [Anonymous Symbol]                       0x20000028   Section        0  drv_systick.o(.bss.uwTick)

    Global Symbols

    Symbol Name                              Value     Ov Type        Size  Object(Section)

    BuildAttributes$$THM_ISAv4$P$D$K$B$S$PE$A:L22UL41UL21$X:L11$S22US41US21$IEEE1$IW$~IW$USESV6$~STKCKD$USESV7$~SHL$OTIME$ROPI$EBA8$UX$STANDARDLIB$REQ8$PRES8$EABIv2 0x00000000   Number         0  anon$$obj.o ABSOLUTE
    __fp_init_empty                          0x00000000   Number         0  fpinit_empty.o ABSOLUTE
    Image$$ZI$$Limit                          - Undefined Weak Reference
    __ARM_exceptions_init                     - Undefined Weak Reference
    __alloca_initialize                       - Undefined Weak Reference
    __arm_preinit_                            - Undefined Weak Reference
    __cpp_initialize__aeabi_                  - Undefined Weak Reference
    __cxa_finalize                            - Undefined Weak Reference
    __rt_locale                               - Undefined Weak Reference
    __sigvec_lookup                           - Undefined Weak Reference
    _atexit_init                              - Undefined Weak Reference
    _call_atexit_fns                          - Undefined Weak Reference
    _clock_init                               - Undefined Weak Reference
    _fp_trap_init                             - Undefined Weak Reference
    _fp_trap_shutdown                         - Undefined Weak Reference
    _get_lc_collate                           - Undefined Weak Reference
    _get_lc_ctype                             - Undefined Weak Reference
    _get_lc_monetary                          - Undefined Weak Reference
    _get_lc_numeric                           - Undefined Weak Reference
    _get_lc_time                              - Undefined Weak Reference
    _getenv_init                              - Undefined Weak Reference
    _handle_redirection                       - Undefined Weak Reference
    _init_alloc                               - Undefined Weak Reference
    _init_user_alloc                          - Undefined Weak Reference
    _initio                                   - Undefined Weak Reference
    _rand_init                                - Undefined Weak Reference
    _signal_finish                            - Undefined Weak Reference
    _signal_init                              - Undefined Weak Reference
    _terminate_alloc                          - Undefined Weak Reference
    _terminate_user_alloc                     - Undefined Weak Reference
    _terminateio                              - Undefined Weak Reference
    __Vectors_Size                           0x00000190   Number         0  startup_mm32f3277g.o ABSOLUTE
    __Vectors                                0x08000000   Data           4  startup_mm32f3277g.o(RESET)
    __Vectors_End                            0x08000190   Data           0  startup_mm32f3277g.o(RESET)
    __main                                   0x08000401   Thumb Code     8  __main.o(!!!main)
    __scatterload                            0x08000409   Thumb Code     0  __scatter.o(!!!scatter)
    __scatterload_rt2                        0x08000409   Thumb Code    44  __scatter.o(!!!scatter)
    __scatterload_rt2_thumb_only             0x08000409   Thumb Code     0  __scatter.o(!!!scatter)
    __scatterload_null                       0x08000417   Thumb Code     0  __scatter.o(!!!scatter)
    __scatterload_copy                       0x0800043d   Thumb Code    26  __scatter_copy.o(!!handler_copy)
    __scatterload_zeroinit                   0x08000459   Thumb Code    28  __scatter_zi.o(!!handler_zi)
    __rt_lib_init                            0x08000475   Thumb Code     0  libinit.o(.ARM.Collect$$libinit$$00000000)
    __rt_lib_init_alloca_1                   0x08000477   Thumb Code     0  libinit2.o(.ARM.Collect$$libinit$$0000002E)
    __rt_lib_init_argv_1                     0x08000477   Thumb Code     0  libinit2.o(.ARM.Collect$$libinit$$0000002C)
    __rt_lib_init_atexit_1                   0x08000477   Thumb Code     0  libinit2.o(.ARM.Collect$$libinit$$0000001B)
    __rt_lib_init_clock_1                    0x08000477   Thumb Code     0  libinit2.o(.ARM.Collect$$libinit$$00000021)
    __rt_lib_init_cpp_1                      0x08000477   Thumb Code     0  libinit2.o(.ARM.Collect$$libinit$$00000032)
    __rt_lib_init_exceptions_1               0x08000477   Thumb Code     0  libinit2.o(.ARM.Collect$$libinit$$00000030)
    __rt_lib_init_fp_1                       0x08000477   Thumb Code     0  libinit2.o(.ARM.Collect$$libinit$$00000002)
    __rt_lib_init_fp_trap_1                  0x08000477   Thumb Code     0  libinit2.o(.ARM.Collect$$libinit$$0000001F)
    __rt_lib_init_getenv_1                   0x08000477   Thumb Code     0  libinit2.o(.ARM.Collect$$libinit$$00000023)
    __rt_lib_init_heap_1                     0x08000477   Thumb Code     0  libinit2.o(.ARM.Collect$$libinit$$0000000A)
    __rt_lib_init_lc_collate_1               0x08000477   Thumb Code     0  libinit2.o(.ARM.Collect$$libinit$$00000011)
    __rt_lib_init_lc_ctype_1                 0x08000477   Thumb Code     0  libinit2.o(.ARM.Collect$$libinit$$00000013)
    __rt_lib_init_lc_monetary_1              0x08000477   Thumb Code     0  libinit2.o(.ARM.Collect$$libinit$$00000015)
    __rt_lib_init_lc_numeric_1               0x08000477   Thumb Code     0  libinit2.o(.ARM.Collect$$libinit$$00000017)
    __rt_lib_init_lc_time_1                  0x08000477   Thumb Code     0  libinit2.o(.ARM.Collect$$libinit$$00000019)
    __rt_lib_init_preinit_1                  0x08000477   Thumb Code     0  libinit2.o(.ARM.Collect$$libinit$$00000004)
    __rt_lib_init_rand_1                     0x08000477   Thumb Code     0  libinit2.o(.ARM.Collect$$libinit$$0000000E)
    __rt_lib_init_return                     0x08000477   Thumb Code     0  libinit2.o(.ARM.Collect$$libinit$$00000033)
    __rt_lib_init_signal_1                   0x08000477   Thumb Code     0  libinit2.o(.ARM.Collect$$libinit$$0000001D)
    __rt_lib_init_stdio_1                    0x08000477   Thumb Code     0  libinit2.o(.ARM.Collect$$libinit$$00000025)
    __rt_lib_init_user_alloc_1               0x08000477   Thumb Code     0  libinit2.o(.ARM.Collect$$libinit$$0000000C)
    __rt_lib_shutdown                        0x08000479   Thumb Code     0  libshutdown.o(.ARM.Collect$$libshutdown$$00000000)
    __rt_lib_shutdown_cpp_1                  0x0800047b   Thumb Code     0  libshutdown2.o(.ARM.Collect$$libshutdown$$00000002)
    __rt_lib_shutdown_fp_trap_1              0x0800047b   Thumb Code     0  libshutdown2.o(.ARM.Collect$$libshutdown$$00000007)
    __rt_lib_shutdown_heap_1                 0x0800047b   Thumb Code     0  libshutdown2.o(.ARM.Collect$$libshutdown$$0000000F)
    __rt_lib_shutdown_return                 0x0800047b   Thumb Code     0  libshutdown2.o(.ARM.Collect$$libshutdown$$00000010)
    __rt_lib_shutdown_signal_1               0x0800047b   Thumb Code     0  libshutdown2.o(.ARM.Collect$$libshutdown$$0000000A)
    __rt_lib_shutdown_stdio_1                0x0800047b   Thumb Code     0  libshutdown2.o(.ARM.Collect$$libshutdown$$00000004)
    __rt_lib_shutdown_user_alloc_1           0x0800047b   Thumb Code     0  libshutdown2.o(.ARM.Collect$$libshutdown$$0000000C)
    __rt_entry                               0x0800047d   Thumb Code     0  __rtentry.o(.ARM.Collect$$rtentry$$00000000)
    __rt_entry_presh_1                       0x0800047d   Thumb Code     0  __rtentry2.o(.ARM.Collect$$rtentry$$00000002)
    __rt_entry_sh                            0x0800047d   Thumb Code     0  __rtentry7.o(.ARM.Collect$$rtentry$$00000007)
    __rt_entry_li                            0x08000481   Thumb Code     0  __rtentry2.o(.ARM.Collect$$rtentry$$0000000A)
    __rt_entry_postsh_1                      0x08000481   Thumb Code     0  __rtentry2.o(.ARM.Collect$$rtentry$$00000009)
    __rt_entry_main                          0x08000485   Thumb Code     0  __rtentry2.o(.ARM.Collect$$rtentry$$0000000D)
    __rt_entry_postli_1                      0x08000485   Thumb Code     0  __rtentry2.o(.ARM.Collect$$rtentry$$0000000C)
    __rt_exit                                0x08000491   Thumb Code     0  rtexit.o(.ARM.Collect$$rtexit$$00000000)
    __rt_exit_ls                             0x08000493   Thumb Code     0  rtexit2.o(.ARM.Collect$$rtexit$$00000003)
    __rt_exit_prels_1                        0x08000493   Thumb Code     0  rtexit2.o(.ARM.Collect$$rtexit$$00000002)
    __rt_exit_exit                           0x08000497   Thumb Code     0  rtexit2.o(.ARM.Collect$$rtexit$$00000004)
    Reset_Handler                            0x0800049d   Thumb Code     8  startup_mm32f3277g.o(.text)
    NMI_Handler                              0x080004a5   Thumb Code     2  startup_mm32f3277g.o(.text)
    HardFault_Handler                        0x080004a7   Thumb Code     2  startup_mm32f3277g.o(.text)
    MemManage_Handler                        0x080004a9   Thumb Code     2  startup_mm32f3277g.o(.text)
    BusFault_Handler                         0x080004ab   Thumb Code     2  startup_mm32f3277g.o(.text)
    UsageFault_Handler                       0x080004ad   Thumb Code     2  startup_mm32f3277g.o(.text)
    SVC_Handler                              0x080004af   Thumb Code     2  startup_mm32f3277g.o(.text)
    DebugMon_Handler                         0x080004b1   Thumb Code     2  startup_mm32f3277g.o(.text)
    PendSV_Handler                           0x080004b3   Thumb Code     2  startup_mm32f3277g.o(.text)
    ADC1_2_IRQHandler                        0x080004b7   Thumb Code     0  startup_mm32f3277g.o(.text)
    ADC3_IRQHandler                          0x080004b7   Thumb Code     0  startup_mm32f3277g.o(.text)
    CAN1_RX_IRQHandler                       0x080004b7   Thumb Code     0  startup_mm32f3277g.o(.text)
    COMP1_2_IRQHandler                       0x080004b7   Thumb Code     0  startup_mm32f3277g.o(.text)
    DMA1_Channel1_IRQHandler                 0x080004b7   Thumb Code     0  startup_mm32f3277g.o(.text)
    DMA1_Channel2_IRQHandler                 0x080004b7   Thumb Code     0  startup_mm32f3277g.o(.text)
    DMA1_Channel3_IRQHandler                 0x080004b7   Thumb Code     0  startup_mm32f3277g.o(.text)
    DMA1_Channel4_IRQHandler                 0x080004b7   Thumb Code     0  startup_mm32f3277g.o(.text)
    DMA1_Channel5_IRQHandler                 0x080004b7   Thumb Code     0  startup_mm32f3277g.o(.text)
    DMA1_Channel6_IRQHandler                 0x080004b7   Thumb Code     0  startup_mm32f3277g.o(.text)
    DMA1_Channel7_IRQHandler                 0x080004b7   Thumb Code     0  startup_mm32f3277g.o(.text)
    DMA2_Channel1_IRQHandler                 0x080004b7   Thumb Code     0  startup_mm32f3277g.o(.text)
    DMA2_Channel2_IRQHandler                 0x080004b7   Thumb Code     0  startup_mm32f3277g.o(.text)
    DMA2_Channel3_IRQHandler                 0x080004b7   Thumb Code     0  startup_mm32f3277g.o(.text)
    DMA2_Channel4_IRQHandler                 0x080004b7   Thumb Code     0  startup_mm32f3277g.o(.text)
    DMA2_Channel5_IRQHandler                 0x080004b7   Thumb Code     0  startup_mm32f3277g.o(.text)
    ETH_IRQHandler                           0x080004b7   Thumb Code     0  startup_mm32f3277g.o(.text)
    EXTI0_IRQHandler                         0x080004b7   Thumb Code     0  startup_mm32f3277g.o(.text)
    EXTI15_10_IRQHandler                     0x080004b7   Thumb Code     0  startup_mm32f3277g.o(.text)
    EXTI1_IRQHandler                         0x080004b7   Thumb Code     0  startup_mm32f3277g.o(.text)
    EXTI2_IRQHandler                         0x080004b7   Thumb Code     0  startup_mm32f3277g.o(.text)
    EXTI3_IRQHandler                         0x080004b7   Thumb Code     0  startup_mm32f3277g.o(.text)
    EXTI4_IRQHandler                         0x080004b7   Thumb Code     0  startup_mm32f3277g.o(.text)
    EXTI9_5_IRQHandler                       0x080004b7   Thumb Code     0  startup_mm32f3277g.o(.text)
    FLASH_IRQHandler                         0x080004b7   Thumb Code     0  startup_mm32f3277g.o(.text)
    FlashCache_IRQHandler                    0x080004b7   Thumb Code     0  startup_mm32f3277g.o(.text)
    I2C1_IRQHandler                          0x080004b7   Thumb Code     0  startup_mm32f3277g.o(.text)
    I2C2_IRQHandler                          0x080004b7   Thumb Code     0  startup_mm32f3277g.o(.text)
    OTG_FS_IRQHandler                        0x080004b7   Thumb Code     0  startup_mm32f3277g.o(.text)
    OTG_FS_WKUP_IRQHandler                   0x080004b7   Thumb Code     0  startup_mm32f3277g.o(.text)
    PVD_IRQHandler                           0x080004b7   Thumb Code     0  startup_mm32f3277g.o(.text)
    RCC_CRS_IRQHandler                       0x080004b7   Thumb Code     0  startup_mm32f3277g.o(.text)
    RTCAlarm_IRQHandler                      0x080004b7   Thumb Code     0  startup_mm32f3277g.o(.text)
    RTC_IRQHandler                           0x080004b7   Thumb Code     0  startup_mm32f3277g.o(.text)
    SDIO_IRQHandler                          0x080004b7   Thumb Code     0  startup_mm32f3277g.o(.text)
    SPI1_IRQHandler                          0x080004b7   Thumb Code     0  startup_mm32f3277g.o(.text)
    SPI2_IRQHandler                          0x080004b7   Thumb Code     0  startup_mm32f3277g.o(.text)
    SPI3_IRQHandler                          0x080004b7   Thumb Code     0  startup_mm32f3277g.o(.text)
    TAMPER_IRQHandler                        0x080004b7   Thumb Code     0  startup_mm32f3277g.o(.text)
    TIM1_BRK_IRQHandler                      0x080004b7   Thumb Code     0  startup_mm32f3277g.o(.text)
    TIM1_CC_IRQHandler                       0x080004b7   Thumb Code     0  startup_mm32f3277g.o(.text)
    TIM1_TRG_COM_IRQHandler                  0x080004b7   Thumb Code     0  startup_mm32f3277g.o(.text)
    TIM1_UP_IRQHandler                       0x080004b7   Thumb Code     0  startup_mm32f3277g.o(.text)
    TIM2_IRQHandler                          0x080004b7   Thumb Code     0  startup_mm32f3277g.o(.text)
    TIM3_IRQHandler                          0x080004b7   Thumb Code     0  startup_mm32f3277g.o(.text)
    TIM4_IRQHandler                          0x080004b7   Thumb Code     0  startup_mm32f3277g.o(.text)
    TIM5_IRQHandler                          0x080004b7   Thumb Code     0  startup_mm32f3277g.o(.text)
    TIM6_IRQHandler                          0x080004b7   Thumb Code     0  startup_mm32f3277g.o(.text)
    TIM7_IRQHandler                          0x080004b7   Thumb Code     0  startup_mm32f3277g.o(.text)
    TIM8_BRK_IRQHandler                      0x080004b7   Thumb Code     0  startup_mm32f3277g.o(.text)
    TIM8_CC_IRQHandler                       0x080004b7   Thumb Code     0  startup_mm32f3277g.o(.text)
    TIM8_TRG_COM_IRQHandler                  0x080004b7   Thumb Code     0  startup_mm32f3277g.o(.text)
    TIM8_UP_IRQHandler                       0x080004b7   Thumb Code     0  startup_mm32f3277g.o(.text)
    UART1_IRQHandler                         0x080004b7   Thumb Code     0  startup_mm32f3277g.o(.text)
    UART2_IRQHandler                         0x080004b7   Thumb Code     0  startup_mm32f3277g.o(.text)
    UART3_IRQHandler                         0x080004b7   Thumb Code     0  startup_mm32f3277g.o(.text)
    UART4_IRQHandler                         0x080004b7   Thumb Code     0  startup_mm32f3277g.o(.text)
    UART5_IRQHandler                         0x080004b7   Thumb Code     0  startup_mm32f3277g.o(.text)
    UART6_IRQHandler                         0x080004b7   Thumb Code     0  startup_mm32f3277g.o(.text)
    UART7_IRQHandler                         0x080004b7   Thumb Code     0  startup_mm32f3277g.o(.text)
    UART8_IRQHandler                         0x080004b7   Thumb Code     0  startup_mm32f3277g.o(.text)
    WWDG_IRQHandler                          0x080004b7   Thumb Code     0  startup_mm32f3277g.o(.text)
    exit                                     0x080004c1   Thumb Code    18  exit.o(.text)
    __I$use$semihosting                      0x080004d3   Thumb Code     0  use_no_semi.o(.text)
    __use_no_semihosting_swi                 0x080004d3   Thumb Code     2  use_no_semi.o(.text)
    __semihosting_library_function           0x080004d5   Thumb Code     0  indicate_semi.o(.text)
    _sys_exit                                0x080004d5   Thumb Code     8  sys_exit.o(.text)
    CST816S_Init                             0x080004e1   Thumb Code   102  drv_cst816s.o(.text.CST816S_Init)
    CST816S_RD_DATA                          0x08000549   Thumb Code    80  drv_cst816s.o(.text.CST816S_RD_DATA)
    CST816S_Scan                             0x08000599   Thumb Code   300  drv_cst816s.o(.text.CST816S_Scan)
    CST816S_WR_DATA                          0x080006c5   Thumb Code    48  drv_cst816s.o(.text.CST816S_WR_DATA)
    CST816S_test                             0x080006f5   Thumb Code   156  drv_cst816s.o(.text.CST816S_test)
    CTP_GPIOInit                             0x08000791   Thumb Code   106  drv_ctiic.o(.text.CTP_GPIOInit)
    CTP_IICAck                               0x080007fd   Thumb Code    68  drv_ctiic.o(.text.CTP_IICAck)
    CTP_IICNack                              0x08000841   Thumb Code    68  drv_ctiic.o(.text.CTP_IICNack)
    CTP_IIC_Start                            0x08000885   Thumb Code    62  drv_ctiic.o(.text.CTP_IIC_Start)
    CTP_IIC_Stop                             0x080008c5   Thumb Code    56  drv_ctiic.o(.text.CTP_IIC_Stop)
    CTP_INT_IN                               0x080008fd   Thumb Code    52  drv_ctiic.o(.text.CTP_INT_IN)
    CTP_ReadByte                             0x08000931   Thumb Code    78  drv_ctiic.o(.text.CTP_ReadByte)
    CTP_SDA_IN                               0x08000981   Thumb Code    52  drv_ctiic.o(.text.CTP_SDA_IN)
    CTP_SDA_OUT                              0x080009b5   Thumb Code    48  drv_ctiic.o(.text.CTP_SDA_OUT)
    CTP_SendByte                             0x080009e5   Thumb Code    78  drv_ctiic.o(.text.CTP_SendByte)
    CTP_WaitAck                              0x08000a35   Thumb Code    78  drv_ctiic.o(.text.CTP_WaitAck)
    Drv_SysTick_Config                       0x08000a85   Thumb Code    66  drv_systick.o(.text.Drv_SysTick_Config)
    GPIO_ClearBits                           0x08000ac9   Thumb Code     4  hal_gpio.o(.text.GPIO_ClearBits)
    GPIO_Init                                0x08000acd   Thumb Code   144  hal_gpio.o(.text.GPIO_Init)
    GPIO_ReadOutDataBit                      0x08000b5d   Thumb Code    10  hal_gpio.o(.text.GPIO_ReadOutDataBit)
    GPIO_SetBits                             0x08000b69   Thumb Code     4  hal_gpio.o(.text.GPIO_SetBits)
    GPIO_WriteBit                            0x08000b6d   Thumb Code    12  hal_gpio.o(.text.GPIO_WriteBit)
    HAL_Delay                                0x08000b79   Thumb Code    46  drv_systick.o(.text.HAL_Delay)
    HAL_GetSysClockFreq                      0x08000ba9   Thumb Code    12  drv_sysclk.o(.text.HAL_GetSysClockFreq)
    HAL_GetTick                              0x08000bb5   Thumb Code    12  drv_systick.o(.text.HAL_GetTick)
    LCD_Address_Set                          0x08000bc1   Thumb Code    60  drv_lcd_init.o(.text.LCD_Address_Set)
    LCD_DrawLine                             0x08000bfd   Thumb Code   154  drv_lcd.o(.text.LCD_DrawLine)
    LCD_DrawPoint                            0x08000c99   Thumb Code    22  drv_lcd.o(.text.LCD_DrawPoint)
    LCD_Fill                                 0x08000cb1   Thumb Code    78  drv_lcd.o(.text.LCD_Fill)
    LCD_GPIO_Init                            0x08000d01   Thumb Code    80  drv_lcd_init.o(.text.LCD_GPIO_Init)
    LCD_Init                                 0x08000d51   Thumb Code  1164  drv_lcd_init.o(.text.LCD_Init)
    LCD_ShowChar                             0x080011dd   Thumb Code   338  drv_lcd.o(.text.LCD_ShowChar)
    LCD_ShowChinese                          0x08001331   Thumb Code   168  drv_lcd.o(.text.LCD_ShowChinese)
    LCD_ShowChinese12x12                     0x080013d9   Thumb Code   282  drv_lcd.o(.text.LCD_ShowChinese12x12)
    LCD_ShowChinese16x16                     0x080014f5   Thumb Code   278  drv_lcd.o(.text.LCD_ShowChinese16x16)
    LCD_ShowChinese24x24                     0x0800160d   Thumb Code   282  drv_lcd.o(.text.LCD_ShowChinese24x24)
    LCD_ShowChinese32x32                     0x08001729   Thumb Code   278  drv_lcd.o(.text.LCD_ShowChinese32x32)
    LCD_ShowFloatNum1                        0x08001841   Thumb Code   226  drv_lcd.o(.text.LCD_ShowFloatNum1)
    LCD_ShowIntNum                           0x08001925   Thumb Code   192  drv_lcd.o(.text.LCD_ShowIntNum)
    LCD_ShowString                           0x080019e5   Thumb Code    70  drv_lcd.o(.text.LCD_ShowString)
    LCD_WR_DATA                              0x08001a2d   Thumb Code    32  drv_lcd_init.o(.text.LCD_WR_DATA)
    LCD_WR_DATA8                             0x08001a4d   Thumb Code    16  drv_lcd_init.o(.text.LCD_WR_DATA8)
    LCD_WR_REG                               0x08001a5d   Thumb Code    22  drv_lcd_init.o(.text.LCD_WR_REG)
    LCD_Writ_Bus                             0x08001a75   Thumb Code    26  drv_lcd_init.o(.text.LCD_Writ_Bus)
    RCC_EnableAHB1Periphs                    0x08001abd   Thumb Code    24  hal_rcc.o(.text.RCC_EnableAHB1Periphs)
    SysTick_Handler                          0x08001b01   Thumb Code    16  drv_systick.o(.text.SysTick_Handler)
    SystemClockConfig                        0x08001b11   Thumb Code   242  drv_sysclk.o(.text.SystemClockConfig)
    SystemInit                               0x08001c05   Thumb Code     2  system_mm32f3277g.o(.text.SystemInit)
    delay_us                                 0x08001c29   Thumb Code    18  drv_ctiic.o(.text.delay_us)
    main                                     0x08001c3d   Thumb Code   248  main.o(.text.main)
    mypow                                    0x08001d35   Thumb Code    24  drv_lcd.o(.text.mypow)
    __aeabi_d2f                              0x08001e71   Thumb Code     0  d2f.o(x$fpl$d2f)
    _d2f                                     0x08001e71   Thumb Code    98  d2f.o(x$fpl$d2f)
    __aeabi_dadd                             0x08001ed5   Thumb Code     0  daddsub_clz.o(x$fpl$dadd)
    _dadd                                    0x08001ed5   Thumb Code   332  daddsub_clz.o(x$fpl$dadd)
    __fpl_dnaninf                            0x08002025   Thumb Code   156  dnaninf.o(x$fpl$dnaninf)
    __fpl_dretinf                            0x080020c1   Thumb Code    12  dretinf.o(x$fpl$dretinf)
    __aeabi_dsub                             0x080020cd   Thumb Code     0  daddsub_clz.o(x$fpl$dsub)
    _dsub                                    0x080020cd   Thumb Code   464  daddsub_clz.o(x$fpl$dsub)
    __aeabi_f2d                              0x080022a1   Thumb Code     0  f2d.o(x$fpl$f2d)
    _f2d                                     0x080022a1   Thumb Code    86  f2d.o(x$fpl$f2d)
    __aeabi_f2iz                             0x080022f9   Thumb Code     0  ffix.o(x$fpl$ffix)
    _ffix                                    0x080022f9   Thumb Code    54  ffix.o(x$fpl$ffix)
    __aeabi_fmul                             0x08002331   Thumb Code     0  fmul.o(x$fpl$fmul)
    _fmul                                    0x08002331   Thumb Code   258  fmul.o(x$fpl$fmul)
    __fpl_fnaninf                            0x08002433   Thumb Code   140  fnaninf.o(x$fpl$fnaninf)
    __fpl_fretinf                            0x080024bf   Thumb Code    10  fretinf.o(x$fpl$fretinf)
    POINT_COLOR_TBL                          0x080024c8   Data           4  drv_cst816s.o(.rodata.POINT_COLOR_TBL)
    __I$use$fp                               0x080024c8   Number         0  usenofp.o(x$fpl$usenofp)
    TPX                                      0x080024cc   Data           4  drv_cst816s.o(.rodata.TPX)
    ascii_1206                               0x080024d0   Data        1140  drv_lcd.o(.rodata.ascii_1206)
    ascii_1608                               0x08002944   Data        1520  drv_lcd.o(.rodata.ascii_1608)
    ascii_2412                               0x08002f34   Data        4560  drv_lcd.o(.rodata.ascii_2412)
    ascii_3216                               0x08004104   Data        6080  drv_lcd.o(.rodata.ascii_3216)
    tfont12                                  0x080058c4   Data         130  drv_lcd.o(.rodata.tfont12)
    tfont16                                  0x08005946   Data         170  drv_lcd.o(.rodata.tfont16)
    tfont24                                  0x080059f0   Data         370  drv_lcd.o(.rodata.tfont24)
    tfont32                                  0x08005b62   Data         650  drv_lcd.o(.rodata.tfont32)
    Region$$Table$$Base                      0x08005dec   Number         0  anon$$obj.o(Region$$Table)
    Region$$Table$$Limit                     0x08005e0c   Number         0  anon$$obj.o(Region$$Table)
    tp_dev                                   0x20000010   Data          20  drv_cst816s.o(.data.tp_dev)
    Image$$ARM_LIB_HEAP$$ZI$$Base            0x2000002c   Number         0  anon$$obj.o ABSOLUTE
    Image$$ARM_LIB_HEAP$$ZI$$Limit           0x2000042c   Number         0  anon$$obj.o ABSOLUTE
    Image$$ARM_LIB_STACK$$ZI$$Limit          0x20020000   Number         0  anon$$obj.o ABSOLUTE



==============================================================================

Memory Map of the image

  Image Entry point : 0x08000401

  Load Region LR_m_text (Base: 0x08000000, Size: 0x00005e30, Max: 0x00080000, ABSOLUTE)

    Execution Region VECTOR_ROM (Exec base: 0x08000000, Load base: 0x08000000, Size: 0x00000190, Max: 0x00000400, ABSOLUTE)

    Exec Addr    Load Addr    Size         Type   Attr      Idx    E Section Name        Object

    0x08000000   0x08000000   0x00000190   Data   RO          230    RESET               startup_mm32f3277g.o


    Execution Region ER_m_text (Exec base: 0x08000400, Load base: 0x08000400, Size: 0x00005a0c, Max: 0x0007fc00, ABSOLUTE, FIXED)

    Exec Addr    Load Addr    Size         Type   Attr      Idx    E Section Name        Object

    0x08000400   0x08000400   0x00000008   Code   RO         1059  * !!!main             c_w.l(__main.o)
    0x08000408   0x08000408   0x00000034   Code   RO         1260    !!!scatter          c_w.l(__scatter.o)
    0x0800043c   0x0800043c   0x0000001a   Code   RO         1262    !!handler_copy      c_w.l(__scatter_copy.o)
    0x08000456   0x08000456   0x00000002   PAD
    0x08000458   0x08000458   0x0000001c   Code   RO         1264    !!handler_zi        c_w.l(__scatter_zi.o)
    0x08000474   0x08000474   0x00000002   Code   RO         1116    .ARM.Collect$$libinit$$00000000  c_w.l(libinit.o)
    0x08000476   0x08000476   0x00000000   Code   RO         1127    .ARM.Collect$$libinit$$00000002  c_w.l(libinit2.o)
    0x08000476   0x08000476   0x00000000   Code   RO         1129    .ARM.Collect$$libinit$$00000004  c_w.l(libinit2.o)
    0x08000476   0x08000476   0x00000000   Code   RO         1132    .ARM.Collect$$libinit$$0000000A  c_w.l(libinit2.o)
    0x08000476   0x08000476   0x00000000   Code   RO         1134    .ARM.Collect$$libinit$$0000000C  c_w.l(libinit2.o)
    0x08000476   0x08000476   0x00000000   Code   RO         1136    .ARM.Collect$$libinit$$0000000E  c_w.l(libinit2.o)
    0x08000476   0x08000476   0x00000000   Code   RO         1139    .ARM.Collect$$libinit$$00000011  c_w.l(libinit2.o)
    0x08000476   0x08000476   0x00000000   Code   RO         1141    .ARM.Collect$$libinit$$00000013  c_w.l(libinit2.o)
    0x08000476   0x08000476   0x00000000   Code   RO         1143    .ARM.Collect$$libinit$$00000015  c_w.l(libinit2.o)
    0x08000476   0x08000476   0x00000000   Code   RO         1145    .ARM.Collect$$libinit$$00000017  c_w.l(libinit2.o)
    0x08000476   0x08000476   0x00000000   Code   RO         1147    .ARM.Collect$$libinit$$00000019  c_w.l(libinit2.o)
    0x08000476   0x08000476   0x00000000   Code   RO         1149    .ARM.Collect$$libinit$$0000001B  c_w.l(libinit2.o)
    0x08000476   0x08000476   0x00000000   Code   RO         1151    .ARM.Collect$$libinit$$0000001D  c_w.l(libinit2.o)
    0x08000476   0x08000476   0x00000000   Code   RO         1153    .ARM.Collect$$libinit$$0000001F  c_w.l(libinit2.o)
    0x08000476   0x08000476   0x00000000   Code   RO         1155    .ARM.Collect$$libinit$$00000021  c_w.l(libinit2.o)
    0x08000476   0x08000476   0x00000000   Code   RO         1157    .ARM.Collect$$libinit$$00000023  c_w.l(libinit2.o)
    0x08000476   0x08000476   0x00000000   Code   RO         1159    .ARM.Collect$$libinit$$00000025  c_w.l(libinit2.o)
    0x08000476   0x08000476   0x00000000   Code   RO         1163    .ARM.Collect$$libinit$$0000002C  c_w.l(libinit2.o)
    0x08000476   0x08000476   0x00000000   Code   RO         1165    .ARM.Collect$$libinit$$0000002E  c_w.l(libinit2.o)
    0x08000476   0x08000476   0x00000000   Code   RO         1167    .ARM.Collect$$libinit$$00000030  c_w.l(libinit2.o)
    0x08000476   0x08000476   0x00000000   Code   RO         1169    .ARM.Collect$$libinit$$00000032  c_w.l(libinit2.o)
    0x08000476   0x08000476   0x00000002   Code   RO         1170    .ARM.Collect$$libinit$$00000033  c_w.l(libinit2.o)
    0x08000478   0x08000478   0x00000002   Code   RO         1199    .ARM.Collect$$libshutdown$$00000000  c_w.l(libshutdown.o)
    0x0800047a   0x0800047a   0x00000000   Code   RO         1211    .ARM.Collect$$libshutdown$$00000002  c_w.l(libshutdown2.o)
    0x0800047a   0x0800047a   0x00000000   Code   RO         1213    .ARM.Collect$$libshutdown$$00000004  c_w.l(libshutdown2.o)
    0x0800047a   0x0800047a   0x00000000   Code   RO         1216    .ARM.Collect$$libshutdown$$00000007  c_w.l(libshutdown2.o)
    0x0800047a   0x0800047a   0x00000000   Code   RO         1219    .ARM.Collect$$libshutdown$$0000000A  c_w.l(libshutdown2.o)
    0x0800047a   0x0800047a   0x00000000   Code   RO         1221    .ARM.Collect$$libshutdown$$0000000C  c_w.l(libshutdown2.o)
    0x0800047a   0x0800047a   0x00000000   Code   RO         1224    .ARM.Collect$$libshutdown$$0000000F  c_w.l(libshutdown2.o)
    0x0800047a   0x0800047a   0x00000002   Code   RO         1225    .ARM.Collect$$libshutdown$$00000010  c_w.l(libshutdown2.o)
    0x0800047c   0x0800047c   0x00000000   Code   RO         1077    .ARM.Collect$$rtentry$$00000000  c_w.l(__rtentry.o)
    0x0800047c   0x0800047c   0x00000000   Code   RO         1088    .ARM.Collect$$rtentry$$00000002  c_w.l(__rtentry2.o)
    0x0800047c   0x0800047c   0x00000004   Code   RO         1102    .ARM.Collect$$rtentry$$00000007  c_w.l(__rtentry7.o)
    0x08000480   0x08000480   0x00000000   Code   RO         1090    .ARM.Collect$$rtentry$$00000009  c_w.l(__rtentry2.o)
    0x08000480   0x08000480   0x00000004   Code   RO         1091    .ARM.Collect$$rtentry$$0000000A  c_w.l(__rtentry2.o)
    0x08000484   0x08000484   0x00000000   Code   RO         1093    .ARM.Collect$$rtentry$$0000000C  c_w.l(__rtentry2.o)
    0x08000484   0x08000484   0x00000008   Code   RO         1094    .ARM.Collect$$rtentry$$0000000D  c_w.l(__rtentry2.o)
    0x0800048c   0x0800048c   0x00000004   Code   RO         1103    .ARM.Collect$$rtentry$$00002718  c_w.l(__rtentry7.o)
    0x08000490   0x08000490   0x00000002   Code   RO         1124    .ARM.Collect$$rtexit$$00000000  c_w.l(rtexit.o)
    0x08000492   0x08000492   0x00000000   Code   RO         1179    .ARM.Collect$$rtexit$$00000002  c_w.l(rtexit2.o)
    0x08000492   0x08000492   0x00000004   Code   RO         1180    .ARM.Collect$$rtexit$$00000003  c_w.l(rtexit2.o)
    0x08000496   0x08000496   0x00000006   Code   RO         1181    .ARM.Collect$$rtexit$$00000004  c_w.l(rtexit2.o)
    0x0800049c   0x0800049c   0x00000024   Code   RO          231    .text               startup_mm32f3277g.o
    0x080004c0   0x080004c0   0x00000012   Code   RO         1109    .text               c_w.l(exit.o)
    0x080004d2   0x080004d2   0x00000002   Code   RO         1175    .text               c_w.l(use_no_semi.o)
    0x080004d4   0x080004d4   0x00000000   Code   RO         1177    .text               c_w.l(indicate_semi.o)
    0x080004d4   0x080004d4   0x0000000c   Code   RO         1189    .text               c_w.l(sys_exit.o)
    0x080004e0   0x080004e0   0x00000066   Code   RO          101    .text.CST816S_Init  drv_cst816s.o
    0x08000546   0x08000546   0x00000002   PAD
    0x08000548   0x08000548   0x00000050   Code   RO          107    .text.CST816S_RD_DATA  drv_cst816s.o
    0x08000598   0x08000598   0x0000012c   Code   RO          103    .text.CST816S_Scan  drv_cst816s.o
    0x080006c4   0x080006c4   0x00000030   Code   RO          105    .text.CST816S_WR_DATA  drv_cst816s.o
    0x080006f4   0x080006f4   0x0000009c   Code   RO          109    .text.CST816S_test  drv_cst816s.o
    0x08000790   0x08000790   0x0000006a   Code   RO          128    .text.CTP_GPIOInit  drv_ctiic.o
    0x080007fa   0x080007fa   0x00000002   PAD
    0x080007fc   0x080007fc   0x00000044   Code   RO          142    .text.CTP_IICAck    drv_ctiic.o
    0x08000840   0x08000840   0x00000044   Code   RO          144    .text.CTP_IICNack   drv_ctiic.o
    0x08000884   0x08000884   0x0000003e   Code   RO          136    .text.CTP_IIC_Start  drv_ctiic.o
    0x080008c2   0x080008c2   0x00000002   PAD
    0x080008c4   0x080008c4   0x00000038   Code   RO          138    .text.CTP_IIC_Stop  drv_ctiic.o
    0x080008fc   0x080008fc   0x00000034   Code   RO          130    .text.CTP_INT_IN    drv_ctiic.o
    0x08000930   0x08000930   0x0000004e   Code   RO          148    .text.CTP_ReadByte  drv_ctiic.o
    0x0800097e   0x0800097e   0x00000002   PAD
    0x08000980   0x08000980   0x00000034   Code   RO          124    .text.CTP_SDA_IN    drv_ctiic.o
    0x080009b4   0x080009b4   0x00000030   Code   RO          126    .text.CTP_SDA_OUT   drv_ctiic.o
    0x080009e4   0x080009e4   0x0000004e   Code   RO          146    .text.CTP_SendByte  drv_ctiic.o
    0x08000a32   0x08000a32   0x00000002   PAD
    0x08000a34   0x08000a34   0x0000004e   Code   RO          140    .text.CTP_WaitAck   drv_ctiic.o
    0x08000a82   0x08000a82   0x00000002   PAD
    0x08000a84   0x08000a84   0x00000042   Code   RO           59    .text.Drv_SysTick_Config  drv_systick.o
    0x08000ac6   0x08000ac6   0x00000002   PAD
    0x08000ac8   0x08000ac8   0x00000004   Code   RO          446    .text.GPIO_ClearBits  hal_gpio.o
    0x08000acc   0x08000acc   0x00000090   Code   RO          434    .text.GPIO_Init     hal_gpio.o
    0x08000b5c   0x08000b5c   0x0000000a   Code   RO          440    .text.GPIO_ReadOutDataBit  hal_gpio.o
    0x08000b66   0x08000b66   0x00000002   PAD
    0x08000b68   0x08000b68   0x00000004   Code   RO          444    .text.GPIO_SetBits  hal_gpio.o
    0x08000b6c   0x08000b6c   0x0000000c   Code   RO          448    .text.GPIO_WriteBit  hal_gpio.o
    0x08000b78   0x08000b78   0x0000002e   Code   RO           73    .text.HAL_Delay     drv_systick.o
    0x08000ba6   0x08000ba6   0x00000002   PAD
    0x08000ba8   0x08000ba8   0x0000000c   Code   RO           38    .text.HAL_GetSysClockFreq  drv_sysclk.o
    0x08000bb4   0x08000bb4   0x0000000c   Code   RO           71    .text.HAL_GetTick   drv_systick.o
    0x08000bc0   0x08000bc0   0x0000003c   Code   RO          218    .text.LCD_Address_Set  drv_lcd_init.o
    0x08000bfc   0x08000bfc   0x0000009a   Code   RO          163    .text.LCD_DrawLine  drv_lcd.o
    0x08000c96   0x08000c96   0x00000002   PAD
    0x08000c98   0x08000c98   0x00000016   Code   RO          161    .text.LCD_DrawPoint  drv_lcd.o
    0x08000cae   0x08000cae   0x00000002   PAD
    0x08000cb0   0x08000cb0   0x0000004e   Code   RO          159    .text.LCD_Fill      drv_lcd.o
    0x08000cfe   0x08000cfe   0x00000002   PAD
    0x08000d00   0x08000d00   0x00000050   Code   RO          208    .text.LCD_GPIO_Init  drv_lcd_init.o
    0x08000d50   0x08000d50   0x0000048c   Code   RO          220    .text.LCD_Init      drv_lcd_init.o
    0x080011dc   0x080011dc   0x00000152   Code   RO          179    .text.LCD_ShowChar  drv_lcd.o
    0x0800132e   0x0800132e   0x00000002   PAD
    0x08001330   0x08001330   0x000000a8   Code   RO          169    .text.LCD_ShowChinese  drv_lcd.o
    0x080013d8   0x080013d8   0x0000011a   Code   RO          171    .text.LCD_ShowChinese12x12  drv_lcd.o
    0x080014f2   0x080014f2   0x00000002   PAD
    0x080014f4   0x080014f4   0x00000116   Code   RO          173    .text.LCD_ShowChinese16x16  drv_lcd.o
    0x0800160a   0x0800160a   0x00000002   PAD
    0x0800160c   0x0800160c   0x0000011a   Code   RO          175    .text.LCD_ShowChinese24x24  drv_lcd.o
    0x08001726   0x08001726   0x00000002   PAD
    0x08001728   0x08001728   0x00000116   Code   RO          177    .text.LCD_ShowChinese32x32  drv_lcd.o
    0x0800183e   0x0800183e   0x00000002   PAD
    0x08001840   0x08001840   0x000000e2   Code   RO          187    .text.LCD_ShowFloatNum1  drv_lcd.o
    0x08001922   0x08001922   0x00000002   PAD
    0x08001924   0x08001924   0x000000c0   Code   RO          185    .text.LCD_ShowIntNum  drv_lcd.o
    0x080019e4   0x080019e4   0x00000046   Code   RO          181    .text.LCD_ShowString  drv_lcd.o
    0x08001a2a   0x08001a2a   0x00000002   PAD
    0x08001a2c   0x08001a2c   0x00000020   Code   RO          214    .text.LCD_WR_DATA   drv_lcd_init.o
    0x08001a4c   0x08001a4c   0x00000010   Code   RO          212    .text.LCD_WR_DATA8  drv_lcd_init.o
    0x08001a5c   0x08001a5c   0x00000016   Code   RO          216    .text.LCD_WR_REG    drv_lcd_init.o
    0x08001a72   0x08001a72   0x00000002   PAD
    0x08001a74   0x08001a74   0x0000001a   Code   RO          210    .text.LCD_Writ_Bus  drv_lcd_init.o
    0x08001a8e   0x08001a8e   0x00000002   PAD
    0x08001a90   0x08001a90   0x0000002a   Code   RO           67    .text.NVIC_EncodePriority  drv_systick.o
    0x08001aba   0x08001aba   0x00000002   PAD
    0x08001abc   0x08001abc   0x00000018   Code   RO          535    .text.RCC_EnableAHB1Periphs  hal_rcc.o
    0x08001ad4   0x08001ad4   0x0000002c   Code   RO           61    .text.SysTick_Config  drv_systick.o
    0x08001b00   0x08001b00   0x00000010   Code   RO           69    .text.SysTick_Handler  drv_systick.o
    0x08001b10   0x08001b10   0x000000f2   Code   RO           28    .text.SystemClockConfig  drv_sysclk.o
    0x08001c02   0x08001c02   0x00000002   PAD
    0x08001c04   0x08001c04   0x00000002   Code   RO          238    .text.SystemInit    system_mm32f3277g.o
    0x08001c06   0x08001c06   0x00000002   PAD
    0x08001c08   0x08001c08   0x00000010   Code   RO           63    .text.__NVIC_GetPriorityGrouping  drv_systick.o
    0x08001c18   0x08001c18   0x0000000e   Code   RO           65    .text.__NVIC_SetPriority  drv_systick.o
    0x08001c26   0x08001c26   0x00000002   PAD
    0x08001c28   0x08001c28   0x00000012   Code   RO          132    .text.delay_us      drv_ctiic.o
    0x08001c3a   0x08001c3a   0x00000002   PAD
    0x08001c3c   0x08001c3c   0x000000f8   Code   RO            4    .text.main          main.o
    0x08001d34   0x08001d34   0x00000018   Code   RO          183    .text.mypow         drv_lcd.o
    0x08001d4c   0x08001d4c   0x0000003a   Code   RO           32    .text.update_ahb_clock  drv_sysclk.o
    0x08001d86   0x08001d86   0x00000002   PAD
    0x08001d88   0x08001d88   0x0000003a   Code   RO           34    .text.update_apb1_clock  drv_sysclk.o
    0x08001dc2   0x08001dc2   0x00000002   PAD
    0x08001dc4   0x08001dc4   0x0000003a   Code   RO           36    .text.update_apb2_clock  drv_sysclk.o
    0x08001dfe   0x08001dfe   0x00000002   PAD
    0x08001e00   0x08001e00   0x0000006e   Code   RO           30    .text.update_systemclock  drv_sysclk.o
    0x08001e6e   0x08001e6e   0x00000002   PAD
    0x08001e70   0x08001e70   0x00000062   Code   RO         1061    x$fpl$d2f           fz_ws.l(d2f.o)
    0x08001ed2   0x08001ed2   0x00000002   PAD
    0x08001ed4   0x08001ed4   0x00000150   Code   RO         1063    x$fpl$dadd          fz_ws.l(daddsub_clz.o)
    0x08002024   0x08002024   0x0000009c   Code   RO         1078    x$fpl$dnaninf       fz_ws.l(dnaninf.o)
    0x080020c0   0x080020c0   0x0000000c   Code   RO         1080    x$fpl$dretinf       fz_ws.l(dretinf.o)
    0x080020cc   0x080020cc   0x000001d4   Code   RO         1065    x$fpl$dsub          fz_ws.l(daddsub_clz.o)
    0x080022a0   0x080022a0   0x00000056   Code   RO         1069    x$fpl$f2d           fz_ws.l(f2d.o)
    0x080022f6   0x080022f6   0x00000002   PAD
    0x080022f8   0x080022f8   0x00000036   Code   RO         1071    x$fpl$ffix          fz_ws.l(ffix.o)
    0x0800232e   0x0800232e   0x00000002   PAD
    0x08002330   0x08002330   0x00000102   Code   RO         1075    x$fpl$fmul          fz_ws.l(fmul.o)
    0x08002432   0x08002432   0x0000008c   Code   RO         1082    x$fpl$fnaninf       fz_ws.l(fnaninf.o)
    0x080024be   0x080024be   0x0000000a   Code   RO         1084    x$fpl$fretinf       fz_ws.l(fretinf.o)
    0x080024c8   0x080024c8   0x00000000   Code   RO         1086    x$fpl$usenofp       fz_ws.l(usenofp.o)
    0x080024c8   0x080024c8   0x00000004   Data   RO          111    .rodata.POINT_COLOR_TBL  drv_cst816s.o
    0x080024cc   0x080024cc   0x00000004   Data   RO          112    .rodata.TPX         drv_cst816s.o
    0x080024d0   0x080024d0   0x00000474   Data   RO          191    .rodata.ascii_1206  drv_lcd.o
    0x08002944   0x08002944   0x000005f0   Data   RO          192    .rodata.ascii_1608  drv_lcd.o
    0x08002f34   0x08002f34   0x000011d0   Data   RO          193    .rodata.ascii_2412  drv_lcd.o
    0x08004104   0x08004104   0x000017c0   Data   RO          194    .rodata.ascii_3216  drv_lcd.o
    0x080058c4   0x080058c4   0x00000082   Data   RO          195    .rodata.tfont12     drv_lcd.o
    0x08005946   0x08005946   0x000000aa   Data   RO          196    .rodata.tfont16     drv_lcd.o
    0x080059f0   0x080059f0   0x00000172   Data   RO          197    .rodata.tfont24     drv_lcd.o
    0x08005b62   0x08005b62   0x0000028a   Data   RO          198    .rodata.tfont32     drv_lcd.o
    0x08005dec   0x08005dec   0x00000020   Data   RO         1259    Region$$Table       anon$$obj.o


    Execution Region RW_m_data (Exec base: 0x20000000, Load base: 0x08005e0c, Size: 0x0000002c, Max: 0x0001f800, ABSOLUTE)

    Exec Addr    Load Addr    Size         Type   Attr      Idx    E Section Name        Object

    0x20000000   0x08005e0c   0x00000004   Data   RW           47    .data.AHBClockFreq  drv_sysclk.o
    0x20000004   0x08005e10   0x00000004   Data   RW           48    .data.APB1ClockFreq  drv_sysclk.o
    0x20000008   0x08005e14   0x00000004   Data   RW           49    .data.APB2ClockFreq  drv_sysclk.o
    0x2000000c   0x08005e18   0x00000004   Data   RW           46    .data.SystemClockFreq  drv_sysclk.o
    0x20000010   0x08005e1c   0x00000014   Data   RW          113    .data.tp_dev        drv_cst816s.o
    0x20000024        -       0x00000001   Zero   RW          114    .bss.CST816S_Scan.t  drv_cst816s.o
    0x20000025   0x08005e30   0x00000003   PAD
    0x20000028        -       0x00000004   Zero   RW           75    .bss.uwTick         drv_systick.o


    Execution Region ARM_LIB_HEAP (Exec base: 0x2000002c, Load base: 0x08005e30, Size: 0x00000400, Max: 0x00000400, ABSOLUTE)

    Exec Addr    Load Addr    Size         Type   Attr      Idx    E Section Name        Object

    0x2000002c        -       0x00000400   Zero   RW            1    ARM_LIB_HEAP.bss    anon$$obj.o


    Execution Region ARM_LIB_STACK (Exec base: 0x2001fc00, Load base: 0x08005e30, Size: 0x00000400, Max: 0x00000400, ABSOLUTE)

    Exec Addr    Load Addr    Size         Type   Attr      Idx    E Section Name        Object

    0x2001fc00        -       0x00000400   Zero   RW            2    ARM_LIB_STACK.bss   anon$$obj.o


==============================================================================

Image component sizes


      Code (inc. data)   RO Data    RW Data    ZI Data      Debug   Object Name

       686          0          8         20          1       3066   drv_cst816s.o
       764          0          0          0          0       3164   drv_ctiic.o
      2392         12      14620          0          0      11797   drv_lcd.o
      1400          0          0          0          0       2691   drv_lcd_init.o
       538          4          0         16          0       3425   drv_sysclk.o
       256          0          0          0          4       4762   drv_systick.o
       174          0          0          0          0       3899   hal_gpio.o
        24          0          0          0          0       3041   hal_rcc.o
       248         52          0          0          0        659   main.o
        36          8        400          0          0        812   startup_mm32f3277g.o
         2          0          0          0          0        367   system_mm32f3277g.o

    ----------------------------------------------------------------------
      6580         76      15060         36       2056      37683   Object Totals
         0          0         32          0       2048          0   (incl. Generated)
        60          0          0          0          3          0   (incl. Padding)

    ----------------------------------------------------------------------

      Code (inc. data)   RO Data    RW Data    ZI Data      Debug   Library Member Name

         8          0          0          0          0         68   __main.o
         0          0          0          0          0          0   __rtentry.o
        12          0          0          0          0          0   __rtentry2.o
         8          4          0          0          0          0   __rtentry7.o
        52          8          0          0          0          0   __scatter.o
        26          0          0          0          0          0   __scatter_copy.o
        28          0          0          0          0          0   __scatter_zi.o
        18          0          0          0          0         80   exit.o
         0          0          0          0          0          0   indicate_semi.o
         2          0          0          0          0          0   libinit.o
         2          0          0          0          0          0   libinit2.o
         2          0          0          0          0          0   libshutdown.o
         2          0          0          0          0          0   libshutdown2.o
         2          0          0          0          0          0   rtexit.o
        10          0          0          0          0          0   rtexit2.o
        12          4          0          0          0         68   sys_exit.o
         2          0          0          0          0         68   use_no_semi.o
        98          4          0          0          0         92   d2f.o
       804         16          0          0          0        280   daddsub_clz.o
       156          4          0          0          0         92   dnaninf.o
        12          0          0          0          0         68   dretinf.o
        86          4          0          0          0         84   f2d.o
        54          4          0          0          0         84   ffix.o
       258          4          0          0          0         84   fmul.o
       140          4          0          0          0         84   fnaninf.o
        10          0          0          0          0         68   fretinf.o
         0          0          0          0          0          0   usenofp.o

    ----------------------------------------------------------------------
      1812         56          0          0          0       1220   Library Totals
         8          0          0          0          0          0   (incl. Padding)

    ----------------------------------------------------------------------

      Code (inc. data)   RO Data    RW Data    ZI Data      Debug   Library Name

       186         16          0          0          0        284   c_w.l
      1618         40          0          0          0        936   fz_ws.l

    ----------------------------------------------------------------------
      1812         56          0          0          0       1220   Library Totals

    ----------------------------------------------------------------------

==============================================================================


      Code (inc. data)   RO Data    RW Data    ZI Data      Debug   

      8392        132      15060         36       2056      38287   Grand Totals
      8392        132      15060         36       2056      38287   ELF Image Totals
      8392        132      15060         36          0          0   ROM Totals

==============================================================================

    Total RO  Size (Code + RO Data)                23452 (  22.90kB)
    Total RW  Size (RW Data + ZI Data)              2092 (   2.04kB)
    Total ROM Size (Code + RO Data + RW Data)      23488 (  22.94kB)

==============================================================================

